{
  "contractName": "Authentication",
  "abi": [
    {
      "inputs": [
        {
          "components": [
            {
              "internalType": "address",
              "name": "addr",
              "type": "address"
            },
            {
              "internalType": "string",
              "name": "id",
              "type": "string"
            },
            {
              "internalType": "string",
              "name": "name",
              "type": "string"
            },
            {
              "internalType": "string",
              "name": "certification",
              "type": "string"
            },
            {
              "components": [
                {
                  "internalType": "string",
                  "name": "name",
                  "type": "string"
                },
                {
                  "internalType": "string",
                  "name": "street",
                  "type": "string"
                },
                {
                  "internalType": "string",
                  "name": "city",
                  "type": "string"
                },
                {
                  "internalType": "string",
                  "name": "country",
                  "type": "string"
                }
              ],
              "internalType": "struct Company",
              "name": "company",
              "type": "tuple"
            },
            {
              "internalType": "string",
              "name": "role",
              "type": "string"
            }
          ],
          "internalType": "struct User",
          "name": "_user",
          "type": "tuple"
        },
        {
          "internalType": "string",
          "name": "_login",
          "type": "string"
        },
        {
          "internalType": "string",
          "name": "_password",
          "type": "string"
        }
      ],
      "name": "register",
      "outputs": [
        {
          "internalType": "bool",
          "name": "",
          "type": "bool"
        }
      ],
      "stateMutability": "nonpayable",
      "type": "function"
    },
    {
      "inputs": [
        {
          "internalType": "string",
          "name": "_id",
          "type": "string"
        }
      ],
      "name": "getUser",
      "outputs": [
        {
          "components": [
            {
              "internalType": "address",
              "name": "addr",
              "type": "address"
            },
            {
              "internalType": "string",
              "name": "id",
              "type": "string"
            },
            {
              "internalType": "string",
              "name": "name",
              "type": "string"
            },
            {
              "internalType": "string",
              "name": "certification",
              "type": "string"
            },
            {
              "components": [
                {
                  "internalType": "string",
                  "name": "name",
                  "type": "string"
                },
                {
                  "internalType": "string",
                  "name": "street",
                  "type": "string"
                },
                {
                  "internalType": "string",
                  "name": "city",
                  "type": "string"
                },
                {
                  "internalType": "string",
                  "name": "country",
                  "type": "string"
                }
              ],
              "internalType": "struct Company",
              "name": "company",
              "type": "tuple"
            },
            {
              "internalType": "string",
              "name": "role",
              "type": "string"
            }
          ],
          "internalType": "struct User",
          "name": "",
          "type": "tuple"
        }
      ],
      "stateMutability": "view",
      "type": "function"
    },
    {
      "inputs": [
        {
          "internalType": "string",
          "name": "_id",
          "type": "string"
        }
      ],
      "name": "activeUser",
      "outputs": [
        {
          "internalType": "bool",
          "name": "",
          "type": "bool"
        }
      ],
      "stateMutability": "view",
      "type": "function"
    },
    {
      "inputs": [
        {
          "internalType": "string",
          "name": "_id",
          "type": "string"
        }
      ],
      "name": "removeUser",
      "outputs": [
        {
          "internalType": "string",
          "name": "",
          "type": "string"
        }
      ],
      "stateMutability": "nonpayable",
      "type": "function"
    },
    {
      "inputs": [
        {
          "internalType": "string",
          "name": "_user",
          "type": "string"
        },
        {
          "internalType": "string",
          "name": "_password",
          "type": "string"
        }
      ],
      "name": "logon",
      "outputs": [
        {
          "components": [
            {
              "internalType": "address",
              "name": "addr",
              "type": "address"
            },
            {
              "internalType": "string",
              "name": "id",
              "type": "string"
            },
            {
              "internalType": "string",
              "name": "name",
              "type": "string"
            },
            {
              "internalType": "string",
              "name": "certification",
              "type": "string"
            },
            {
              "components": [
                {
                  "internalType": "string",
                  "name": "name",
                  "type": "string"
                },
                {
                  "internalType": "string",
                  "name": "street",
                  "type": "string"
                },
                {
                  "internalType": "string",
                  "name": "city",
                  "type": "string"
                },
                {
                  "internalType": "string",
                  "name": "country",
                  "type": "string"
                }
              ],
              "internalType": "struct Company",
              "name": "company",
              "type": "tuple"
            },
            {
              "internalType": "string",
              "name": "role",
              "type": "string"
            }
          ],
          "internalType": "struct User",
          "name": "",
          "type": "tuple"
        }
      ],
      "stateMutability": "view",
      "type": "function"
    }
  ],
  "bytecode": "0x608060405234801561001057600080fd5b5061163a806100206000396000f3fe608060405234801561001057600080fd5b50600436106100575760003560e01c8063175757d51461005c57806331feb671146100845780634b360a37146100a4578063600cee78146100b757806390533f71146100d7575b600080fd5b61006f61006a366004611039565b6100ea565b60405190151581526020015b60405180910390f35b610097610092366004611039565b610115565b60405161007b91906110c6565b6100976100b23660046111cc565b610601565b6100ca6100c5366004611039565b610c23565b60405161007b9190611230565b61006f6100e536600461131f565b610cf2565b60006003826040516100fc9190611476565b9081526040519081900360200190205460ff1692915050565b61011d610ee2565b60018260405161012d9190611476565b90815260408051918290036020908101832060c0840190925281546001600160a01b031683526001820180549184019161016690611492565b80601f016020809104026020016040519081016040528092919081815260200182805461019290611492565b80156101df5780601f106101b4576101008083540402835291602001916101df565b820191906000526020600020905b8154815290600101906020018083116101c257829003601f168201915b505050505081526020016002820180546101f890611492565b80601f016020809104026020016040519081016040528092919081815260200182805461022490611492565b80156102715780601f1061024657610100808354040283529160200191610271565b820191906000526020600020905b81548152906001019060200180831161025457829003601f168201915b5050505050815260200160038201805461028a90611492565b80601f01602080910402602001604051908101604052809291908181526020018280546102b690611492565b80156103035780601f106102d857610100808354040283529160200191610303565b820191906000526020600020905b8154815290600101906020018083116102e657829003601f168201915b505050505081526020016004820160405180608001604052908160008201805461032c90611492565b80601f016020809104026020016040519081016040528092919081815260200182805461035890611492565b80156103a55780601f1061037a576101008083540402835291602001916103a5565b820191906000526020600020905b81548152906001019060200180831161038857829003601f168201915b505050505081526020016001820180546103be90611492565b80601f01602080910402602001604051908101604052809291908181526020018280546103ea90611492565b80156104375780601f1061040c57610100808354040283529160200191610437565b820191906000526020600020905b81548152906001019060200180831161041a57829003601f168201915b5050505050815260200160028201805461045090611492565b80601f016020809104026020016040519081016040528092919081815260200182805461047c90611492565b80156104c95780601f1061049e576101008083540402835291602001916104c9565b820191906000526020600020905b8154815290600101906020018083116104ac57829003601f168201915b505050505081526020016003820180546104e290611492565b80601f016020809104026020016040519081016040528092919081815260200182805461050e90611492565b801561055b5780601f106105305761010080835404028352916020019161055b565b820191906000526020600020905b81548152906001019060200180831161053e57829003601f168201915b505050505081525050815260200160088201805461057890611492565b80601f01602080910402602001604051908101604052809291908181526020018280546105a490611492565b80156105f15780601f106105c6576101008083540402835291602001916105f1565b820191906000526020600020905b8154815290600101906020018083116105d457829003601f168201915b5050505050815250509050919050565b610609610ee2565b6000838360405160200161061e9291906114c6565b604051602081830303815290604052805190602001209050600060026000838152602001908152602001600020805461065690611492565b80601f016020809104026020016040519081016040528092919081815260200182805461068290611492565b80156106cf5780601f106106a4576101008083540402835291602001916106cf565b820191906000526020600020905b8154815290600101906020018083116106b257829003601f168201915b505050505090506003816040516106e69190611476565b9081526040519081900360200190205460ff1661073c5760405162461bcd60e51b815260206004820152600f60248201526e46616c6861206e6f206c6f67696e2160881b60448201526064015b60405180910390fd5b60018160405161074c9190611476565b90815260408051918290036020908101832060c0840190925281546001600160a01b031683526001820180549184019161078590611492565b80601f01602080910402602001604051908101604052809291908181526020018280546107b190611492565b80156107fe5780601f106107d3576101008083540402835291602001916107fe565b820191906000526020600020905b8154815290600101906020018083116107e157829003601f168201915b5050505050815260200160028201805461081790611492565b80601f016020809104026020016040519081016040528092919081815260200182805461084390611492565b80156108905780601f1061086557610100808354040283529160200191610890565b820191906000526020600020905b81548152906001019060200180831161087357829003601f168201915b505050505081526020016003820180546108a990611492565b80601f01602080910402602001604051908101604052809291908181526020018280546108d590611492565b80156109225780601f106108f757610100808354040283529160200191610922565b820191906000526020600020905b81548152906001019060200180831161090557829003601f168201915b505050505081526020016004820160405180608001604052908160008201805461094b90611492565b80601f016020809104026020016040519081016040528092919081815260200182805461097790611492565b80156109c45780601f10610999576101008083540402835291602001916109c4565b820191906000526020600020905b8154815290600101906020018083116109a757829003601f168201915b505050505081526020016001820180546109dd90611492565b80601f0160208091040260200160405190810160405280929190818152602001828054610a0990611492565b8015610a565780601f10610a2b57610100808354040283529160200191610a56565b820191906000526020600020905b815481529060010190602001808311610a3957829003601f168201915b50505050508152602001600282018054610a6f90611492565b80601f0160208091040260200160405190810160405280929190818152602001828054610a9b90611492565b8015610ae85780601f10610abd57610100808354040283529160200191610ae8565b820191906000526020600020905b815481529060010190602001808311610acb57829003601f168201915b50505050508152602001600382018054610b0190611492565b80601f0160208091040260200160405190810160405280929190818152602001828054610b2d90611492565b8015610b7a5780601f10610b4f57610100808354040283529160200191610b7a565b820191906000526020600020905b815481529060010190602001808311610b5d57829003601f168201915b5050505050815250508152602001600882018054610b9790611492565b80601f0160208091040260200160405190810160405280929190818152602001828054610bc390611492565b8015610c105780601f10610be557610100808354040283529160200191610c10565b820191906000526020600020905b815481529060010190602001808311610bf357829003601f168201915b5050505050815250509250505092915050565b606081600381604051610c369190611476565b9081526040519081900360200190205460ff16610c895760405162461bcd60e51b81526020600482015260116024820152705065726d697373616f206e65676164612160781b6044820152606401610733565b6000600384604051610c9b9190611476565b908152602001604051809103902060006101000a81548160ff0219169083151502179055506040518060400160405280601081526020016f5573756172696f2072656d6f7669646f60801b81525091505b50919050565b6000808383604051602001610d089291906114c6565b60408051601f19818403018152828252805160209182012060c08401835288516001600160a01b0316845288820180518584015289840151858501526060808b015181870152845160808181018752808d0180515183528051870151968301969096528551870151828801529451820151918101919091529285019290925260a0808a01519085015290519151909350600191610da491611476565b90815260405160209181900382019020825181546001600160a01b0319166001600160a01b03909116178155908201516001820190610de39082611544565b5060408201516002820190610df89082611544565b5060608201516003820190610e0d9082611544565b506080820151805160048301908190610e269082611544565b5060208201516001820190610e3b9082611544565b5060408201516002820190610e509082611544565b5060608201516003820190610e659082611544565b50505060a08201516008820190610e7c9082611544565b50505060208086015160008381526002909252604090912090610e9f9082611544565b50600160038660200151604051610eb69190611476565b908152604051908190036020019020805491151560ff1990921691909117905550600190509392505050565b6040518060c0016040528060006001600160a01b03168152602001606081526020016060815260200160608152602001610f3d6040518060800160405280606081526020016060815260200160608152602001606081525090565b8152602001606081525090565b634e487b7160e01b600052604160045260246000fd5b6040516080810167ffffffffffffffff81118282101715610f8357610f83610f4a565b60405290565b60405160c0810167ffffffffffffffff81118282101715610f8357610f83610f4a565b600082601f830112610fbd57600080fd5b813567ffffffffffffffff80821115610fd857610fd8610f4a565b604051601f8301601f19908116603f0116810190828211818310171561100057611000610f4a565b8160405283815286602085880101111561101957600080fd5b836020870160208301376000602085830101528094505050505092915050565b60006020828403121561104b57600080fd5b813567ffffffffffffffff81111561106257600080fd5b61106e84828501610fac565b949350505050565b60005b83811015611091578181015183820152602001611079565b50506000910152565b600081518084526110b2816020860160208601611076565b601f01601f19169290920160200192915050565b602080825282516001600160a01b03168282015282015160c060408301526000906110f460e084018261109a565b90506040840151601f1980858403016060860152611112838361109a565b9250606086015191508085840301608086015261112f838361109a565b925060808601519150808584030160a0860152815160808452611155608085018261109a565b90506020830151848203602086015261116e828261109a565b91505060408301518482036040860152611188828261109a565b9150506060830151925083810360608501526111a4818461109a565b93505060a08601519150808584030160c0860152506111c3828261109a565b95945050505050565b600080604083850312156111df57600080fd5b823567ffffffffffffffff808211156111f757600080fd5b61120386838701610fac565b9350602085013591508082111561121957600080fd5b5061122685828601610fac565b9150509250929050565b602081526000611243602083018461109a565b9392505050565b80356001600160a01b038116811461126157600080fd5b919050565b60006080828403121561127857600080fd5b611280610f60565b9050813567ffffffffffffffff8082111561129a57600080fd5b6112a685838601610fac565b835260208401359150808211156112bc57600080fd5b6112c885838601610fac565b602084015260408401359150808211156112e157600080fd5b6112ed85838601610fac565b6040840152606084013591508082111561130657600080fd5b5061131384828501610fac565b60608301525092915050565b60008060006060848603121561133457600080fd5b833567ffffffffffffffff8082111561134c57600080fd5b9085019060c0828803121561136057600080fd5b611368610f89565b6113718361124a565b815260208301358281111561138557600080fd5b61139189828601610fac565b6020830152506040830135828111156113a957600080fd5b6113b589828601610fac565b6040830152506060830135828111156113cd57600080fd5b6113d989828601610fac565b6060830152506080830135828111156113f157600080fd5b6113fd89828601611266565b60808301525060a08301358281111561141557600080fd5b61142189828601610fac565b60a0830152509450602086013591508082111561143d57600080fd5b61144987838801610fac565b9350604086013591508082111561145f57600080fd5b5061146c86828701610fac565b9150509250925092565b60008251611488818460208701611076565b9190910192915050565b600181811c908216806114a657607f821691505b602082108103610cec57634e487b7160e01b600052602260045260246000fd5b600083516114d8818460208801611076565b8351908301906114ec818360208801611076565b01949350505050565b601f82111561153f57600081815260208120601f850160051c8101602086101561151c5750805b601f850160051c820191505b8181101561153b57828155600101611528565b5050505b505050565b815167ffffffffffffffff81111561155e5761155e610f4a565b6115728161156c8454611492565b846114f5565b602080601f8311600181146115a7576000841561158f5750858301515b600019600386901b1c1916600185901b17855561153b565b600085815260208120601f198616915b828110156115d6578886015182559484019460019091019084016115b7565b50858210156115f45787850151600019600388901b60f8161c191681555b5050505050600190811b0190555056fea26469706673582212202c07430a3cc40dbe4a0ee1e57c2ce01f31b0bd59c034c38fb16a87bfbde347c064736f6c63430008110033",
  "immutableReferences": {},
  "source": "// SPDX-License-Identifier: MIT\r\npragma solidity ^0.8.17;\r\n\r\nstruct Company {\r\n    string name;\r\n    string street;\r\n    string city;\r\n    string country;\r\n}\r\n\r\nstruct User {\r\n    address addr;\r\n    string id;\r\n    string name;\r\n    string certification;\r\n    Company company;\r\n    string role;\r\n}\r\n\r\ncontract Authentication {\r\n    uint count;\r\n    mapping(string => User) users; // id => User\r\n    mapping(bytes32 => string) login; // password => id user\r\n    mapping(string => bool) status; // id => boolean. Usuarios ativos com permissao de modificaao\r\n\r\n    modifier onlyOWNER(string memory _id) {\r\n        require(status[_id], \"Permissao negada!\");\r\n        _;\r\n    }\r\n\r\n    function register(\r\n        User memory _user,\r\n        string memory _login,\r\n        string memory _password\r\n    ) public returns (bool) {\r\n        // Registrar o produtor\r\n        //string memory _id = generateId(_addr, _name, password, _date);\r\n        bytes32 password = keccak256(abi.encodePacked(_login, _password));\r\n        users[_user.id] = User(\r\n            _user.addr,\r\n            _user.id,\r\n            _user.name,\r\n            _user.certification,\r\n            Company(\r\n                _user.company.name,\r\n                _user.company.street,\r\n                _user.company.city,\r\n                _user.company.country\r\n            ),\r\n            _user.role\r\n        );\r\n        login[password] = _user.id;\r\n        status[_user.id] = true;\r\n        return true;\r\n    }\r\n\r\n    function getUser(string memory _id) public view returns (User memory) {\r\n        return users[_id];\r\n    }\r\n\r\n    function activeUser(string memory _id) public view returns (bool) {\r\n        return status[_id];\r\n    }\r\n\r\n    function removeUser(\r\n        string memory _id\r\n    ) public onlyOWNER(_id) returns (string memory) {\r\n        status[_id] = false;\r\n        return \"Usuario removido\";\r\n    }\r\n\r\n    function logon(\r\n        string memory _user,\r\n        string memory _password\r\n    ) public view returns (User memory) {\r\n        bytes32 password = keccak256(abi.encodePacked(_user, _password));\r\n        string memory id = login[password];\r\n        require(status[id], \"Falha no login!\");\r\n        return users[id];\r\n    }\r\n}\r\n\r\n// function verifyPassword(\r\n//     string memory _login,\r\n//     string memory _password\r\n// ) public view returns (bool) {\r\n//     bytes32 password = keccak256(abi.encodePacked(_login, _password));\r\n//     if (\r\n//         keccak256(abi.encodePacked(passwords[password])) ==\r\n//         keccak256(abi.encodePacked(\"\"))\r\n//     ) {\r\n//         return true;\r\n//     } else {\r\n//         return false;\r\n//     }\r\n// }\r\n\r\n// function generateId(\r\n//     address _addr,\r\n//     string memory _name,\r\n//     bytes32 _password,\r\n//     string memory _date\r\n// ) internal view returns (string memory) {\r\n//     uint hashDigits = 6;\r\n//     uint hashModulus = 10 ** hashDigits;\r\n//     uint random = uint(\r\n//         keccak256(\r\n//             abi.encodePacked(_addr, _name, _password, block.timestamp)\r\n//         )\r\n//     );\r\n//     uint result = random % hashModulus;\r\n//     string memory resultString = uintToString(result);\r\n\r\n//     return string(abi.encodePacked(resultString, _date));\r\n// }\r\n\r\n// function uintToString(uint v) internal pure returns (string memory str) {\r\n//     uint maxlength = 100;\r\n//     bytes memory reversed = new bytes(maxlength);\r\n//     uint i = 0;\r\n//     while (v != 0) {\r\n//         uint remainder = v % 10;\r\n//         v = v / 10;\r\n//         reversed[i++] = bytes1(uint8(48 + remainder));\r\n//     }\r\n//     bytes memory s = new bytes(i);\r\n//     for (uint j = 0; j < i; j++) {\r\n//         s[j] = reversed[i - 1 - j];\r\n//     }\r\n//     return str = string(s);\r\n// }\r\n",
  "sourcePath": "C:\\Users\\samue\\Documents\\Workspace_react\\BlockForBees\\backend_blockcahin\\contracts\\Authentication.sol",
  "compiler": {
    "name": "solc",
    "version": "0.8.17+commit.8df45f5f.Emscripten.clang"
  },
  "schemaVersion": "3.4.11",
  "updatedAt": "2023-04-25T01:20:18.650Z",
  "devdoc": {
    "kind": "dev",
    "methods": {},
    "version": 1
  },
  "userdoc": {
    "kind": "user",
    "methods": {},
    "version": 1
  }
}