{
  "contractName": "Distributor",
  "abi": [
    {
      "inputs": [
        {
          "internalType": "address",
          "name": "_contractAuthentication",
          "type": "address"
        },
        {
          "internalType": "address",
          "name": "_contractUpdateTr",
          "type": "address"
        }
      ],
      "stateMutability": "nonpayable",
      "type": "constructor"
    },
    {
      "inputs": [
        {
          "internalType": "string",
          "name": "_id",
          "type": "string"
        },
        {
          "internalType": "string",
          "name": "_distributorId",
          "type": "string"
        },
        {
          "internalType": "string",
          "name": "_supplierId",
          "type": "string"
        },
        {
          "internalType": "string",
          "name": "_dateTime",
          "type": "string"
        },
        {
          "internalType": "string",
          "name": "_local",
          "type": "string"
        },
        {
          "internalType": "string",
          "name": "_userId",
          "type": "string"
        }
      ],
      "name": "registerReceivedUnit",
      "outputs": [],
      "stateMutability": "nonpayable",
      "type": "function"
    },
    {
      "inputs": [
        {
          "internalType": "string",
          "name": "_id",
          "type": "string"
        },
        {
          "internalType": "string[]",
          "name": "_units",
          "type": "string[]"
        },
        {
          "internalType": "string",
          "name": "_supplierId",
          "type": "string"
        },
        {
          "internalType": "string",
          "name": "_dateTime",
          "type": "string"
        },
        {
          "internalType": "string",
          "name": "_local",
          "type": "string"
        },
        {
          "internalType": "string",
          "name": "_userId",
          "type": "string"
        }
      ],
      "name": "registerReceivedContainer",
      "outputs": [],
      "stateMutability": "nonpayable",
      "type": "function"
    },
    {
      "inputs": [
        {
          "internalType": "string",
          "name": "_id",
          "type": "string"
        }
      ],
      "name": "getReceivedContainer",
      "outputs": [
        {
          "components": [
            {
              "internalType": "string",
              "name": "id",
              "type": "string"
            },
            {
              "internalType": "string[]",
              "name": "units",
              "type": "string[]"
            },
            {
              "internalType": "string",
              "name": "supplierId",
              "type": "string"
            },
            {
              "internalType": "string",
              "name": "dateTime",
              "type": "string"
            },
            {
              "internalType": "string",
              "name": "local",
              "type": "string"
            }
          ],
          "internalType": "struct ReceivedContainer",
          "name": "",
          "type": "tuple"
        }
      ],
      "stateMutability": "view",
      "type": "function"
    },
    {
      "inputs": [
        {
          "internalType": "string",
          "name": "_userId",
          "type": "string"
        }
      ],
      "name": "getReceivedContainerId",
      "outputs": [
        {
          "internalType": "string[]",
          "name": "",
          "type": "string[]"
        }
      ],
      "stateMutability": "view",
      "type": "function"
    },
    {
      "inputs": [
        {
          "internalType": "string",
          "name": "_id",
          "type": "string"
        },
        {
          "internalType": "string",
          "name": "_distributorId",
          "type": "string"
        },
        {
          "internalType": "string",
          "name": "_receiverId",
          "type": "string"
        },
        {
          "internalType": "string",
          "name": "_dateTime",
          "type": "string"
        },
        {
          "internalType": "string",
          "name": "_local",
          "type": "string"
        },
        {
          "internalType": "string",
          "name": "_userId",
          "type": "string"
        }
      ],
      "name": "registerDispachedUnit",
      "outputs": [],
      "stateMutability": "nonpayable",
      "type": "function"
    },
    {
      "inputs": [
        {
          "internalType": "string",
          "name": "_id",
          "type": "string"
        },
        {
          "internalType": "string[]",
          "name": "_units",
          "type": "string[]"
        },
        {
          "internalType": "string",
          "name": "_distributorId",
          "type": "string"
        },
        {
          "internalType": "string",
          "name": "_receiverId",
          "type": "string"
        },
        {
          "internalType": "string",
          "name": "_date",
          "type": "string"
        },
        {
          "internalType": "string",
          "name": "_local",
          "type": "string"
        },
        {
          "internalType": "string",
          "name": "_userId",
          "type": "string"
        }
      ],
      "name": "registerDispatchedContainer",
      "outputs": [],
      "stateMutability": "nonpayable",
      "type": "function"
    },
    {
      "inputs": [
        {
          "internalType": "string",
          "name": "_id",
          "type": "string"
        }
      ],
      "name": "getDispatchedContainer",
      "outputs": [
        {
          "components": [
            {
              "internalType": "string",
              "name": "id",
              "type": "string"
            },
            {
              "internalType": "string[]",
              "name": "units",
              "type": "string[]"
            },
            {
              "internalType": "string",
              "name": "distributorId",
              "type": "string"
            },
            {
              "internalType": "string",
              "name": "receiverId",
              "type": "string"
            },
            {
              "internalType": "string",
              "name": "date",
              "type": "string"
            },
            {
              "internalType": "string",
              "name": "local",
              "type": "string"
            }
          ],
          "internalType": "struct DispachedContainer",
          "name": "",
          "type": "tuple"
        }
      ],
      "stateMutability": "view",
      "type": "function"
    },
    {
      "inputs": [
        {
          "internalType": "string",
          "name": "_userId",
          "type": "string"
        }
      ],
      "name": "getDispatchedContainerId",
      "outputs": [
        {
          "internalType": "string[]",
          "name": "",
          "type": "string[]"
        }
      ],
      "stateMutability": "view",
      "type": "function"
    },
    {
      "inputs": [
        {
          "internalType": "string",
          "name": "_sender",
          "type": "string"
        },
        {
          "internalType": "string",
          "name": "_receiver",
          "type": "string"
        },
        {
          "internalType": "string",
          "name": "_unitId",
          "type": "string"
        },
        {
          "internalType": "string",
          "name": "_date",
          "type": "string"
        },
        {
          "internalType": "string",
          "name": "_businessUnitType",
          "type": "string"
        },
        {
          "internalType": "bytes",
          "name": "_signature",
          "type": "bytes"
        }
      ],
      "name": "forwarding",
      "outputs": [],
      "stateMutability": "nonpayable",
      "type": "function"
    }
  ],
  "bytecode": "0x60806040523480156200001157600080fd5b5060405162001bc738038062001bc783398101604081905262000034916200009d565b600880546001600160a01b039384166001600160a01b03199182168117909255600980548216909217909155600a8054929093169181168217909255600b8054909216179055620000d5565b80516001600160a01b03811681146200009857600080fd5b919050565b60008060408385031215620000b157600080fd5b620000bc8362000080565b9150620000cc6020840162000080565b90509250929050565b611ae280620000e56000396000f3fe608060405234801561001057600080fd5b50600436106100935760003560e01c806399b0282b1161006657806399b0282b146101095780639e7d36951461011c578063ab994f891461013c578063d97f71c91461014f578063fb32df311461016257600080fd5b806310b270f5146100985780633e01d719146100ad5780636de5ded7146100d65780637f629f07146100e9575b600080fd5b6100ab6100a63660046112bf565b610175565b005b6100c06100bb3660046113b4565b610301565b6040516100cd9190611441565b60405180910390f35b6100ab6100e4366004611542565b6103f8565b6100fc6100f73660046113b4565b61054a565b6040516100cd91906115f9565b6100c06101173660046113b4565b6108cd565b61012f61012a3660046113b4565b6109b9565b6040516100cd9190611694565b6100ab61014a3660046112bf565b610d4c565b6100ab61015d366004611743565b610e9a565b6100ab6101703660046112bf565b61103d565b60095460405163175757d560e01b815282916001600160a01b03169063175757d5906101a590849060040161185e565b602060405180830381865afa1580156101c2573d6000803e3d6000fd5b505050506040513d601f19601f820116820180604052508101906101e69190611878565b15156001146102105760405162461bcd60e51b81526004016102079061189a565b60405180910390fd5b6040518060a001604052808881526020018781526020018681526020018581526020018481525060008860405161024791906118c5565b90815260405190819003602001902081518190610264908261196a565b5060208201516001820190610279908261196a565b506040820151600282019061028e908261196a565b50606082015160038201906102a3908261196a565b50608082015160048201906102b8908261196a565b509050506001826040516102cc91906118c5565b9081526040516020918190038201902080546001810182556000918252919020016102f7888261196a565b5050505050505050565b606060038260405161031391906118c5565b9081526020016040518091039020805480602002602001604051908101604052809291908181526020016000905b828210156103ed578382906000526020600020018054610360906118e1565b80601f016020809104026020016040519081016040528092919081815260200182805461038c906118e1565b80156103d95780601f106103ae576101008083540402835291602001916103d9565b820191906000526020600020905b8154815290600101906020018083116103bc57829003601f168201915b505050505081526020019060010190610341565b505050509050919050565b60095460405163175757d560e01b815282916001600160a01b03169063175757d59061042890849060040161185e565b602060405180830381865afa158015610445573d6000803e3d6000fd5b505050506040513d601f19601f820116820180604052508101906104699190611878565b151560011461048a5760405162461bcd60e51b81526004016102079061189a565b6040518060a00160405280888152602001878152602001868152602001858152602001848152506002886040516104c191906118c5565b908152604051908190036020019020815181906104de908261196a565b5060208281015180516104f79260018501920190611143565b506040820151600282019061050c908261196a565b5060608201516003820190610521908261196a565b5060808201516004820190610536908261196a565b509050506003826040516102cc91906118c5565b61057c6040518060a0016040528060608152602001606081526020016060815260200160608152602001606081525090565b60028260405161058c91906118c5565b90815260200160405180910390206040518060a00160405290816000820180546105b5906118e1565b80601f01602080910402602001604051908101604052809291908181526020018280546105e1906118e1565b801561062e5780601f106106035761010080835404028352916020019161062e565b820191906000526020600020905b81548152906001019060200180831161061157829003601f168201915b5050505050815260200160018201805480602002602001604051908101604052809291908181526020016000905b8282101561070857838290600052602060002001805461067b906118e1565b80601f01602080910402602001604051908101604052809291908181526020018280546106a7906118e1565b80156106f45780601f106106c9576101008083540402835291602001916106f4565b820191906000526020600020905b8154815290600101906020018083116106d757829003601f168201915b50505050508152602001906001019061065c565b505050508152602001600282018054610720906118e1565b80601f016020809104026020016040519081016040528092919081815260200182805461074c906118e1565b80156107995780601f1061076e57610100808354040283529160200191610799565b820191906000526020600020905b81548152906001019060200180831161077c57829003601f168201915b505050505081526020016003820180546107b2906118e1565b80601f01602080910402602001604051908101604052809291908181526020018280546107de906118e1565b801561082b5780601f106108005761010080835404028352916020019161082b565b820191906000526020600020905b81548152906001019060200180831161080e57829003601f168201915b50505050508152602001600482018054610844906118e1565b80601f0160208091040260200160405190810160405280929190818152602001828054610870906118e1565b80156108bd5780601f10610892576101008083540402835291602001916108bd565b820191906000526020600020905b8154815290600101906020018083116108a057829003601f168201915b5050505050815250509050919050565b60606007826040516108df91906118c5565b9081526020016040518091039020805480602002602001604051908101604052809291908181526020016000905b828210156103ed57838290600052602060002001805461092c906118e1565b80601f0160208091040260200160405190810160405280929190818152602001828054610958906118e1565b80156109a55780601f1061097a576101008083540402835291602001916109a5565b820191906000526020600020905b81548152906001019060200180831161098857829003601f168201915b50505050508152602001906001019061090d565b6109f26040518060c001604052806060815260200160608152602001606081526020016060815260200160608152602001606081525090565b600682604051610a0291906118c5565b90815260200160405180910390206040518060c0016040529081600082018054610a2b906118e1565b80601f0160208091040260200160405190810160405280929190818152602001828054610a57906118e1565b8015610aa45780601f10610a7957610100808354040283529160200191610aa4565b820191906000526020600020905b815481529060010190602001808311610a8757829003601f168201915b5050505050815260200160018201805480602002602001604051908101604052809291908181526020016000905b82821015610b7e578382906000526020600020018054610af1906118e1565b80601f0160208091040260200160405190810160405280929190818152602001828054610b1d906118e1565b8015610b6a5780601f10610b3f57610100808354040283529160200191610b6a565b820191906000526020600020905b815481529060010190602001808311610b4d57829003601f168201915b505050505081526020019060010190610ad2565b505050508152602001600282018054610b96906118e1565b80601f0160208091040260200160405190810160405280929190818152602001828054610bc2906118e1565b8015610c0f5780601f10610be457610100808354040283529160200191610c0f565b820191906000526020600020905b815481529060010190602001808311610bf257829003601f168201915b50505050508152602001600382018054610c28906118e1565b80601f0160208091040260200160405190810160405280929190818152602001828054610c54906118e1565b8015610ca15780601f10610c7657610100808354040283529160200191610ca1565b820191906000526020600020905b815481529060010190602001808311610c8457829003601f168201915b50505050508152602001600482018054610cba906118e1565b80601f0160208091040260200160405190810160405280929190818152602001828054610ce6906118e1565b8015610d335780601f10610d0857610100808354040283529160200191610d33565b820191906000526020600020905b815481529060010190602001808311610d1657829003601f168201915b50505050508152602001600582018054610844906118e1565b60095460405163175757d560e01b815282916001600160a01b03169063175757d590610d7c90849060040161185e565b602060405180830381865afa158015610d99573d6000803e3d6000fd5b505050506040513d601f19601f82011682018060405250810190610dbd9190611878565b1515600114610dde5760405162461bcd60e51b81526004016102079061189a565b6040518060a0016040528088815260200187815260200186815260200185815260200184815250600488604051610e1591906118c5565b90815260405190819003602001902081518190610e32908261196a565b5060208201516001820190610e47908261196a565b5060408201516002820190610e5c908261196a565b5060608201516003820190610e71908261196a565b5060808201516004820190610e86908261196a565b509050506005826040516102cc91906118c5565b60095460405163175757d560e01b815282916001600160a01b03169063175757d590610eca90849060040161185e565b602060405180830381865afa158015610ee7573d6000803e3d6000fd5b505050506040513d601f19601f82011682018060405250810190610f0b9190611878565b1515600114610f2c5760405162461bcd60e51b81526004016102079061189a565b6040518060c0016040528089815260200188815260200187815260200186815260200185815260200184815250600689604051610f6991906118c5565b90815260405190819003602001902081518190610f86908261196a565b506020828101518051610f9f9260018501920190611143565b5060408201516002820190610fb4908261196a565b5060608201516003820190610fc9908261196a565b5060808201516004820190610fde908261196a565b5060a08201516005820190610ff3908261196a565b5090505060078260405161100791906118c5565b908152604051602091819003820190208054600181018255600091825291902001611032898261196a565b505050505050505050565b60095460405163175757d560e01b815286916001600160a01b03169063175757d59061106d90849060040161185e565b602060405180830381865afa15801561108a573d6000803e3d6000fd5b505050506040513d601f19601f820116820180604052508101906110ae9190611878565b15156001146110cf5760405162461bcd60e51b81526004016102079061189a565b600b5460405162665dd960e61b81526001600160a01b0390911690631997764090611108908a908a908a908a908a908a90600401611a2a565b600060405180830381600087803b15801561112257600080fd5b505af1158015611136573d6000803e3d6000fd5b5050505050505050505050565b828054828255906000526020600020908101928215611189579160200282015b828111156111895782518290611179908261196a565b5091602001919060010190611163565b50611195929150611199565b5090565b808211156111955760006111ad82826111b6565b50600101611199565b5080546111c2906118e1565b6000825580601f106111d2575050565b601f0160209004906000526020600020908101906111f091906111f3565b50565b5b8082111561119557600081556001016111f4565b634e487b7160e01b600052604160045260246000fd5b604051601f8201601f1916810167ffffffffffffffff8111828210171561124757611247611208565b604052919050565b600082601f83011261126057600080fd5b813567ffffffffffffffff81111561127a5761127a611208565b61128d601f8201601f191660200161121e565b8181528460208386010111156112a257600080fd5b816020850160208301376000918101602001919091529392505050565b60008060008060008060c087890312156112d857600080fd5b863567ffffffffffffffff808211156112f057600080fd5b6112fc8a838b0161124f565b9750602089013591508082111561131257600080fd5b61131e8a838b0161124f565b9650604089013591508082111561133457600080fd5b6113408a838b0161124f565b9550606089013591508082111561135657600080fd5b6113628a838b0161124f565b9450608089013591508082111561137857600080fd5b6113848a838b0161124f565b935060a089013591508082111561139a57600080fd5b506113a789828a0161124f565b9150509295509295509295565b6000602082840312156113c657600080fd5b813567ffffffffffffffff8111156113dd57600080fd5b6113e98482850161124f565b949350505050565b60005b8381101561140c5781810151838201526020016113f4565b50506000910152565b6000815180845261142d8160208601602086016113f1565b601f01601f19169290920160200192915050565b6000602080830181845280855180835260408601915060408160051b870101925083870160005b8281101561149657603f19888603018452611484858351611415565b94509285019290850190600101611468565b5092979650505050505050565b600082601f8301126114b457600080fd5b8135602067ffffffffffffffff808311156114d1576114d1611208565b8260051b6114e083820161121e565b93845285810183019383810190888611156114fa57600080fd5b84880192505b85831015611536578235848111156115185760008081fd5b6115268a87838c010161124f565b8352509184019190840190611500565b98975050505050505050565b60008060008060008060c0878903121561155b57600080fd5b863567ffffffffffffffff8082111561157357600080fd5b61157f8a838b0161124f565b9750602089013591508082111561159557600080fd5b61131e8a838b016114a3565b600082825180855260208086019550808260051b84010181860160005b848110156115ec57601f198684030189526115da838351611415565b988401989250908301906001016115be565b5090979650505050505050565b602081526000825160a0602084015261161560c0840182611415565b90506020840151601f198085840301604086015261163383836115a1565b925060408601519150808584030160608601526116508383611415565b9250606086015191508085840301608086015261166d8383611415565b925060808601519150808584030160a08601525061168b8282611415565b95945050505050565b602081526000825160c060208401526116b060e0840182611415565b90506020840151601f19808584030160408601526116ce83836115a1565b925060408601519150808584030160608601526116eb8383611415565b925060608601519150808584030160808601526117088383611415565b925060808601519150808584030160a08601526117258383611415565b925060a08601519150808584030160c08601525061168b8282611415565b600080600080600080600060e0888a03121561175e57600080fd5b873567ffffffffffffffff8082111561177657600080fd5b6117828b838c0161124f565b985060208a013591508082111561179857600080fd5b6117a48b838c016114a3565b975060408a01359150808211156117ba57600080fd5b6117c68b838c0161124f565b965060608a01359150808211156117dc57600080fd5b6117e88b838c0161124f565b955060808a01359150808211156117fe57600080fd5b61180a8b838c0161124f565b945060a08a013591508082111561182057600080fd5b61182c8b838c0161124f565b935060c08a013591508082111561184257600080fd5b5061184f8a828b0161124f565b91505092959891949750929550565b6020815260006118716020830184611415565b9392505050565b60006020828403121561188a57600080fd5b8151801515811461187157600080fd5b6020808252601190820152705065726d697373616f206e65676164612160781b604082015260600190565b600082516118d78184602087016113f1565b9190910192915050565b600181811c908216806118f557607f821691505b60208210810361191557634e487b7160e01b600052602260045260246000fd5b50919050565b601f82111561196557600081815260208120601f850160051c810160208610156119425750805b601f850160051c820191505b818110156119615782815560010161194e565b5050505b505050565b815167ffffffffffffffff81111561198457611984611208565b6119988161199284546118e1565b8461191b565b602080601f8311600181146119cd57600084156119b55750858301515b600019600386901b1c1916600185901b178555611961565b600085815260208120601f198616915b828110156119fc578886015182559484019460019091019084016119dd565b5085821015611a1a5787850151600019600388901b60f8161c191681555b5050505050600190811b01905550565b60c081526000611a3d60c0830189611415565b8281036020840152611a4f8189611415565b90508281036040840152611a638188611415565b90508281036060840152611a778187611415565b90508281036080840152611a8b8186611415565b905082810360a0840152611a9f8185611415565b999850505050505050505056fea26469706673582212204b3ed55f3aae9e6f3d63f4e7e9bfb42a7be6a5583040aef05004caeff571932f64736f6c63430008110033",
  "immutableReferences": {},
  "source": "// SPDX-License-Identifier: MIT\r\npragma solidity ^0.8.17;\r\nimport \"./Authentication.sol\";\r\nimport \"./UpdateTr.sol\";\r\n\r\nstruct ReceivedUnit {\r\n    string id;\r\n    string distributorId;\r\n    string supplierId;\r\n    string dateTime;\r\n    string local;\r\n}\r\n\r\nstruct ReceivedContainer {\r\n    string id;\r\n    string[] units;\r\n    string supplierId;\r\n    string dateTime;\r\n    string local;\r\n} // Logistc Unit Received\r\n\r\nstruct DispatchedUnit {\r\n    string id;\r\n    string distributorId;\r\n    string receiverId;\r\n    string date;\r\n    string local;\r\n}\r\n\r\nstruct DispachedContainer {\r\n    string id;\r\n    string[] units;\r\n    string distributorId;\r\n    string receiverId;\r\n    string date;\r\n    string local;\r\n}\r\n\r\ncontract Distributor {\r\n    //Variaveis de estado\r\n    mapping(string => ReceivedUnit) receivedUnits; // Lista de containers recebidos para entrega por cada distribuidor.\r\n    mapping(string => string[]) receivedUnitsId;\r\n\r\n    mapping(string => ReceivedContainer) receivedContainers; // Lista de containers recebidos para entrega por cada distribuidor.\r\n    mapping(string => string[]) receivedContainersId;\r\n\r\n    mapping(string => DispatchedUnit) dispatchedUnits; // Lista de containers recebidos para entrega por cada distribuidor.\r\n    mapping(string => string[]) dispatchedUnitsId;\r\n\r\n    mapping(string => DispachedContainer) dispatchedContainers; // Lista de containers recebidos para entrega por cada distribuidor.\r\n    mapping(string => string[]) dispatchedContainersId;\r\n\r\n    address contractAuthentication;\r\n    Authentication instanceAuthentication;\r\n    address contractUpdateTr;\r\n    UpdateTr instanceUpdateTr;\r\n\r\n    constructor(address _contractAuthentication, address _contractUpdateTr) {\r\n        contractAuthentication = _contractAuthentication;\r\n        instanceAuthentication = Authentication(contractAuthentication);\r\n        contractUpdateTr = _contractUpdateTr;\r\n        instanceUpdateTr = UpdateTr(contractUpdateTr);\r\n    }\r\n\r\n    //Verifica se o endereo que esta chamando o contrato possui permisao para modificar o estado da rede\r\n    modifier onlyOWNER(string memory _userId) {\r\n        require(\r\n            instanceAuthentication.activeUser(_userId) == true,\r\n            \"Permissao negada!\"\r\n        );\r\n        _;\r\n    }\r\n\r\n    function registerReceivedUnit(\r\n        string memory _id,\r\n        string memory _distributorId,\r\n        string memory _supplierId,\r\n        string memory _dateTime,\r\n        string memory _local,\r\n        string memory _userId\r\n    ) public onlyOWNER(_userId) {\r\n        receivedUnits[_id] = ReceivedUnit(\r\n            _id,\r\n            _distributorId,\r\n            _supplierId,\r\n            _dateTime,\r\n            _local\r\n        );\r\n        receivedUnitsId[_userId].push(_id);\r\n    }\r\n\r\n    function registerReceivedContainer(\r\n        string memory _id,\r\n        string[] memory _units,\r\n        string memory _supplierId,\r\n        string memory _dateTime,\r\n        string memory _local,\r\n        string memory _userId\r\n    ) public onlyOWNER(_userId) {\r\n        receivedContainers[_id] = ReceivedContainer(\r\n            _id,\r\n            _units,\r\n            _supplierId,\r\n            _dateTime,\r\n            _local\r\n        );\r\n        receivedContainersId[_userId].push(_id);\r\n    }\r\n\r\n    function getReceivedContainer(\r\n        string memory _id\r\n    ) public view returns (ReceivedContainer memory) {\r\n        return receivedContainers[_id];\r\n    }\r\n\r\n    function getReceivedContainerId(\r\n        string memory _userId\r\n    ) public view returns (string[] memory) {\r\n        return receivedContainersId[_userId];\r\n    }\r\n\r\n    function registerDispachedUnit(\r\n        string memory _id,\r\n        string memory _distributorId,\r\n        string memory _receiverId,\r\n        string memory _dateTime,\r\n        string memory _local,\r\n        string memory _userId\r\n    ) public onlyOWNER(_userId) {\r\n        dispatchedUnits[_id] = DispatchedUnit(\r\n            _id,\r\n            _distributorId,\r\n            _receiverId,\r\n            _dateTime,\r\n            _local\r\n        );\r\n        dispatchedUnitsId[_userId].push(_id);\r\n    }\r\n\r\n    function registerDispatchedContainer(\r\n        string memory _id,\r\n        string[] memory _units,\r\n        string memory _distributorId,\r\n        string memory _receiverId,\r\n        string memory _date,\r\n        string memory _local,\r\n        string memory _userId\r\n    ) public onlyOWNER(_userId) {\r\n        dispatchedContainers[_id] = DispachedContainer(\r\n            _id,\r\n            _units,\r\n            _distributorId,\r\n            _receiverId,\r\n            _date,\r\n            _local\r\n        );\r\n        dispatchedContainersId[_userId].push(_id);\r\n    }\r\n\r\n    function getDispatchedContainer(\r\n        string memory _id\r\n    ) public view returns (DispachedContainer memory) {\r\n        return dispatchedContainers[_id];\r\n    }\r\n\r\n    function getDispatchedContainerId(\r\n        string memory _userId\r\n    ) public view returns (string[] memory) {\r\n        return dispatchedContainersId[_userId];\r\n    }\r\n\r\n    //Funo para registrar a tranzao de um produto\r\n    function forwarding(\r\n        string memory _sender,\r\n        string memory _receiver,\r\n        string memory _unitId,\r\n        string memory _date,\r\n        string memory _businessUnitType,\r\n        bytes memory _signature\r\n    ) public onlyOWNER(_receiver) {\r\n        //chamar funcao updateTr no contrato UpdateTr\r\n        instanceUpdateTr.updateTr(\r\n            _sender,\r\n            _receiver,\r\n            _unitId,\r\n            _date,\r\n            _businessUnitType,\r\n            _signature\r\n        );\r\n    }\r\n}\r\n",
  "sourcePath": "C:\\Users\\samue\\Documents\\Workspace_react\\BlockForBees\\backend_blockcahin\\contracts\\Distributor.sol",
  "compiler": {
    "name": "solc",
    "version": "0.8.17+commit.8df45f5f.Emscripten.clang"
  },
  "schemaVersion": "3.4.11",
  "updatedAt": "2023-04-26T22:52:57.985Z",
  "devdoc": {
    "kind": "dev",
    "methods": {},
    "version": 1
  },
  "userdoc": {
    "kind": "user",
    "methods": {},
    "version": 1
  }
}