{
  "contractName": "Merchant",
  "abi": [
    {
      "inputs": [
        {
          "internalType": "address",
          "name": "_contractAuthentication",
          "type": "address"
        },
        {
          "internalType": "address",
          "name": "_contractUpdateTr",
          "type": "address"
        }
      ],
      "stateMutability": "nonpayable",
      "type": "constructor"
    },
    {
      "inputs": [
        {
          "internalType": "string",
          "name": "_id",
          "type": "string"
        }
      ],
      "name": "getReceivedUnit",
      "outputs": [
        {
          "components": [
            {
              "internalType": "string",
              "name": "id",
              "type": "string"
            },
            {
              "internalType": "string[]",
              "name": "units",
              "type": "string[]"
            },
            {
              "internalType": "string",
              "name": "distributorId",
              "type": "string"
            },
            {
              "internalType": "string",
              "name": "date",
              "type": "string"
            },
            {
              "internalType": "enum UnitType",
              "name": "unitType",
              "type": "uint8"
            }
          ],
          "internalType": "struct ReceivedUnit",
          "name": "",
          "type": "tuple"
        }
      ],
      "stateMutability": "view",
      "type": "function"
    },
    {
      "inputs": [
        {
          "internalType": "string",
          "name": "_userId",
          "type": "string"
        }
      ],
      "name": "getReceivedUnitId",
      "outputs": [
        {
          "internalType": "string[]",
          "name": "",
          "type": "string[]"
        }
      ],
      "stateMutability": "view",
      "type": "function"
    },
    {
      "inputs": [
        {
          "internalType": "string",
          "name": "_id",
          "type": "string"
        }
      ],
      "name": "getReceivedContainer",
      "outputs": [
        {
          "components": [
            {
              "internalType": "string",
              "name": "id",
              "type": "string"
            },
            {
              "internalType": "string[]",
              "name": "units",
              "type": "string[]"
            },
            {
              "internalType": "string",
              "name": "distributorId",
              "type": "string"
            },
            {
              "internalType": "string",
              "name": "date",
              "type": "string"
            }
          ],
          "internalType": "struct ReceivedContainer",
          "name": "",
          "type": "tuple"
        }
      ],
      "stateMutability": "view",
      "type": "function"
    },
    {
      "inputs": [
        {
          "internalType": "string",
          "name": "_user",
          "type": "string"
        }
      ],
      "name": "listReceivedUnits",
      "outputs": [
        {
          "components": [
            {
              "internalType": "string",
              "name": "id",
              "type": "string"
            },
            {
              "internalType": "string[]",
              "name": "units",
              "type": "string[]"
            },
            {
              "internalType": "string",
              "name": "distributorId",
              "type": "string"
            },
            {
              "internalType": "string",
              "name": "date",
              "type": "string"
            },
            {
              "internalType": "enum UnitType",
              "name": "unitType",
              "type": "uint8"
            }
          ],
          "internalType": "struct ReceivedUnit[]",
          "name": "",
          "type": "tuple[]"
        }
      ],
      "stateMutability": "view",
      "type": "function"
    },
    {
      "inputs": [
        {
          "internalType": "string",
          "name": "_sender",
          "type": "string"
        },
        {
          "internalType": "string",
          "name": "_receiver",
          "type": "string"
        },
        {
          "internalType": "string",
          "name": "_unit",
          "type": "string"
        },
        {
          "internalType": "string[]",
          "name": "_units",
          "type": "string[]"
        },
        {
          "internalType": "string",
          "name": "_date",
          "type": "string"
        },
        {
          "internalType": "enum UnitType",
          "name": "_unitType",
          "type": "uint8"
        }
      ],
      "name": "receiver",
      "outputs": [
        {
          "internalType": "bool",
          "name": "",
          "type": "bool"
        }
      ],
      "stateMutability": "nonpayable",
      "type": "function"
    }
  ],
  "bytecode": "0x608060405234801561001057600080fd5b506040516200173f3803806200173f83398101604081905261003191610098565b600380546001600160a01b039384166001600160a01b0319918216811790925560048054821690921790915560058054929093169181168217909255600680549092161790556100cb565b80516001600160a01b038116811461009357600080fd5b919050565b600080604083850312156100ab57600080fd5b6100b48361007c565b91506100c26020840161007c565b90509250929050565b61166480620000db6000396000f3fe608060405234801561001057600080fd5b50600436106100575760003560e01c806333f1a0c51461005c5780634133e261146100855780637f629f07146100a857806391943cfb146100c8578063b002a664146100e8575b600080fd5b61006f61006a366004610f6a565b610108565b60405161007c91906110fe565b60405180910390f35b6100986100933660046111cb565b610400565b604051901515815260200161007c565b6100bb6100b6366004610f6a565b6104d8565b60405161007c91906112ac565b6100db6100d6366004610f6a565b6107c2565b60405161007c919061132a565b6100fb6100f6366004610f6a565b6108b9565b60405161007c919061138c565b610110610daf565b60008260405161012091906113e1565b90815260200160405180910390206040518060a0016040529081600082018054610149906113fd565b80601f0160208091040260200160405190810160405280929190818152602001828054610175906113fd565b80156101c25780601f10610197576101008083540402835291602001916101c2565b820191906000526020600020905b8154815290600101906020018083116101a557829003601f168201915b5050505050815260200160018201805480602002602001604051908101604052809291908181526020016000905b8282101561029c57838290600052602060002001805461020f906113fd565b80601f016020809104026020016040519081016040528092919081815260200182805461023b906113fd565b80156102885780601f1061025d57610100808354040283529160200191610288565b820191906000526020600020905b81548152906001019060200180831161026b57829003601f168201915b5050505050815260200190600101906101f0565b5050505081526020016002820180546102b4906113fd565b80601f01602080910402602001604051908101604052809291908181526020018280546102e0906113fd565b801561032d5780601f106103025761010080835404028352916020019161032d565b820191906000526020600020905b81548152906001019060200180831161031057829003601f168201915b50505050508152602001600382018054610346906113fd565b80601f0160208091040260200160405190810160405280929190818152602001828054610372906113fd565b80156103bf5780601f10610394576101008083540402835291602001916103bf565b820191906000526020600020905b8154815290600101906020018083116103a257829003601f168201915b5050509183525050600482015460209091019060ff1660028111156103e6576103e661104f565b60028111156103f7576103f761104f565b90525092915050565b6004805460405163175757d560e01b815260009288926001600160a01b03169163175757d59161043291859101611437565b602060405180830381865afa15801561044f573d6000803e3d6000fd5b505050506040513d601f19601f82011682018060405250810190610473919061144a565b15156001146104bc5760405162461bcd60e51b81526020600482015260116024820152705065726d697373616f206e65676164612160781b604482015260640160405180910390fd5b6104ca86868a87878c610c97565b506001979650505050505050565b6105036040518060800160405280606081526020016060815260200160608152602001606081525090565b60018260405161051391906113e1565b908152602001604051809103902060405180608001604052908160008201805461053c906113fd565b80601f0160208091040260200160405190810160405280929190818152602001828054610568906113fd565b80156105b55780601f1061058a576101008083540402835291602001916105b5565b820191906000526020600020905b81548152906001019060200180831161059857829003601f168201915b5050505050815260200160018201805480602002602001604051908101604052809291908181526020016000905b8282101561068f578382906000526020600020018054610602906113fd565b80601f016020809104026020016040519081016040528092919081815260200182805461062e906113fd565b801561067b5780601f106106505761010080835404028352916020019161067b565b820191906000526020600020905b81548152906001019060200180831161065e57829003601f168201915b5050505050815260200190600101906105e3565b5050505081526020016002820180546106a7906113fd565b80601f01602080910402602001604051908101604052809291908181526020018280546106d3906113fd565b80156107205780601f106106f557610100808354040283529160200191610720565b820191906000526020600020905b81548152906001019060200180831161070357829003601f168201915b50505050508152602001600382018054610739906113fd565b80601f0160208091040260200160405190810160405280929190818152602001828054610765906113fd565b80156107b25780601f10610787576101008083540402835291602001916107b2565b820191906000526020600020905b81548152906001019060200180831161079557829003601f168201915b5050505050815250509050919050565b60606002826040516107d491906113e1565b9081526020016040518091039020805480602002602001604051908101604052809291908181526020016000905b828210156108ae578382906000526020600020018054610821906113fd565b80601f016020809104026020016040519081016040528092919081815260200182805461084d906113fd565b801561089a5780601f1061086f5761010080835404028352916020019161089a565b820191906000526020600020905b81548152906001019060200180831161087d57829003601f168201915b505050505081526020019060010190610802565b505050509050919050565b606060006002836040516108cd91906113e1565b9081526040519081900360200190205467ffffffffffffffff8111156108f5576108f5610eb3565b60405190808252806020026020018201604052801561092e57816020015b61091b610daf565b8152602001906001900390816109135790505b50905060005b8151811015610c9057600060028560405161094f91906113e1565b9081526020016040518091039020828154811061096e5761096e61146c565b906000526020600020016040516109859190611482565b90815260200160405180910390206040518060a00160405290816000820180546109ae906113fd565b80601f01602080910402602001604051908101604052809291908181526020018280546109da906113fd565b8015610a275780601f106109fc57610100808354040283529160200191610a27565b820191906000526020600020905b815481529060010190602001808311610a0a57829003601f168201915b5050505050815260200160018201805480602002602001604051908101604052809291908181526020016000905b82821015610b01578382906000526020600020018054610a74906113fd565b80601f0160208091040260200160405190810160405280929190818152602001828054610aa0906113fd565b8015610aed5780601f10610ac257610100808354040283529160200191610aed565b820191906000526020600020905b815481529060010190602001808311610ad057829003601f168201915b505050505081526020019060010190610a55565b505050508152602001600282018054610b19906113fd565b80601f0160208091040260200160405190810160405280929190818152602001828054610b45906113fd565b8015610b925780601f10610b6757610100808354040283529160200191610b92565b820191906000526020600020905b815481529060010190602001808311610b7557829003601f168201915b50505050508152602001600382018054610bab906113fd565b80601f0160208091040260200160405190810160405280929190818152602001828054610bd7906113fd565b8015610c245780601f10610bf957610100808354040283529160200191610c24565b820191906000526020600020905b815481529060010190602001808311610c0757829003601f168201915b5050509183525050600482015460209091019060ff166002811115610c4b57610c4b61104f565b6002811115610c5c57610c5c61104f565b81525050828281518110610c7257610c7261146c565b60200260200101819052508080610c88906114f8565b915050610934565b5092915050565b6040518060a00160405280878152602001868152602001858152602001848152602001836002811115610ccc57610ccc61104f565b815250600087604051610cdf91906113e1565b90815260405190819003602001902081518190610cfc908261156e565b506020828101518051610d159260018501920190610dee565b5060408201516002820190610d2a908261156e565b5060608201516003820190610d3f908261156e565b50608082015160048201805460ff19166001836002811115610d6357610d6361104f565b0217905550905050600281604051610d7b91906113e1565b908152604051602091819003820190208054600181018255600091825291902001610da6878261156e565b50505050505050565b6040518060a001604052806060815260200160608152602001606081526020016060815260200160006002811115610de957610de961104f565b905290565b828054828255906000526020600020908101928215610e34579160200282015b82811115610e345782518290610e24908261156e565b5091602001919060010190610e0e565b50610e40929150610e44565b5090565b80821115610e40576000610e588282610e61565b50600101610e44565b508054610e6d906113fd565b6000825580601f10610e7d575050565b601f016020900490600052602060002090810190610e9b9190610e9e565b50565b5b80821115610e405760008155600101610e9f565b634e487b7160e01b600052604160045260246000fd5b604051601f8201601f1916810167ffffffffffffffff81118282101715610ef257610ef2610eb3565b604052919050565b600082601f830112610f0b57600080fd5b813567ffffffffffffffff811115610f2557610f25610eb3565b610f38601f8201601f1916602001610ec9565b818152846020838601011115610f4d57600080fd5b816020850160208301376000918101602001919091529392505050565b600060208284031215610f7c57600080fd5b813567ffffffffffffffff811115610f9357600080fd5b610f9f84828501610efa565b949350505050565b60005b83811015610fc2578181015183820152602001610faa565b50506000910152565b60008151808452610fe3816020860160208601610fa7565b601f01601f19169290920160200192915050565b600082825180855260208086019550808260051b84010181860160005b8481101561104257601f19868403018952611030838351610fcb565b98840198925090830190600101611014565b5090979650505050505050565b634e487b7160e01b600052602160045260246000fd5b6000815160a0845261107a60a0850182610fcb565b9050602083015184820360208601526110938282610ff7565b915050604083015184820360408601526110ad8282610fcb565b915050606083015184820360608601526110c78282610fcb565b9150506080830151600381106110ed57634e487b7160e01b600052602160045260246000fd5b806080860152508091505092915050565b6020815260006111116020830184611065565b9392505050565b600082601f83011261112957600080fd5b8135602067ffffffffffffffff8083111561114657611146610eb3565b8260051b611155838201610ec9565b938452858101830193838101908886111561116f57600080fd5b84880192505b858310156111ab5782358481111561118d5760008081fd5b61119b8a87838c0101610efa565b8352509184019190840190611175565b98975050505050505050565b8035600381106111c657600080fd5b919050565b60008060008060008060c087890312156111e457600080fd5b863567ffffffffffffffff808211156111fc57600080fd5b6112088a838b01610efa565b9750602089013591508082111561121e57600080fd5b61122a8a838b01610efa565b9650604089013591508082111561124057600080fd5b61124c8a838b01610efa565b9550606089013591508082111561126257600080fd5b61126e8a838b01611118565b9450608089013591508082111561128457600080fd5b5061129189828a01610efa565b9250506112a060a088016111b7565b90509295509295509295565b6020815260008251608060208401526112c860a0840182610fcb565b90506020840151601f19808584030160408601526112e68383610ff7565b925060408601519150808584030160608601526113038383610fcb565b92506060860151915080858403016080860152506113218282610fcb565b95945050505050565b6000602080830181845280855180835260408601915060408160051b870101925083870160005b8281101561137f57603f1988860301845261136d858351610fcb565b94509285019290850190600101611351565b5092979650505050505050565b6000602080830181845280855180835260408601915060408160051b870101925083870160005b8281101561137f57603f198886030184526113cf858351611065565b945092850192908501906001016113b3565b600082516113f3818460208701610fa7565b9190910192915050565b600181811c9082168061141157607f821691505b60208210810361143157634e487b7160e01b600052602260045260246000fd5b50919050565b6020815260006111116020830184610fcb565b60006020828403121561145c57600080fd5b8151801515811461111157600080fd5b634e487b7160e01b600052603260045260246000fd5b6000808354611490816113fd565b600182811680156114a857600181146114bd576114ec565b60ff19841687528215158302870194506114ec565b8760005260208060002060005b858110156114e35781548a8201529084019082016114ca565b50505082870194505b50929695505050505050565b60006001820161151857634e487b7160e01b600052601160045260246000fd5b5060010190565b601f82111561156957600081815260208120601f850160051c810160208610156115465750805b601f850160051c820191505b8181101561156557828155600101611552565b5050505b505050565b815167ffffffffffffffff81111561158857611588610eb3565b61159c8161159684546113fd565b8461151f565b602080601f8311600181146115d157600084156115b95750858301515b600019600386901b1c1916600185901b178555611565565b600085815260208120601f198616915b82811015611600578886015182559484019460019091019084016115e1565b508582101561161e5787850151600019600388901b60f8161c191681555b5050505050600190811b0190555056fea2646970667358221220033fc77060d946a43f5e7b5d969ece16c64edd423e7945b2e26c2b2fc05e507f64736f6c63430008110033",
  "immutableReferences": {},
  "source": "// SPDX-License-Identifier: MIT\r\npragma solidity ^0.8.17;\r\n\r\nimport \"./Authentication.sol\";\r\nimport \"./UpdateTr.sol\";\r\n\r\nstruct ReceivedUnit {\r\n    string id;\r\n    string[] units;\r\n    string distributorId;\r\n    string date;\r\n    UnitType unitType;\r\n}\r\n\r\nstruct ReceivedContainer {\r\n    string id;\r\n    string[] units;\r\n    string distributorId;\r\n    string date;\r\n} // Logistc Unit Received\r\n\r\ncontract Merchant {\r\n    mapping(string => ReceivedUnit) receivedUnits; // Lista de containers recebidos para entrega por cada distribuidor.\r\n    mapping(string => ReceivedContainer) receivedContainers; // Lista de containers recebidos para entrega por cada distribuidor.\r\n    mapping(string => string[]) receivedUnitsId; // user id => unit id[] Lista dos ids das unidades recebidas por comerciante\r\n\r\n    address contractAuthentication;\r\n    Authentication instanceAuthentication;\r\n    address contractUpdateTr;\r\n    UpdateTr instanceUpdateTr;\r\n\r\n    constructor(address _contractAuthentication, address _contractUpdateTr) {\r\n        contractAuthentication = _contractAuthentication;\r\n        instanceAuthentication = Authentication(contractAuthentication);\r\n        contractUpdateTr = _contractUpdateTr;\r\n        instanceUpdateTr = UpdateTr(contractUpdateTr);\r\n    }\r\n\r\n    //Verifica se o endereo que esta chamando o contrato possui permisao para modificar o estado da rede\r\n    modifier onlyOWNER(string memory _userId) {\r\n        require(\r\n            instanceAuthentication.activeUser(_userId) == true,\r\n            \"Permissao negada!\"\r\n        );\r\n        _;\r\n    }\r\n\r\n    function registerReceivedUnit(\r\n        string memory _id,\r\n        string[] memory _units,\r\n        string memory _distributorId,\r\n        string memory _dateTime,\r\n        UnitType _unitType,\r\n        string memory _userId\r\n    ) private {\r\n        receivedUnits[_id] = ReceivedUnit(\r\n            _id,\r\n            _units,\r\n            _distributorId,\r\n            _dateTime,\r\n            _unitType\r\n        );\r\n        receivedUnitsId[_userId].push(_id);\r\n    }\r\n\r\n    function getReceivedUnit(\r\n        string memory _id\r\n    ) public view returns (ReceivedUnit memory) {\r\n        return receivedUnits[_id];\r\n    }\r\n\r\n    function getReceivedUnitId(\r\n        string memory _userId\r\n    ) public view returns (string[] memory) {\r\n        return receivedUnitsId[_userId];\r\n    }\r\n\r\n    function registerReceivedContainer(\r\n        string memory _id,\r\n        string[] memory _units,\r\n        string memory _distributorId,\r\n        string memory _date,\r\n        string memory _userId\r\n    ) private {\r\n        receivedContainers[_id] = ReceivedContainer(\r\n            _id,\r\n            _units,\r\n            _distributorId,\r\n            _date\r\n        );\r\n        receivedUnitsId[_userId].push(_id);\r\n    }\r\n\r\n    function getReceivedContainer(\r\n        string memory _id\r\n    ) public view returns (ReceivedContainer memory) {\r\n        return receivedContainers[_id];\r\n    }\r\n\r\n    function listReceivedUnits(\r\n        string memory _user\r\n    ) public view returns (ReceivedUnit[] memory) {\r\n        ReceivedUnit[] memory unitsArray = new ReceivedUnit[](\r\n            receivedUnitsId[_user].length\r\n        );\r\n        for (uint256 i = 0; i < unitsArray.length; i++) {\r\n            unitsArray[i] = receivedUnits[receivedUnitsId[_user][i]];\r\n        }\r\n        return unitsArray;\r\n    }\r\n\r\n    function receiver(\r\n        string memory _sender,\r\n        string memory _receiver,\r\n        string memory _unit,\r\n        string[] memory _units,\r\n        string memory _date,\r\n        UnitType _unitType\r\n    ) public onlyOWNER(_receiver) returns (bool) {\r\n        registerReceivedUnit(\r\n            _unit,\r\n            _units,\r\n            _sender,\r\n            _date,\r\n            _unitType,\r\n            _receiver\r\n        );\r\n        return true;\r\n    }\r\n}\r\n",
  "sourcePath": "C:\\Users\\samue\\Documents\\Workspace_react\\BlockForBees\\backend_blockcahin\\contracts\\Merchant.sol",
  "compiler": {
    "name": "solc",
    "version": "0.8.17+commit.8df45f5f.Emscripten.clang"
  },
  "schemaVersion": "3.4.11",
  "updatedAt": "2023-06-29T08:44:31.572Z",
  "devdoc": {
    "kind": "dev",
    "methods": {},
    "version": 1
  },
  "userdoc": {
    "kind": "user",
    "methods": {},
    "version": 1
  }
}