{
  "contractName": "Merchant",
  "abi": [
    {
      "inputs": [
        {
          "internalType": "address",
          "name": "_contractAuthentication",
          "type": "address"
        },
        {
          "internalType": "address",
          "name": "_contractUpdateTr",
          "type": "address"
        }
      ],
      "stateMutability": "nonpayable",
      "type": "constructor"
    },
    {
      "inputs": [
        {
          "internalType": "string",
          "name": "_id",
          "type": "string"
        },
        {
          "internalType": "string",
          "name": "_distributorId",
          "type": "string"
        },
        {
          "internalType": "string",
          "name": "_dateTime",
          "type": "string"
        },
        {
          "internalType": "string",
          "name": "_local",
          "type": "string"
        },
        {
          "internalType": "string",
          "name": "_userId",
          "type": "string"
        }
      ],
      "name": "registerReceivedUnit",
      "outputs": [],
      "stateMutability": "nonpayable",
      "type": "function"
    },
    {
      "inputs": [
        {
          "internalType": "string",
          "name": "_id",
          "type": "string"
        }
      ],
      "name": "getReceivedUnit",
      "outputs": [
        {
          "components": [
            {
              "internalType": "string",
              "name": "id",
              "type": "string"
            },
            {
              "internalType": "string",
              "name": "distributorId",
              "type": "string"
            },
            {
              "internalType": "string",
              "name": "date",
              "type": "string"
            },
            {
              "internalType": "string",
              "name": "local",
              "type": "string"
            }
          ],
          "internalType": "struct ReceivedUnit",
          "name": "",
          "type": "tuple"
        }
      ],
      "stateMutability": "view",
      "type": "function"
    },
    {
      "inputs": [
        {
          "internalType": "string",
          "name": "_userId",
          "type": "string"
        }
      ],
      "name": "getReceivedUnitId",
      "outputs": [
        {
          "internalType": "string[]",
          "name": "",
          "type": "string[]"
        }
      ],
      "stateMutability": "view",
      "type": "function"
    },
    {
      "inputs": [
        {
          "internalType": "string",
          "name": "_id",
          "type": "string"
        },
        {
          "internalType": "string[]",
          "name": "_units",
          "type": "string[]"
        },
        {
          "internalType": "string",
          "name": "_distributorId",
          "type": "string"
        },
        {
          "internalType": "string",
          "name": "_date",
          "type": "string"
        },
        {
          "internalType": "string",
          "name": "_local",
          "type": "string"
        },
        {
          "internalType": "string",
          "name": "_userId",
          "type": "string"
        }
      ],
      "name": "registerReceivedContainer",
      "outputs": [],
      "stateMutability": "nonpayable",
      "type": "function"
    },
    {
      "inputs": [
        {
          "internalType": "string",
          "name": "_id",
          "type": "string"
        }
      ],
      "name": "getReceivedContainer",
      "outputs": [
        {
          "components": [
            {
              "internalType": "string",
              "name": "id",
              "type": "string"
            },
            {
              "internalType": "string[]",
              "name": "units",
              "type": "string[]"
            },
            {
              "internalType": "string",
              "name": "distributorId",
              "type": "string"
            },
            {
              "internalType": "string",
              "name": "date",
              "type": "string"
            },
            {
              "internalType": "string",
              "name": "local",
              "type": "string"
            }
          ],
          "internalType": "struct ReceivedContainer",
          "name": "",
          "type": "tuple"
        }
      ],
      "stateMutability": "view",
      "type": "function"
    },
    {
      "inputs": [
        {
          "internalType": "string",
          "name": "_userId",
          "type": "string"
        }
      ],
      "name": "getReceivedContainerId",
      "outputs": [
        {
          "internalType": "string[]",
          "name": "",
          "type": "string[]"
        }
      ],
      "stateMutability": "view",
      "type": "function"
    },
    {
      "inputs": [
        {
          "internalType": "string",
          "name": "_sender",
          "type": "string"
        },
        {
          "internalType": "string",
          "name": "_receiver",
          "type": "string"
        },
        {
          "internalType": "string",
          "name": "_unitId",
          "type": "string"
        },
        {
          "internalType": "string",
          "name": "_date",
          "type": "string"
        },
        {
          "internalType": "string",
          "name": "_businessUnitType",
          "type": "string"
        },
        {
          "internalType": "bytes",
          "name": "_signature",
          "type": "bytes"
        }
      ],
      "name": "forwarding",
      "outputs": [],
      "stateMutability": "nonpayable",
      "type": "function"
    }
  ],
  "bytecode": "0x608060405234801561001057600080fd5b506040516200165e3803806200165e83398101604081905261003191610098565b600480546001600160a01b039384166001600160a01b0319918216811790925560058054821690921790915560068054929093169181168217909255600780549092161790556100cb565b80516001600160a01b038116811461009357600080fd5b919050565b600080604083850312156100ab57600080fd5b6100b48361007c565b91506100c26020840161007c565b90509250929050565b61158380620000db6000396000f3fe608060405234801561001057600080fd5b506004361061007d5760003560e01c80637f629f071161005b5780637f629f07146100e057806391943cfb14610100578063a76d52cc14610113578063fb32df311461012657600080fd5b806333f1a0c5146100825780633e01d719146100ab5780636de5ded7146100cb575b600080fd5b610095610090366004610e32565b610139565b6040516100a29190610ebf565b60405180910390f35b6100be6100b9366004610e32565b6103dc565b6040516100a29190610f95565b6100de6100d936600461104e565b6104d3565b005b6100f36100ee366004610e32565b610663565b6040516100a29190611143565b6100be61010e366004610e32565b61095d565b6100de6101213660046111d5565b610a49565b6100de6101343660046112a7565b610bb0565b6101646040518060800160405280606081526020016060815260200160608152602001606081525090565b6000826040516101749190611306565b908152602001604051809103902060405180608001604052908160008201805461019d90611322565b80601f01602080910402602001604051908101604052809291908181526020018280546101c990611322565b80156102165780601f106101eb57610100808354040283529160200191610216565b820191906000526020600020905b8154815290600101906020018083116101f957829003601f168201915b5050505050815260200160018201805461022f90611322565b80601f016020809104026020016040519081016040528092919081815260200182805461025b90611322565b80156102a85780601f1061027d576101008083540402835291602001916102a8565b820191906000526020600020905b81548152906001019060200180831161028b57829003601f168201915b505050505081526020016002820180546102c190611322565b80601f01602080910402602001604051908101604052809291908181526020018280546102ed90611322565b801561033a5780601f1061030f5761010080835404028352916020019161033a565b820191906000526020600020905b81548152906001019060200180831161031d57829003601f168201915b5050505050815260200160038201805461035390611322565b80601f016020809104026020016040519081016040528092919081815260200182805461037f90611322565b80156103cc5780601f106103a1576101008083540402835291602001916103cc565b820191906000526020600020905b8154815290600101906020018083116103af57829003601f168201915b5050505050815250509050919050565b60606003826040516103ee9190611306565b9081526020016040518091039020805480602002602001604051908101604052809291908181526020016000905b828210156104c857838290600052602060002001805461043b90611322565b80601f016020809104026020016040519081016040528092919081815260200182805461046790611322565b80156104b45780601f10610489576101008083540402835291602001916104b4565b820191906000526020600020905b81548152906001019060200180831161049757829003601f168201915b50505050508152602001906001019061041c565b505050509050919050565b60055460405163175757d560e01b815282916001600160a01b03169063175757d59061050390849060040161135c565b602060405180830381865afa158015610520573d6000803e3d6000fd5b505050506040513d601f19601f82011682018060405250810190610544919061136f565b151560011461056e5760405162461bcd60e51b815260040161056590611391565b60405180910390fd5b6040518060a00160405280888152602001878152602001868152602001858152602001848152506002886040516105a59190611306565b908152604051908190036020019020815181906105c2908261140b565b5060208281015180516105db9260018501920190610cb6565b50604082015160028201906105f0908261140b565b5060608201516003820190610605908261140b565b506080820151600482019061061a908261140b565b5090505060038260405161062e9190611306565b908152604051602091819003820190208054600181018255600091825291902001610659888261140b565b5050505050505050565b6106956040518060a0016040528060608152602001606081526020016060815260200160608152602001606081525090565b6002826040516106a59190611306565b90815260200160405180910390206040518060a00160405290816000820180546106ce90611322565b80601f01602080910402602001604051908101604052809291908181526020018280546106fa90611322565b80156107475780601f1061071c57610100808354040283529160200191610747565b820191906000526020600020905b81548152906001019060200180831161072a57829003601f168201915b5050505050815260200160018201805480602002602001604051908101604052809291908181526020016000905b8282101561082157838290600052602060002001805461079490611322565b80601f01602080910402602001604051908101604052809291908181526020018280546107c090611322565b801561080d5780601f106107e25761010080835404028352916020019161080d565b820191906000526020600020905b8154815290600101906020018083116107f057829003601f168201915b505050505081526020019060010190610775565b50505050815260200160028201805461083990611322565b80601f016020809104026020016040519081016040528092919081815260200182805461086590611322565b80156108b25780601f10610887576101008083540402835291602001916108b2565b820191906000526020600020905b81548152906001019060200180831161089557829003601f168201915b505050505081526020016003820180546108cb90611322565b80601f01602080910402602001604051908101604052809291908181526020018280546108f790611322565b80156109445780601f1061091957610100808354040283529160200191610944565b820191906000526020600020905b81548152906001019060200180831161092757829003601f168201915b5050505050815260200160048201805461035390611322565b606060018260405161096f9190611306565b9081526020016040518091039020805480602002602001604051908101604052809291908181526020016000905b828210156104c85783829060005260206000200180546109bc90611322565b80601f01602080910402602001604051908101604052809291908181526020018280546109e890611322565b8015610a355780601f10610a0a57610100808354040283529160200191610a35565b820191906000526020600020905b815481529060010190602001808311610a1857829003601f168201915b50505050508152602001906001019061099d565b60055460405163175757d560e01b815282916001600160a01b03169063175757d590610a7990849060040161135c565b602060405180830381865afa158015610a96573d6000803e3d6000fd5b505050506040513d601f19601f82011682018060405250810190610aba919061136f565b1515600114610adb5760405162461bcd60e51b815260040161056590611391565b604051806080016040528087815260200186815260200185815260200184815250600087604051610b0c9190611306565b90815260405190819003602001902081518190610b29908261140b565b5060208201516001820190610b3e908261140b565b5060408201516002820190610b53908261140b565b5060608201516003820190610b68908261140b565b50905050600182604051610b7c9190611306565b908152604051602091819003820190208054600181018255600091825291902001610ba7878261140b565b50505050505050565b60055460405163175757d560e01b815286916001600160a01b03169063175757d590610be090849060040161135c565b602060405180830381865afa158015610bfd573d6000803e3d6000fd5b505050506040513d601f19601f82011682018060405250810190610c21919061136f565b1515600114610c425760405162461bcd60e51b815260040161056590611391565b60075460405162665dd960e61b81526001600160a01b0390911690631997764090610c7b908a908a908a908a908a908a906004016114cb565b600060405180830381600087803b158015610c9557600080fd5b505af1158015610ca9573d6000803e3d6000fd5b5050505050505050505050565b828054828255906000526020600020908101928215610cfc579160200282015b82811115610cfc5782518290610cec908261140b565b5091602001919060010190610cd6565b50610d08929150610d0c565b5090565b80821115610d08576000610d208282610d29565b50600101610d0c565b508054610d3590611322565b6000825580601f10610d45575050565b601f016020900490600052602060002090810190610d639190610d66565b50565b5b80821115610d085760008155600101610d67565b634e487b7160e01b600052604160045260246000fd5b604051601f8201601f1916810167ffffffffffffffff81118282101715610dba57610dba610d7b565b604052919050565b600082601f830112610dd357600080fd5b813567ffffffffffffffff811115610ded57610ded610d7b565b610e00601f8201601f1916602001610d91565b818152846020838601011115610e1557600080fd5b816020850160208301376000918101602001919091529392505050565b600060208284031215610e4457600080fd5b813567ffffffffffffffff811115610e5b57600080fd5b610e6784828501610dc2565b949350505050565b60005b83811015610e8a578181015183820152602001610e72565b50506000910152565b60008151808452610eab816020860160208601610e6f565b601f01601f19169290920160200192915050565b602081526000825160806020840152610edb60a0840182610e93565b90506020840151601f1980858403016040860152610ef98383610e93565b92506040860151915080858403016060860152610f168383610e93565b9250606086015191508085840301608086015250610f348282610e93565b95945050505050565b600082825180855260208086019550808260051b84010181860160005b84811015610f8857601f19868403018952610f76838351610e93565b98840198925090830190600101610f5a565b5090979650505050505050565b602081526000610fa86020830184610f3d565b9392505050565b600082601f830112610fc057600080fd5b8135602067ffffffffffffffff80831115610fdd57610fdd610d7b565b8260051b610fec838201610d91565b938452858101830193838101908886111561100657600080fd5b84880192505b85831015611042578235848111156110245760008081fd5b6110328a87838c0101610dc2565b835250918401919084019061100c565b98975050505050505050565b60008060008060008060c0878903121561106757600080fd5b863567ffffffffffffffff8082111561107f57600080fd5b61108b8a838b01610dc2565b975060208901359150808211156110a157600080fd5b6110ad8a838b01610faf565b965060408901359150808211156110c357600080fd5b6110cf8a838b01610dc2565b955060608901359150808211156110e557600080fd5b6110f18a838b01610dc2565b9450608089013591508082111561110757600080fd5b6111138a838b01610dc2565b935060a089013591508082111561112957600080fd5b5061113689828a01610dc2565b9150509295509295509295565b602081526000825160a0602084015261115f60c0840182610e93565b90506020840151601f198085840301604086015261117d8383610f3d565b9250604086015191508085840301606086015261119a8383610e93565b925060608601519150808584030160808601526111b78383610e93565b925060808601519150808584030160a086015250610f348282610e93565b600080600080600060a086880312156111ed57600080fd5b853567ffffffffffffffff8082111561120557600080fd5b61121189838a01610dc2565b9650602088013591508082111561122757600080fd5b61123389838a01610dc2565b9550604088013591508082111561124957600080fd5b61125589838a01610dc2565b9450606088013591508082111561126b57600080fd5b61127789838a01610dc2565b9350608088013591508082111561128d57600080fd5b5061129a88828901610dc2565b9150509295509295909350565b60008060008060008060c087890312156112c057600080fd5b863567ffffffffffffffff808211156112d857600080fd5b6112e48a838b01610dc2565b975060208901359150808211156112fa57600080fd5b6110ad8a838b01610dc2565b60008251611318818460208701610e6f565b9190910192915050565b600181811c9082168061133657607f821691505b60208210810361135657634e487b7160e01b600052602260045260246000fd5b50919050565b602081526000610fa86020830184610e93565b60006020828403121561138157600080fd5b81518015158114610fa857600080fd5b6020808252601190820152705065726d697373616f206e65676164612160781b604082015260600190565b601f82111561140657600081815260208120601f850160051c810160208610156113e35750805b601f850160051c820191505b81811015611402578281556001016113ef565b5050505b505050565b815167ffffffffffffffff81111561142557611425610d7b565b611439816114338454611322565b846113bc565b602080601f83116001811461146e57600084156114565750858301515b600019600386901b1c1916600185901b178555611402565b600085815260208120601f198616915b8281101561149d5788860151825594840194600190910190840161147e565b50858210156114bb5787850151600019600388901b60f8161c191681555b5050505050600190811b01905550565b60c0815260006114de60c0830189610e93565b82810360208401526114f08189610e93565b905082810360408401526115048188610e93565b905082810360608401526115188187610e93565b9050828103608084015261152c8186610e93565b905082810360a08401526115408185610e93565b999850505050505050505056fea264697066735822122002c377627ed555ab7b864de8eb694d4fe8ae818879e783b6cbd060c5b9f15b4764736f6c63430008110033",
  "immutableReferences": {},
  "source": "// SPDX-License-Identifier: MIT\r\npragma solidity ^0.8.17;\r\n\r\nimport \"./Authentication.sol\";\r\nimport \"./UpdateTr.sol\";\r\n\r\nstruct ReceivedUnit {\r\n    string id;\r\n    string distributorId;\r\n    string date;\r\n    string local;\r\n}\r\n\r\nstruct ReceivedContainer {\r\n    string id;\r\n    string[] units;\r\n    string distributorId;\r\n    string date;\r\n    string local;\r\n} // Logistc Unit Received\r\n\r\ncontract Merchant {\r\n    mapping(string => ReceivedUnit) receivedUnits; // Lista de containers recebidos para entrega por cada distribuidor.\r\n    mapping(string => string[]) receivedUnitsId;\r\n\r\n    mapping(string => ReceivedContainer) receivedContainers; // Lista de containers recebidos para entrega por cada distribuidor.\r\n    mapping(string => string[]) receivedContainersId;\r\n\r\n    address contractAuthentication;\r\n    Authentication instanceAuthentication;\r\n    address contractUpdateTr;\r\n    UpdateTr instanceUpdateTr;\r\n\r\n    constructor(address _contractAuthentication, address _contractUpdateTr) {\r\n        contractAuthentication = _contractAuthentication;\r\n        instanceAuthentication = Authentication(contractAuthentication);\r\n        contractUpdateTr = _contractUpdateTr;\r\n        instanceUpdateTr = UpdateTr(contractUpdateTr);\r\n    }\r\n\r\n    //Verifica se o endereo que esta chamando o contrato possui permisao para modificar o estado da rede\r\n    modifier onlyOWNER(string memory _userId) {\r\n        require(\r\n            instanceAuthentication.activeUser(_userId) == true,\r\n            \"Permissao negada!\"\r\n        );\r\n        _;\r\n    }\r\n\r\n    function registerReceivedUnit(\r\n        string memory _id,\r\n        string memory _distributorId,\r\n        string memory _dateTime,\r\n        string memory _local,\r\n        string memory _userId\r\n    ) public onlyOWNER(_userId) {\r\n        receivedUnits[_id] = ReceivedUnit(\r\n            _id,\r\n            _distributorId,\r\n            _dateTime,\r\n            _local\r\n        );\r\n        receivedUnitsId[_userId].push(_id);\r\n    }\r\n\r\n    function getReceivedUnit(\r\n        string memory _id\r\n    ) public view returns (ReceivedUnit memory) {\r\n        return receivedUnits[_id];\r\n    }\r\n\r\n    function getReceivedUnitId(\r\n        string memory _userId\r\n    ) public view returns (string[] memory) {\r\n        return receivedUnitsId[_userId];\r\n    }\r\n\r\n    function registerReceivedContainer(\r\n        string memory _id,\r\n        string[] memory _units,\r\n        string memory _distributorId,\r\n        string memory _date,\r\n        string memory _local,\r\n        string memory _userId\r\n    ) public onlyOWNER(_userId) {\r\n        receivedContainers[_id] = ReceivedContainer(\r\n            _id,\r\n            _units,\r\n            _distributorId,\r\n            _date,\r\n            _local\r\n        );\r\n        receivedContainersId[_userId].push(_id);\r\n    }\r\n\r\n    function getReceivedContainer(\r\n        string memory _id\r\n    ) public view returns (ReceivedContainer memory) {\r\n        return receivedContainers[_id];\r\n    }\r\n\r\n    function getReceivedContainerId(\r\n        string memory _userId\r\n    ) public view returns (string[] memory) {\r\n        return receivedContainersId[_userId];\r\n    }\r\n\r\n    //Funo para registrar a tranzao de um produto\r\n    function forwarding(\r\n        string memory _sender,\r\n        string memory _receiver,\r\n        string memory _unitId,\r\n        string memory _date,\r\n        string memory _businessUnitType,\r\n        bytes memory _signature\r\n    ) public onlyOWNER(_receiver) {\r\n        //chamar funcao updateTr no contrato UpdateTr\r\n        instanceUpdateTr.updateTr(\r\n            _sender,\r\n            _receiver,\r\n            _unitId,\r\n            _date,\r\n            _businessUnitType,\r\n            _signature\r\n        );\r\n    }\r\n}\r\n",
  "sourcePath": "C:\\Users\\samue\\Documents\\Workspace_react\\BlockForBees\\backend_blockcahin\\contracts\\Merchant.sol",
  "compiler": {
    "name": "solc",
    "version": "0.8.17+commit.8df45f5f.Emscripten.clang"
  },
  "schemaVersion": "3.4.11",
  "updatedAt": "2023-04-26T22:52:58.010Z",
  "devdoc": {
    "kind": "dev",
    "methods": {},
    "version": 1
  },
  "userdoc": {
    "kind": "user",
    "methods": {},
    "version": 1
  }
}