{
  "contractName": "Processing",
  "abi": [
    {
      "inputs": [
        {
          "internalType": "address",
          "name": "_contractAuthentication",
          "type": "address"
        },
        {
          "internalType": "address",
          "name": "_contractUpdateTr",
          "type": "address"
        }
      ],
      "stateMutability": "nonpayable",
      "type": "constructor"
    },
    {
      "inputs": [
        {
          "internalType": "string",
          "name": "_id",
          "type": "string"
        },
        {
          "internalType": "string",
          "name": "_distributorId",
          "type": "string"
        },
        {
          "internalType": "string",
          "name": "_date",
          "type": "string"
        },
        {
          "internalType": "string",
          "name": "_userId",
          "type": "string"
        }
      ],
      "name": "regiterFeedstock",
      "outputs": [],
      "stateMutability": "nonpayable",
      "type": "function"
    },
    {
      "inputs": [
        {
          "internalType": "string",
          "name": "_id",
          "type": "string"
        }
      ],
      "name": "getFeedstock",
      "outputs": [
        {
          "components": [
            {
              "internalType": "string",
              "name": "id",
              "type": "string"
            },
            {
              "internalType": "string",
              "name": "distributorId",
              "type": "string"
            },
            {
              "internalType": "string",
              "name": "dateTime",
              "type": "string"
            }
          ],
          "internalType": "struct Feedstock",
          "name": "",
          "type": "tuple"
        }
      ],
      "stateMutability": "view",
      "type": "function"
    },
    {
      "inputs": [
        {
          "internalType": "string",
          "name": "_userId",
          "type": "string"
        }
      ],
      "name": "getFeedstockId",
      "outputs": [
        {
          "internalType": "string[]",
          "name": "",
          "type": "string[]"
        }
      ],
      "stateMutability": "view",
      "type": "function"
    },
    {
      "inputs": [
        {
          "internalType": "string",
          "name": "_id",
          "type": "string"
        },
        {
          "internalType": "string[]",
          "name": "_feedstockIds",
          "type": "string[]"
        },
        {
          "internalType": "string",
          "name": "_distributorId",
          "type": "string"
        },
        {
          "internalType": "string",
          "name": "_date",
          "type": "string"
        },
        {
          "internalType": "string",
          "name": "_userId",
          "type": "string"
        }
      ],
      "name": "regiterFeedstockContainer",
      "outputs": [],
      "stateMutability": "nonpayable",
      "type": "function"
    },
    {
      "inputs": [
        {
          "internalType": "string",
          "name": "_id",
          "type": "string"
        }
      ],
      "name": "getFeedstockContainer",
      "outputs": [
        {
          "components": [
            {
              "internalType": "string",
              "name": "id",
              "type": "string"
            },
            {
              "internalType": "string[]",
              "name": "feedstockIds",
              "type": "string[]"
            },
            {
              "internalType": "string",
              "name": "distributorId",
              "type": "string"
            },
            {
              "internalType": "string",
              "name": "dateTime",
              "type": "string"
            }
          ],
          "internalType": "struct FeedstockContainer",
          "name": "",
          "type": "tuple"
        }
      ],
      "stateMutability": "view",
      "type": "function"
    },
    {
      "inputs": [
        {
          "internalType": "string",
          "name": "_userId",
          "type": "string"
        }
      ],
      "name": "getFeedstockContainerId",
      "outputs": [
        {
          "internalType": "string[]",
          "name": "",
          "type": "string[]"
        }
      ],
      "stateMutability": "view",
      "type": "function"
    },
    {
      "inputs": [
        {
          "internalType": "string",
          "name": "_userId",
          "type": "string"
        },
        {
          "internalType": "string",
          "name": "_feedstockBatch",
          "type": "string"
        },
        {
          "internalType": "string",
          "name": "_honeyType",
          "type": "string"
        },
        {
          "internalType": "string",
          "name": "_variety",
          "type": "string"
        },
        {
          "internalType": "uint64",
          "name": "_weight",
          "type": "uint64"
        },
        {
          "internalType": "string",
          "name": "_dateTime",
          "type": "string"
        }
      ],
      "name": "generateBatch",
      "outputs": [
        {
          "internalType": "string",
          "name": "",
          "type": "string"
        }
      ],
      "stateMutability": "nonpayable",
      "type": "function"
    },
    {
      "inputs": [
        {
          "components": [
            {
              "internalType": "string",
              "name": "id",
              "type": "string"
            },
            {
              "internalType": "string",
              "name": "batch",
              "type": "string"
            },
            {
              "internalType": "string",
              "name": "feedstockBatch",
              "type": "string"
            },
            {
              "internalType": "string",
              "name": "honeyType",
              "type": "string"
            },
            {
              "internalType": "string",
              "name": "variety",
              "type": "string"
            },
            {
              "internalType": "uint64",
              "name": "weight",
              "type": "uint64"
            },
            {
              "internalType": "string",
              "name": "packaging",
              "type": "string"
            },
            {
              "internalType": "string",
              "name": "validity",
              "type": "string"
            },
            {
              "internalType": "string",
              "name": "composition",
              "type": "string"
            }
          ],
          "internalType": "struct Honey",
          "name": "_honey",
          "type": "tuple"
        },
        {
          "internalType": "string",
          "name": "_userId",
          "type": "string"
        }
      ],
      "name": "newHoney",
      "outputs": [
        {
          "internalType": "string",
          "name": "",
          "type": "string"
        }
      ],
      "stateMutability": "nonpayable",
      "type": "function"
    },
    {
      "inputs": [
        {
          "components": [
            {
              "internalType": "string",
              "name": "id",
              "type": "string"
            },
            {
              "internalType": "string",
              "name": "batch",
              "type": "string"
            },
            {
              "internalType": "string",
              "name": "feedstockBatch",
              "type": "string"
            },
            {
              "internalType": "string",
              "name": "honeyType",
              "type": "string"
            },
            {
              "internalType": "string",
              "name": "variety",
              "type": "string"
            },
            {
              "internalType": "uint64",
              "name": "weight",
              "type": "uint64"
            },
            {
              "internalType": "string",
              "name": "packaging",
              "type": "string"
            },
            {
              "internalType": "string",
              "name": "validity",
              "type": "string"
            },
            {
              "internalType": "string",
              "name": "composition",
              "type": "string"
            }
          ],
          "internalType": "struct Honey",
          "name": "_honey",
          "type": "tuple"
        },
        {
          "internalType": "string",
          "name": "_dateTime",
          "type": "string"
        },
        {
          "internalType": "uint256",
          "name": "_amount",
          "type": "uint256"
        },
        {
          "internalType": "string",
          "name": "_userId",
          "type": "string"
        }
      ],
      "name": "newHoneys",
      "outputs": [
        {
          "internalType": "string[]",
          "name": "id",
          "type": "string[]"
        }
      ],
      "stateMutability": "nonpayable",
      "type": "function"
    },
    {
      "inputs": [
        {
          "internalType": "string",
          "name": "_id",
          "type": "string"
        }
      ],
      "name": "getHoney",
      "outputs": [
        {
          "components": [
            {
              "internalType": "string",
              "name": "id",
              "type": "string"
            },
            {
              "internalType": "string",
              "name": "batch",
              "type": "string"
            },
            {
              "internalType": "string",
              "name": "feedstockBatch",
              "type": "string"
            },
            {
              "internalType": "string",
              "name": "honeyType",
              "type": "string"
            },
            {
              "internalType": "string",
              "name": "variety",
              "type": "string"
            },
            {
              "internalType": "uint64",
              "name": "weight",
              "type": "uint64"
            },
            {
              "internalType": "string",
              "name": "packaging",
              "type": "string"
            },
            {
              "internalType": "string",
              "name": "validity",
              "type": "string"
            },
            {
              "internalType": "string",
              "name": "composition",
              "type": "string"
            }
          ],
          "internalType": "struct Honey",
          "name": "",
          "type": "tuple"
        }
      ],
      "stateMutability": "view",
      "type": "function"
    },
    {
      "inputs": [
        {
          "internalType": "string",
          "name": "_userId",
          "type": "string"
        }
      ],
      "name": "getHoneyId",
      "outputs": [
        {
          "internalType": "string[]",
          "name": "",
          "type": "string[]"
        }
      ],
      "stateMutability": "view",
      "type": "function"
    },
    {
      "inputs": [
        {
          "internalType": "string[]",
          "name": "_honeyId",
          "type": "string[]"
        },
        {
          "internalType": "string",
          "name": "_userId",
          "type": "string"
        },
        {
          "internalType": "string",
          "name": "_batch",
          "type": "string"
        },
        {
          "internalType": "string",
          "name": "_dateTime",
          "type": "string"
        }
      ],
      "name": "newBox",
      "outputs": [
        {
          "internalType": "string",
          "name": "",
          "type": "string"
        }
      ],
      "stateMutability": "nonpayable",
      "type": "function"
    },
    {
      "inputs": [
        {
          "internalType": "string",
          "name": "_id",
          "type": "string"
        }
      ],
      "name": "getBox",
      "outputs": [
        {
          "components": [
            {
              "internalType": "string",
              "name": "id",
              "type": "string"
            },
            {
              "internalType": "string",
              "name": "batch",
              "type": "string"
            },
            {
              "internalType": "string[]",
              "name": "honeyId",
              "type": "string[]"
            }
          ],
          "internalType": "struct Box",
          "name": "",
          "type": "tuple"
        }
      ],
      "stateMutability": "view",
      "type": "function"
    },
    {
      "inputs": [
        {
          "internalType": "string",
          "name": "_userId",
          "type": "string"
        }
      ],
      "name": "getBoxId",
      "outputs": [
        {
          "internalType": "string[]",
          "name": "",
          "type": "string[]"
        }
      ],
      "stateMutability": "view",
      "type": "function"
    },
    {
      "inputs": [
        {
          "internalType": "string[]",
          "name": "_boxId",
          "type": "string[]"
        },
        {
          "internalType": "string",
          "name": "_userId",
          "type": "string"
        }
      ],
      "name": "newPallet",
      "outputs": [
        {
          "internalType": "string",
          "name": "",
          "type": "string"
        }
      ],
      "stateMutability": "nonpayable",
      "type": "function"
    },
    {
      "inputs": [
        {
          "internalType": "string",
          "name": "_id",
          "type": "string"
        }
      ],
      "name": "getPallet",
      "outputs": [
        {
          "components": [
            {
              "internalType": "string",
              "name": "id",
              "type": "string"
            },
            {
              "internalType": "string[]",
              "name": "boxId",
              "type": "string[]"
            }
          ],
          "internalType": "struct Pallet",
          "name": "",
          "type": "tuple"
        }
      ],
      "stateMutability": "view",
      "type": "function"
    },
    {
      "inputs": [
        {
          "internalType": "string",
          "name": "_userId",
          "type": "string"
        }
      ],
      "name": "getPalletId",
      "outputs": [
        {
          "internalType": "string[]",
          "name": "",
          "type": "string[]"
        }
      ],
      "stateMutability": "view",
      "type": "function"
    },
    {
      "inputs": [
        {
          "internalType": "string",
          "name": "_sender",
          "type": "string"
        },
        {
          "internalType": "string",
          "name": "_receiver",
          "type": "string"
        },
        {
          "internalType": "string",
          "name": "_unitId",
          "type": "string"
        },
        {
          "internalType": "string",
          "name": "_date",
          "type": "string"
        },
        {
          "internalType": "string",
          "name": "_businessUnitType",
          "type": "string"
        },
        {
          "internalType": "bytes",
          "name": "_signature",
          "type": "bytes"
        }
      ],
      "name": "forwarding",
      "outputs": [],
      "stateMutability": "nonpayable",
      "type": "function"
    }
  ],
  "bytecode": "0x60806040523480156200001157600080fd5b506040516200321d3803806200321d83398101604081905262000034916200009d565b600c80546001600160a01b039384166001600160a01b03199182168117909255600d80548216909217909155600e8054929093169181168217909255600f8054909216179055620000d5565b80516001600160a01b03811681146200009857600080fd5b919050565b60008060408385031215620000b157600080fd5b620000bc8362000080565b9150620000cc6020840162000080565b90509250929050565b61313880620000e56000396000f3fe608060405234801561001057600080fd5b50600436106101165760003560e01c80637c90039c116100a2578063c744b30d11610071578063c744b30d14610278578063c7611b0c1461028b578063cbd5dba41461029e578063fb1fa8eb146102b1578063fb32df31146102c457600080fd5b80637c90039c1461021f578063b21ce4951461023f578063b2d7653314610252578063bcbc2bf01461026557600080fd5b80633e3375e1116100e95780633e3375e1146101a45780633f799af5146101b75780635bbfcdae146101cc57806370d1af1e146101ec5780637223de061461020c57600080fd5b80630404b7451461011b578063203ddfac146101445780632237481114610164578063396ce4fa14610184575b600080fd5b61012e610129366004612317565b6102d7565b60405161013b91906123a3565b60405180910390f35b610157610152366004612317565b6104e1565b60405161013b9190612456565b6101776101723660046124ab565b61068f565b60405161013b919061258b565b610197610192366004612317565b610734565b60405161013b91906125a5565b6101976101b2366004612317565b61082b565b6101ca6101c53660046125b8565b610917565b005b6101df6101da366004612317565b610a6b565b60405161013b9190612664565b6101ff6101fa366004612317565b610ccc565b60405161013b91906126d9565b61017761021a3660046127cf565b610f0e565b61023261022d366004612317565b611088565b60405161013b9190612808565b61019761024d366004612a7a565b61152f565b610197610260366004612317565b61183a565b6101ca610273366004612af2565b611926565b610197610286366004612317565b611a91565b610197610299366004612317565b611b7d565b6101776102ac366004612bc3565b611c69565b6101776102bf366004612c26565b611dee565b6101ca6102d2366004612c5c565b61206e565b6102fb60405180606001604052806060815260200160608152602001606081525090565b60008260405161030b9190612d20565b908152602001604051809103902060405180606001604052908160008201805461033490612d3c565b80601f016020809104026020016040519081016040528092919081815260200182805461036090612d3c565b80156103ad5780601f10610382576101008083540402835291602001916103ad565b820191906000526020600020905b81548152906001019060200180831161039057829003601f168201915b505050505081526020016001820180546103c690612d3c565b80601f01602080910402602001604051908101604052809291908181526020018280546103f290612d3c565b801561043f5780601f106104145761010080835404028352916020019161043f565b820191906000526020600020905b81548152906001019060200180831161042257829003601f168201915b5050505050815260200160028201805461045890612d3c565b80601f016020809104026020016040519081016040528092919081815260200182805461048490612d3c565b80156104d15780601f106104a6576101008083540402835291602001916104d1565b820191906000526020600020905b8154815290600101906020018083116104b457829003601f168201915b5050505050815250509050919050565b6040805180820190915260608082526020820152600a826040516105059190612d20565b908152602001604051809103902060405180604001604052908160008201805461052e90612d3c565b80601f016020809104026020016040519081016040528092919081815260200182805461055a90612d3c565b80156105a75780601f1061057c576101008083540402835291602001916105a7565b820191906000526020600020905b81548152906001019060200180831161058a57829003601f168201915b5050505050815260200160018201805480602002602001604051908101604052809291908181526020016000905b828210156106815783829060005260206000200180546105f490612d3c565b80601f016020809104026020016040519081016040528092919081815260200182805461062090612d3c565b801561066d5780601f106106425761010080835404028352916020019161066d565b820191906000526020600020905b81548152906001019060200180831161065057829003601f168201915b5050505050815260200190600101906105d5565b505050915250909392505050565b606060008787878787876040516020016106ae96959493929190612d76565b604051602081830303815290604052805190602001209050600088826040516020016106db929190612df9565b60405160208183030381529060405290506006896040516106fc9190612d20565b9081526040516020918190038201902080546001810182556000918252919020016107278282612e73565b5098975050505050505050565b60606009826040516107469190612d20565b9081526020016040518091039020805480602002602001604051908101604052809291908181526020016000905b8282101561082057838290600052602060002001805461079390612d3c565b80601f01602080910402602001604051908101604052809291908181526020018280546107bf90612d3c565b801561080c5780601f106107e15761010080835404028352916020019161080c565b820191906000526020600020905b8154815290600101906020018083116107ef57829003601f168201915b505050505081526020019060010190610774565b505050509050919050565b606060058260405161083d9190612d20565b9081526020016040518091039020805480602002602001604051908101604052809291908181526020016000905b8282101561082057838290600052602060002001805461088a90612d3c565b80601f01602080910402602001604051908101604052809291908181526020018280546108b690612d3c565b80156109035780601f106108d857610100808354040283529160200191610903565b820191906000526020600020905b8154815290600101906020018083116108e657829003601f168201915b50505050508152602001906001019061086b565b600d5460405163175757d560e01b815282916001600160a01b03169063175757d59061094790849060040161258b565b602060405180830381865afa158015610964573d6000803e3d6000fd5b505050506040513d601f19601f820116820180604052508101906109889190612f32565b15156001146109b25760405162461bcd60e51b81526004016109a990612f54565b60405180910390fd5b6040518060600160405280868152602001858152602001848152506000866040516109dd9190612d20565b908152604051908190036020019020815181906109fa9082612e73565b5060208201516001820190610a0f9082612e73565b5060408201516002820190610a249082612e73565b50905050600182604051610a389190612d20565b908152604051602091819003820190208054600181018255600091825291902001610a638682612e73565b505050505050565b610a966040518060800160405280606081526020016060815260200160608152602001606081525090565b600282604051610aa69190612d20565b9081526020016040518091039020604051806080016040529081600082018054610acf90612d3c565b80601f0160208091040260200160405190810160405280929190818152602001828054610afb90612d3c565b8015610b485780601f10610b1d57610100808354040283529160200191610b48565b820191906000526020600020905b815481529060010190602001808311610b2b57829003601f168201915b5050505050815260200160018201805480602002602001604051908101604052809291908181526020016000905b82821015610c22578382906000526020600020018054610b9590612d3c565b80601f0160208091040260200160405190810160405280929190818152602001828054610bc190612d3c565b8015610c0e5780601f10610be357610100808354040283529160200191610c0e565b820191906000526020600020905b815481529060010190602001808311610bf157829003601f168201915b505050505081526020019060010190610b76565b505050508152602001600282018054610c3a90612d3c565b80601f0160208091040260200160405190810160405280929190818152602001828054610c6690612d3c565b8015610cb35780601f10610c8857610100808354040283529160200191610cb3565b820191906000526020600020905b815481529060010190602001808311610c9657829003601f168201915b5050505050815260200160038201805461045890612d3c565b610cf060405180606001604052806060815260200160608152602001606081525090565b600882604051610d009190612d20565b9081526020016040518091039020604051806060016040529081600082018054610d2990612d3c565b80601f0160208091040260200160405190810160405280929190818152602001828054610d5590612d3c565b8015610da25780601f10610d7757610100808354040283529160200191610da2565b820191906000526020600020905b815481529060010190602001808311610d8557829003601f168201915b50505050508152602001600182018054610dbb90612d3c565b80601f0160208091040260200160405190810160405280929190818152602001828054610de790612d3c565b8015610e345780601f10610e0957610100808354040283529160200191610e34565b820191906000526020600020905b815481529060010190602001808311610e1757829003601f168201915b5050505050815260200160028201805480602002602001604051908101604052809291908181526020016000905b82821015610681578382906000526020600020018054610e8190612d3c565b80601f0160208091040260200160405190810160405280929190818152602001828054610ead90612d3c565b8015610efa5780601f10610ecf57610100808354040283529160200191610efa565b820191906000526020600020905b815481529060010190602001808311610edd57829003601f168201915b505050505081526020019060010190610e62565b600d5460405163175757d560e01b815260609185916001600160a01b039091169063175757d590610f4390849060040161258b565b602060405180830381865afa158015610f60573d6000803e3d6000fd5b505050506040513d601f19601f82011682018060405250810190610f849190612f32565b1515600114610fa55760405162461bcd60e51b81526004016109a990612f54565b60008484604051602001610fba929190612f7f565b60408051601f19818403018152606083018252808352602083018890528282018a90529051909250600890610ff0908490612d20565b9081526040519081900360200190208151819061100d9082612e73565b50602082015160018201906110229082612e73565b506040820151805161103e916002840191602090910190612174565b509050506009866040516110529190612d20565b90815260405160209181900382019020805460018101825560009182529190200161107d8282612e73565b509695505050505050565b6110e0604051806101200160405280606081526020016060815260200160608152602001606081526020016060815260200160006001600160401b031681526020016060815260200160608152602001606081525090565b6004826040516110f09190612d20565b90815260200160405180910390206040518061012001604052908160008201805461111a90612d3c565b80601f016020809104026020016040519081016040528092919081815260200182805461114690612d3c565b80156111935780601f1061116857610100808354040283529160200191611193565b820191906000526020600020905b81548152906001019060200180831161117657829003601f168201915b505050505081526020016001820180546111ac90612d3c565b80601f01602080910402602001604051908101604052809291908181526020018280546111d890612d3c565b80156112255780601f106111fa57610100808354040283529160200191611225565b820191906000526020600020905b81548152906001019060200180831161120857829003601f168201915b5050505050815260200160028201805461123e90612d3c565b80601f016020809104026020016040519081016040528092919081815260200182805461126a90612d3c565b80156112b75780601f1061128c576101008083540402835291602001916112b7565b820191906000526020600020905b81548152906001019060200180831161129a57829003601f168201915b505050505081526020016003820180546112d090612d3c565b80601f01602080910402602001604051908101604052809291908181526020018280546112fc90612d3c565b80156113495780601f1061131e57610100808354040283529160200191611349565b820191906000526020600020905b81548152906001019060200180831161132c57829003601f168201915b5050505050815260200160048201805461136290612d3c565b80601f016020809104026020016040519081016040528092919081815260200182805461138e90612d3c565b80156113db5780601f106113b0576101008083540402835291602001916113db565b820191906000526020600020905b8154815290600101906020018083116113be57829003601f168201915b505050918352505060058201546001600160401b0316602082015260068201805460409092019161140b90612d3c565b80601f016020809104026020016040519081016040528092919081815260200182805461143790612d3c565b80156114845780601f1061145957610100808354040283529160200191611484565b820191906000526020600020905b81548152906001019060200180831161146757829003601f168201915b5050505050815260200160078201805461149d90612d3c565b80601f01602080910402602001604051908101604052809291908181526020018280546114c990612d3c565b80156115165780601f106114eb57610100808354040283529160200191611516565b820191906000526020600020905b8154815290600101906020018083116114f957829003601f168201915b5050505050815260200160088201805461045890612d3c565b600d5460405163175757d560e01b815260609183916001600160a01b039091169063175757d59061156490849060040161258b565b602060405180830381865afa158015611581573d6000803e3d6000fd5b505050506040513d601f19601f820116820180604052508101906115a59190612f32565b15156001146115c65760405162461bcd60e51b81526004016109a990612f54565b60006115e684886040015189606001518a608001518b60a001518b61068f565b905060005b8581101561182f5760006007836040516116059190612d20565b908152604051908190036020019020805463ffffffff1690600061162883612fc4565b91906101000a81548163ffffffff021916908363ffffffff16021790555090506000838260405160200161165d929190612fe7565b60405160208183030381529060405290506040518061012001604052808281526020018581526020018b6040015181526020018b6060015181526020018b6080015181526020018b60a001516001600160401b031681526020018b60c0015181526020018b60e0015181526020018b61010001518152506004826040516116e49190612d20565b908152604051908190036020019020815181906117019082612e73565b50602082015160018201906117169082612e73565b506040820151600282019061172b9082612e73565b50606082015160038201906117409082612e73565b50608082015160048201906117559082612e73565b5060a082015160058201805467ffffffffffffffff19166001600160401b0390921691909117905560c082015160068201906117919082612e73565b5060e082015160078201906117a69082612e73565b5061010082015160088201906117bc9082612e73565b509050506005876040516117d09190612d20565b9081526040516020918190038201902080546001810182556000918252919020016117fb8282612e73565b508086848151811061180f5761180f613019565b6020026020010181905250505080806118279061302f565b9150506115eb565b505050949350505050565b606060038260405161184c9190612d20565b9081526020016040518091039020805480602002602001604051908101604052809291908181526020016000905b8282101561082057838290600052602060002001805461189990612d3c565b80601f01602080910402602001604051908101604052809291908181526020018280546118c590612d3c565b80156119125780601f106118e757610100808354040283529160200191611912565b820191906000526020600020905b8154815290600101906020018083116118f557829003601f168201915b50505050508152602001906001019061187a565b600d5460405163175757d560e01b815282916001600160a01b03169063175757d59061195690849060040161258b565b602060405180830381865afa158015611973573d6000803e3d6000fd5b505050506040513d601f19601f820116820180604052508101906119979190612f32565b15156001146119b85760405162461bcd60e51b81526004016109a990612f54565b6040518060800160405280878152602001868152602001858152602001848152506002876040516119e99190612d20565b90815260405190819003602001902081518190611a069082612e73565b506020828101518051611a1f9260018501920190612174565b5060408201516002820190611a349082612e73565b5060608201516003820190611a499082612e73565b50905050600382604051611a5d9190612d20565b908152604051602091819003820190208054600181018255600091825291902001611a888782612e73565b50505050505050565b6060600182604051611aa39190612d20565b9081526020016040518091039020805480602002602001604051908101604052809291908181526020016000905b82821015610820578382906000526020600020018054611af090612d3c565b80601f0160208091040260200160405190810160405280929190818152602001828054611b1c90612d3c565b8015611b695780601f10611b3e57610100808354040283529160200191611b69565b820191906000526020600020905b815481529060010190602001808311611b4c57829003601f168201915b505050505081526020019060010190611ad1565b6060600b82604051611b8f9190612d20565b9081526020016040518091039020805480602002602001604051908101604052809291908181526020016000905b82821015610820578382906000526020600020018054611bdc90612d3c565b80601f0160208091040260200160405190810160405280929190818152602001828054611c0890612d3c565b8015611c555780601f10611c2a57610100808354040283529160200191611c55565b820191906000526020600020905b815481529060010190602001808311611c3857829003601f168201915b505050505081526020019060010190611bbd565b600d5460405163175757d560e01b815260609183916001600160a01b039091169063175757d590611c9e90849060040161258b565b602060405180830381865afa158015611cbb573d6000803e3d6000fd5b505050506040513d601f19601f82011682018060405250810190611cdf9190612f32565b1515600114611d005760405162461bcd60e51b81526004016109a990612f54565b600084604051602001611d1391906125a5565b60405160208183030381529060405280519060200120905060008482604051602001611d40929190613048565b60408051601f198184030181528282018252808352602083018990529051909250600a90611d6f908490612d20565b90815260405190819003602001902081518190611d8c9082612e73565b506020828101518051611da59260018501920190612174565b50905050600b85604051611db99190612d20565b908152604051602091819003820190208054600181018255600091825291902001611de48282612e73565b5095945050505050565b600d5460405163175757d560e01b815260609183916001600160a01b039091169063175757d590611e2390849060040161258b565b602060405180830381865afa158015611e40573d6000803e3d6000fd5b505050506040513d601f19601f82011682018060405250810190611e649190612f32565b1515600114611e855760405162461bcd60e51b81526004016109a990612f54565b600060078560200151604051611e9b9190612d20565b908152604051908190036020019020805463ffffffff16906000611ebe83612fc4565b91906101000a81548163ffffffff021916908363ffffffff16021790555090506000856020015182604051602001611ef7929190612fe7565b6040516020818303038152906040529050604051806101200160405280828152602001876020015181526020018760400151815260200187606001518152602001876080015181526020018760a001516001600160401b031681526020018760c0015181526020018760e001518152602001876101000151815250600482604051611f829190612d20565b90815260405190819003602001902081518190611f9f9082612e73565b5060208201516001820190611fb49082612e73565b5060408201516002820190611fc99082612e73565b5060608201516003820190611fde9082612e73565b5060808201516004820190611ff39082612e73565b5060a082015160058201805467ffffffffffffffff19166001600160401b0390921691909117905560c0820151600682019061202f9082612e73565b5060e082015160078201906120449082612e73565b50610100820151600882019061205a9082612e73565b50905050600585604051611db99190612d20565b600d5460405163175757d560e01b815286916001600160a01b03169063175757d59061209e90849060040161258b565b602060405180830381865afa1580156120bb573d6000803e3d6000fd5b505050506040513d601f19601f820116820180604052508101906120df9190612f32565b15156001146121005760405162461bcd60e51b81526004016109a990612f54565b600f5460405162665dd960e61b81526001600160a01b0390911690631997764090612139908a908a908a908a908a908a90600401613080565b600060405180830381600087803b15801561215357600080fd5b505af1158015612167573d6000803e3d6000fd5b5050505050505050505050565b8280548282559060005260206000209081019282156121ba579160200282015b828111156121ba57825182906121aa9082612e73565b5091602001919060010190612194565b506121c69291506121ca565b5090565b808211156121c65760006121de82826121e7565b506001016121ca565b5080546121f390612d3c565b6000825580601f10612203575050565b601f0160209004906000526020600020908101906122219190612224565b50565b5b808211156121c65760008155600101612225565b634e487b7160e01b600052604160045260246000fd5b60405161012081016001600160401b038111828210171561227257612272612239565b60405290565b604051601f8201601f191681016001600160401b03811182821017156122a0576122a0612239565b604052919050565b600082601f8301126122b957600080fd5b81356001600160401b038111156122d2576122d2612239565b6122e5601f8201601f1916602001612278565b8181528460208386010111156122fa57600080fd5b816020850160208301376000918101602001919091529392505050565b60006020828403121561232957600080fd5b81356001600160401b0381111561233f57600080fd5b61234b848285016122a8565b949350505050565b60005b8381101561236e578181015183820152602001612356565b50506000910152565b6000815180845261238f816020860160208601612353565b601f01601f19169290920160200192915050565b6020815260008251606060208401526123bf6080840182612377565b90506020840151601f19808584030160408601526123dd8383612377565b92506040860151915080858403016060860152506123fb8282612377565b95945050505050565b6000815180845260208085019450848260051b860182860160005b85811015612449578383038952612437838351612377565b9885019892509084019060010161241f565b5090979650505050505050565b6020815260008251604060208401526124726060840182612377565b90506020840151601f198483030160408501526123fb8282612404565b80356001600160401b03811681146124a657600080fd5b919050565b60008060008060008060c087890312156124c457600080fd5b86356001600160401b03808211156124db57600080fd5b6124e78a838b016122a8565b975060208901359150808211156124fd57600080fd5b6125098a838b016122a8565b9650604089013591508082111561251f57600080fd5b61252b8a838b016122a8565b9550606089013591508082111561254157600080fd5b61254d8a838b016122a8565b945061255b60808a0161248f565b935060a089013591508082111561257157600080fd5b5061257e89828a016122a8565b9150509295509295509295565b60208152600061259e6020830184612377565b9392505050565b60208152600061259e6020830184612404565b600080600080608085870312156125ce57600080fd5b84356001600160401b03808211156125e557600080fd5b6125f1888389016122a8565b9550602087013591508082111561260757600080fd5b612613888389016122a8565b9450604087013591508082111561262957600080fd5b612635888389016122a8565b9350606087013591508082111561264b57600080fd5b50612658878288016122a8565b91505092959194509250565b60208152600082516080602084015261268060a0840182612377565b90506020840151601f198085840301604086015261269e8383612404565b925060408601519150808584030160608601526126bb8383612377565b92506060860151915080858403016080860152506123fb8282612377565b6020815260008251606060208401526126f56080840182612377565b90506020840151601f19808584030160408601526127138383612377565b92506040860151915080858403016060860152506123fb8282612404565b600082601f83011261274257600080fd5b813560206001600160401b038083111561275e5761275e612239565b8260051b61276d838201612278565b938452858101830193838101908886111561278757600080fd5b84880192505b858310156127c3578235848111156127a55760008081fd5b6127b38a87838c01016122a8565b835250918401919084019061278d565b98975050505050505050565b600080600080608085870312156127e557600080fd5b84356001600160401b03808211156127fc57600080fd5b6125f188838901612731565b6020815260008251610120806020850152612827610140850183612377565b91506020850151601f19808685030160408701526128458483612377565b935060408701519150808685030160608701526128628483612377565b9350606087015191508086850301608087015261287f8483612377565b935060808701519150808685030160a087015261289c8483612377565b935060a087015191506128ba60c08701836001600160401b03169052565b60c08701519150808685030160e08701526128d58483612377565b935060e087015191506101008187860301818801526128f48584612377565b9088015187820390920184880152935090506129108382612377565b9695505050505050565b6000610120828403121561292d57600080fd5b61293561224f565b905081356001600160401b038082111561294e57600080fd5b61295a858386016122a8565b8352602084013591508082111561297057600080fd5b61297c858386016122a8565b6020840152604084013591508082111561299557600080fd5b6129a1858386016122a8565b604084015260608401359150808211156129ba57600080fd5b6129c6858386016122a8565b606084015260808401359150808211156129df57600080fd5b6129eb858386016122a8565b60808401526129fc60a0850161248f565b60a084015260c0840135915080821115612a1557600080fd5b612a21858386016122a8565b60c084015260e0840135915080821115612a3a57600080fd5b612a46858386016122a8565b60e084015261010091508184013581811115612a6157600080fd5b612a6d868287016122a8565b8385015250505092915050565b60008060008060808587031215612a9057600080fd5b84356001600160401b0380821115612aa757600080fd5b612ab38883890161291a565b95506020870135915080821115612ac957600080fd5b612ad5888389016122a8565b945060408701359350606087013591508082111561264b57600080fd5b600080600080600060a08688031215612b0a57600080fd5b85356001600160401b0380821115612b2157600080fd5b612b2d89838a016122a8565b96506020880135915080821115612b4357600080fd5b612b4f89838a01612731565b95506040880135915080821115612b6557600080fd5b612b7189838a016122a8565b94506060880135915080821115612b8757600080fd5b612b9389838a016122a8565b93506080880135915080821115612ba957600080fd5b50612bb6888289016122a8565b9150509295509295909350565b60008060408385031215612bd657600080fd5b82356001600160401b0380821115612bed57600080fd5b612bf986838701612731565b93506020850135915080821115612c0f57600080fd5b50612c1c858286016122a8565b9150509250929050565b60008060408385031215612c3957600080fd5b82356001600160401b0380821115612c5057600080fd5b612bf98683870161291a565b60008060008060008060c08789031215612c7557600080fd5b86356001600160401b0380821115612c8c57600080fd5b612c988a838b016122a8565b97506020890135915080821115612cae57600080fd5b612cba8a838b016122a8565b96506040890135915080821115612cd057600080fd5b612cdc8a838b016122a8565b95506060890135915080821115612cf257600080fd5b612cfe8a838b016122a8565b94506080890135915080821115612d1457600080fd5b61255b8a838b016122a8565b60008251612d32818460208701612353565b9190910192915050565b600181811c90821680612d5057607f821691505b602082108103612d7057634e487b7160e01b600052602260045260246000fd5b50919050565b60008751612d88818460208c01612353565b875190830190612d9c818360208c01612353565b8751910190612daf818360208b01612353565b8651910190612dc2818360208a01612353565b60c086901b6001600160c01b03191691019081528351612de9816008840160208801612353565b0160080198975050505050505050565b60008351612e0b818460208801612353565b6001600160e01b0319939093169190920190815260040192915050565b601f821115612e6e57600081815260208120601f850160051c81016020861015612e4f5750805b601f850160051c820191505b81811015610a6357828155600101612e5b565b505050565b81516001600160401b03811115612e8c57612e8c612239565b612ea081612e9a8454612d3c565b84612e28565b602080601f831160018114612ed55760008415612ebd5750858301515b600019600386901b1c1916600185901b178555610a63565b600085815260208120601f198616915b82811015612f0457888601518255948401946001909101908401612ee5565b5085821015612f225787850151600019600388901b60f8161c191681555b5050505050600190811b01905550565b600060208284031215612f4457600080fd5b8151801515811461259e57600080fd5b6020808252601190820152705065726d697373616f206e65676164612160781b604082015260600190565b60008351612f91818460208801612353565b835190830190612fa5818360208801612353565b01949350505050565b634e487b7160e01b600052601160045260246000fd5b600063ffffffff808316818103612fdd57612fdd612fae565b6001019392505050565b60008351612ff9818460208801612353565b60e09390931b6001600160e01b0319169190920190815260040192915050565b634e487b7160e01b600052603260045260246000fd5b60006001820161304157613041612fae565b5060010190565b6000835161305a818460208801612353565b6fffffffffffffffffffffffffffffffff19939093169190920190815260100192915050565b60c08152600061309360c0830189612377565b82810360208401526130a58189612377565b905082810360408401526130b98188612377565b905082810360608401526130cd8187612377565b905082810360808401526130e18186612377565b905082810360a08401526130f58185612377565b999850505050505050505056fea2646970667358221220024e35b8bdb8d001848fd0f0308fb063b012559e821702ae58b1a24bc6bfad3a64736f6c63430008110033",
  "immutableReferences": {},
  "source": "// SPDX-License-Identifier: MIT\r\npragma solidity ^0.8.17;\r\nimport \"./Authentication.sol\";\r\nimport \"./UpdateTr.sol\";\r\n\r\nstruct Feedstock {\r\n    string id;\r\n    string distributorId;\r\n    string dateTime;\r\n}\r\n\r\nstruct FeedstockContainer {\r\n    string id;\r\n    string[] feedstockIds;\r\n    string distributorId;\r\n    string dateTime;\r\n}\r\n\r\nstruct Honey {\r\n    string id;\r\n    string batch;\r\n    string feedstockBatch;\r\n    string honeyType;\r\n    string variety;\r\n    uint64 weight;\r\n    string packaging;\r\n    string validity;\r\n    string composition;\r\n}\r\n\r\nstruct Box {\r\n    string id;\r\n    string batch;\r\n    string[] honeyId;\r\n}\r\n\r\nstruct Pallet {\r\n    string id;\r\n    string[] boxId;\r\n}\r\n\r\ncontract Processing {\r\n    // Variaveis de estado\r\n    mapping(string => Feedstock) feedstocks; // endereco => (codigo => carregamento). lista de materia prima recebida por cada processador de mel.\r\n    mapping(string => string[]) feedstocksId;\r\n\r\n    mapping(string => FeedstockContainer) feedstockContainers; // endereco => (codigo => carregamento). lista de materia prima recebida por cada processador de mel.\r\n    mapping(string => string[]) feedstockContainersId;\r\n\r\n    mapping(string => Honey) honeys; // honey id => Honey. Lista de produtos fabricados por cada processador de mel.\r\n    mapping(string => string[]) honeysId; // user id => honey id []\r\n    mapping(string => string[]) honeysBatch; // user id => batch[]\r\n    mapping(string => uint32) count; // batch => counter\r\n\r\n    mapping(string => Box) boxes; // endereco => (codigo => Container). Lista de conteiners(caixa ou palete) montados por cada processador de mel.\r\n    mapping(string => string[]) boxesId;\r\n\r\n    mapping(string => Pallet) pallets; // endereco => (codigo => Container). Lista de conteiners(caixa ou palete) montados por cada processador de mel.\r\n    mapping(string => string[]) palletsId;\r\n    //mapping(string => string[]) palletsBatch;\r\n\r\n    address contractAuthentication;\r\n    Authentication instanceAuthentication;\r\n    address contractUpdateTr;\r\n    UpdateTr instanceUpdateTr;\r\n\r\n    constructor(address _contractAuthentication, address _contractUpdateTr) {\r\n        contractAuthentication = _contractAuthentication;\r\n        instanceAuthentication = Authentication(contractAuthentication);\r\n        contractUpdateTr = _contractUpdateTr;\r\n        instanceUpdateTr = UpdateTr(contractUpdateTr);\r\n    }\r\n\r\n    //Verifica se o endereo que esta chamando o contrato possui permisao para modificar o estado da rede\r\n    modifier onlyOWNER(string memory _userId) {\r\n        require(\r\n            instanceAuthentication.activeUser(_userId) == true,\r\n            \"Permissao negada!\"\r\n        );\r\n        _;\r\n    }\r\n\r\n    // Funes relacionadas ao mel recebido pelos processadores\r\n    function regiterFeedstock(\r\n        string memory _id,\r\n        string memory _distributorId,\r\n        string memory _date,\r\n        string memory _userId\r\n    ) public onlyOWNER(_userId) {\r\n        feedstocks[_id] = Feedstock(_id, _distributorId, _date);\r\n        feedstocksId[_userId].push(_id);\r\n    }\r\n\r\n    // Funcoes GET\r\n    function getFeedstock(\r\n        string memory _id\r\n    ) public view returns (Feedstock memory) {\r\n        return feedstocks[_id];\r\n    }\r\n\r\n    function getFeedstockId(\r\n        string memory _userId\r\n    ) public view returns (string[] memory) {\r\n        return feedstocksId[_userId];\r\n    }\r\n\r\n    function regiterFeedstockContainer(\r\n        string memory _id,\r\n        string[] memory _feedstockIds,\r\n        string memory _distributorId,\r\n        string memory _date,\r\n        string memory _userId\r\n    ) public onlyOWNER(_userId) {\r\n        feedstockContainers[_id] = FeedstockContainer(\r\n            _id,\r\n            _feedstockIds,\r\n            _distributorId,\r\n            _date\r\n        );\r\n        feedstockContainersId[_userId].push(_id);\r\n    }\r\n\r\n    // Funcoes GET\r\n    function getFeedstockContainer(\r\n        string memory _id\r\n    ) public view returns (FeedstockContainer memory) {\r\n        return feedstockContainers[_id];\r\n    }\r\n\r\n    function getFeedstockContainerId(\r\n        string memory _userId\r\n    ) public view returns (string[] memory) {\r\n        return feedstockContainersId[_userId];\r\n    }\r\n\r\n    // Funes relacionadas ao mel beneficiado produzido pelos processadores\r\n\r\n    function generateBatch(\r\n        string memory _userId,\r\n        string memory _feedstockBatch,\r\n        string memory _honeyType,\r\n        string memory _variety,\r\n        uint64 _weight,\r\n        string memory _dateTime\r\n    ) public returns (string memory) {\r\n        bytes4 _hash = bytes4(\r\n            keccak256(\r\n                abi.encodePacked(\r\n                    _userId,\r\n                    _feedstockBatch,\r\n                    _honeyType,\r\n                    _variety,\r\n                    _weight,\r\n                    _dateTime\r\n                )\r\n            )\r\n        );\r\n        string memory _batch = string(abi.encodePacked(_userId, _hash));\r\n        honeysBatch[_userId].push(_batch);\r\n        return _batch;\r\n    }\r\n\r\n    function newHoney(\r\n        Honey memory _honey,\r\n        string memory _userId\r\n    ) public onlyOWNER(_userId) returns (string memory) {\r\n        uint32 _count = count[_honey.batch]++;\r\n        string memory _id = string(abi.encodePacked(_honey.batch, _count));\r\n        //string memory _id = string(abi.encodePacked(_batch, _dateTime));\r\n        honeys[_id] = Honey(\r\n            _id,\r\n            _honey.batch,\r\n            _honey.feedstockBatch,\r\n            _honey.honeyType,\r\n            _honey.variety,\r\n            _honey.weight,\r\n            _honey.packaging,\r\n            _honey.validity,\r\n            _honey.composition\r\n        );\r\n        honeysId[_userId].push(_id);\r\n        return _id;\r\n    }\r\n\r\n    function newHoneys(\r\n        Honey memory _honey,\r\n        string memory _dateTime,\r\n        uint _amount,\r\n        string memory _userId\r\n    ) public onlyOWNER(_userId) returns (string[] memory id) {\r\n        string memory _batch = generateBatch(\r\n            _userId,\r\n            _honey.feedstockBatch,\r\n            _honey.honeyType,\r\n            _honey.variety,\r\n            _honey.weight,\r\n            _dateTime\r\n        );\r\n\r\n        for (uint256 index = 0; index < _amount; index++) {\r\n            uint32 _count = count[_batch]++;\r\n            string memory _id = string(abi.encodePacked(_batch, _count));\r\n            honeys[_id] = Honey(\r\n                _id,\r\n                _batch,\r\n                _honey.feedstockBatch,\r\n                _honey.honeyType,\r\n                _honey.variety,\r\n                _honey.weight,\r\n                _honey.packaging,\r\n                _honey.validity,\r\n                _honey.composition\r\n            );\r\n            honeysId[_userId].push(_id);\r\n            id[index] = _id;\r\n        }\r\n        return id;\r\n    }\r\n\r\n    function getHoney(string memory _id) public view returns (Honey memory) {\r\n        return honeys[_id];\r\n    }\r\n\r\n    function getHoneyId(\r\n        string memory _userId\r\n    ) public view returns (string[] memory) {\r\n        return honeysId[_userId];\r\n    }\r\n\r\n    // Funes relacionadas aos containeres de mel produzidos pelos processadores\r\n    function newBox(\r\n        string[] memory _honeyId,\r\n        string memory _userId,\r\n        string memory _batch,\r\n        string memory _dateTime\r\n    ) public onlyOWNER(_userId) returns (string memory) {\r\n        //bytes32 _id = bytes32(keccak256(abi.encodePacked(_honeyId)));\r\n\r\n        string memory _id = string(abi.encodePacked(_batch, _dateTime));\r\n        boxes[_id] = Box(_id, _batch, _honeyId);\r\n        boxesId[_userId].push(_id);\r\n        return _id;\r\n    }\r\n\r\n    function getBox(string memory _id) public view returns (Box memory) {\r\n        return boxes[_id];\r\n    }\r\n\r\n    function getBoxId(\r\n        string memory _userId\r\n    ) public view returns (string[] memory) {\r\n        return boxesId[_userId];\r\n    }\r\n\r\n    function newPallet(\r\n        string[] memory _boxId,\r\n        string memory _userId\r\n    ) public onlyOWNER(_userId) returns (string memory) {\r\n        //string memory _id = string(abi.encodePacked(keccak256(abi.encode(_boxId))));\r\n        bytes16 _hash = bytes16(keccak256(abi.encode(_boxId)));\r\n        string memory _id = string(abi.encodePacked(_userId, _hash));\r\n        pallets[_id] = Pallet(_id, _boxId);\r\n        palletsId[_userId].push(_id);\r\n        return _id;\r\n    }\r\n\r\n    // Fones GET\r\n    function getPallet(string memory _id) public view returns (Pallet memory) {\r\n        return pallets[_id];\r\n    }\r\n\r\n    function getPalletId(\r\n        string memory _userId\r\n    ) public view returns (string[] memory) {\r\n        return palletsId[_userId];\r\n    }\r\n\r\n    //Funo para registrar a tranzao de um produto\r\n    function forwarding(\r\n        string memory _sender,\r\n        string memory _receiver,\r\n        string memory _unitId,\r\n        string memory _date,\r\n        string memory _businessUnitType,\r\n        bytes memory _signature\r\n    ) public onlyOWNER(_receiver) {\r\n        //chamar funcao updateTr no contrato UpdateTr\r\n        instanceUpdateTr.updateTr(\r\n            _sender,\r\n            _receiver,\r\n            _unitId,\r\n            _date,\r\n            _businessUnitType,\r\n            _signature\r\n        );\r\n    }\r\n}\r\n",
  "sourcePath": "C:\\Users\\samue\\Documents\\Workspace_react\\BlockForBees\\backend_blockcahin\\contracts\\Processing.sol",
  "compiler": {
    "name": "solc",
    "version": "0.8.17+commit.8df45f5f.Emscripten.clang"
  },
  "schemaVersion": "3.4.11",
  "updatedAt": "2023-04-26T22:52:58.035Z",
  "devdoc": {
    "kind": "dev",
    "methods": {},
    "version": 1
  },
  "userdoc": {
    "kind": "user",
    "methods": {},
    "version": 1
  }
}