{
  "contractName": "Processing",
  "abi": [
    {
      "inputs": [
        {
          "internalType": "address",
          "name": "_contractAuthentication",
          "type": "address"
        },
        {
          "internalType": "address",
          "name": "_contractUpdateTr",
          "type": "address"
        }
      ],
      "stateMutability": "nonpayable",
      "type": "constructor"
    },
    {
      "inputs": [
        {
          "internalType": "bytes30",
          "name": "_id",
          "type": "bytes30"
        },
        {
          "internalType": "string",
          "name": "_distributorId",
          "type": "string"
        },
        {
          "internalType": "string",
          "name": "_date",
          "type": "string"
        },
        {
          "internalType": "string",
          "name": "_userId",
          "type": "string"
        }
      ],
      "name": "regiterFeedstock",
      "outputs": [],
      "stateMutability": "nonpayable",
      "type": "function"
    },
    {
      "inputs": [
        {
          "internalType": "bytes32",
          "name": "_id",
          "type": "bytes32"
        }
      ],
      "name": "getFeedstock",
      "outputs": [
        {
          "components": [
            {
              "internalType": "bytes30",
              "name": "id",
              "type": "bytes30"
            },
            {
              "internalType": "string",
              "name": "distributorId",
              "type": "string"
            },
            {
              "internalType": "string",
              "name": "dateTime",
              "type": "string"
            }
          ],
          "internalType": "struct Feedstock",
          "name": "",
          "type": "tuple"
        }
      ],
      "stateMutability": "view",
      "type": "function"
    },
    {
      "inputs": [
        {
          "internalType": "string",
          "name": "_userId",
          "type": "string"
        }
      ],
      "name": "getFeedstockId",
      "outputs": [
        {
          "internalType": "bytes32[]",
          "name": "",
          "type": "bytes32[]"
        }
      ],
      "stateMutability": "view",
      "type": "function"
    },
    {
      "inputs": [
        {
          "internalType": "bytes30",
          "name": "_id",
          "type": "bytes30"
        },
        {
          "internalType": "bytes30[]",
          "name": "_feedstockIds",
          "type": "bytes30[]"
        },
        {
          "internalType": "string",
          "name": "_distributorId",
          "type": "string"
        },
        {
          "internalType": "string",
          "name": "_date",
          "type": "string"
        },
        {
          "internalType": "string",
          "name": "_userId",
          "type": "string"
        }
      ],
      "name": "regiterFeedstockContainer",
      "outputs": [],
      "stateMutability": "nonpayable",
      "type": "function"
    },
    {
      "inputs": [
        {
          "internalType": "bytes30",
          "name": "_id",
          "type": "bytes30"
        }
      ],
      "name": "getFeedstockContainer",
      "outputs": [
        {
          "components": [
            {
              "internalType": "bytes32",
              "name": "id",
              "type": "bytes32"
            },
            {
              "internalType": "bytes30[]",
              "name": "feedstockIds",
              "type": "bytes30[]"
            },
            {
              "internalType": "string",
              "name": "distributorId",
              "type": "string"
            },
            {
              "internalType": "string",
              "name": "dateTime",
              "type": "string"
            }
          ],
          "internalType": "struct FeedstockContainer",
          "name": "",
          "type": "tuple"
        }
      ],
      "stateMutability": "view",
      "type": "function"
    },
    {
      "inputs": [
        {
          "internalType": "string",
          "name": "_userId",
          "type": "string"
        }
      ],
      "name": "getFeedstockContainerId",
      "outputs": [
        {
          "internalType": "bytes30[]",
          "name": "",
          "type": "bytes30[]"
        }
      ],
      "stateMutability": "view",
      "type": "function"
    },
    {
      "inputs": [
        {
          "internalType": "string",
          "name": "_userId",
          "type": "string"
        },
        {
          "internalType": "bytes20",
          "name": "_feedstockBatch",
          "type": "bytes20"
        },
        {
          "internalType": "string",
          "name": "_honeyType",
          "type": "string"
        },
        {
          "internalType": "string",
          "name": "_variety",
          "type": "string"
        },
        {
          "internalType": "uint64",
          "name": "_weight",
          "type": "uint64"
        },
        {
          "internalType": "string",
          "name": "_date",
          "type": "string"
        }
      ],
      "name": "generateBatch",
      "outputs": [
        {
          "internalType": "bytes20",
          "name": "",
          "type": "bytes20"
        }
      ],
      "stateMutability": "nonpayable",
      "type": "function"
    },
    {
      "inputs": [
        {
          "internalType": "bytes20",
          "name": "_batch",
          "type": "bytes20"
        },
        {
          "internalType": "bytes20",
          "name": "_feedstockBatch",
          "type": "bytes20"
        },
        {
          "internalType": "string",
          "name": "_honeyType",
          "type": "string"
        },
        {
          "internalType": "string",
          "name": "_variety",
          "type": "string"
        },
        {
          "internalType": "uint64",
          "name": "_weight",
          "type": "uint64"
        },
        {
          "internalType": "string",
          "name": "_pacaging",
          "type": "string"
        },
        {
          "internalType": "string",
          "name": "_validity",
          "type": "string"
        },
        {
          "internalType": "string",
          "name": "_composition",
          "type": "string"
        },
        {
          "internalType": "string",
          "name": "_dateTime",
          "type": "string"
        },
        {
          "internalType": "string",
          "name": "_userId",
          "type": "string"
        }
      ],
      "name": "newHoney",
      "outputs": [
        {
          "internalType": "bytes30",
          "name": "",
          "type": "bytes30"
        }
      ],
      "stateMutability": "nonpayable",
      "type": "function"
    },
    {
      "inputs": [
        {
          "components": [
            {
              "internalType": "bytes30",
              "name": "id",
              "type": "bytes30"
            },
            {
              "internalType": "bytes20",
              "name": "batch",
              "type": "bytes20"
            },
            {
              "internalType": "bytes20",
              "name": "feedstockBatch",
              "type": "bytes20"
            },
            {
              "internalType": "string",
              "name": "honeyType",
              "type": "string"
            },
            {
              "internalType": "string",
              "name": "variety",
              "type": "string"
            },
            {
              "internalType": "uint64",
              "name": "weight",
              "type": "uint64"
            },
            {
              "internalType": "string",
              "name": "packaging",
              "type": "string"
            },
            {
              "internalType": "string",
              "name": "validity",
              "type": "string"
            },
            {
              "internalType": "string",
              "name": "composition",
              "type": "string"
            }
          ],
          "internalType": "struct Honey",
          "name": "_honey",
          "type": "tuple"
        },
        {
          "internalType": "string",
          "name": "_date",
          "type": "string"
        },
        {
          "internalType": "string",
          "name": "_time",
          "type": "string"
        },
        {
          "internalType": "uint256",
          "name": "_amount",
          "type": "uint256"
        },
        {
          "internalType": "string",
          "name": "_userId",
          "type": "string"
        }
      ],
      "name": "newHoneys",
      "outputs": [
        {
          "internalType": "bytes30[]",
          "name": "id",
          "type": "bytes30[]"
        }
      ],
      "stateMutability": "nonpayable",
      "type": "function"
    },
    {
      "inputs": [
        {
          "internalType": "bytes30",
          "name": "_id",
          "type": "bytes30"
        }
      ],
      "name": "getHoney",
      "outputs": [
        {
          "components": [
            {
              "internalType": "bytes30",
              "name": "id",
              "type": "bytes30"
            },
            {
              "internalType": "bytes20",
              "name": "batch",
              "type": "bytes20"
            },
            {
              "internalType": "bytes20",
              "name": "feedstockBatch",
              "type": "bytes20"
            },
            {
              "internalType": "string",
              "name": "honeyType",
              "type": "string"
            },
            {
              "internalType": "string",
              "name": "variety",
              "type": "string"
            },
            {
              "internalType": "uint64",
              "name": "weight",
              "type": "uint64"
            },
            {
              "internalType": "string",
              "name": "packaging",
              "type": "string"
            },
            {
              "internalType": "string",
              "name": "validity",
              "type": "string"
            },
            {
              "internalType": "string",
              "name": "composition",
              "type": "string"
            }
          ],
          "internalType": "struct Honey",
          "name": "",
          "type": "tuple"
        }
      ],
      "stateMutability": "view",
      "type": "function"
    },
    {
      "inputs": [
        {
          "internalType": "string",
          "name": "_userId",
          "type": "string"
        }
      ],
      "name": "getHoneyId",
      "outputs": [
        {
          "internalType": "bytes30[]",
          "name": "",
          "type": "bytes30[]"
        }
      ],
      "stateMutability": "view",
      "type": "function"
    },
    {
      "inputs": [
        {
          "internalType": "bytes30[]",
          "name": "_honeyId",
          "type": "bytes30[]"
        },
        {
          "internalType": "string",
          "name": "_userId",
          "type": "string"
        },
        {
          "internalType": "bytes20",
          "name": "_batch",
          "type": "bytes20"
        }
      ],
      "name": "newBox",
      "outputs": [
        {
          "internalType": "bytes32",
          "name": "",
          "type": "bytes32"
        }
      ],
      "stateMutability": "nonpayable",
      "type": "function"
    },
    {
      "inputs": [
        {
          "internalType": "bytes31",
          "name": "_id",
          "type": "bytes31"
        }
      ],
      "name": "getBox",
      "outputs": [
        {
          "components": [
            {
              "internalType": "bytes31",
              "name": "id",
              "type": "bytes31"
            },
            {
              "internalType": "bytes20",
              "name": "batch",
              "type": "bytes20"
            },
            {
              "internalType": "bytes30[]",
              "name": "honeyId",
              "type": "bytes30[]"
            }
          ],
          "internalType": "struct Box",
          "name": "",
          "type": "tuple"
        }
      ],
      "stateMutability": "view",
      "type": "function"
    },
    {
      "inputs": [
        {
          "internalType": "string",
          "name": "_userId",
          "type": "string"
        }
      ],
      "name": "getBoxId",
      "outputs": [
        {
          "internalType": "bytes31[]",
          "name": "",
          "type": "bytes31[]"
        }
      ],
      "stateMutability": "view",
      "type": "function"
    },
    {
      "inputs": [
        {
          "internalType": "bytes31[]",
          "name": "_boxId",
          "type": "bytes31[]"
        },
        {
          "internalType": "string",
          "name": "_userId",
          "type": "string"
        }
      ],
      "name": "newPallet",
      "outputs": [
        {
          "internalType": "bytes32",
          "name": "",
          "type": "bytes32"
        }
      ],
      "stateMutability": "nonpayable",
      "type": "function"
    },
    {
      "inputs": [
        {
          "internalType": "bytes32",
          "name": "_id",
          "type": "bytes32"
        }
      ],
      "name": "getPallet",
      "outputs": [
        {
          "components": [
            {
              "internalType": "bytes32",
              "name": "id",
              "type": "bytes32"
            },
            {
              "internalType": "bytes31[]",
              "name": "boxId",
              "type": "bytes31[]"
            }
          ],
          "internalType": "struct Pallet",
          "name": "",
          "type": "tuple"
        }
      ],
      "stateMutability": "view",
      "type": "function"
    },
    {
      "inputs": [
        {
          "internalType": "string",
          "name": "_userId",
          "type": "string"
        }
      ],
      "name": "getPalletId",
      "outputs": [
        {
          "internalType": "bytes32[]",
          "name": "",
          "type": "bytes32[]"
        }
      ],
      "stateMutability": "view",
      "type": "function"
    },
    {
      "inputs": [
        {
          "internalType": "string",
          "name": "_sender",
          "type": "string"
        },
        {
          "internalType": "string",
          "name": "_receiver",
          "type": "string"
        },
        {
          "internalType": "bytes32",
          "name": "_unitId",
          "type": "bytes32"
        },
        {
          "internalType": "string",
          "name": "_date",
          "type": "string"
        },
        {
          "internalType": "string",
          "name": "_businessUnitType",
          "type": "string"
        },
        {
          "internalType": "bytes",
          "name": "_signature",
          "type": "bytes"
        }
      ],
      "name": "forwarding",
      "outputs": [],
      "stateMutability": "nonpayable",
      "type": "function"
    }
  ],
  "bytecode": "0x60806040523480156200001157600080fd5b5060405162002c3438038062002c3483398101604081905262000034916200009d565b600d80546001600160a01b039384166001600160a01b03199182168117909255600e80548216909217909155600f805492909316918116821790925560108054909216179055620000d5565b80516001600160a01b03811681146200009857600080fd5b919050565b60008060408385031215620000b157600080fd5b620000bc8362000080565b9150620000cc6020840162000080565b90509250929050565b612b4f80620000e56000396000f3fe608060405234801561001057600080fd5b50600436106101165760003560e01c8063868b8bc0116100a2578063b2d7653311610071578063b2d7653314610299578063c744b30d146102ac578063c7611b0c146102cc578063e16ec1e4146102df578063eb330e6d146102ff57600080fd5b8063868b8bc014610234578063a4be78bd14610260578063a6dcbdc314610273578063ae5e3e3c1461028657600080fd5b8063384e5037116100e9578063384e50371461018c578063396ce4fa146101ac5780633e3375e1146101cc5780634a68fc88146101ec5780635645b74f1461021357600080fd5b80630c9c28961461011b578063106722a8146101305780632e7e70491461014357806338018edd1461016c575b600080fd5b61012e610129366004611ad6565b61031f565b005b61012e61013e366004611bc7565b61042f565b610156610151366004611c71565b610576565b6040516101639190611cd3565b60405180910390f35b61017f61017a366004611d18565b610635565b6040516101639190611d83565b61019f61019a366004611d18565b610809565b6040516101639190611dee565b6101bf6101ba366004611ef0565b610b18565b6040516101639190611f58565b6101df6101da366004611ef0565b610b90565b6040516101639190611f6b565b6101ff6101fa366004611fe3565b610c08565b60405161ffff199091168152602001610163565b610226610221366004612154565b610ea7565b604051908152602001610163565b610247610242366004612218565b610fe0565b6040516001600160601b03199091168152602001610163565b61022661026e366004612321565b611093565b6101df610281366004612394565b61129c565b61012e610294366004612551565b6115c0565b6101df6102a7366004611ef0565b611721565b6102bf6102ba366004611ef0565b611733565b60405161016391906125f4565b6102bf6102da366004611ef0565b6117a2565b6102f26102ed36600461262c565b6117b4565b6040516101639190612645565b61031261030d36600461262c565b61184b565b604051610163919061266a565b600e5460405163175757d560e01b815286916001600160a01b03169063175757d59061034f9084906004016126b2565b602060405180830381865afa15801561036c573d6000803e3d6000fd5b505050506040513d601f19601f8201168201806040525081019061039091906126c5565b15156001146103ba5760405162461bcd60e51b81526004016103b1906126e7565b60405180910390fd5b6010546040516324d9f1a160e11b81526001600160a01b03909116906349b3e342906103f4908a908a908a908a908a908a90600401612712565b600060405180830381600087803b15801561040e57600080fd5b505af1158015610422573d6000803e3d6000fd5b5050505050505050505050565b600e5460405163175757d560e01b815282916001600160a01b03169063175757d59061045f9084906004016126b2565b602060405180830381865afa15801561047c573d6000803e3d6000fd5b505050506040513d601f19601f820116820180604052508101906104a091906126c5565b15156001146104c15760405162461bcd60e51b81526004016103b1906126e7565b6040805160608101825261ffff1987168082526020808301888152838501889052600092835290829052929020815181546001600160f01b03191660109190911c17815591519091906001820190610519908261280f565b506040820151600282019061052e908261280f565b5090505060018260405161054291906128ce565b908152604051602091819003820190208054600181018255600091825291902061ffff199690961695019490945550505050565b6040805160608082018352600080835260208301529181019190915260ff19828116600090815260086020818152604092839020835160608082018652825490941b9095168552600181015490921b6001600160601b03191684820152600282018054845181840281018401865281815293948601939283018282801561062557602002820191906000526020600020905b815460101b61ffff19168152600190910190602001808311610608575b5050505050815250509050919050565b6106636040518060800160405280600080191681526020016060815260200160608152602001606081525090565b61ffff198216600090815260026020908152604091829020825160808101845281548152600182018054855181860281018601909652808652919492938581019392908301828280156106de57602002820191906000526020600020905b815460101b61ffff191681526001909101906020018083116106c1575b505050505081526020016002820180546106f790612786565b80601f016020809104026020016040519081016040528092919081815260200182805461072390612786565b80156107705780601f1061074557610100808354040283529160200191610770565b820191906000526020600020905b81548152906001019060200180831161075357829003601f168201915b5050505050815260200160038201805461078990612786565b80601f01602080910402602001604051908101604052809291908181526020018280546107b590612786565b80156106255780601f106107d757610100808354040283529160200191610625565b820191906000526020600020905b8154815290600101906020018083116107e557505050919092525091949350505050565b6040805161012080820183526000808352602080840182905283850182905260608085018190526080850181905260a0850183905260c0850181905260e08501819052610100850181905261ffff198781168452600483529286902086519485018752805460101b90931684526001830154811b6001600160601b0319908116928501929092526002830154811b909116948301949094526003810180549394929391928401916108b990612786565b80601f01602080910402602001604051908101604052809291908181526020018280546108e590612786565b80156109325780601f1061090757610100808354040283529160200191610932565b820191906000526020600020905b81548152906001019060200180831161091557829003601f168201915b5050505050815260200160048201805461094b90612786565b80601f016020809104026020016040519081016040528092919081815260200182805461097790612786565b80156109c45780601f10610999576101008083540402835291602001916109c4565b820191906000526020600020905b8154815290600101906020018083116109a757829003601f168201915b505050918352505060058201546001600160401b031660208201526006820180546040909201916109f490612786565b80601f0160208091040260200160405190810160405280929190818152602001828054610a2090612786565b8015610a6d5780601f10610a4257610100808354040283529160200191610a6d565b820191906000526020600020905b815481529060010190602001808311610a5057829003601f168201915b50505050508152602001600782018054610a8690612786565b80601f0160208091040260200160405190810160405280929190818152602001828054610ab290612786565b8015610aff5780601f10610ad457610100808354040283529160200191610aff565b820191906000526020600020905b815481529060010190602001808311610ae257829003601f168201915b5050505050815260200160088201805461078990612786565b6060600982604051610b2a91906128ce565b9081526040805191829003602090810183208054808302850183019093528284529190830182828015610b8457602002820191906000526020600020905b815460081b60ff19168152600190910190602001808311610b68575b50505050509050919050565b6060600582604051610ba291906128ce565b9081526040805191829003602090810183208054808302850183019093528284529190830182828015610b8457602002820191906000526020600020905b815460101b61ffff19168152600190910190602001808311610be05750505050509050919050565b600e5460405163175757d560e01b815260009183916001600160a01b039091169063175757d590610c3d9084906004016126b2565b602060405180830381865afa158015610c5a573d6000803e3d6000fd5b505050506040513d601f19601f82011682018060405250810190610c7e91906126c5565b1515600114610c9f5760405162461bcd60e51b81526004016103b1906126e7565b60008c85604051602001610cb49291906128ea565b604051602081830303815290604052610ccc9061291a565b90506040518061012001604052808261ffff191681526020018e6001600160601b03191681526020018d6001600160601b03191681526020018c81526020018b81526020018a6001600160401b0316815260200189815260200188815260200187815250600460008361ffff1916815260200190815260200160002060008201518160000160006101000a8154816001600160f01b03021916908360101c021790555060208201518160010160006101000a8154816001600160a01b03021916908360601c021790555060408201518160020160006101000a8154816001600160a01b03021916908360601c02179055506060820151816003019081610dd2919061280f565b5060808201516004820190610de7908261280f565b5060a082015160058201805467ffffffffffffffff19166001600160401b0390921691909117905560c08201516006820190610e23908261280f565b5060e08201516007820190610e38908261280f565b506101008201516008820190610e4e908261280f565b50905050600584604051610e6291906128ce565b90815260405160209181900382019020805460018101825560009182529190200180546001600160f01b031916601083901c1790559c9b505050505050505050505050565b600e5460405163175757d560e01b815260009183916001600160a01b039091169063175757d590610edc9084906004016126b2565b602060405180830381865afa158015610ef9573d6000803e3d6000fd5b505050506040513d601f19601f82011682018060405250810190610f1d91906126c5565b1515600114610f3e5760405162461bcd60e51b81526004016103b1906126e7565b600084604051602001610f51919061294c565b60408051601f19818403018152828252805160209182012083830183528084528382018981526000828152600a8452939093208451815592518051919550610fa0926001850192910190611933565b50905050600b84604051610fb491906128ce565b908152604051602091819003820190208054600181018255600091825291902001819055949350505050565b600080600388888888888860405160200161100096959493929190612986565b60408051601f198184030181529082905261101a916128ce565b602060405180830381855afa158015611037573d6000803e3d6000fd5b5050506040515160601b905060068860405161105391906128ce565b90815260405160209181900382019020805460018101825560009182529190200180546001600160a01b031916606083901c179055979650505050505050565b600e5460405163175757d560e01b815260009184916001600160a01b039091169063175757d5906110c89084906004016126b2565b602060405180830381865afa1580156110e5573d6000803e3d6000fd5b505050506040513d601f19601f8201168201806040525081019061110991906126c5565b151560011461112a5760405162461bcd60e51b81526004016103b1906126e7565b60078460405161113a91906128ce565b908152604051908190036020019020805461ffff1690600061115b83612a24565b91906101000a81548161ffff021916908361ffff1602179055505060008460078660405161118991906128ce565b90815260405160209181900382018120546111ac939261ffff9091169101612a45565b6040516020818303038152906040526111c490612a77565b604080516060808201835260ff1984168083526001600160601b0319891660208085019182528486018d81526000938452600880835296909320855181546001600160f81b031916971c96909617865590516001860180546001600160a01b0319169190941c1790925551805194955091936112469260028501920190611993565b5090505060098560405161125a91906128ce565b90815260405160209181900382019020805460018101825560009182529190200180546001600160f81b031916600883901c17905560ff191695945050505050565b600e5460405163175757d560e01b815260609183916001600160a01b039091169063175757d5906112d19084906004016126b2565b602060405180830381865afa1580156112ee573d6000803e3d6000fd5b505050506040513d601f19601f8201168201806040525081019061131291906126c5565b15156001146113335760405162461bcd60e51b81526004016103b1906126e7565b60006113538489604001518a606001518b608001518c60a001518c610fe0565b905060005b858110156115b457600082898960405160200161137793929190612aa4565b60405160208183030381529060405261138f9061291a565b90506040518061012001604052808261ffff19168152602001846001600160601b03191681526020018b604001516001600160601b03191681526020018b6060015181526020018b6080015181526020018b60a001516001600160401b031681526020018b60c0015181526020018b60e0015181526020018b6101000151815250600460008361ffff1916815260200190815260200160002060008201518160000160006101000a8154816001600160f01b03021916908360101c021790555060208201518160010160006101000a8154816001600160a01b03021916908360601c021790555060408201518160020160006101000a8154816001600160a01b03021916908360601c021790555060608201518160030190816114b2919061280f565b50608082015160048201906114c7908261280f565b5060a082015160058201805467ffffffffffffffff19166001600160401b0390921691909117905560c08201516006820190611503908261280f565b5060e08201516007820190611518908261280f565b50610100820151600882019061152e908261280f565b5090505060058660405161154291906128ce565b90815260405160209181900382019020805460018101825560009182529190200180546001600160f01b031916601083901c1790558451819086908490811061158d5761158d612aea565b61ffff199092166020928302919091019091015250806115ac81612b00565b915050611358565b50505095945050505050565b600e5460405163175757d560e01b815282916001600160a01b03169063175757d5906115f09084906004016126b2565b602060405180830381865afa15801561160d573d6000803e3d6000fd5b505050506040513d601f19601f8201168201806040525081019061163191906126c5565b15156001146116525760405162461bcd60e51b81526004016103b1906126e7565b6040805160808101825261ffff1988168082526020808301898152838501899052606084018890526000928352600282529390912082518155925180519293926116a29260018501920190611993565b50604082015160028201906116b7908261280f565b50606082015160038201906116cc908261280f565b509050506003826040516116e091906128ce565b90815260405160209181900382019020805460018101825560009182529190200180546001600160f01b03191660109790971c969096179095555050505050565b6060600382604051610ba291906128ce565b606060018260405161174591906128ce565b9081526040805191829003602090810183208054808302850183019093528284529190830182828015610b8457602002820191906000526020600020905b8154815260200190600101908083116117835750505050509050919050565b6060600b8260405161174591906128ce565b6040805180820190915260008152606060208201526000828152600a602090815260409182902082518084018452815481526001820180548551818602810186019096528086529194929385810193929083018282801561062557602002820191906000526020600020905b815460081b60ff19168152600190910190602001808311611820575050505050815250509050919050565b604080516060808201835260008252602082018190529181019190915260008281526020818152604091829020825160608101909352805460101b61ffff1916835260018101805491928401916118a190612786565b80601f01602080910402602001604051908101604052809291908181526020018280546118cd90612786565b801561191a5780601f106118ef5761010080835404028352916020019161191a565b820191906000526020600020905b8154815290600101906020018083116118fd57829003601f168201915b5050505050815260200160028201805461078990612786565b828054828255906000526020600020908101928215611983579160200282015b8281111561198357825182546001600160f81b03191660089190911c178255602090920191600190910190611953565b5061198f9291506119e3565b5090565b828054828255906000526020600020908101928215611983579160200282015b8281111561198357825182546001600160f01b03191660109190911c1782556020909201916001909101906119b3565b5b8082111561198f57600081556001016119e4565b634e487b7160e01b600052604160045260246000fd5b60405161012081016001600160401b0381118282101715611a3157611a316119f8565b60405290565b604051601f8201601f191681016001600160401b0381118282101715611a5f57611a5f6119f8565b604052919050565b600082601f830112611a7857600080fd5b81356001600160401b03811115611a9157611a916119f8565b611aa4601f8201601f1916602001611a37565b818152846020838601011115611ab957600080fd5b816020850160208301376000918101602001919091529392505050565b60008060008060008060c08789031215611aef57600080fd5b86356001600160401b0380821115611b0657600080fd5b611b128a838b01611a67565b97506020890135915080821115611b2857600080fd5b611b348a838b01611a67565b9650604089013595506060890135915080821115611b5157600080fd5b611b5d8a838b01611a67565b94506080890135915080821115611b7357600080fd5b611b7f8a838b01611a67565b935060a0890135915080821115611b9557600080fd5b50611ba289828a01611a67565b9150509295509295509295565b803561ffff1981168114611bc257600080fd5b919050565b60008060008060808587031215611bdd57600080fd5b611be685611baf565b935060208501356001600160401b0380821115611c0257600080fd5b611c0e88838901611a67565b94506040870135915080821115611c2457600080fd5b611c3088838901611a67565b93506060870135915080821115611c4657600080fd5b50611c5387828801611a67565b91505092959194509250565b803560ff1981168114611bc257600080fd5b600060208284031215611c8357600080fd5b611c8c82611c5f565b9392505050565b600081518084526020808501945080840160005b83811015611cc857815161ffff191687529582019590820190600101611ca7565b509495945050505050565b6020815260ff1982511660208201526001600160601b0319602083015116604082015260006040830151606080840152611d106080840182611c93565b949350505050565b600060208284031215611d2a57600080fd5b611c8c82611baf565b60005b83811015611d4e578181015183820152602001611d36565b50506000910152565b60008151808452611d6f816020860160208601611d33565b601f01601f19169290920160200192915050565b60208152815160208201526000602083015160806040840152611da960a0840182611c93565b90506040840151601f1980858403016060860152611dc78383611d57565b9250606086015191508085840301608086015250611de58282611d57565b95945050505050565b60208152611e0460208201835161ffff19169052565b60006020830151611e2160408401826001600160601b0319169052565b5060408301516001600160601b031981166060840152506060830151610120806080850152611e54610140850183611d57565b91506080850151601f19808685030160a0870152611e728483611d57565b935060a08701519150611e9060c08701836001600160401b03169052565b60c08701519150808685030160e0870152611eab8483611d57565b935060e08701519150610100818786030181880152611eca8584611d57565b908801518782039092018488015293509050611ee68382611d57565b9695505050505050565b600060208284031215611f0257600080fd5b81356001600160401b03811115611f1857600080fd5b611d1084828501611a67565b600081518084526020808501945080840160005b83811015611cc857815160ff191687529582019590820190600101611f38565b602081526000611c8c6020830184611f24565b6020808252825182820181905260009190848201906040850190845b81811015611fa857835161ffff191683529284019291840191600101611f87565b50909695505050505050565b80356001600160601b031981168114611bc257600080fd5b80356001600160401b0381168114611bc257600080fd5b6000806000806000806000806000806101408b8d03121561200357600080fd5b61200c8b611fb4565b995061201a60208c01611fb4565b985060408b01356001600160401b038082111561203657600080fd5b6120428e838f01611a67565b995060608d013591508082111561205857600080fd5b6120648e838f01611a67565b985061207260808e01611fcc565b975060a08d013591508082111561208857600080fd5b6120948e838f01611a67565b965060c08d01359150808211156120aa57600080fd5b6120b68e838f01611a67565b955060e08d01359150808211156120cc57600080fd5b6120d88e838f01611a67565b94506101008d01359150808211156120ef57600080fd5b6120fb8e838f01611a67565b93506101208d013591508082111561211257600080fd5b5061211f8d828e01611a67565b9150509295989b9194979a5092959850565b60006001600160401b0382111561214a5761214a6119f8565b5060051b60200190565b6000806040838503121561216757600080fd5b82356001600160401b038082111561217e57600080fd5b818501915085601f83011261219257600080fd5b813560206121a76121a283612131565b611a37565b82815260059290921b840181019181810190898411156121c657600080fd5b948201945b838610156121eb576121dc86611c5f565b825294820194908201906121cb565b9650508601359250508082111561220157600080fd5b5061220e85828601611a67565b9150509250929050565b60008060008060008060c0878903121561223157600080fd5b86356001600160401b038082111561224857600080fd5b6122548a838b01611a67565b975061226260208a01611fb4565b9650604089013591508082111561227857600080fd5b6122848a838b01611a67565b9550606089013591508082111561229a57600080fd5b6122a68a838b01611a67565b9450611b7f60808a01611fcc565b600082601f8301126122c557600080fd5b813560206122d56121a283612131565b82815260059290921b840181019181810190868411156122f457600080fd5b8286015b848110156123165761230981611baf565b83529183019183016122f8565b509695505050505050565b60008060006060848603121561233657600080fd5b83356001600160401b038082111561234d57600080fd5b612359878388016122b4565b9450602086013591508082111561236f57600080fd5b5061237c86828701611a67565b92505061238b60408501611fb4565b90509250925092565b600080600080600060a086880312156123ac57600080fd5b85356001600160401b03808211156123c357600080fd5b90870190610120828a0312156123d857600080fd5b6123e0611a0e565b6123e983611baf565b81526123f760208401611fb4565b602082015261240860408401611fb4565b604082015260608301358281111561241f57600080fd5b61242b8b828601611a67565b60608301525060808301358281111561244357600080fd5b61244f8b828601611a67565b60808301525061246160a08401611fcc565b60a082015260c08301358281111561247857600080fd5b6124848b828601611a67565b60c08301525060e08301358281111561249c57600080fd5b6124a88b828601611a67565b60e08301525061010080840135838111156124c257600080fd5b6124ce8c828701611a67565b8284015250508097505060208801359150808211156124ec57600080fd5b6124f889838a01611a67565b9550604088013591508082111561250e57600080fd5b61251a89838a01611a67565b945060608801359350608088013591508082111561253757600080fd5b5061254488828901611a67565b9150509295509295909350565b600080600080600060a0868803121561256957600080fd5b61257286611baf565b945060208601356001600160401b038082111561258e57600080fd5b61259a89838a016122b4565b955060408801359150808211156125b057600080fd5b6125bc89838a01611a67565b945060608801359150808211156125d257600080fd5b6125de89838a01611a67565b9350608088013591508082111561253757600080fd5b6020808252825182820181905260009190848201906040850190845b81811015611fa857835183529284019291840191600101612610565b60006020828403121561263e57600080fd5b5035919050565b602081528151602082015260006020830151604080840152611d106060840182611f24565b6020815261ffff19825116602082015260006020830151606060408401526126956080840182611d57565b90506040840151601f19848303016060850152611de58282611d57565b602081526000611c8c6020830184611d57565b6000602082840312156126d757600080fd5b81518015158114611c8c57600080fd5b6020808252601190820152705065726d697373616f206e65676164612160781b604082015260600190565b60c08152600061272560c0830189611d57565b82810360208401526127378189611d57565b905086604084015282810360608401526127518187611d57565b905082810360808401526127658186611d57565b905082810360a08401526127798185611d57565b9998505050505050505050565b600181811c9082168061279a57607f821691505b6020821081036127ba57634e487b7160e01b600052602260045260246000fd5b50919050565b601f82111561280a57600081815260208120601f850160051c810160208610156127e75750805b601f850160051c820191505b81811015612806578281556001016127f3565b5050505b505050565b81516001600160401b03811115612828576128286119f8565b61283c816128368454612786565b846127c0565b602080601f83116001811461287157600084156128595750858301515b600019600386901b1c1916600185901b178555612806565b600085815260208120601f198616915b828110156128a057888601518255948401946001909101908401612881565b50858210156128be5787850151600019600388901b60f8161c191681555b5050505050600190811b01905550565b600082516128e0818460208701611d33565b9190910192915050565b6001600160601b0319831681526000825161290c816014850160208701611d33565b919091016014019392505050565b8051602082015161ffff19808216929190601e83101561294457808184601e0360031b1b83161693505b505050919050565b815160009082906020808601845b8381101561297a57815160ff19168552938201939082019060010161295a565b50929695505050505050565b60008751612998818460208c01611d33565b6001600160601b0319881690830190815286516129bc816014840160208b01611d33565b86519101906129d2816014840160208a01611d33565b60c086901b6001600160c01b0319166014929091019182015283516129fe81601c840160208801611d33565b01601c0198975050505050505050565b634e487b7160e01b600052601160045260246000fd5b600061ffff808316818103612a3b57612a3b612a0e565b6001019392505050565b60008351612a57818460208801611d33565b60f09390931b6001600160f01b0319169190920190815260020192915050565b8051602082015160ff19808216929190601f83101561294457601f9290920360031b82901b161692915050565b6001600160601b03198416815260008351612ac6816014850160208801611d33565b835190830190612add816014840160208801611d33565b0160140195945050505050565b634e487b7160e01b600052603260045260246000fd5b600060018201612b1257612b12612a0e565b506001019056fea2646970667358221220562581da41b2abbeb6a94121f0549ade30fefd0ff479ec21e7cd71bf5c1a4c8e64736f6c63430008110033",
  "immutableReferences": {},
  "source": "// SPDX-License-Identifier: MIT\r\npragma solidity ^0.8.17;\r\nimport \"./Authentication.sol\";\r\nimport \"./UpdateTr.sol\";\r\n\r\nstruct Feedstock {\r\n    bytes30 id;\r\n    string distributorId;\r\n    string dateTime;\r\n}\r\n\r\nstruct FeedstockContainer {\r\n    bytes32 id;\r\n    bytes30[] feedstockIds;\r\n    string distributorId;\r\n    string dateTime;\r\n}\r\n\r\nstruct Honey {\r\n    bytes30 id;\r\n    bytes20 batch;\r\n    bytes20 feedstockBatch;\r\n    string honeyType;\r\n    string variety;\r\n    uint64 weight;\r\n    string packaging;\r\n    string validity;\r\n    string composition;\r\n}\r\n\r\nstruct Box {\r\n    bytes31 id;\r\n    bytes20 batch;\r\n    bytes30[] honeyId;\r\n}\r\n\r\nstruct Pallet {\r\n    bytes32 id;\r\n    bytes31[] boxId;\r\n}\r\n\r\ncontract Processing {\r\n    // Variaveis de estado\r\n    mapping(bytes32 => Feedstock) feedstocks; // endereco => (codigo => carregamento). lista de materia prima recebida por cada processador de mel.\r\n    mapping(string => bytes32[]) feedstocksId;\r\n\r\n    mapping(bytes30 => FeedstockContainer) feedstockContainers; // endereco => (codigo => carregamento). lista de materia prima recebida por cada processador de mel.\r\n    mapping(string => bytes30[]) feedstockContainersId;\r\n\r\n    mapping(bytes32 => Honey) honeys; // endereco => (codigo => Honey). Lista de produtos fabricados por cada processador de mel.\r\n    mapping(string => bytes30[]) honeysId;\r\n    mapping(string => bytes20[]) honeysBatch;\r\n    mapping(string => uint16) count;\r\n\r\n    mapping(bytes31 => Box) boxes; // endereco => (codigo => Container). Lista de conteiners(caixa ou palete) montados por cada processador de mel.\r\n    mapping(string => bytes31[]) boxesId;\r\n\r\n    mapping(bytes32 => Pallet) pallets; // endereco => (codigo => Container). Lista de conteiners(caixa ou palete) montados por cada processador de mel.\r\n    mapping(string => bytes32[]) palletsId;\r\n    mapping(string => bytes20[]) palletsBatch;\r\n\r\n    address contractAuthentication;\r\n    Authentication instanceAuthentication;\r\n    address contractUpdateTr;\r\n    UpdateTr instanceUpdateTr;\r\n\r\n    constructor(address _contractAuthentication, address _contractUpdateTr) {\r\n        contractAuthentication = _contractAuthentication;\r\n        instanceAuthentication = Authentication(contractAuthentication);\r\n        contractUpdateTr = _contractUpdateTr;\r\n        instanceUpdateTr = UpdateTr(contractUpdateTr);\r\n    }\r\n\r\n    //Verifica se o endereo que esta chamando o contrato possui permisao para modificar o estado da rede\r\n    modifier onlyOWNER(string memory _id) {\r\n        require(\r\n            instanceAuthentication.activeUser(_id) == true,\r\n            \"Permissao negada!\"\r\n        );\r\n        _;\r\n    }\r\n\r\n    // Funes relacionadas ao mel recebido pelos processadores\r\n    function regiterFeedstock(\r\n        bytes30 _id,\r\n        string memory _distributorId,\r\n        string memory _date,\r\n        string memory _userId\r\n    ) public onlyOWNER(_userId) {\r\n        feedstocks[_id] = Feedstock(_id, _distributorId, _date);\r\n        feedstocksId[_userId].push(_id);\r\n    }\r\n\r\n    // Funcoes GET\r\n    function getFeedstock(bytes32 _id) public view returns (Feedstock memory) {\r\n        return feedstocks[_id];\r\n    }\r\n\r\n    function getFeedstockId(\r\n        string memory _userId\r\n    ) public view returns (bytes32[] memory) {\r\n        return feedstocksId[_userId];\r\n    }\r\n\r\n    function regiterFeedstockContainer(\r\n        bytes30 _id,\r\n        bytes30[] memory _feedstockIds,\r\n        string memory _distributorId,\r\n        string memory _date,\r\n        string memory _userId\r\n    ) public onlyOWNER(_userId) {\r\n        feedstockContainers[_id] = FeedstockContainer(\r\n            _id,\r\n            _feedstockIds,\r\n            _distributorId,\r\n            _date\r\n        );\r\n        feedstockContainersId[_userId].push(_id);\r\n    }\r\n\r\n    // Funcoes GET\r\n    function getFeedstockContainer(\r\n        bytes30 _id\r\n    ) public view returns (FeedstockContainer memory) {\r\n        return feedstockContainers[_id];\r\n    }\r\n\r\n    function getFeedstockContainerId(\r\n        string memory _userId\r\n    ) public view returns (bytes30[] memory) {\r\n        return feedstockContainersId[_userId];\r\n    }\r\n\r\n    // Funes relacionadas ao mel beneficiado produzido pelos processadores\r\n\r\n    function generateBatch(\r\n        string memory _userId,\r\n        bytes20 _feedstockBatch,\r\n        string memory _honeyType,\r\n        string memory _variety,\r\n        uint64 _weight,\r\n        string memory _date\r\n    ) public returns (bytes20) {\r\n        bytes20 _batch = ripemd160(\r\n            abi.encodePacked(\r\n                _userId,\r\n                _feedstockBatch,\r\n                _honeyType,\r\n                _variety,\r\n                _weight,\r\n                _date\r\n            )\r\n        );\r\n\r\n        honeysBatch[_userId].push(_batch);\r\n        return _batch;\r\n    }\r\n\r\n    function newHoney(\r\n        bytes20 _batch,\r\n        bytes20 _feedstockBatch,\r\n        string memory _honeyType,\r\n        string memory _variety,\r\n        uint64 _weight,\r\n        string memory _pacaging,\r\n        string memory _validity,\r\n        string memory _composition,\r\n        string memory _dateTime,\r\n        string memory _userId\r\n    ) public onlyOWNER(_userId) returns (bytes30) {\r\n        bytes30 _id = bytes30(abi.encodePacked(_batch, _dateTime));\r\n        honeys[_id] = Honey(\r\n            _id,\r\n            _batch,\r\n            _feedstockBatch,\r\n            _honeyType,\r\n            _variety,\r\n            _weight,\r\n            _pacaging,\r\n            _validity,\r\n            _composition\r\n        );\r\n        honeysId[_userId].push(_id);\r\n        return _id;\r\n    }\r\n\r\n    // bytes20 _feedstockBatch,\r\n    // string memory _honeyType,\r\n    // string memory _variety,\r\n    // uint64 _weight,\r\n    // string memory _packaging,\r\n    // string memory _validity,\r\n    // string memory _composition,\r\n    // string memory _date,\r\n    // string memory _time,\r\n    function newHoneys(\r\n        Honey memory _honey,\r\n        string memory _date,\r\n        string memory _time,\r\n        uint _amount,\r\n        string memory _userId\r\n    ) public onlyOWNER(_userId) returns (bytes30[] memory id) {\r\n        bytes20 _batch = generateBatch(\r\n            _userId,\r\n            _honey.feedstockBatch,\r\n            _honey.honeyType,\r\n            _honey.variety,\r\n            _honey.weight,\r\n            _date\r\n        );\r\n\r\n        for (uint256 index = 0; index < _amount; index++) {\r\n            bytes30 _id = bytes30(abi.encodePacked(_batch, _date, _time));\r\n            honeys[_id] = Honey(\r\n                _id,\r\n                _batch,\r\n                _honey.feedstockBatch,\r\n                _honey.honeyType,\r\n                _honey.variety,\r\n                _honey.weight,\r\n                _honey.packaging,\r\n                _honey.validity,\r\n                _honey.composition\r\n            );\r\n            honeysId[_userId].push(_id);\r\n            id[index] = bytes30(_id);\r\n        }\r\n        return id;\r\n    }\r\n\r\n    function getHoney(bytes30 _id) public view returns (Honey memory) {\r\n        return honeys[_id];\r\n    }\r\n\r\n    function getHoneyId(\r\n        string memory _userId\r\n    ) public view returns (bytes30[] memory) {\r\n        return honeysId[_userId];\r\n    }\r\n\r\n    // Funes relacionadas aos containeres de mel produzidos pelos processadores\r\n    function newBox(\r\n        bytes30[] memory _honeyId,\r\n        string memory _userId,\r\n        bytes20 _batch\r\n    ) public onlyOWNER(_userId) returns (bytes32) {\r\n        //bytes32 _id = bytes32(keccak256(abi.encodePacked(_honeyId)));\r\n        count[_userId]++;\r\n        bytes31 _id = bytes31(abi.encodePacked(_userId, count[_userId]));\r\n        boxes[_id] = Box(_id, _batch, _honeyId);\r\n        boxesId[_userId].push(_id);\r\n        return _id;\r\n    }\r\n\r\n    function getBox(bytes31 _id) public view returns (Box memory) {\r\n        return boxes[_id];\r\n    }\r\n\r\n    function getBoxId(\r\n        string memory _userId\r\n    ) public view returns (bytes31[] memory) {\r\n        return boxesId[_userId];\r\n    }\r\n\r\n    function newPallet(\r\n        bytes31[] memory _boxId,\r\n        string memory _userId\r\n    ) public onlyOWNER(_userId) returns (bytes32) {\r\n        bytes32 _id = keccak256(abi.encodePacked(_boxId));\r\n        pallets[_id] = Pallet(_id, _boxId);\r\n        palletsId[_userId].push(_id);\r\n        return _id;\r\n    }\r\n\r\n    // Fones GET\r\n    function getPallet(bytes32 _id) public view returns (Pallet memory) {\r\n        return pallets[_id];\r\n    }\r\n\r\n    function getPalletId(\r\n        string memory _userId\r\n    ) public view returns (bytes32[] memory) {\r\n        return palletsId[_userId];\r\n    }\r\n\r\n    //Funo para registrar a tranzao de um produto\r\n    function forwarding(\r\n        string memory _sender,\r\n        string memory _receiver,\r\n        bytes32 _unitId,\r\n        string memory _date,\r\n        string memory _businessUnitType,\r\n        bytes memory _signature\r\n    ) public onlyOWNER(_receiver) {\r\n        //chamar funcao updateTr no contrato UpdateTr\r\n        instanceUpdateTr.updateTr(\r\n            _sender,\r\n            _receiver,\r\n            _unitId,\r\n            _date,\r\n            _businessUnitType,\r\n            _signature\r\n        );\r\n    }\r\n}\r\n",
  "sourcePath": "C:\\Users\\samue\\Documents\\Workspace_react\\BlockForBees\\backend_blockcahin\\contracts\\Processing.sol",
  "compiler": {
    "name": "solc",
    "version": "0.8.17+commit.8df45f5f.Emscripten.clang"
  },
  "schemaVersion": "3.4.11",
  "updatedAt": "2023-04-25T01:20:18.730Z",
  "devdoc": {
    "kind": "dev",
    "methods": {},
    "version": 1
  },
  "userdoc": {
    "kind": "user",
    "methods": {},
    "version": 1
  }
}