{
  "contractName": "Production",
  "abi": [
    {
      "inputs": [
        {
          "internalType": "address",
          "name": "_contractAuthentication",
          "type": "address"
        },
        {
          "internalType": "address",
          "name": "_contractUpdateTr",
          "type": "address"
        }
      ],
      "stateMutability": "nonpayable",
      "type": "constructor"
    },
    {
      "anonymous": false,
      "inputs": [
        {
          "indexed": true,
          "internalType": "address",
          "name": "addr",
          "type": "address"
        },
        {
          "indexed": false,
          "internalType": "uint256",
          "name": "hiveId",
          "type": "uint256"
        },
        {
          "indexed": false,
          "internalType": "uint256",
          "name": "dateCollect",
          "type": "uint256"
        },
        {
          "indexed": false,
          "internalType": "int256",
          "name": "peso",
          "type": "int256"
        }
      ],
      "name": "Collect",
      "type": "event"
    },
    {
      "anonymous": false,
      "inputs": [
        {
          "indexed": true,
          "internalType": "address",
          "name": "addr",
          "type": "address"
        },
        {
          "components": [
            {
              "internalType": "uint256",
              "name": "hiveId",
              "type": "uint256"
            },
            {
              "internalType": "uint16",
              "name": "weightHoney",
              "type": "uint16"
            },
            {
              "internalType": "string",
              "name": "dateCollect",
              "type": "string"
            }
          ],
          "indexed": true,
          "internalType": "struct Hive[]",
          "name": "hives",
          "type": "tuple[]"
        }
      ],
      "name": "UpdateHive",
      "type": "event"
    },
    {
      "inputs": [
        {
          "internalType": "address",
          "name": "_addr",
          "type": "address"
        },
        {
          "components": [
            {
              "internalType": "uint256",
              "name": "hiveId",
              "type": "uint256"
            },
            {
              "internalType": "uint16",
              "name": "weightHoney",
              "type": "uint16"
            },
            {
              "internalType": "string",
              "name": "dateCollect",
              "type": "string"
            }
          ],
          "internalType": "struct Hive[]",
          "name": "_hives",
          "type": "tuple[]"
        }
      ],
      "name": "updateHive",
      "outputs": [],
      "stateMutability": "nonpayable",
      "type": "function"
    },
    {
      "inputs": [
        {
          "internalType": "address",
          "name": "_addr",
          "type": "address"
        },
        {
          "internalType": "string",
          "name": "_apiary",
          "type": "string"
        },
        {
          "internalType": "string",
          "name": "_flowering",
          "type": "string"
        },
        {
          "internalType": "string",
          "name": "_date",
          "type": "string"
        }
      ],
      "name": "generateBatch",
      "outputs": [
        {
          "internalType": "bytes20",
          "name": "",
          "type": "bytes20"
        }
      ],
      "stateMutability": "nonpayable",
      "type": "function"
    },
    {
      "inputs": [
        {
          "internalType": "address",
          "name": "_addr",
          "type": "address"
        },
        {
          "internalType": "bytes20",
          "name": "_batch",
          "type": "bytes20"
        },
        {
          "internalType": "string",
          "name": "_apiary",
          "type": "string"
        },
        {
          "internalType": "uint64",
          "name": "_weight",
          "type": "uint64"
        },
        {
          "internalType": "string",
          "name": "_packing",
          "type": "string"
        },
        {
          "internalType": "string",
          "name": "_flowering",
          "type": "string"
        },
        {
          "internalType": "string",
          "name": "_dateTime",
          "type": "string"
        },
        {
          "internalType": "uint256[]",
          "name": "_hivesId",
          "type": "uint256[]"
        }
      ],
      "name": "newTun",
      "outputs": [
        {
          "internalType": "bytes30",
          "name": "",
          "type": "bytes30"
        }
      ],
      "stateMutability": "nonpayable",
      "type": "function"
    },
    {
      "inputs": [
        {
          "internalType": "bytes30",
          "name": "_id",
          "type": "bytes30"
        }
      ],
      "name": "getTun",
      "outputs": [
        {
          "components": [
            {
              "internalType": "bytes30",
              "name": "id",
              "type": "bytes30"
            },
            {
              "internalType": "bytes20",
              "name": "batch",
              "type": "bytes20"
            },
            {
              "internalType": "address",
              "name": "productorId",
              "type": "address"
            },
            {
              "internalType": "string",
              "name": "apiary",
              "type": "string"
            },
            {
              "internalType": "uint64",
              "name": "weight",
              "type": "uint64"
            },
            {
              "internalType": "string",
              "name": "packing",
              "type": "string"
            },
            {
              "internalType": "string",
              "name": "flowering",
              "type": "string"
            },
            {
              "internalType": "string",
              "name": "date",
              "type": "string"
            },
            {
              "internalType": "uint256[]",
              "name": "hivesId",
              "type": "uint256[]"
            }
          ],
          "internalType": "struct Tun",
          "name": "",
          "type": "tuple"
        }
      ],
      "stateMutability": "view",
      "type": "function"
    },
    {
      "inputs": [
        {
          "internalType": "address",
          "name": "_addr",
          "type": "address"
        }
      ],
      "name": "getTunId",
      "outputs": [
        {
          "internalType": "bytes30[]",
          "name": "",
          "type": "bytes30[]"
        }
      ],
      "stateMutability": "view",
      "type": "function"
    },
    {
      "inputs": [
        {
          "internalType": "address",
          "name": "_addr",
          "type": "address"
        },
        {
          "internalType": "bytes20",
          "name": "_batch",
          "type": "bytes20"
        },
        {
          "internalType": "bytes30[]",
          "name": "_tunId",
          "type": "bytes30[]"
        }
      ],
      "name": "newContainer",
      "outputs": [
        {
          "internalType": "bytes32",
          "name": "",
          "type": "bytes32"
        }
      ],
      "stateMutability": "nonpayable",
      "type": "function"
    },
    {
      "inputs": [
        {
          "internalType": "bytes32",
          "name": "_id",
          "type": "bytes32"
        }
      ],
      "name": "getContainer",
      "outputs": [
        {
          "components": [
            {
              "internalType": "bytes32",
              "name": "id",
              "type": "bytes32"
            },
            {
              "internalType": "bytes20",
              "name": "batch",
              "type": "bytes20"
            },
            {
              "internalType": "bytes30[]",
              "name": "tunId",
              "type": "bytes30[]"
            }
          ],
          "internalType": "struct Container",
          "name": "",
          "type": "tuple"
        }
      ],
      "stateMutability": "view",
      "type": "function"
    },
    {
      "inputs": [
        {
          "internalType": "address",
          "name": "_addr",
          "type": "address"
        }
      ],
      "name": "getContainersId",
      "outputs": [
        {
          "internalType": "bytes32[]",
          "name": "",
          "type": "bytes32[]"
        }
      ],
      "stateMutability": "view",
      "type": "function"
    },
    {
      "inputs": [
        {
          "internalType": "address",
          "name": "_sender",
          "type": "address"
        },
        {
          "internalType": "address",
          "name": "_receiver",
          "type": "address"
        },
        {
          "internalType": "bytes32",
          "name": "_unitId",
          "type": "bytes32"
        },
        {
          "internalType": "string",
          "name": "_date",
          "type": "string"
        },
        {
          "internalType": "string",
          "name": "_businessUnitType",
          "type": "string"
        },
        {
          "internalType": "bytes",
          "name": "_signature",
          "type": "bytes"
        }
      ],
      "name": "forwarding",
      "outputs": [],
      "stateMutability": "nonpayable",
      "type": "function"
    }
  ],
  "bytecode": "0x60806040523480156200001157600080fd5b5060405162001c9138038062001c9183398101604081905262000034916200009d565b600780546001600160a01b039384166001600160a01b0319918216811790925560088054821690921790915560098054929093169181168217909255600a8054909216179055620000d5565b80516001600160a01b03811681146200009857600080fd5b919050565b60008060408385031215620000b157600080fd5b620000bc8362000080565b9150620000cc6020840162000080565b90509250929050565b611bac80620000e56000396000f3fe608060405234801561001057600080fd5b50600436106100935760003560e01c80634da29659116100665780634da29659146101165780635a91d36e1461013757806361693bc4146101635780637dfc06dd14610176578063fef438f11461019d57600080fd5b80630922b162146100985780630fb0e9d7146100c157806319522c85146100e1578063449c6bf914610101575b600080fd5b6100ab6100a6366004610f28565b6101bd565b6040516100b89190610fd5565b60405180910390f35b6100d46100cf3660046110d5565b61054a565b6040516100b891906110ee565b6100f46100ef366004611178565b6105f8565b6040516100b89190611193565b61011461010f3660046112df565b610664565b005b610129610124366004611418565b61074a565b6040519081526020016100b8565b61014a6101453660046114d2565b6108f0565b6040516001600160601b031990911681526020016100b8565b61011461017136600461156a565b610a2e565b6101896101843660046116a1565b610b31565b60405161ffff1990911681526020016100b8565b6101b06101ab366004611178565b610dec565b6040516100b891906117a4565b61022d604051806101200160405280600061ffff1916815260200160006001600160601b031916815260200160006001600160a01b031681526020016060815260200160006001600160401b03168152602001606081526020016060815260200160608152602001606081525090565b61ffff19808316600090815260026020818152604092839020835161012081018552815460101b909516855260018101546001600160601b0319606091821b1692860192909252918201546001600160a01b031692840192909252600381018054919284019161029c906117e1565b80601f01602080910402602001604051908101604052809291908181526020018280546102c8906117e1565b80156103155780601f106102ea57610100808354040283529160200191610315565b820191906000526020600020905b8154815290600101906020018083116102f857829003601f168201915b505050918352505060048201546001600160401b03166020820152600582018054604090920191610345906117e1565b80601f0160208091040260200160405190810160405280929190818152602001828054610371906117e1565b80156103be5780601f10610393576101008083540402835291602001916103be565b820191906000526020600020905b8154815290600101906020018083116103a157829003601f168201915b505050505081526020016006820180546103d7906117e1565b80601f0160208091040260200160405190810160405280929190818152602001828054610403906117e1565b80156104505780601f1061042557610100808354040283529160200191610450565b820191906000526020600020905b81548152906001019060200180831161043357829003601f168201915b50505050508152602001600782018054610469906117e1565b80601f0160208091040260200160405190810160405280929190818152602001828054610495906117e1565b80156104e25780601f106104b7576101008083540402835291602001916104e2565b820191906000526020600020905b8154815290600101906020018083116104c557829003601f168201915b505050505081526020016008820180548060200260200160405190810160405280929190818152602001828054801561053a57602002820191906000526020600020905b815481526020019060010190808311610526575b5050505050815250509050919050565b60408051606080820183526000808352602080840182905283850183905285825260058152908490208451808401865281548152600182015490931b6001600160601b03191683830152600281018054865181850281018501885281815295969495929486019383018282801561053a57602002820191906000526020600020905b815460101b61ffff191681526001909101906020018083116105cc575050505050815250509050919050565b6001600160a01b03811660009081526006602090815260409182902080548351818402810184019094528084526060939283018282801561065857602002820191906000526020600020905b815481526020019060010190808311610644575b50505050509050919050565b600854604051630152113160e31b81526001600160a01b03808516600483015284921690630a90898890602401602060405180830381865afa1580156106ae573d6000803e3d6000fd5b505050506040513d601f19601f820116820180604052508101906106d2919061181b565b15156001146106fc5760405162461bcd60e51b81526004016106f39061183d565b60405180910390fd5b8160405161070a9190611868565b604051908190038120906001600160a01b038516907ff220244681357730c55069e4f768b22a36495e174d0dad1d4aea21a9722cb9ff90600090a3505050565b600854604051630152113160e31b81526001600160a01b0380861660048301526000928692911690630a90898890602401602060405180830381865afa158015610798573d6000803e3d6000fd5b505050506040513d601f19601f820116820180604052508101906107bc919061181b565b15156001146107dd5760405162461bcd60e51b81526004016106f39061183d565b6000836040516020016107f091906118d1565b60408051601f1981840301815282825280516020918201206001600160601b031960608b901b16918401919091526001600160a01b03198116603484015292506000910160405160208183030381529060405261084c90611900565b60408051606080820183528382526001600160601b03198a1660208084019182528385018b8152600087815260058352959095208451815591516001830180546001600160a01b0319169190941c179092559251805194955091936108b79260028501920190610e60565b5050506001600160a01b038716600090815260066020908152604082208054600181018255908352912001819055925050509392505050565b600854604051630152113160e31b81526001600160a01b0380871660048301526000928792911690630a90898890602401602060405180830381865afa15801561093e573d6000803e3d6000fd5b505050506040513d601f19601f82011682018060405250810190610962919061181b565b15156001146109835760405162461bcd60e51b81526004016106f39061183d565b600060038787878760405160200161099e9493929190611924565b60408051601f19818403018152908290526109b891611984565b602060405180830381855afa1580156109d5573d6000803e3d6000fd5b505060408051516001600160a01b03998a16600090815260046020908152928120805460018101825590825292902090910180546001600160a01b0319169982169990991790985550505060609490941b949350505050565b600854604051630152113160e31b81523360048201819052916001600160a01b031690630a90898890602401602060405180830381865afa158015610a77573d6000803e3d6000fd5b505050506040513d601f19601f82011682018060405250810190610a9b919061181b565b1515600114610abc5760405162461bcd60e51b81526004016106f39061183d565b600a54604051631519203360e01b81526001600160a01b0390911690631519203390610af6908a908a908a908a908a908a906004016119a0565b600060405180830381600087803b158015610b1057600080fd5b505af1158015610b24573d6000803e3d6000fd5b5050505050505050505050565b600854604051630152113160e31b81526001600160a01b03808b1660048301526000928b92911690630a90898890602401602060405180830381865afa158015610b7f573d6000803e3d6000fd5b505050506040513d601f19601f82011682018060405250810190610ba3919061181b565b1515600114610bc45760405162461bcd60e51b81526004016106f39061183d565b60008985604051602001610bd9929190611a06565b604051602081830303815290604052610bf190611a36565b90506040518061012001604052808261ffff191681526020018b6001600160601b03191681526020018c6001600160a01b031681526020018a8152602001896001600160401b0316815260200188815260200187815260200186815260200185815250600260008361ffff191661ffff1916815260200190815260200160002060008201518160000160006101000a8154816001600160f01b03021916908360101c021790555060208201518160010160006101000a8154816001600160a01b03021916908360601c021790555060408201518160020160006101000a8154816001600160a01b0302191690836001600160a01b031602179055506060820151816003019081610d019190611ab7565b50608082015160048201805467ffffffffffffffff19166001600160401b0390921691909117905560a08201516005820190610d3d9082611ab7565b5060c08201516006820190610d529082611ab7565b5060e08201516007820190610d679082611ab7565b506101008201518051610d84916008840191602090910190610ec0565b5050506001600160a01b039a909a16600090815260036020908152604080832080546001810182559084528284200180546001600160f01b03191660108f811c9190911790915561ffff19909d168352600290915290205490991b9998505050505050505050565b6001600160a01b03811660009081526003602090815260409182902080548351818402810184019094528084526060939283018282801561065857602002820191906000526020600020905b815460101b61ffff19168152600190910190602001808311610e385750505050509050919050565b828054828255906000526020600020908101928215610eb0579160200282015b82811115610eb057825182546001600160f01b03191660109190911c178255602090920191600190910190610e80565b50610ebc929150610efb565b5090565b828054828255906000526020600020908101928215610eb0579160200282015b82811115610eb0578251825591602001919060010190610ee0565b5b80821115610ebc5760008155600101610efc565b803561ffff1981168114610f2357600080fd5b919050565b600060208284031215610f3a57600080fd5b610f4382610f10565b9392505050565b60005b83811015610f65578181015183820152602001610f4d565b50506000910152565b60008151808452610f86816020860160208601610f4a565b601f01601f19169290920160200192915050565b600081518084526020808501945080840160005b83811015610fca57815187529582019590820190600101610fae565b509495945050505050565b60208152610feb60208201835161ffff19169052565b6000602083015161100860408401826001600160601b0319169052565b5060408301516001600160a01b038116606084015250606083015161012080608085015261103a610140850183610f6e565b9150608085015161105660a08601826001600160401b03169052565b5060a0850151601f19808685030160c08701526110738483610f6e565b935060c08701519150808685030160e08701526110908483610f6e565b935060e087015191506101008187860301818801526110af8584610f6e565b9088015187820390920184880152935090506110cb8382610f9a565b9695505050505050565b6000602082840312156110e757600080fd5b5035919050565b6020808252825182820152828101516001600160601b03191660408084019190915283015160608084015280516080840181905260009291820190839060a08601905b8083101561115657835161ffff19168252928401926001929092019190840190611131565b509695505050505050565b80356001600160a01b0381168114610f2357600080fd5b60006020828403121561118a57600080fd5b610f4382611161565b6020808252825182820181905260009190848201906040850190845b818110156111cb578351835292840192918401916001016111af565b50909695505050505050565b634e487b7160e01b600052604160045260246000fd5b604051606081016001600160401b038111828210171561120f5761120f6111d7565b60405290565b604051601f8201601f191681016001600160401b038111828210171561123d5761123d6111d7565b604052919050565b60006001600160401b0382111561125e5761125e6111d7565b5060051b60200190565b60006001600160401b03831115611281576112816111d7565b611294601f8401601f1916602001611215565b90508281528383830111156112a857600080fd5b828260208301376000602084830101529392505050565b600082601f8301126112d057600080fd5b610f4383833560208501611268565b600080604083850312156112f257600080fd5b6112fb83611161565b91506020808401356001600160401b038082111561131857600080fd5b818601915086601f83011261132c57600080fd5b813561133f61133a82611245565b611215565b81815260059190911b8301840190848101908983111561135e57600080fd5b8585015b838110156113ef5780358581111561137a5760008081fd5b86016060818d03601f19018113156113925760008081fd5b61139a6111ed565b898301358152604083013561ffff811681146113b65760008081fd5b818b01529082013590878211156113cd5760008081fd5b6113db8e8b848601016112bf565b604082015285525050918601918601611362565b508096505050505050509250929050565b80356001600160601b031981168114610f2357600080fd5b60008060006060848603121561142d57600080fd5b61143684611161565b92506020611445818601611400565b925060408501356001600160401b0381111561146057600080fd5b8501601f8101871361147157600080fd5b803561147f61133a82611245565b81815260059190911b8201830190838101908983111561149e57600080fd5b928401925b828410156114c3576114b484610f10565b825292840192908401906114a3565b80955050505050509250925092565b600080600080608085870312156114e857600080fd5b6114f185611161565b935060208501356001600160401b038082111561150d57600080fd5b611519888389016112bf565b9450604087013591508082111561152f57600080fd5b61153b888389016112bf565b9350606087013591508082111561155157600080fd5b5061155e878288016112bf565b91505092959194509250565b60008060008060008060c0878903121561158357600080fd5b61158c87611161565b955061159a60208801611161565b94506040870135935060608701356001600160401b03808211156115bd57600080fd5b6115c98a838b016112bf565b945060808901359150808211156115df57600080fd5b6115eb8a838b016112bf565b935060a089013591508082111561160157600080fd5b508701601f8101891361161357600080fd5b61162289823560208401611268565b9150509295509295509295565b80356001600160401b0381168114610f2357600080fd5b600082601f83011261165757600080fd5b8135602061166761133a83611245565b82815260059290921b8401810191818101908684111561168657600080fd5b8286015b84811015611156578035835291830191830161168a565b600080600080600080600080610100898b0312156116be57600080fd5b6116c789611161565b97506116d560208a01611400565b965060408901356001600160401b03808211156116f157600080fd5b6116fd8c838d016112bf565b975061170b60608c0161162f565b965060808b013591508082111561172157600080fd5b61172d8c838d016112bf565b955060a08b013591508082111561174357600080fd5b61174f8c838d016112bf565b945060c08b013591508082111561176557600080fd5b6117718c838d016112bf565b935060e08b013591508082111561178757600080fd5b506117948b828c01611646565b9150509295985092959890939650565b6020808252825182820181905260009190848201906040850190845b818110156111cb57835161ffff1916835292840192918401916001016117c0565b600181811c908216806117f557607f821691505b60208210810361181557634e487b7160e01b600052602260045260246000fd5b50919050565b60006020828403121561182d57600080fd5b81518015158114610f4357600080fd5b6020808252601190820152705065726d697373616f206e65676164612160781b604082015260600190565b815160009082906020808601845b838110156118c55781518051865261ffff848201511684870152604080820151915081516118a981838a01888601610f4a565b601f01601f191696909601909501945090820190600101611876565b50929695505050505050565b815160009082906020808601845b838110156118c557815161ffff1916855293820193908201906001016118df565b805160208083015191908110156118155760001960209190910360031b1b16919050565b6001600160601b03198560601b16815260008451611949816014850160208901610f4a565b845190830190611960816014840160208901610f4a565b8451910190611976816014840160208801610f4a565b016014019695505050505050565b60008251611996818460208701610f4a565b9190910192915050565b6001600160a01b038781168252861660208201526040810185905260c0606082018190526000906119d390830186610f6e565b82810360808401526119e58186610f6e565b905082810360a08401526119f98185610f6e565b9998505050505050505050565b6001600160601b03198316815260008251611a28816014850160208701610f4a565b919091016014019392505050565b8051602082015161ffff19808216929190601e831015611a6057808184601e0360031b1b83161693505b505050919050565b601f821115611ab257600081815260208120601f850160051c81016020861015611a8f5750805b601f850160051c820191505b81811015611aae57828155600101611a9b565b5050505b505050565b81516001600160401b03811115611ad057611ad06111d7565b611ae481611ade84546117e1565b84611a68565b602080601f831160018114611b195760008415611b015750858301515b600019600386901b1c1916600185901b178555611aae565b600085815260208120601f198616915b82811015611b4857888601518255948401946001909101908401611b29565b5085821015611b665787850151600019600388901b60f8161c191681555b5050505050600190811b0190555056fea264697066735822122062140367de850146bca28d4e5e9fa2c448f74ae60807818021c0798e55d9569f64736f6c63430008110033",
  "immutableReferences": {},
  "source": "// SPDX-License-Identifier: MIT\r\npragma solidity ^0.8.17;\r\n\r\nimport \"./Authentication.sol\";\r\nimport \"./UpdateTr.sol\";\r\n\r\nstruct Hive {\r\n    uint256 hiveId;\r\n    uint16 weightHoney;\r\n    string dateCollect;\r\n}\r\n\r\nstruct Tun {\r\n    bytes30 id;\r\n    bytes20 batch;\r\n    address productorId;\r\n    string apiary;\r\n    uint64 weight;\r\n    string packing;\r\n    string flowering;\r\n    string date;\r\n    uint256[] hivesId;\r\n}\r\n\r\nstruct Container {\r\n    bytes32 id;\r\n    bytes20 batch;\r\n    bytes30[] tunId;\r\n}\r\n\r\n// struct Honey {\r\n//     uint256 codigo;\r\n//     uint256 lote;\r\n//     string especializacao;\r\n//     uint64 peso;\r\n//     uint256 date;\r\n//     string localizacao;\r\n//     uint256 producaoId;\r\n// }\r\n\r\ncontract Production {\r\n    mapping(uint256 => Hive) hives;\r\n    mapping(address => uint256[]) hiveId;\r\n\r\n    mapping(bytes30 => Tun) tunList;\r\n    mapping(address => bytes30[]) tunListId;\r\n    mapping(address => bytes20[]) tunBatch;\r\n\r\n    mapping(bytes32 => Container) containerList;\r\n    mapping(address => bytes32[]) containerListId;\r\n\r\n    // mapping(address => mapping(uint256 => Honey)) product;\r\n    // uint256[] productCode;\r\n\r\n    address contractAuthentication;\r\n    Authentication instanceAuthentication;\r\n    address contractUpdateTr;\r\n    UpdateTr instanceUpdateTr;\r\n\r\n    constructor(address _contractAuthentication, address _contractUpdateTr) {\r\n        contractAuthentication = _contractAuthentication;\r\n        instanceAuthentication = Authentication(contractAuthentication);\r\n        contractUpdateTr = _contractUpdateTr;\r\n        instanceUpdateTr = UpdateTr(contractUpdateTr);\r\n    }\r\n\r\n    //Verifica se o endereo que esta chamando o contrato possui permisao para modificar o estado da rede\r\n    modifier onlyOWNER(address _addr) {\r\n        require(\r\n            instanceAuthentication.activeUser(_addr) == true,\r\n            \"Permissao negada!\"\r\n        );\r\n        _;\r\n    }\r\n\r\n    event UpdateHive(address indexed addr, Hive[] indexed hives);\r\n    event Collect(\r\n        address indexed addr,\r\n        uint256 hiveId,\r\n        uint256 dateCollect,\r\n        int256 peso\r\n    );\r\n\r\n    function updateHive(\r\n        address _addr,\r\n        Hive[] memory _hives\r\n    ) public onlyOWNER(_addr) {\r\n        emit UpdateHive(_addr, _hives);\r\n    }\r\n\r\n    function generateBatch(\r\n        address _addr,\r\n        string memory _apiary,\r\n        string memory _flowering,\r\n        string memory _date\r\n    ) public onlyOWNER(_addr) returns (bytes20) {\r\n        bytes20 _batch = ripemd160(\r\n            abi.encodePacked(_addr, _apiary, _flowering, _date)\r\n        );\r\n        tunBatch[_addr].push(_batch);\r\n        return _batch;\r\n    }\r\n\r\n    function newTun(\r\n        address _addr,\r\n        bytes20 _batch,\r\n        string memory _apiary,\r\n        uint64 _weight,\r\n        string memory _packing,\r\n        string memory _flowering,\r\n        string memory _dateTime,\r\n        uint256[] memory _hivesId\r\n    ) public onlyOWNER(_addr) returns (bytes30) {\r\n        bytes30 _id = bytes30(abi.encodePacked(_batch, _dateTime));\r\n\r\n        tunList[_id] = Tun(\r\n            _id,\r\n            _batch,\r\n            _addr,\r\n            _apiary,\r\n            _weight,\r\n            _packing,\r\n            _flowering,\r\n            _dateTime,\r\n            _hivesId\r\n        );\r\n        tunListId[_addr].push(_id);\r\n        return tunList[_id].id;\r\n    }\r\n\r\n    function getTun(bytes30 _id) public view returns (Tun memory) {\r\n        return tunList[_id];\r\n    }\r\n\r\n    function getTunId(address _addr) public view returns (bytes30[] memory) {\r\n        return tunListId[_addr];\r\n    }\r\n\r\n    function newContainer(\r\n        address _addr,\r\n        bytes20 _batch,\r\n        bytes30[] memory _tunId\r\n    ) public onlyOWNER(_addr) returns (bytes32) {\r\n        bytes12 _hash = bytes12(keccak256(abi.encodePacked(_tunId)));\r\n        bytes32 _id = bytes32(abi.encodePacked(_addr, _hash));\r\n        containerList[_id] = Container(_id, _batch, _tunId);\r\n        containerListId[_addr].push(_id);\r\n        return _id;\r\n    }\r\n\r\n    function getContainer(bytes32 _id) public view returns (Container memory) {\r\n        return containerList[_id];\r\n    }\r\n\r\n    function getContainersId(\r\n        address _addr\r\n    ) public view returns (bytes32[] memory) {\r\n        return containerListId[_addr];\r\n    }\r\n\r\n    //Funo para registrar a tranzao de um produto\r\n    function forwarding(\r\n        address _sender,\r\n        address _receiver,\r\n        bytes32 _unitId,\r\n        string memory _date,\r\n        string memory _businessUnitType,\r\n        bytes memory _signature\r\n    ) public onlyOWNER(msg.sender) {\r\n        //chamar funcao updateTr no contrato UpdateTr\r\n        instanceUpdateTr.updateTr(\r\n            _sender,\r\n            _receiver,\r\n            _unitId,\r\n            _date,\r\n            _businessUnitType,\r\n            _signature\r\n        );\r\n    }\r\n}\r\n",
  "sourcePath": "C:\\Users\\samue\\Documents\\Workspace_react\\BlockForBees\\backend_blockcahin\\contracts\\Production.sol",
  "compiler": {
    "name": "solc",
    "version": "0.8.17+commit.8df45f5f.Emscripten.clang"
  },
  "schemaVersion": "3.4.11",
  "updatedAt": "2023-04-18T18:45:12.830Z",
  "devdoc": {
    "kind": "dev",
    "methods": {},
    "version": 1
  },
  "userdoc": {
    "kind": "user",
    "methods": {},
    "version": 1
  }
}