{
  "contractName": "UpdateTr",
  "abi": [
    {
      "inputs": [
        {
          "internalType": "address",
          "name": "_contractAuthentication",
          "type": "address"
        }
      ],
      "stateMutability": "nonpayable",
      "type": "constructor"
    },
    {
      "inputs": [
        {
          "internalType": "string",
          "name": "_currentTx",
          "type": "string"
        },
        {
          "internalType": "string",
          "name": "_sender",
          "type": "string"
        },
        {
          "internalType": "string",
          "name": "_receiver",
          "type": "string"
        },
        {
          "internalType": "string",
          "name": "_unit",
          "type": "string"
        },
        {
          "internalType": "string",
          "name": "_date",
          "type": "string"
        }
      ],
      "name": "updateTr",
      "outputs": [],
      "stateMutability": "nonpayable",
      "type": "function"
    },
    {
      "inputs": [
        {
          "internalType": "string",
          "name": "_unit",
          "type": "string"
        }
      ],
      "name": "search",
      "outputs": [
        {
          "components": [
            {
              "internalType": "string",
              "name": "previousTx",
              "type": "string"
            },
            {
              "internalType": "string",
              "name": "currentTx",
              "type": "string"
            },
            {
              "internalType": "string",
              "name": "sender",
              "type": "string"
            },
            {
              "internalType": "string",
              "name": "receiver",
              "type": "string"
            },
            {
              "internalType": "string",
              "name": "unit",
              "type": "string"
            },
            {
              "internalType": "string",
              "name": "date",
              "type": "string"
            }
          ],
          "internalType": "struct Transaction[]",
          "name": "",
          "type": "tuple[]"
        }
      ],
      "stateMutability": "view",
      "type": "function"
    },
    {
      "inputs": [
        {
          "internalType": "string",
          "name": "_user",
          "type": "string"
        }
      ],
      "name": "searchByUser",
      "outputs": [
        {
          "internalType": "string[]",
          "name": "",
          "type": "string[]"
        }
      ],
      "stateMutability": "view",
      "type": "function"
    }
  ],
  "bytecode": "0x608060405234801561001057600080fd5b5060405161126e38038061126e83398101604081905261002f9161005e565b600280546001600160a01b039092166001600160a01b031992831681179091556003805490921617905561008e565b60006020828403121561007057600080fd5b81516001600160a01b038116811461008757600080fd5b9392505050565b6111d18061009d6000396000f3fe608060405234801561001057600080fd5b50600436106100415760003560e01c8063820ed08614610046578063a50e65e41461006f578063d6c6c5ac14610084575b600080fd5b610059610054366004610d0a565b6100a4565b6040516100669190610d97565b60405180910390f35b61008261007d366004610e89565b61048d565b005b610097610092366004610d0a565b610b7b565b6040516100669190610f5b565b60606000826040516100b69190610fbd565b9081526020016040518091039020805480602002602001604051908101604052809291908181526020016000905b8282101561048257838290600052602060002090600602016040518060c001604052908160008201805461011790610fd9565b80601f016020809104026020016040519081016040528092919081815260200182805461014390610fd9565b80156101905780601f1061016557610100808354040283529160200191610190565b820191906000526020600020905b81548152906001019060200180831161017357829003601f168201915b505050505081526020016001820180546101a990610fd9565b80601f01602080910402602001604051908101604052809291908181526020018280546101d590610fd9565b80156102225780601f106101f757610100808354040283529160200191610222565b820191906000526020600020905b81548152906001019060200180831161020557829003601f168201915b5050505050815260200160028201805461023b90610fd9565b80601f016020809104026020016040519081016040528092919081815260200182805461026790610fd9565b80156102b45780601f10610289576101008083540402835291602001916102b4565b820191906000526020600020905b81548152906001019060200180831161029757829003601f168201915b505050505081526020016003820180546102cd90610fd9565b80601f01602080910402602001604051908101604052809291908181526020018280546102f990610fd9565b80156103465780601f1061031b57610100808354040283529160200191610346565b820191906000526020600020905b81548152906001019060200180831161032957829003601f168201915b5050505050815260200160048201805461035f90610fd9565b80601f016020809104026020016040519081016040528092919081815260200182805461038b90610fd9565b80156103d85780601f106103ad576101008083540402835291602001916103d8565b820191906000526020600020905b8154815290600101906020018083116103bb57829003601f168201915b505050505081526020016005820180546103f190610fd9565b80601f016020809104026020016040519081016040528092919081815260200182805461041d90610fd9565b801561046a5780601f1061043f5761010080835404028352916020019161046a565b820191906000526020600020905b81548152906001019060200180831161044d57829003601f168201915b505050505081525050815260200190600101906100e4565b505050509050919050565b60035460405163175757d560e01b815285916001600160a01b03169063175757d5906104bd908490600401611013565b602060405180830381865afa1580156104da573d6000803e3d6000fd5b505050506040513d601f19601f820116820180604052508101906104fe919061102d565b15156001146105485760405162461bcd60e51b81526020600482015260116024820152705065726d697373616f206e65676164612160781b60448201526064015b60405180910390fd5b606060008460405161055a9190610fbd565b90815260405190819003602001902054600003610578575082610a5a565b600080856040516105899190610fbd565b908152602001604051809103902060016000876040516105a99190610fbd565b908152604051908190036020019020546105c3919061104f565b815481106105d3576105d3611076565b90600052602060002090600602016040518060c00160405290816000820180546105fc90610fd9565b80601f016020809104026020016040519081016040528092919081815260200182805461062890610fd9565b80156106755780601f1061064a57610100808354040283529160200191610675565b820191906000526020600020905b81548152906001019060200180831161065857829003601f168201915b5050505050815260200160018201805461068e90610fd9565b80601f01602080910402602001604051908101604052809291908181526020018280546106ba90610fd9565b80156107075780601f106106dc57610100808354040283529160200191610707565b820191906000526020600020905b8154815290600101906020018083116106ea57829003601f168201915b5050505050815260200160028201805461072090610fd9565b80601f016020809104026020016040519081016040528092919081815260200182805461074c90610fd9565b80156107995780601f1061076e57610100808354040283529160200191610799565b820191906000526020600020905b81548152906001019060200180831161077c57829003601f168201915b505050505081526020016003820180546107b290610fd9565b80601f01602080910402602001604051908101604052809291908181526020018280546107de90610fd9565b801561082b5780601f106108005761010080835404028352916020019161082b565b820191906000526020600020905b81548152906001019060200180831161080e57829003601f168201915b5050505050815260200160048201805461084490610fd9565b80601f016020809104026020016040519081016040528092919081815260200182805461087090610fd9565b80156108bd5780601f10610892576101008083540402835291602001916108bd565b820191906000526020600020905b8154815290600101906020018083116108a057829003601f168201915b505050505081526020016005820180546108d690610fd9565b80601f016020809104026020016040519081016040528092919081815260200182805461090290610fd9565b801561094f5780601f106109245761010080835404028352916020019161094f565b820191906000526020600020905b81548152906001019060200180831161093257829003601f168201915b5050505050815250509050806060015160405160200161096f9190610fbd565b60405160208183030381529060405280519060200120866040516020016109969190610fbd565b604051602081830303815290604052805190602001201480610a07575080606001516040516020016109c89190610fbd565b60405160208183030381529060405280519060200120876040516020016109ef9190610fbd565b60405160208183030381529060405280519060200120145b610a535760405162461bcd60e51b815260206004820152601860248201527f5472616e736163616f20496e636f6e63697374656e7465210000000000000000604482015260640161053f565b6020015190505b600084604051610a6a9190610fbd565b90815260408051918290036020908101832060c0840183528484528382018b9052918301899052606083018890526080830187905260a083018690528154600181018355600092835291208251600690920201908190610aca90826110db565b5060208201516001820190610adf90826110db565b5060408201516002820190610af490826110db565b5060608201516003820190610b0990826110db565b5060808201516004820190610b1e90826110db565b5060a08201516005820190610b3390826110db565b505050600186604051610b469190610fbd565b908152604051602091819003820190208054600181018255600091825291902001610b7185826110db565b5050505050505050565b6060600182604051610b8d9190610fbd565b9081526020016040518091039020805480602002602001604051908101604052809291908181526020016000905b82821015610482578382906000526020600020018054610bda90610fd9565b80601f0160208091040260200160405190810160405280929190818152602001828054610c0690610fd9565b8015610c535780601f10610c2857610100808354040283529160200191610c53565b820191906000526020600020905b815481529060010190602001808311610c3657829003601f168201915b505050505081526020019060010190610bbb565b634e487b7160e01b600052604160045260246000fd5b600082601f830112610c8e57600080fd5b813567ffffffffffffffff80821115610ca957610ca9610c67565b604051601f8301601f19908116603f01168101908282118183101715610cd157610cd1610c67565b81604052838152866020858801011115610cea57600080fd5b836020870160208301376000602085830101528094505050505092915050565b600060208284031215610d1c57600080fd5b813567ffffffffffffffff811115610d3357600080fd5b610d3f84828501610c7d565b949350505050565b60005b83811015610d62578181015183820152602001610d4a565b50506000910152565b60008151808452610d83816020860160208601610d47565b601f01601f19169290920160200192915050565b60006020808301818452808551808352604092508286019150828160051b87010184880160005b83811015610e7b57603f19898403018552815160c08151818652610de482870182610d6b565b915050888201518582038a870152610dfc8282610d6b565b9150508782015185820389870152610e148282610d6b565b91505060608083015186830382880152610e2e8382610d6b565b9250505060808083015186830382880152610e498382610d6b565b9250505060a08083015192508582038187015250610e678183610d6b565b968901969450505090860190600101610dbe565b509098975050505050505050565b600080600080600060a08688031215610ea157600080fd5b853567ffffffffffffffff80821115610eb957600080fd5b610ec589838a01610c7d565b96506020880135915080821115610edb57600080fd5b610ee789838a01610c7d565b95506040880135915080821115610efd57600080fd5b610f0989838a01610c7d565b94506060880135915080821115610f1f57600080fd5b610f2b89838a01610c7d565b93506080880135915080821115610f4157600080fd5b50610f4e88828901610c7d565b9150509295509295909350565b6000602080830181845280855180835260408601915060408160051b870101925083870160005b82811015610fb057603f19888603018452610f9e858351610d6b565b94509285019290850190600101610f82565b5092979650505050505050565b60008251610fcf818460208701610d47565b9190910192915050565b600181811c90821680610fed57607f821691505b60208210810361100d57634e487b7160e01b600052602260045260246000fd5b50919050565b6020815260006110266020830184610d6b565b9392505050565b60006020828403121561103f57600080fd5b8151801515811461102657600080fd5b8181038181111561107057634e487b7160e01b600052601160045260246000fd5b92915050565b634e487b7160e01b600052603260045260246000fd5b601f8211156110d657600081815260208120601f850160051c810160208610156110b35750805b601f850160051c820191505b818110156110d2578281556001016110bf565b5050505b505050565b815167ffffffffffffffff8111156110f5576110f5610c67565b611109816111038454610fd9565b8461108c565b602080601f83116001811461113e57600084156111265750858301515b600019600386901b1c1916600185901b1785556110d2565b600085815260208120601f198616915b8281101561116d5788860151825594840194600190910190840161114e565b508582101561118b5787850151600019600388901b60f8161c191681555b5050505050600190811b0190555056fea26469706673582212204d613d1253f8f31c3e51e58b6aa904e74752b70ca9e5c42fa1117487540c19aa64736f6c63430008110033",
  "immutableReferences": {},
  "source": "// SPDX-License-Identifier: MIT\r\n\r\npragma solidity ^0.8.17;\r\nimport \"./Authentication.sol\";\r\n\r\nstruct Transaction {\r\n    string previousTx;\r\n    string currentTx;\r\n    string sender;\r\n    string receiver;\r\n    string unit;\r\n    string date;\r\n}\r\n\r\nenum Status {\r\n    despachado,\r\n    transporte,\r\n    recebido\r\n}\r\n\r\ncontract UpdateTr {\r\n    mapping(string => Transaction[]) transactions; // item id => list transaction\r\n    mapping(string => string[]) userTransactions; // sender => item id []\r\n\r\n    address contractAuthentication;\r\n    Authentication instanceAuthentication;\r\n\r\n    constructor(address _contractAuthentication) {\r\n        contractAuthentication = _contractAuthentication;\r\n        instanceAuthentication = Authentication(contractAuthentication);\r\n    }\r\n\r\n    modifier onlyOWNER(string memory _id) {\r\n        require(\r\n            instanceAuthentication.activeUser(_id) == true,\r\n            \"Permissao negada!\"\r\n        );\r\n        _;\r\n    }\r\n\r\n    // event Transfer(\r\n    //     string previousTx,\r\n    //     string currentTx,\r\n    //     string sender,\r\n    //     string receiver,\r\n    //     string unit,\r\n    //     string date\r\n    // );\r\n\r\n    function updateTr(\r\n        string memory _currentTx,\r\n        string memory _sender,\r\n        string memory _receiver,\r\n        string memory _unit,\r\n        string memory _date\r\n    ) public onlyOWNER(_sender) {\r\n        string memory previousTx;\r\n        if (transactions[_unit].length == 0) {\r\n            previousTx = _unit;\r\n        } else {\r\n            Transaction memory tr = transactions[_unit][\r\n                transactions[_unit].length - 1\r\n            ];\r\n            require(\r\n                keccak256(abi.encodePacked(_receiver)) ==\r\n                    keccak256(abi.encodePacked(tr.receiver)) ||\r\n                    keccak256(abi.encodePacked(_sender)) ==\r\n                    keccak256(abi.encodePacked(tr.receiver)),\r\n                \"Transacao Inconcistente!\"\r\n            );\r\n            previousTx = tr.currentTx;\r\n        }\r\n        transactions[_unit].push(\r\n            Transaction(\r\n                previousTx,\r\n                _currentTx,\r\n                _sender,\r\n                _receiver,\r\n                _unit,\r\n                _date\r\n            )\r\n        );\r\n        userTransactions[_sender].push(_unit);\r\n        //emit Transfer(previousTx, _currentTx, _sender, _receiver, _unit, _date);\r\n    }\r\n\r\n    function search(\r\n        string memory _unit\r\n    ) public view returns (Transaction[] memory) {\r\n        return transactions[_unit];\r\n    }\r\n\r\n    function searchByUser(\r\n        string memory _user\r\n    ) public view returns (string[] memory) {\r\n        return userTransactions[_user];\r\n    }\r\n}\r\n",
  "sourcePath": "C:\\Users\\samue\\Documents\\Workspace_react\\BlockForBees\\backend_blockcahin\\contracts\\UpdateTr.sol",
  "compiler": {
    "name": "solc",
    "version": "0.8.17+commit.8df45f5f.Emscripten.clang"
  },
  "schemaVersion": "3.4.11",
  "updatedAt": "2023-07-06T09:50:59.645Z",
  "devdoc": {
    "kind": "dev",
    "methods": {},
    "version": 1
  },
  "userdoc": {
    "kind": "user",
    "methods": {},
    "version": 1
  }
}