{
  "contractName": "UpdateTr",
  "abi": [
    {
      "anonymous": false,
      "inputs": [
        {
          "indexed": true,
          "internalType": "address",
          "name": "sender",
          "type": "address"
        },
        {
          "indexed": true,
          "internalType": "address",
          "name": "recipient",
          "type": "address"
        },
        {
          "indexed": true,
          "internalType": "bytes32",
          "name": "unitId",
          "type": "bytes32"
        },
        {
          "indexed": false,
          "internalType": "string",
          "name": "date",
          "type": "string"
        },
        {
          "indexed": false,
          "internalType": "string",
          "name": "businessUnitType",
          "type": "string"
        },
        {
          "indexed": false,
          "internalType": "bytes",
          "name": "signature",
          "type": "bytes"
        }
      ],
      "name": "Transfer",
      "type": "event"
    },
    {
      "inputs": [
        {
          "internalType": "address",
          "name": "_sender",
          "type": "address"
        },
        {
          "internalType": "address",
          "name": "_receiver",
          "type": "address"
        },
        {
          "internalType": "bytes32",
          "name": "_unitId",
          "type": "bytes32"
        },
        {
          "internalType": "string",
          "name": "_date",
          "type": "string"
        },
        {
          "internalType": "string",
          "name": "_businessUnitType",
          "type": "string"
        },
        {
          "internalType": "bytes",
          "name": "_signature",
          "type": "bytes"
        }
      ],
      "name": "updateTr",
      "outputs": [],
      "stateMutability": "nonpayable",
      "type": "function"
    }
  ],
  "bytecode": "0x608060405234801561001057600080fd5b506102ec806100206000396000f3fe608060405234801561001057600080fd5b506004361061002b5760003560e01c80631519203314610030575b600080fd5b61004361003e36600461017b565b610045565b005b6000848152602081905260409081902080546001600160a01b0319166001600160a01b038981169182179092559151869291881691907f1488a630328a0e3cec9c52b098606d8b3d3a3839b0cbcd6ce5c61dc51e9dd14c906100ac90889088908890610273565b60405180910390a4505050505050565b80356001600160a01b03811681146100d357600080fd5b919050565b634e487b7160e01b600052604160045260246000fd5b600082601f8301126100ff57600080fd5b813567ffffffffffffffff8082111561011a5761011a6100d8565b604051601f8301601f19908116603f01168101908282118183101715610142576101426100d8565b8160405283815286602085880101111561015b57600080fd5b836020870160208301376000602085830101528094505050505092915050565b60008060008060008060c0878903121561019457600080fd5b61019d876100bc565b95506101ab602088016100bc565b945060408701359350606087013567ffffffffffffffff808211156101cf57600080fd5b6101db8a838b016100ee565b945060808901359150808211156101f157600080fd5b6101fd8a838b016100ee565b935060a089013591508082111561021357600080fd5b5061022089828a016100ee565b9150509295509295509295565b6000815180845260005b8181101561025357602081850181015186830182015201610237565b506000602082860101526020601f19601f83011685010191505092915050565b606081526000610286606083018661022d565b8281036020840152610298818661022d565b905082810360408401526102ac818561022d565b969550505050505056fea2646970667358221220b4b7573063e72a18671d6761b6573bd7ff12ecba0f367abf2b04e7c77b62981e64736f6c63430008110033",
  "immutableReferences": {},
  "source": "// SPDX-License-Identifier: MIT\r\n\r\npragma solidity ^0.8.17;\r\n\r\ncontract UpdateTr {\r\n    mapping(bytes32 => address) transactions;\r\n\r\n    event Transfer(\r\n        address indexed sender,\r\n        address indexed recipient,\r\n        bytes32 indexed unitId,\r\n        string date,\r\n        string businessUnitType,\r\n        bytes signature\r\n    );\r\n\r\n    function updateTr(\r\n        address _sender,\r\n        address _receiver,\r\n        bytes32 _unitId,\r\n        string memory _date,\r\n        string memory _businessUnitType,\r\n        bytes memory _signature\r\n    ) public {\r\n        transactions[_unitId] = _sender;\r\n        emit Transfer(\r\n            _sender,\r\n            _receiver,\r\n            _unitId,\r\n            _date,\r\n            _businessUnitType,\r\n            _signature\r\n        );\r\n    }\r\n\r\n    // function rastrearTr(bytes32 _lote) public view returns (address) {\r\n    //     return transactions[_lote];\r\n    // }\r\n}\r\n",
  "sourcePath": "C:\\Users\\samue\\Documents\\Workspace_react\\BlockForBees\\backend_blockcahin\\contracts\\UpdateTr.sol",
  "compiler": {
    "name": "solc",
    "version": "0.8.17+commit.8df45f5f.Emscripten.clang"
  },
  "schemaVersion": "3.4.11",
  "updatedAt": "2023-04-18T18:45:12.845Z",
  "devdoc": {
    "kind": "dev",
    "methods": {},
    "version": 1
  },
  "userdoc": {
    "kind": "user",
    "methods": {},
    "version": 1
  }
}