{
  "contractName": "UpdateTr",
  "abi": [
    {
      "anonymous": false,
      "inputs": [
        {
          "indexed": true,
          "internalType": "string",
          "name": "sender",
          "type": "string"
        },
        {
          "indexed": true,
          "internalType": "string",
          "name": "receiver",
          "type": "string"
        },
        {
          "indexed": true,
          "internalType": "string",
          "name": "unitId",
          "type": "string"
        },
        {
          "indexed": false,
          "internalType": "string",
          "name": "date",
          "type": "string"
        },
        {
          "indexed": false,
          "internalType": "string",
          "name": "businessUnitType",
          "type": "string"
        },
        {
          "indexed": false,
          "internalType": "bytes",
          "name": "signature",
          "type": "bytes"
        }
      ],
      "name": "Transfer",
      "type": "event"
    },
    {
      "inputs": [
        {
          "internalType": "string",
          "name": "_sender",
          "type": "string"
        },
        {
          "internalType": "string",
          "name": "_receiver",
          "type": "string"
        },
        {
          "internalType": "string",
          "name": "_unitId",
          "type": "string"
        },
        {
          "internalType": "string",
          "name": "_date",
          "type": "string"
        },
        {
          "internalType": "string",
          "name": "_businessUnitType",
          "type": "string"
        },
        {
          "internalType": "bytes",
          "name": "_signature",
          "type": "bytes"
        }
      ],
      "name": "updateTr",
      "outputs": [],
      "stateMutability": "nonpayable",
      "type": "function"
    }
  ],
  "bytecode": "0x608060405234801561001057600080fd5b506104bc806100206000396000f3fe608060405234801561001057600080fd5b506004361061002b5760003560e01c80631997764014610030575b600080fd5b61004361003e366004610199565b610045565b005b8560008560405161005691906102b2565b908152602001604051809103902090816100709190610357565b508360405161007f91906102b2565b60405180910390208560405161009591906102b2565b6040518091039020876040516100ab91906102b2565b60405180910390207f55d17a6b81725aaf7f1b7cacba9a8f237b6881b8b7f8e96f63f31dba632f796b8686866040516100e693929190610443565b60405180910390a4505050505050565b634e487b7160e01b600052604160045260246000fd5b600082601f83011261011d57600080fd5b813567ffffffffffffffff80821115610138576101386100f6565b604051601f8301601f19908116603f01168101908282118183101715610160576101606100f6565b8160405283815286602085880101111561017957600080fd5b836020870160208301376000602085830101528094505050505092915050565b60008060008060008060c087890312156101b257600080fd5b863567ffffffffffffffff808211156101ca57600080fd5b6101d68a838b0161010c565b975060208901359150808211156101ec57600080fd5b6101f88a838b0161010c565b9650604089013591508082111561020e57600080fd5b61021a8a838b0161010c565b9550606089013591508082111561023057600080fd5b61023c8a838b0161010c565b9450608089013591508082111561025257600080fd5b61025e8a838b0161010c565b935060a089013591508082111561027457600080fd5b5061028189828a0161010c565b9150509295509295509295565b60005b838110156102a9578181015183820152602001610291565b50506000910152565b600082516102c481846020870161028e565b9190910192915050565b600181811c908216806102e257607f821691505b60208210810361030257634e487b7160e01b600052602260045260246000fd5b50919050565b601f82111561035257600081815260208120601f850160051c8101602086101561032f5750805b601f850160051c820191505b8181101561034e5782815560010161033b565b5050505b505050565b815167ffffffffffffffff811115610371576103716100f6565b6103858161037f84546102ce565b84610308565b602080601f8311600181146103ba57600084156103a25750858301515b600019600386901b1c1916600185901b17855561034e565b600085815260208120601f198616915b828110156103e9578886015182559484019460019091019084016103ca565b50858210156104075787850151600019600388901b60f8161c191681555b5050505050600190811b01905550565b6000815180845261042f81602086016020860161028e565b601f01601f19169290920160200192915050565b6060815260006104566060830186610417565b82810360208401526104688186610417565b9050828103604084015261047c8185610417565b969550505050505056fea264697066735822122020abcc13599bdf280e9902164868ce04867739e557b3469a222b99c746be16e364736f6c63430008110033",
  "immutableReferences": {},
  "source": "// SPDX-License-Identifier: MIT\r\n\r\npragma solidity ^0.8.17;\r\n\r\ncontract UpdateTr {\r\n    mapping(string => string) transactions;\r\n\r\n    event Transfer(\r\n        string indexed sender,\r\n        string indexed receiver,\r\n        string indexed unitId,\r\n        string date,\r\n        string businessUnitType,\r\n        bytes signature\r\n    );\r\n\r\n    function updateTr(\r\n        string memory _sender,\r\n        string memory _receiver,\r\n        string memory _unitId,\r\n        string memory _date,\r\n        string memory _businessUnitType,\r\n        bytes memory _signature\r\n    ) public {\r\n        transactions[_unitId] = _sender;\r\n        emit Transfer(\r\n            _sender,\r\n            _receiver,\r\n            _unitId,\r\n            _date,\r\n            _businessUnitType,\r\n            _signature\r\n        );\r\n    }\r\n\r\n    // function rastrearTr(bytes32 _lote) public view returns (address) {\r\n    //     return transactions[_lote];\r\n    // }\r\n}\r\n",
  "sourcePath": "C:\\Users\\samue\\Documents\\Workspace_react\\BlockForBees\\backend_blockcahin\\contracts\\UpdateTr.sol",
  "compiler": {
    "name": "solc",
    "version": "0.8.17+commit.8df45f5f.Emscripten.clang"
  },
  "schemaVersion": "3.4.11",
  "updatedAt": "2023-04-26T22:52:58.081Z",
  "devdoc": {
    "kind": "dev",
    "methods": {},
    "version": 1
  },
  "userdoc": {
    "kind": "user",
    "methods": {},
    "version": 1
  }
}