{
  "contractName": "Authentication",
  "abi": [
    {
      "inputs": [
        {
          "internalType": "string",
          "name": "_id",
          "type": "string"
        },
        {
          "internalType": "string",
          "name": "_name",
          "type": "string"
        },
        {
          "internalType": "string",
          "name": "_cpf",
          "type": "string"
        },
        {
          "internalType": "string",
          "name": "_user",
          "type": "string"
        },
        {
          "internalType": "string",
          "name": "_town",
          "type": "string"
        },
        {
          "internalType": "string",
          "name": "_email",
          "type": "string"
        }
      ],
      "name": "registerUser",
      "outputs": [
        {
          "internalType": "string",
          "name": "",
          "type": "string"
        }
      ],
      "stateMutability": "nonpayable",
      "type": "function"
    },
    {
      "inputs": [
        {
          "internalType": "address",
          "name": "_account",
          "type": "address"
        }
      ],
      "name": "getId",
      "outputs": [
        {
          "internalType": "string",
          "name": "",
          "type": "string"
        }
      ],
      "stateMutability": "view",
      "type": "function"
    },
    {
      "inputs": [
        {
          "internalType": "string",
          "name": "_id",
          "type": "string"
        }
      ],
      "name": "getUser",
      "outputs": [
        {
          "components": [
            {
              "internalType": "string",
              "name": "id",
              "type": "string"
            },
            {
              "internalType": "string",
              "name": "name",
              "type": "string"
            },
            {
              "internalType": "string",
              "name": "cpf",
              "type": "string"
            },
            {
              "internalType": "string",
              "name": "user",
              "type": "string"
            },
            {
              "internalType": "string",
              "name": "town",
              "type": "string"
            },
            {
              "internalType": "string",
              "name": "email",
              "type": "string"
            }
          ],
          "internalType": "struct Authentication.User",
          "name": "",
          "type": "tuple"
        }
      ],
      "stateMutability": "view",
      "type": "function"
    },
    {
      "inputs": [
        {
          "internalType": "address",
          "name": "_address",
          "type": "address"
        },
        {
          "internalType": "string",
          "name": "_id",
          "type": "string"
        }
      ],
      "name": "addAccount",
      "outputs": [],
      "stateMutability": "nonpayable",
      "type": "function"
    },
    {
      "inputs": [
        {
          "internalType": "address",
          "name": "_address",
          "type": "address"
        },
        {
          "internalType": "string",
          "name": "_id",
          "type": "string"
        }
      ],
      "name": "remAccount",
      "outputs": [],
      "stateMutability": "nonpayable",
      "type": "function"
    }
  ],
  "bytecode": "0x608060405234801561001057600080fd5b50610f0c806100206000396000f3fe608060405234801561001057600080fd5b50600436106100575760003560e01c806331feb6711461005c57806365f68c89146100855780637832a0d1146100a557806397848278146100c6578063f0d4bc5c146100db575b600080fd5b61006f61006a3660046109a1565b6100ee565b60405161007c9190610a2e565b60405180910390f35b610098610093366004610b02565b610527565b60405161007c9190610b24565b6100b86100b3366004610b37565b6105d3565b60405161007c929190610c2c565b6100d96100d4366004610c5b565b61076a565b005b6100d96100e9366004610c5b565b610808565b6101276040518060c001604052806060815260200160608152602001606081526020016060815260200160608152602001606081525090565b816040516020016101389190610ca9565b60408051601f1981840301815282825280516020918201203260009081526001835292909220919261016b929101610cff565b604051602081830303815290604052805190602001201461018b57600080fd5b60008260405161019b9190610ca9565b90815260200160405180910390206040518060c00160405290816000820180546101c490610cc5565b80601f01602080910402602001604051908101604052809291908181526020018280546101f090610cc5565b801561023d5780601f106102125761010080835404028352916020019161023d565b820191906000526020600020905b81548152906001019060200180831161022057829003601f168201915b5050505050815260200160018201805461025690610cc5565b80601f016020809104026020016040519081016040528092919081815260200182805461028290610cc5565b80156102cf5780601f106102a4576101008083540402835291602001916102cf565b820191906000526020600020905b8154815290600101906020018083116102b257829003601f168201915b505050505081526020016002820180546102e890610cc5565b80601f016020809104026020016040519081016040528092919081815260200182805461031490610cc5565b80156103615780601f1061033657610100808354040283529160200191610361565b820191906000526020600020905b81548152906001019060200180831161034457829003601f168201915b5050505050815260200160038201805461037a90610cc5565b80601f01602080910402602001604051908101604052809291908181526020018280546103a690610cc5565b80156103f35780601f106103c8576101008083540402835291602001916103f3565b820191906000526020600020905b8154815290600101906020018083116103d657829003601f168201915b5050505050815260200160048201805461040c90610cc5565b80601f016020809104026020016040519081016040528092919081815260200182805461043890610cc5565b80156104855780601f1061045a57610100808354040283529160200191610485565b820191906000526020600020905b81548152906001019060200180831161046857829003601f168201915b5050505050815260200160058201805461049e90610cc5565b80601f01602080910402602001604051908101604052809291908181526020018280546104ca90610cc5565b80156105175780601f106104ec57610100808354040283529160200191610517565b820191906000526020600020905b8154815290600101906020018083116104fa57829003601f168201915b5050505050815250509050919050565b6001600160a01b038116600090815260016020526040902080546060919061054e90610cc5565b80601f016020809104026020016040519081016040528092919081815260200182805461057a90610cc5565b80156105c75780601f1061059c576101008083540402835291602001916105c7565b820191906000526020600020905b8154815290600101906020018083116105aa57829003601f168201915b50505050509050919050565b32600090815260016020908152604080832090513693927fc5d2460186f7233c927e7db2dcc703c0e500b653ca82273b7bfad8045d85a4709261061892909101610cff565b60405160208183030381529060405280519060200120146106795760405162461bcd60e51b815260206004820152601660248201527550726f6475746f72206a61206361646173747261646f60501b60448201526064015b60405180910390fd5b6040518060c00160405280898152602001888152602001878152602001868152602001858152602001848152506000896040516106b69190610ca9565b908152604051908190036020019020815181906106d39082610dc3565b50602082015160018201906106e89082610dc3565b50604082015160028201906106fd9082610dc3565b50606082015160038201906107129082610dc3565b50608082015160048201906107279082610dc3565b5060a0820151600582019061073c9082610dc3565b505032600090815260016020526040902090506107598982610dc3565b506000983698509650505050505050565b808060405160200161077c9190610ca9565b60408051601f198184030181528282528051602091820120326000908152600183529290922091926107af929101610cff565b60405160208183030381529060405280519060200120146107e25760405162461bcd60e51b815260040161067090610e83565b6001600160a01b0383166000908152600160205260408120610803916108a8565b505050565b808060405160200161081a9190610ca9565b60408051601f1981840301815282825280516020918201203260009081526001835292909220919261084d929101610cff565b60405160208183030381529060405280519060200120146108805760405162461bcd60e51b815260040161067090610e83565b6001600160a01b03831660009081526001602052604090206108a28382610dc3565b50505050565b5080546108b490610cc5565b6000825580601f106108c4575050565b601f0160209004906000526020600020908101906108e291906108e5565b50565b5b808211156108fa57600081556001016108e6565b5090565b634e487b7160e01b600052604160045260246000fd5b600082601f83011261092557600080fd5b813567ffffffffffffffff80821115610940576109406108fe565b604051601f8301601f19908116603f01168101908282118183101715610968576109686108fe565b8160405283815286602085880101111561098157600080fd5b836020870160208301376000602085830101528094505050505092915050565b6000602082840312156109b357600080fd5b813567ffffffffffffffff8111156109ca57600080fd5b6109d684828501610914565b949350505050565b60005b838110156109f95781810151838201526020016109e1565b50506000910152565b60008151808452610a1a8160208601602086016109de565b601f01601f19169290920160200192915050565b602081526000825160c06020840152610a4a60e0840182610a02565b90506020840151601f1980858403016040860152610a688383610a02565b92506040860151915080858403016060860152610a858383610a02565b92506060860151915080858403016080860152610aa28383610a02565b925060808601519150808584030160a0860152610abf8383610a02565b925060a08601519150808584030160c086015250610add8282610a02565b95945050505050565b80356001600160a01b0381168114610afd57600080fd5b919050565b600060208284031215610b1457600080fd5b610b1d82610ae6565b9392505050565b602081526000610b1d6020830184610a02565b60008060008060008060c08789031215610b5057600080fd5b863567ffffffffffffffff80821115610b6857600080fd5b610b748a838b01610914565b97506020890135915080821115610b8a57600080fd5b610b968a838b01610914565b96506040890135915080821115610bac57600080fd5b610bb88a838b01610914565b95506060890135915080821115610bce57600080fd5b610bda8a838b01610914565b94506080890135915080821115610bf057600080fd5b610bfc8a838b01610914565b935060a0890135915080821115610c1257600080fd5b50610c1f89828a01610914565b9150509295509295509295565b60208152816020820152818360408301376000818301604090810191909152601f909201601f19160101919050565b60008060408385031215610c6e57600080fd5b610c7783610ae6565b9150602083013567ffffffffffffffff811115610c9357600080fd5b610c9f85828601610914565b9150509250929050565b60008251610cbb8184602087016109de565b9190910192915050565b600181811c90821680610cd957607f821691505b602082108103610cf957634e487b7160e01b600052602260045260246000fd5b50919050565b6000808354610d0d81610cc5565b60018281168015610d255760018114610d3a57610d69565b60ff1984168752821515830287019450610d69565b8760005260208060002060005b85811015610d605781548a820152908401908201610d47565b50505082870194505b50929695505050505050565b601f82111561080357600081815260208120601f850160051c81016020861015610d9c5750805b601f850160051c820191505b81811015610dbb57828155600101610da8565b505050505050565b815167ffffffffffffffff811115610ddd57610ddd6108fe565b610df181610deb8454610cc5565b84610d75565b602080601f831160018114610e265760008415610e0e5750858301515b600019600386901b1c1916600185901b178555610dbb565b600085815260208120601f198616915b82811015610e5557888601518255948401946001909101908401610e36565b5085821015610e735787850151600019600388901b60f8161c191681555b5050505050600190811b01905550565b60208082526033908201527f5065726d697373616f206e65676164612120566572696669717565206f2073656040820152727520656e64657265636f20457468657265756d60681b60608201526080019056fea264697066735822122008379fd720fb1736be141db65235ef19a8fc3f7881620e199815cf253a5c2d9464736f6c63430008110033",
  "immutableReferences": {},
  "source": "// SPDX-License-Identifier: MIT\r\npragma solidity ^0.8.17;\r\n\r\ncontract Authentication {\r\n    struct User {\r\n        string id;\r\n        string name;\r\n        string cpf;\r\n        string user;\r\n        string town;\r\n        string email;\r\n    }\r\n\r\n    mapping(string => User) users; // id => User\r\n    mapping(address => string) accounts; // account => id User\r\n\r\n    modifier onlyOWNER(string memory _id) {\r\n        require(\r\n            keccak256(abi.encodePacked(accounts[tx.origin])) ==\r\n                keccak256(abi.encodePacked(_id)),\r\n            \"Permissao negada! Verifique o seu endereco Ethereum\"\r\n        );\r\n        _;\r\n    }\r\n\r\n    function registerUser(\r\n        string memory _id,\r\n        string memory _name,\r\n        string memory _cpf,\r\n        string memory _user,\r\n        string memory _town,\r\n        string memory _email\r\n    ) public returns (string calldata) {\r\n        require(\r\n            keccak256(abi.encodePacked(accounts[tx.origin])) == keccak256(\"\"),\r\n            \"Produtor ja cadastrado\"\r\n        );\r\n\r\n        users[_id] = User(_id, _name, _cpf, _user, _town, _email);\r\n\r\n        accounts[tx.origin] = _id;\r\n        return string(msg.data);\r\n    }\r\n\r\n    function getId(address _account) public view returns (string memory) {\r\n        return accounts[_account];\r\n    }\r\n\r\n    function getUser(string memory _id) public view returns (User memory) {\r\n        require(\r\n            keccak256(abi.encodePacked(accounts[tx.origin])) ==\r\n                keccak256(abi.encodePacked(_id))\r\n        );\r\n        return users[_id];\r\n    }\r\n\r\n    function addAccount(address _address, string memory _id)\r\n        public\r\n        onlyOWNER(_id)\r\n    {\r\n        accounts[_address] = _id;\r\n    }\r\n\r\n    // Remove um address da lista de enderecos do produtor\r\n    function remAccount(address _address, string memory _id)\r\n        public\r\n        onlyOWNER(_id)\r\n    {\r\n        delete (accounts[_address]);\r\n    }\r\n}\r\n",
  "sourcePath": "C:\\Users\\Samuel Brando\\Documents\\Blockchain_App\\backend_blockcahin\\contracts\\Authentication.sol",
  "compiler": {
    "name": "solc",
    "version": "0.8.17+commit.8df45f5f.Emscripten.clang"
  },
  "schemaVersion": "3.4.10",
  "updatedAt": "2022-12-01T23:16:09.566Z",
  "devdoc": {
    "kind": "dev",
    "methods": {},
    "version": 1
  },
  "userdoc": {
    "kind": "user",
    "methods": {},
    "version": 1
  }
}