{
  "contractName": "Authentication",
  "abi": [
    {
      "inputs": [
        {
          "components": [
            {
              "internalType": "address",
              "name": "addr",
              "type": "address"
            },
            {
              "internalType": "string",
              "name": "id",
              "type": "string"
            },
            {
              "internalType": "string",
              "name": "name",
              "type": "string"
            },
            {
              "internalType": "string",
              "name": "email",
              "type": "string"
            },
            {
              "internalType": "string",
              "name": "certification",
              "type": "string"
            },
            {
              "internalType": "string",
              "name": "company",
              "type": "string"
            },
            {
              "internalType": "string",
              "name": "role",
              "type": "string"
            }
          ],
          "internalType": "struct User",
          "name": "_user",
          "type": "tuple"
        },
        {
          "internalType": "string",
          "name": "_password",
          "type": "string"
        }
      ],
      "name": "register",
      "outputs": [
        {
          "internalType": "bool",
          "name": "",
          "type": "bool"
        }
      ],
      "stateMutability": "nonpayable",
      "type": "function"
    },
    {
      "inputs": [
        {
          "internalType": "string",
          "name": "_id",
          "type": "string"
        }
      ],
      "name": "getUser",
      "outputs": [
        {
          "components": [
            {
              "internalType": "address",
              "name": "addr",
              "type": "address"
            },
            {
              "internalType": "string",
              "name": "id",
              "type": "string"
            },
            {
              "internalType": "string",
              "name": "name",
              "type": "string"
            },
            {
              "internalType": "string",
              "name": "email",
              "type": "string"
            },
            {
              "internalType": "string",
              "name": "certification",
              "type": "string"
            },
            {
              "internalType": "string",
              "name": "company",
              "type": "string"
            },
            {
              "internalType": "string",
              "name": "role",
              "type": "string"
            }
          ],
          "internalType": "struct User",
          "name": "",
          "type": "tuple"
        }
      ],
      "stateMutability": "view",
      "type": "function",
      "constant": true
    },
    {
      "inputs": [],
      "name": "getProducers",
      "outputs": [
        {
          "components": [
            {
              "internalType": "address",
              "name": "addr",
              "type": "address"
            },
            {
              "internalType": "string",
              "name": "id",
              "type": "string"
            },
            {
              "internalType": "string",
              "name": "name",
              "type": "string"
            },
            {
              "internalType": "string",
              "name": "email",
              "type": "string"
            },
            {
              "internalType": "string",
              "name": "certification",
              "type": "string"
            },
            {
              "internalType": "string",
              "name": "company",
              "type": "string"
            },
            {
              "internalType": "string",
              "name": "role",
              "type": "string"
            }
          ],
          "internalType": "struct User[]",
          "name": "",
          "type": "tuple[]"
        }
      ],
      "stateMutability": "view",
      "type": "function",
      "constant": true
    },
    {
      "inputs": [
        {
          "internalType": "string",
          "name": "_id",
          "type": "string"
        }
      ],
      "name": "activeUser",
      "outputs": [
        {
          "internalType": "bool",
          "name": "",
          "type": "bool"
        }
      ],
      "stateMutability": "view",
      "type": "function",
      "constant": true
    },
    {
      "inputs": [
        {
          "internalType": "string",
          "name": "_id",
          "type": "string"
        }
      ],
      "name": "removeUser",
      "outputs": [
        {
          "internalType": "string",
          "name": "",
          "type": "string"
        }
      ],
      "stateMutability": "nonpayable",
      "type": "function"
    },
    {
      "inputs": [
        {
          "internalType": "string",
          "name": "_user",
          "type": "string"
        },
        {
          "internalType": "string",
          "name": "_password",
          "type": "string"
        }
      ],
      "name": "logon",
      "outputs": [
        {
          "components": [
            {
              "internalType": "address",
              "name": "addr",
              "type": "address"
            },
            {
              "internalType": "string",
              "name": "id",
              "type": "string"
            },
            {
              "internalType": "string",
              "name": "name",
              "type": "string"
            },
            {
              "internalType": "string",
              "name": "email",
              "type": "string"
            },
            {
              "internalType": "string",
              "name": "certification",
              "type": "string"
            },
            {
              "internalType": "string",
              "name": "company",
              "type": "string"
            },
            {
              "internalType": "string",
              "name": "role",
              "type": "string"
            }
          ],
          "internalType": "struct User",
          "name": "",
          "type": "tuple"
        },
        {
          "internalType": "bool",
          "name": "",
          "type": "bool"
        }
      ],
      "stateMutability": "view",
      "type": "function",
      "constant": true
    },
    {
      "inputs": [
        {
          "internalType": "string",
          "name": "_user",
          "type": "string"
        },
        {
          "internalType": "string",
          "name": "_password",
          "type": "string"
        }
      ],
      "name": "verifyPassword",
      "outputs": [
        {
          "internalType": "bool",
          "name": "",
          "type": "bool"
        }
      ],
      "stateMutability": "view",
      "type": "function",
      "constant": true
    }
  ],
  "bytecode": "0x608060405234801561001057600080fd5b50611cae806100206000396000f3fe608060405234801561001057600080fd5b506004361061007d5760003560e01c80634b360a371161005b5780634b360a37146100dd578063600cee78146100fe578063e80a7eb91461011e578063fccc98d91461013357600080fd5b8063175757d5146100825780632fe6269f146100aa57806331feb671146100bd575b600080fd5b6100956100903660046114d4565b610146565b60405190151581526020015b60405180910390f35b6100956100b8366004611511565b610171565b6100d06100cb3660046114d4565b6101f9565b6040516100a19190611676565b6100f06100eb366004611511565b6105ad565b6040516100a1929190611690565b61011161010c3660046114d4565b610aa3565b6040516100a191906116b4565b610126610b72565b6040516100a191906116c7565b610095610141366004611745565b611061565b60006003826040516101589190611885565b9081526040519081900360200190205460ff1692915050565b60008083836040516020016101879291906118a1565b60408051601f198184030181528282528051602091820120600080855284830180855285519020828252600290935283902090945090926101c89201611904565b60405160208183030381529060405280519060200120036101ed5760019150506101f3565b60009150505b92915050565b6102016113c2565b6000826040516102119190611885565b90815260408051918290036020908101832060e0840190925281546001600160a01b031683526001820180549184019161024a906118d0565b80601f0160208091040260200160405190810160405280929190818152602001828054610276906118d0565b80156102c35780601f10610298576101008083540402835291602001916102c3565b820191906000526020600020905b8154815290600101906020018083116102a657829003601f168201915b505050505081526020016002820180546102dc906118d0565b80601f0160208091040260200160405190810160405280929190818152602001828054610308906118d0565b80156103555780601f1061032a57610100808354040283529160200191610355565b820191906000526020600020905b81548152906001019060200180831161033857829003601f168201915b5050505050815260200160038201805461036e906118d0565b80601f016020809104026020016040519081016040528092919081815260200182805461039a906118d0565b80156103e75780601f106103bc576101008083540402835291602001916103e7565b820191906000526020600020905b8154815290600101906020018083116103ca57829003601f168201915b50505050508152602001600482018054610400906118d0565b80601f016020809104026020016040519081016040528092919081815260200182805461042c906118d0565b80156104795780601f1061044e57610100808354040283529160200191610479565b820191906000526020600020905b81548152906001019060200180831161045c57829003601f168201915b50505050508152602001600582018054610492906118d0565b80601f01602080910402602001604051908101604052809291908181526020018280546104be906118d0565b801561050b5780601f106104e05761010080835404028352916020019161050b565b820191906000526020600020905b8154815290600101906020018083116104ee57829003601f168201915b50505050508152602001600682018054610524906118d0565b80601f0160208091040260200160405190810160405280929190818152602001828054610550906118d0565b801561059d5780601f106105725761010080835404028352916020019161059d565b820191906000526020600020905b81548152906001019060200180831161058057829003601f168201915b5050505050815250509050919050565b6105b56113c2565b60008084846040516020016105cb9291906118a1565b6040516020818303038152906040528051906020012090506000600260008381526020019081526020016000208054610603906118d0565b80601f016020809104026020016040519081016040528092919081815260200182805461062f906118d0565b801561067c5780601f106106515761010080835404028352916020019161067c565b820191906000526020600020905b81548152906001019060200180831161065f57829003601f168201915b505050505090506003816040516106939190611885565b9081526040519081900360200190205460ff166106e95760405162461bcd60e51b815260206004820152600f60248201526e46616c6861206e6f206c6f67696e2160881b60448201526064015b60405180910390fd5b6000816040516106f99190611885565b908152604080516020928190038301812060e0820190925281546001600160a01b031681526001808301805493949193859284019190610738906118d0565b80601f0160208091040260200160405190810160405280929190818152602001828054610764906118d0565b80156107b15780601f10610786576101008083540402835291602001916107b1565b820191906000526020600020905b81548152906001019060200180831161079457829003601f168201915b505050505081526020016002820180546107ca906118d0565b80601f01602080910402602001604051908101604052809291908181526020018280546107f6906118d0565b80156108435780601f1061081857610100808354040283529160200191610843565b820191906000526020600020905b81548152906001019060200180831161082657829003601f168201915b5050505050815260200160038201805461085c906118d0565b80601f0160208091040260200160405190810160405280929190818152602001828054610888906118d0565b80156108d55780601f106108aa576101008083540402835291602001916108d5565b820191906000526020600020905b8154815290600101906020018083116108b857829003601f168201915b505050505081526020016004820180546108ee906118d0565b80601f016020809104026020016040519081016040528092919081815260200182805461091a906118d0565b80156109675780601f1061093c57610100808354040283529160200191610967565b820191906000526020600020905b81548152906001019060200180831161094a57829003601f168201915b50505050508152602001600582018054610980906118d0565b80601f01602080910402602001604051908101604052809291908181526020018280546109ac906118d0565b80156109f95780601f106109ce576101008083540402835291602001916109f9565b820191906000526020600020905b8154815290600101906020018083116109dc57829003601f168201915b50505050508152602001600682018054610a12906118d0565b80601f0160208091040260200160405190810160405280929190818152602001828054610a3e906118d0565b8015610a8b5780601f10610a6057610100808354040283529160200191610a8b565b820191906000526020600020905b815481529060010190602001808311610a6e57829003601f168201915b50505050508152505091509350935050509250929050565b606081600381604051610ab69190611885565b9081526040519081900360200190205460ff16610b095760405162461bcd60e51b81526020600482015260116024820152705065726d697373616f206e65676164612160781b60448201526064016106e0565b6000600384604051610b1b9190611885565b908152602001604051809103902060006101000a81548160ff0219169083151502179055506040518060400160405280601081526020016f5573756172696f2072656d6f7669646f60801b81525091505b50919050565b60015460609060009067ffffffffffffffff811115610b9357610b93611408565b604051908082528060200260200182016040528015610bcc57816020015b610bb96113c2565b815260200190600190039081610bb15790505b50905060005b8151811015610b6c5760405167383937b23aba37b960c11b602082015260280160405160208183030381529060405280519060200120600060018381548110610c1d57610c1d61197a565b90600052602060002001604051610c349190611904565b9081526020016040518091039020600601604051602001610c559190611904565b604051602081830303815290604052805190602001200361104f57600060018281548110610c8557610c8561197a565b90600052602060002001604051610c9c9190611904565b90815260408051918290036020908101832060e0840190925281546001600160a01b0316835260018201805491840191610cd5906118d0565b80601f0160208091040260200160405190810160405280929190818152602001828054610d01906118d0565b8015610d4e5780601f10610d2357610100808354040283529160200191610d4e565b820191906000526020600020905b815481529060010190602001808311610d3157829003601f168201915b50505050508152602001600282018054610d67906118d0565b80601f0160208091040260200160405190810160405280929190818152602001828054610d93906118d0565b8015610de05780601f10610db557610100808354040283529160200191610de0565b820191906000526020600020905b815481529060010190602001808311610dc357829003601f168201915b50505050508152602001600382018054610df9906118d0565b80601f0160208091040260200160405190810160405280929190818152602001828054610e25906118d0565b8015610e725780601f10610e4757610100808354040283529160200191610e72565b820191906000526020600020905b815481529060010190602001808311610e5557829003601f168201915b50505050508152602001600482018054610e8b906118d0565b80601f0160208091040260200160405190810160405280929190818152602001828054610eb7906118d0565b8015610f045780601f10610ed957610100808354040283529160200191610f04565b820191906000526020600020905b815481529060010190602001808311610ee757829003601f168201915b50505050508152602001600582018054610f1d906118d0565b80601f0160208091040260200160405190810160405280929190818152602001828054610f49906118d0565b8015610f965780601f10610f6b57610100808354040283529160200191610f96565b820191906000526020600020905b815481529060010190602001808311610f7957829003601f168201915b50505050508152602001600682018054610faf906118d0565b80601f0160208091040260200160405190810160405280929190818152602001828054610fdb906118d0565b80156110285780601f10610ffd57610100808354040283529160200191611028565b820191906000526020600020905b81548152906001019060200180831161100b57829003601f168201915b5050505050815250508282815181106110435761104361197a565b60200260200101819052505b80611059816119a6565b915050610bd2565b60008083606001518360405160200161107b9291906118a1565b60408051601f1981840301815291905280516020909101209050600860006110a482600a611aa3565b90506000866000015187604001518860600151426040516020016110cb9493929190611aaf565b60408051601f198184030181529190528051602090910120905060006110f96110f48484611b1b565b611264565b90506040518060e0016040528089600001516001600160a01b031681526020018281526020018960400151815260200189606001518152602001896080015181526020018960a0015181526020018960c0015181525060008260405161115f9190611885565b90815260405160209181900382019020825181546001600160a01b0319166001600160a01b0390911617815590820151600182019061119e9082611b7e565b50604082015160028201906111b39082611b7e565b50606082015160038201906111c89082611b7e565b50608082015160048201906111dd9082611b7e565b5060a082015160058201906111f29082611b7e565b5060c082015160068201906112079082611b7e565b50505060008581526002602052604090206112228282611b7e565b5060016003826040516112359190611885565b908152604051908190036020019020805491151560ff1990921691909117905550600194505050505092915050565b60408051606480825260a08201909252606091906000908260208201818036833701905050905060005b84156112f85760006112a1600a87611b1b565b90506112ae600a87611c3e565b95506112bb816030611c52565b60f81b83836112c9816119a6565b9450815181106112db576112db61197a565b60200101906001600160f81b031916908160001a9053505061128e565b60008167ffffffffffffffff81111561131357611313611408565b6040519080825280601f01601f19166020018201604052801561133d576020820181803683370190505b50905060005b828110156113b8578381611358600186611c65565b6113629190611c65565b815181106113725761137261197a565b602001015160f81c60f81b82828151811061138f5761138f61197a565b60200101906001600160f81b031916908160001a905350806113b0816119a6565b915050611343565b5095945050505050565b6040518060e0016040528060006001600160a01b031681526020016060815260200160608152602001606081526020016060815260200160608152602001606081525090565b634e487b7160e01b600052604160045260246000fd5b60405160e0810167ffffffffffffffff8111828210171561144157611441611408565b60405290565b600082601f83011261145857600080fd5b813567ffffffffffffffff8082111561147357611473611408565b604051601f8301601f19908116603f0116810190828211818310171561149b5761149b611408565b816040528381528660208588010111156114b457600080fd5b836020870160208301376000602085830101528094505050505092915050565b6000602082840312156114e657600080fd5b813567ffffffffffffffff8111156114fd57600080fd5b61150984828501611447565b949350505050565b6000806040838503121561152457600080fd5b823567ffffffffffffffff8082111561153c57600080fd5b61154886838701611447565b9350602085013591508082111561155e57600080fd5b5061156b85828601611447565b9150509250929050565b60005b83811015611590578181015183820152602001611578565b50506000910152565b600081518084526115b1816020860160208601611575565b601f01601f19169290920160200192915050565b60018060a01b0381511682526000602082015160e060208501526115ec60e0850182611599565b9050604083015184820360408601526116058282611599565b9150506060830151848203606086015261161f8282611599565b915050608083015184820360808601526116398282611599565b91505060a083015184820360a08601526116538282611599565b91505060c083015184820360c086015261166d8282611599565b95945050505050565b60208152600061168960208301846115c5565b9392505050565b6040815260006116a360408301856115c5565b905082151560208301529392505050565b6020815260006116896020830184611599565b6000602080830181845280855180835260408601915060408160051b870101925083870160005b8281101561171c57603f1988860301845261170a8583516115c5565b945092850192908501906001016116ee565b5092979650505050505050565b80356001600160a01b038116811461174057600080fd5b919050565b6000806040838503121561175857600080fd5b823567ffffffffffffffff8082111561177057600080fd5b9084019060e0828703121561178457600080fd5b61178c61141e565b61179583611729565b81526020830135828111156117a957600080fd5b6117b588828601611447565b6020830152506040830135828111156117cd57600080fd5b6117d988828601611447565b6040830152506060830135828111156117f157600080fd5b6117fd88828601611447565b60608301525060808301358281111561181557600080fd5b61182188828601611447565b60808301525060a08301358281111561183957600080fd5b61184588828601611447565b60a08301525060c08301358281111561185d57600080fd5b61186988828601611447565b60c0830152509350602085013591508082111561155e57600080fd5b60008251611897818460208701611575565b9190910192915050565b600083516118b3818460208801611575565b8351908301906118c7818360208801611575565b01949350505050565b600181811c908216806118e457607f821691505b602082108103610b6c57634e487b7160e01b600052602260045260246000fd5b6000808354611912816118d0565b6001828116801561192a576001811461193f5761196e565b60ff198416875282151583028701945061196e565b8760005260208060002060005b858110156119655781548a82015290840190820161194c565b50505082870194505b50929695505050505050565b634e487b7160e01b600052603260045260246000fd5b634e487b7160e01b600052601160045260246000fd5b6000600182016119b8576119b8611990565b5060010190565b600181815b808511156119fa5781600019048211156119e0576119e0611990565b808516156119ed57918102915b93841c93908002906119c4565b509250929050565b600082611a11575060016101f3565b81611a1e575060006101f3565b8160018114611a345760028114611a3e57611a5a565b60019150506101f3565b60ff841115611a4f57611a4f611990565b50506001821b6101f3565b5060208310610133831016604e8410600b8410161715611a7d575081810a6101f3565b611a8783836119bf565b8060001904821115611a9b57611a9b611990565b029392505050565b60006116898383611a02565b6bffffffffffffffffffffffff198560601b16815260008451611ad9816014850160208901611575565b845190830190611af0816014840160208901611575565b01601481019390935250506034019392505050565b634e487b7160e01b600052601260045260246000fd5b600082611b2a57611b2a611b05565b500690565b601f821115611b7957600081815260208120601f850160051c81016020861015611b565750805b601f850160051c820191505b81811015611b7557828155600101611b62565b5050505b505050565b815167ffffffffffffffff811115611b9857611b98611408565b611bac81611ba684546118d0565b84611b2f565b602080601f831160018114611be15760008415611bc95750858301515b600019600386901b1c1916600185901b178555611b75565b600085815260208120601f198616915b82811015611c1057888601518255948401946001909101908401611bf1565b5085821015611c2e5787850151600019600388901b60f8161c191681555b5050505050600190811b01905550565b600082611c4d57611c4d611b05565b500490565b808201808211156101f3576101f3611990565b818103818111156101f3576101f361199056fea26469706673582212206f62808fd1e84410c51dc913bde7b8d8a5f8e07d8f9d84c17dfd4c53fdfeedb764736f6c63430008110033",
  "immutableReferences": {},
  "source": "// SPDX-License-Identifier: MIT\r\npragma solidity ^0.8.17;\r\nenum UnitType {\r\n    unidade,\r\n    caixa,\r\n    palete\r\n}\r\nstruct User {\r\n    address addr;\r\n    string id;\r\n    string name;\r\n    string email;\r\n    string certification;\r\n    string company;\r\n    string role;\r\n}\r\n\r\ncontract Authentication {\r\n    mapping(string => User) users; // id => User\r\n    string[] usersId;\r\n    mapping(bytes32 => string) login; // password => id user\r\n    mapping(string => bool) status; // id => boolean. Usuarios ativos com permissao de modificaao\r\n\r\n    modifier onlyOWNER(string memory _id) {\r\n        require(status[_id], \"Permissao negada!\");\r\n        _;\r\n    }\r\n\r\n    function register(\r\n        User memory _user,\r\n        string memory _password\r\n    ) public returns (bool) {\r\n        // Registrar o produtor\r\n        //string memory _id = generateId(_addr, _name, password, _date);\r\n        bytes32 password = keccak256(abi.encodePacked(_user.email, _password));\r\n        uint hashDigits = 8;\r\n        uint hashModulus = 10 ** hashDigits;\r\n        uint _hash = uint(\r\n            keccak256(\r\n                abi.encodePacked(\r\n                    _user.addr,\r\n                    _user.name,\r\n                    _user.email,\r\n                    block.timestamp\r\n                )\r\n            )\r\n        );\r\n\r\n        string memory _id = uintToString(_hash % hashModulus);\r\n\r\n        users[_id] = User(\r\n            _user.addr,\r\n            _id,\r\n            _user.name,\r\n            _user.email,\r\n            _user.certification,\r\n            _user.company,\r\n            _user.role\r\n        );\r\n        login[password] = _id;\r\n        status[_id] = true;\r\n        return true;\r\n    }\r\n\r\n    function getUser(string memory _id) public view returns (User memory) {\r\n        return users[_id];\r\n    }\r\n\r\n    function getProducers() public view returns (User[] memory) {\r\n        User[] memory userArray = new User[](usersId.length);\r\n        for (uint256 i = 0; i < userArray.length; i++) {\r\n            if (\r\n                keccak256(abi.encodePacked(users[usersId[i]].role)) ==\r\n                keccak256(abi.encodePacked(\"produtor\"))\r\n            ) {\r\n                userArray[i] = users[usersId[i]];\r\n            }\r\n        }\r\n        return userArray;\r\n    }\r\n\r\n    function activeUser(string memory _id) public view returns (bool) {\r\n        return status[_id];\r\n    }\r\n\r\n    function removeUser(\r\n        string memory _id\r\n    ) public onlyOWNER(_id) returns (string memory) {\r\n        status[_id] = false;\r\n        return \"Usuario removido\";\r\n    }\r\n\r\n    function logon(\r\n        string memory _user,\r\n        string memory _password\r\n    ) public view returns (User memory, bool) {\r\n        bytes32 password = keccak256(abi.encodePacked(_user, _password));\r\n        string memory id = login[password];\r\n        require(status[id], \"Falha no login!\");\r\n        return (users[id], true);\r\n    }\r\n\r\n    function verifyPassword(\r\n        string memory _user,\r\n        string memory _password\r\n    ) public view returns (bool) {\r\n        bytes32 password = keccak256(abi.encodePacked(_user, _password));\r\n        if (\r\n            keccak256(abi.encodePacked(login[password])) ==\r\n            keccak256(abi.encodePacked(\"\"))\r\n        ) {\r\n            return true;\r\n        } else {\r\n            return false;\r\n        }\r\n    }\r\n\r\n    function uintToString(uint v) internal pure returns (string memory str) {\r\n        uint maxlength = 100;\r\n        bytes memory reversed = new bytes(maxlength);\r\n        uint i = 0;\r\n        while (v != 0) {\r\n            uint remainder = v % 10;\r\n            v = v / 10;\r\n            reversed[i++] = bytes1(uint8(48 + remainder));\r\n        }\r\n        bytes memory s = new bytes(i);\r\n        for (uint j = 0; j < i; j++) {\r\n            s[j] = reversed[i - 1 - j];\r\n        }\r\n        return str = string(s);\r\n    }\r\n    // function generateId(\r\n    //     address _addr,\r\n    //     string memory _name,\r\n    //     bytes32 _password,\r\n    //     string memory _date\r\n    // ) internal view returns (string memory) {\r\n    //     uint hashDigits = 6;\r\n    //     uint hashModulus = 10 ** hashDigits;\r\n    //     uint random = uint(\r\n    //         keccak256(\r\n    //             abi.encodePacked(_addr, _name, _password, block.timestamp)\r\n    //         )\r\n    //     );\r\n    //     uint result = random % hashModulus;\r\n    //     string memory resultString = uintToString(result);\r\n\r\n    //     return string(abi.encodePacked(resultString, _date));\r\n    // }\r\n}\r\n",
  "sourcePath": "C:\\Users\\samue\\Documents\\Workspace_react\\BlockForBees\\backend_blockcahin\\contracts\\Authentication.sol",
  "compiler": {
    "name": "solc",
    "version": "0.8.17+commit.8df45f5f.Emscripten.clang"
  },
  "schemaVersion": "3.4.11",
  "updatedAt": "2023-06-25T09:34:49.101Z",
  "networkType": "ethereum",
  "devdoc": {
    "kind": "dev",
    "methods": {},
    "version": 1
  },
  "userdoc": {
    "kind": "user",
    "methods": {},
    "version": 1
  }
}