{
  "contractName": "Authentication",
  "abi": [
    {
      "inputs": [
        {
          "components": [
            {
              "internalType": "address",
              "name": "addr",
              "type": "address"
            },
            {
              "internalType": "string",
              "name": "id",
              "type": "string"
            },
            {
              "internalType": "string",
              "name": "name",
              "type": "string"
            },
            {
              "internalType": "string",
              "name": "certification",
              "type": "string"
            },
            {
              "components": [
                {
                  "internalType": "string",
                  "name": "name",
                  "type": "string"
                },
                {
                  "internalType": "string",
                  "name": "street",
                  "type": "string"
                },
                {
                  "internalType": "string",
                  "name": "city",
                  "type": "string"
                },
                {
                  "internalType": "string",
                  "name": "country",
                  "type": "string"
                }
              ],
              "internalType": "struct Company",
              "name": "company",
              "type": "tuple"
            },
            {
              "internalType": "string",
              "name": "role",
              "type": "string"
            }
          ],
          "internalType": "struct User",
          "name": "_user",
          "type": "tuple"
        },
        {
          "internalType": "string",
          "name": "_login",
          "type": "string"
        },
        {
          "internalType": "string",
          "name": "_password",
          "type": "string"
        }
      ],
      "name": "register",
      "outputs": [
        {
          "internalType": "bool",
          "name": "",
          "type": "bool"
        }
      ],
      "stateMutability": "nonpayable",
      "type": "function"
    },
    {
      "inputs": [
        {
          "internalType": "string",
          "name": "_id",
          "type": "string"
        }
      ],
      "name": "getUser",
      "outputs": [
        {
          "components": [
            {
              "internalType": "address",
              "name": "addr",
              "type": "address"
            },
            {
              "internalType": "string",
              "name": "id",
              "type": "string"
            },
            {
              "internalType": "string",
              "name": "name",
              "type": "string"
            },
            {
              "internalType": "string",
              "name": "certification",
              "type": "string"
            },
            {
              "components": [
                {
                  "internalType": "string",
                  "name": "name",
                  "type": "string"
                },
                {
                  "internalType": "string",
                  "name": "street",
                  "type": "string"
                },
                {
                  "internalType": "string",
                  "name": "city",
                  "type": "string"
                },
                {
                  "internalType": "string",
                  "name": "country",
                  "type": "string"
                }
              ],
              "internalType": "struct Company",
              "name": "company",
              "type": "tuple"
            },
            {
              "internalType": "string",
              "name": "role",
              "type": "string"
            }
          ],
          "internalType": "struct User",
          "name": "",
          "type": "tuple"
        }
      ],
      "stateMutability": "view",
      "type": "function",
      "constant": true
    },
    {
      "inputs": [
        {
          "internalType": "string",
          "name": "_id",
          "type": "string"
        }
      ],
      "name": "activeUser",
      "outputs": [
        {
          "internalType": "bool",
          "name": "",
          "type": "bool"
        }
      ],
      "stateMutability": "view",
      "type": "function",
      "constant": true
    },
    {
      "inputs": [
        {
          "internalType": "string",
          "name": "_id",
          "type": "string"
        }
      ],
      "name": "removeUser",
      "outputs": [
        {
          "internalType": "string",
          "name": "",
          "type": "string"
        }
      ],
      "stateMutability": "nonpayable",
      "type": "function"
    },
    {
      "inputs": [
        {
          "internalType": "string",
          "name": "_user",
          "type": "string"
        },
        {
          "internalType": "string",
          "name": "_password",
          "type": "string"
        }
      ],
      "name": "logon",
      "outputs": [
        {
          "components": [
            {
              "internalType": "address",
              "name": "addr",
              "type": "address"
            },
            {
              "internalType": "string",
              "name": "id",
              "type": "string"
            },
            {
              "internalType": "string",
              "name": "name",
              "type": "string"
            },
            {
              "internalType": "string",
              "name": "certification",
              "type": "string"
            },
            {
              "components": [
                {
                  "internalType": "string",
                  "name": "name",
                  "type": "string"
                },
                {
                  "internalType": "string",
                  "name": "street",
                  "type": "string"
                },
                {
                  "internalType": "string",
                  "name": "city",
                  "type": "string"
                },
                {
                  "internalType": "string",
                  "name": "country",
                  "type": "string"
                }
              ],
              "internalType": "struct Company",
              "name": "company",
              "type": "tuple"
            },
            {
              "internalType": "string",
              "name": "role",
              "type": "string"
            }
          ],
          "internalType": "struct User",
          "name": "",
          "type": "tuple"
        },
        {
          "internalType": "bool",
          "name": "",
          "type": "bool"
        }
      ],
      "stateMutability": "view",
      "type": "function",
      "constant": true
    },
    {
      "inputs": [
        {
          "internalType": "string",
          "name": "_user",
          "type": "string"
        },
        {
          "internalType": "string",
          "name": "_password",
          "type": "string"
        }
      ],
      "name": "verifyPassword",
      "outputs": [
        {
          "internalType": "bool",
          "name": "",
          "type": "bool"
        }
      ],
      "stateMutability": "view",
      "type": "function",
      "constant": true
    }
  ],
  "bytecode": "0x608060405234801561001057600080fd5b50611791806100206000396000f3fe608060405234801561001057600080fd5b50600436106100625760003560e01c8063175757d5146100675780632fe6269f1461008f57806331feb671146100a25780634b360a37146100c2578063600cee78146100e357806390533f7114610103575b600080fd5b61007a6100753660046110f9565b610116565b60405190151581526020015b60405180910390f35b61007a61009d366004611136565b610141565b6100b56100b03660046110f9565b6101c9565b60405161008691906112da565b6100d56100d0366004611136565b6106b5565b6040516100869291906112f4565b6100f66100f13660046110f9565b610ce3565b6040516100869190611318565b61007a610111366004611400565b610db2565b60006003826040516101289190611557565b9081526040519081900360200190205460ff1692915050565b6000808383604051602001610157929190611573565b60408051601f1981840301815282825280516020918201206000808552848301808552855190208282526002909352839020909450909261019892016115d6565b60405160208183030381529060405280519060200120036101bd5760019150506101c3565b60009150505b92915050565b6101d1610fa2565b6001826040516101e19190611557565b90815260408051918290036020908101832060c0840190925281546001600160a01b031683526001820180549184019161021a906115a2565b80601f0160208091040260200160405190810160405280929190818152602001828054610246906115a2565b80156102935780601f1061026857610100808354040283529160200191610293565b820191906000526020600020905b81548152906001019060200180831161027657829003601f168201915b505050505081526020016002820180546102ac906115a2565b80601f01602080910402602001604051908101604052809291908181526020018280546102d8906115a2565b80156103255780601f106102fa57610100808354040283529160200191610325565b820191906000526020600020905b81548152906001019060200180831161030857829003601f168201915b5050505050815260200160038201805461033e906115a2565b80601f016020809104026020016040519081016040528092919081815260200182805461036a906115a2565b80156103b75780601f1061038c576101008083540402835291602001916103b7565b820191906000526020600020905b81548152906001019060200180831161039a57829003601f168201915b50505050508152602001600482016040518060800160405290816000820180546103e0906115a2565b80601f016020809104026020016040519081016040528092919081815260200182805461040c906115a2565b80156104595780601f1061042e57610100808354040283529160200191610459565b820191906000526020600020905b81548152906001019060200180831161043c57829003601f168201915b50505050508152602001600182018054610472906115a2565b80601f016020809104026020016040519081016040528092919081815260200182805461049e906115a2565b80156104eb5780601f106104c0576101008083540402835291602001916104eb565b820191906000526020600020905b8154815290600101906020018083116104ce57829003601f168201915b50505050508152602001600282018054610504906115a2565b80601f0160208091040260200160405190810160405280929190818152602001828054610530906115a2565b801561057d5780601f106105525761010080835404028352916020019161057d565b820191906000526020600020905b81548152906001019060200180831161056057829003601f168201915b50505050508152602001600382018054610596906115a2565b80601f01602080910402602001604051908101604052809291908181526020018280546105c2906115a2565b801561060f5780601f106105e45761010080835404028352916020019161060f565b820191906000526020600020905b8154815290600101906020018083116105f257829003601f168201915b505050505081525050815260200160088201805461062c906115a2565b80601f0160208091040260200160405190810160405280929190818152602001828054610658906115a2565b80156106a55780601f1061067a576101008083540402835291602001916106a5565b820191906000526020600020905b81548152906001019060200180831161068857829003601f168201915b5050505050815250509050919050565b6106bd610fa2565b60008084846040516020016106d3929190611573565b604051602081830303815290604052805190602001209050600060026000838152602001908152602001600020805461070b906115a2565b80601f0160208091040260200160405190810160405280929190818152602001828054610737906115a2565b80156107845780601f1061075957610100808354040283529160200191610784565b820191906000526020600020905b81548152906001019060200180831161076757829003601f168201915b5050505050905060038160405161079b9190611557565b9081526040519081900360200190205460ff166107f15760405162461bcd60e51b815260206004820152600f60248201526e46616c6861206e6f206c6f67696e2160881b60448201526064015b60405180910390fd5b6001816040516108019190611557565b908152604080516020928190038301812060c0820190925281546001600160a01b031681526001808301805493949193859284019190610840906115a2565b80601f016020809104026020016040519081016040528092919081815260200182805461086c906115a2565b80156108b95780601f1061088e576101008083540402835291602001916108b9565b820191906000526020600020905b81548152906001019060200180831161089c57829003601f168201915b505050505081526020016002820180546108d2906115a2565b80601f01602080910402602001604051908101604052809291908181526020018280546108fe906115a2565b801561094b5780601f106109205761010080835404028352916020019161094b565b820191906000526020600020905b81548152906001019060200180831161092e57829003601f168201915b50505050508152602001600382018054610964906115a2565b80601f0160208091040260200160405190810160405280929190818152602001828054610990906115a2565b80156109dd5780601f106109b2576101008083540402835291602001916109dd565b820191906000526020600020905b8154815290600101906020018083116109c057829003601f168201915b5050505050815260200160048201604051806080016040529081600082018054610a06906115a2565b80601f0160208091040260200160405190810160405280929190818152602001828054610a32906115a2565b8015610a7f5780601f10610a5457610100808354040283529160200191610a7f565b820191906000526020600020905b815481529060010190602001808311610a6257829003601f168201915b50505050508152602001600182018054610a98906115a2565b80601f0160208091040260200160405190810160405280929190818152602001828054610ac4906115a2565b8015610b115780601f10610ae657610100808354040283529160200191610b11565b820191906000526020600020905b815481529060010190602001808311610af457829003601f168201915b50505050508152602001600282018054610b2a906115a2565b80601f0160208091040260200160405190810160405280929190818152602001828054610b56906115a2565b8015610ba35780601f10610b7857610100808354040283529160200191610ba3565b820191906000526020600020905b815481529060010190602001808311610b8657829003601f168201915b50505050508152602001600382018054610bbc906115a2565b80601f0160208091040260200160405190810160405280929190818152602001828054610be8906115a2565b8015610c355780601f10610c0a57610100808354040283529160200191610c35565b820191906000526020600020905b815481529060010190602001808311610c1857829003601f168201915b5050505050815250508152602001600882018054610c52906115a2565b80601f0160208091040260200160405190810160405280929190818152602001828054610c7e906115a2565b8015610ccb5780601f10610ca057610100808354040283529160200191610ccb565b820191906000526020600020905b815481529060010190602001808311610cae57829003601f168201915b50505050508152505091509350935050509250929050565b606081600381604051610cf69190611557565b9081526040519081900360200190205460ff16610d495760405162461bcd60e51b81526020600482015260116024820152705065726d697373616f206e65676164612160781b60448201526064016107e8565b6000600384604051610d5b9190611557565b908152602001604051809103902060006101000a81548160ff0219169083151502179055506040518060400160405280601081526020016f5573756172696f2072656d6f7669646f60801b81525091505b50919050565b6000808383604051602001610dc8929190611573565b60408051601f19818403018152828252805160209182012060c08401835288516001600160a01b0316845288820180518584015289840151858501526060808b015181870152845160808181018752808d0180515183528051870151968301969096528551870151828801529451820151918101919091529285019290925260a0808a01519085015290519151909350600191610e6491611557565b90815260405160209181900382019020825181546001600160a01b0319166001600160a01b03909116178155908201516001820190610ea3908261169b565b5060408201516002820190610eb8908261169b565b5060608201516003820190610ecd908261169b565b506080820151805160048301908190610ee6908261169b565b5060208201516001820190610efb908261169b565b5060408201516002820190610f10908261169b565b5060608201516003820190610f25908261169b565b50505060a08201516008820190610f3c908261169b565b50505060208086015160008381526002909252604090912090610f5f908261169b565b50600160038660200151604051610f769190611557565b908152604051908190036020019020805491151560ff1990921691909117905550600190509392505050565b6040518060c0016040528060006001600160a01b03168152602001606081526020016060815260200160608152602001610ffd6040518060800160405280606081526020016060815260200160608152602001606081525090565b8152602001606081525090565b634e487b7160e01b600052604160045260246000fd5b6040516080810167ffffffffffffffff811182821017156110435761104361100a565b60405290565b60405160c0810167ffffffffffffffff811182821017156110435761104361100a565b600082601f83011261107d57600080fd5b813567ffffffffffffffff808211156110985761109861100a565b604051601f8301601f19908116603f011681019082821181831017156110c0576110c061100a565b816040528381528660208588010111156110d957600080fd5b836020870160208301376000602085830101528094505050505092915050565b60006020828403121561110b57600080fd5b813567ffffffffffffffff81111561112257600080fd5b61112e8482850161106c565b949350505050565b6000806040838503121561114957600080fd5b823567ffffffffffffffff8082111561116157600080fd5b61116d8683870161106c565b9350602085013591508082111561118357600080fd5b506111908582860161106c565b9150509250929050565b60005b838110156111b557818101518382015260200161119d565b50506000910152565b600081518084526111d681602086016020860161119a565b601f01601f19169290920160200192915050565b60018060a01b0381511682526000602082015160c0602085015261121160c08501826111be565b90506040830151848203604086015261122a82826111be565b9150506060830151848203606086015261124482826111be565b9150506080830151848203608086015280516080835261126760808401826111be565b90506020820151838203602085015261128082826111be565b9150506040820151838203604085015261129a82826111be565b9150506060820151915082810360608401526112b681836111be565b9250505060a083015184820360a08601526112d182826111be565b95945050505050565b6020815260006112ed60208301846111ea565b9392505050565b60408152600061130760408301856111ea565b905082151560208301529392505050565b6020815260006112ed60208301846111be565b80356001600160a01b038116811461134257600080fd5b919050565b60006080828403121561135957600080fd5b611361611020565b9050813567ffffffffffffffff8082111561137b57600080fd5b6113878583860161106c565b8352602084013591508082111561139d57600080fd5b6113a98583860161106c565b602084015260408401359150808211156113c257600080fd5b6113ce8583860161106c565b604084015260608401359150808211156113e757600080fd5b506113f48482850161106c565b60608301525092915050565b60008060006060848603121561141557600080fd5b833567ffffffffffffffff8082111561142d57600080fd5b9085019060c0828803121561144157600080fd5b611449611049565b6114528361132b565b815260208301358281111561146657600080fd5b6114728982860161106c565b60208301525060408301358281111561148a57600080fd5b6114968982860161106c565b6040830152506060830135828111156114ae57600080fd5b6114ba8982860161106c565b6060830152506080830135828111156114d257600080fd5b6114de89828601611347565b60808301525060a0830135828111156114f657600080fd5b6115028982860161106c565b60a0830152509450602086013591508082111561151e57600080fd5b61152a8783880161106c565b9350604086013591508082111561154057600080fd5b5061154d8682870161106c565b9150509250925092565b6000825161156981846020870161119a565b9190910192915050565b6000835161158581846020880161119a565b83519083019061159981836020880161119a565b01949350505050565b600181811c908216806115b657607f821691505b602082108103610dac57634e487b7160e01b600052602260045260246000fd5b60008083546115e4816115a2565b600182811680156115fc576001811461161157611640565b60ff1984168752821515830287019450611640565b8760005260208060002060005b858110156116375781548a82015290840190820161161e565b50505082870194505b50929695505050505050565b601f82111561169657600081815260208120601f850160051c810160208610156116735750805b601f850160051c820191505b818110156116925782815560010161167f565b5050505b505050565b815167ffffffffffffffff8111156116b5576116b561100a565b6116c9816116c384546115a2565b8461164c565b602080601f8311600181146116fe57600084156116e65750858301515b600019600386901b1c1916600185901b178555611692565b600085815260208120601f198616915b8281101561172d5788860151825594840194600190910190840161170e565b508582101561174b5787850151600019600388901b60f8161c191681555b5050505050600190811b0190555056fea26469706673582212202bd907e7c299bcda8468714cb2e296536a8adea4d8bf90b6de9f27d8990200c264736f6c63430008110033",
  "immutableReferences": {},
  "source": "// SPDX-License-Identifier: MIT\r\npragma solidity ^0.8.17;\r\n\r\nstruct Company {\r\n    string name;\r\n    string street;\r\n    string city;\r\n    string country;\r\n}\r\n\r\nstruct User {\r\n    address addr;\r\n    string id;\r\n    string name;\r\n    string certification;\r\n    Company company;\r\n    string role;\r\n}\r\n\r\ncontract Authentication {\r\n    uint count;\r\n    mapping(string => User) users; // id => User\r\n    mapping(bytes32 => string) login; // password => id user\r\n    mapping(string => bool) status; // id => boolean. Usuarios ativos com permissao de modificaao\r\n\r\n    modifier onlyOWNER(string memory _id) {\r\n        require(status[_id], \"Permissao negada!\");\r\n        _;\r\n    }\r\n\r\n    function register(\r\n        User memory _user,\r\n        string memory _login,\r\n        string memory _password\r\n    ) public returns (bool) {\r\n        // Registrar o produtor\r\n        //string memory _id = generateId(_addr, _name, password, _date);\r\n        bytes32 password = keccak256(abi.encodePacked(_login, _password));\r\n        users[_user.id] = User(\r\n            _user.addr,\r\n            _user.id,\r\n            _user.name,\r\n            _user.certification,\r\n            Company(\r\n                _user.company.name,\r\n                _user.company.street,\r\n                _user.company.city,\r\n                _user.company.country\r\n            ),\r\n            _user.role\r\n        );\r\n        login[password] = _user.id;\r\n        status[_user.id] = true;\r\n        return true;\r\n    }\r\n\r\n    function getUser(string memory _id) public view returns (User memory) {\r\n        return users[_id];\r\n    }\r\n\r\n    function activeUser(string memory _id) public view returns (bool) {\r\n        return status[_id];\r\n    }\r\n\r\n    function removeUser(\r\n        string memory _id\r\n    ) public onlyOWNER(_id) returns (string memory) {\r\n        status[_id] = false;\r\n        return \"Usuario removido\";\r\n    }\r\n\r\n    function logon(\r\n        string memory _user,\r\n        string memory _password\r\n    ) public view returns (User memory, bool) {\r\n        bytes32 password = keccak256(abi.encodePacked(_user, _password));\r\n        string memory id = login[password];\r\n        require(status[id], \"Falha no login!\");\r\n        return (users[id], true);\r\n    }\r\n\r\n    function verifyPassword(\r\n        string memory _user,\r\n        string memory _password\r\n    ) public view returns (bool) {\r\n        bytes32 password = keccak256(abi.encodePacked(_user, _password));\r\n        if (\r\n            keccak256(abi.encodePacked(login[password])) ==\r\n            keccak256(abi.encodePacked(\"\"))\r\n        ) {\r\n            return true;\r\n        } else {\r\n            return false;\r\n        }\r\n    }\r\n}\r\n// function generateId(\r\n//     address _addr,\r\n//     string memory _name,\r\n//     bytes32 _password,\r\n//     string memory _date\r\n// ) internal view returns (string memory) {\r\n//     uint hashDigits = 6;\r\n//     uint hashModulus = 10 ** hashDigits;\r\n//     uint random = uint(\r\n//         keccak256(\r\n//             abi.encodePacked(_addr, _name, _password, block.timestamp)\r\n//         )\r\n//     );\r\n//     uint result = random % hashModulus;\r\n//     string memory resultString = uintToString(result);\r\n\r\n//     return string(abi.encodePacked(resultString, _date));\r\n// }\r\n\r\n// function uintToString(uint v) internal pure returns (string memory str) {\r\n//     uint maxlength = 100;\r\n//     bytes memory reversed = new bytes(maxlength);\r\n//     uint i = 0;\r\n//     while (v != 0) {\r\n//         uint remainder = v % 10;\r\n//         v = v / 10;\r\n//         reversed[i++] = bytes1(uint8(48 + remainder));\r\n//     }\r\n//     bytes memory s = new bytes(i);\r\n//     for (uint j = 0; j < i; j++) {\r\n//         s[j] = reversed[i - 1 - j];\r\n//     }\r\n//     return str = string(s);\r\n// }\r\n",
  "sourcePath": "C:\\Users\\samue\\Documents\\Workspace_react\\BlockForBees\\backend_blockcahin\\contracts\\Authentication.sol",
  "compiler": {
    "name": "solc",
    "version": "0.8.17+commit.8df45f5f.Emscripten.clang"
  },
  "schemaVersion": "3.4.11",
  "updatedAt": "2023-04-26T22:53:01.324Z",
  "networkType": "ethereum",
  "devdoc": {
    "kind": "dev",
    "methods": {},
    "version": 1
  },
  "userdoc": {
    "kind": "user",
    "methods": {},
    "version": 1
  }
}