{
  "contractName": "Auth",
  "abi": [
    {
      "inputs": [
        {
          "internalType": "address",
          "name": "_address",
          "type": "address"
        },
        {
          "internalType": "string",
          "name": "_name",
          "type": "string"
        },
        {
          "internalType": "string",
          "name": "_password",
          "type": "string"
        }
      ],
      "name": "register",
      "outputs": [
        {
          "internalType": "bool",
          "name": "",
          "type": "bool"
        }
      ],
      "stateMutability": "nonpayable",
      "type": "function"
    },
    {
      "inputs": [
        {
          "internalType": "address",
          "name": "_address",
          "type": "address"
        },
        {
          "internalType": "string",
          "name": "_password",
          "type": "string"
        }
      ],
      "name": "login",
      "outputs": [
        {
          "internalType": "bool",
          "name": "",
          "type": "bool"
        }
      ],
      "stateMutability": "nonpayable",
      "type": "function"
    },
    {
      "inputs": [
        {
          "internalType": "address",
          "name": "_address",
          "type": "address"
        }
      ],
      "name": "checkIsUserLogged",
      "outputs": [
        {
          "internalType": "bool",
          "name": "",
          "type": "bool"
        }
      ],
      "stateMutability": "view",
      "type": "function"
    },
    {
      "inputs": [
        {
          "internalType": "address",
          "name": "_address",
          "type": "address"
        }
      ],
      "name": "logout",
      "outputs": [],
      "stateMutability": "nonpayable",
      "type": "function"
    }
  ],
  "bytecode": "0x608060405234801561001057600080fd5b5061060a806100206000396000f3fe608060405234801561001057600080fd5b506004361061004c5760003560e01c8063297f7b39146100515780632f19d50b146100945780638d59cc02146100a7578063cc51f9b9146100ba575b600080fd5b61008061005f36600461025f565b6001600160a01b031660009081526020819052604090206007015460ff1690565b604051901515815260200160405180910390f35b6100806100a2366004610324565b6100ee565b6100806100b5366004610372565b610193565b6100ec6100c836600461025f565b6001600160a01b03166000908152602081905260409020600701805460ff19169055565b005b60008160405160200161010191906103e6565b60408051601f1981840301815282825280516020918201206001600160a01b038716600090815280835292909220919261013f92600201910161044f565b604051602081830303815290604052805190602001200361018957506001600160a01b0382166000908152602081905260409020600701805460ff1916600190811790915561018d565b5060005b92915050565b6001600160a01b038381166000908152602081905260408120549091339116036101bc57600080fd5b6001600160a01b038416600081815260208190526040902080546001600160a01b03191690911781556001016101f28482610514565b506001600160a01b03841660009081526020819052604090206002016102188382610514565b505050506001600160a01b03166000908152602081905260409020600701805460ff19169055600190565b80356001600160a01b038116811461025a57600080fd5b919050565b60006020828403121561027157600080fd5b61027a82610243565b9392505050565b634e487b7160e01b600052604160045260246000fd5b600082601f8301126102a857600080fd5b813567ffffffffffffffff808211156102c3576102c3610281565b604051601f8301601f19908116603f011681019082821181831017156102eb576102eb610281565b8160405283815286602085880101111561030457600080fd5b836020870160208301376000602085830101528094505050505092915050565b6000806040838503121561033757600080fd5b61034083610243565b9150602083013567ffffffffffffffff81111561035c57600080fd5b61036885828601610297565b9150509250929050565b60008060006060848603121561038757600080fd5b61039084610243565b9250602084013567ffffffffffffffff808211156103ad57600080fd5b6103b987838801610297565b935060408601359150808211156103cf57600080fd5b506103dc86828701610297565b9150509250925092565b6000825160005b8181101561040757602081860181015185830152016103ed565b506000920191825250919050565b600181811c9082168061042957607f821691505b60208210810361044957634e487b7160e01b600052602260045260246000fd5b50919050565b600080835461045d81610415565b60018281168015610475576001811461048a576104b9565b60ff19841687528215158302870194506104b9565b8760005260208060002060005b858110156104b05781548a820152908401908201610497565b50505082870194505b50929695505050505050565b601f82111561050f57600081815260208120601f850160051c810160208610156104ec5750805b601f850160051c820191505b8181101561050b578281556001016104f8565b5050505b505050565b815167ffffffffffffffff81111561052e5761052e610281565b6105428161053c8454610415565b846104c5565b602080601f831160018114610577576000841561055f5750858301515b600019600386901b1c1916600185901b17855561050b565b600085815260208120601f198616915b828110156105a657888601518255948401946001909101908401610587565b50858210156105c45787850151600019600388901b60f8161c191681555b5050505050600190811b0190555056fea2646970667358221220be1725087b07b793f6dcf1c373e19fb4ea39f1422262fdafa260f1545dd0b02064736f6c63430008110033",
  "immutableReferences": {},
  "source": "// SPDX-License-Identifier: MIT\r\npragma solidity ^0.8.17;\r\n\r\ncontract Auth {\r\n    struct UserDetail {\r\n        address addr;\r\n        string name;\r\n        string password;\r\n        string cpf;\r\n        string user;\r\n        string town;\r\n        string email;\r\n        bool isUserLoggedIn;\r\n    }\r\n\r\n    mapping(address => UserDetail) user;\r\n\r\n    // user registration function\r\n    function register(\r\n        address _address,\r\n        string memory _name,\r\n        string memory _password\r\n    ) public returns (bool) {\r\n        require(user[_address].addr != msg.sender);\r\n        user[_address].addr = _address;\r\n        user[_address].name = _name;\r\n        user[_address].password = _password;\r\n        user[_address].isUserLoggedIn = false;\r\n        return true;\r\n    }\r\n\r\n    // user login function\r\n    function login(\r\n        address _address,\r\n        string memory _password\r\n    ) public returns (bool) {\r\n        if (\r\n            keccak256(abi.encodePacked(user[_address].password)) ==\r\n            keccak256(abi.encodePacked(_password))\r\n        ) {\r\n            user[_address].isUserLoggedIn = true;\r\n            return user[_address].isUserLoggedIn;\r\n        } else {\r\n            return false;\r\n        }\r\n    }\r\n\r\n    // check the user logged In or not\r\n    function checkIsUserLogged(address _address) public view returns (bool) {\r\n        return (user[_address].isUserLoggedIn);\r\n    }\r\n\r\n    // logout the user\r\n    function logout(address _address) public {\r\n        user[_address].isUserLoggedIn = false;\r\n    }\r\n}\r\n",
  "sourcePath": "C:\\Users\\samue\\Documents\\Workspace_react\\BlockForBees\\backend_blockcahin\\contracts\\Auth.sol",
  "compiler": {
    "name": "solc",
    "version": "0.8.17+commit.8df45f5f.Emscripten.clang"
  },
  "schemaVersion": "3.4.11",
  "updatedAt": "2023-04-25T01:20:18.632Z",
  "devdoc": {
    "kind": "dev",
    "methods": {},
    "version": 1
  },
  "userdoc": {
    "kind": "user",
    "methods": {},
    "version": 1
  }
}