{
  "contractName": "Authentication",
  "abi": [
    {
      "inputs": [
        {
          "internalType": "address",
          "name": "",
          "type": "address"
        }
      ],
      "name": "users",
      "outputs": [
        {
          "internalType": "bool",
          "name": "",
          "type": "bool"
        }
      ],
      "stateMutability": "view",
      "type": "function",
      "constant": true
    },
    {
      "inputs": [
        {
          "internalType": "string",
          "name": "_type",
          "type": "string"
        },
        {
          "internalType": "address",
          "name": "_addr",
          "type": "address"
        },
        {
          "internalType": "string",
          "name": "_name",
          "type": "string"
        },
        {
          "internalType": "string",
          "name": "_password",
          "type": "string"
        },
        {
          "internalType": "string",
          "name": "_town",
          "type": "string"
        },
        {
          "internalType": "string",
          "name": "_apiary",
          "type": "string"
        },
        {
          "internalType": "string",
          "name": "_email",
          "type": "string"
        },
        {
          "internalType": "string",
          "name": "_stablishment",
          "type": "string"
        },
        {
          "internalType": "string",
          "name": "_certification",
          "type": "string"
        }
      ],
      "name": "register",
      "outputs": [
        {
          "internalType": "string",
          "name": "",
          "type": "string"
        }
      ],
      "stateMutability": "nonpayable",
      "type": "function"
    },
    {
      "inputs": [],
      "name": "getProductor",
      "outputs": [
        {
          "components": [
            {
              "internalType": "address",
              "name": "addr",
              "type": "address"
            },
            {
              "internalType": "string",
              "name": "name",
              "type": "string"
            },
            {
              "internalType": "bytes32",
              "name": "password",
              "type": "bytes32"
            },
            {
              "internalType": "string",
              "name": "town",
              "type": "string"
            },
            {
              "internalType": "string",
              "name": "apiary",
              "type": "string"
            },
            {
              "internalType": "string",
              "name": "email",
              "type": "string"
            }
          ],
          "internalType": "struct Authentication.Productor",
          "name": "",
          "type": "tuple"
        }
      ],
      "stateMutability": "view",
      "type": "function",
      "constant": true
    },
    {
      "inputs": [],
      "name": "getProcessor",
      "outputs": [
        {
          "components": [
            {
              "internalType": "address",
              "name": "addr",
              "type": "address"
            },
            {
              "internalType": "string",
              "name": "name",
              "type": "string"
            },
            {
              "internalType": "bytes32",
              "name": "password",
              "type": "bytes32"
            },
            {
              "internalType": "string",
              "name": "establishment",
              "type": "string"
            },
            {
              "internalType": "string",
              "name": "certification",
              "type": "string"
            }
          ],
          "internalType": "struct Authentication.Processor",
          "name": "",
          "type": "tuple"
        }
      ],
      "stateMutability": "view",
      "type": "function",
      "constant": true
    },
    {
      "inputs": [],
      "name": "getDistributor",
      "outputs": [
        {
          "components": [
            {
              "internalType": "address",
              "name": "addr",
              "type": "address"
            },
            {
              "internalType": "string",
              "name": "name",
              "type": "string"
            },
            {
              "internalType": "bytes32",
              "name": "password",
              "type": "bytes32"
            }
          ],
          "internalType": "struct Authentication.Distributor",
          "name": "",
          "type": "tuple"
        }
      ],
      "stateMutability": "view",
      "type": "function",
      "constant": true
    },
    {
      "inputs": [],
      "name": "getMerchant",
      "outputs": [
        {
          "components": [
            {
              "internalType": "address",
              "name": "addr",
              "type": "address"
            },
            {
              "internalType": "string",
              "name": "name",
              "type": "string"
            },
            {
              "internalType": "bytes32",
              "name": "password",
              "type": "bytes32"
            },
            {
              "internalType": "string",
              "name": "stablishment",
              "type": "string"
            }
          ],
          "internalType": "struct Authentication.Merchant",
          "name": "",
          "type": "tuple"
        }
      ],
      "stateMutability": "view",
      "type": "function",
      "constant": true
    },
    {
      "inputs": [],
      "name": "getTypeUser",
      "outputs": [
        {
          "internalType": "string",
          "name": "",
          "type": "string"
        }
      ],
      "stateMutability": "view",
      "type": "function",
      "constant": true
    },
    {
      "inputs": [
        {
          "internalType": "address",
          "name": "_addr",
          "type": "address"
        }
      ],
      "name": "activeUser",
      "outputs": [
        {
          "internalType": "bool",
          "name": "",
          "type": "bool"
        }
      ],
      "stateMutability": "view",
      "type": "function",
      "constant": true
    },
    {
      "inputs": [
        {
          "internalType": "address",
          "name": "_addr",
          "type": "address"
        },
        {
          "internalType": "string",
          "name": "_password",
          "type": "string"
        }
      ],
      "name": "loginProductor",
      "outputs": [
        {
          "components": [
            {
              "internalType": "address",
              "name": "addr",
              "type": "address"
            },
            {
              "internalType": "string",
              "name": "name",
              "type": "string"
            },
            {
              "internalType": "bytes32",
              "name": "password",
              "type": "bytes32"
            },
            {
              "internalType": "string",
              "name": "town",
              "type": "string"
            },
            {
              "internalType": "string",
              "name": "apiary",
              "type": "string"
            },
            {
              "internalType": "string",
              "name": "email",
              "type": "string"
            }
          ],
          "internalType": "struct Authentication.Productor",
          "name": "",
          "type": "tuple"
        }
      ],
      "stateMutability": "view",
      "type": "function",
      "constant": true
    },
    {
      "inputs": [
        {
          "internalType": "address",
          "name": "_addr",
          "type": "address"
        },
        {
          "internalType": "string",
          "name": "_password",
          "type": "string"
        }
      ],
      "name": "loginProcessor",
      "outputs": [
        {
          "components": [
            {
              "internalType": "address",
              "name": "addr",
              "type": "address"
            },
            {
              "internalType": "string",
              "name": "name",
              "type": "string"
            },
            {
              "internalType": "bytes32",
              "name": "password",
              "type": "bytes32"
            },
            {
              "internalType": "string",
              "name": "establishment",
              "type": "string"
            },
            {
              "internalType": "string",
              "name": "certification",
              "type": "string"
            }
          ],
          "internalType": "struct Authentication.Processor",
          "name": "",
          "type": "tuple"
        }
      ],
      "stateMutability": "view",
      "type": "function",
      "constant": true
    },
    {
      "inputs": [
        {
          "internalType": "address",
          "name": "_addr",
          "type": "address"
        },
        {
          "internalType": "string",
          "name": "_password",
          "type": "string"
        }
      ],
      "name": "loginDistributor",
      "outputs": [
        {
          "components": [
            {
              "internalType": "address",
              "name": "addr",
              "type": "address"
            },
            {
              "internalType": "string",
              "name": "name",
              "type": "string"
            },
            {
              "internalType": "bytes32",
              "name": "password",
              "type": "bytes32"
            }
          ],
          "internalType": "struct Authentication.Distributor",
          "name": "",
          "type": "tuple"
        }
      ],
      "stateMutability": "view",
      "type": "function",
      "constant": true
    },
    {
      "inputs": [
        {
          "internalType": "address",
          "name": "_addr",
          "type": "address"
        },
        {
          "internalType": "string",
          "name": "_password",
          "type": "string"
        }
      ],
      "name": "loginMerchant",
      "outputs": [
        {
          "components": [
            {
              "internalType": "address",
              "name": "addr",
              "type": "address"
            },
            {
              "internalType": "string",
              "name": "name",
              "type": "string"
            },
            {
              "internalType": "bytes32",
              "name": "password",
              "type": "bytes32"
            },
            {
              "internalType": "string",
              "name": "stablishment",
              "type": "string"
            }
          ],
          "internalType": "struct Authentication.Merchant",
          "name": "",
          "type": "tuple"
        }
      ],
      "stateMutability": "view",
      "type": "function",
      "constant": true
    }
  ],
  "bytecode": "0x608060405234801561001057600080fd5b50611ed4806100206000396000f3fe608060405234801561001057600080fd5b50600436106100b45760003560e01c8063a87430ba11610071578063a87430ba1461016c578063aa0cfa4c1461018f578063abf244e9146101af578063af6e21fe146101b7578063be0ee5e8146101ca578063f0ecd8f0146101dd57600080fd5b80630a908988146100b95780631811a622146100fa578063195dba8b1461010f578063234485d61461012f5780634265c7071461014f5780635884965f14610164575b600080fd5b6100e56100c736600461185c565b6001600160a01b031660009081526004602052604090205460ff1690565b60405190151581526020015b60405180910390f35b6101026101e5565b6040516100f191906118ce565b61012261011d366004611a0b565b61046f565b6040516100f19190611a59565b61014261013d366004611a9d565b6105cb565b6040516100f19190611bee565b610157610d92565b6040516100f19190611c01565b610122610f25565b6100e561017a36600461185c565b60046020526000908152604090205460ff1681565b6101a261019d366004611a0b565b61100b565b6040516100f19190611c75565b6101a26111fa565b6101026101c5366004611a0b565b6112f6565b6101576101d8366004611a0b565b611560565b61014261175d565b6101ed6117fe565b3360009081526020818152604091829020825160c0810190935280546001600160a01b03168352600181018054919284019161022890611cca565b80601f016020809104026020016040519081016040528092919081815260200182805461025490611cca565b80156102a15780601f10610276576101008083540402835291602001916102a1565b820191906000526020600020905b81548152906001019060200180831161028457829003601f168201915b50505050508152602001600282015481526020016003820180546102c490611cca565b80601f01602080910402602001604051908101604052809291908181526020018280546102f090611cca565b801561033d5780601f106103125761010080835404028352916020019161033d565b820191906000526020600020905b81548152906001019060200180831161032057829003601f168201915b5050505050815260200160048201805461035690611cca565b80601f016020809104026020016040519081016040528092919081815260200182805461038290611cca565b80156103cf5780601f106103a4576101008083540402835291602001916103cf565b820191906000526020600020905b8154815290600101906020018083116103b257829003601f168201915b505050505081526020016005820180546103e890611cca565b80601f016020809104026020016040519081016040528092919081815260200182805461041490611cca565b80156104615780601f1061043657610100808354040283529160200191610461565b820191906000526020600020905b81548152906001019060200180831161044457829003601f168201915b505050505081525050905090565b604080516060808201835260008083526020808401929092528284018190526001600160a01b0386168152600280835290849020015492519192916104b8918691869101611d04565b60405160208183030381529060405280519060200120146104f45760405162461bcd60e51b81526004016104eb90611d3c565b60405180910390fd5b6001600160a01b03808416600090815260026020908152604091829020825160608101909352805490931682526001830180549293929184019161053790611cca565b80601f016020809104026020016040519081016040528092919081815260200182805461056390611cca565b80156105b05780601f10610585576101008083540402835291602001916105b0565b820191906000526020600020905b81548152906001019060200180831161059357829003601f168201915b50505050508152602001600282015481525050905092915050565b60405168383937b23ab1ba37b960b91b6020820152606090602901604051602081830303815290604052805190602001208a60405160200161060d9190611d73565b60405160208183030381529060405280519060200120036107f2576001600160a01b03808a1660009081526020819052604090205416156106895760405162461bcd60e51b815260206004820152601660248201527550726f6475746f72206a61206361646173747261646f60501b60448201526064016104eb565b6000898860405160200161069e929190611d04565b60408051808303601f19018152828252805160209182012060c0840183526001600160a01b038e81168086528386018f8152868601849052606087018e9052608087018d905260a087018c905260009182529381905293909320845181546001600160a01b0319169416939093178355905190935060018201906107229082611dde565b5060408201516002820155606082015160038201906107419082611dde565b50608082015160048201906107569082611dde565b5060a0820151600582019061076b9082611dde565b5050506001600160a01b038a166000908152600460209081526040808320805460ff19166001179055600590915290206107a58c82611dde565b506001600160a01b038a166000908152602081815260409182902054915160609290921b6001600160601b031916908201526034015b604051602081830303815290604052915050610d85565b60405168383937b1b2b9b9b7b960b91b6020820152602901604051602081830303815290604052805190602001208a6040516020016108319190611d73565b60405160208183030381529060405280519060200120036109f0576001600160a01b03808a1660009081526001602052604090205416156108b45760405162461bcd60e51b815260206004820152601960248201527f50726f6365737361646f72206a61206361646173747261646f0000000000000060448201526064016104eb565b600089886040516020016108c9929190611d04565b60408051808303601f19018152828252805160209182012060a0840183526001600160a01b038e81168086528386018f8152868601849052606087018b9052608087018a90526000918252600194859052949020855181546001600160a01b03191692169190911781559251909450908201906109469082611dde565b5060408201516002820155606082015160038201906109659082611dde565b506080820151600482019061097a9082611dde565b5050506001600160a01b038a166000908152600460209081526040808320805460ff19166001179055600590915290206109b48c82611dde565b506001600160a01b038a1660009081526001602090815260409182902054915160609290921b6001600160601b031916908201526034016107db565b6040516a3234b9ba3934b13aba37b960a91b6020820152602b01604051602081830303815290604052805190602001208a604051602001610a319190611d73565b6040516020818303038152906040528051906020012003610b79576001600160a01b03808a166000908152600260205260409020541615610ab45760405162461bcd60e51b815260206004820152601a60248201527f446973747269627569646f72206a61206361646173747261646f00000000000060448201526064016104eb565b60008988604051602001610ac9929190611d04565b60408051808303601f1901815282825280516020918201206060840183526001600160a01b038e81168086528386018f81528686018490526000918252600290945293909320845181546001600160a01b031916941693909317835590519093506001820190610b399082611dde565b506040918201516002909101556001600160a01b038b16600090815260046020908152828220805460ff1916600117905560059052206109b48c82611dde565b604051671b595c98da185b9d60c21b6020820152602801604051602081830303815290604052805190602001208a604051602001610bb79190611d73565b6040516020818303038152906040528051906020012003610d5b576001600160a01b03808a166000908152600360205260409020541615610c3a5760405162461bcd60e51b815260206004820152601960248201527f436f6d65726369616e7465206a61206361646173747261646f0000000000000060448201526064016104eb565b60008988604051602001610c4f929190611d04565b60408051808303601f1901815282825280516020918201206080840183526001600160a01b038e81168086528386018f8152868601849052606087018b90526000918252600390945293909320845181546001600160a01b031916941693909317835590519093506001820190610cc69082611dde565b506040820151600282015560608201516003820190610ce59082611dde565b5050506001600160a01b038a166000908152600460209081526040808320805460ff1916600117905560059091529020610d1f8c82611dde565b506001600160a01b038a1660009081526003602090815260409182902054915160609290921b6001600160601b031916908201526034016107db565b506040805180820190915260118152704572726f206e6f20636164617374726f2160781b60208201525b9998505050505050505050565b6040805160a081018252600080825260606020830181905292820152818101829052608081019190915233600090815260016020818152604092839020835160a0810190945280546001600160a01b03168452918201805491840191610df790611cca565b80601f0160208091040260200160405190810160405280929190818152602001828054610e2390611cca565b8015610e705780601f10610e4557610100808354040283529160200191610e70565b820191906000526020600020905b815481529060010190602001808311610e5357829003601f168201915b5050505050815260200160028201548152602001600382018054610e9390611cca565b80601f0160208091040260200160405190810160405280929190818152602001828054610ebf90611cca565b8015610f0c5780601f10610ee157610100808354040283529160200191610f0c565b820191906000526020600020905b815481529060010190602001808311610eef57829003601f168201915b505050505081526020016004820180546103e890611cca565b6040805160608082018352600080835260208084018390528385018290523382526002815290849020845192830190945283546001600160a01b031682526001840180549394929391840191610f7a90611cca565b80601f0160208091040260200160405190810160405280929190818152602001828054610fa690611cca565b8015610ff35780601f10610fc857610100808354040283529160200191610ff3565b820191906000526020600020905b815481529060010190602001808311610fd657829003601f168201915b50505050508152602001600282015481525050905090565b60408051608081018252600080825260606020830181905292820152818101919091526001600160a01b03831660009081526003602090815260409182902060020154915161105e918691869101611d04565b60405160208183030381529060405280519060200120146110915760405162461bcd60e51b81526004016104eb90611d3c565b6001600160a01b0380841660009081526003602090815260409182902082516080810190935280549093168252600183018054929392918401916110d490611cca565b80601f016020809104026020016040519081016040528092919081815260200182805461110090611cca565b801561114d5780601f106111225761010080835404028352916020019161114d565b820191906000526020600020905b81548152906001019060200180831161113057829003601f168201915b505050505081526020016002820154815260200160038201805461117090611cca565b80601f016020809104026020016040519081016040528092919081815260200182805461119c90611cca565b80156111e95780601f106111be576101008083540402835291602001916111e9565b820191906000526020600020905b8154815290600101906020018083116111cc57829003601f168201915b505050505081525050905092915050565b60408051608081018252600080825260606020830181905292820152818101919091523360009081526003602090815260409182902082516080810190935280546001600160a01b03168352600181018054919284019161125a90611cca565b80601f016020809104026020016040519081016040528092919081815260200182805461128690611cca565b80156112d35780601f106112a8576101008083540402835291602001916112d3565b820191906000526020600020905b8154815290600101906020018083116112b657829003601f168201915b50505050508152602001600282015481526020016003820180546103e890611cca565b6112fe6117fe565b6001600160a01b0383166000908152602081815260409182902060020154915161132c918691869101611d04565b604051602081830303815290604052805190602001201461135f5760405162461bcd60e51b81526004016104eb90611d3c565b6001600160a01b0380841660009081526020818152604091829020825160c0810190935280549093168252600183018054929392918401916113a090611cca565b80601f01602080910402602001604051908101604052809291908181526020018280546113cc90611cca565b80156114195780601f106113ee57610100808354040283529160200191611419565b820191906000526020600020905b8154815290600101906020018083116113fc57829003601f168201915b505050505081526020016002820154815260200160038201805461143c90611cca565b80601f016020809104026020016040519081016040528092919081815260200182805461146890611cca565b80156114b55780601f1061148a576101008083540402835291602001916114b5565b820191906000526020600020905b81548152906001019060200180831161149857829003601f168201915b505050505081526020016004820180546114ce90611cca565b80601f01602080910402602001604051908101604052809291908181526020018280546114fa90611cca565b80156115475780601f1061151c57610100808354040283529160200191611547565b820191906000526020600020905b81548152906001019060200180831161152a57829003601f168201915b5050505050815260200160058201805461117090611cca565b6040805160a08101825260008082526060602083018190529282015281810182905260808101919091526001600160a01b0383166000908152600160209081526040918290206002015491516115ba918691869101611d04565b60405160208183030381529060405280519060200120146115ed5760405162461bcd60e51b81526004016104eb90611d3c565b6001600160a01b03808416600090815260016020818152604092839020835160a081019094528054909416835290830180549293929184019161162f90611cca565b80601f016020809104026020016040519081016040528092919081815260200182805461165b90611cca565b80156116a85780601f1061167d576101008083540402835291602001916116a8565b820191906000526020600020905b81548152906001019060200180831161168b57829003601f168201915b50505050508152602001600282015481526020016003820180546116cb90611cca565b80601f01602080910402602001604051908101604052809291908181526020018280546116f790611cca565b80156117445780601f1061171957610100808354040283529160200191611744565b820191906000526020600020905b81548152906001019060200180831161172757829003601f168201915b5050505050815260200160048201805461117090611cca565b33600090815260056020526040902080546060919061177b90611cca565b80601f01602080910402602001604051908101604052809291908181526020018280546117a790611cca565b80156117f45780601f106117c9576101008083540402835291602001916117f4565b820191906000526020600020905b8154815290600101906020018083116117d757829003601f168201915b5050505050905090565b6040518060c0016040528060006001600160a01b0316815260200160608152602001600080191681526020016060815260200160608152602001606081525090565b80356001600160a01b038116811461185757600080fd5b919050565b60006020828403121561186e57600080fd5b61187782611840565b9392505050565b60005b83811015611899578181015183820152602001611881565b50506000910152565b600081518084526118ba81602086016020860161187e565b601f01601f19169290920160200192915050565b602080825282516001600160a01b03168282015282015160c060408301526000906118fc60e08401826118a2565b9050604084015160608401526060840151601f198085840301608086015261192483836118a2565b925060808601519150808584030160a086015261194183836118a2565b925060a08601519150808584030160c08601525061195f82826118a2565b95945050505050565b634e487b7160e01b600052604160045260246000fd5b600082601f83011261198f57600080fd5b813567ffffffffffffffff808211156119aa576119aa611968565b604051601f8301601f19908116603f011681019082821181831017156119d2576119d2611968565b816040528381528660208588010111156119eb57600080fd5b836020870160208301376000602085830101528094505050505092915050565b60008060408385031215611a1e57600080fd5b611a2783611840565b9150602083013567ffffffffffffffff811115611a4357600080fd5b611a4f8582860161197e565b9150509250929050565b602080825282516001600160a01b03168282015282015160606040830152600090611a8760808401826118a2565b9050604084015160608401528091505092915050565b60008060008060008060008060006101208a8c031215611abc57600080fd5b893567ffffffffffffffff80821115611ad457600080fd5b611ae08d838e0161197e565b9a50611aee60208d01611840565b995060408c0135915080821115611b0457600080fd5b611b108d838e0161197e565b985060608c0135915080821115611b2657600080fd5b611b328d838e0161197e565b975060808c0135915080821115611b4857600080fd5b611b548d838e0161197e565b965060a08c0135915080821115611b6a57600080fd5b611b768d838e0161197e565b955060c08c0135915080821115611b8c57600080fd5b611b988d838e0161197e565b945060e08c0135915080821115611bae57600080fd5b611bba8d838e0161197e565b93506101008c0135915080821115611bd157600080fd5b50611bde8c828d0161197e565b9150509295985092959850929598565b60208152600061187760208301846118a2565b602080825282516001600160a01b03168282015282015160a06040830152600090611c2f60c08401826118a2565b9050604084015160608401526060840151601f1980858403016080860152611c5783836118a2565b925060808601519150808584030160a08601525061195f82826118a2565b602080825282516001600160a01b03168282015282015160806040830152600090611ca360a08401826118a2565b9050604084015160608401526060840151601f1984830301608085015261195f82826118a2565b600181811c90821680611cde57607f821691505b602082108103611cfe57634e487b7160e01b600052602260045260246000fd5b50919050565b6bffffffffffffffffffffffff198360601b16815260008251611d2e81601485016020870161187e565b919091016014019392505050565b6020808252601b908201527f5573756172696f206f752073656e686120696e636f727265746f2e0000000000604082015260600190565b60008251611d8581846020870161187e565b9190910192915050565b601f821115611dd957600081815260208120601f850160051c81016020861015611db65750805b601f850160051c820191505b81811015611dd557828155600101611dc2565b5050505b505050565b815167ffffffffffffffff811115611df857611df8611968565b611e0c81611e068454611cca565b84611d8f565b602080601f831160018114611e415760008415611e295750858301515b600019600386901b1c1916600185901b178555611dd5565b600085815260208120601f198616915b82811015611e7057888601518255948401946001909101908401611e51565b5085821015611e8e5787850151600019600388901b60f8161c191681555b5050505050600190811b0190555056fea26469706673582212209748c3c8f4f1cdb107a46e56303259e0f1c543698e35615ed1eea9a28d0f77c364736f6c63430008110033",
  "immutableReferences": {},
  "source": "// SPDX-License-Identifier: MIT\r\npragma solidity ^0.8.17;\r\n\r\ncontract Authentication {\r\n    struct Productor {\r\n        address addr;\r\n        string name;\r\n        bytes32 password;\r\n        string town;\r\n        string apiary;\r\n        string email;\r\n    }\r\n\r\n    struct Processor {\r\n        address addr;\r\n        string name;\r\n        bytes32 password;\r\n        string establishment;\r\n        string certification;\r\n    }\r\n\r\n    struct Distributor {\r\n        address addr;\r\n        string name;\r\n        bytes32 password;\r\n    }\r\n\r\n    struct Merchant {\r\n        address addr;\r\n        string name;\r\n        bytes32 password;\r\n        string stablishment;\r\n    }\r\n\r\n    mapping(address => Productor) productors; // id => User\r\n    mapping(address => Processor) processors; // id => User\r\n    mapping(address => Distributor) distributors; // id => User\r\n    mapping(address => Merchant) merchants; // id => User\r\n\r\n    mapping(address => bool) public users; // usuarios ativos com permissao de modificaao\r\n    mapping(address => string) typeUsers; // id => tipo de usuario\r\n\r\n    //mapping(address => string) accounts; // account => id User\r\n    //mapping(address => string) usersType; // account => tipo de usuario\r\n\r\n    modifier onlyOWNER(address _addr) {\r\n        require(users[_addr] == true, \"Permissao negada!\");\r\n        _;\r\n    }\r\n\r\n    function register(\r\n        string memory _type,\r\n        address _addr,\r\n        string memory _name,\r\n        string memory _password,\r\n        string memory _town,\r\n        string memory _apiary,\r\n        string memory _email,\r\n        string memory _stablishment,\r\n        string memory _certification\r\n    ) public returns (string memory) {\r\n        // Registrar o produtor\r\n        if (\r\n            keccak256(abi.encodePacked(_type)) ==\r\n            keccak256(abi.encodePacked(\"productor\"))\r\n        ) {\r\n            require(\r\n                productors[_addr].addr ==\r\n                    0x0000000000000000000000000000000000000000,\r\n                \"Produtor ja cadastrado\"\r\n            );\r\n            bytes32 passwd = keccak256(abi.encodePacked(_addr, _password));\r\n            productors[_addr] = Productor(\r\n                _addr,\r\n                _name,\r\n                passwd,\r\n                _town,\r\n                _apiary,\r\n                _email\r\n            );\r\n            users[_addr] = true;\r\n            typeUsers[_addr] = _type;\r\n            return string(abi.encodePacked(productors[_addr].addr));\r\n\r\n            // Registrar o processador\r\n        } else if (\r\n            keccak256(abi.encodePacked(_type)) ==\r\n            keccak256(abi.encodePacked(\"processor\"))\r\n        ) {\r\n            require(\r\n                processors[_addr].addr ==\r\n                    0x0000000000000000000000000000000000000000,\r\n                \"Processador ja cadastrado\"\r\n            );\r\n            bytes32 passwd = keccak256(abi.encodePacked(_addr, _password));\r\n            processors[_addr] = Processor(\r\n                _addr,\r\n                _name,\r\n                passwd,\r\n                _stablishment,\r\n                _certification\r\n            );\r\n            users[_addr] = true;\r\n            typeUsers[_addr] = _type;\r\n            return string(abi.encodePacked(processors[_addr].addr));\r\n\r\n            // Registrar o distribuidor\r\n        } else if (\r\n            keccak256(abi.encodePacked(_type)) ==\r\n            keccak256(abi.encodePacked(\"distributor\"))\r\n        ) {\r\n            require(\r\n                distributors[_addr].addr ==\r\n                    0x0000000000000000000000000000000000000000,\r\n                \"Distribuidor ja cadastrado\"\r\n            );\r\n            bytes32 passwd = keccak256(abi.encodePacked(_addr, _password));\r\n            distributors[_addr] = Distributor(_addr, _name, passwd);\r\n            users[_addr] = true;\r\n            typeUsers[_addr] = _type;\r\n            return string(abi.encodePacked(processors[_addr].addr));\r\n        } else if (\r\n            keccak256(abi.encodePacked(_type)) ==\r\n            keccak256(abi.encodePacked(\"merchant\"))\r\n        ) {\r\n            require(\r\n                merchants[_addr].addr ==\r\n                    0x0000000000000000000000000000000000000000,\r\n                \"Comerciante ja cadastrado\"\r\n            );\r\n            bytes32 passwd = keccak256(abi.encodePacked(_addr, _password));\r\n            merchants[_addr] = Merchant(_addr, _name, passwd, _stablishment);\r\n            users[_addr] = true;\r\n            typeUsers[_addr] = _type;\r\n            return string(abi.encodePacked(merchants[_addr].addr));\r\n        } else {\r\n            return \"Erro no cadastro!\";\r\n        }\r\n    }\r\n\r\n    function getProductor() public view returns (Productor memory) {\r\n        return productors[msg.sender];\r\n    }\r\n\r\n    function getProcessor() public view returns (Processor memory) {\r\n        return processors[msg.sender];\r\n    }\r\n\r\n    function getDistributor() public view returns (Distributor memory) {\r\n        return distributors[msg.sender];\r\n    }\r\n\r\n    function getMerchant() public view returns (Merchant memory) {\r\n        return merchants[msg.sender];\r\n    }\r\n\r\n    function getTypeUser() public view returns (string memory) {\r\n        return typeUsers[msg.sender];\r\n    }\r\n\r\n    function activeUser(address _addr) public view returns (bool) {\r\n        return users[_addr];\r\n    }\r\n\r\n    // function getUser(\r\n    //     string memory _id,\r\n    //     string memory _type\r\n    // ) public view returns (Productor memory, Processor memory) {\r\n    //     require(\r\n    //         keccak256(abi.encodePacked(users[_account].account)) ==\r\n    //             keccak256(abi.encodePacked(_account))\r\n    //     );\r\n    //     return users[_account];\r\n    // }\r\n\r\n    function loginProductor(\r\n        address _addr,\r\n        string memory _password\r\n    ) public view returns (Productor memory) {\r\n        require(\r\n            keccak256(abi.encodePacked(_addr, _password)) ==\r\n                productors[_addr].password,\r\n            \"Usuario ou senha incorreto.\"\r\n        );\r\n\r\n        return productors[_addr];\r\n    }\r\n\r\n    function loginProcessor(\r\n        address _addr,\r\n        string memory _password\r\n    ) public view returns (Processor memory) {\r\n        require(\r\n            keccak256(abi.encodePacked(_addr, _password)) ==\r\n                processors[_addr].password,\r\n            \"Usuario ou senha incorreto.\"\r\n        );\r\n\r\n        return processors[_addr];\r\n    }\r\n\r\n    function loginDistributor(\r\n        address _addr,\r\n        string memory _password\r\n    ) public view returns (Distributor memory) {\r\n        require(\r\n            keccak256(abi.encodePacked(_addr, _password)) ==\r\n                distributors[_addr].password,\r\n            \"Usuario ou senha incorreto.\"\r\n        );\r\n\r\n        return distributors[_addr];\r\n    }\r\n\r\n    function loginMerchant(\r\n        address _addr,\r\n        string memory _password\r\n    ) public view returns (Merchant memory) {\r\n        require(\r\n            keccak256(abi.encodePacked(_addr, _password)) ==\r\n                merchants[_addr].password,\r\n            \"Usuario ou senha incorreto.\"\r\n        );\r\n\r\n        return merchants[_addr];\r\n    }\r\n}\r\n",
  "sourcePath": "C:\\Users\\samue\\Documents\\Workspace_react\\BlockForBees\\backend_blockcahin\\contracts\\Authentication.sol",
  "compiler": {
    "name": "solc",
    "version": "0.8.17+commit.8df45f5f.Emscripten.clang"
  },
  "schemaVersion": "3.4.11",
  "updatedAt": "2023-04-19T14:36:17.305Z",
  "networkType": "ethereum",
  "devdoc": {
    "kind": "dev",
    "methods": {},
    "version": 1
  },
  "userdoc": {
    "kind": "user",
    "methods": {},
    "version": 1
  }
}