{
  "contractName": "Distributor",
  "abi": [
    {
      "inputs": [
        {
          "internalType": "address",
          "name": "_contractAuthentication",
          "type": "address"
        },
        {
          "internalType": "address",
          "name": "_contractUpdateTr",
          "type": "address"
        }
      ],
      "stateMutability": "nonpayable",
      "type": "constructor"
    },
    {
      "inputs": [
        {
          "internalType": "string",
          "name": "_id",
          "type": "string"
        }
      ],
      "name": "getReceivedUnits",
      "outputs": [
        {
          "components": [
            {
              "internalType": "string",
              "name": "id",
              "type": "string"
            },
            {
              "internalType": "string",
              "name": "supplierId",
              "type": "string"
            },
            {
              "internalType": "string",
              "name": "dateTime",
              "type": "string"
            },
            {
              "internalType": "string",
              "name": "local",
              "type": "string"
            },
            {
              "internalType": "enum UnitType",
              "name": "unitType",
              "type": "uint8"
            }
          ],
          "internalType": "struct ReceivedUnit",
          "name": "",
          "type": "tuple"
        }
      ],
      "stateMutability": "view",
      "type": "function",
      "constant": true
    },
    {
      "inputs": [
        {
          "internalType": "string",
          "name": "_userId",
          "type": "string"
        }
      ],
      "name": "getReceivedUnitsId",
      "outputs": [
        {
          "internalType": "string[]",
          "name": "",
          "type": "string[]"
        }
      ],
      "stateMutability": "view",
      "type": "function",
      "constant": true
    },
    {
      "inputs": [
        {
          "internalType": "string",
          "name": "_userId",
          "type": "string"
        }
      ],
      "name": "listReceivedUnits",
      "outputs": [
        {
          "components": [
            {
              "internalType": "string",
              "name": "id",
              "type": "string"
            },
            {
              "internalType": "string",
              "name": "supplierId",
              "type": "string"
            },
            {
              "internalType": "string",
              "name": "dateTime",
              "type": "string"
            },
            {
              "internalType": "string",
              "name": "local",
              "type": "string"
            },
            {
              "internalType": "enum UnitType",
              "name": "unitType",
              "type": "uint8"
            }
          ],
          "internalType": "struct ReceivedUnit[]",
          "name": "",
          "type": "tuple[]"
        }
      ],
      "stateMutability": "view",
      "type": "function",
      "constant": true
    },
    {
      "inputs": [
        {
          "internalType": "string",
          "name": "_id",
          "type": "string"
        }
      ],
      "name": "getDispatchedUnits",
      "outputs": [
        {
          "components": [
            {
              "internalType": "string",
              "name": "id",
              "type": "string"
            },
            {
              "internalType": "string",
              "name": "receiverId",
              "type": "string"
            },
            {
              "internalType": "string",
              "name": "date",
              "type": "string"
            },
            {
              "internalType": "string",
              "name": "local",
              "type": "string"
            },
            {
              "internalType": "enum UnitType",
              "name": "unitType",
              "type": "uint8"
            }
          ],
          "internalType": "struct DispatchedUnit",
          "name": "",
          "type": "tuple"
        }
      ],
      "stateMutability": "view",
      "type": "function",
      "constant": true
    },
    {
      "inputs": [
        {
          "internalType": "string",
          "name": "_userId",
          "type": "string"
        }
      ],
      "name": "getDispatchedUnitsId",
      "outputs": [
        {
          "internalType": "string[]",
          "name": "",
          "type": "string[]"
        }
      ],
      "stateMutability": "view",
      "type": "function",
      "constant": true
    },
    {
      "inputs": [
        {
          "internalType": "string",
          "name": "_userId",
          "type": "string"
        }
      ],
      "name": "listDispatchedUnits",
      "outputs": [
        {
          "components": [
            {
              "internalType": "string",
              "name": "id",
              "type": "string"
            },
            {
              "internalType": "string",
              "name": "receiverId",
              "type": "string"
            },
            {
              "internalType": "string",
              "name": "date",
              "type": "string"
            },
            {
              "internalType": "string",
              "name": "local",
              "type": "string"
            },
            {
              "internalType": "enum UnitType",
              "name": "unitType",
              "type": "uint8"
            }
          ],
          "internalType": "struct DispatchedUnit[]",
          "name": "",
          "type": "tuple[]"
        }
      ],
      "stateMutability": "view",
      "type": "function",
      "constant": true
    }
  ],
  "bytecode": "0x608060405234801561001057600080fd5b5060405161125438038061125483398101604081905261002f91610096565b600480546001600160a01b039384166001600160a01b0319918216811790925560058054821690921790915560068054929093169181168217909255600780549092161790556100c9565b80516001600160a01b038116811461009157600080fd5b919050565b600080604083850312156100a957600080fd5b6100b28361007a565b91506100c06020840161007a565b90509250929050565b61117c806100d86000396000f3fe608060405234801561001057600080fd5b50600436106100625760003560e01c8063221ebbe5146100675780632f8df0cf146100905780637b847053146100b0578063839dae1b146100d0578063b002a664146100e3578063b3b0165d14610103575b600080fd5b61007a610075366004610d3e565b610116565b6040516100879190610e3f565b60405180910390f35b6100a361009e366004610d3e565b61020d565b6040516100879190610f50565b6100c36100be366004610d3e565b6104be565b6040516100879190610f6a565b61007a6100de366004610d3e565b610855565b6100f66100f1366004610d3e565b610941565b6040516100879190610fbf565b6100a3610111366004610d3e565b610cd1565b60606001826040516101289190611014565b9081526020016040518091039020805480602002602001604051908101604052809291908181526020016000905b8282101561020257838290600052602060002001805461017590611030565b80601f01602080910402602001604051908101604052809291908181526020018280546101a190611030565b80156101ee5780601f106101c3576101008083540402835291602001916101ee565b820191906000526020600020905b8154815290600101906020018083116101d157829003601f168201915b505050505081526020019060010190610156565b505050509050919050565b610215610ce9565b6000826040516102259190611014565b90815260200160405180910390206040518060a001604052908160008201805461024e90611030565b80601f016020809104026020016040519081016040528092919081815260200182805461027a90611030565b80156102c75780601f1061029c576101008083540402835291602001916102c7565b820191906000526020600020905b8154815290600101906020018083116102aa57829003601f168201915b505050505081526020016001820180546102e090611030565b80601f016020809104026020016040519081016040528092919081815260200182805461030c90611030565b80156103595780601f1061032e57610100808354040283529160200191610359565b820191906000526020600020905b81548152906001019060200180831161033c57829003601f168201915b5050505050815260200160028201805461037290611030565b80601f016020809104026020016040519081016040528092919081815260200182805461039e90611030565b80156103eb5780601f106103c0576101008083540402835291602001916103eb565b820191906000526020600020905b8154815290600101906020018083116103ce57829003601f168201915b5050505050815260200160038201805461040490611030565b80601f016020809104026020016040519081016040528092919081815260200182805461043090611030565b801561047d5780601f106104525761010080835404028352916020019161047d565b820191906000526020600020905b81548152906001019060200180831161046057829003601f168201915b5050509183525050600482015460209091019060ff1660028111156104a4576104a4610ea1565b60028111156104b5576104b5610ea1565b90525092915050565b606060006003836040516104d29190611014565b9081526040519081900360200190205467ffffffffffffffff8111156104fa576104fa610d28565b60405190808252806020026020018201604052801561053357816020015b610520610ce9565b8152602001906001900390816105185790505b50905060005b815181101561084e5760026003856040516105549190611014565b908152602001604051809103902082815481106105735761057361106a565b9060005260206000200160405161058a9190611080565b90815260200160405180910390206040518060a00160405290816000820180546105b390611030565b80601f01602080910402602001604051908101604052809291908181526020018280546105df90611030565b801561062c5780601f106106015761010080835404028352916020019161062c565b820191906000526020600020905b81548152906001019060200180831161060f57829003601f168201915b5050505050815260200160018201805461064590611030565b80601f016020809104026020016040519081016040528092919081815260200182805461067190611030565b80156106be5780601f10610693576101008083540402835291602001916106be565b820191906000526020600020905b8154815290600101906020018083116106a157829003601f168201915b505050505081526020016002820180546106d790611030565b80601f016020809104026020016040519081016040528092919081815260200182805461070390611030565b80156107505780601f1061072557610100808354040283529160200191610750565b820191906000526020600020905b81548152906001019060200180831161073357829003601f168201915b5050505050815260200160038201805461076990611030565b80601f016020809104026020016040519081016040528092919081815260200182805461079590611030565b80156107e25780601f106107b7576101008083540402835291602001916107e2565b820191906000526020600020905b8154815290600101906020018083116107c557829003601f168201915b5050509183525050600482015460209091019060ff16600281111561080957610809610ea1565b600281111561081a5761081a610ea1565b815250508282815181106108305761083061106a565b602002602001018190525080806108469061111f565b915050610539565b5092915050565b60606003826040516108679190611014565b9081526020016040518091039020805480602002602001604051908101604052809291908181526020016000905b828210156102025783829060005260206000200180546108b490611030565b80601f01602080910402602001604051908101604052809291908181526020018280546108e090611030565b801561092d5780601f106109025761010080835404028352916020019161092d565b820191906000526020600020905b81548152906001019060200180831161091057829003601f168201915b505050505081526020019060010190610895565b606060006001836040516109559190611014565b9081526040519081900360200190205467ffffffffffffffff81111561097d5761097d610d28565b6040519080825280602002602001820160405280156109b657816020015b6109a3610ce9565b81526020019060019003908161099b5790505b50905060005b815181101561084e5760006001856040516109d79190611014565b908152602001604051809103902082815481106109f6576109f661106a565b90600052602060002001604051610a0d9190611080565b90815260200160405180910390206040518060a0016040529081600082018054610a3690611030565b80601f0160208091040260200160405190810160405280929190818152602001828054610a6290611030565b8015610aaf5780601f10610a8457610100808354040283529160200191610aaf565b820191906000526020600020905b815481529060010190602001808311610a9257829003601f168201915b50505050508152602001600182018054610ac890611030565b80601f0160208091040260200160405190810160405280929190818152602001828054610af490611030565b8015610b415780601f10610b1657610100808354040283529160200191610b41565b820191906000526020600020905b815481529060010190602001808311610b2457829003601f168201915b50505050508152602001600282018054610b5a90611030565b80601f0160208091040260200160405190810160405280929190818152602001828054610b8690611030565b8015610bd35780601f10610ba857610100808354040283529160200191610bd3565b820191906000526020600020905b815481529060010190602001808311610bb657829003601f168201915b50505050508152602001600382018054610bec90611030565b80601f0160208091040260200160405190810160405280929190818152602001828054610c1890611030565b8015610c655780601f10610c3a57610100808354040283529160200191610c65565b820191906000526020600020905b815481529060010190602001808311610c4857829003601f168201915b5050509183525050600482015460209091019060ff166002811115610c8c57610c8c610ea1565b6002811115610c9d57610c9d610ea1565b81525050828281518110610cb357610cb361106a565b60200260200101819052508080610cc99061111f565b9150506109bc565b610cd9610ce9565b6002826040516102259190611014565b6040518060a001604052806060815260200160608152602001606081526020016060815260200160006002811115610d2357610d23610ea1565b905290565b634e487b7160e01b600052604160045260246000fd5b600060208284031215610d5057600080fd5b813567ffffffffffffffff80821115610d6857600080fd5b818401915084601f830112610d7c57600080fd5b813581811115610d8e57610d8e610d28565b604051601f8201601f19908116603f01168101908382118183101715610db657610db6610d28565b81604052828152876020848701011115610dcf57600080fd5b826020860160208301376000928101602001929092525095945050505050565b60005b83811015610e0a578181015183820152602001610df2565b50506000910152565b60008151808452610e2b816020860160208601610def565b601f01601f19169290920160200192915050565b6000602080830181845280855180835260408601915060408160051b870101925083870160005b82811015610e9457603f19888603018452610e82858351610e13565b94509285019290850190600101610e66565b5092979650505050505050565b634e487b7160e01b600052602160045260246000fd5b6000815160a08452610ecc60a0850182610e13565b905060208301518482036020860152610ee58282610e13565b91505060408301518482036040860152610eff8282610e13565b91505060608301518482036060860152610f198282610e13565b915050608083015160038110610f3f57634e487b7160e01b600052602160045260246000fd5b806080860152508091505092915050565b602081526000610f636020830184610eb7565b9392505050565b6000602080830181845280855180835260408601915060408160051b870101925083870160005b82811015610e9457603f19888603018452610fad858351610eb7565b94509285019290850190600101610f91565b6000602080830181845280855180835260408601915060408160051b870101925083870160005b82811015610e9457603f19888603018452611002858351610eb7565b94509285019290850190600101610fe6565b60008251611026818460208701610def565b9190910192915050565b600181811c9082168061104457607f821691505b60208210810361106457634e487b7160e01b600052602260045260246000fd5b50919050565b634e487b7160e01b600052603260045260246000fd5b600080835481600182811c91508083168061109c57607f831692505b602080841082036110bb57634e487b7160e01b86526022600452602486fd5b8180156110cf57600181146110e457611111565b60ff1986168952841515850289019650611111565b60008a81526020902060005b868110156111095781548b8201529085019083016110f0565b505084890196505b509498975050505050505050565b60006001820161113f57634e487b7160e01b600052601160045260246000fd5b506001019056fea26469706673582212208b00d62141c674d69b450afe97b5120908f142cecf8fa3f49cc4f8bb074b6cf864736f6c63430008110033",
  "immutableReferences": {},
  "source": "// SPDX-License-Identifier: MIT\r\npragma solidity ^0.8.17;\r\nimport \"./Authentication.sol\";\r\nimport \"./UpdateTr.sol\";\r\n\r\nstruct ReceivedUnit {\r\n    string id;\r\n    string supplierId;\r\n    string dateTime;\r\n    string local;\r\n    UnitType unitType;\r\n}\r\n\r\n// struct ReceivedContainer {\r\n//     string id;\r\n//     string[] units;\r\n//     string supplierId;\r\n//     string dateTime;\r\n//     string local;\r\n//     string unitType;\r\n// } // Logistc Unit Received\r\n\r\nstruct DispatchedUnit {\r\n    string id;\r\n    string receiverId;\r\n    string date;\r\n    string local;\r\n    UnitType unitType;\r\n}\r\n\r\n// struct DispachedContainer {\r\n//     string id;\r\n//     string[] units;\r\n//     string distributorId;\r\n//     string receiverId;\r\n//     string date;\r\n//     string local;\r\n//     string unitType;\r\n// }\r\n\r\n// enum UnitType {\r\n//     unidade,\r\n//     caixa,\r\n//     palete\r\n// }\r\n\r\ncontract Distributor {\r\n    //Variaveis de estado\r\n    mapping(string => ReceivedUnit) receivedUnits; // Lista de containers recebidos para entrega por cada distribuidor.\r\n    // mapping(string => ReceivedContainer) receivedContainers; // Lista de containers recebidos para entrega por cada distribuidor.\r\n    mapping(string => string[]) receivedUnitsId;\r\n\r\n    mapping(string => DispatchedUnit) dispatchedUnits; // Lista de containers recebidos para entrega por cada distribuidor.\r\n    //mapping(string => DispachedContainer) dispatchedContainers; // Lista de containers recebidos para entrega por cada distribuidor.\r\n    mapping(string => string[]) dispatchedUnitsId;\r\n\r\n    address contractAuthentication;\r\n    Authentication instanceAuthentication;\r\n    address contractUpdateTr;\r\n    UpdateTr instanceUpdateTr;\r\n\r\n    constructor(address _contractAuthentication, address _contractUpdateTr) {\r\n        contractAuthentication = _contractAuthentication;\r\n        instanceAuthentication = Authentication(contractAuthentication);\r\n        contractUpdateTr = _contractUpdateTr;\r\n        instanceUpdateTr = UpdateTr(contractUpdateTr);\r\n    }\r\n\r\n    //Verifica se o endereo que esta chamando o contrato possui permisao para modificar o estado da rede\r\n    modifier onlyOWNER(string memory _userId) {\r\n        require(\r\n            instanceAuthentication.activeUser(_userId) == true,\r\n            \"Permissao negada!\"\r\n        );\r\n        _;\r\n    }\r\n\r\n    function receiver(\r\n        string memory _id,\r\n        string memory _supplierId,\r\n        string memory _dateTime,\r\n        string memory _local,\r\n        UnitType _unitType,\r\n        string memory _userId\r\n    ) private {\r\n        receivedUnits[_id] = ReceivedUnit(\r\n            _id,\r\n            _supplierId,\r\n            _dateTime,\r\n            _local,\r\n            _unitType\r\n        );\r\n        receivedUnitsId[_userId].push(_id);\r\n    }\r\n\r\n    function getReceivedUnits(\r\n        string memory _id\r\n    ) public view returns (ReceivedUnit memory) {\r\n        return receivedUnits[_id];\r\n    }\r\n\r\n    function getReceivedUnitsId(\r\n        string memory _userId\r\n    ) public view returns (string[] memory) {\r\n        return receivedUnitsId[_userId];\r\n    }\r\n\r\n    function listReceivedUnits(\r\n        string memory _userId\r\n    ) public view returns (ReceivedUnit[] memory) {\r\n        ReceivedUnit[] memory units = new ReceivedUnit[](\r\n            receivedUnitsId[_userId].length\r\n        );\r\n        for (uint256 i = 0; i < units.length; i++) {\r\n            units[i] = receivedUnits[receivedUnitsId[_userId][i]];\r\n        }\r\n        return units;\r\n    }\r\n\r\n    function dispatcher(\r\n        string memory _id,\r\n        string memory _distributor,\r\n        string memory _receiver,\r\n        string memory _dateTime,\r\n        string memory _local,\r\n        UnitType _unitType\r\n    ) private {\r\n        dispatchedUnits[_id] = DispatchedUnit(\r\n            _id,\r\n            _receiver,\r\n            _dateTime,\r\n            _local,\r\n            _unitType\r\n        );\r\n        dispatchedUnitsId[_distributor].push(_id);\r\n    }\r\n\r\n    function getDispatchedUnits(\r\n        string memory _id\r\n    ) public view returns (DispatchedUnit memory) {\r\n        return dispatchedUnits[_id];\r\n    }\r\n\r\n    function getDispatchedUnitsId(\r\n        string memory _userId\r\n    ) public view returns (string[] memory) {\r\n        return dispatchedUnitsId[_userId];\r\n    }\r\n\r\n    function listDispatchedUnits(\r\n        string memory _userId\r\n    ) public view returns (DispatchedUnit[] memory) {\r\n        DispatchedUnit[] memory units = new DispatchedUnit[](\r\n            dispatchedUnitsId[_userId].length\r\n        );\r\n        for (uint256 i = 0; i < units.length; i++) {\r\n            units[i] = dispatchedUnits[dispatchedUnitsId[_userId][i]];\r\n        }\r\n        return units;\r\n    }\r\n}\r\n",
  "sourcePath": "C:\\Users\\samue\\Documents\\Workspace_react\\BlockForBees\\backend_blockcahin\\contracts\\Distributor.sol",
  "compiler": {
    "name": "solc",
    "version": "0.8.17+commit.8df45f5f.Emscripten.clang"
  },
  "schemaVersion": "3.4.11",
  "updatedAt": "2023-06-23T06:21:36.860Z",
  "networkType": "ethereum",
  "devdoc": {
    "kind": "dev",
    "methods": {},
    "version": 1
  },
  "userdoc": {
    "kind": "user",
    "methods": {},
    "version": 1
  }
}