{
  "contractName": "Distributor",
  "abi": [
    {
      "inputs": [
        {
          "internalType": "address",
          "name": "_contractAuthentication",
          "type": "address"
        },
        {
          "internalType": "address",
          "name": "_contractUpdateTr",
          "type": "address"
        }
      ],
      "stateMutability": "nonpayable",
      "type": "constructor"
    },
    {
      "inputs": [
        {
          "internalType": "bytes32",
          "name": "_id",
          "type": "bytes32"
        },
        {
          "internalType": "address",
          "name": "_distributorId",
          "type": "address"
        },
        {
          "internalType": "address",
          "name": "_supplierId",
          "type": "address"
        },
        {
          "internalType": "string",
          "name": "_dateTime",
          "type": "string"
        },
        {
          "internalType": "string",
          "name": "_local",
          "type": "string"
        },
        {
          "internalType": "address",
          "name": "_addr",
          "type": "address"
        }
      ],
      "name": "registerReceivedUnit",
      "outputs": [],
      "stateMutability": "nonpayable",
      "type": "function"
    },
    {
      "inputs": [
        {
          "internalType": "bytes32",
          "name": "_id",
          "type": "bytes32"
        },
        {
          "internalType": "bytes32[]",
          "name": "_units",
          "type": "bytes32[]"
        },
        {
          "internalType": "address",
          "name": "_supplierId",
          "type": "address"
        },
        {
          "internalType": "string",
          "name": "_dateTime",
          "type": "string"
        },
        {
          "internalType": "string",
          "name": "_local",
          "type": "string"
        },
        {
          "internalType": "address",
          "name": "_addr",
          "type": "address"
        }
      ],
      "name": "registerReceivedContainer",
      "outputs": [],
      "stateMutability": "nonpayable",
      "type": "function"
    },
    {
      "inputs": [
        {
          "internalType": "bytes30",
          "name": "_id",
          "type": "bytes30"
        }
      ],
      "name": "getReceivedContainer",
      "outputs": [
        {
          "components": [
            {
              "internalType": "bytes32",
              "name": "id",
              "type": "bytes32"
            },
            {
              "internalType": "bytes32[]",
              "name": "units",
              "type": "bytes32[]"
            },
            {
              "internalType": "address",
              "name": "supplierId",
              "type": "address"
            },
            {
              "internalType": "string",
              "name": "dateTime",
              "type": "string"
            },
            {
              "internalType": "string",
              "name": "local",
              "type": "string"
            }
          ],
          "internalType": "struct ReceivedContainer",
          "name": "",
          "type": "tuple"
        }
      ],
      "stateMutability": "view",
      "type": "function",
      "constant": true
    },
    {
      "inputs": [
        {
          "internalType": "address",
          "name": "_addr",
          "type": "address"
        }
      ],
      "name": "getReceivedContainerId",
      "outputs": [
        {
          "internalType": "bytes32[]",
          "name": "",
          "type": "bytes32[]"
        }
      ],
      "stateMutability": "view",
      "type": "function",
      "constant": true
    },
    {
      "inputs": [
        {
          "internalType": "bytes32",
          "name": "_id",
          "type": "bytes32"
        },
        {
          "internalType": "address",
          "name": "_distributorId",
          "type": "address"
        },
        {
          "internalType": "address",
          "name": "_receiverId",
          "type": "address"
        },
        {
          "internalType": "string",
          "name": "_dateTime",
          "type": "string"
        },
        {
          "internalType": "string",
          "name": "_local",
          "type": "string"
        },
        {
          "internalType": "address",
          "name": "_addr",
          "type": "address"
        }
      ],
      "name": "registerDispachedUnit",
      "outputs": [],
      "stateMutability": "nonpayable",
      "type": "function"
    },
    {
      "inputs": [
        {
          "internalType": "bytes30",
          "name": "_id",
          "type": "bytes30"
        },
        {
          "internalType": "bytes32[]",
          "name": "_units",
          "type": "bytes32[]"
        },
        {
          "internalType": "address",
          "name": "_distributorId",
          "type": "address"
        },
        {
          "internalType": "address",
          "name": "_receiverId",
          "type": "address"
        },
        {
          "internalType": "string",
          "name": "_date",
          "type": "string"
        },
        {
          "internalType": "string",
          "name": "_local",
          "type": "string"
        },
        {
          "internalType": "address",
          "name": "_addr",
          "type": "address"
        }
      ],
      "name": "registerDispachedContainer",
      "outputs": [],
      "stateMutability": "nonpayable",
      "type": "function"
    },
    {
      "inputs": [
        {
          "internalType": "bytes30",
          "name": "_id",
          "type": "bytes30"
        }
      ],
      "name": "getDispachedContainer",
      "outputs": [
        {
          "components": [
            {
              "internalType": "bytes32",
              "name": "id",
              "type": "bytes32"
            },
            {
              "internalType": "bytes32[]",
              "name": "units",
              "type": "bytes32[]"
            },
            {
              "internalType": "address",
              "name": "distributorId",
              "type": "address"
            },
            {
              "internalType": "address",
              "name": "receiverId",
              "type": "address"
            },
            {
              "internalType": "string",
              "name": "date",
              "type": "string"
            },
            {
              "internalType": "string",
              "name": "local",
              "type": "string"
            }
          ],
          "internalType": "struct DispachedContainer",
          "name": "",
          "type": "tuple"
        }
      ],
      "stateMutability": "view",
      "type": "function",
      "constant": true
    },
    {
      "inputs": [
        {
          "internalType": "address",
          "name": "_addr",
          "type": "address"
        }
      ],
      "name": "getDispachedContainerId",
      "outputs": [
        {
          "internalType": "bytes30[]",
          "name": "",
          "type": "bytes30[]"
        }
      ],
      "stateMutability": "view",
      "type": "function",
      "constant": true
    },
    {
      "inputs": [
        {
          "internalType": "address",
          "name": "_sender",
          "type": "address"
        },
        {
          "internalType": "address",
          "name": "_receiver",
          "type": "address"
        },
        {
          "internalType": "bytes32",
          "name": "_unitId",
          "type": "bytes32"
        },
        {
          "internalType": "string",
          "name": "_date",
          "type": "string"
        },
        {
          "internalType": "string",
          "name": "_businessUnitType",
          "type": "string"
        },
        {
          "internalType": "bytes",
          "name": "_signature",
          "type": "bytes"
        }
      ],
      "name": "forwarding",
      "outputs": [],
      "stateMutability": "nonpayable",
      "type": "function"
    }
  ],
  "bytecode": "0x608060405234801561001057600080fd5b5060405161164a38038061164a83398101604081905261002f91610096565b600880546001600160a01b039384166001600160a01b03199182168117909255600980548216909217909155600a8054929093169181168217909255600b80549092161790556100c9565b80516001600160a01b038116811461009157600080fd5b919050565b600080604083850312156100a957600080fd5b6100b28361007a565b91506100c06020840161007a565b90509250929050565b611572806100d86000396000f3fe608060405234801561001057600080fd5b50600436106100935760003560e01c806361693bc41161006657806361693bc4146100fc578063668bab011461010f578063bee735701461012f578063c4fc6b521461014f578063dda14f591461016257600080fd5b806308fe235c146100985780630c3a697c146100ad5780630f91abc7146100c05780634f94b1cb146100e9575b600080fd5b6100ab6100a6366004610ddd565b610182565b005b6100ab6100bb366004610ddd565b6102eb565b6100d36100ce366004610e8e565b61044d565b6040516100e09190610f2a565b60405180910390f35b6100ab6100f7366004611037565b610648565b6100ab61010a36600461109f565b6107b5565b61012261011d366004610e8e565b6108b8565b6040516100e09190611165565b61014261013d3660046111d9565b610a16565b6040516100e091906111f4565b6100ab61015d36600461123d565b610a8b565b6101756101703660046111d9565b610c30565b6040516100e09190611308565b600954604051630152113160e31b81526001600160a01b03808416600483015283921690630a90898890602401602060405180830381865afa1580156101cc573d6000803e3d6000fd5b505050506040513d601f19601f820116820180604052508101906101f09190611340565b151560011461021a5760405162461bcd60e51b815260040161021190611362565b60405180910390fd5b6040805160a0810182528881526001600160a01b038089166020808401918252898316848601908152606085018a8152608086018a905260008e815292839052959091208451815591516001830180549185166001600160a01b0319928316179055905160028301805491909416911617909155915190919060038201906102a29082611416565b50608082015160048201906102b79082611416565b505050506001600160a01b031660009081526001602081815260408320805492830181558352909120019490945550505050565b600954604051630152113160e31b81526001600160a01b03808416600483015283921690630a90898890602401602060405180830381865afa158015610335573d6000803e3d6000fd5b505050506040513d601f19601f820116820180604052508101906103599190611340565b151560011461037a5760405162461bcd60e51b815260040161021190611362565b6040805160a0810182528881526001600160a01b038089166020808401918252898316848601908152606085018a8152608086018a905260008e81526004909352959091208451815591516001830180549185166001600160a01b0319928316179055905160028301805491909416911617909155915190919060038201906104039082611416565b50608082015160048201906104189082611416565b505050506001600160a01b03166000908152600560209081526040822080546001810182559083529120019490945550505050565b6040805160c0810182526000808252606060208301819052928201819052828201526080810182905260a081019190915261ffff198216600090815260066020908152604091829020825160c08101845281548152600182018054855181860281018601909652808652919492938581019392908301828280156104f057602002820191906000526020600020905b8154815260200190600101908083116104dc575b505050918352505060028201546001600160a01b039081166020830152600383015416604082015260048201805460609092019161052d9061138d565b80601f01602080910402602001604051908101604052809291908181526020018280546105599061138d565b80156105a65780601f1061057b576101008083540402835291602001916105a6565b820191906000526020600020905b81548152906001019060200180831161058957829003601f168201915b505050505081526020016005820180546105bf9061138d565b80601f01602080910402602001604051908101604052809291908181526020018280546105eb9061138d565b80156106385780601f1061060d57610100808354040283529160200191610638565b820191906000526020600020905b81548152906001019060200180831161061b57829003601f168201915b5050505050815250509050919050565b600954604051630152113160e31b81526001600160a01b03808416600483015283921690630a90898890602401602060405180830381865afa158015610692573d6000803e3d6000fd5b505050506040513d601f19601f820116820180604052508101906106b69190611340565b15156001146106d75760405162461bcd60e51b815260040161021190611362565b6040805160a08101825288815260208082018981526001600160a01b03891683850152606083018890526080830187905260008b8152600283529390932082518155925180519293926107309260018501920190610c9b565b5060408201516002820180546001600160a01b0319166001600160a01b039092169190911790556060820151600382019061076b9082611416565b50608082015160048201906107809082611416565b505050506001600160a01b03166000908152600360209081526040822080546001810182559083529120019490945550505050565b600954604051630152113160e31b81523360048201819052916001600160a01b031690630a90898890602401602060405180830381865afa1580156107fe573d6000803e3d6000fd5b505050506040513d601f19601f820116820180604052508101906108229190611340565b15156001146108435760405162461bcd60e51b815260040161021190611362565b600b54604051631519203360e01b81526001600160a01b039091169063151920339061087d908a908a908a908a908a908a906004016114d6565b600060405180830381600087803b15801561089757600080fd5b505af11580156108ab573d6000803e3d6000fd5b5050505050505050505050565b6040805160a081018252600080825260606020830181905292820152818101829052608081019190915261ffff198216600090815260026020908152604091829020825160a081018452815481526001820180548551818602810186019096528086529194929385810193929083018282801561095457602002820191906000526020600020905b815481526020019060010190808311610940575b505050918352505060028201546001600160a01b031660208201526003820180546040909201916109849061138d565b80601f01602080910402602001604051908101604052809291908181526020018280546109b09061138d565b80156109fd5780601f106109d2576101008083540402835291602001916109fd565b820191906000526020600020905b8154815290600101906020018083116109e057829003601f168201915b505050505081526020016004820180546105bf9061138d565b6001600160a01b038116600090815260076020908152604091829020805483518184028101840190945280845260609392830182828015610a7f57602002820191906000526020600020905b815460101b61ffff19168152600190910190602001808311610a62575b50505050509050919050565b600954604051630152113160e31b81526001600160a01b03808416600483015283921690630a90898890602401602060405180830381865afa158015610ad5573d6000803e3d6000fd5b505050506040513d601f19601f82011682018060405250810190610af99190611340565b1515600114610b1a5760405162461bcd60e51b815260040161021190611362565b6040805160c08101825261ffff198a1680825260208083018b81526001600160a01b03808c16858701528a1660608501526080840189905260a08401889052600092835260068252939091208251815592518051929392610b819260018501920190610c9b565b5060408201516002820180546001600160a01b039283166001600160a01b031991821617909155606084015160038401805491909316911617905560808201516004820190610bd09082611416565b5060a08201516005820190610be59082611416565b505050506001600160a01b031660009081526007602090815260408220805460018101825590835291200180546001600160f01b03191660109790971c969096179095555050505050565b6001600160a01b038116600090815260036020908152604091829020805483518184028101840190945280845260609392830182828015610a7f57602002820191906000526020600020905b815481526020019060010190808311610c7c5750505050509050919050565b828054828255906000526020600020908101928215610cd6579160200282015b82811115610cd6578251825591602001919060010190610cbb565b50610ce2929150610ce6565b5090565b5b80821115610ce25760008155600101610ce7565b80356001600160a01b0381168114610d1257600080fd5b919050565b634e487b7160e01b600052604160045260246000fd5b604051601f8201601f1916810167ffffffffffffffff81118282101715610d5657610d56610d17565b604052919050565b600067ffffffffffffffff831115610d7857610d78610d17565b610d8b601f8401601f1916602001610d2d565b9050828152838383011115610d9f57600080fd5b828260208301376000602084830101529392505050565b600082601f830112610dc757600080fd5b610dd683833560208501610d5e565b9392505050565b60008060008060008060c08789031215610df657600080fd5b86359550610e0660208801610cfb565b9450610e1460408801610cfb565b9350606087013567ffffffffffffffff80821115610e3157600080fd5b610e3d8a838b01610db6565b94506080890135915080821115610e5357600080fd5b50610e6089828a01610db6565b925050610e6f60a08801610cfb565b90509295509295509295565b803561ffff1981168114610d1257600080fd5b600060208284031215610ea057600080fd5b610dd682610e7b565b600081518084526020808501945080840160005b83811015610ed957815187529582019590820190600101610ebd565b509495945050505050565b6000815180845260005b81811015610f0a57602081850181015186830182015201610eee565b506000602082860101526020601f19601f83011685010191505092915050565b60208152815160208201526000602083015160c06040840152610f5060e0840182610ea9565b9050604084015160018060a01b03808216606086015280606087015116608086015250506080840151601f19808584030160a0860152610f908383610ee4565b925060a08601519150808584030160c086015250610fae8282610ee4565b95945050505050565b600082601f830112610fc857600080fd5b8135602067ffffffffffffffff821115610fe457610fe4610d17565b8160051b610ff3828201610d2d565b928352848101820192828101908785111561100d57600080fd5b83870192505b8483101561102c57823582529183019190830190611013565b979650505050505050565b60008060008060008060c0878903121561105057600080fd5b86359550602087013567ffffffffffffffff8082111561106f57600080fd5b61107b8a838b01610fb7565b965061108960408a01610cfb565b95506060890135915080821115610e3157600080fd5b60008060008060008060c087890312156110b857600080fd5b6110c187610cfb565b95506110cf60208801610cfb565b945060408701359350606087013567ffffffffffffffff808211156110f357600080fd5b6110ff8a838b01610db6565b9450608089013591508082111561111557600080fd5b6111218a838b01610db6565b935060a089013591508082111561113757600080fd5b508701601f8101891361114957600080fd5b61115889823560208401610d5e565b9150509295509295509295565b60208152815160208201526000602083015160a0604084015261118b60c0840182610ea9565b905060018060a01b0360408501511660608401526060840151601f19808584030160808601526111bb8383610ee4565b925060808601519150808584030160a086015250610fae8282610ee4565b6000602082840312156111eb57600080fd5b610dd682610cfb565b6020808252825182820181905260009190848201906040850190845b8181101561123157835161ffff191683529284019291840191600101611210565b50909695505050505050565b600080600080600080600060e0888a03121561125857600080fd5b61126188610e7b565b9650602088013567ffffffffffffffff8082111561127e57600080fd5b61128a8b838c01610fb7565b975061129860408b01610cfb565b96506112a660608b01610cfb565b955060808a01359150808211156112bc57600080fd5b6112c88b838c01610db6565b945060a08a01359150808211156112de57600080fd5b506112eb8a828b01610db6565b9250506112fa60c08901610cfb565b905092959891949750929550565b6020808252825182820181905260009190848201906040850190845b8181101561123157835183529284019291840191600101611324565b60006020828403121561135257600080fd5b81518015158114610dd657600080fd5b6020808252601190820152705065726d697373616f206e65676164612160781b604082015260600190565b600181811c908216806113a157607f821691505b6020821081036113c157634e487b7160e01b600052602260045260246000fd5b50919050565b601f82111561141157600081815260208120601f850160051c810160208610156113ee5750805b601f850160051c820191505b8181101561140d578281556001016113fa565b5050505b505050565b815167ffffffffffffffff81111561143057611430610d17565b6114448161143e845461138d565b846113c7565b602080601f83116001811461147957600084156114615750858301515b600019600386901b1c1916600185901b17855561140d565b600085815260208120601f198616915b828110156114a857888601518255948401946001909101908401611489565b50858210156114c65787850151600019600388901b60f8161c191681555b5050505050600190811b01905550565b6001600160a01b038781168252861660208201526040810185905260c06060820181905260009061150990830186610ee4565b828103608084015261151b8186610ee4565b905082810360a084015261152f8185610ee4565b999850505050505050505056fea2646970667358221220de5a0853e738729f46618ba60622a6a32b41e06f84eb8967d447448a0495bf0c64736f6c63430008110033",
  "immutableReferences": {},
  "source": "// SPDX-License-Identifier: MIT\r\npragma solidity ^0.8.17;\r\nimport \"./Authentication.sol\";\r\nimport \"./UpdateTr.sol\";\r\n\r\nstruct ReceivedUnit {\r\n    bytes32 id;\r\n    address distributorId;\r\n    address supplierId;\r\n    string dateTime;\r\n    string local;\r\n}\r\n\r\nstruct ReceivedContainer {\r\n    bytes32 id;\r\n    bytes32[] units;\r\n    address supplierId;\r\n    string dateTime;\r\n    string local;\r\n} // Logistc Unit Received\r\n\r\nstruct DispatchedUnit {\r\n    bytes32 id;\r\n    address distributorId;\r\n    address receiverId;\r\n    string date;\r\n    string local;\r\n}\r\n\r\nstruct DispachedContainer {\r\n    bytes32 id;\r\n    bytes32[] units;\r\n    address distributorId;\r\n    address receiverId;\r\n    string date;\r\n    string local;\r\n}\r\n\r\ncontract Distributor {\r\n    //Variaveis de estado\r\n    mapping(bytes32 => ReceivedUnit) receivedUnits; // Lista de containers recebidos para entrega por cada distribuidor.\r\n    mapping(address => bytes32[]) receivedUnitsId;\r\n\r\n    mapping(bytes32 => ReceivedContainer) receivedContainers; // Lista de containers recebidos para entrega por cada distribuidor.\r\n    mapping(address => bytes32[]) receivedContainersId;\r\n\r\n    mapping(bytes32 => DispatchedUnit) dispatchedUnits; // Lista de containers recebidos para entrega por cada distribuidor.\r\n    mapping(address => bytes32[]) dispatchedUnitsId;\r\n\r\n    mapping(bytes30 => DispachedContainer) dispatchedContainers; // Lista de containers recebidos para entrega por cada distribuidor.\r\n    mapping(address => bytes30[]) dispatchedContainersId;\r\n\r\n    address contractAuthentication;\r\n    Authentication instanceAuthentication;\r\n    address contractUpdateTr;\r\n    UpdateTr instanceUpdateTr;\r\n\r\n    constructor(address _contractAuthentication, address _contractUpdateTr) {\r\n        contractAuthentication = _contractAuthentication;\r\n        instanceAuthentication = Authentication(contractAuthentication);\r\n        contractUpdateTr = _contractUpdateTr;\r\n        instanceUpdateTr = UpdateTr(contractUpdateTr);\r\n    }\r\n\r\n    //Verifica se o endereo que esta chamando o contrato possui permisao para modificar o estado da rede\r\n    modifier onlyOWNER(address _addr) {\r\n        require(\r\n            instanceAuthentication.activeUser(_addr) == true,\r\n            \"Permissao negada!\"\r\n        );\r\n        _;\r\n    }\r\n\r\n    function registerReceivedUnit(\r\n        bytes32 _id,\r\n        address _distributorId,\r\n        address _supplierId,\r\n        string memory _dateTime,\r\n        string memory _local,\r\n        address _addr\r\n    ) public onlyOWNER(_addr) {\r\n        receivedUnits[_id] = ReceivedUnit(\r\n            _id,\r\n            _distributorId,\r\n            _supplierId,\r\n            _dateTime,\r\n            _local\r\n        );\r\n        receivedUnitsId[_addr].push(_id);\r\n    }\r\n\r\n    function registerReceivedContainer(\r\n        bytes32 _id,\r\n        bytes32[] memory _units,\r\n        address _supplierId,\r\n        string memory _dateTime,\r\n        string memory _local,\r\n        address _addr\r\n    ) public onlyOWNER(_addr) {\r\n        receivedContainers[_id] = ReceivedContainer(\r\n            _id,\r\n            _units,\r\n            _supplierId,\r\n            _dateTime,\r\n            _local\r\n        );\r\n        receivedContainersId[_addr].push(_id);\r\n    }\r\n\r\n    function getReceivedContainer(\r\n        bytes30 _id\r\n    ) public view returns (ReceivedContainer memory) {\r\n        return receivedContainers[_id];\r\n    }\r\n\r\n    function getReceivedContainerId(\r\n        address _addr\r\n    ) public view returns (bytes32[] memory) {\r\n        return receivedContainersId[_addr];\r\n    }\r\n\r\n    function registerDispachedUnit(\r\n        bytes32 _id,\r\n        address _distributorId,\r\n        address _receiverId,\r\n        string memory _dateTime,\r\n        string memory _local,\r\n        address _addr\r\n    ) public onlyOWNER(_addr) {\r\n        dispatchedUnits[_id] = DispatchedUnit(\r\n            _id,\r\n            _distributorId,\r\n            _receiverId,\r\n            _dateTime,\r\n            _local\r\n        );\r\n        dispatchedUnitsId[_addr].push(_id);\r\n    }\r\n\r\n    function registerDispachedContainer(\r\n        bytes30 _id,\r\n        bytes32[] memory _units,\r\n        address _distributorId,\r\n        address _receiverId,\r\n        string memory _date,\r\n        string memory _local,\r\n        address _addr\r\n    ) public onlyOWNER(_addr) {\r\n        dispatchedContainers[_id] = DispachedContainer(\r\n            _id,\r\n            _units,\r\n            _distributorId,\r\n            _receiverId,\r\n            _date,\r\n            _local\r\n        );\r\n        dispatchedContainersId[_addr].push(_id);\r\n    }\r\n\r\n    function getDispachedContainer(\r\n        bytes30 _id\r\n    ) public view returns (DispachedContainer memory) {\r\n        return dispatchedContainers[_id];\r\n    }\r\n\r\n    function getDispachedContainerId(\r\n        address _addr\r\n    ) public view returns (bytes30[] memory) {\r\n        return dispatchedContainersId[_addr];\r\n    }\r\n\r\n    //Funo para registrar a tranzao de um produto\r\n    function forwarding(\r\n        address _sender,\r\n        address _receiver,\r\n        bytes32 _unitId,\r\n        string memory _date,\r\n        string memory _businessUnitType,\r\n        bytes memory _signature\r\n    ) public onlyOWNER(msg.sender) {\r\n        //chamar funcao updateTr no contrato UpdateTr\r\n        instanceUpdateTr.updateTr(\r\n            _sender,\r\n            _receiver,\r\n            _unitId,\r\n            _date,\r\n            _businessUnitType,\r\n            _signature\r\n        );\r\n    }\r\n}\r\n",
  "sourcePath": "C:\\Users\\samue\\Documents\\Workspace_react\\BlockForBees\\backend_blockcahin\\contracts\\Distributor.sol",
  "compiler": {
    "name": "solc",
    "version": "0.8.17+commit.8df45f5f.Emscripten.clang"
  },
  "schemaVersion": "3.4.11",
  "updatedAt": "2023-04-18T18:45:22.290Z",
  "networkType": "ethereum",
  "devdoc": {
    "kind": "dev",
    "methods": {},
    "version": 1
  },
  "userdoc": {
    "kind": "user",
    "methods": {},
    "version": 1
  }
}