{
  "contractName": "Distributor",
  "abi": [
    {
      "inputs": [
        {
          "internalType": "address",
          "name": "_contractAuthentication",
          "type": "address"
        },
        {
          "internalType": "address",
          "name": "_contractUpdateTr",
          "type": "address"
        }
      ],
      "stateMutability": "nonpayable",
      "type": "constructor"
    },
    {
      "inputs": [
        {
          "internalType": "bytes31",
          "name": "_id",
          "type": "bytes31"
        },
        {
          "internalType": "string",
          "name": "_distributorId",
          "type": "string"
        },
        {
          "internalType": "string",
          "name": "_supplierId",
          "type": "string"
        },
        {
          "internalType": "string",
          "name": "_dateTime",
          "type": "string"
        },
        {
          "internalType": "string",
          "name": "_local",
          "type": "string"
        },
        {
          "internalType": "string",
          "name": "_userId",
          "type": "string"
        }
      ],
      "name": "registerReceivedUnit",
      "outputs": [],
      "stateMutability": "nonpayable",
      "type": "function"
    },
    {
      "inputs": [
        {
          "internalType": "bytes32",
          "name": "_id",
          "type": "bytes32"
        },
        {
          "internalType": "bytes31[]",
          "name": "_units",
          "type": "bytes31[]"
        },
        {
          "internalType": "string",
          "name": "_supplierId",
          "type": "string"
        },
        {
          "internalType": "string",
          "name": "_dateTime",
          "type": "string"
        },
        {
          "internalType": "string",
          "name": "_local",
          "type": "string"
        },
        {
          "internalType": "string",
          "name": "_userId",
          "type": "string"
        }
      ],
      "name": "registerReceivedContainer",
      "outputs": [],
      "stateMutability": "nonpayable",
      "type": "function"
    },
    {
      "inputs": [
        {
          "internalType": "bytes32",
          "name": "_id",
          "type": "bytes32"
        }
      ],
      "name": "getReceivedContainer",
      "outputs": [
        {
          "components": [
            {
              "internalType": "bytes32",
              "name": "id",
              "type": "bytes32"
            },
            {
              "internalType": "bytes31[]",
              "name": "units",
              "type": "bytes31[]"
            },
            {
              "internalType": "string",
              "name": "supplierId",
              "type": "string"
            },
            {
              "internalType": "string",
              "name": "dateTime",
              "type": "string"
            },
            {
              "internalType": "string",
              "name": "local",
              "type": "string"
            }
          ],
          "internalType": "struct ReceivedContainer",
          "name": "",
          "type": "tuple"
        }
      ],
      "stateMutability": "view",
      "type": "function",
      "constant": true
    },
    {
      "inputs": [
        {
          "internalType": "string",
          "name": "_userId",
          "type": "string"
        }
      ],
      "name": "getReceivedContainerId",
      "outputs": [
        {
          "internalType": "bytes32[]",
          "name": "",
          "type": "bytes32[]"
        }
      ],
      "stateMutability": "view",
      "type": "function",
      "constant": true
    },
    {
      "inputs": [
        {
          "internalType": "bytes31",
          "name": "_id",
          "type": "bytes31"
        },
        {
          "internalType": "string",
          "name": "_distributorId",
          "type": "string"
        },
        {
          "internalType": "string",
          "name": "_receiverId",
          "type": "string"
        },
        {
          "internalType": "string",
          "name": "_dateTime",
          "type": "string"
        },
        {
          "internalType": "string",
          "name": "_local",
          "type": "string"
        },
        {
          "internalType": "string",
          "name": "_userId",
          "type": "string"
        }
      ],
      "name": "registerDispachedUnit",
      "outputs": [],
      "stateMutability": "nonpayable",
      "type": "function"
    },
    {
      "inputs": [
        {
          "internalType": "bytes32",
          "name": "_id",
          "type": "bytes32"
        },
        {
          "internalType": "bytes31[]",
          "name": "_units",
          "type": "bytes31[]"
        },
        {
          "internalType": "string",
          "name": "_distributorId",
          "type": "string"
        },
        {
          "internalType": "string",
          "name": "_receiverId",
          "type": "string"
        },
        {
          "internalType": "string",
          "name": "_date",
          "type": "string"
        },
        {
          "internalType": "string",
          "name": "_local",
          "type": "string"
        },
        {
          "internalType": "string",
          "name": "_userId",
          "type": "string"
        }
      ],
      "name": "registerDispatchedContainer",
      "outputs": [],
      "stateMutability": "nonpayable",
      "type": "function"
    },
    {
      "inputs": [
        {
          "internalType": "bytes32",
          "name": "_id",
          "type": "bytes32"
        }
      ],
      "name": "getDispatchedContainer",
      "outputs": [
        {
          "components": [
            {
              "internalType": "bytes32",
              "name": "id",
              "type": "bytes32"
            },
            {
              "internalType": "bytes31[]",
              "name": "units",
              "type": "bytes31[]"
            },
            {
              "internalType": "string",
              "name": "distributorId",
              "type": "string"
            },
            {
              "internalType": "string",
              "name": "receiverId",
              "type": "string"
            },
            {
              "internalType": "string",
              "name": "date",
              "type": "string"
            },
            {
              "internalType": "string",
              "name": "local",
              "type": "string"
            }
          ],
          "internalType": "struct DispachedContainer",
          "name": "",
          "type": "tuple"
        }
      ],
      "stateMutability": "view",
      "type": "function",
      "constant": true
    },
    {
      "inputs": [
        {
          "internalType": "string",
          "name": "_userId",
          "type": "string"
        }
      ],
      "name": "getDispatchedContainerId",
      "outputs": [
        {
          "internalType": "bytes32[]",
          "name": "",
          "type": "bytes32[]"
        }
      ],
      "stateMutability": "view",
      "type": "function",
      "constant": true
    },
    {
      "inputs": [
        {
          "internalType": "string",
          "name": "_sender",
          "type": "string"
        },
        {
          "internalType": "string",
          "name": "_receiver",
          "type": "string"
        },
        {
          "internalType": "bytes32",
          "name": "_unitId",
          "type": "bytes32"
        },
        {
          "internalType": "string",
          "name": "_date",
          "type": "string"
        },
        {
          "internalType": "string",
          "name": "_businessUnitType",
          "type": "string"
        },
        {
          "internalType": "bytes",
          "name": "_signature",
          "type": "bytes"
        }
      ],
      "name": "forwarding",
      "outputs": [],
      "stateMutability": "nonpayable",
      "type": "function"
    }
  ],
  "bytecode": "0x608060405234801561001057600080fd5b50604051620017c7380380620017c783398101604081905261003191610098565b600880546001600160a01b039384166001600160a01b03199182168117909255600980548216909217909155600a8054929093169181168217909255600b80549092161790556100cb565b80516001600160a01b038116811461009357600080fd5b919050565b600080604083850312156100ab57600080fd5b6100b48361007c565b91506100c26020840161007c565b90509250929050565b6116ec80620000db6000396000f3fe608060405234801561001057600080fd5b50600436106100935760003560e01c806364a5ec891161006657806364a5ec891461010957806366297f351461011c5780636df817491461013c57806399b0282b1461014f578063d0e863b91461016257600080fd5b80630aa495b9146100985780630c9c2896146100c15780633e01d719146100d6578063604c714a146100f6575b600080fd5b6100ab6100a6366004610e33565b610175565b6040516100b89190610edb565b60405180910390f35b6100d46100cf366004611037565b61047d565b005b6100e96100e4366004611111565b61058d565b6040516100b8919061114e565b6100d4610104366004611230565b6105fd565b6100d46101173660046112ac565b610760565b61012f61012a366004610e33565b6108cd565b6040516100b891906112f7565b6100d461014a3660046112ac565b610ab3565b6100e961015d366004611111565b610c2c565b6100d4610170366004611376565b610c3e565b6101b16040518060c001604052806000801916815260200160608152602001606081526020016060815260200160608152602001606081525090565b600082815260066020908152604091829020825160c081018452815481526001820180548551818602810186019096528086529194929385810193929083018282801561022557602002820191906000526020600020905b815460081b60ff19168152600190910190602001808311610209575b5050505050815260200160028201805461023e90611476565b80601f016020809104026020016040519081016040528092919081815260200182805461026a90611476565b80156102b75780601f1061028c576101008083540402835291602001916102b7565b820191906000526020600020905b81548152906001019060200180831161029a57829003601f168201915b505050505081526020016003820180546102d090611476565b80601f01602080910402602001604051908101604052809291908181526020018280546102fc90611476565b80156103495780601f1061031e57610100808354040283529160200191610349565b820191906000526020600020905b81548152906001019060200180831161032c57829003601f168201915b5050505050815260200160048201805461036290611476565b80601f016020809104026020016040519081016040528092919081815260200182805461038e90611476565b80156103db5780601f106103b0576101008083540402835291602001916103db565b820191906000526020600020905b8154815290600101906020018083116103be57829003601f168201915b505050505081526020016005820180546103f490611476565b80601f016020809104026020016040519081016040528092919081815260200182805461042090611476565b801561046d5780601f106104425761010080835404028352916020019161046d565b820191906000526020600020905b81548152906001019060200180831161045057829003601f168201915b5050505050815250509050919050565b60095460405163175757d560e01b815286916001600160a01b03169063175757d5906104ad9084906004016114b0565b602060405180830381865afa1580156104ca573d6000803e3d6000fd5b505050506040513d601f19601f820116820180604052508101906104ee91906114ca565b15156001146105185760405162461bcd60e51b815260040161050f906114ec565b60405180910390fd5b600b546040516324d9f1a160e11b81526001600160a01b03909116906349b3e34290610552908a908a908a908a908a908a90600401611517565b600060405180830381600087803b15801561056c57600080fd5b505af1158015610580573d6000803e3d6000fd5b5050505050505050505050565b606060038260405161059f919061158b565b90815260408051918290036020908101832080548083028501830190935282845291908301828280156105f157602002820191906000526020600020905b8154815260200190600101908083116105dd575b50505050509050919050565b60095460405163175757d560e01b815282916001600160a01b03169063175757d59061062d9084906004016114b0565b602060405180830381865afa15801561064a573d6000803e3d6000fd5b505050506040513d601f19601f8201168201806040525081019061066e91906114ca565b151560011461068f5760405162461bcd60e51b815260040161050f906114ec565b6040805160a0810182528881526020808201898152828401899052606083018890526080830187905260008b8152600283529390932082518155925180519293926106e09260018501920190610dbe565b50604082015160028201906106f590826115f6565b506060820151600382019061070a90826115f6565b506080820151600482019061071f90826115f6565b50905050600382604051610733919061158b565b90815260405160209181900382019020805460018101825560009182529190200196909655505050505050565b60095460405163175757d560e01b815282916001600160a01b03169063175757d5906107909084906004016114b0565b602060405180830381865afa1580156107ad573d6000803e3d6000fd5b505050506040513d601f19601f820116820180604052508101906107d191906114ca565b15156001146107f25760405162461bcd60e51b815260040161050f906114ec565b6040805160a08101825260ff19891680825260208083018a81528385018a9052606084018990526080840188905260009283526004909152929020815181559151909190600182019061084590826115f6565b506040820151600282019061085a90826115f6565b506060820151600382019061086f90826115f6565b506080820151600482019061088490826115f6565b50905050600582604051610898919061158b565b908152604051602091819003820190208054600181018255600091825291902060ff1998909816970196909655505050505050565b6109026040518060a0016040528060008019168152602001606081526020016060815260200160608152602001606081525090565b600082815260026020908152604091829020825160a081018452815481526001820180548551818602810186019096528086529194929385810193929083018282801561097657602002820191906000526020600020905b815460081b60ff1916815260019091019060200180831161095a575b5050505050815260200160028201805461098f90611476565b80601f01602080910402602001604051908101604052809291908181526020018280546109bb90611476565b8015610a085780601f106109dd57610100808354040283529160200191610a08565b820191906000526020600020905b8154815290600101906020018083116109eb57829003601f168201915b50505050508152602001600382018054610a2190611476565b80601f0160208091040260200160405190810160405280929190818152602001828054610a4d90611476565b8015610a9a5780601f10610a6f57610100808354040283529160200191610a9a565b820191906000526020600020905b815481529060010190602001808311610a7d57829003601f168201915b505050505081526020016004820180546103f490611476565b60095460405163175757d560e01b815282916001600160a01b03169063175757d590610ae39084906004016114b0565b602060405180830381865afa158015610b00573d6000803e3d6000fd5b505050506040513d601f19601f82011682018060405250810190610b2491906114ca565b1515600114610b455760405162461bcd60e51b815260040161050f906114ec565b6040805160a08101825260ff19891680825260208083018a81528385018a905260608401899052608084018890526000928352908290529290208151815591519091906001820190610b9790826115f6565b5060408201516002820190610bac90826115f6565b5060608201516003820190610bc190826115f6565b5060808201516004820190610bd690826115f6565b50905050600182604051610bea919061158b565b90815260405160209181900382019020805460018101825560009182529190200180546001600160f81b03191660089890981c97909717909655505050505050565b606060078260405161059f919061158b565b60095460405163175757d560e01b815282916001600160a01b03169063175757d590610c6e9084906004016114b0565b602060405180830381865afa158015610c8b573d6000803e3d6000fd5b505050506040513d601f19601f82011682018060405250810190610caf91906114ca565b1515600114610cd05760405162461bcd60e51b815260040161050f906114ec565b6040805160c08101825289815260208082018a81528284018a9052606083018990526080830188905260a0830187905260008c815260068352939093208251815592518051929392610d289260018501920190610dbe565b5060408201516002820190610d3d90826115f6565b5060608201516003820190610d5290826115f6565b5060808201516004820190610d6790826115f6565b5060a08201516005820190610d7c90826115f6565b50905050600782604051610d90919061158b565b9081526040516020918190038201902080546001810182556000918252919020019790975550505050505050565b828054828255906000526020600020908101928215610e0e579160200282015b82811115610e0e57825182546001600160f81b03191660089190911c178255602090920191600190910190610dde565b50610e1a929150610e1e565b5090565b5b80821115610e1a5760008155600101610e1f565b600060208284031215610e4557600080fd5b5035919050565b600081518084526020808501945080840160005b83811015610e8057815160ff191687529582019590820190600101610e60565b509495945050505050565b60005b83811015610ea6578181015183820152602001610e8e565b50506000910152565b60008151808452610ec7816020860160208601610e8b565b601f01601f19169290920160200192915050565b60208152815160208201526000602083015160c06040840152610f0160e0840182610e4c565b90506040840151601f1980858403016060860152610f1f8383610eaf565b92506060860151915080858403016080860152610f3c8383610eaf565b925060808601519150808584030160a0860152610f598383610eaf565b925060a08601519150808584030160c086015250610f778282610eaf565b95945050505050565b634e487b7160e01b600052604160045260246000fd5b604051601f8201601f1916810167ffffffffffffffff81118282101715610fbf57610fbf610f80565b604052919050565b600082601f830112610fd857600080fd5b813567ffffffffffffffff811115610ff257610ff2610f80565b611005601f8201601f1916602001610f96565b81815284602083860101111561101a57600080fd5b816020850160208301376000918101602001919091529392505050565b60008060008060008060c0878903121561105057600080fd5b863567ffffffffffffffff8082111561106857600080fd5b6110748a838b01610fc7565b9750602089013591508082111561108a57600080fd5b6110968a838b01610fc7565b96506040890135955060608901359150808211156110b357600080fd5b6110bf8a838b01610fc7565b945060808901359150808211156110d557600080fd5b6110e18a838b01610fc7565b935060a08901359150808211156110f757600080fd5b5061110489828a01610fc7565b9150509295509295509295565b60006020828403121561112357600080fd5b813567ffffffffffffffff81111561113a57600080fd5b61114684828501610fc7565b949350505050565b6020808252825182820181905260009190848201906040850190845b818110156111865783518352928401929184019160010161116a565b50909695505050505050565b803560ff19811681146111a457600080fd5b919050565b600082601f8301126111ba57600080fd5b8135602067ffffffffffffffff8211156111d6576111d6610f80565b8160051b6111e5828201610f96565b92835284810182019282810190878511156111ff57600080fd5b83870192505b848310156112255761121683611192565b82529183019190830190611205565b979650505050505050565b60008060008060008060c0878903121561124957600080fd5b86359550602087013567ffffffffffffffff8082111561126857600080fd5b6112748a838b016111a9565b9650604089013591508082111561128a57600080fd5b6112968a838b01610fc7565b955060608901359150808211156110b357600080fd5b60008060008060008060c087890312156112c557600080fd5b6112ce87611192565b9550602087013567ffffffffffffffff808211156112eb57600080fd5b6112748a838b01610fc7565b60208152815160208201526000602083015160a0604084015261131d60c0840182610e4c565b90506040840151601f198085840301606086015261133b8383610eaf565b925060608601519150808584030160808601526113588383610eaf565b925060808601519150808584030160a086015250610f778282610eaf565b600080600080600080600060e0888a03121561139157600080fd5b87359650602088013567ffffffffffffffff808211156113b057600080fd5b6113bc8b838c016111a9565b975060408a01359150808211156113d257600080fd5b6113de8b838c01610fc7565b965060608a01359150808211156113f457600080fd5b6114008b838c01610fc7565b955060808a013591508082111561141657600080fd5b6114228b838c01610fc7565b945060a08a013591508082111561143857600080fd5b6114448b838c01610fc7565b935060c08a013591508082111561145a57600080fd5b506114678a828b01610fc7565b91505092959891949750929550565b600181811c9082168061148a57607f821691505b6020821081036114aa57634e487b7160e01b600052602260045260246000fd5b50919050565b6020815260006114c36020830184610eaf565b9392505050565b6000602082840312156114dc57600080fd5b815180151581146114c357600080fd5b6020808252601190820152705065726d697373616f206e65676164612160781b604082015260600190565b60c08152600061152a60c0830189610eaf565b828103602084015261153c8189610eaf565b905086604084015282810360608401526115568187610eaf565b9050828103608084015261156a8186610eaf565b905082810360a084015261157e8185610eaf565b9998505050505050505050565b6000825161159d818460208701610e8b565b9190910192915050565b601f8211156115f157600081815260208120601f850160051c810160208610156115ce5750805b601f850160051c820191505b818110156115ed578281556001016115da565b5050505b505050565b815167ffffffffffffffff81111561161057611610610f80565b6116248161161e8454611476565b846115a7565b602080601f83116001811461165957600084156116415750858301515b600019600386901b1c1916600185901b1785556115ed565b600085815260208120601f198616915b8281101561168857888601518255948401946001909101908401611669565b50858210156116a65787850151600019600388901b60f8161c191681555b5050505050600190811b0190555056fea26469706673582212207782fc035fb03db526aeece315bab15cff5383c191b96e1003c826222c18541c64736f6c63430008110033",
  "immutableReferences": {},
  "source": "// SPDX-License-Identifier: MIT\r\npragma solidity ^0.8.17;\r\nimport \"./Authentication.sol\";\r\nimport \"./UpdateTr.sol\";\r\n\r\nstruct ReceivedUnit {\r\n    bytes32 id;\r\n    string distributorId;\r\n    string supplierId;\r\n    string dateTime;\r\n    string local;\r\n}\r\n\r\nstruct ReceivedContainer {\r\n    bytes32 id;\r\n    bytes31[] units;\r\n    string supplierId;\r\n    string dateTime;\r\n    string local;\r\n} // Logistc Unit Received\r\n\r\nstruct DispatchedUnit {\r\n    bytes32 id;\r\n    string distributorId;\r\n    string receiverId;\r\n    string date;\r\n    string local;\r\n}\r\n\r\nstruct DispachedContainer {\r\n    bytes32 id;\r\n    bytes31[] units;\r\n    string distributorId;\r\n    string receiverId;\r\n    string date;\r\n    string local;\r\n}\r\n\r\ncontract Distributor {\r\n    //Variaveis de estado\r\n    mapping(bytes31 => ReceivedUnit) receivedUnits; // Lista de containers recebidos para entrega por cada distribuidor.\r\n    mapping(string => bytes31[]) receivedUnitsId;\r\n\r\n    mapping(bytes32 => ReceivedContainer) receivedContainers; // Lista de containers recebidos para entrega por cada distribuidor.\r\n    mapping(string => bytes32[]) receivedContainersId;\r\n\r\n    mapping(bytes32 => DispatchedUnit) dispatchedUnits; // Lista de containers recebidos para entrega por cada distribuidor.\r\n    mapping(string => bytes32[]) dispatchedUnitsId;\r\n\r\n    mapping(bytes32 => DispachedContainer) dispatchedContainers; // Lista de containers recebidos para entrega por cada distribuidor.\r\n    mapping(string => bytes32[]) dispatchedContainersId;\r\n\r\n    address contractAuthentication;\r\n    Authentication instanceAuthentication;\r\n    address contractUpdateTr;\r\n    UpdateTr instanceUpdateTr;\r\n\r\n    constructor(address _contractAuthentication, address _contractUpdateTr) {\r\n        contractAuthentication = _contractAuthentication;\r\n        instanceAuthentication = Authentication(contractAuthentication);\r\n        contractUpdateTr = _contractUpdateTr;\r\n        instanceUpdateTr = UpdateTr(contractUpdateTr);\r\n    }\r\n\r\n    //Verifica se o endereo que esta chamando o contrato possui permisao para modificar o estado da rede\r\n    modifier onlyOWNER(string memory _userId) {\r\n        require(\r\n            instanceAuthentication.activeUser(_userId) == true,\r\n            \"Permissao negada!\"\r\n        );\r\n        _;\r\n    }\r\n\r\n    function registerReceivedUnit(\r\n        bytes31 _id,\r\n        string memory _distributorId,\r\n        string memory _supplierId,\r\n        string memory _dateTime,\r\n        string memory _local,\r\n        string memory _userId\r\n    ) public onlyOWNER(_userId) {\r\n        receivedUnits[_id] = ReceivedUnit(\r\n            _id,\r\n            _distributorId,\r\n            _supplierId,\r\n            _dateTime,\r\n            _local\r\n        );\r\n        receivedUnitsId[_userId].push(_id);\r\n    }\r\n\r\n    function registerReceivedContainer(\r\n        bytes32 _id,\r\n        bytes31[] memory _units,\r\n        string memory _supplierId,\r\n        string memory _dateTime,\r\n        string memory _local,\r\n        string memory _userId\r\n    ) public onlyOWNER(_userId) {\r\n        receivedContainers[_id] = ReceivedContainer(\r\n            _id,\r\n            _units,\r\n            _supplierId,\r\n            _dateTime,\r\n            _local\r\n        );\r\n        receivedContainersId[_userId].push(_id);\r\n    }\r\n\r\n    function getReceivedContainer(\r\n        bytes32 _id\r\n    ) public view returns (ReceivedContainer memory) {\r\n        return receivedContainers[_id];\r\n    }\r\n\r\n    function getReceivedContainerId(\r\n        string memory _userId\r\n    ) public view returns (bytes32[] memory) {\r\n        return receivedContainersId[_userId];\r\n    }\r\n\r\n    function registerDispachedUnit(\r\n        bytes31 _id,\r\n        string memory _distributorId,\r\n        string memory _receiverId,\r\n        string memory _dateTime,\r\n        string memory _local,\r\n        string memory _userId\r\n    ) public onlyOWNER(_userId) {\r\n        dispatchedUnits[_id] = DispatchedUnit(\r\n            _id,\r\n            _distributorId,\r\n            _receiverId,\r\n            _dateTime,\r\n            _local\r\n        );\r\n        dispatchedUnitsId[_userId].push(_id);\r\n    }\r\n\r\n    function registerDispatchedContainer(\r\n        bytes32 _id,\r\n        bytes31[] memory _units,\r\n        string memory _distributorId,\r\n        string memory _receiverId,\r\n        string memory _date,\r\n        string memory _local,\r\n        string memory _userId\r\n    ) public onlyOWNER(_userId) {\r\n        dispatchedContainers[_id] = DispachedContainer(\r\n            _id,\r\n            _units,\r\n            _distributorId,\r\n            _receiverId,\r\n            _date,\r\n            _local\r\n        );\r\n        dispatchedContainersId[_userId].push(_id);\r\n    }\r\n\r\n    function getDispatchedContainer(\r\n        bytes32 _id\r\n    ) public view returns (DispachedContainer memory) {\r\n        return dispatchedContainers[_id];\r\n    }\r\n\r\n    function getDispatchedContainerId(\r\n        string memory _userId\r\n    ) public view returns (bytes32[] memory) {\r\n        return dispatchedContainersId[_userId];\r\n    }\r\n\r\n    //Funo para registrar a tranzao de um produto\r\n    function forwarding(\r\n        string memory _sender,\r\n        string memory _receiver,\r\n        bytes32 _unitId,\r\n        string memory _date,\r\n        string memory _businessUnitType,\r\n        bytes memory _signature\r\n    ) public onlyOWNER(_receiver) {\r\n        //chamar funcao updateTr no contrato UpdateTr\r\n        instanceUpdateTr.updateTr(\r\n            _sender,\r\n            _receiver,\r\n            _unitId,\r\n            _date,\r\n            _businessUnitType,\r\n            _signature\r\n        );\r\n    }\r\n}\r\n",
  "sourcePath": "C:\\Users\\samue\\Documents\\Workspace_react\\BlockForBees\\backend_blockcahin\\contracts\\Distributor.sol",
  "compiler": {
    "name": "solc",
    "version": "0.8.17+commit.8df45f5f.Emscripten.clang"
  },
  "schemaVersion": "3.4.11",
  "updatedAt": "2023-04-25T01:20:22.031Z",
  "networkType": "ethereum",
  "devdoc": {
    "kind": "dev",
    "methods": {},
    "version": 1
  },
  "userdoc": {
    "kind": "user",
    "methods": {},
    "version": 1
  }
}