{
  "contractName": "Merchant",
  "abi": [
    {
      "inputs": [
        {
          "internalType": "address",
          "name": "_contractAuthentication",
          "type": "address"
        },
        {
          "internalType": "address",
          "name": "_contractUpdateTr",
          "type": "address"
        }
      ],
      "stateMutability": "nonpayable",
      "type": "constructor"
    },
    {
      "inputs": [
        {
          "internalType": "bytes31",
          "name": "_id",
          "type": "bytes31"
        },
        {
          "internalType": "string",
          "name": "_distributorId",
          "type": "string"
        },
        {
          "internalType": "string",
          "name": "_dateTime",
          "type": "string"
        },
        {
          "internalType": "string",
          "name": "_local",
          "type": "string"
        },
        {
          "internalType": "string",
          "name": "_userId",
          "type": "string"
        }
      ],
      "name": "registerReceivedUnit",
      "outputs": [],
      "stateMutability": "nonpayable",
      "type": "function"
    },
    {
      "inputs": [
        {
          "internalType": "bytes31",
          "name": "_id",
          "type": "bytes31"
        }
      ],
      "name": "getReceivedUnit",
      "outputs": [
        {
          "components": [
            {
              "internalType": "bytes31",
              "name": "id",
              "type": "bytes31"
            },
            {
              "internalType": "string",
              "name": "distributorId",
              "type": "string"
            },
            {
              "internalType": "string",
              "name": "date",
              "type": "string"
            },
            {
              "internalType": "string",
              "name": "local",
              "type": "string"
            }
          ],
          "internalType": "struct ReceivedUnit",
          "name": "",
          "type": "tuple"
        }
      ],
      "stateMutability": "view",
      "type": "function",
      "constant": true
    },
    {
      "inputs": [
        {
          "internalType": "string",
          "name": "_userId",
          "type": "string"
        }
      ],
      "name": "getReceivedUnitId",
      "outputs": [
        {
          "internalType": "bytes31[]",
          "name": "",
          "type": "bytes31[]"
        }
      ],
      "stateMutability": "view",
      "type": "function",
      "constant": true
    },
    {
      "inputs": [
        {
          "internalType": "bytes32",
          "name": "_id",
          "type": "bytes32"
        },
        {
          "internalType": "bytes31[]",
          "name": "_units",
          "type": "bytes31[]"
        },
        {
          "internalType": "string",
          "name": "_distributorId",
          "type": "string"
        },
        {
          "internalType": "string",
          "name": "_date",
          "type": "string"
        },
        {
          "internalType": "string",
          "name": "_local",
          "type": "string"
        },
        {
          "internalType": "string",
          "name": "_userId",
          "type": "string"
        }
      ],
      "name": "registerReceivedContainer",
      "outputs": [],
      "stateMutability": "nonpayable",
      "type": "function"
    },
    {
      "inputs": [
        {
          "internalType": "bytes30",
          "name": "_id",
          "type": "bytes30"
        }
      ],
      "name": "getReceivedContainer",
      "outputs": [
        {
          "components": [
            {
              "internalType": "bytes32",
              "name": "id",
              "type": "bytes32"
            },
            {
              "internalType": "bytes31[]",
              "name": "units",
              "type": "bytes31[]"
            },
            {
              "internalType": "string",
              "name": "distributorId",
              "type": "string"
            },
            {
              "internalType": "string",
              "name": "date",
              "type": "string"
            },
            {
              "internalType": "string",
              "name": "local",
              "type": "string"
            }
          ],
          "internalType": "struct ReceivedContainer",
          "name": "",
          "type": "tuple"
        }
      ],
      "stateMutability": "view",
      "type": "function",
      "constant": true
    },
    {
      "inputs": [
        {
          "internalType": "string",
          "name": "_userId",
          "type": "string"
        }
      ],
      "name": "getReceivedContainerId",
      "outputs": [
        {
          "internalType": "bytes32[]",
          "name": "",
          "type": "bytes32[]"
        }
      ],
      "stateMutability": "view",
      "type": "function",
      "constant": true
    },
    {
      "inputs": [
        {
          "internalType": "string",
          "name": "_sender",
          "type": "string"
        },
        {
          "internalType": "string",
          "name": "_receiver",
          "type": "string"
        },
        {
          "internalType": "bytes32",
          "name": "_unitId",
          "type": "bytes32"
        },
        {
          "internalType": "string",
          "name": "_date",
          "type": "string"
        },
        {
          "internalType": "string",
          "name": "_businessUnitType",
          "type": "string"
        },
        {
          "internalType": "bytes",
          "name": "_signature",
          "type": "bytes"
        }
      ],
      "name": "forwarding",
      "outputs": [],
      "stateMutability": "nonpayable",
      "type": "function"
    }
  ],
  "bytecode": "0x608060405234801561001057600080fd5b5060405161139338038061139383398101604081905261002f91610096565b600480546001600160a01b039384166001600160a01b0319918216811790925560058054821690921790915560068054929093169181168217909255600780549092161790556100c9565b80516001600160a01b038116811461009157600080fd5b919050565b600080604083850312156100a957600080fd5b6100b28361007a565b91506100c06020840161007a565b90509250929050565b6112bb806100d86000396000f3fe608060405234801561001057600080fd5b506004361061007d5760003560e01c8063604c714a1161005b578063604c714a146100d3578063668bab01146100e657806391943cfb14610106578063f39721461461012657600080fd5b80630c9c2896146100825780633e01d7191461009757806342db4cd6146100c0575b600080fd5b610095610090366004610b42565b610146565b005b6100aa6100a5366004610c1c565b610256565b6040516100b79190610c59565b60405180910390f35b6100956100ce366004610cb4565b6102c6565b6100956100e1366004610df9565b610435565b6100f96100f4366004610e75565b610598565b6040516100b79190610f30565b610119610114366004610c1c565b61080d565b6040516100b79190610fb8565b610139610134366004610fcb565b610884565b6040516100b79190610fe6565b60055460405163175757d560e01b815286916001600160a01b03169063175757d59061017690849060040161104c565b602060405180830381865afa158015610193573d6000803e3d6000fd5b505050506040513d601f19601f820116820180604052508101906101b7919061105f565b15156001146101e15760405162461bcd60e51b81526004016101d890611081565b60405180910390fd5b6007546040516324d9f1a160e11b81526001600160a01b03909116906349b3e3429061021b908a908a908a908a908a908a906004016110ac565b600060405180830381600087803b15801561023557600080fd5b505af1158015610249573d6000803e3d6000fd5b5050505050505050505050565b60606003826040516102689190611120565b90815260408051918290036020908101832080548083028501830190935282845291908301828280156102ba57602002820191906000526020600020905b8154815260200190600101908083116102a6575b50505050509050919050565b60055460405163175757d560e01b815282916001600160a01b03169063175757d5906102f690849060040161104c565b602060405180830381865afa158015610313573d6000803e3d6000fd5b505050506040513d601f19601f82011682018060405250810190610337919061105f565b15156001146103585760405162461bcd60e51b81526004016101d890611081565b6040805160808101825260ff198816808252602080830189815283850189905260608401889052600092835290829052929020815181546001600160f81b03191660089190911c178155915190919060018201906103b690826111c5565b50604082015160028201906103cb90826111c5565b50606082015160038201906103e090826111c5565b509050506001826040516103f49190611120565b90815260405160209181900382019020805460018101825560009182529190200180546001600160f81b03191660089790971c969096179095555050505050565b60055460405163175757d560e01b815282916001600160a01b03169063175757d59061046590849060040161104c565b602060405180830381865afa158015610482573d6000803e3d6000fd5b505050506040513d601f19601f820116820180604052508101906104a6919061105f565b15156001146104c75760405162461bcd60e51b81526004016101d890611081565b6040805160a0810182528881526020808201898152828401899052606083018890526080830187905260008b8152600283529390932082518155925180519293926105189260018501920190610a16565b506040820151600282019061052d90826111c5565b506060820151600382019061054290826111c5565b506080820151600482019061055790826111c5565b5090505060038260405161056b9190611120565b90815260405160209181900382019020805460018101825560009182529190200196909655505050505050565b6105cd6040518060a0016040528060008019168152602001606081526020016060815260200160608152602001606081525090565b61ffff198216600090815260026020908152604091829020825160a081018452815481526001820180548551818602810186019096528086529194929385810193929083018282801561064757602002820191906000526020600020905b815460081b60ff1916815260019091019060200180831161062b575b505050505081526020016002820180546106609061113c565b80601f016020809104026020016040519081016040528092919081815260200182805461068c9061113c565b80156106d95780601f106106ae576101008083540402835291602001916106d9565b820191906000526020600020905b8154815290600101906020018083116106bc57829003601f168201915b505050505081526020016003820180546106f29061113c565b80601f016020809104026020016040519081016040528092919081815260200182805461071e9061113c565b801561076b5780601f106107405761010080835404028352916020019161076b565b820191906000526020600020905b81548152906001019060200180831161074e57829003601f168201915b505050505081526020016004820180546107849061113c565b80601f01602080910402602001604051908101604052809291908181526020018280546107b09061113c565b80156107fd5780601f106107d2576101008083540402835291602001916107fd565b820191906000526020600020905b8154815290600101906020018083116107e057829003601f168201915b5050505050815250509050919050565b606060018260405161081f9190611120565b90815260408051918290036020908101832080548083028501830190935282845291908301828280156102ba57602002820191906000526020600020905b815460081b60ff1916815260019091019060200180831161085d5750505050509050919050565b6108b36040518060800160405280600060ff191681526020016060815260200160608152602001606081525090565b60ff1980831660009081526020818152604091829020825160808101909352805460081b9093168252600183018054929392918401916108f29061113c565b80601f016020809104026020016040519081016040528092919081815260200182805461091e9061113c565b801561096b5780601f106109405761010080835404028352916020019161096b565b820191906000526020600020905b81548152906001019060200180831161094e57829003601f168201915b505050505081526020016002820180546109849061113c565b80601f01602080910402602001604051908101604052809291908181526020018280546109b09061113c565b80156109fd5780601f106109d2576101008083540402835291602001916109fd565b820191906000526020600020905b8154815290600101906020018083116109e057829003601f168201915b505050505081526020016003820180546107849061113c565b828054828255906000526020600020908101928215610a66579160200282015b82811115610a6657825182546001600160f81b03191660089190911c178255602090920191600190910190610a36565b50610a72929150610a76565b5090565b5b80821115610a725760008155600101610a77565b634e487b7160e01b600052604160045260246000fd5b604051601f8201601f1916810167ffffffffffffffff81118282101715610aca57610aca610a8b565b604052919050565b600082601f830112610ae357600080fd5b813567ffffffffffffffff811115610afd57610afd610a8b565b610b10601f8201601f1916602001610aa1565b818152846020838601011115610b2557600080fd5b816020850160208301376000918101602001919091529392505050565b60008060008060008060c08789031215610b5b57600080fd5b863567ffffffffffffffff80821115610b7357600080fd5b610b7f8a838b01610ad2565b97506020890135915080821115610b9557600080fd5b610ba18a838b01610ad2565b9650604089013595506060890135915080821115610bbe57600080fd5b610bca8a838b01610ad2565b94506080890135915080821115610be057600080fd5b610bec8a838b01610ad2565b935060a0890135915080821115610c0257600080fd5b50610c0f89828a01610ad2565b9150509295509295509295565b600060208284031215610c2e57600080fd5b813567ffffffffffffffff811115610c4557600080fd5b610c5184828501610ad2565b949350505050565b6020808252825182820181905260009190848201906040850190845b81811015610c9157835183529284019291840191600101610c75565b50909695505050505050565b803560ff1981168114610caf57600080fd5b919050565b600080600080600060a08688031215610ccc57600080fd5b610cd586610c9d565b9450602086013567ffffffffffffffff80821115610cf257600080fd5b610cfe89838a01610ad2565b95506040880135915080821115610d1457600080fd5b610d2089838a01610ad2565b94506060880135915080821115610d3657600080fd5b610d4289838a01610ad2565b93506080880135915080821115610d5857600080fd5b50610d6588828901610ad2565b9150509295509295909350565b600082601f830112610d8357600080fd5b8135602067ffffffffffffffff821115610d9f57610d9f610a8b565b8160051b610dae828201610aa1565b9283528481018201928281019087851115610dc857600080fd5b83870192505b84831015610dee57610ddf83610c9d565b82529183019190830190610dce565b979650505050505050565b60008060008060008060c08789031215610e1257600080fd5b86359550602087013567ffffffffffffffff80821115610e3157600080fd5b610e3d8a838b01610d72565b96506040890135915080821115610e5357600080fd5b610e5f8a838b01610ad2565b95506060890135915080821115610bbe57600080fd5b600060208284031215610e8757600080fd5b813561ffff1981168114610e9a57600080fd5b9392505050565b600081518084526020808501945080840160005b83811015610ed557815160ff191687529582019590820190600101610eb5565b509495945050505050565b60005b83811015610efb578181015183820152602001610ee3565b50506000910152565b60008151808452610f1c816020860160208601610ee0565b601f01601f19169290920160200192915050565b60208152815160208201526000602083015160a06040840152610f5660c0840182610ea1565b90506040840151601f1980858403016060860152610f748383610f04565b92506060860151915080858403016080860152610f918383610f04565b925060808601519150808584030160a086015250610faf8282610f04565b95945050505050565b602081526000610e9a6020830184610ea1565b600060208284031215610fdd57600080fd5b610e9a82610c9d565b6020815260ff198251166020820152600060208301516080604084015261101060a0840182610f04565b90506040840151601f198085840301606086015261102e8383610f04565b9250606086015191508085840301608086015250610faf8282610f04565b602081526000610e9a6020830184610f04565b60006020828403121561107157600080fd5b81518015158114610e9a57600080fd5b6020808252601190820152705065726d697373616f206e65676164612160781b604082015260600190565b60c0815260006110bf60c0830189610f04565b82810360208401526110d18189610f04565b905086604084015282810360608401526110eb8187610f04565b905082810360808401526110ff8186610f04565b905082810360a08401526111138185610f04565b9998505050505050505050565b60008251611132818460208701610ee0565b9190910192915050565b600181811c9082168061115057607f821691505b60208210810361117057634e487b7160e01b600052602260045260246000fd5b50919050565b601f8211156111c057600081815260208120601f850160051c8101602086101561119d5750805b601f850160051c820191505b818110156111bc578281556001016111a9565b5050505b505050565b815167ffffffffffffffff8111156111df576111df610a8b565b6111f3816111ed845461113c565b84611176565b602080601f83116001811461122857600084156112105750858301515b600019600386901b1c1916600185901b1785556111bc565b600085815260208120601f198616915b8281101561125757888601518255948401946001909101908401611238565b50858210156112755787850151600019600388901b60f8161c191681555b5050505050600190811b0190555056fea2646970667358221220fea278a025f4c1c309709de7dcd33662990200288a0aa9e00f32a009f8eae9a864736f6c63430008110033",
  "immutableReferences": {},
  "source": "// SPDX-License-Identifier: MIT\r\npragma solidity ^0.8.17;\r\n\r\nimport \"./Authentication.sol\";\r\nimport \"./UpdateTr.sol\";\r\n\r\nstruct ReceivedUnit {\r\n    bytes31 id;\r\n    string distributorId;\r\n    string date;\r\n    string local;\r\n}\r\n\r\nstruct ReceivedContainer {\r\n    bytes32 id;\r\n    bytes31[] units;\r\n    string distributorId;\r\n    string date;\r\n    string local;\r\n} // Logistc Unit Received\r\n\r\ncontract Merchant {\r\n    mapping(bytes31 => ReceivedUnit) receivedUnits; // Lista de containers recebidos para entrega por cada distribuidor.\r\n    mapping(string => bytes31[]) receivedUnitsId;\r\n\r\n    mapping(bytes32 => ReceivedContainer) receivedContainers; // Lista de containers recebidos para entrega por cada distribuidor.\r\n    mapping(string => bytes32[]) receivedContainersId;\r\n\r\n    address contractAuthentication;\r\n    Authentication instanceAuthentication;\r\n    address contractUpdateTr;\r\n    UpdateTr instanceUpdateTr;\r\n\r\n    constructor(address _contractAuthentication, address _contractUpdateTr) {\r\n        contractAuthentication = _contractAuthentication;\r\n        instanceAuthentication = Authentication(contractAuthentication);\r\n        contractUpdateTr = _contractUpdateTr;\r\n        instanceUpdateTr = UpdateTr(contractUpdateTr);\r\n    }\r\n\r\n    //Verifica se o endereo que esta chamando o contrato possui permisao para modificar o estado da rede\r\n    modifier onlyOWNER(string memory _userId) {\r\n        require(\r\n            instanceAuthentication.activeUser(_userId) == true,\r\n            \"Permissao negada!\"\r\n        );\r\n        _;\r\n    }\r\n\r\n    function registerReceivedUnit(\r\n        bytes31 _id,\r\n        string memory _distributorId,\r\n        string memory _dateTime,\r\n        string memory _local,\r\n        string memory _userId\r\n    ) public onlyOWNER(_userId) {\r\n        receivedUnits[_id] = ReceivedUnit(\r\n            _id,\r\n            _distributorId,\r\n            _dateTime,\r\n            _local\r\n        );\r\n        receivedUnitsId[_userId].push(_id);\r\n    }\r\n\r\n    function getReceivedUnit(\r\n        bytes31 _id\r\n    ) public view returns (ReceivedUnit memory) {\r\n        return receivedUnits[_id];\r\n    }\r\n\r\n    function getReceivedUnitId(\r\n        string memory _userId\r\n    ) public view returns (bytes31[] memory) {\r\n        return receivedUnitsId[_userId];\r\n    }\r\n\r\n    function registerReceivedContainer(\r\n        bytes32 _id,\r\n        bytes31[] memory _units,\r\n        string memory _distributorId,\r\n        string memory _date,\r\n        string memory _local,\r\n        string memory _userId\r\n    ) public onlyOWNER(_userId) {\r\n        receivedContainers[_id] = ReceivedContainer(\r\n            _id,\r\n            _units,\r\n            _distributorId,\r\n            _date,\r\n            _local\r\n        );\r\n        receivedContainersId[_userId].push(_id);\r\n    }\r\n\r\n    function getReceivedContainer(\r\n        bytes30 _id\r\n    ) public view returns (ReceivedContainer memory) {\r\n        return receivedContainers[_id];\r\n    }\r\n\r\n    function getReceivedContainerId(\r\n        string memory _userId\r\n    ) public view returns (bytes32[] memory) {\r\n        return receivedContainersId[_userId];\r\n    }\r\n\r\n    //Funo para registrar a tranzao de um produto\r\n    function forwarding(\r\n        string memory _sender,\r\n        string memory _receiver,\r\n        bytes32 _unitId,\r\n        string memory _date,\r\n        string memory _businessUnitType,\r\n        bytes memory _signature\r\n    ) public onlyOWNER(_receiver) {\r\n        //chamar funcao updateTr no contrato UpdateTr\r\n        instanceUpdateTr.updateTr(\r\n            _sender,\r\n            _receiver,\r\n            _unitId,\r\n            _date,\r\n            _businessUnitType,\r\n            _signature\r\n        );\r\n    }\r\n}\r\n",
  "sourcePath": "C:\\Users\\samue\\Documents\\Workspace_react\\BlockForBees\\backend_blockcahin\\contracts\\Merchant.sol",
  "compiler": {
    "name": "solc",
    "version": "0.8.17+commit.8df45f5f.Emscripten.clang"
  },
  "schemaVersion": "3.4.11",
  "updatedAt": "2023-04-25T01:20:22.055Z",
  "networkType": "ethereum",
  "devdoc": {
    "kind": "dev",
    "methods": {},
    "version": 1
  },
  "userdoc": {
    "kind": "user",
    "methods": {},
    "version": 1
  }
}