{
  "contractName": "Merchant",
  "abi": [
    {
      "inputs": [
        {
          "internalType": "address",
          "name": "_contractAuthentication",
          "type": "address"
        },
        {
          "internalType": "address",
          "name": "_contractUpdateTr",
          "type": "address"
        }
      ],
      "stateMutability": "nonpayable",
      "type": "constructor"
    },
    {
      "inputs": [
        {
          "internalType": "bytes32",
          "name": "_id",
          "type": "bytes32"
        },
        {
          "internalType": "bytes32[]",
          "name": "_units",
          "type": "bytes32[]"
        },
        {
          "internalType": "address",
          "name": "_supplierId",
          "type": "address"
        },
        {
          "internalType": "string",
          "name": "_date",
          "type": "string"
        },
        {
          "internalType": "string",
          "name": "_local",
          "type": "string"
        },
        {
          "internalType": "address",
          "name": "_addr",
          "type": "address"
        }
      ],
      "name": "registerReceivedContainer",
      "outputs": [],
      "stateMutability": "nonpayable",
      "type": "function"
    },
    {
      "inputs": [
        {
          "internalType": "bytes30",
          "name": "_id",
          "type": "bytes30"
        }
      ],
      "name": "getReceivedContainer",
      "outputs": [
        {
          "components": [
            {
              "internalType": "bytes32",
              "name": "id",
              "type": "bytes32"
            },
            {
              "internalType": "bytes32[]",
              "name": "units",
              "type": "bytes32[]"
            },
            {
              "internalType": "address",
              "name": "supplierId",
              "type": "address"
            },
            {
              "internalType": "string",
              "name": "date",
              "type": "string"
            },
            {
              "internalType": "string",
              "name": "local",
              "type": "string"
            }
          ],
          "internalType": "struct ReceivedContainer",
          "name": "",
          "type": "tuple"
        }
      ],
      "stateMutability": "view",
      "type": "function",
      "constant": true
    },
    {
      "inputs": [
        {
          "internalType": "address",
          "name": "_addr",
          "type": "address"
        }
      ],
      "name": "getReceivedContainerId",
      "outputs": [
        {
          "internalType": "bytes32[]",
          "name": "",
          "type": "bytes32[]"
        }
      ],
      "stateMutability": "view",
      "type": "function",
      "constant": true
    },
    {
      "inputs": [
        {
          "internalType": "address",
          "name": "_sender",
          "type": "address"
        },
        {
          "internalType": "address",
          "name": "_receiver",
          "type": "address"
        },
        {
          "internalType": "bytes32",
          "name": "_unitId",
          "type": "bytes32"
        },
        {
          "internalType": "string",
          "name": "_date",
          "type": "string"
        },
        {
          "internalType": "string",
          "name": "_businessUnitType",
          "type": "string"
        },
        {
          "internalType": "bytes",
          "name": "_signature",
          "type": "bytes"
        }
      ],
      "name": "forwarding",
      "outputs": [],
      "stateMutability": "nonpayable",
      "type": "function"
    }
  ],
  "bytecode": "0x608060405234801561001057600080fd5b50604051610d48380380610d4883398101604081905261002f91610096565b600480546001600160a01b039384166001600160a01b0319918216811790925560058054821690921790915560068054929093169181168217909255600780549092161790556100c9565b80516001600160a01b038116811461009157600080fd5b919050565b600080604083850312156100a957600080fd5b6100b28361007a565b91506100c06020840161007a565b90509250929050565b610c70806100d86000396000f3fe608060405234801561001057600080fd5b506004361061004c5760003560e01c80634f94b1cb1461005157806361693bc414610066578063668bab0114610079578063dda14f59146100a2575b600080fd5b61006461005f366004610714565b6100c2565b005b61006461007436600461082d565b610258565b61008c6100873660046108f3565b61037f565b604051610099919061095e565b60405180910390f35b6100b56100b0366004610a0a565b610566565b6040516100999190610a25565b600554604051630152113160e31b81526001600160a01b03808416600483015283921690630a90898890602401602060405180830381865afa15801561010c573d6000803e3d6000fd5b505050506040513d601f19601f820116820180604052508101906101309190610a69565b151560011461017a5760405162461bcd60e51b81526020600482015260116024820152705065726d697373616f206e65676164612160781b60448201526064015b60405180910390fd5b6040805160a08101825288815260208082018981526001600160a01b03891683850152606083018890526080830187905260008b8152600283529390932082518155925180519293926101d392600185019201906105d2565b5060408201516002820180546001600160a01b0319166001600160a01b039092169190911790556060820151600382019061020e9082610b14565b50608082015160048201906102239082610b14565b505050506001600160a01b03166000908152600360209081526040822080546001810182559083529120019490945550505050565b600554604051630152113160e31b81523360048201819052916001600160a01b031690630a90898890602401602060405180830381865afa1580156102a1573d6000803e3d6000fd5b505050506040513d601f19601f820116820180604052508101906102c59190610a69565b151560011461030a5760405162461bcd60e51b81526020600482015260116024820152705065726d697373616f206e65676164612160781b6044820152606401610171565b600754604051631519203360e01b81526001600160a01b0390911690631519203390610344908a908a908a908a908a908a90600401610bd4565b600060405180830381600087803b15801561035e57600080fd5b505af1158015610372573d6000803e3d6000fd5b5050505050505050505050565b6040805160a081018252600080825260606020830181905292820152818101829052608081019190915261ffff198216600090815260026020908152604091829020825160a081018452815481526001820180548551818602810186019096528086529194929385810193929083018282801561041b57602002820191906000526020600020905b815481526020019060010190808311610407575b505050918352505060028201546001600160a01b0316602082015260038201805460409092019161044b90610a8b565b80601f016020809104026020016040519081016040528092919081815260200182805461047790610a8b565b80156104c45780601f10610499576101008083540402835291602001916104c4565b820191906000526020600020905b8154815290600101906020018083116104a757829003601f168201915b505050505081526020016004820180546104dd90610a8b565b80601f016020809104026020016040519081016040528092919081815260200182805461050990610a8b565b80156105565780601f1061052b57610100808354040283529160200191610556565b820191906000526020600020905b81548152906001019060200180831161053957829003601f168201915b5050505050815250509050919050565b6001600160a01b0381166000908152600360209081526040918290208054835181840281018401909452808452606093928301828280156105c657602002820191906000526020600020905b8154815260200190600101908083116105b2575b50505050509050919050565b82805482825590600052602060002090810192821561060d579160200282015b8281111561060d5782518255916020019190600101906105f2565b5061061992915061061d565b5090565b5b80821115610619576000815560010161061e565b634e487b7160e01b600052604160045260246000fd5b604051601f8201601f1916810167ffffffffffffffff8111828210171561067157610671610632565b604052919050565b80356001600160a01b038116811461069057600080fd5b919050565b600067ffffffffffffffff8311156106af576106af610632565b6106c2601f8401601f1916602001610648565b90508281528383830111156106d657600080fd5b828260208301376000602084830101529392505050565b600082601f8301126106fe57600080fd5b61070d83833560208501610695565b9392505050565b60008060008060008060c0878903121561072d57600080fd5b8635955060208088013567ffffffffffffffff8082111561074d57600080fd5b818a0191508a601f83011261076157600080fd5b81358181111561077357610773610632565b8060051b610782858201610648565b918252838101850191858101908e84111561079c57600080fd5b948601945b838610156107ba578535825294860194908601906107a1565b9a506107cc9250505060408b01610679565b965060608a01359250808311156107e257600080fd5b6107ee8b848c016106ed565b955060808a013592508083111561080457600080fd5b505061081289828a016106ed565b92505061082160a08801610679565b90509295509295509295565b60008060008060008060c0878903121561084657600080fd5b61084f87610679565b955061085d60208801610679565b945060408701359350606087013567ffffffffffffffff8082111561088157600080fd5b61088d8a838b016106ed565b945060808901359150808211156108a357600080fd5b6108af8a838b016106ed565b935060a08901359150808211156108c557600080fd5b508701601f810189136108d757600080fd5b6108e689823560208401610695565b9150509295509295509295565b60006020828403121561090557600080fd5b813561ffff198116811461070d57600080fd5b6000815180845260005b8181101561093e57602081850181015186830182015201610922565b506000602082860101526020601f19601f83011685010191505092915050565b60208082528251828201528281015160a06040840152805160c0840181905260009291820190839060e08601905b808310156109ac578351825292840192600192909201919084019061098c565b5060408701516001600160a01b0381166060880152935060608701519350601f199250828682030160808701526109e38185610918565b935050506080850151818584030160a0860152610a008382610918565b9695505050505050565b600060208284031215610a1c57600080fd5b61070d82610679565b6020808252825182820181905260009190848201906040850190845b81811015610a5d57835183529284019291840191600101610a41565b50909695505050505050565b600060208284031215610a7b57600080fd5b8151801515811461070d57600080fd5b600181811c90821680610a9f57607f821691505b602082108103610abf57634e487b7160e01b600052602260045260246000fd5b50919050565b601f821115610b0f57600081815260208120601f850160051c81016020861015610aec5750805b601f850160051c820191505b81811015610b0b57828155600101610af8565b5050505b505050565b815167ffffffffffffffff811115610b2e57610b2e610632565b610b4281610b3c8454610a8b565b84610ac5565b602080601f831160018114610b775760008415610b5f5750858301515b600019600386901b1c1916600185901b178555610b0b565b600085815260208120601f198616915b82811015610ba657888601518255948401946001909101908401610b87565b5085821015610bc45787850151600019600388901b60f8161c191681555b5050505050600190811b01905550565b6001600160a01b038781168252861660208201526040810185905260c060608201819052600090610c0790830186610918565b8281036080840152610c198186610918565b905082810360a0840152610c2d8185610918565b999850505050505050505056fea26469706673582212201d95742d9bf0e153a1db4c557f694548eb774aebe53542c5d57e6ca3ba860a0c64736f6c63430008110033",
  "immutableReferences": {},
  "source": "// SPDX-License-Identifier: MIT\r\npragma solidity ^0.8.17;\r\n\r\nimport \"./Authentication.sol\";\r\nimport \"./UpdateTr.sol\";\r\n\r\nstruct ReceivedUnit {\r\n    bytes32 id;\r\n    address distributorId;\r\n    address supplierId;\r\n    string date;\r\n    string local;\r\n}\r\n\r\nstruct ReceivedContainer {\r\n    bytes32 id;\r\n    bytes32[] units;\r\n    address supplierId;\r\n    string date;\r\n    string local;\r\n} // Logistc Unit Received\r\n\r\ncontract Merchant {\r\n    mapping(bytes32 => ReceivedUnit) receivedUnits; // Lista de containers recebidos para entrega por cada distribuidor.\r\n    mapping(address => bytes32[]) receivedUnitsId;\r\n\r\n    mapping(bytes32 => ReceivedContainer) receivedContainers; // Lista de containers recebidos para entrega por cada distribuidor.\r\n    mapping(address => bytes32[]) receivedContainersId;\r\n\r\n    address contractAuthentication;\r\n    Authentication instanceAuthentication;\r\n    address contractUpdateTr;\r\n    UpdateTr instanceUpdateTr;\r\n\r\n    constructor(address _contractAuthentication, address _contractUpdateTr) {\r\n        contractAuthentication = _contractAuthentication;\r\n        instanceAuthentication = Authentication(contractAuthentication);\r\n        contractUpdateTr = _contractUpdateTr;\r\n        instanceUpdateTr = UpdateTr(contractUpdateTr);\r\n    }\r\n\r\n    //Verifica se o endereo que esta chamando o contrato possui permisao para modificar o estado da rede\r\n    modifier onlyOWNER(address _addr) {\r\n        require(\r\n            instanceAuthentication.activeUser(_addr) == true,\r\n            \"Permissao negada!\"\r\n        );\r\n        _;\r\n    }\r\n\r\n    function registerReceivedContainer(\r\n        bytes32 _id,\r\n        bytes32[] memory _units,\r\n        address _supplierId,\r\n        string memory _date,\r\n        string memory _local,\r\n        address _addr\r\n    ) public onlyOWNER(_addr) {\r\n        receivedContainers[_id] = ReceivedContainer(\r\n            _id,\r\n            _units,\r\n            _supplierId,\r\n            _date,\r\n            _local\r\n        );\r\n        receivedContainersId[_addr].push(_id);\r\n    }\r\n\r\n    function getReceivedContainer(\r\n        bytes30 _id\r\n    ) public view returns (ReceivedContainer memory) {\r\n        return receivedContainers[_id];\r\n    }\r\n\r\n    function getReceivedContainerId(\r\n        address _addr\r\n    ) public view returns (bytes32[] memory) {\r\n        return receivedContainersId[_addr];\r\n    }\r\n\r\n    //Funo para registrar a tranzao de um produto\r\n    function forwarding(\r\n        address _sender,\r\n        address _receiver,\r\n        bytes32 _unitId,\r\n        string memory _date,\r\n        string memory _businessUnitType,\r\n        bytes memory _signature\r\n    ) public onlyOWNER(msg.sender) {\r\n        //chamar funcao updateTr no contrato UpdateTr\r\n        instanceUpdateTr.updateTr(\r\n            _sender,\r\n            _receiver,\r\n            _unitId,\r\n            _date,\r\n            _businessUnitType,\r\n            _signature\r\n        );\r\n    }\r\n}\r\n",
  "sourcePath": "C:\\Users\\samue\\Documents\\Workspace_react\\BlockForBees\\backend_blockcahin\\contracts\\Merchant.sol",
  "compiler": {
    "name": "solc",
    "version": "0.8.17+commit.8df45f5f.Emscripten.clang"
  },
  "schemaVersion": "3.4.11",
  "updatedAt": "2023-04-18T18:45:22.305Z",
  "networkType": "ethereum",
  "devdoc": {
    "kind": "dev",
    "methods": {},
    "version": 1
  },
  "userdoc": {
    "kind": "user",
    "methods": {},
    "version": 1
  }
}