{
  "contractName": "Merchant",
  "abi": [
    {
      "inputs": [
        {
          "internalType": "address",
          "name": "_contractAuthentication",
          "type": "address"
        },
        {
          "internalType": "address",
          "name": "_contractUpdateTr",
          "type": "address"
        }
      ],
      "stateMutability": "nonpayable",
      "type": "constructor"
    },
    {
      "inputs": [
        {
          "internalType": "bytes32",
          "name": "_id",
          "type": "bytes32"
        },
        {
          "internalType": "address",
          "name": "_distributorId",
          "type": "address"
        },
        {
          "internalType": "address",
          "name": "_supplierId",
          "type": "address"
        },
        {
          "internalType": "string",
          "name": "_dateTime",
          "type": "string"
        },
        {
          "internalType": "string",
          "name": "_local",
          "type": "string"
        },
        {
          "internalType": "address",
          "name": "_addr",
          "type": "address"
        }
      ],
      "name": "registerReceivedUnit",
      "outputs": [],
      "stateMutability": "nonpayable",
      "type": "function"
    },
    {
      "inputs": [
        {
          "internalType": "bytes32",
          "name": "_id",
          "type": "bytes32"
        }
      ],
      "name": "getReceivedUnit",
      "outputs": [
        {
          "components": [
            {
              "internalType": "bytes32",
              "name": "id",
              "type": "bytes32"
            },
            {
              "internalType": "address",
              "name": "distributorId",
              "type": "address"
            },
            {
              "internalType": "address",
              "name": "supplierId",
              "type": "address"
            },
            {
              "internalType": "string",
              "name": "date",
              "type": "string"
            },
            {
              "internalType": "string",
              "name": "local",
              "type": "string"
            }
          ],
          "internalType": "struct ReceivedUnit",
          "name": "",
          "type": "tuple"
        }
      ],
      "stateMutability": "view",
      "type": "function",
      "constant": true
    },
    {
      "inputs": [
        {
          "internalType": "address",
          "name": "_addr",
          "type": "address"
        }
      ],
      "name": "getReceivedUnitId",
      "outputs": [
        {
          "internalType": "bytes32[]",
          "name": "",
          "type": "bytes32[]"
        }
      ],
      "stateMutability": "view",
      "type": "function",
      "constant": true
    },
    {
      "inputs": [
        {
          "internalType": "bytes32",
          "name": "_id",
          "type": "bytes32"
        },
        {
          "internalType": "bytes32[]",
          "name": "_units",
          "type": "bytes32[]"
        },
        {
          "internalType": "address",
          "name": "_supplierId",
          "type": "address"
        },
        {
          "internalType": "string",
          "name": "_date",
          "type": "string"
        },
        {
          "internalType": "string",
          "name": "_local",
          "type": "string"
        },
        {
          "internalType": "address",
          "name": "_addr",
          "type": "address"
        }
      ],
      "name": "registerReceivedContainer",
      "outputs": [],
      "stateMutability": "nonpayable",
      "type": "function"
    },
    {
      "inputs": [
        {
          "internalType": "bytes30",
          "name": "_id",
          "type": "bytes30"
        }
      ],
      "name": "getReceivedContainer",
      "outputs": [
        {
          "components": [
            {
              "internalType": "bytes32",
              "name": "id",
              "type": "bytes32"
            },
            {
              "internalType": "bytes32[]",
              "name": "units",
              "type": "bytes32[]"
            },
            {
              "internalType": "address",
              "name": "supplierId",
              "type": "address"
            },
            {
              "internalType": "string",
              "name": "date",
              "type": "string"
            },
            {
              "internalType": "string",
              "name": "local",
              "type": "string"
            }
          ],
          "internalType": "struct ReceivedContainer",
          "name": "",
          "type": "tuple"
        }
      ],
      "stateMutability": "view",
      "type": "function",
      "constant": true
    },
    {
      "inputs": [
        {
          "internalType": "address",
          "name": "_addr",
          "type": "address"
        }
      ],
      "name": "getReceivedContainerId",
      "outputs": [
        {
          "internalType": "bytes32[]",
          "name": "",
          "type": "bytes32[]"
        }
      ],
      "stateMutability": "view",
      "type": "function",
      "constant": true
    },
    {
      "inputs": [
        {
          "internalType": "address",
          "name": "_sender",
          "type": "address"
        },
        {
          "internalType": "address",
          "name": "_receiver",
          "type": "address"
        },
        {
          "internalType": "bytes32",
          "name": "_unitId",
          "type": "bytes32"
        },
        {
          "internalType": "string",
          "name": "_date",
          "type": "string"
        },
        {
          "internalType": "string",
          "name": "_businessUnitType",
          "type": "string"
        },
        {
          "internalType": "bytes",
          "name": "_signature",
          "type": "bytes"
        }
      ],
      "name": "forwarding",
      "outputs": [],
      "stateMutability": "nonpayable",
      "type": "function"
    }
  ],
  "bytecode": "0x608060405234801561001057600080fd5b506040516110fe3803806110fe83398101604081905261002f91610096565b600480546001600160a01b039384166001600160a01b0319918216811790925560058054821690921790915560068054929093169181168217909255600780549092161790556100c9565b80516001600160a01b038116811461009157600080fd5b919050565b600080604083850312156100a957600080fd5b6100b28361007a565b91506100c06020840161007a565b90509250929050565b611026806100d86000396000f3fe608060405234801561001057600080fd5b506004361061007d5760003560e01c806356ac9c301161005b57806356ac9c30146100d357806361693bc4146100f3578063668bab0114610106578063dda14f591461012657600080fd5b806308fe235c146100825780633ffd5c59146100975780634f94b1cb146100c0575b600080fd5b610095610090366004610995565b610139565b005b6100aa6100a5366004610a33565b6102a2565b6040516100b79190610a4e565b60405180910390f35b6100956100ce366004610a92565b61030e565b6100e66100e1366004610b90565b61047b565b6040516100b79190610bef565b610095610101366004610c5d565b61061a565b610119610114366004610d23565b61071d565b6040516100b79190610d48565b6100aa610134366004610a33565b6107e9565b600554604051630152113160e31b81526001600160a01b03808416600483015283921690630a90898890602401602060405180830381865afa158015610183573d6000803e3d6000fd5b505050506040513d601f19601f820116820180604052508101906101a79190610df4565b15156001146101d15760405162461bcd60e51b81526004016101c890610e16565b60405180910390fd5b6040805160a0810182528881526001600160a01b038089166020808401918252898316848601908152606085018a8152608086018a905260008e815292839052959091208451815591516001830180549185166001600160a01b0319928316179055905160028301805491909416911617909155915190919060038201906102599082610eca565b506080820151600482019061026e9082610eca565b505050506001600160a01b031660009081526001602081815260408320805492830181558352909120019490945550505050565b6001600160a01b03811660009081526001602090815260409182902080548351818402810184019094528084526060939283018282801561030257602002820191906000526020600020905b8154815260200190600101908083116102ee575b50505050509050919050565b600554604051630152113160e31b81526001600160a01b03808416600483015283921690630a90898890602401602060405180830381865afa158015610358573d6000803e3d6000fd5b505050506040513d601f19601f8201168201806040525081019061037c9190610df4565b151560011461039d5760405162461bcd60e51b81526004016101c890610e16565b6040805160a08101825288815260208082018981526001600160a01b03891683850152606083018890526080830187905260008b8152600283529390932082518155925180519293926103f69260018501920190610853565b5060408201516002820180546001600160a01b0319166001600160a01b03909216919091179055606082015160038201906104319082610eca565b50608082015160048201906104469082610eca565b505050506001600160a01b03166000908152600360209081526040822080546001810182559083529120019490945550505050565b6040805160a081018252600080825260208201819052918101919091526060808201819052608082015260008281526020818152604091829020825160a0810184528154815260018201546001600160a01b03908116938201939093526002820154909216928201929092526003820180549192916060840191906104ff90610e41565b80601f016020809104026020016040519081016040528092919081815260200182805461052b90610e41565b80156105785780601f1061054d57610100808354040283529160200191610578565b820191906000526020600020905b81548152906001019060200180831161055b57829003601f168201915b5050505050815260200160048201805461059190610e41565b80601f01602080910402602001604051908101604052809291908181526020018280546105bd90610e41565b801561060a5780601f106105df5761010080835404028352916020019161060a565b820191906000526020600020905b8154815290600101906020018083116105ed57829003601f168201915b5050505050815250509050919050565b600554604051630152113160e31b81523360048201819052916001600160a01b031690630a90898890602401602060405180830381865afa158015610663573d6000803e3d6000fd5b505050506040513d601f19601f820116820180604052508101906106879190610df4565b15156001146106a85760405162461bcd60e51b81526004016101c890610e16565b600754604051631519203360e01b81526001600160a01b03909116906315192033906106e2908a908a908a908a908a908a90600401610f8a565b600060405180830381600087803b1580156106fc57600080fd5b505af1158015610710573d6000803e3d6000fd5b5050505050505050505050565b6040805160a081018252600080825260606020830181905292820152818101829052608081019190915261ffff198216600090815260026020908152604091829020825160a08101845281548152600182018054855181860281018601909652808652919492938581019392908301828280156107b957602002820191906000526020600020905b8154815260200190600101908083116107a5575b505050918352505060028201546001600160a01b031660208201526003820180546040909201916104ff90610e41565b6001600160a01b03811660009081526003602090815260409182902080548351818402810184019094528084526060939283018282801561030257602002820191906000526020600020908154815260200190600101908083116102ee5750505050509050919050565b82805482825590600052602060002090810192821561088e579160200282015b8281111561088e578251825591602001919060010190610873565b5061089a92915061089e565b5090565b5b8082111561089a576000815560010161089f565b80356001600160a01b03811681146108ca57600080fd5b919050565b634e487b7160e01b600052604160045260246000fd5b604051601f8201601f1916810167ffffffffffffffff8111828210171561090e5761090e6108cf565b604052919050565b600067ffffffffffffffff831115610930576109306108cf565b610943601f8401601f19166020016108e5565b905082815283838301111561095757600080fd5b828260208301376000602084830101529392505050565b600082601f83011261097f57600080fd5b61098e83833560208501610916565b9392505050565b60008060008060008060c087890312156109ae57600080fd5b863595506109be602088016108b3565b94506109cc604088016108b3565b9350606087013567ffffffffffffffff808211156109e957600080fd5b6109f58a838b0161096e565b94506080890135915080821115610a0b57600080fd5b50610a1889828a0161096e565b925050610a2760a088016108b3565b90509295509295509295565b600060208284031215610a4557600080fd5b61098e826108b3565b6020808252825182820181905260009190848201906040850190845b81811015610a8657835183529284019291840191600101610a6a565b50909695505050505050565b60008060008060008060c08789031215610aab57600080fd5b8635955060208088013567ffffffffffffffff80821115610acb57600080fd5b818a0191508a601f830112610adf57600080fd5b813581811115610af157610af16108cf565b8060051b610b008582016108e5565b918252838101850191858101908e841115610b1a57600080fd5b948601945b83861015610b3857853582529486019490860190610b1f565b9a50610b4a9250505060408b016108b3565b965060608a0135925080831115610b6057600080fd5b610b6c8b848c0161096e565b955060808a0135925080831115610b8257600080fd5b5050610a1889828a0161096e565b600060208284031215610ba257600080fd5b5035919050565b6000815180845260005b81811015610bcf57602081850181015186830182015201610bb3565b506000602082860101526020601f19601f83011685010191505092915050565b60208152815160208201526000602083015160018060a01b0380821660408501528060408601511660608501525050606083015160a06080840152610c3760c0840182610ba9565b90506080840151601f198483030160a0850152610c548282610ba9565b95945050505050565b60008060008060008060c08789031215610c7657600080fd5b610c7f876108b3565b9550610c8d602088016108b3565b945060408701359350606087013567ffffffffffffffff80821115610cb157600080fd5b610cbd8a838b0161096e565b94506080890135915080821115610cd357600080fd5b610cdf8a838b0161096e565b935060a0890135915080821115610cf557600080fd5b508701601f81018913610d0757600080fd5b610d1689823560208401610916565b9150509295509295509295565b600060208284031215610d3557600080fd5b813561ffff198116811461098e57600080fd5b60208082528251828201528281015160a06040840152805160c0840181905260009291820190839060e08601905b80831015610d965783518252928401926001929092019190840190610d76565b5060408701516001600160a01b0381166060880152935060608701519350601f19925082868203016080870152610dcd8185610ba9565b935050506080850151818584030160a0860152610dea8382610ba9565b9695505050505050565b600060208284031215610e0657600080fd5b8151801515811461098e57600080fd5b6020808252601190820152705065726d697373616f206e65676164612160781b604082015260600190565b600181811c90821680610e5557607f821691505b602082108103610e7557634e487b7160e01b600052602260045260246000fd5b50919050565b601f821115610ec557600081815260208120601f850160051c81016020861015610ea25750805b601f850160051c820191505b81811015610ec157828155600101610eae565b5050505b505050565b815167ffffffffffffffff811115610ee457610ee46108cf565b610ef881610ef28454610e41565b84610e7b565b602080601f831160018114610f2d5760008415610f155750858301515b600019600386901b1c1916600185901b178555610ec1565b600085815260208120601f198616915b82811015610f5c57888601518255948401946001909101908401610f3d565b5085821015610f7a5787850151600019600388901b60f8161c191681555b5050505050600190811b01905550565b6001600160a01b038781168252861660208201526040810185905260c060608201819052600090610fbd90830186610ba9565b8281036080840152610fcf8186610ba9565b905082810360a0840152610fe38185610ba9565b999850505050505050505056fea264697066735822122045f81295bab7bf1600a835346090afac9d800b9dc80e3f880c42b59fc273d8e264736f6c63430008110033",
  "immutableReferences": {},
  "source": "// SPDX-License-Identifier: MIT\r\npragma solidity ^0.8.17;\r\n\r\nimport \"./Authentication.sol\";\r\nimport \"./UpdateTr.sol\";\r\n\r\nstruct ReceivedUnit {\r\n    bytes32 id;\r\n    address distributorId;\r\n    address supplierId;\r\n    string date;\r\n    string local;\r\n}\r\n\r\nstruct ReceivedContainer {\r\n    bytes32 id;\r\n    bytes32[] units;\r\n    address supplierId;\r\n    string date;\r\n    string local;\r\n} // Logistc Unit Received\r\n\r\ncontract Merchant {\r\n    mapping(bytes32 => ReceivedUnit) receivedUnits; // Lista de containers recebidos para entrega por cada distribuidor.\r\n    mapping(address => bytes32[]) receivedUnitsId;\r\n\r\n    mapping(bytes32 => ReceivedContainer) receivedContainers; // Lista de containers recebidos para entrega por cada distribuidor.\r\n    mapping(address => bytes32[]) receivedContainersId;\r\n\r\n    address contractAuthentication;\r\n    Authentication instanceAuthentication;\r\n    address contractUpdateTr;\r\n    UpdateTr instanceUpdateTr;\r\n\r\n    constructor(address _contractAuthentication, address _contractUpdateTr) {\r\n        contractAuthentication = _contractAuthentication;\r\n        instanceAuthentication = Authentication(contractAuthentication);\r\n        contractUpdateTr = _contractUpdateTr;\r\n        instanceUpdateTr = UpdateTr(contractUpdateTr);\r\n    }\r\n\r\n    //Verifica se o endereo que esta chamando o contrato possui permisao para modificar o estado da rede\r\n    modifier onlyOWNER(address _addr) {\r\n        require(\r\n            instanceAuthentication.activeUser(_addr) == true,\r\n            \"Permissao negada!\"\r\n        );\r\n        _;\r\n    }\r\n\r\n    function registerReceivedUnit(\r\n        bytes32 _id,\r\n        address _distributorId,\r\n        address _supplierId,\r\n        string memory _dateTime,\r\n        string memory _local,\r\n        address _addr\r\n    ) public onlyOWNER(_addr) {\r\n        receivedUnits[_id] = ReceivedUnit(\r\n            _id,\r\n            _distributorId,\r\n            _supplierId,\r\n            _dateTime,\r\n            _local\r\n        );\r\n        receivedUnitsId[_addr].push(_id);\r\n    }\r\n\r\n    function getReceivedUnit(\r\n        bytes32 _id\r\n    ) public view returns (ReceivedUnit memory) {\r\n        return receivedUnits[_id];\r\n    }\r\n\r\n    function getReceivedUnitId(\r\n        address _addr\r\n    ) public view returns (bytes32[] memory) {\r\n        return receivedUnitsId[_addr];\r\n    }\r\n\r\n    function registerReceivedContainer(\r\n        bytes32 _id,\r\n        bytes32[] memory _units,\r\n        address _supplierId,\r\n        string memory _date,\r\n        string memory _local,\r\n        address _addr\r\n    ) public onlyOWNER(_addr) {\r\n        receivedContainers[_id] = ReceivedContainer(\r\n            _id,\r\n            _units,\r\n            _supplierId,\r\n            _date,\r\n            _local\r\n        );\r\n        receivedContainersId[_addr].push(_id);\r\n    }\r\n\r\n    function getReceivedContainer(\r\n        bytes30 _id\r\n    ) public view returns (ReceivedContainer memory) {\r\n        return receivedContainers[_id];\r\n    }\r\n\r\n    function getReceivedContainerId(\r\n        address _addr\r\n    ) public view returns (bytes32[] memory) {\r\n        return receivedContainersId[_addr];\r\n    }\r\n\r\n    //Funo para registrar a tranzao de um produto\r\n    function forwarding(\r\n        address _sender,\r\n        address _receiver,\r\n        bytes32 _unitId,\r\n        string memory _date,\r\n        string memory _businessUnitType,\r\n        bytes memory _signature\r\n    ) public onlyOWNER(msg.sender) {\r\n        //chamar funcao updateTr no contrato UpdateTr\r\n        instanceUpdateTr.updateTr(\r\n            _sender,\r\n            _receiver,\r\n            _unitId,\r\n            _date,\r\n            _businessUnitType,\r\n            _signature\r\n        );\r\n    }\r\n}\r\n",
  "sourcePath": "C:\\Users\\samue\\Documents\\Workspace_react\\BlockForBees\\backend_blockcahin\\contracts\\Merchant.sol",
  "compiler": {
    "name": "solc",
    "version": "0.8.17+commit.8df45f5f.Emscripten.clang"
  },
  "schemaVersion": "3.4.11",
  "updatedAt": "2023-04-19T14:36:17.403Z",
  "networkType": "ethereum",
  "devdoc": {
    "kind": "dev",
    "methods": {},
    "version": 1
  },
  "userdoc": {
    "kind": "user",
    "methods": {},
    "version": 1
  }
}