{
  "contractName": "Processing",
  "abi": [
    {
      "inputs": [
        {
          "internalType": "address",
          "name": "_contractAuthentication",
          "type": "address"
        },
        {
          "internalType": "address",
          "name": "_contractUpdateTr",
          "type": "address"
        }
      ],
      "stateMutability": "nonpayable",
      "type": "constructor"
    },
    {
      "inputs": [
        {
          "internalType": "bytes30",
          "name": "_id",
          "type": "bytes30"
        },
        {
          "internalType": "bytes32",
          "name": "_supplier",
          "type": "bytes32"
        },
        {
          "internalType": "string",
          "name": "_date",
          "type": "string"
        },
        {
          "internalType": "address",
          "name": "_addr",
          "type": "address"
        }
      ],
      "name": "regiterFeedstock",
      "outputs": [],
      "stateMutability": "nonpayable",
      "type": "function"
    },
    {
      "inputs": [
        {
          "internalType": "bytes32",
          "name": "_id",
          "type": "bytes32"
        }
      ],
      "name": "getFeedstock",
      "outputs": [
        {
          "components": [
            {
              "internalType": "bytes30",
              "name": "id",
              "type": "bytes30"
            },
            {
              "internalType": "bytes32",
              "name": "supplier",
              "type": "bytes32"
            },
            {
              "internalType": "string",
              "name": "dateTime",
              "type": "string"
            }
          ],
          "internalType": "struct Feedstock",
          "name": "",
          "type": "tuple"
        }
      ],
      "stateMutability": "view",
      "type": "function",
      "constant": true
    },
    {
      "inputs": [
        {
          "internalType": "address",
          "name": "_addr",
          "type": "address"
        }
      ],
      "name": "getFeedstockId",
      "outputs": [
        {
          "internalType": "bytes32[]",
          "name": "",
          "type": "bytes32[]"
        }
      ],
      "stateMutability": "view",
      "type": "function",
      "constant": true
    },
    {
      "inputs": [
        {
          "internalType": "bytes30",
          "name": "_id",
          "type": "bytes30"
        },
        {
          "internalType": "bytes30[]",
          "name": "_feedstockIds",
          "type": "bytes30[]"
        },
        {
          "internalType": "bytes32",
          "name": "_supplier",
          "type": "bytes32"
        },
        {
          "internalType": "string",
          "name": "_date",
          "type": "string"
        },
        {
          "internalType": "address",
          "name": "_addr",
          "type": "address"
        }
      ],
      "name": "regiterFeedstockContainer",
      "outputs": [],
      "stateMutability": "nonpayable",
      "type": "function"
    },
    {
      "inputs": [
        {
          "internalType": "bytes30",
          "name": "_id",
          "type": "bytes30"
        }
      ],
      "name": "getFeedstockContainer",
      "outputs": [
        {
          "components": [
            {
              "internalType": "bytes32",
              "name": "id",
              "type": "bytes32"
            },
            {
              "internalType": "bytes30[]",
              "name": "feedstockIds",
              "type": "bytes30[]"
            },
            {
              "internalType": "bytes32",
              "name": "supplier",
              "type": "bytes32"
            },
            {
              "internalType": "string",
              "name": "dateTime",
              "type": "string"
            }
          ],
          "internalType": "struct FeedstockContainer",
          "name": "",
          "type": "tuple"
        }
      ],
      "stateMutability": "view",
      "type": "function",
      "constant": true
    },
    {
      "inputs": [
        {
          "internalType": "address",
          "name": "_addr",
          "type": "address"
        }
      ],
      "name": "getFeedstockContainerId",
      "outputs": [
        {
          "internalType": "bytes30[]",
          "name": "",
          "type": "bytes30[]"
        }
      ],
      "stateMutability": "view",
      "type": "function",
      "constant": true
    },
    {
      "inputs": [
        {
          "internalType": "address",
          "name": "_addr",
          "type": "address"
        },
        {
          "internalType": "bytes20",
          "name": "_feedstockBatch",
          "type": "bytes20"
        },
        {
          "internalType": "string",
          "name": "_honeyType",
          "type": "string"
        },
        {
          "internalType": "string",
          "name": "_variety",
          "type": "string"
        },
        {
          "internalType": "uint64",
          "name": "_weight",
          "type": "uint64"
        },
        {
          "internalType": "string",
          "name": "_date",
          "type": "string"
        }
      ],
      "name": "generateBatch",
      "outputs": [
        {
          "internalType": "bytes20",
          "name": "",
          "type": "bytes20"
        }
      ],
      "stateMutability": "nonpayable",
      "type": "function"
    },
    {
      "inputs": [
        {
          "internalType": "bytes20",
          "name": "_batch",
          "type": "bytes20"
        },
        {
          "internalType": "bytes20",
          "name": "_feedstockBatch",
          "type": "bytes20"
        },
        {
          "internalType": "string",
          "name": "_honeyType",
          "type": "string"
        },
        {
          "internalType": "string",
          "name": "_variety",
          "type": "string"
        },
        {
          "internalType": "uint64",
          "name": "_weight",
          "type": "uint64"
        },
        {
          "internalType": "string",
          "name": "_pacaging",
          "type": "string"
        },
        {
          "internalType": "string",
          "name": "_validity",
          "type": "string"
        },
        {
          "internalType": "string",
          "name": "_composition",
          "type": "string"
        },
        {
          "internalType": "string",
          "name": "_dateTime",
          "type": "string"
        },
        {
          "internalType": "address",
          "name": "_addr",
          "type": "address"
        }
      ],
      "name": "newHoney",
      "outputs": [
        {
          "internalType": "bytes30",
          "name": "",
          "type": "bytes30"
        }
      ],
      "stateMutability": "nonpayable",
      "type": "function"
    },
    {
      "inputs": [
        {
          "components": [
            {
              "internalType": "bytes30",
              "name": "id",
              "type": "bytes30"
            },
            {
              "internalType": "bytes20",
              "name": "batch",
              "type": "bytes20"
            },
            {
              "internalType": "bytes20",
              "name": "feedstockBatch",
              "type": "bytes20"
            },
            {
              "internalType": "string",
              "name": "honeyType",
              "type": "string"
            },
            {
              "internalType": "string",
              "name": "variety",
              "type": "string"
            },
            {
              "internalType": "uint64",
              "name": "weight",
              "type": "uint64"
            },
            {
              "internalType": "string",
              "name": "packaging",
              "type": "string"
            },
            {
              "internalType": "string",
              "name": "validity",
              "type": "string"
            },
            {
              "internalType": "string",
              "name": "composition",
              "type": "string"
            }
          ],
          "internalType": "struct Honey",
          "name": "_honey",
          "type": "tuple"
        },
        {
          "internalType": "string",
          "name": "_date",
          "type": "string"
        },
        {
          "internalType": "string",
          "name": "_time",
          "type": "string"
        },
        {
          "internalType": "uint256",
          "name": "_amount",
          "type": "uint256"
        },
        {
          "internalType": "address",
          "name": "_addr",
          "type": "address"
        }
      ],
      "name": "newHoneys",
      "outputs": [
        {
          "internalType": "bytes30[]",
          "name": "id",
          "type": "bytes30[]"
        }
      ],
      "stateMutability": "nonpayable",
      "type": "function"
    },
    {
      "inputs": [
        {
          "internalType": "bytes30",
          "name": "_id",
          "type": "bytes30"
        }
      ],
      "name": "getHoney",
      "outputs": [
        {
          "components": [
            {
              "internalType": "bytes30",
              "name": "id",
              "type": "bytes30"
            },
            {
              "internalType": "bytes20",
              "name": "batch",
              "type": "bytes20"
            },
            {
              "internalType": "bytes20",
              "name": "feedstockBatch",
              "type": "bytes20"
            },
            {
              "internalType": "string",
              "name": "honeyType",
              "type": "string"
            },
            {
              "internalType": "string",
              "name": "variety",
              "type": "string"
            },
            {
              "internalType": "uint64",
              "name": "weight",
              "type": "uint64"
            },
            {
              "internalType": "string",
              "name": "packaging",
              "type": "string"
            },
            {
              "internalType": "string",
              "name": "validity",
              "type": "string"
            },
            {
              "internalType": "string",
              "name": "composition",
              "type": "string"
            }
          ],
          "internalType": "struct Honey",
          "name": "",
          "type": "tuple"
        }
      ],
      "stateMutability": "view",
      "type": "function",
      "constant": true
    },
    {
      "inputs": [
        {
          "internalType": "address",
          "name": "_addr",
          "type": "address"
        }
      ],
      "name": "getHoneyId",
      "outputs": [
        {
          "internalType": "bytes30[]",
          "name": "",
          "type": "bytes30[]"
        }
      ],
      "stateMutability": "view",
      "type": "function",
      "constant": true
    },
    {
      "inputs": [
        {
          "internalType": "bytes30[]",
          "name": "_honeyId",
          "type": "bytes30[]"
        },
        {
          "internalType": "address",
          "name": "_addr",
          "type": "address"
        },
        {
          "internalType": "bytes20",
          "name": "_batch",
          "type": "bytes20"
        }
      ],
      "name": "newBox",
      "outputs": [
        {
          "internalType": "bytes32",
          "name": "",
          "type": "bytes32"
        }
      ],
      "stateMutability": "nonpayable",
      "type": "function"
    },
    {
      "inputs": [
        {
          "internalType": "bytes31",
          "name": "_id",
          "type": "bytes31"
        }
      ],
      "name": "getBox",
      "outputs": [
        {
          "components": [
            {
              "internalType": "bytes31",
              "name": "id",
              "type": "bytes31"
            },
            {
              "internalType": "bytes20",
              "name": "batch",
              "type": "bytes20"
            },
            {
              "internalType": "bytes30[]",
              "name": "honeyId",
              "type": "bytes30[]"
            }
          ],
          "internalType": "struct Box",
          "name": "",
          "type": "tuple"
        }
      ],
      "stateMutability": "view",
      "type": "function",
      "constant": true
    },
    {
      "inputs": [
        {
          "internalType": "address",
          "name": "_addr",
          "type": "address"
        }
      ],
      "name": "getBoxId",
      "outputs": [
        {
          "internalType": "bytes31[]",
          "name": "",
          "type": "bytes31[]"
        }
      ],
      "stateMutability": "view",
      "type": "function",
      "constant": true
    },
    {
      "inputs": [
        {
          "internalType": "bytes31[]",
          "name": "_boxId",
          "type": "bytes31[]"
        },
        {
          "internalType": "address",
          "name": "_addr",
          "type": "address"
        }
      ],
      "name": "newPallet",
      "outputs": [
        {
          "internalType": "bytes32",
          "name": "",
          "type": "bytes32"
        }
      ],
      "stateMutability": "nonpayable",
      "type": "function"
    },
    {
      "inputs": [
        {
          "internalType": "bytes32",
          "name": "_id",
          "type": "bytes32"
        }
      ],
      "name": "getPallet",
      "outputs": [
        {
          "components": [
            {
              "internalType": "bytes32",
              "name": "id",
              "type": "bytes32"
            },
            {
              "internalType": "bytes31[]",
              "name": "boxId",
              "type": "bytes31[]"
            }
          ],
          "internalType": "struct Pallet",
          "name": "",
          "type": "tuple"
        }
      ],
      "stateMutability": "view",
      "type": "function",
      "constant": true
    },
    {
      "inputs": [
        {
          "internalType": "address",
          "name": "_addr",
          "type": "address"
        }
      ],
      "name": "getPalletId",
      "outputs": [
        {
          "internalType": "bytes32[]",
          "name": "",
          "type": "bytes32[]"
        }
      ],
      "stateMutability": "view",
      "type": "function",
      "constant": true
    },
    {
      "inputs": [
        {
          "internalType": "address",
          "name": "_sender",
          "type": "address"
        },
        {
          "internalType": "address",
          "name": "_receiver",
          "type": "address"
        },
        {
          "internalType": "bytes32",
          "name": "_unitId",
          "type": "bytes32"
        },
        {
          "internalType": "string",
          "name": "_date",
          "type": "string"
        },
        {
          "internalType": "string",
          "name": "_businessUnitType",
          "type": "string"
        },
        {
          "internalType": "bytes",
          "name": "_signature",
          "type": "bytes"
        }
      ],
      "name": "forwarding",
      "outputs": [],
      "stateMutability": "nonpayable",
      "type": "function"
    }
  ],
  "bytecode": "0x60806040523480156200001157600080fd5b5060405162002a3e38038062002a3e83398101604081905262000034916200009d565b600d80546001600160a01b039384166001600160a01b03199182168117909255600e80548216909217909155600f805492909316918116821790925560108054909216179055620000d5565b80516001600160a01b03811681146200009857600080fd5b919050565b60008060408385031215620000b157600080fd5b620000bc8362000080565b9150620000cc6020840162000080565b90509250929050565b61295980620000e56000396000f3fe608060405234801561001057600080fd5b50600436106101165760003560e01c8063826b465a116100a2578063b6b0580511610071578063b6b0580514610292578063c253bd61146102a5578063e16ec1e4146102b8578063e672735f146102d8578063eb330e6d146102ff57600080fd5b8063826b465a14610220578063946f0167146102335780639ee9759914610253578063abcade4e1461027f57600080fd5b8063384e5037116100e9578063384e50371461019957806351fa7538146101b957806361693bc4146101cc578063658a72cf146101df578063730a673d1461020057600080fd5b80631214f2851461011b578063270cb0ce146101445780632e7e70491461015957806338018edd14610179575b600080fd5b61012e610129366004611945565b61031f565b60405161013b9190611967565b60405180910390f35b610157610152366004611b3e565b610394565b005b61016c610167366004611bde565b6104e4565b60405161013b9190611c39565b61018c610187366004611c7e565b6105a3565b60405161013b9190611ce9565b6101ac6101a7366004611c7e565b6106e4565b60405161013b9190611d3f565b61012e6101c7366004611945565b6109f3565b6101576101da366004611e41565b610a65565b6101f26101ed366004611f06565b610b68565b60405190815260200161013b565b61021361020e366004611945565b610c94565b60405161013b9190611faf565b61015761022e366004611fe7565b610cff565b610246610241366004611945565b610e28565b60405161013b9190612082565b6102666102613660046120c4565b610e9b565b6040516001600160601b0319909116815260200161013b565b61012e61028d36600461216f565b610f4c565b6101f26102a036600461230c565b611262565b6102136102b3366004611945565b61146d565b6102cb6102c6366004612369565b6114d7565b60405161013b9190612382565b6102eb6102e63660046123a7565b61156e565b60405161ffff19909116815260200161013b565b61031261030d366004612369565b611801565b60405161013b91906124e1565b6001600160a01b03811660009081526005602090815260409182902080548351818402810184019094528084526060939283018282801561038857602002820191906000526020600020905b815460101b61ffff1916815260019091019060200180831161036b575b50505050509050919050565b600e54604051630152113160e31b81526001600160a01b03808416600483015283921690630a90898890602401602060405180830381865afa1580156103de573d6000803e3d6000fd5b505050506040513d601f19601f820116820180604052508101906104029190612515565b151560011461042c5760405162461bcd60e51b815260040161042390612537565b60405180910390fd5b6040805160808101825261ffff19881680825260208083018981528385018990526060840188905260009283526002825293909120825181559251805192939261047c9260018501920190611864565b50604082015160028201556060820151600382019061049b90826125eb565b505050506001600160a01b031660009081526003602090815260408220805460018101825590835291200180546001600160f01b03191660109590951c94909417909355505050565b6040805160608082018352600080835260208301529181019190915260ff19828116600090815260086020818152604092839020835160608082018652825490941b9095168552600181015490921b6001600160601b03191684820152600282018054845181840281018401865281815293948601939283018282801561059357602002820191906000526020600020905b815460101b61ffff19168152600190910190602001808311610576575b5050505050815250509050919050565b604080516080810182526000808252606060208301819052928201528181019190915261ffff1982166000908152600260209081526040918290208251608081018452815481526001820180548551818602810186019096528086529194929385810193929083018282801561064157602002820191906000526020600020905b815460101b61ffff19168152600190910190602001808311610624575b505050505081526020016002820154815260200160038201805461066490612562565b80601f016020809104026020016040519081016040528092919081815260200182805461069090612562565b80156105935780601f106106b257610100808354040283529160200191610593565b820191906000526020600020905b8154815290600101906020018083116106c057505050919092525091949350505050565b6040805161012080820183526000808352602080840182905283850182905260608085018190526080850181905260a0850183905260c0850181905260e08501819052610100850181905261ffff198781168452600483529286902086519485018752805460101b90931684526001830154811b6001600160601b0319908116928501929092526002830154811b9091169483019490945260038101805493949293919284019161079490612562565b80601f01602080910402602001604051908101604052809291908181526020018280546107c090612562565b801561080d5780601f106107e25761010080835404028352916020019161080d565b820191906000526020600020905b8154815290600101906020018083116107f057829003601f168201915b5050505050815260200160048201805461082690612562565b80601f016020809104026020016040519081016040528092919081815260200182805461085290612562565b801561089f5780601f106108745761010080835404028352916020019161089f565b820191906000526020600020905b81548152906001019060200180831161088257829003601f168201915b505050918352505060058201546001600160401b031660208201526006820180546040909201916108cf90612562565b80601f01602080910402602001604051908101604052809291908181526020018280546108fb90612562565b80156109485780601f1061091d57610100808354040283529160200191610948565b820191906000526020600020905b81548152906001019060200180831161092b57829003601f168201915b5050505050815260200160078201805461096190612562565b80601f016020809104026020016040519081016040528092919081815260200182805461098d90612562565b80156109da5780601f106109af576101008083540402835291602001916109da565b820191906000526020600020905b8154815290600101906020018083116109bd57829003601f168201915b5050505050815260200160088201805461066490612562565b6001600160a01b038116600090815260036020908152604091829020805483518184028101840190945280845260609392830182828015610388576000918252602091829020805460101b61ffff191684529082028301926001909101910180831161036b5750505050509050919050565b600e54604051630152113160e31b81523360048201819052916001600160a01b031690630a90898890602401602060405180830381865afa158015610aae573d6000803e3d6000fd5b505050506040513d601f19601f82011682018060405250810190610ad29190612515565b1515600114610af35760405162461bcd60e51b815260040161042390612537565b601054604051631519203360e01b81526001600160a01b0390911690631519203390610b2d908a908a908a908a908a908a906004016126aa565b600060405180830381600087803b158015610b4757600080fd5b505af1158015610b5b573d6000803e3d6000fd5b5050505050505050505050565b600e54604051630152113160e31b81526001600160a01b0380841660048301526000928492911690630a90898890602401602060405180830381865afa158015610bb6573d6000803e3d6000fd5b505050506040513d601f19601f82011682018060405250810190610bda9190612515565b1515600114610bfb5760405162461bcd60e51b815260040161042390612537565b600084604051602001610c0e9190612710565b60408051601f19818403018152828252805160209182012083830183528084528382018981526000828152600a8452939093208451815592518051919550610c5d9260018501929101906118c4565b5050506001600160a01b0384166000908152600b602090815260408220805460018101825590835291200181905591505092915050565b6001600160a01b03811660009081526001602090815260409182902080548351818402810184019094528084526060939283018282801561038857602002820191906000526020600020905b815481526020019060010190808311610ce05750505050509050919050565b600e54604051630152113160e31b81526001600160a01b03808416600483015283921690630a90898890602401602060405180830381865afa158015610d49573d6000803e3d6000fd5b505050506040513d601f19601f82011682018060405250810190610d6d9190612515565b1515600114610d8e5760405162461bcd60e51b815260040161042390612537565b6040805160608101825261ffff198716808252602080830188815283850188815260009384529183905293909120825181546001600160f01b03191660109190911c17815592516001840155519091906002820190610ded90826125eb565b505050506001600160a01b03166000908152600160208181526040832080549283018155835290912061ffff19949094169301929092555050565b6001600160a01b03811660009081526009602090815260409182902080548351818402810184019094528084526060939283018282801561038857602002820191906000526020600020905b815460081b60ff19168152600190910190602001808311610e745750505050509050919050565b6000806003888888888888604051602001610ebb9695949392919061274a565b60408051601f1981840301815290829052610ed5916127cc565b602060405180830381855afa158015610ef2573d6000803e3d6000fd5b505060408051516001600160a01b039a8b16600090815260066020908152928120805460018101825590825292902090910180546001600160a01b0319169a82169a909a1790995550505060609590951b95945050505050565b600e54604051630152113160e31b81526001600160a01b0380841660048301526060928492911690630a90898890602401602060405180830381865afa158015610f9a573d6000803e3d6000fd5b505050506040513d601f19601f82011682018060405250810190610fbe9190612515565b1515600114610fdf5760405162461bcd60e51b815260040161042390612537565b6000610fff8489604001518a606001518b608001518c60a001518c610e9b565b905060005b85811015611256576000828989604051602001611023939291906127e8565b60405160208183030381529060405261103b9061282e565b90506040518061012001604052808261ffff19168152602001846001600160601b03191681526020018b604001516001600160601b03191681526020018b6060015181526020018b6080015181526020018b60a001516001600160401b031681526020018b60c0015181526020018b60e0015181526020018b6101000151815250600460008361ffff1916815260200190815260200160002060008201518160000160006101000a8154816001600160f01b03021916908360101c021790555060208201518160010160006101000a8154816001600160a01b03021916908360601c021790555060408201518160020160006101000a8154816001600160a01b03021916908360601c0217905550606082015181600301908161115e91906125eb565b506080820151600482019061117390826125eb565b5060a082015160058201805467ffffffffffffffff19166001600160401b0390921691909117905560c082015160068201906111af90826125eb565b5060e082015160078201906111c490826125eb565b5061010082015160088201906111da90826125eb565b5050506001600160a01b03861660009081526005602090815260408220805460018101825590835291200180546001600160f01b031916601083901c1790558451819086908490811061122f5761122f612860565b61ffff1990921660209283029190910190910152508061124e8161288c565b915050611004565b50505095945050505050565b600e54604051630152113160e31b81526001600160a01b0380851660048301526000928592911690630a90898890602401602060405180830381865afa1580156112b0573d6000803e3d6000fd5b505050506040513d601f19601f820116820180604052508101906112d49190612515565b15156001146112f55760405162461bcd60e51b815260040161042390612537565b6001600160a01b0384166000908152600760205260408120805461ffff169161131d836128a5565b825461ffff9182166101009390930a9283029190920219909116179055506001600160a01b0384166000908152600760209081526040808320549051606088901b6001600160601b0319169281019290925260f01b6001600160f01b031916603482015260360160405160208183030381529060405261139c906128c6565b604080516060808201835260ff1984168083526001600160601b0319891660208085019182528486018d81526000938452600880835296909320855181546001600160f81b031916971c96909617865590516001860180546001600160a01b0319169190941c17909255518051949550919361141e9260028501920190611864565b5050506001600160a01b0385166000908152600960209081526040822080546001810182559083529120018054600883901c6001600160f81b031990911617905560ff19169150509392505050565b6001600160a01b0381166000908152600b60209081526040918290208054835181840281018401909452808452606093928301828280156103885760200282019190600052602060002090815481526020019060010190808311610ce05750505050509050919050565b6040805180820190915260008152606060208201526000828152600a602090815260409182902082518084018452815481526001820180548551818602810186019096528086529194929385810193929083018282801561059357602002820191906000526020600020905b815460081b60ff19168152600190910190602001808311611543575050505050815250509050919050565b600e54604051630152113160e31b81526001600160a01b0380841660048301526000928492911690630a90898890602401602060405180830381865afa1580156115bc573d6000803e3d6000fd5b505050506040513d601f19601f820116820180604052508101906115e09190612515565b15156001146116015760405162461bcd60e51b815260040161042390612537565b60008c856040516020016116169291906128f3565b60405160208183030381529060405261162e9061282e565b90506040518061012001604052808261ffff191681526020018e6001600160601b03191681526020018d6001600160601b03191681526020018c81526020018b81526020018a6001600160401b0316815260200189815260200188815260200187815250600460008361ffff1916815260200190815260200160002060008201518160000160006101000a8154816001600160f01b03021916908360101c021790555060208201518160010160006101000a8154816001600160a01b03021916908360601c021790555060408201518160020160006101000a8154816001600160a01b03021916908360601c0217905550606082015181600301908161173491906125eb565b506080820151600482019061174990826125eb565b5060a082015160058201805467ffffffffffffffff19166001600160401b0390921691909117905560c0820151600682019061178590826125eb565b5060e0820151600782019061179a90826125eb565b5061010082015160088201906117b090826125eb565b5050506001600160a01b039390931660009081526005602090815260408220805460018101825590835291200180546001600160f01b031916601085901c17905550909a9950505050505050505050565b60408051606080820183526000808352602083015291810191909152600082815260208181526040918290208251606081018452815460101b61ffff19168152600182015492810192909252600281018054929391929184019161066490612562565b8280548282559060005260206000209081019282156118b4579160200282015b828111156118b457825182546001600160f01b03191660109190911c178255602090920191600190910190611884565b506118c0929150611914565b5090565b8280548282559060005260206000209081019282156118b4579160200282015b828111156118b457825182546001600160f81b03191660089190911c1782556020909201916001909101906118e4565b5b808211156118c05760008155600101611915565b80356001600160a01b038116811461194057600080fd5b919050565b60006020828403121561195757600080fd5b61196082611929565b9392505050565b6020808252825182820181905260009190848201906040850190845b818110156119a457835161ffff191683529284019291840191600101611983565b50909695505050505050565b803561ffff198116811461194057600080fd5b634e487b7160e01b600052604160045260246000fd5b60405161012081016001600160401b03811182821017156119fc576119fc6119c3565b60405290565b604051601f8201601f191681016001600160401b0381118282101715611a2a57611a2a6119c3565b604052919050565b60006001600160401b03821115611a4b57611a4b6119c3565b5060051b60200190565b600082601f830112611a6657600080fd5b81356020611a7b611a7683611a32565b611a02565b82815260059290921b84018101918181019086841115611a9a57600080fd5b8286015b84811015611abc57611aaf816119b0565b8352918301918301611a9e565b509695505050505050565b60006001600160401b03831115611ae057611ae06119c3565b611af3601f8401601f1916602001611a02565b9050828152838383011115611b0757600080fd5b828260208301376000602084830101529392505050565b600082601f830112611b2f57600080fd5b61196083833560208501611ac7565b600080600080600060a08688031215611b5657600080fd5b611b5f866119b0565b945060208601356001600160401b0380821115611b7b57600080fd5b611b8789838a01611a55565b9550604088013594506060880135915080821115611ba457600080fd5b50611bb188828901611b1e565b925050611bc060808701611929565b90509295509295909350565b803560ff198116811461194057600080fd5b600060208284031215611bf057600080fd5b61196082611bcc565b600081518084526020808501945080840160005b83811015611c2e57815161ffff191687529582019590820190600101611c0d565b509495945050505050565b6020815260ff1982511660208201526001600160601b0319602083015116604082015260006040830151606080840152611c766080840182611bf9565b949350505050565b600060208284031215611c9057600080fd5b611960826119b0565b60005b83811015611cb4578181015183820152602001611c9c565b50506000910152565b60008151808452611cd5816020860160208601611c99565b601f01601f19169290920160200192915050565b60208152815160208201526000602083015160806040840152611d0f60a0840182611bf9565b9050604084015160608401526060840151601f19848303016080850152611d368282611cbd565b95945050505050565b60208152611d5560208201835161ffff19169052565b60006020830151611d7260408401826001600160601b0319169052565b5060408301516001600160601b031981166060840152506060830151610120806080850152611da5610140850183611cbd565b91506080850151601f19808685030160a0870152611dc38483611cbd565b935060a08701519150611de160c08701836001600160401b03169052565b60c08701519150808685030160e0870152611dfc8483611cbd565b935060e08701519150610100818786030181880152611e1b8584611cbd565b908801518782039092018488015293509050611e378382611cbd565b9695505050505050565b60008060008060008060c08789031215611e5a57600080fd5b611e6387611929565b9550611e7160208801611929565b94506040870135935060608701356001600160401b0380821115611e9457600080fd5b611ea08a838b01611b1e565b94506080890135915080821115611eb657600080fd5b611ec28a838b01611b1e565b935060a0890135915080821115611ed857600080fd5b508701601f81018913611eea57600080fd5b611ef989823560208401611ac7565b9150509295509295509295565b60008060408385031215611f1957600080fd5b82356001600160401b03811115611f2f57600080fd5b8301601f81018513611f4057600080fd5b80356020611f50611a7683611a32565b82815260059290921b83018101918181019088841115611f6f57600080fd5b938201935b83851015611f9457611f8585611bcc565b82529382019390820190611f74565b9550611fa39050868201611929565b93505050509250929050565b6020808252825182820181905260009190848201906040850190845b818110156119a457835183529284019291840191600101611fcb565b60008060008060808587031215611ffd57600080fd5b612006856119b0565b93506020850135925060408501356001600160401b0381111561202857600080fd5b61203487828801611b1e565b92505061204360608601611929565b905092959194509250565b600081518084526020808501945080840160005b83811015611c2e57815160ff191687529582019590820190600101612062565b602081526000611960602083018461204e565b80356001600160601b03198116811461194057600080fd5b80356001600160401b038116811461194057600080fd5b60008060008060008060c087890312156120dd57600080fd5b6120e687611929565b95506120f460208801612095565b945060408701356001600160401b038082111561211057600080fd5b61211c8a838b01611b1e565b9550606089013591508082111561213257600080fd5b61213e8a838b01611b1e565b945061214c60808a016120ad565b935060a089013591508082111561216257600080fd5b50611ef989828a01611b1e565b600080600080600060a0868803121561218757600080fd5b85356001600160401b038082111561219e57600080fd5b90870190610120828a0312156121b357600080fd5b6121bb6119d9565b6121c4836119b0565b81526121d260208401612095565b60208201526121e360408401612095565b60408201526060830135828111156121fa57600080fd5b6122068b828601611b1e565b60608301525060808301358281111561221e57600080fd5b61222a8b828601611b1e565b60808301525061223c60a084016120ad565b60a082015260c08301358281111561225357600080fd5b61225f8b828601611b1e565b60c08301525060e08301358281111561227757600080fd5b6122838b828601611b1e565b60e083015250610100808401358381111561229d57600080fd5b6122a98c828701611b1e565b8284015250508097505060208801359150808211156122c757600080fd5b6122d389838a01611b1e565b955060408801359150808211156122e957600080fd5b506122f688828901611b1e565b93505060608601359150611bc060808701611929565b60008060006060848603121561232157600080fd5b83356001600160401b0381111561233757600080fd5b61234386828701611a55565b93505061235260208501611929565b915061236060408501612095565b90509250925092565b60006020828403121561237b57600080fd5b5035919050565b602081528151602082015260006020830151604080840152611c76606084018261204e565b6000806000806000806000806000806101408b8d0312156123c757600080fd5b6123d08b612095565b99506123de60208c01612095565b985060408b01356001600160401b03808211156123fa57600080fd5b6124068e838f01611b1e565b995060608d013591508082111561241c57600080fd5b6124288e838f01611b1e565b985061243660808e016120ad565b975060a08d013591508082111561244c57600080fd5b6124588e838f01611b1e565b965060c08d013591508082111561246e57600080fd5b61247a8e838f01611b1e565b955060e08d013591508082111561249057600080fd5b61249c8e838f01611b1e565b94506101008d01359150808211156124b357600080fd5b506124c08d828e01611b1e565b9250506124d06101208c01611929565b90509295989b9194979a5092959850565b6020815261ffff1982511660208201526020820151604082015260006040830151606080840152611c766080840182611cbd565b60006020828403121561252757600080fd5b8151801515811461196057600080fd5b6020808252601190820152705065726d697373616f206e65676164612160781b604082015260600190565b600181811c9082168061257657607f821691505b60208210810361259657634e487b7160e01b600052602260045260246000fd5b50919050565b601f8211156125e657600081815260208120601f850160051c810160208610156125c35750805b601f850160051c820191505b818110156125e2578281556001016125cf565b5050505b505050565b81516001600160401b03811115612604576126046119c3565b612618816126128454612562565b8461259c565b602080601f83116001811461264d57600084156126355750858301515b600019600386901b1c1916600185901b1785556125e2565b600085815260208120601f198616915b8281101561267c5788860151825594840194600190910190840161265d565b508582101561269a5787850151600019600388901b60f8161c191681555b5050505050600190811b01905550565b6001600160a01b038781168252861660208201526040810185905260c0606082018190526000906126dd90830186611cbd565b82810360808401526126ef8186611cbd565b905082810360a08401526127038185611cbd565b9998505050505050505050565b815160009082906020808601845b8381101561273e57815160ff19168552938201939082019060010161271e565b50929695505050505050565b60006001600160601b0319808960601b1683528088166014840152508551612779816028850160208a01611c99565b855190830190612790816028840160208a01611c99565b60c086901b6001600160c01b0319166028929091019182015283516127bc816030840160208801611c99565b0160300198975050505050505050565b600082516127de818460208701611c99565b9190910192915050565b6001600160601b0319841681526000835161280a816014850160208801611c99565b835190830190612821816014840160208801611c99565b0160140195945050505050565b8051602082015161ffff19808216929190601e83101561285857808184601e0360031b1b83161693505b505050919050565b634e487b7160e01b600052603260045260246000fd5b634e487b7160e01b600052601160045260246000fd5b60006001820161289e5761289e612876565b5060010190565b600061ffff8083168181036128bc576128bc612876565b6001019392505050565b8051602082015160ff19808216929190601f83101561285857601f9290920360031b82901b161692915050565b6001600160601b03198316815260008251612915816014850160208701611c99565b91909101601401939250505056fea26469706673582212209df1e6ce242e94b81e1821f07a5413aec848ac3b2307413c75b38b6d1c566c1664736f6c63430008110033",
  "immutableReferences": {},
  "source": "// SPDX-License-Identifier: MIT\r\npragma solidity ^0.8.17;\r\nimport \"./Authentication.sol\";\r\nimport \"./UpdateTr.sol\";\r\n\r\nstruct Feedstock {\r\n    bytes30 id;\r\n    bytes32 supplier;\r\n    string dateTime;\r\n}\r\n\r\nstruct FeedstockContainer {\r\n    bytes32 id;\r\n    bytes30[] feedstockIds;\r\n    bytes32 supplier;\r\n    string dateTime;\r\n}\r\n\r\nstruct Honey {\r\n    bytes30 id;\r\n    bytes20 batch;\r\n    bytes20 feedstockBatch;\r\n    string honeyType;\r\n    string variety;\r\n    uint64 weight;\r\n    string packaging;\r\n    string validity;\r\n    string composition;\r\n}\r\n\r\nstruct Box {\r\n    bytes31 id;\r\n    bytes20 batch;\r\n    bytes30[] honeyId;\r\n}\r\n\r\nstruct Pallet {\r\n    bytes32 id;\r\n    bytes31[] boxId;\r\n}\r\n\r\ncontract Processing {\r\n    // Variaveis de estado\r\n    mapping(bytes32 => Feedstock) feedstocks; // endereco => (codigo => carregamento). lista de materia prima recebida por cada processador de mel.\r\n    mapping(address => bytes32[]) feedstocksId;\r\n\r\n    mapping(bytes30 => FeedstockContainer) feedstockContainers; // endereco => (codigo => carregamento). lista de materia prima recebida por cada processador de mel.\r\n    mapping(address => bytes30[]) feedstockContainersId;\r\n\r\n    mapping(bytes32 => Honey) honeys; // endereco => (codigo => Honey). Lista de produtos fabricados por cada processador de mel.\r\n    mapping(address => bytes30[]) honeysId;\r\n    mapping(address => bytes20[]) honeysBatch;\r\n    mapping(address => uint16) count;\r\n\r\n    mapping(bytes31 => Box) boxes; // endereco => (codigo => Container). Lista de conteiners(caixa ou palete) montados por cada processador de mel.\r\n    mapping(address => bytes31[]) boxesId;\r\n\r\n    mapping(bytes32 => Pallet) pallets; // endereco => (codigo => Container). Lista de conteiners(caixa ou palete) montados por cada processador de mel.\r\n    mapping(address => bytes32[]) palletsId;\r\n    mapping(address => bytes20[]) palletsBatch;\r\n\r\n    address contractAuthentication;\r\n    Authentication instanceAuthentication;\r\n    address contractUpdateTr;\r\n    UpdateTr instanceUpdateTr;\r\n\r\n    constructor(address _contractAuthentication, address _contractUpdateTr) {\r\n        contractAuthentication = _contractAuthentication;\r\n        instanceAuthentication = Authentication(contractAuthentication);\r\n        contractUpdateTr = _contractUpdateTr;\r\n        instanceUpdateTr = UpdateTr(contractUpdateTr);\r\n    }\r\n\r\n    //Verifica se o endereo que esta chamando o contrato possui permisao para modificar o estado da rede\r\n    modifier onlyOWNER(address _addr) {\r\n        require(\r\n            instanceAuthentication.activeUser(_addr) == true,\r\n            \"Permissao negada!\"\r\n        );\r\n        _;\r\n    }\r\n\r\n    // Funes relacionadas ao mel recebido pelos processadores\r\n    function regiterFeedstock(\r\n        bytes30 _id,\r\n        bytes32 _supplier,\r\n        string memory _date,\r\n        address _addr\r\n    ) public onlyOWNER(_addr) {\r\n        feedstocks[_id] = Feedstock(_id, _supplier, _date);\r\n        feedstocksId[_addr].push(_id);\r\n    }\r\n\r\n    // Funcoes GET\r\n    function getFeedstock(bytes32 _id) public view returns (Feedstock memory) {\r\n        return feedstocks[_id];\r\n    }\r\n\r\n    function getFeedstockId(\r\n        address _addr\r\n    ) public view returns (bytes32[] memory) {\r\n        return feedstocksId[_addr];\r\n    }\r\n\r\n    function regiterFeedstockContainer(\r\n        bytes30 _id,\r\n        bytes30[] memory _feedstockIds,\r\n        bytes32 _supplier,\r\n        string memory _date,\r\n        address _addr\r\n    ) public onlyOWNER(_addr) {\r\n        feedstockContainers[_id] = FeedstockContainer(\r\n            _id,\r\n            _feedstockIds,\r\n            _supplier,\r\n            _date\r\n        );\r\n        feedstockContainersId[_addr].push(_id);\r\n    }\r\n\r\n    // Funcoes GET\r\n    function getFeedstockContainer(\r\n        bytes30 _id\r\n    ) public view returns (FeedstockContainer memory) {\r\n        return feedstockContainers[_id];\r\n    }\r\n\r\n    function getFeedstockContainerId(\r\n        address _addr\r\n    ) public view returns (bytes30[] memory) {\r\n        return feedstockContainersId[_addr];\r\n    }\r\n\r\n    // Funes relacionadas ao mel beneficiado produzido pelos processadores\r\n\r\n    function generateBatch(\r\n        address _addr,\r\n        bytes20 _feedstockBatch,\r\n        string memory _honeyType,\r\n        string memory _variety,\r\n        uint64 _weight,\r\n        string memory _date\r\n    ) public returns (bytes20) {\r\n        bytes20 _batch = ripemd160(\r\n            abi.encodePacked(\r\n                _addr,\r\n                _feedstockBatch,\r\n                _honeyType,\r\n                _variety,\r\n                _weight,\r\n                _date\r\n            )\r\n        );\r\n\r\n        honeysBatch[_addr].push(_batch);\r\n        return _batch;\r\n    }\r\n\r\n    function newHoney(\r\n        bytes20 _batch,\r\n        bytes20 _feedstockBatch,\r\n        string memory _honeyType,\r\n        string memory _variety,\r\n        uint64 _weight,\r\n        string memory _pacaging,\r\n        string memory _validity,\r\n        string memory _composition,\r\n        string memory _dateTime,\r\n        address _addr\r\n    ) public onlyOWNER(_addr) returns (bytes30) {\r\n        bytes30 _id = bytes30(abi.encodePacked(_batch, _dateTime));\r\n        honeys[_id] = Honey(\r\n            _id,\r\n            _batch,\r\n            _feedstockBatch,\r\n            _honeyType,\r\n            _variety,\r\n            _weight,\r\n            _pacaging,\r\n            _validity,\r\n            _composition\r\n        );\r\n        honeysId[_addr].push(_id);\r\n        return _id;\r\n    }\r\n\r\n    // bytes20 _feedstockBatch,\r\n    // string memory _honeyType,\r\n    // string memory _variety,\r\n    // uint64 _weight,\r\n    // string memory _packaging,\r\n    // string memory _validity,\r\n    // string memory _composition,\r\n    // string memory _date,\r\n    // string memory _time,\r\n    function newHoneys(\r\n        Honey memory _honey,\r\n        string memory _date,\r\n        string memory _time,\r\n        uint _amount,\r\n        address _addr\r\n    ) public onlyOWNER(_addr) returns (bytes30[] memory id) {\r\n        bytes20 _batch = generateBatch(\r\n            _addr,\r\n            _honey.feedstockBatch,\r\n            _honey.honeyType,\r\n            _honey.variety,\r\n            _honey.weight,\r\n            _date\r\n        );\r\n\r\n        for (uint256 index = 0; index < _amount; index++) {\r\n            bytes30 _id = bytes30(abi.encodePacked(_batch, _date, _time));\r\n            honeys[_id] = Honey(\r\n                _id,\r\n                _batch,\r\n                _honey.feedstockBatch,\r\n                _honey.honeyType,\r\n                _honey.variety,\r\n                _honey.weight,\r\n                _honey.packaging,\r\n                _honey.validity,\r\n                _honey.composition\r\n            );\r\n            honeysId[_addr].push(_id);\r\n            id[index] = bytes30(_id);\r\n        }\r\n        return id;\r\n    }\r\n\r\n    function getHoney(bytes30 _id) public view returns (Honey memory) {\r\n        return honeys[_id];\r\n    }\r\n\r\n    function getHoneyId(address _addr) public view returns (bytes30[] memory) {\r\n        return honeysId[_addr];\r\n    }\r\n\r\n    // Funes relacionadas aos containeres de mel produzidos pelos processadores\r\n    function newBox(\r\n        bytes30[] memory _honeyId,\r\n        address _addr,\r\n        bytes20 _batch\r\n    ) public onlyOWNER(_addr) returns (bytes32) {\r\n        //bytes32 _id = bytes32(keccak256(abi.encodePacked(_honeyId)));\r\n        count[_addr]++;\r\n        bytes31 _id = bytes31(abi.encodePacked(_addr, count[_addr]));\r\n        boxes[_id] = Box(_id, _batch, _honeyId);\r\n        boxesId[_addr].push(_id);\r\n        return _id;\r\n    }\r\n\r\n    function getBox(bytes31 _id) public view returns (Box memory) {\r\n        return boxes[_id];\r\n    }\r\n\r\n    function getBoxId(address _addr) public view returns (bytes31[] memory) {\r\n        return boxesId[_addr];\r\n    }\r\n\r\n    function newPallet(\r\n        bytes31[] memory _boxId,\r\n        address _addr\r\n    ) public onlyOWNER(_addr) returns (bytes32) {\r\n        bytes32 _id = keccak256(abi.encodePacked(_boxId));\r\n        pallets[_id] = Pallet(_id, _boxId);\r\n        palletsId[_addr].push(_id);\r\n        return _id;\r\n    }\r\n\r\n    // Fones GET\r\n    function getPallet(bytes32 _id) public view returns (Pallet memory) {\r\n        return pallets[_id];\r\n    }\r\n\r\n    function getPalletId(address _addr) public view returns (bytes32[] memory) {\r\n        return palletsId[_addr];\r\n    }\r\n\r\n    //Funo para registrar a tranzao de um produto\r\n    function forwarding(\r\n        address _sender,\r\n        address _receiver,\r\n        bytes32 _unitId,\r\n        string memory _date,\r\n        string memory _businessUnitType,\r\n        bytes memory _signature\r\n    ) public onlyOWNER(msg.sender) {\r\n        //chamar funcao updateTr no contrato UpdateTr\r\n        instanceUpdateTr.updateTr(\r\n            _sender,\r\n            _receiver,\r\n            _unitId,\r\n            _date,\r\n            _businessUnitType,\r\n            _signature\r\n        );\r\n    }\r\n}\r\n",
  "sourcePath": "C:\\Users\\samue\\Documents\\Workspace_react\\BlockForBees\\backend_blockcahin\\contracts\\Processing.sol",
  "compiler": {
    "name": "solc",
    "version": "0.8.17+commit.8df45f5f.Emscripten.clang"
  },
  "schemaVersion": "3.4.11",
  "updatedAt": "2023-04-19T14:36:17.369Z",
  "networkType": "ethereum",
  "devdoc": {
    "kind": "dev",
    "methods": {},
    "version": 1
  },
  "userdoc": {
    "kind": "user",
    "methods": {},
    "version": 1
  }
}