{
  "contractName": "Processing",
  "abi": [
    {
      "inputs": [
        {
          "internalType": "address",
          "name": "_contractAuthentication",
          "type": "address"
        },
        {
          "internalType": "address",
          "name": "_contractUpdateTr",
          "type": "address"
        }
      ],
      "stateMutability": "nonpayable",
      "type": "constructor"
    },
    {
      "inputs": [
        {
          "internalType": "bytes30",
          "name": "_id",
          "type": "bytes30"
        },
        {
          "internalType": "bytes32",
          "name": "_supplier",
          "type": "bytes32"
        },
        {
          "internalType": "string",
          "name": "_date",
          "type": "string"
        },
        {
          "internalType": "address",
          "name": "_addr",
          "type": "address"
        }
      ],
      "name": "regiterFeedstock",
      "outputs": [],
      "stateMutability": "nonpayable",
      "type": "function"
    },
    {
      "inputs": [
        {
          "internalType": "bytes32",
          "name": "_id",
          "type": "bytes32"
        }
      ],
      "name": "getFeedstock",
      "outputs": [
        {
          "components": [
            {
              "internalType": "bytes30",
              "name": "id",
              "type": "bytes30"
            },
            {
              "internalType": "bytes32",
              "name": "supplier",
              "type": "bytes32"
            },
            {
              "internalType": "string",
              "name": "dateTime",
              "type": "string"
            }
          ],
          "internalType": "struct Feedstock",
          "name": "",
          "type": "tuple"
        }
      ],
      "stateMutability": "view",
      "type": "function",
      "constant": true
    },
    {
      "inputs": [
        {
          "internalType": "address",
          "name": "_addr",
          "type": "address"
        }
      ],
      "name": "getFeedstockId",
      "outputs": [
        {
          "internalType": "bytes32[]",
          "name": "",
          "type": "bytes32[]"
        }
      ],
      "stateMutability": "view",
      "type": "function",
      "constant": true
    },
    {
      "inputs": [
        {
          "internalType": "bytes30",
          "name": "_id",
          "type": "bytes30"
        },
        {
          "internalType": "bytes30[]",
          "name": "_feedstockIds",
          "type": "bytes30[]"
        },
        {
          "internalType": "bytes32",
          "name": "_supplier",
          "type": "bytes32"
        },
        {
          "internalType": "string",
          "name": "_date",
          "type": "string"
        },
        {
          "internalType": "address",
          "name": "_addr",
          "type": "address"
        }
      ],
      "name": "regiterFeedstockContainer",
      "outputs": [],
      "stateMutability": "nonpayable",
      "type": "function"
    },
    {
      "inputs": [
        {
          "internalType": "bytes30",
          "name": "_id",
          "type": "bytes30"
        }
      ],
      "name": "getFeedstockContainer",
      "outputs": [
        {
          "components": [
            {
              "internalType": "bytes32",
              "name": "id",
              "type": "bytes32"
            },
            {
              "internalType": "bytes30[]",
              "name": "feedstockIds",
              "type": "bytes30[]"
            },
            {
              "internalType": "bytes32",
              "name": "supplier",
              "type": "bytes32"
            },
            {
              "internalType": "string",
              "name": "dateTime",
              "type": "string"
            }
          ],
          "internalType": "struct FeedstockContainer",
          "name": "",
          "type": "tuple"
        }
      ],
      "stateMutability": "view",
      "type": "function",
      "constant": true
    },
    {
      "inputs": [
        {
          "internalType": "address",
          "name": "_addr",
          "type": "address"
        }
      ],
      "name": "getFeedstockContainerId",
      "outputs": [
        {
          "internalType": "bytes30[]",
          "name": "",
          "type": "bytes30[]"
        }
      ],
      "stateMutability": "view",
      "type": "function",
      "constant": true
    },
    {
      "inputs": [
        {
          "internalType": "address",
          "name": "_addr",
          "type": "address"
        },
        {
          "internalType": "bytes20",
          "name": "_feedstockBatch",
          "type": "bytes20"
        },
        {
          "internalType": "string",
          "name": "_honeyType",
          "type": "string"
        },
        {
          "internalType": "string",
          "name": "_variety",
          "type": "string"
        },
        {
          "internalType": "uint64",
          "name": "_weight",
          "type": "uint64"
        },
        {
          "internalType": "string",
          "name": "_date",
          "type": "string"
        }
      ],
      "name": "generateBatch",
      "outputs": [
        {
          "internalType": "bytes20",
          "name": "",
          "type": "bytes20"
        }
      ],
      "stateMutability": "nonpayable",
      "type": "function"
    },
    {
      "inputs": [
        {
          "internalType": "bytes20",
          "name": "_batch",
          "type": "bytes20"
        },
        {
          "internalType": "bytes20",
          "name": "_feedstockBatch",
          "type": "bytes20"
        },
        {
          "internalType": "string",
          "name": "_honeyType",
          "type": "string"
        },
        {
          "internalType": "string",
          "name": "_variety",
          "type": "string"
        },
        {
          "internalType": "uint64",
          "name": "_weight",
          "type": "uint64"
        },
        {
          "internalType": "string",
          "name": "_pacaging",
          "type": "string"
        },
        {
          "internalType": "string",
          "name": "_validity",
          "type": "string"
        },
        {
          "internalType": "string",
          "name": "_composition",
          "type": "string"
        },
        {
          "internalType": "string",
          "name": "_dateTime",
          "type": "string"
        },
        {
          "internalType": "address",
          "name": "_addr",
          "type": "address"
        }
      ],
      "name": "newHoney",
      "outputs": [
        {
          "internalType": "bytes30",
          "name": "",
          "type": "bytes30"
        }
      ],
      "stateMutability": "nonpayable",
      "type": "function"
    },
    {
      "inputs": [
        {
          "components": [
            {
              "internalType": "bytes30",
              "name": "id",
              "type": "bytes30"
            },
            {
              "internalType": "bytes20",
              "name": "batch",
              "type": "bytes20"
            },
            {
              "internalType": "bytes20",
              "name": "feedstockBatch",
              "type": "bytes20"
            },
            {
              "internalType": "string",
              "name": "honeyType",
              "type": "string"
            },
            {
              "internalType": "string",
              "name": "variety",
              "type": "string"
            },
            {
              "internalType": "uint64",
              "name": "weight",
              "type": "uint64"
            },
            {
              "internalType": "string",
              "name": "packaging",
              "type": "string"
            },
            {
              "internalType": "string",
              "name": "validity",
              "type": "string"
            },
            {
              "internalType": "string",
              "name": "composition",
              "type": "string"
            }
          ],
          "internalType": "struct Honey",
          "name": "_honey",
          "type": "tuple"
        },
        {
          "internalType": "string",
          "name": "_date",
          "type": "string"
        },
        {
          "internalType": "string",
          "name": "_time",
          "type": "string"
        },
        {
          "internalType": "uint256",
          "name": "_amount",
          "type": "uint256"
        },
        {
          "internalType": "address",
          "name": "_addr",
          "type": "address"
        }
      ],
      "name": "newHoneys",
      "outputs": [
        {
          "internalType": "bytes30[]",
          "name": "id",
          "type": "bytes30[]"
        }
      ],
      "stateMutability": "nonpayable",
      "type": "function"
    },
    {
      "inputs": [
        {
          "internalType": "bytes30",
          "name": "_id",
          "type": "bytes30"
        }
      ],
      "name": "getHoney",
      "outputs": [
        {
          "components": [
            {
              "internalType": "bytes30",
              "name": "id",
              "type": "bytes30"
            },
            {
              "internalType": "bytes20",
              "name": "batch",
              "type": "bytes20"
            },
            {
              "internalType": "bytes20",
              "name": "feedstockBatch",
              "type": "bytes20"
            },
            {
              "internalType": "string",
              "name": "honeyType",
              "type": "string"
            },
            {
              "internalType": "string",
              "name": "variety",
              "type": "string"
            },
            {
              "internalType": "uint64",
              "name": "weight",
              "type": "uint64"
            },
            {
              "internalType": "string",
              "name": "packaging",
              "type": "string"
            },
            {
              "internalType": "string",
              "name": "validity",
              "type": "string"
            },
            {
              "internalType": "string",
              "name": "composition",
              "type": "string"
            }
          ],
          "internalType": "struct Honey",
          "name": "",
          "type": "tuple"
        }
      ],
      "stateMutability": "view",
      "type": "function",
      "constant": true
    },
    {
      "inputs": [
        {
          "internalType": "address",
          "name": "_addr",
          "type": "address"
        }
      ],
      "name": "getHoneyId",
      "outputs": [
        {
          "internalType": "bytes30[]",
          "name": "",
          "type": "bytes30[]"
        }
      ],
      "stateMutability": "view",
      "type": "function",
      "constant": true
    },
    {
      "inputs": [
        {
          "internalType": "bytes30[]",
          "name": "_honeyId",
          "type": "bytes30[]"
        },
        {
          "internalType": "address",
          "name": "_addr",
          "type": "address"
        },
        {
          "internalType": "bytes20",
          "name": "_batch",
          "type": "bytes20"
        }
      ],
      "name": "newBox",
      "outputs": [
        {
          "internalType": "bytes32",
          "name": "",
          "type": "bytes32"
        }
      ],
      "stateMutability": "nonpayable",
      "type": "function"
    },
    {
      "inputs": [
        {
          "internalType": "bytes30",
          "name": "_id",
          "type": "bytes30"
        }
      ],
      "name": "getBox",
      "outputs": [
        {
          "components": [
            {
              "internalType": "bytes32",
              "name": "id",
              "type": "bytes32"
            },
            {
              "internalType": "bytes20",
              "name": "batch",
              "type": "bytes20"
            },
            {
              "internalType": "bytes30[]",
              "name": "honeyId",
              "type": "bytes30[]"
            }
          ],
          "internalType": "struct Box",
          "name": "",
          "type": "tuple"
        }
      ],
      "stateMutability": "view",
      "type": "function",
      "constant": true
    },
    {
      "inputs": [
        {
          "internalType": "address",
          "name": "_addr",
          "type": "address"
        }
      ],
      "name": "getBoxId",
      "outputs": [
        {
          "internalType": "bytes32[]",
          "name": "",
          "type": "bytes32[]"
        }
      ],
      "stateMutability": "view",
      "type": "function",
      "constant": true
    },
    {
      "inputs": [
        {
          "internalType": "bytes32[]",
          "name": "_honeyId",
          "type": "bytes32[]"
        },
        {
          "internalType": "address",
          "name": "_addr",
          "type": "address"
        }
      ],
      "name": "newPallet",
      "outputs": [
        {
          "internalType": "bytes32",
          "name": "",
          "type": "bytes32"
        }
      ],
      "stateMutability": "nonpayable",
      "type": "function"
    },
    {
      "inputs": [
        {
          "internalType": "bytes32",
          "name": "_id",
          "type": "bytes32"
        }
      ],
      "name": "getPallet",
      "outputs": [
        {
          "components": [
            {
              "internalType": "bytes32",
              "name": "id",
              "type": "bytes32"
            },
            {
              "internalType": "bytes20",
              "name": "batch",
              "type": "bytes20"
            },
            {
              "internalType": "bytes30[]",
              "name": "honeyId",
              "type": "bytes30[]"
            }
          ],
          "internalType": "struct Box",
          "name": "",
          "type": "tuple"
        }
      ],
      "stateMutability": "view",
      "type": "function",
      "constant": true
    },
    {
      "inputs": [
        {
          "internalType": "address",
          "name": "_addr",
          "type": "address"
        }
      ],
      "name": "getPalletId",
      "outputs": [
        {
          "internalType": "bytes32[]",
          "name": "",
          "type": "bytes32[]"
        }
      ],
      "stateMutability": "view",
      "type": "function",
      "constant": true
    },
    {
      "inputs": [
        {
          "internalType": "address",
          "name": "_sender",
          "type": "address"
        },
        {
          "internalType": "address",
          "name": "_receiver",
          "type": "address"
        },
        {
          "internalType": "bytes32",
          "name": "_unitId",
          "type": "bytes32"
        },
        {
          "internalType": "string",
          "name": "_date",
          "type": "string"
        },
        {
          "internalType": "string",
          "name": "_businessUnitType",
          "type": "string"
        },
        {
          "internalType": "bytes",
          "name": "_signature",
          "type": "bytes"
        }
      ],
      "name": "forwarding",
      "outputs": [],
      "stateMutability": "nonpayable",
      "type": "function"
    }
  ],
  "bytecode": "0x60806040523480156200001157600080fd5b506040516200281b3803806200281b83398101604081905262000034916200009d565b600c80546001600160a01b039384166001600160a01b03199182168117909255600d80548216909217909155600e8054929093169181168217909255600f8054909216179055620000d5565b80516001600160a01b03811681146200009857600080fd5b919050565b60008060408385031215620000b157600080fd5b620000bc8362000080565b9150620000cc6020840162000080565b90509250929050565b61273680620000e56000396000f3fe608060405234801561001057600080fd5b50600436106101165760003560e01c8063946f0167116100a2578063c253bd6111610071578063c253bd6114610213578063e16ec1e414610278578063e672735f14610298578063eb330e6d146102bf578063ecd08a55146102df57600080fd5b8063946f0167146102135780639ee9759914610226578063abcade4e14610252578063b6b058051461026557600080fd5b806351fa7538116100e957806351fa75381461019957806361693bc4146101ac5780636c73554f146101bf578063730a673d146101e0578063826b465a1461020057600080fd5b80631214f2851461011b578063270cb0ce1461014457806338018edd14610159578063384e503714610179575b600080fd5b61012e6101293660046117f1565b6102f2565b60405161013b9190611813565b60405180910390f35b6101576101523660046119ea565b610367565b005b61016c610167366004611a78565b6104b7565b60405161013b9190611b23565b61018c610187366004611a78565b610601565b60405161013b9190611b79565b61012e6101a73660046117f1565b610910565b6101576101ba366004611c7b565b610982565b6101d26101cd366004611d40565b610a85565b60405190815260200161013b565b6101f36101ee3660046117f1565b610bb1565b60405161013b9190611de2565b61015761020e366004611e1a565b610c1c565b6101f36102213660046117f1565b610d45565b610239610234366004611eb0565b610daf565b6040516001600160601b0319909116815260200161013b565b61012e610260366004611f5b565b610e60565b6101d26102733660046120f8565b611176565b61028b610286366004612155565b6112d0565b60405161013b919061216e565b6102ab6102a63660046121af565b61137e565b60405161ffff19909116815260200161013b565b6102d26102cd366004612155565b611611565b60405161013b91906122e9565b61028b6102ed366004611a78565b611674565b6001600160a01b03811660009081526005602090815260409182902080548351818402810184019094528084526060939283018282801561035b57602002820191906000526020600020905b815460101b61ffff1916815260019091019060200180831161033e575b50505050509050919050565b600d54604051630152113160e31b81526001600160a01b03808416600483015283921690630a90898890602401602060405180830381865afa1580156103b1573d6000803e3d6000fd5b505050506040513d601f19601f820116820180604052508101906103d5919061231d565b15156001146103ff5760405162461bcd60e51b81526004016103f69061233f565b60405180910390fd5b6040805160808101825261ffff19881680825260208083018981528385018990526060840188905260009283526002825293909120825181559251805192939261044f9260018501920190611725565b50604082015160028201556060820151600382019061046e90826123f3565b505050506001600160a01b031660009081526003602090815260408220805460018101825590835291200180546001600160f01b03191660109590951c94909417909355505050565b604080516080810182526000808252606060208301819052928201528181019190915261ffff1982166000908152600260209081526040918290208251608081018452815481526001820180548551818602810186019096528086529194929385810193929083018282801561055557602002820191906000526020600020905b815460101b61ffff19168152600190910190602001808311610538575b50505050508152602001600282015481526020016003820180546105789061236a565b80601f01602080910402602001604051908101604052809291908181526020018280546105a49061236a565b80156105f15780601f106105c6576101008083540402835291602001916105f1565b820191906000526020600020905b8154815290600101906020018083116105d457829003601f168201915b5050505050815250509050919050565b6040805161012080820183526000808352602080840182905283850182905260608085018190526080850181905260a0850183905260c0850181905260e08501819052610100850181905261ffff198781168452600483529286902086519485018752805460101b90931684526001830154811b6001600160601b0319908116928501929092526002830154811b909116948301949094526003810180549394929391928401916106b19061236a565b80601f01602080910402602001604051908101604052809291908181526020018280546106dd9061236a565b801561072a5780601f106106ff5761010080835404028352916020019161072a565b820191906000526020600020905b81548152906001019060200180831161070d57829003601f168201915b505050505081526020016004820180546107439061236a565b80601f016020809104026020016040519081016040528092919081815260200182805461076f9061236a565b80156107bc5780601f10610791576101008083540402835291602001916107bc565b820191906000526020600020905b81548152906001019060200180831161079f57829003601f168201915b505050918352505060058201546001600160401b031660208201526006820180546040909201916107ec9061236a565b80601f01602080910402602001604051908101604052809291908181526020018280546108189061236a565b80156108655780601f1061083a57610100808354040283529160200191610865565b820191906000526020600020905b81548152906001019060200180831161084857829003601f168201915b5050505050815260200160078201805461087e9061236a565b80601f01602080910402602001604051908101604052809291908181526020018280546108aa9061236a565b80156108f75780601f106108cc576101008083540402835291602001916108f7565b820191906000526020600020905b8154815290600101906020018083116108da57829003601f168201915b505050505081526020016008820180546105789061236a565b6001600160a01b03811660009081526003602090815260409182902080548351818402810184019094528084526060939283018282801561035b576000918252602091829020805460101b61ffff191684529082028301926001909101910180831161033e5750505050509050919050565b600d54604051630152113160e31b81523360048201819052916001600160a01b031690630a90898890602401602060405180830381865afa1580156109cb573d6000803e3d6000fd5b505050506040513d601f19601f820116820180604052508101906109ef919061231d565b1515600114610a105760405162461bcd60e51b81526004016103f69061233f565b600f54604051631519203360e01b81526001600160a01b0390911690631519203390610a4a908a908a908a908a908a908a906004016124b2565b600060405180830381600087803b158015610a6457600080fd5b505af1158015610a78573d6000803e3d6000fd5b5050505050505050505050565b600d54604051630152113160e31b81526001600160a01b0380841660048301526000928492911690630a90898890602401602060405180830381865afa158015610ad3573d6000803e3d6000fd5b505050506040513d601f19601f82011682018060405250810190610af7919061231d565b1515600114610b185760405162461bcd60e51b81526004016103f69061233f565b600084604051602001610b2b9190612518565b60408051601f1981840301815282825280516020918201208383018352808452838201898152600082815260098452939093208451815592518051919550610b7a926001850192910190611785565b5050506001600160a01b0384166000908152600a602090815260408220805460018101825590835291200181905591505092915050565b6001600160a01b03811660009081526001602090815260409182902080548351818402810184019094528084526060939283018282801561035b57602002820191906000526020600020905b815481526020019060010190808311610bfd5750505050509050919050565b600d54604051630152113160e31b81526001600160a01b03808416600483015283921690630a90898890602401602060405180830381865afa158015610c66573d6000803e3d6000fd5b505050506040513d601f19601f82011682018060405250810190610c8a919061231d565b1515600114610cab5760405162461bcd60e51b81526004016103f69061233f565b6040805160608101825261ffff198716808252602080830188815283850188815260009384529183905293909120825181546001600160f01b03191660109190911c17815592516001840155519091906002820190610d0a90826123f3565b505050506001600160a01b03166000908152600160208181526040832080549283018155835290912061ffff19949094169301929092555050565b6001600160a01b03811660009081526008602090815260409182902080548351818402810184019094528084526060939283018282801561035b5760200282019190600052602060002090815481526020019060010190808311610bfd5750505050509050919050565b6000806003888888888888604051602001610dcf9695949392919061254e565b60408051601f1981840301815290829052610de9916125d0565b602060405180830381855afa158015610e06573d6000803e3d6000fd5b505060408051516001600160a01b039a8b16600090815260066020908152928120805460018101825590825292902090910180546001600160a01b0319169a82169a909a1790995550505060609590951b95945050505050565b600d54604051630152113160e31b81526001600160a01b0380841660048301526060928492911690630a90898890602401602060405180830381865afa158015610eae573d6000803e3d6000fd5b505050506040513d601f19601f82011682018060405250810190610ed2919061231d565b1515600114610ef35760405162461bcd60e51b81526004016103f69061233f565b6000610f138489604001518a606001518b608001518c60a001518c610daf565b905060005b8581101561116a576000828989604051602001610f37939291906125ec565b604051602081830303815290604052610f4f90612632565b90506040518061012001604052808261ffff19168152602001846001600160601b03191681526020018b604001516001600160601b03191681526020018b6060015181526020018b6080015181526020018b60a001516001600160401b031681526020018b60c0015181526020018b60e0015181526020018b6101000151815250600460008361ffff1916815260200190815260200160002060008201518160000160006101000a8154816001600160f01b03021916908360101c021790555060208201518160010160006101000a8154816001600160a01b03021916908360601c021790555060408201518160020160006101000a8154816001600160a01b03021916908360601c0217905550606082015181600301908161107291906123f3565b506080820151600482019061108790826123f3565b5060a082015160058201805467ffffffffffffffff19166001600160401b0390921691909117905560c082015160068201906110c390826123f3565b5060e082015160078201906110d890826123f3565b5061010082015160088201906110ee90826123f3565b5050506001600160a01b03861660009081526005602090815260408220805460018101825590835291200180546001600160f01b031916601083901c1790558451819086908490811061114357611143612664565b61ffff199092166020928302919091019091015250806111628161267a565b915050610f18565b50505095945050505050565b600d54604051630152113160e31b81526001600160a01b0380851660048301526000928592911690630a90898890602401602060405180830381865afa1580156111c4573d6000803e3d6000fd5b505050506040513d601f19601f820116820180604052508101906111e8919061231d565b15156001146112095760405162461bcd60e51b81526004016103f69061233f565b60008560405160200161121c91906126a1565b60408051808303601f190181528282528051602091820120606080850184528185526001600160601b031989168386019081528585018c8152600084815260078652959095208651815590516001820180546001600160a01b0319169190931c1790915592518051919550611298926002850192910190611725565b5050506001600160a01b0385166000908152600860209081526040822080546001810182559083529120018190559150509392505050565b60408051606080820183526000808352602080840182905283850183905285825260078152908490208451808401865281548152600182015490931b6001600160601b0319168383015260028101805486518185028101850188528181529596949592948601938301828280156105f157602002820191906000526020600020905b815460101b61ffff19168152600190910190602001808311611352575050505050815250509050919050565b600d54604051630152113160e31b81526001600160a01b0380841660048301526000928492911690630a90898890602401602060405180830381865afa1580156113cc573d6000803e3d6000fd5b505050506040513d601f19601f820116820180604052508101906113f0919061231d565b15156001146114115760405162461bcd60e51b81526004016103f69061233f565b60008c856040516020016114269291906126d0565b60405160208183030381529060405261143e90612632565b90506040518061012001604052808261ffff191681526020018e6001600160601b03191681526020018d6001600160601b03191681526020018c81526020018b81526020018a6001600160401b0316815260200189815260200188815260200187815250600460008361ffff1916815260200190815260200160002060008201518160000160006101000a8154816001600160f01b03021916908360101c021790555060208201518160010160006101000a8154816001600160a01b03021916908360601c021790555060408201518160020160006101000a8154816001600160a01b03021916908360601c0217905550606082015181600301908161154491906123f3565b506080820151600482019061155990826123f3565b5060a082015160058201805467ffffffffffffffff19166001600160401b0390921691909117905560c0820151600682019061159590826123f3565b5060e082015160078201906115aa90826123f3565b5061010082015160088201906115c090826123f3565b5050506001600160a01b039390931660009081526005602090815260408220805460018101825590835291200180546001600160f01b031916601085901c17905550909a9950505050505050505050565b60408051606080820183526000808352602083015291810191909152600082815260208181526040918290208251606081018452815460101b61ffff1916815260018201549281019290925260028101805492939192918401916105789061236a565b60408051606080820183526000808352602080840182905283850183905261ffff198616825260078152908490208451808401865281548152600182015490931b6001600160601b0319168383015260028101805486518185028101850188528181529596949592948601938301828280156105f1576000918252602091829020805460101b61ffff1916845290820283019260019091019101808311611352575050505050815250509050919050565b828054828255906000526020600020908101928215611775579160200282015b8281111561177557825182546001600160f01b03191660109190911c178255602090920191600190910190611745565b506117819291506117c0565b5090565b828054828255906000526020600020908101928215611775579160200282015b828111156117755782518255916020019190600101906117a5565b5b8082111561178157600081556001016117c1565b80356001600160a01b03811681146117ec57600080fd5b919050565b60006020828403121561180357600080fd5b61180c826117d5565b9392505050565b6020808252825182820181905260009190848201906040850190845b8181101561185057835161ffff19168352928401929184019160010161182f565b50909695505050505050565b803561ffff19811681146117ec57600080fd5b634e487b7160e01b600052604160045260246000fd5b60405161012081016001600160401b03811182821017156118a8576118a861186f565b60405290565b604051601f8201601f191681016001600160401b03811182821017156118d6576118d661186f565b604052919050565b60006001600160401b038211156118f7576118f761186f565b5060051b60200190565b600082601f83011261191257600080fd5b81356020611927611922836118de565b6118ae565b82815260059290921b8401810191818101908684111561194657600080fd5b8286015b848110156119685761195b8161185c565b835291830191830161194a565b509695505050505050565b60006001600160401b0383111561198c5761198c61186f565b61199f601f8401601f19166020016118ae565b90508281528383830111156119b357600080fd5b828260208301376000602084830101529392505050565b600082601f8301126119db57600080fd5b61180c83833560208501611973565b600080600080600060a08688031215611a0257600080fd5b611a0b8661185c565b945060208601356001600160401b0380821115611a2757600080fd5b611a3389838a01611901565b9550604088013594506060880135915080821115611a5057600080fd5b50611a5d888289016119ca565b925050611a6c608087016117d5565b90509295509295909350565b600060208284031215611a8a57600080fd5b61180c8261185c565b600081518084526020808501945080840160005b83811015611ac857815161ffff191687529582019590820190600101611aa7565b509495945050505050565b60005b83811015611aee578181015183820152602001611ad6565b50506000910152565b60008151808452611b0f816020860160208601611ad3565b601f01601f19169290920160200192915050565b60208152815160208201526000602083015160806040840152611b4960a0840182611a93565b9050604084015160608401526060840151601f19848303016080850152611b708282611af7565b95945050505050565b60208152611b8f60208201835161ffff19169052565b60006020830151611bac60408401826001600160601b0319169052565b5060408301516001600160601b031981166060840152506060830151610120806080850152611bdf610140850183611af7565b91506080850151601f19808685030160a0870152611bfd8483611af7565b935060a08701519150611c1b60c08701836001600160401b03169052565b60c08701519150808685030160e0870152611c368483611af7565b935060e08701519150610100818786030181880152611c558584611af7565b908801518782039092018488015293509050611c718382611af7565b9695505050505050565b60008060008060008060c08789031215611c9457600080fd5b611c9d876117d5565b9550611cab602088016117d5565b94506040870135935060608701356001600160401b0380821115611cce57600080fd5b611cda8a838b016119ca565b94506080890135915080821115611cf057600080fd5b611cfc8a838b016119ca565b935060a0890135915080821115611d1257600080fd5b508701601f81018913611d2457600080fd5b611d3389823560208401611973565b9150509295509295509295565b60008060408385031215611d5357600080fd5b82356001600160401b03811115611d6957600080fd5b8301601f81018513611d7a57600080fd5b80356020611d8a611922836118de565b82815260059290921b83018101918181019088841115611da957600080fd5b938201935b83851015611dc757843582529382019390820190611dae565b9550611dd690508682016117d5565b93505050509250929050565b6020808252825182820181905260009190848201906040850190845b8181101561185057835183529284019291840191600101611dfe565b60008060008060808587031215611e3057600080fd5b611e398561185c565b93506020850135925060408501356001600160401b03811115611e5b57600080fd5b611e67878288016119ca565b925050611e76606086016117d5565b905092959194509250565b80356001600160601b0319811681146117ec57600080fd5b80356001600160401b03811681146117ec57600080fd5b60008060008060008060c08789031215611ec957600080fd5b611ed2876117d5565b9550611ee060208801611e81565b945060408701356001600160401b0380821115611efc57600080fd5b611f088a838b016119ca565b95506060890135915080821115611f1e57600080fd5b611f2a8a838b016119ca565b9450611f3860808a01611e99565b935060a0890135915080821115611f4e57600080fd5b50611d3389828a016119ca565b600080600080600060a08688031215611f7357600080fd5b85356001600160401b0380821115611f8a57600080fd5b90870190610120828a031215611f9f57600080fd5b611fa7611885565b611fb08361185c565b8152611fbe60208401611e81565b6020820152611fcf60408401611e81565b6040820152606083013582811115611fe657600080fd5b611ff28b8286016119ca565b60608301525060808301358281111561200a57600080fd5b6120168b8286016119ca565b60808301525061202860a08401611e99565b60a082015260c08301358281111561203f57600080fd5b61204b8b8286016119ca565b60c08301525060e08301358281111561206357600080fd5b61206f8b8286016119ca565b60e083015250610100808401358381111561208957600080fd5b6120958c8287016119ca565b8284015250508097505060208801359150808211156120b357600080fd5b6120bf89838a016119ca565b955060408801359150808211156120d557600080fd5b506120e2888289016119ca565b93505060608601359150611a6c608087016117d5565b60008060006060848603121561210d57600080fd5b83356001600160401b0381111561212357600080fd5b61212f86828701611901565b93505061213e602085016117d5565b915061214c60408501611e81565b90509250925092565b60006020828403121561216757600080fd5b5035919050565b60208152815160208201526001600160601b03196020830151166040820152600060408301516060808401526121a76080840182611a93565b949350505050565b6000806000806000806000806000806101408b8d0312156121cf57600080fd5b6121d88b611e81565b99506121e660208c01611e81565b985060408b01356001600160401b038082111561220257600080fd5b61220e8e838f016119ca565b995060608d013591508082111561222457600080fd5b6122308e838f016119ca565b985061223e60808e01611e99565b975060a08d013591508082111561225457600080fd5b6122608e838f016119ca565b965060c08d013591508082111561227657600080fd5b6122828e838f016119ca565b955060e08d013591508082111561229857600080fd5b6122a48e838f016119ca565b94506101008d01359150808211156122bb57600080fd5b506122c88d828e016119ca565b9250506122d86101208c016117d5565b90509295989b9194979a5092959850565b6020815261ffff19825116602082015260208201516040820152600060408301516060808401526121a76080840182611af7565b60006020828403121561232f57600080fd5b8151801515811461180c57600080fd5b6020808252601190820152705065726d697373616f206e65676164612160781b604082015260600190565b600181811c9082168061237e57607f821691505b60208210810361239e57634e487b7160e01b600052602260045260246000fd5b50919050565b601f8211156123ee57600081815260208120601f850160051c810160208610156123cb5750805b601f850160051c820191505b818110156123ea578281556001016123d7565b5050505b505050565b81516001600160401b0381111561240c5761240c61186f565b6124208161241a845461236a565b846123a4565b602080601f831160018114612455576000841561243d5750858301515b600019600386901b1c1916600185901b1785556123ea565b600085815260208120601f198616915b8281101561248457888601518255948401946001909101908401612465565b50858210156124a25787850151600019600388901b60f8161c191681555b5050505050600190811b01905550565b6001600160a01b038781168252861660208201526040810185905260c0606082018190526000906124e590830186611af7565b82810360808401526124f78186611af7565b905082810360a084015261250b8185611af7565b9998505050505050505050565b815160009082906020808601845b8381101561254257815185529382019390820190600101612526565b50929695505050505050565b60006001600160601b0319808960601b168352808816601484015250855161257d816028850160208a01611ad3565b855190830190612594816028840160208a01611ad3565b60c086901b6001600160c01b0319166028929091019182015283516125c0816030840160208801611ad3565b0160300198975050505050505050565b600082516125e2818460208701611ad3565b9190910192915050565b6001600160601b0319841681526000835161260e816014850160208801611ad3565b835190830190612625816014840160208801611ad3565b0160140195945050505050565b8051602082015161ffff19808216929190601e83101561265c57808184601e0360031b1b83161693505b505050919050565b634e487b7160e01b600052603260045260246000fd5b60006001820161269a57634e487b7160e01b600052601160045260246000fd5b5060010190565b815160009082906020808601845b8381101561254257815161ffff1916855293820193908201906001016126af565b6001600160601b031983168152600082516126f2816014850160208701611ad3565b91909101601401939250505056fea2646970667358221220bc0e357d1781b76fc992eba8fb049170b3a657372e1bedcb8c8d0a8c2cb2d56f64736f6c63430008110033",
  "immutableReferences": {},
  "source": "// SPDX-License-Identifier: MIT\r\npragma solidity ^0.8.17;\r\nimport \"./Authentication.sol\";\r\nimport \"./UpdateTr.sol\";\r\n\r\nstruct Feedstock {\r\n    bytes30 id;\r\n    bytes32 supplier;\r\n    string dateTime;\r\n}\r\n\r\nstruct FeedstockContainer {\r\n    bytes32 id;\r\n    bytes30[] feedstockIds;\r\n    bytes32 supplier;\r\n    string dateTime;\r\n}\r\n\r\nstruct Honey {\r\n    bytes30 id;\r\n    bytes20 batch;\r\n    bytes20 feedstockBatch;\r\n    string honeyType;\r\n    string variety;\r\n    uint64 weight;\r\n    string packaging;\r\n    string validity;\r\n    string composition;\r\n}\r\n\r\nstruct Box {\r\n    bytes32 id;\r\n    bytes20 batch;\r\n    bytes30[] honeyId;\r\n}\r\n\r\nstruct Pallet {\r\n    bytes32 id;\r\n    bytes32[] boxId;\r\n}\r\n\r\ncontract Processing {\r\n    // Variaveis de estado\r\n    mapping(bytes32 => Feedstock) feedstocks; // endereco => (codigo => carregamento). lista de materia prima recebida por cada processador de mel.\r\n    mapping(address => bytes32[]) feedstocksId;\r\n\r\n    mapping(bytes30 => FeedstockContainer) feedstockContainers; // endereco => (codigo => carregamento). lista de materia prima recebida por cada processador de mel.\r\n    mapping(address => bytes30[]) feedstockContainersId;\r\n\r\n    mapping(bytes32 => Honey) honeys; // endereco => (codigo => Honey). Lista de produtos fabricados por cada processador de mel.\r\n    mapping(address => bytes30[]) honeysId;\r\n    mapping(address => bytes20[]) honeysBatch;\r\n\r\n    mapping(bytes32 => Box) boxes; // endereco => (codigo => Container). Lista de conteiners(caixa ou palete) montados por cada processador de mel.\r\n    mapping(address => bytes32[]) boxesId;\r\n\r\n    mapping(bytes32 => Pallet) pallets; // endereco => (codigo => Container). Lista de conteiners(caixa ou palete) montados por cada processador de mel.\r\n    mapping(address => bytes32[]) palletsId;\r\n    mapping(address => bytes20[]) palletsBatch;\r\n\r\n    address contractAuthentication;\r\n    Authentication instanceAuthentication;\r\n    address contractUpdateTr;\r\n    UpdateTr instanceUpdateTr;\r\n\r\n    constructor(address _contractAuthentication, address _contractUpdateTr) {\r\n        contractAuthentication = _contractAuthentication;\r\n        instanceAuthentication = Authentication(contractAuthentication);\r\n        contractUpdateTr = _contractUpdateTr;\r\n        instanceUpdateTr = UpdateTr(contractUpdateTr);\r\n    }\r\n\r\n    //Verifica se o endereo que esta chamando o contrato possui permisao para modificar o estado da rede\r\n    modifier onlyOWNER(address _addr) {\r\n        require(\r\n            instanceAuthentication.activeUser(_addr) == true,\r\n            \"Permissao negada!\"\r\n        );\r\n        _;\r\n    }\r\n\r\n    // Funes relacionadas ao mel recebido pelos processadores\r\n    function regiterFeedstock(\r\n        bytes30 _id,\r\n        bytes32 _supplier,\r\n        string memory _date,\r\n        address _addr\r\n    ) public onlyOWNER(_addr) {\r\n        feedstocks[_id] = Feedstock(_id, _supplier, _date);\r\n        feedstocksId[_addr].push(_id);\r\n    }\r\n\r\n    // Funcoes GET\r\n    function getFeedstock(bytes32 _id) public view returns (Feedstock memory) {\r\n        return feedstocks[_id];\r\n    }\r\n\r\n    function getFeedstockId(\r\n        address _addr\r\n    ) public view returns (bytes32[] memory) {\r\n        return feedstocksId[_addr];\r\n    }\r\n\r\n    function regiterFeedstockContainer(\r\n        bytes30 _id,\r\n        bytes30[] memory _feedstockIds,\r\n        bytes32 _supplier,\r\n        string memory _date,\r\n        address _addr\r\n    ) public onlyOWNER(_addr) {\r\n        feedstockContainers[_id] = FeedstockContainer(\r\n            _id,\r\n            _feedstockIds,\r\n            _supplier,\r\n            _date\r\n        );\r\n        feedstockContainersId[_addr].push(_id);\r\n    }\r\n\r\n    // Funcoes GET\r\n    function getFeedstockContainer(\r\n        bytes30 _id\r\n    ) public view returns (FeedstockContainer memory) {\r\n        return feedstockContainers[_id];\r\n    }\r\n\r\n    function getFeedstockContainerId(\r\n        address _addr\r\n    ) public view returns (bytes30[] memory) {\r\n        return feedstockContainersId[_addr];\r\n    }\r\n\r\n    // Funes relacionadas ao mel beneficiado produzido pelos processadores\r\n\r\n    function generateBatch(\r\n        address _addr,\r\n        bytes20 _feedstockBatch,\r\n        string memory _honeyType,\r\n        string memory _variety,\r\n        uint64 _weight,\r\n        string memory _date\r\n    ) public returns (bytes20) {\r\n        bytes20 _batch = ripemd160(\r\n            abi.encodePacked(\r\n                _addr,\r\n                _feedstockBatch,\r\n                _honeyType,\r\n                _variety,\r\n                _weight,\r\n                _date\r\n            )\r\n        );\r\n\r\n        honeysBatch[_addr].push(_batch);\r\n        return _batch;\r\n    }\r\n\r\n    function newHoney(\r\n        bytes20 _batch,\r\n        bytes20 _feedstockBatch,\r\n        string memory _honeyType,\r\n        string memory _variety,\r\n        uint64 _weight,\r\n        string memory _pacaging,\r\n        string memory _validity,\r\n        string memory _composition,\r\n        string memory _dateTime,\r\n        address _addr\r\n    ) public onlyOWNER(_addr) returns (bytes30) {\r\n        bytes30 _id = bytes30(abi.encodePacked(_batch, _dateTime));\r\n        honeys[_id] = Honey(\r\n            _id,\r\n            _batch,\r\n            _feedstockBatch,\r\n            _honeyType,\r\n            _variety,\r\n            _weight,\r\n            _pacaging,\r\n            _validity,\r\n            _composition\r\n        );\r\n        honeysId[_addr].push(_id);\r\n        return _id;\r\n    }\r\n\r\n    // bytes20 _feedstockBatch,\r\n    // string memory _honeyType,\r\n    // string memory _variety,\r\n    // uint64 _weight,\r\n    // string memory _packaging,\r\n    // string memory _validity,\r\n    // string memory _composition,\r\n    // string memory _date,\r\n    // string memory _time,\r\n    function newHoneys(\r\n        Honey memory _honey,\r\n        string memory _date,\r\n        string memory _time,\r\n        uint _amount,\r\n        address _addr\r\n    ) public onlyOWNER(_addr) returns (bytes30[] memory id) {\r\n        bytes20 _batch = generateBatch(\r\n            _addr,\r\n            _honey.feedstockBatch,\r\n            _honey.honeyType,\r\n            _honey.variety,\r\n            _honey.weight,\r\n            _date\r\n        );\r\n\r\n        for (uint256 index = 0; index < _amount; index++) {\r\n            bytes30 _id = bytes30(abi.encodePacked(_batch, _date, _time));\r\n            honeys[_id] = Honey(\r\n                _id,\r\n                _batch,\r\n                _honey.feedstockBatch,\r\n                _honey.honeyType,\r\n                _honey.variety,\r\n                _honey.weight,\r\n                _honey.packaging,\r\n                _honey.validity,\r\n                _honey.composition\r\n            );\r\n            honeysId[_addr].push(_id);\r\n            id[index] = bytes30(_id);\r\n        }\r\n        return id;\r\n    }\r\n\r\n    function getHoney(bytes30 _id) public view returns (Honey memory) {\r\n        return honeys[_id];\r\n    }\r\n\r\n    function getHoneyId(address _addr) public view returns (bytes30[] memory) {\r\n        return honeysId[_addr];\r\n    }\r\n\r\n    // Funes relacionadas aos containeres de mel produzidos pelos processadores\r\n    function newBox(\r\n        bytes30[] memory _honeyId,\r\n        address _addr,\r\n        bytes20 _batch\r\n    ) public onlyOWNER(_addr) returns (bytes32) {\r\n        bytes32 _id = bytes32(keccak256(abi.encodePacked(_honeyId)));\r\n        boxes[_id] = Box(_id, _batch, _honeyId);\r\n        boxesId[_addr].push(_id);\r\n        return _id;\r\n    }\r\n\r\n    function getBox(bytes30 _id) public view returns (Box memory) {\r\n        return boxes[_id];\r\n    }\r\n\r\n    function getBoxId(address _addr) public view returns (bytes32[] memory) {\r\n        return boxesId[_addr];\r\n    }\r\n\r\n    function newPallet(\r\n        bytes32[] memory _honeyId,\r\n        address _addr\r\n    ) public onlyOWNER(_addr) returns (bytes32) {\r\n        bytes32 _id = keccak256(abi.encodePacked(_honeyId));\r\n        pallets[_id] = Pallet(_id, _honeyId);\r\n        palletsId[_addr].push(_id);\r\n        return _id;\r\n    }\r\n\r\n    // Fones GET\r\n    function getPallet(bytes32 _id) public view returns (Box memory) {\r\n        return boxes[_id];\r\n    }\r\n\r\n    function getPalletId(address _addr) public view returns (bytes32[] memory) {\r\n        return boxesId[_addr];\r\n    }\r\n\r\n    //Funo para registrar a tranzao de um produto\r\n    function forwarding(\r\n        address _sender,\r\n        address _receiver,\r\n        bytes32 _unitId,\r\n        string memory _date,\r\n        string memory _businessUnitType,\r\n        bytes memory _signature\r\n    ) public onlyOWNER(msg.sender) {\r\n        //chamar funcao updateTr no contrato UpdateTr\r\n        instanceUpdateTr.updateTr(\r\n            _sender,\r\n            _receiver,\r\n            _unitId,\r\n            _date,\r\n            _businessUnitType,\r\n            _signature\r\n        );\r\n    }\r\n}\r\n",
  "sourcePath": "C:\\Users\\samue\\Documents\\Workspace_react\\BlockForBees\\backend_blockcahin\\contracts\\Processing.sol",
  "compiler": {
    "name": "solc",
    "version": "0.8.17+commit.8df45f5f.Emscripten.clang"
  },
  "schemaVersion": "3.4.11",
  "updatedAt": "2023-04-18T18:45:22.267Z",
  "networkType": "ethereum",
  "devdoc": {
    "kind": "dev",
    "methods": {},
    "version": 1
  },
  "userdoc": {
    "kind": "user",
    "methods": {},
    "version": 1
  }
}