{
  "contractName": "Production",
  "abi": [
    {
      "inputs": [
        {
          "internalType": "address",
          "name": "_contractAuthentication",
          "type": "address"
        },
        {
          "internalType": "address",
          "name": "_contractUpdateTr",
          "type": "address"
        }
      ],
      "stateMutability": "nonpayable",
      "type": "constructor"
    },
    {
      "anonymous": false,
      "inputs": [
        {
          "indexed": true,
          "internalType": "address",
          "name": "addr",
          "type": "address"
        },
        {
          "indexed": false,
          "internalType": "uint256",
          "name": "hiveId",
          "type": "uint256"
        },
        {
          "indexed": false,
          "internalType": "uint256",
          "name": "dateCollect",
          "type": "uint256"
        },
        {
          "indexed": false,
          "internalType": "int256",
          "name": "peso",
          "type": "int256"
        }
      ],
      "name": "Collect",
      "type": "event"
    },
    {
      "anonymous": false,
      "inputs": [
        {
          "indexed": true,
          "internalType": "string",
          "name": "_id",
          "type": "string"
        },
        {
          "components": [
            {
              "internalType": "uint256",
              "name": "hiveId",
              "type": "uint256"
            },
            {
              "internalType": "uint16",
              "name": "weightHoney",
              "type": "uint16"
            },
            {
              "internalType": "string",
              "name": "dateCollect",
              "type": "string"
            }
          ],
          "indexed": true,
          "internalType": "struct Hive[]",
          "name": "hives",
          "type": "tuple[]"
        }
      ],
      "name": "UpdateHive",
      "type": "event"
    },
    {
      "inputs": [
        {
          "internalType": "string",
          "name": "_id",
          "type": "string"
        },
        {
          "components": [
            {
              "internalType": "uint256",
              "name": "hiveId",
              "type": "uint256"
            },
            {
              "internalType": "uint16",
              "name": "weightHoney",
              "type": "uint16"
            },
            {
              "internalType": "string",
              "name": "dateCollect",
              "type": "string"
            }
          ],
          "internalType": "struct Hive[]",
          "name": "_hives",
          "type": "tuple[]"
        }
      ],
      "name": "updateHive",
      "outputs": [],
      "stateMutability": "nonpayable",
      "type": "function"
    },
    {
      "inputs": [
        {
          "internalType": "string",
          "name": "_id",
          "type": "string"
        },
        {
          "internalType": "string",
          "name": "_apiary",
          "type": "string"
        },
        {
          "internalType": "string",
          "name": "_flowering",
          "type": "string"
        },
        {
          "internalType": "string",
          "name": "_date",
          "type": "string"
        }
      ],
      "name": "generateBatch",
      "outputs": [
        {
          "internalType": "bytes20",
          "name": "",
          "type": "bytes20"
        }
      ],
      "stateMutability": "nonpayable",
      "type": "function"
    },
    {
      "inputs": [
        {
          "internalType": "string",
          "name": "_userId",
          "type": "string"
        },
        {
          "internalType": "bytes20",
          "name": "_batch",
          "type": "bytes20"
        },
        {
          "internalType": "string",
          "name": "_apiary",
          "type": "string"
        },
        {
          "internalType": "uint64",
          "name": "_weight",
          "type": "uint64"
        },
        {
          "internalType": "string",
          "name": "_packing",
          "type": "string"
        },
        {
          "internalType": "string",
          "name": "_flowering",
          "type": "string"
        },
        {
          "internalType": "string",
          "name": "_dateTime",
          "type": "string"
        },
        {
          "internalType": "uint256[]",
          "name": "_hivesId",
          "type": "uint256[]"
        }
      ],
      "name": "newTun",
      "outputs": [
        {
          "internalType": "bytes30",
          "name": "",
          "type": "bytes30"
        }
      ],
      "stateMutability": "nonpayable",
      "type": "function"
    },
    {
      "inputs": [
        {
          "internalType": "bytes30",
          "name": "_id",
          "type": "bytes30"
        }
      ],
      "name": "getTun",
      "outputs": [
        {
          "components": [
            {
              "internalType": "bytes30",
              "name": "id",
              "type": "bytes30"
            },
            {
              "internalType": "bytes20",
              "name": "batch",
              "type": "bytes20"
            },
            {
              "internalType": "string",
              "name": "productorId",
              "type": "string"
            },
            {
              "internalType": "string",
              "name": "apiary",
              "type": "string"
            },
            {
              "internalType": "uint64",
              "name": "weight",
              "type": "uint64"
            },
            {
              "internalType": "string",
              "name": "packing",
              "type": "string"
            },
            {
              "internalType": "string",
              "name": "flowering",
              "type": "string"
            },
            {
              "internalType": "string",
              "name": "date",
              "type": "string"
            },
            {
              "internalType": "uint256[]",
              "name": "hivesId",
              "type": "uint256[]"
            }
          ],
          "internalType": "struct Tun",
          "name": "",
          "type": "tuple"
        }
      ],
      "stateMutability": "view",
      "type": "function",
      "constant": true
    },
    {
      "inputs": [
        {
          "internalType": "string",
          "name": "_id",
          "type": "string"
        }
      ],
      "name": "getTunId",
      "outputs": [
        {
          "internalType": "bytes30[]",
          "name": "",
          "type": "bytes30[]"
        }
      ],
      "stateMutability": "view",
      "type": "function",
      "constant": true
    },
    {
      "inputs": [
        {
          "internalType": "string",
          "name": "_userId",
          "type": "string"
        },
        {
          "internalType": "bytes20",
          "name": "_batch",
          "type": "bytes20"
        },
        {
          "internalType": "bytes30[]",
          "name": "_tunId",
          "type": "bytes30[]"
        }
      ],
      "name": "newContainer",
      "outputs": [
        {
          "internalType": "bytes32",
          "name": "",
          "type": "bytes32"
        }
      ],
      "stateMutability": "nonpayable",
      "type": "function"
    },
    {
      "inputs": [
        {
          "internalType": "bytes32",
          "name": "_id",
          "type": "bytes32"
        }
      ],
      "name": "getContainer",
      "outputs": [
        {
          "components": [
            {
              "internalType": "bytes32",
              "name": "id",
              "type": "bytes32"
            },
            {
              "internalType": "bytes20",
              "name": "batch",
              "type": "bytes20"
            },
            {
              "internalType": "bytes30[]",
              "name": "tunId",
              "type": "bytes30[]"
            }
          ],
          "internalType": "struct Container",
          "name": "",
          "type": "tuple"
        }
      ],
      "stateMutability": "view",
      "type": "function",
      "constant": true
    },
    {
      "inputs": [
        {
          "internalType": "string",
          "name": "_id",
          "type": "string"
        }
      ],
      "name": "getContainersId",
      "outputs": [
        {
          "internalType": "bytes32[]",
          "name": "",
          "type": "bytes32[]"
        }
      ],
      "stateMutability": "view",
      "type": "function",
      "constant": true
    },
    {
      "inputs": [
        {
          "internalType": "string",
          "name": "_sender",
          "type": "string"
        },
        {
          "internalType": "string",
          "name": "_receiver",
          "type": "string"
        },
        {
          "internalType": "bytes32",
          "name": "_unitId",
          "type": "bytes32"
        },
        {
          "internalType": "string",
          "name": "_date",
          "type": "string"
        },
        {
          "internalType": "string",
          "name": "_businessUnitType",
          "type": "string"
        },
        {
          "internalType": "bytes",
          "name": "_signature",
          "type": "bytes"
        }
      ],
      "name": "forwarding",
      "outputs": [],
      "stateMutability": "nonpayable",
      "type": "function"
    }
  ],
  "bytecode": "0x60806040523480156200001157600080fd5b5060405162001d7638038062001d7683398101604081905262000034916200009d565b600780546001600160a01b039384166001600160a01b0319918216811790925560088054821690921790915560098054929093169181168217909255600a8054909216179055620000d5565b80516001600160a01b03811681146200009857600080fd5b919050565b60008060408385031215620000b157600080fd5b620000bc8362000080565b9150620000cc6020840162000080565b90509250929050565b611c9180620000e56000396000f3fe608060405234801561001057600080fd5b50600436106100935760003560e01c806363d43d1b1161006657806363d43d1b1461010957806365764ca214610129578063881a0ebf1461015557806389c6faaa1461017c578063edf753f21461019c57600080fd5b80630922b162146100985780630c9c2896146100c15780630fb0e9d7146100d657806313ae832b146100f6575b600080fd5b6100ab6100a6366004610f7b565b6101bd565b6040516100b89190611028565b60405180910390f35b6100d46100cf36600461120e565b61059d565b005b6100e96100e43660046112e7565b6106ad565b6040516100b89190611335565b6100d4610104366004611399565b61075b565b61011c6101173660046114cb565b610846565b6040516100b891906114ff565b61013c610137366004611543565b6108b6565b6040516001600160601b031990911681526020016100b8565b610168610163366004611684565b6109fa565b60405161ffff1990911681526020016100b8565b61018f61018a3660046114cb565b610c9f565b6040516100b8919061179b565b6101af6101aa3660046117ae565b610d17565b6040519081526020016100b8565b60408051610120810182526000808252602082018190526060928201839052828201839052608082015260a0810182905260c0810182905260e0810182905261010081019190915261ffff19828116600090815260026020818152604092839020835161012081018552815460101b9095168552600181015460601b6001600160601b031916918501919091529081018054919284019161025d9061187f565b80601f01602080910402602001604051908101604052809291908181526020018280546102899061187f565b80156102d65780601f106102ab576101008083540402835291602001916102d6565b820191906000526020600020905b8154815290600101906020018083116102b957829003601f168201915b505050505081526020016003820180546102ef9061187f565b80601f016020809104026020016040519081016040528092919081815260200182805461031b9061187f565b80156103685780601f1061033d57610100808354040283529160200191610368565b820191906000526020600020905b81548152906001019060200180831161034b57829003601f168201915b505050918352505060048201546001600160401b031660208201526005820180546040909201916103989061187f565b80601f01602080910402602001604051908101604052809291908181526020018280546103c49061187f565b80156104115780601f106103e657610100808354040283529160200191610411565b820191906000526020600020905b8154815290600101906020018083116103f457829003601f168201915b5050505050815260200160068201805461042a9061187f565b80601f01602080910402602001604051908101604052809291908181526020018280546104569061187f565b80156104a35780601f10610478576101008083540402835291602001916104a3565b820191906000526020600020905b81548152906001019060200180831161048657829003601f168201915b505050505081526020016007820180546104bc9061187f565b80601f01602080910402602001604051908101604052809291908181526020018280546104e89061187f565b80156105355780601f1061050a57610100808354040283529160200191610535565b820191906000526020600020905b81548152906001019060200180831161051857829003601f168201915b505050505081526020016008820180548060200260200160405190810160405280929190818152602001828054801561058d57602002820191906000526020600020905b815481526020019060010190808311610579575b5050505050815250509050919050565b60085460405163175757d560e01b815286916001600160a01b03169063175757d5906105cd9084906004016118b9565b602060405180830381865afa1580156105ea573d6000803e3d6000fd5b505050506040513d601f19601f8201168201806040525081019061060e91906118cc565b15156001146106385760405162461bcd60e51b815260040161062f906118ee565b60405180910390fd5b600a546040516324d9f1a160e11b81526001600160a01b03909116906349b3e34290610672908a908a908a908a908a908a90600401611919565b600060405180830381600087803b15801561068c57600080fd5b505af11580156106a0573d6000803e3d6000fd5b5050505050505050505050565b60408051606080820183526000808352602080840182905283850183905285825260058152908490208451808401865281548152600182015490931b6001600160601b03191683830152600281018054865181850281018501885281815295969495929486019383018282801561058d57602002820191906000526020600020905b815460101b61ffff1916815260019091019060200180831161072f575050505050815250509050919050565b60085460405163175757d560e01b815283916001600160a01b03169063175757d59061078b9084906004016118b9565b602060405180830381865afa1580156107a8573d6000803e3d6000fd5b505050506040513d601f19601f820116820180604052508101906107cc91906118cc565b15156001146107ed5760405162461bcd60e51b815260040161062f906118ee565b816040516107fb919061198d565b60405180910390208360405161081191906119f6565b604051908190038120907fc64570277c9c06bfb50aa38e101e8e30ca857a865d59fb4cbbfef243b17c1e3990600090a3505050565b606060068260405161085891906119f6565b90815260408051918290036020908101832080548083028501830190935282845291908301828280156108aa57602002820191906000526020600020905b815481526020019060010190808311610896575b50505050509050919050565b60085460405163175757d560e01b815260009186916001600160a01b039091169063175757d5906108eb9084906004016118b9565b602060405180830381865afa158015610908573d6000803e3d6000fd5b505050506040513d601f19601f8201168201806040525081019061092c91906118cc565b151560011461094d5760405162461bcd60e51b815260040161062f906118ee565b60006003878787876040516020016109689493929190611a12565b60408051601f1981840301815290829052610982916119f6565b602060405180830381855afa15801561099f573d6000803e3d6000fd5b5050506040515160601b90506004876040516109bb91906119f6565b90815260405160209181900382019020805460018101825560009182529190200180546001600160a01b031916606083901c1790559695505050505050565b60085460405163175757d560e01b81526000918a916001600160a01b039091169063175757d590610a2f9084906004016118b9565b602060405180830381865afa158015610a4c573d6000803e3d6000fd5b505050506040513d601f19601f82011682018060405250810190610a7091906118cc565b1515600114610a915760405162461bcd60e51b815260040161062f906118ee565b60008985604051602001610aa6929190611a69565b604051602081830303815290604052610abe90611a99565b90506040518061012001604052808261ffff191681526020018b6001600160601b03191681526020018c81526020018a8152602001896001600160401b0316815260200188815260200187815260200186815260200185815250600260008361ffff191661ffff1916815260200190815260200160002060008201518160000160006101000a8154816001600160f01b03021916908360101c021790555060208201518160010160006101000a8154816001600160a01b03021916908360601c02179055506040820151816002019081610b989190611b1a565b5060608201516003820190610bad9082611b1a565b50608082015160048201805467ffffffffffffffff19166001600160401b0390921691909117905560a08201516005820190610be99082611b1a565b5060c08201516006820190610bfe9082611b1a565b5060e08201516007820190610c139082611b1a565b506101008201518051610c30916008840191602090910190610eb3565b5090505060038b604051610c4491906119f6565b9081526040805160209281900383019020805460018101825560009182528382200180546001600160f01b031916601086811c9190911790915561ffff1990941681526002909252902054901b9a9950505050505050505050565b6060600382604051610cb191906119f6565b90815260408051918290036020908101832080548083028501830190935282845291908301828280156108aa57602002820191906000526020600020905b815460101b61ffff19168152600190910190602001808311610cef5750505050509050919050565b60085460405163175757d560e01b815260009185916001600160a01b039091169063175757d590610d4c9084906004016118b9565b602060405180830381865afa158015610d69573d6000803e3d6000fd5b505050506040513d601f19601f82011682018060405250810190610d8d91906118cc565b1515600114610dae5760405162461bcd60e51b815260040161062f906118ee565b600083604051602001610dc19190611bd9565b60405160208183030381529060405280519060200120905060008682604051602001610dee929190611c08565b604051602081830303815290604052610e0690611c37565b60408051606080820183528382526001600160601b03198a1660208084019182528385018b8152600087815260058352959095208451815591516001830180546001600160a01b0319169190941c17909255925180519495509193610e719260028501920190610efe565b50905050600687604051610e8591906119f6565b9081526040516020918190038201902080546001810182556000918252919020018190559695505050505050565b828054828255906000526020600020908101928215610eee579160200282015b82811115610eee578251825591602001919060010190610ed3565b50610efa929150610f4e565b5090565b828054828255906000526020600020908101928215610eee579160200282015b82811115610eee57825182546001600160f01b03191660109190911c178255602090920191600190910190610f1e565b5b80821115610efa5760008155600101610f4f565b803561ffff1981168114610f7657600080fd5b919050565b600060208284031215610f8d57600080fd5b610f9682610f63565b9392505050565b60005b83811015610fb8578181015183820152602001610fa0565b50506000910152565b60008151808452610fd9816020860160208601610f9d565b601f01601f19169290920160200192915050565b600081518084526020808501945080840160005b8381101561101d57815187529582019590820190600101611001565b509495945050505050565b6020815261103e60208201835161ffff19169052565b6000602083015161105b60408401826001600160601b0319169052565b506040830151610120806060850152611078610140850183610fc1565b91506060850151601f19808685030160808701526110968483610fc1565b9350608087015191506110b460a08701836001600160401b03169052565b60a08701519150808685030160c08701526110cf8483610fc1565b935060c08701519150808685030160e08701526110ec8483610fc1565b935060e0870151915061010081878603018188015261110b8584610fc1565b9088015187820390920184880152935090506111278382610fed565b9695505050505050565b634e487b7160e01b600052604160045260246000fd5b604051606081016001600160401b038111828210171561116957611169611131565b60405290565b604051601f8201601f191681016001600160401b038111828210171561119757611197611131565b604052919050565b600082601f8301126111b057600080fd5b81356001600160401b038111156111c9576111c9611131565b6111dc601f8201601f191660200161116f565b8181528460208386010111156111f157600080fd5b816020850160208301376000918101602001919091529392505050565b60008060008060008060c0878903121561122757600080fd5b86356001600160401b038082111561123e57600080fd5b61124a8a838b0161119f565b9750602089013591508082111561126057600080fd5b61126c8a838b0161119f565b965060408901359550606089013591508082111561128957600080fd5b6112958a838b0161119f565b945060808901359150808211156112ab57600080fd5b6112b78a838b0161119f565b935060a08901359150808211156112cd57600080fd5b506112da89828a0161119f565b9150509295509295509295565b6000602082840312156112f957600080fd5b5035919050565b600081518084526020808501945080840160005b8381101561101d57815161ffff191687529582019590820190600101611314565b60208152815160208201526001600160601b031960208301511660408201526000604083015160608084015261136e6080840182611300565b949350505050565b60006001600160401b0382111561138f5761138f611131565b5060051b60200190565b600080604083850312156113ac57600080fd5b82356001600160401b03808211156113c357600080fd5b6113cf8683870161119f565b93506020915081850135818111156113e657600080fd5b8501601f810187136113f757600080fd5b803561140a61140582611376565b61116f565b81815260059190911b8201840190848101908983111561142957600080fd5b8584015b838110156114ba578035868111156114455760008081fd5b85016060818d03601f190181131561145d5760008081fd5b611465611147565b898301358152604083013561ffff811681146114815760008081fd5b818b01529082013590888211156114985760008081fd5b6114a68e8b8486010161119f565b60408201528552505091860191860161142d565b508096505050505050509250929050565b6000602082840312156114dd57600080fd5b81356001600160401b038111156114f357600080fd5b61136e8482850161119f565b6020808252825182820181905260009190848201906040850190845b818110156115375783518352928401929184019160010161151b565b50909695505050505050565b6000806000806080858703121561155957600080fd5b84356001600160401b038082111561157057600080fd5b61157c8883890161119f565b9550602087013591508082111561159257600080fd5b61159e8883890161119f565b945060408701359150808211156115b457600080fd5b6115c08883890161119f565b935060608701359150808211156115d657600080fd5b506115e38782880161119f565b91505092959194509250565b80356001600160601b031981168114610f7657600080fd5b80356001600160401b0381168114610f7657600080fd5b600082601f83011261162f57600080fd5b8135602061163f61140583611376565b82815260059290921b8401810191818101908684111561165e57600080fd5b8286015b848110156116795780358352918301918301611662565b509695505050505050565b600080600080600080600080610100898b0312156116a157600080fd5b88356001600160401b03808211156116b857600080fd5b6116c48c838d0161119f565b99506116d260208c016115ef565b985060408b01359150808211156116e857600080fd5b6116f48c838d0161119f565b975061170260608c01611607565b965060808b013591508082111561171857600080fd5b6117248c838d0161119f565b955060a08b013591508082111561173a57600080fd5b6117468c838d0161119f565b945060c08b013591508082111561175c57600080fd5b6117688c838d0161119f565b935060e08b013591508082111561177e57600080fd5b5061178b8b828c0161161e565b9150509295985092959890939650565b602081526000610f966020830184611300565b6000806000606084860312156117c357600080fd5b83356001600160401b03808211156117da57600080fd5b6117e68783880161119f565b9450602091506117f78287016115ef565b935060408601358181111561180b57600080fd5b86019050601f8101871361181e57600080fd5b803561182c61140582611376565b81815260059190911b8201830190838101908983111561184b57600080fd5b928401925b828410156118705761186184610f63565b82529284019290840190611850565b80955050505050509250925092565b600181811c9082168061189357607f821691505b6020821081036118b357634e487b7160e01b600052602260045260246000fd5b50919050565b602081526000610f966020830184610fc1565b6000602082840312156118de57600080fd5b81518015158114610f9657600080fd5b6020808252601190820152705065726d697373616f206e65676164612160781b604082015260600190565b60c08152600061192c60c0830189610fc1565b828103602084015261193e8189610fc1565b905086604084015282810360608401526119588187610fc1565b9050828103608084015261196c8186610fc1565b905082810360a08401526119808185610fc1565b9998505050505050505050565b815160009082906020808601845b838110156119ea5781518051865261ffff848201511684870152604080820151915081516119ce81838a01888601610f9d565b601f01601f19169690960190950194509082019060010161199b565b50929695505050505050565b60008251611a08818460208701610f9d565b9190910192915050565b60008551611a24818460208a01610f9d565b855190830190611a38818360208a01610f9d565b8551910190611a4b818360208901610f9d565b8451910190611a5e818360208801610f9d565b019695505050505050565b6001600160601b03198316815260008251611a8b816014850160208701610f9d565b919091016014019392505050565b8051602082015161ffff19808216929190601e831015611ac357808184601e0360031b1b83161693505b505050919050565b601f821115611b1557600081815260208120601f850160051c81016020861015611af25750805b601f850160051c820191505b81811015611b1157828155600101611afe565b5050505b505050565b81516001600160401b03811115611b3357611b33611131565b611b4781611b41845461187f565b84611acb565b602080601f831160018114611b7c5760008415611b645750858301515b600019600386901b1c1916600185901b178555611b11565b600085815260208120601f198616915b82811015611bab57888601518255948401946001909101908401611b8c565b5085821015611bc95787850151600019600388901b60f8161c191681555b5050505050600190811b01905550565b815160009082906020808601845b838110156119ea57815161ffff191685529382019390820190600101611be7565b60008351611c1a818460208801610f9d565b6001600160a01b03199390931691909201908152600c0192915050565b805160208083015191908110156118b35760001960209190910360031b1b1691905056fea26469706673582212201150e47ecc31e6059445cb9139333815a80c83dcb8f323732eb4497f793ed9ac64736f6c63430008110033",
  "immutableReferences": {},
  "source": "// SPDX-License-Identifier: MIT\r\npragma solidity ^0.8.17;\r\n\r\nimport \"./Authentication.sol\";\r\nimport \"./UpdateTr.sol\";\r\n\r\nstruct Hive {\r\n    uint256 hiveId;\r\n    uint16 weightHoney;\r\n    string dateCollect;\r\n}\r\n\r\nstruct Tun {\r\n    bytes30 id;\r\n    bytes20 batch;\r\n    string productorId;\r\n    string apiary;\r\n    uint64 weight;\r\n    string packing;\r\n    string flowering;\r\n    string date;\r\n    uint256[] hivesId;\r\n}\r\n\r\nstruct Container {\r\n    bytes32 id;\r\n    bytes20 batch;\r\n    bytes30[] tunId;\r\n}\r\n\r\n// struct Honey {\r\n//     uint256 codigo;\r\n//     uint256 lote;\r\n//     string especializacao;\r\n//     uint64 peso;\r\n//     uint256 date;\r\n//     string localizacao;\r\n//     uint256 producaoId;\r\n// }\r\n\r\ncontract Production {\r\n    mapping(uint256 => Hive) hives;\r\n    mapping(bytes20 => uint256[]) hiveId;\r\n\r\n    mapping(bytes30 => Tun) tunList;\r\n    mapping(string => bytes30[]) tunListId;\r\n    mapping(string => bytes20[]) tunBatch;\r\n\r\n    mapping(bytes32 => Container) containerList;\r\n    mapping(string => bytes32[]) containerListId;\r\n\r\n    // mapping(address => mapping(uint256 => Honey)) product;\r\n    // uint256[] productCode;\r\n\r\n    address contractAuthentication;\r\n    Authentication instanceAuthentication;\r\n    address contractUpdateTr;\r\n    UpdateTr instanceUpdateTr;\r\n\r\n    constructor(address _contractAuthentication, address _contractUpdateTr) {\r\n        contractAuthentication = _contractAuthentication;\r\n        instanceAuthentication = Authentication(contractAuthentication);\r\n        contractUpdateTr = _contractUpdateTr;\r\n        instanceUpdateTr = UpdateTr(contractUpdateTr);\r\n    }\r\n\r\n    //Verifica se o endereo que esta chamando o contrato possui permisao para modificar o estado da rede\r\n    modifier onlyOWNER(string memory _id) {\r\n        require(\r\n            instanceAuthentication.activeUser(_id) == true,\r\n            \"Permissao negada!\"\r\n        );\r\n        _;\r\n    }\r\n\r\n    event UpdateHive(string indexed _id, Hive[] indexed hives);\r\n    event Collect(\r\n        address indexed addr,\r\n        uint256 hiveId,\r\n        uint256 dateCollect,\r\n        int256 peso\r\n    );\r\n\r\n    function updateHive(\r\n        string memory _id,\r\n        Hive[] memory _hives\r\n    ) public onlyOWNER(_id) {\r\n        emit UpdateHive(_id, _hives);\r\n    }\r\n\r\n    function generateBatch(\r\n        string memory _id,\r\n        string memory _apiary,\r\n        string memory _flowering,\r\n        string memory _date\r\n    ) public onlyOWNER(_id) returns (bytes20) {\r\n        bytes20 _batch = ripemd160(\r\n            abi.encodePacked(_id, _apiary, _flowering, _date)\r\n        );\r\n        tunBatch[_id].push(_batch);\r\n        return _batch;\r\n    }\r\n\r\n    function newTun(\r\n        string memory _userId,\r\n        bytes20 _batch,\r\n        string memory _apiary,\r\n        uint64 _weight,\r\n        string memory _packing,\r\n        string memory _flowering,\r\n        string memory _dateTime,\r\n        uint256[] memory _hivesId\r\n    ) public onlyOWNER(_userId) returns (bytes30) {\r\n        bytes30 _id = bytes30(abi.encodePacked(_batch, _dateTime));\r\n\r\n        tunList[_id] = Tun(\r\n            _id,\r\n            _batch,\r\n            _userId,\r\n            _apiary,\r\n            _weight,\r\n            _packing,\r\n            _flowering,\r\n            _dateTime,\r\n            _hivesId\r\n        );\r\n        tunListId[_userId].push(_id);\r\n        return tunList[_id].id;\r\n    }\r\n\r\n    function getTun(bytes30 _id) public view returns (Tun memory) {\r\n        return tunList[_id];\r\n    }\r\n\r\n    function getTunId(\r\n        string memory _id\r\n    ) public view returns (bytes30[] memory) {\r\n        return tunListId[_id];\r\n    }\r\n\r\n    function newContainer(\r\n        string memory _userId,\r\n        bytes20 _batch,\r\n        bytes30[] memory _tunId\r\n    ) public onlyOWNER(_userId) returns (bytes32) {\r\n        bytes12 _hash = bytes12(keccak256(abi.encodePacked(_tunId)));\r\n        bytes32 _id = bytes32(abi.encodePacked(_userId, _hash));\r\n        containerList[_id] = Container(_id, _batch, _tunId);\r\n        containerListId[_userId].push(_id);\r\n        return _id;\r\n    }\r\n\r\n    function getContainer(bytes32 _id) public view returns (Container memory) {\r\n        return containerList[_id];\r\n    }\r\n\r\n    function getContainersId(\r\n        string memory _id\r\n    ) public view returns (bytes32[] memory) {\r\n        return containerListId[_id];\r\n    }\r\n\r\n    //Funo para registrar a tranzao de um produto\r\n    function forwarding(\r\n        string memory _sender,\r\n        string memory _receiver,\r\n        bytes32 _unitId,\r\n        string memory _date,\r\n        string memory _businessUnitType,\r\n        bytes memory _signature\r\n    ) public onlyOWNER(_receiver) {\r\n        //chamar funcao updateTr no contrato UpdateTr\r\n        instanceUpdateTr.updateTr(\r\n            _sender,\r\n            _receiver,\r\n            _unitId,\r\n            _date,\r\n            _businessUnitType,\r\n            _signature\r\n        );\r\n    }\r\n}\r\n",
  "sourcePath": "C:\\Users\\samue\\Documents\\Workspace_react\\BlockForBees\\backend_blockcahin\\contracts\\Production.sol",
  "compiler": {
    "name": "solc",
    "version": "0.8.17+commit.8df45f5f.Emscripten.clang"
  },
  "schemaVersion": "3.4.11",
  "updatedAt": "2023-04-25T01:20:21.959Z",
  "networkType": "ethereum",
  "devdoc": {
    "kind": "dev",
    "methods": {},
    "version": 1
  },
  "userdoc": {
    "kind": "user",
    "methods": {},
    "version": 1
  }
}