{
  "contractName": "Production",
  "abi": [
    {
      "inputs": [
        {
          "internalType": "address",
          "name": "_contractAuthentication",
          "type": "address"
        },
        {
          "internalType": "address",
          "name": "_contractUpdateTr",
          "type": "address"
        }
      ],
      "stateMutability": "nonpayable",
      "type": "constructor"
    },
    {
      "anonymous": false,
      "inputs": [
        {
          "indexed": true,
          "internalType": "address",
          "name": "addr",
          "type": "address"
        },
        {
          "indexed": false,
          "internalType": "uint256",
          "name": "hiveId",
          "type": "uint256"
        },
        {
          "indexed": false,
          "internalType": "uint256",
          "name": "dateCollect",
          "type": "uint256"
        },
        {
          "indexed": false,
          "internalType": "int256",
          "name": "peso",
          "type": "int256"
        }
      ],
      "name": "Collect",
      "type": "event"
    },
    {
      "anonymous": false,
      "inputs": [
        {
          "indexed": false,
          "internalType": "string",
          "name": "batch",
          "type": "string"
        }
      ],
      "name": "NewBatch",
      "type": "event"
    },
    {
      "anonymous": false,
      "inputs": [
        {
          "indexed": false,
          "internalType": "string",
          "name": "user",
          "type": "string"
        },
        {
          "indexed": false,
          "internalType": "string",
          "name": "unit",
          "type": "string"
        }
      ],
      "name": "NewUnit",
      "type": "event"
    },
    {
      "anonymous": false,
      "inputs": [
        {
          "indexed": false,
          "internalType": "string",
          "name": "user",
          "type": "string"
        },
        {
          "indexed": false,
          "internalType": "string[]",
          "name": "unit",
          "type": "string[]"
        }
      ],
      "name": "NewUnits",
      "type": "event"
    },
    {
      "inputs": [
        {
          "internalType": "string",
          "name": "_userId",
          "type": "string"
        },
        {
          "components": [
            {
              "internalType": "string",
              "name": "hiveId",
              "type": "string"
            },
            {
              "internalType": "uint16",
              "name": "weightHoney",
              "type": "uint16"
            },
            {
              "internalType": "string",
              "name": "dateCollect",
              "type": "string"
            }
          ],
          "internalType": "struct Hive[]",
          "name": "_hives",
          "type": "tuple[]"
        }
      ],
      "name": "updateHives",
      "outputs": [],
      "stateMutability": "nonpayable",
      "type": "function"
    },
    {
      "inputs": [
        {
          "internalType": "string",
          "name": "_userId",
          "type": "string"
        },
        {
          "internalType": "string",
          "name": "_flowering",
          "type": "string"
        }
      ],
      "name": "generateBatch",
      "outputs": [],
      "stateMutability": "nonpayable",
      "type": "function"
    },
    {
      "inputs": [
        {
          "internalType": "string",
          "name": "_userId",
          "type": "string"
        },
        {
          "internalType": "string",
          "name": "_batch",
          "type": "string"
        },
        {
          "internalType": "string",
          "name": "_code",
          "type": "string"
        },
        {
          "internalType": "uint64",
          "name": "_weight",
          "type": "uint64"
        },
        {
          "internalType": "string",
          "name": "_packing",
          "type": "string"
        },
        {
          "internalType": "string",
          "name": "_flowering",
          "type": "string"
        },
        {
          "internalType": "string",
          "name": "_dateTime",
          "type": "string"
        },
        {
          "internalType": "string[]",
          "name": "_hivesId",
          "type": "string[]"
        }
      ],
      "name": "newDrum",
      "outputs": [],
      "stateMutability": "nonpayable",
      "type": "function"
    },
    {
      "inputs": [
        {
          "internalType": "string",
          "name": "_id",
          "type": "string"
        }
      ],
      "name": "getDrum",
      "outputs": [
        {
          "components": [
            {
              "internalType": "string",
              "name": "id",
              "type": "string"
            },
            {
              "internalType": "string",
              "name": "batch",
              "type": "string"
            },
            {
              "internalType": "string",
              "name": "code",
              "type": "string"
            },
            {
              "internalType": "string",
              "name": "productorId",
              "type": "string"
            },
            {
              "internalType": "uint64",
              "name": "weight",
              "type": "uint64"
            },
            {
              "internalType": "string",
              "name": "packing",
              "type": "string"
            },
            {
              "internalType": "string",
              "name": "flowering",
              "type": "string"
            },
            {
              "internalType": "string",
              "name": "date",
              "type": "string"
            },
            {
              "internalType": "string[]",
              "name": "hivesId",
              "type": "string[]"
            }
          ],
          "internalType": "struct Drum",
          "name": "",
          "type": "tuple"
        }
      ],
      "stateMutability": "view",
      "type": "function",
      "constant": true
    },
    {
      "inputs": [
        {
          "internalType": "string",
          "name": "_userId",
          "type": "string"
        }
      ],
      "name": "getDrumBatchs",
      "outputs": [
        {
          "internalType": "string[]",
          "name": "",
          "type": "string[]"
        }
      ],
      "stateMutability": "view",
      "type": "function",
      "constant": true
    },
    {
      "inputs": [
        {
          "internalType": "string",
          "name": "_batch",
          "type": "string"
        }
      ],
      "name": "listDrums",
      "outputs": [
        {
          "components": [
            {
              "internalType": "string",
              "name": "id",
              "type": "string"
            },
            {
              "internalType": "string",
              "name": "batch",
              "type": "string"
            },
            {
              "internalType": "string",
              "name": "code",
              "type": "string"
            },
            {
              "internalType": "string",
              "name": "productorId",
              "type": "string"
            },
            {
              "internalType": "uint64",
              "name": "weight",
              "type": "uint64"
            },
            {
              "internalType": "string",
              "name": "packing",
              "type": "string"
            },
            {
              "internalType": "string",
              "name": "flowering",
              "type": "string"
            },
            {
              "internalType": "string",
              "name": "date",
              "type": "string"
            },
            {
              "internalType": "string[]",
              "name": "hivesId",
              "type": "string[]"
            }
          ],
          "internalType": "struct Drum[]",
          "name": "",
          "type": "tuple[]"
        }
      ],
      "stateMutability": "view",
      "type": "function",
      "constant": true
    },
    {
      "inputs": [
        {
          "internalType": "string",
          "name": "_userId",
          "type": "string"
        },
        {
          "internalType": "string",
          "name": "_code",
          "type": "string"
        },
        {
          "internalType": "string[]",
          "name": "_drumId",
          "type": "string[]"
        }
      ],
      "name": "newPallet",
      "outputs": [],
      "stateMutability": "nonpayable",
      "type": "function"
    },
    {
      "inputs": [
        {
          "internalType": "string",
          "name": "_id",
          "type": "string"
        }
      ],
      "name": "getPallet",
      "outputs": [
        {
          "components": [
            {
              "internalType": "string",
              "name": "id",
              "type": "string"
            },
            {
              "internalType": "string",
              "name": "code",
              "type": "string"
            },
            {
              "internalType": "string[]",
              "name": "tunId",
              "type": "string[]"
            }
          ],
          "internalType": "struct Pallet",
          "name": "",
          "type": "tuple"
        }
      ],
      "stateMutability": "view",
      "type": "function",
      "constant": true
    },
    {
      "inputs": [
        {
          "internalType": "string",
          "name": "_userId",
          "type": "string"
        }
      ],
      "name": "getPalletsId",
      "outputs": [
        {
          "internalType": "string[]",
          "name": "",
          "type": "string[]"
        }
      ],
      "stateMutability": "view",
      "type": "function",
      "constant": true
    },
    {
      "inputs": [
        {
          "internalType": "string",
          "name": "_id",
          "type": "string"
        }
      ],
      "name": "getDispatched",
      "outputs": [
        {
          "components": [
            {
              "internalType": "string",
              "name": "receiver",
              "type": "string"
            },
            {
              "internalType": "string",
              "name": "unit",
              "type": "string"
            },
            {
              "internalType": "string",
              "name": "date",
              "type": "string"
            }
          ],
          "internalType": "struct Dispatched",
          "name": "",
          "type": "tuple"
        }
      ],
      "stateMutability": "view",
      "type": "function",
      "constant": true
    },
    {
      "inputs": [
        {
          "internalType": "string",
          "name": "_userId",
          "type": "string"
        }
      ],
      "name": "listDispatched",
      "outputs": [
        {
          "components": [
            {
              "internalType": "string",
              "name": "receiver",
              "type": "string"
            },
            {
              "internalType": "string",
              "name": "unit",
              "type": "string"
            },
            {
              "internalType": "string",
              "name": "date",
              "type": "string"
            }
          ],
          "internalType": "struct Dispatched[]",
          "name": "",
          "type": "tuple[]"
        }
      ],
      "stateMutability": "view",
      "type": "function",
      "constant": true
    },
    {
      "inputs": [
        {
          "internalType": "string",
          "name": "_sender",
          "type": "string"
        },
        {
          "internalType": "string",
          "name": "_receiver",
          "type": "string"
        },
        {
          "internalType": "string",
          "name": "_unit",
          "type": "string"
        },
        {
          "internalType": "string",
          "name": "_date",
          "type": "string"
        }
      ],
      "name": "dispatcher",
      "outputs": [
        {
          "internalType": "bool",
          "name": "",
          "type": "bool"
        }
      ],
      "stateMutability": "nonpayable",
      "type": "function"
    }
  ],
  "bytecode": "0x60806040523480156200001157600080fd5b5060405162003074380380620030748339810160408190526200003491620000a2565b600a80546001600160a01b039384166001600160a01b03199182168117909255600b80548216909217909155600c8054929093169181168217909255600d80549092161790556001600055620000da565b80516001600160a01b03811681146200009d57600080fd5b919050565b60008060408385031215620000b657600080fd5b620000c18362000085565b9150620000d16020840162000085565b90509250929050565b612f8a80620000ea6000396000f3fe608060405234801561001057600080fd5b50600436106100b35760003560e01c8063762f1ba011610071578063762f1ba0146101695780637bf835d81461017c57806395673a461461019c5780639861f66b146101af578063e89f9e4e146101d2578063f49d75c9146101f257600080fd5b8062b21db5146100b857806304406f5e146100cd578063203ddfac146100f6578063396b6fcf1461011657806350337fc01461013657806370e7140814610149575b600080fd5b6100cb6100c6366004612317565b610205565b005b6100e06100db36600461239e565b610413565b6040516100ed9190612574565b60405180910390f35b61010961010436600461239e565b610939565b6040516100ed919061258e565b61012961012436600461239e565b610b7b565b6040516100ed91906125ef565b6100cb610144366004612651565b610c72565b61015c61015736600461239e565b610e3a565b6040516100ed91906127e3565b6100cb610177366004612812565b611044565b61018f61018a36600461239e565b61130d565b6040516100ed919061293d565b6100cb6101aa366004612992565b6115fa565b6101c26101bd3660046129f5565b6116cd565b60405190151581526020016100ed565b6101e56101e036600461239e565b611822565b6040516100ed9190612aa1565b61012961020036600461239e565b611e25565b600b5460405163175757d560e01b815284916001600160a01b03169063175757d590610235908490600401612af6565b602060405180830381865afa158015610252573d6000803e3d6000fd5b505050506040513d601f19601f820116820180604052508101906102769190612b09565b15156001146102a05760405162461bcd60e51b815260040161029790612b2b565b60405180910390fd5b6000836102ae600054611f11565b6040516020016102bf929190612b56565b60405160208183030381529060405290506006816040516102e09190612b85565b90815260405190819003602001902080546102fa90612ba1565b15905061030657600080fd5b6040518060600160405280828152602001858152602001848152506006826040516103319190612b85565b9081526040519081900360200190208151819061034e9082612c2a565b50602082015160018201906103639082612c2a565b506040820151805161037f91600284019160209091019061206e565b509050506007856040516103939190612b85565b9081526040516020918190038201902080546001810182556000918252919020016103be8282612c2a565b506000805490806103ce83612cff565b91905055507f778115835cf9e592620c318dc1a43c4553b3ffecf647e518e2b9adace51845408582604051610404929190612d18565b60405180910390a15050505050565b61041b6120c4565b60038260405161042b9190612b85565b90815260200160405180910390206040518061012001604052908160008201805461045590612ba1565b80601f016020809104026020016040519081016040528092919081815260200182805461048190612ba1565b80156104ce5780601f106104a3576101008083540402835291602001916104ce565b820191906000526020600020905b8154815290600101906020018083116104b157829003601f168201915b505050505081526020016001820180546104e790612ba1565b80601f016020809104026020016040519081016040528092919081815260200182805461051390612ba1565b80156105605780601f1061053557610100808354040283529160200191610560565b820191906000526020600020905b81548152906001019060200180831161054357829003601f168201915b5050505050815260200160028201805461057990612ba1565b80601f01602080910402602001604051908101604052809291908181526020018280546105a590612ba1565b80156105f25780601f106105c7576101008083540402835291602001916105f2565b820191906000526020600020905b8154815290600101906020018083116105d557829003601f168201915b5050505050815260200160038201805461060b90612ba1565b80601f016020809104026020016040519081016040528092919081815260200182805461063790612ba1565b80156106845780601f1061065957610100808354040283529160200191610684565b820191906000526020600020905b81548152906001019060200180831161066757829003601f168201915b505050918352505060048201546001600160401b031660208201526005820180546040909201916106b490612ba1565b80601f01602080910402602001604051908101604052809291908181526020018280546106e090612ba1565b801561072d5780601f106107025761010080835404028352916020019161072d565b820191906000526020600020905b81548152906001019060200180831161071057829003601f168201915b5050505050815260200160068201805461074690612ba1565b80601f016020809104026020016040519081016040528092919081815260200182805461077290612ba1565b80156107bf5780601f10610794576101008083540402835291602001916107bf565b820191906000526020600020905b8154815290600101906020018083116107a257829003601f168201915b505050505081526020016007820180546107d890612ba1565b80601f016020809104026020016040519081016040528092919081815260200182805461080490612ba1565b80156108515780601f1061082657610100808354040283529160200191610851565b820191906000526020600020905b81548152906001019060200180831161083457829003601f168201915b5050505050815260200160088201805480602002602001604051908101604052809291908181526020016000905b8282101561092b57838290600052602060002001805461089e90612ba1565b80601f01602080910402602001604051908101604052809291908181526020018280546108ca90612ba1565b80156109175780601f106108ec57610100808354040283529160200191610917565b820191906000526020600020905b8154815290600101906020018083116108fa57829003601f168201915b50505050508152602001906001019061087f565b505050915250909392505050565b61095d60405180606001604052806060815260200160608152602001606081525090565b60068260405161096d9190612b85565b908152602001604051809103902060405180606001604052908160008201805461099690612ba1565b80601f01602080910402602001604051908101604052809291908181526020018280546109c290612ba1565b8015610a0f5780601f106109e457610100808354040283529160200191610a0f565b820191906000526020600020905b8154815290600101906020018083116109f257829003601f168201915b50505050508152602001600182018054610a2890612ba1565b80601f0160208091040260200160405190810160405280929190818152602001828054610a5490612ba1565b8015610aa15780601f10610a7657610100808354040283529160200191610aa1565b820191906000526020600020905b815481529060010190602001808311610a8457829003601f168201915b5050505050815260200160028201805480602002602001604051908101604052809291908181526020016000905b8282101561092b578382906000526020600020018054610aee90612ba1565b80601f0160208091040260200160405190810160405280929190818152602001828054610b1a90612ba1565b8015610b675780601f10610b3c57610100808354040283529160200191610b67565b820191906000526020600020905b815481529060010190602001808311610b4a57829003601f168201915b505050505081526020019060010190610acf565b6060600582604051610b8d9190612b85565b9081526020016040518091039020805480602002602001604051908101604052809291908181526020016000905b82821015610c67578382906000526020600020018054610bda90612ba1565b80601f0160208091040260200160405190810160405280929190818152602001828054610c0690612ba1565b8015610c535780601f10610c2857610100808354040283529160200191610c53565b820191906000526020600020905b815481529060010190602001808311610c3657829003601f168201915b505050505081526020019060010190610bbb565b505050509050919050565b600b5460405163175757d560e01b815283916001600160a01b03169063175757d590610ca2908490600401612af6565b602060405180830381865afa158015610cbf573d6000803e3d6000fd5b505050506040513d601f19601f82011682018060405250810190610ce39190612b09565b1515600114610d045760405162461bcd60e51b815260040161029790612b2b565b60005b8251811015610e34576040518060600160405280848381518110610d2d57610d2d612d3d565b6020026020010151600001518152602001848381518110610d5057610d50612d3d565b60200260200101516020015161ffff168152602001848381518110610d7757610d77612d3d565b602002602001015160400151815250600185604051610d969190612b85565b9081526020016040518091039020848381518110610db657610db6612d3d565b602002602001015160000151604051610dcf9190612b85565b90815260405190819003602001902081518190610dec9082612c2a565b50602082015160018201805461ffff191661ffff90921691909117905560408201516002820190610e1d9082612c2a565b509050508080610e2c90612cff565b915050610d07565b50505050565b610e5e60405180606001604052806060815260200160608152602001606081525090565b600882604051610e6e9190612b85565b9081526020016040518091039020604051806060016040529081600082018054610e9790612ba1565b80601f0160208091040260200160405190810160405280929190818152602001828054610ec390612ba1565b8015610f105780601f10610ee557610100808354040283529160200191610f10565b820191906000526020600020905b815481529060010190602001808311610ef357829003601f168201915b50505050508152602001600182018054610f2990612ba1565b80601f0160208091040260200160405190810160405280929190818152602001828054610f5590612ba1565b8015610fa25780601f10610f7757610100808354040283529160200191610fa2565b820191906000526020600020905b815481529060010190602001808311610f8557829003601f168201915b50505050508152602001600282018054610fbb90612ba1565b80601f0160208091040260200160405190810160405280929190818152602001828054610fe790612ba1565b80156110345780601f1061100957610100808354040283529160200191611034565b820191906000526020600020905b81548152906001019060200180831161101757829003601f168201915b5050505050815250509050919050565b600b5460405163175757d560e01b815289916001600160a01b03169063175757d590611074908490600401612af6565b602060405180830381865afa158015611091573d6000803e3d6000fd5b505050506040513d601f19601f820116820180604052508101906110b59190612b09565b15156001146110d65760405162461bcd60e51b815260040161029790612b2b565b6000886110e4600054611f11565b6040516020016110f5929190612b56565b60405160208183030381529060405290506003816040516111169190612b85565b908152604051908190036020019020805461113090612ba1565b15905061113c57600080fd5b6040518061012001604052808281526020018a81526020018981526020018b8152602001886001600160401b03168152602001878152602001868152602001858152602001848152506003826040516111959190612b85565b908152604051908190036020019020815181906111b29082612c2a565b50602082015160018201906111c79082612c2a565b50604082015160028201906111dc9082612c2a565b50606082015160038201906111f19082612c2a565b50608082015160048201805467ffffffffffffffff19166001600160401b0390921691909117905560a0820151600582019061122d9082612c2a565b5060c082015160068201906112429082612c2a565b5060e082015160078201906112579082612c2a565b50610100820151805161127491600884019160209091019061206e565b509050506004896040516112889190612b85565b9081526040516020918190038201902080546001810182556000918252919020016112b38282612c2a565b506000805490806112c383612cff565b91905055507f778115835cf9e592620c318dc1a43c4553b3ffecf647e518e2b9adace51845408a826040516112f9929190612d18565b60405180910390a150505050505050505050565b606060006009836040516113219190612b85565b908152604051908190036020019020546001600160401b0381111561134857611348612188565b60405190808252806020026020018201604052801561139d57816020015b61138a60405180606001604052806060815260200160608152602001606081525090565b8152602001906001900390816113665790505b50905060005b81518110156115f35760086009856040516113be9190612b85565b908152602001604051809103902082815481106113dd576113dd612d3d565b906000526020600020016040516113f49190612d53565b908152602001604051809103902060405180606001604052908160008201805461141d90612ba1565b80601f016020809104026020016040519081016040528092919081815260200182805461144990612ba1565b80156114965780601f1061146b57610100808354040283529160200191611496565b820191906000526020600020905b81548152906001019060200180831161147957829003601f168201915b505050505081526020016001820180546114af90612ba1565b80601f01602080910402602001604051908101604052809291908181526020018280546114db90612ba1565b80156115285780601f106114fd57610100808354040283529160200191611528565b820191906000526020600020905b81548152906001019060200180831161150b57829003601f168201915b5050505050815260200160028201805461154190612ba1565b80601f016020809104026020016040519081016040528092919081815260200182805461156d90612ba1565b80156115ba5780601f1061158f576101008083540402835291602001916115ba565b820191906000526020600020905b81548152906001019060200180831161159d57829003601f168201915b5050505050815250508282815181106115d5576115d5612d3d565b602002602001018190525080806115eb90612cff565b9150506113a3565b5092915050565b6008600061160982600a612eaf565b9050600084844260405160200161162293929190612ebb565b60408051601f1981840301815291905280516020909101209050600061165061164b8484612f06565b611f11565b90506005866040516116629190612b85565b90815260405160209181900382019020805460018101825560009182529190200161168d8282612c2a565b507ff83fcb896ea7199c4d58a8a4ab92545a6dcb43b6d1026c5e8213b8f905b102d1816040516116bd9190612af6565b60405180910390a1505050505050565b600b5460405163175757d560e01b815260009186916001600160a01b039091169063175757d590611702908490600401612af6565b602060405180830381865afa15801561171f573d6000803e3d6000fd5b505050506040513d601f19601f820116820180604052508101906117439190612b09565b15156001146117645760405162461bcd60e51b815260040161029790612b2b565b60405180606001604052808681526020018581526020018481525060088560405161178f9190612b85565b908152604051908190036020019020815181906117ac9082612c2a565b50602082015160018201906117c19082612c2a565b50604082015160028201906117d69082612c2a565b509050506009866040516117ea9190612b85565b9081526040516020918190038201902080546001810182556000918252919020016118158582612c2a565b5060019695505050505050565b606060006004836040516118369190612b85565b908152604051908190036020019020546001600160401b0381111561185d5761185d612188565b60405190808252806020026020018201604052801561189657816020015b6118836120c4565b81526020019060019003908161187b5790505b50905060005b81518110156115f35760036004856040516118b79190612b85565b908152602001604051809103902082815481106118d6576118d6612d3d565b906000526020600020016040516118ed9190612d53565b90815260200160405180910390206040518061012001604052908160008201805461191790612ba1565b80601f016020809104026020016040519081016040528092919081815260200182805461194390612ba1565b80156119905780601f1061196557610100808354040283529160200191611990565b820191906000526020600020905b81548152906001019060200180831161197357829003601f168201915b505050505081526020016001820180546119a990612ba1565b80601f01602080910402602001604051908101604052809291908181526020018280546119d590612ba1565b8015611a225780601f106119f757610100808354040283529160200191611a22565b820191906000526020600020905b815481529060010190602001808311611a0557829003601f168201915b50505050508152602001600282018054611a3b90612ba1565b80601f0160208091040260200160405190810160405280929190818152602001828054611a6790612ba1565b8015611ab45780601f10611a8957610100808354040283529160200191611ab4565b820191906000526020600020905b815481529060010190602001808311611a9757829003601f168201915b50505050508152602001600382018054611acd90612ba1565b80601f0160208091040260200160405190810160405280929190818152602001828054611af990612ba1565b8015611b465780601f10611b1b57610100808354040283529160200191611b46565b820191906000526020600020905b815481529060010190602001808311611b2957829003601f168201915b505050918352505060048201546001600160401b03166020820152600582018054604090920191611b7690612ba1565b80601f0160208091040260200160405190810160405280929190818152602001828054611ba290612ba1565b8015611bef5780601f10611bc457610100808354040283529160200191611bef565b820191906000526020600020905b815481529060010190602001808311611bd257829003601f168201915b50505050508152602001600682018054611c0890612ba1565b80601f0160208091040260200160405190810160405280929190818152602001828054611c3490612ba1565b8015611c815780601f10611c5657610100808354040283529160200191611c81565b820191906000526020600020905b815481529060010190602001808311611c6457829003601f168201915b50505050508152602001600782018054611c9a90612ba1565b80601f0160208091040260200160405190810160405280929190818152602001828054611cc690612ba1565b8015611d135780601f10611ce857610100808354040283529160200191611d13565b820191906000526020600020905b815481529060010190602001808311611cf657829003601f168201915b5050505050815260200160088201805480602002602001604051908101604052809291908181526020016000905b82821015611ded578382906000526020600020018054611d6090612ba1565b80601f0160208091040260200160405190810160405280929190818152602001828054611d8c90612ba1565b8015611dd95780601f10611dae57610100808354040283529160200191611dd9565b820191906000526020600020905b815481529060010190602001808311611dbc57829003601f168201915b505050505081526020019060010190611d41565b5050505081525050828281518110611e0757611e07612d3d565b60200260200101819052508080611e1d90612cff565b91505061189c565b6060600782604051611e379190612b85565b9081526020016040518091039020805480602002602001604051908101604052809291908181526020016000905b82821015610c67578382906000526020600020018054611e8490612ba1565b80601f0160208091040260200160405190810160405280929190818152602001828054611eb090612ba1565b8015611efd5780601f10611ed257610100808354040283529160200191611efd565b820191906000526020600020905b815481529060010190602001808311611ee057829003601f168201915b505050505081526020019060010190611e65565b60408051606480825260a08201909252606091906000908260208201818036833701905050905060005b8415611fa5576000611f4e600a87612f06565b9050611f5b600a87612f1a565b9550611f68816030612f2e565b60f81b8383611f7681612cff565b945081518110611f8857611f88612d3d565b60200101906001600160f81b031916908160001a90535050611f3b565b6000816001600160401b03811115611fbf57611fbf612188565b6040519080825280601f01601f191660200182016040528015611fe9576020820181803683370190505b50905060005b82811015612064578381612004600186612f41565b61200e9190612f41565b8151811061201e5761201e612d3d565b602001015160f81c60f81b82828151811061203b5761203b612d3d565b60200101906001600160f81b031916908160001a9053508061205c81612cff565b915050611fef565b5095945050505050565b8280548282559060005260206000209081019282156120b4579160200282015b828111156120b457825182906120a49082612c2a565b509160200191906001019061208e565b506120c0929150612119565b5090565b6040518061012001604052806060815260200160608152602001606081526020016060815260200160006001600160401b03168152602001606081526020016060815260200160608152602001606081525090565b808211156120c057600061212d8282612136565b50600101612119565b50805461214290612ba1565b6000825580601f10612152575050565b601f0160209004906000526020600020908101906121709190612173565b50565b5b808211156120c05760008155600101612174565b634e487b7160e01b600052604160045260246000fd5b604051606081016001600160401b03811182821017156121c0576121c0612188565b60405290565b604051601f8201601f191681016001600160401b03811182821017156121ee576121ee612188565b604052919050565b600082601f83011261220757600080fd5b81356001600160401b0381111561222057612220612188565b612233601f8201601f19166020016121c6565b81815284602083860101111561224857600080fd5b816020850160208301376000918101602001919091529392505050565b60006001600160401b0382111561227e5761227e612188565b5060051b60200190565b600082601f83011261229957600080fd5b813560206122ae6122a983612265565b6121c6565b82815260059290921b840181019181810190868411156122cd57600080fd5b8286015b8481101561230c5780356001600160401b038111156122f05760008081fd5b6122fe8986838b01016121f6565b8452509183019183016122d1565b509695505050505050565b60008060006060848603121561232c57600080fd5b83356001600160401b038082111561234357600080fd5b61234f878388016121f6565b9450602086013591508082111561236557600080fd5b612371878388016121f6565b9350604086013591508082111561238757600080fd5b5061239486828701612288565b9150509250925092565b6000602082840312156123b057600080fd5b81356001600160401b038111156123c657600080fd5b6123d2848285016121f6565b949350505050565b60005b838110156123f55781810151838201526020016123dd565b50506000910152565b600081518084526124168160208601602086016123da565b601f01601f19169290920160200192915050565b600082825180855260208086019550808260051b84010181860160005b8481101561247557601f198684030189526124638383516123fe565b98840198925090830190600101612447565b5090979650505050505050565b60006101208251818552612498828601826123fe565b915050602083015184820360208601526124b282826123fe565b915050604083015184820360408601526124cc82826123fe565b915050606083015184820360608601526124e682826123fe565b915050608083015161250360808601826001600160401b03169052565b5060a083015184820360a086015261251b82826123fe565b91505060c083015184820360c086015261253582826123fe565b91505060e083015184820360e086015261254f82826123fe565b915050610100808401518583038287015261256a838261242a565b9695505050505050565b6020815260006125876020830184612482565b9392505050565b6020815260008251606060208401526125aa60808401826123fe565b90506020840151601f19808584030160408601526125c883836123fe565b92506040860151915080858403016060860152506125e6828261242a565b95945050505050565b6000602080830181845280855180835260408601915060408160051b870101925083870160005b8281101561264457603f198886030184526126328583516123fe565b94509285019290850190600101612616565b5092979650505050505050565b6000806040838503121561266457600080fd5b82356001600160401b038082111561267b57600080fd5b612687868387016121f6565b935060209150818501358181111561269e57600080fd5b8501601f810187136126af57600080fd5b80356126bd6122a982612265565b81815260059190911b820184019084810190898311156126dc57600080fd5b8584015b8381101561278a578035868111156126f85760008081fd5b85016060818d03601f19018113156127105760008081fd5b61271861219e565b898301358981111561272a5760008081fd5b6127388f8c838701016121f6565b825250604083013561ffff811681146127515760008081fd5b818b01529082013590888211156127685760008081fd5b6127768e8b848601016121f6565b6040820152855250509186019186016126e0565b508096505050505050509250929050565b60008151606084526127b060608501826123fe565b9050602083015184820360208601526127c982826123fe565b915050604083015184820360408601526125e682826123fe565b602081526000612587602083018461279b565b80356001600160401b038116811461280d57600080fd5b919050565b600080600080600080600080610100898b03121561282f57600080fd5b88356001600160401b038082111561284657600080fd5b6128528c838d016121f6565b995060208b013591508082111561286857600080fd5b6128748c838d016121f6565b985060408b013591508082111561288a57600080fd5b6128968c838d016121f6565b97506128a460608c016127f6565b965060808b01359150808211156128ba57600080fd5b6128c68c838d016121f6565b955060a08b01359150808211156128dc57600080fd5b6128e88c838d016121f6565b945060c08b01359150808211156128fe57600080fd5b61290a8c838d016121f6565b935060e08b013591508082111561292057600080fd5b5061292d8b828c01612288565b9150509295985092959890939650565b6000602080830181845280855180835260408601915060408160051b870101925083870160005b8281101561264457603f1988860301845261298085835161279b565b94509285019290850190600101612964565b600080604083850312156129a557600080fd5b82356001600160401b03808211156129bc57600080fd5b6129c8868387016121f6565b935060208501359150808211156129de57600080fd5b506129eb858286016121f6565b9150509250929050565b60008060008060808587031215612a0b57600080fd5b84356001600160401b0380821115612a2257600080fd5b612a2e888389016121f6565b95506020870135915080821115612a4457600080fd5b612a50888389016121f6565b94506040870135915080821115612a6657600080fd5b612a72888389016121f6565b93506060870135915080821115612a8857600080fd5b50612a95878288016121f6565b91505092959194509250565b6000602080830181845280855180835260408601915060408160051b870101925083870160005b8281101561264457603f19888603018452612ae4858351612482565b94509285019290850190600101612ac8565b60208152600061258760208301846123fe565b600060208284031215612b1b57600080fd5b8151801515811461258757600080fd5b6020808252601190820152705065726d697373616f206e65676164612160781b604082015260600190565b60008351612b688184602088016123da565b835190830190612b7c8183602088016123da565b01949350505050565b60008251612b978184602087016123da565b9190910192915050565b600181811c90821680612bb557607f821691505b602082108103612bd557634e487b7160e01b600052602260045260246000fd5b50919050565b601f821115612c2557600081815260208120601f850160051c81016020861015612c025750805b601f850160051c820191505b81811015612c2157828155600101612c0e565b5050505b505050565b81516001600160401b03811115612c4357612c43612188565b612c5781612c518454612ba1565b84612bdb565b602080601f831160018114612c8c5760008415612c745750858301515b600019600386901b1c1916600185901b178555612c21565b600085815260208120601f198616915b82811015612cbb57888601518255948401946001909101908401612c9c565b5085821015612cd95787850151600019600388901b60f8161c191681555b5050505050600190811b01905550565b634e487b7160e01b600052601160045260246000fd5b600060018201612d1157612d11612ce9565b5060010190565b604081526000612d2b60408301856123fe565b82810360208401526125e681856123fe565b634e487b7160e01b600052603260045260246000fd5b6000808354612d6181612ba1565b60018281168015612d795760018114612d8e57612dbd565b60ff1984168752821515830287019450612dbd565b8760005260208060002060005b85811015612db45781548a820152908401908201612d9b565b50505082870194505b50929695505050505050565b600181815b80851115612e04578160001904821115612dea57612dea612ce9565b80851615612df757918102915b93841c9390800290612dce565b509250929050565b600082612e1b57506001612ea9565b81612e2857506000612ea9565b8160018114612e3e5760028114612e4857612e64565b6001915050612ea9565b60ff841115612e5957612e59612ce9565b50506001821b612ea9565b5060208310610133831016604e8410600b8410161715612e87575081810a612ea9565b612e918383612dc9565b8060001904821115612ea557612ea5612ce9565b0290505b92915050565b60006125878383612e0c565b60008451612ecd8184602089016123da565b845190830190612ee18183602089016123da565b01928352505060200192915050565b634e487b7160e01b600052601260045260246000fd5b600082612f1557612f15612ef0565b500690565b600082612f2957612f29612ef0565b500490565b80820180821115612ea957612ea9612ce9565b81810381811115612ea957612ea9612ce956fea2646970667358221220344ae70329fc565ff0379bd73f7b52d2aab2d5e873ce99b602a1053f34f9f6f364736f6c63430008110033",
  "immutableReferences": {},
  "source": "// SPDX-License-Identifier: MIT\r\npragma solidity ^0.8.17;\r\n\r\nimport \"./Authentication.sol\";\r\nimport \"./UpdateTr.sol\";\r\n\r\nstruct Hive {\r\n    string hiveId;\r\n    uint16 weightHoney;\r\n    string dateCollect;\r\n}\r\n\r\nstruct Drum {\r\n    string id;\r\n    string batch;\r\n    string code;\r\n    string productorId;\r\n    uint64 weight;\r\n    string packing;\r\n    string flowering;\r\n    string date;\r\n    string[] hivesId;\r\n}\r\n\r\nstruct Pallet {\r\n    string id;\r\n    string code;\r\n    string[] tunId;\r\n}\r\n\r\nstruct Dispatched {\r\n    string receiver;\r\n    string unit;\r\n    string date;\r\n}\r\n\r\ncontract Production {\r\n    uint serialNumber;\r\n\r\n    mapping(string => mapping(string => Hive)) producerHives; // id producer => id hive => Hive\r\n    mapping(string => string[]) hiveId;\r\n\r\n    mapping(string => Drum) drums; // drum id => Drum\r\n    mapping(string => string[]) drumsId; // batch id => drum id[]\r\n    mapping(string => string[]) drumsBatch; // user id => batch id\r\n\r\n    mapping(string => Pallet) pallets;\r\n    mapping(string => string[]) palletsId;\r\n\r\n    mapping(string => Dispatched) dispatcheds; // item id => Dispatche\r\n    mapping(string => string[]) dispatchedsId; // user id => item id[]\r\n\r\n    event NewUnit(string user, string unit);\r\n    event NewUnits(string user, string[] unit);\r\n\r\n    address contractAuthentication;\r\n    Authentication instanceAuthentication;\r\n    address contractUpdateTr;\r\n    UpdateTr instanceUpdateTr;\r\n\r\n    constructor(address _contractAuthentication, address _contractUpdateTr) {\r\n        contractAuthentication = _contractAuthentication;\r\n        instanceAuthentication = Authentication(contractAuthentication);\r\n        contractUpdateTr = _contractUpdateTr;\r\n        instanceUpdateTr = UpdateTr(contractUpdateTr);\r\n        serialNumber = 1;\r\n    }\r\n\r\n    //Verifica se o endereo que esta chamando o contrato possui permisao para modificar o estado da rede\r\n    modifier onlyOWNER(string memory _id) {\r\n        require(\r\n            instanceAuthentication.activeUser(_id) == true,\r\n            \"Permissao negada!\"\r\n        );\r\n        _;\r\n    }\r\n\r\n    event Collect(\r\n        address indexed addr,\r\n        uint256 hiveId,\r\n        uint256 dateCollect,\r\n        int256 peso\r\n    );\r\n\r\n    function updateHives(\r\n        string memory _userId,\r\n        Hive[] memory _hives\r\n    ) public onlyOWNER(_userId) {\r\n        for (uint256 i = 0; i < _hives.length; i++) {\r\n            producerHives[_userId][_hives[i].hiveId] = Hive(\r\n                _hives[i].hiveId,\r\n                _hives[i].weightHoney,\r\n                _hives[i].dateCollect\r\n            );\r\n        }\r\n    }\r\n\r\n    event NewBatch(string batch);\r\n\r\n    function generateBatch(\r\n        string memory _userId,\r\n        string memory _flowering\r\n    ) public {\r\n        uint hashDigits = 8;\r\n        uint hashModulus = 10 ** hashDigits;\r\n        uint _hash = uint(\r\n            keccak256(abi.encodePacked(_userId, _flowering, block.timestamp))\r\n        );\r\n        string memory _batch = uintToString(_hash % hashModulus);\r\n        drumsBatch[_userId].push(_batch);\r\n        emit NewBatch(_batch);\r\n    }\r\n\r\n    function newDrum(\r\n        string memory _userId,\r\n        string memory _batch,\r\n        string memory _code,\r\n        uint64 _weight,\r\n        string memory _packing,\r\n        string memory _flowering,\r\n        string memory _dateTime,\r\n        string[] memory _hivesId\r\n    ) public onlyOWNER(_userId) {\r\n        string memory _id = string(\r\n            abi.encodePacked(_batch, uintToString(serialNumber))\r\n        );\r\n        require(bytes(drums[_id].id).length == 0);\r\n\r\n        drums[_id] = Drum(\r\n            _id,\r\n            _batch,\r\n            _code,\r\n            _userId,\r\n            _weight,\r\n            _packing,\r\n            _flowering,\r\n            _dateTime,\r\n            _hivesId\r\n        );\r\n        drumsId[_batch].push(_id);\r\n        serialNumber++;\r\n        emit NewUnit(_userId, _id);\r\n    }\r\n\r\n    function getDrum(string memory _id) public view returns (Drum memory) {\r\n        return drums[_id];\r\n    }\r\n\r\n    function getDrumBatchs(\r\n        string memory _userId\r\n    ) public view returns (string[] memory) {\r\n        return drumsBatch[_userId];\r\n    }\r\n\r\n    function listDrums(\r\n        string memory _batch\r\n    ) public view returns (Drum[] memory) {\r\n        Drum[] memory drum = new Drum[](drumsId[_batch].length);\r\n        for (uint256 i = 0; i < drum.length; i++) {\r\n            drum[i] = drums[drumsId[_batch][i]];\r\n        }\r\n        return drum;\r\n    }\r\n\r\n    function newPallet(\r\n        string memory _userId,\r\n        string memory _code,\r\n        string[] memory _drumId\r\n    ) public onlyOWNER(_userId) {\r\n        string memory _id = string(\r\n            abi.encodePacked(_code, uintToString(serialNumber))\r\n        );\r\n        require(bytes(pallets[_id].id).length == 0);\r\n        pallets[_id] = Pallet(_id, _code, _drumId);\r\n        palletsId[_userId].push(_id);\r\n        serialNumber++;\r\n        emit NewUnit(_userId, _id);\r\n    }\r\n\r\n    function getPallet(string memory _id) public view returns (Pallet memory) {\r\n        return pallets[_id];\r\n    }\r\n\r\n    function getPalletsId(\r\n        string memory _userId\r\n    ) public view returns (string[] memory) {\r\n        return palletsId[_userId];\r\n    }\r\n\r\n    function getDispatched(\r\n        string memory _id\r\n    ) public view returns (Dispatched memory) {\r\n        return dispatcheds[_id];\r\n    }\r\n\r\n    function listDispatched(\r\n        string memory _userId\r\n    ) public view returns (Dispatched[] memory) {\r\n        Dispatched[] memory dispatched = new Dispatched[](\r\n            dispatchedsId[_userId].length\r\n        );\r\n        for (uint256 i = 0; i < dispatched.length; i++) {\r\n            dispatched[i] = dispatcheds[dispatchedsId[_userId][i]];\r\n        }\r\n        return dispatched;\r\n    }\r\n\r\n    function dispatcher(\r\n        string memory _sender,\r\n        string memory _receiver,\r\n        string memory _unit,\r\n        string memory _date\r\n    ) public onlyOWNER(_sender) returns (bool) {\r\n        dispatcheds[_unit] = Dispatched(_receiver, _unit, _date);\r\n        dispatchedsId[_sender].push(_unit);\r\n\r\n        return true;\r\n    }\r\n\r\n    function uintToString(uint v) internal pure returns (string memory str) {\r\n        uint maxlength = 100;\r\n        bytes memory reversed = new bytes(maxlength);\r\n        uint i = 0;\r\n        while (v != 0) {\r\n            uint remainder = v % 10;\r\n            v = v / 10;\r\n            reversed[i++] = bytes1(uint8(48 + remainder));\r\n        }\r\n        bytes memory s = new bytes(i);\r\n        for (uint j = 0; j < i; j++) {\r\n            s[j] = reversed[i - 1 - j];\r\n        }\r\n        return str = string(s);\r\n    }\r\n}\r\n",
  "sourcePath": "C:\\Users\\samue\\Documents\\Workspace_react\\BlockForBees\\backend_blockcahin\\contracts\\Production.sol",
  "compiler": {
    "name": "solc",
    "version": "0.8.17+commit.8df45f5f.Emscripten.clang"
  },
  "schemaVersion": "3.4.11",
  "updatedAt": "2023-06-23T06:21:36.802Z",
  "networkType": "ethereum",
  "devdoc": {
    "kind": "dev",
    "methods": {},
    "version": 1
  },
  "userdoc": {
    "kind": "user",
    "methods": {},
    "version": 1
  }
}