{
  "contractName": "Production",
  "abi": [
    {
      "inputs": [
        {
          "internalType": "address",
          "name": "_contractAuthentication",
          "type": "address"
        },
        {
          "internalType": "address",
          "name": "_contractUpdateTr",
          "type": "address"
        }
      ],
      "stateMutability": "nonpayable",
      "type": "constructor"
    },
    {
      "anonymous": false,
      "inputs": [
        {
          "indexed": true,
          "internalType": "address",
          "name": "addr",
          "type": "address"
        },
        {
          "indexed": false,
          "internalType": "uint256",
          "name": "hiveId",
          "type": "uint256"
        },
        {
          "indexed": false,
          "internalType": "uint256",
          "name": "dateCollect",
          "type": "uint256"
        },
        {
          "indexed": false,
          "internalType": "int256",
          "name": "peso",
          "type": "int256"
        }
      ],
      "name": "Collect",
      "type": "event"
    },
    {
      "anonymous": false,
      "inputs": [
        {
          "indexed": true,
          "internalType": "string",
          "name": "_id",
          "type": "string"
        },
        {
          "components": [
            {
              "internalType": "string",
              "name": "hiveId",
              "type": "string"
            },
            {
              "internalType": "uint16",
              "name": "weightHoney",
              "type": "uint16"
            },
            {
              "internalType": "string",
              "name": "dateCollect",
              "type": "string"
            }
          ],
          "indexed": true,
          "internalType": "struct Hive[]",
          "name": "hives",
          "type": "tuple[]"
        }
      ],
      "name": "UpdateHive",
      "type": "event"
    },
    {
      "inputs": [
        {
          "internalType": "string",
          "name": "_id",
          "type": "string"
        },
        {
          "components": [
            {
              "internalType": "string",
              "name": "hiveId",
              "type": "string"
            },
            {
              "internalType": "uint16",
              "name": "weightHoney",
              "type": "uint16"
            },
            {
              "internalType": "string",
              "name": "dateCollect",
              "type": "string"
            }
          ],
          "internalType": "struct Hive[]",
          "name": "_hives",
          "type": "tuple[]"
        }
      ],
      "name": "updateHive",
      "outputs": [],
      "stateMutability": "nonpayable",
      "type": "function"
    },
    {
      "inputs": [
        {
          "internalType": "string",
          "name": "_userId",
          "type": "string"
        },
        {
          "internalType": "string",
          "name": "_flowering",
          "type": "string"
        },
        {
          "internalType": "string",
          "name": "_date",
          "type": "string"
        }
      ],
      "name": "generateBatch",
      "outputs": [
        {
          "internalType": "string",
          "name": "",
          "type": "string"
        }
      ],
      "stateMutability": "nonpayable",
      "type": "function"
    },
    {
      "inputs": [
        {
          "internalType": "string",
          "name": "_userId",
          "type": "string"
        },
        {
          "internalType": "string",
          "name": "_batch",
          "type": "string"
        },
        {
          "internalType": "string",
          "name": "_apiary",
          "type": "string"
        },
        {
          "internalType": "uint64",
          "name": "_weight",
          "type": "uint64"
        },
        {
          "internalType": "string",
          "name": "_packing",
          "type": "string"
        },
        {
          "internalType": "string",
          "name": "_flowering",
          "type": "string"
        },
        {
          "internalType": "string",
          "name": "_dateTime",
          "type": "string"
        },
        {
          "internalType": "string[]",
          "name": "_hivesId",
          "type": "string[]"
        }
      ],
      "name": "newTun",
      "outputs": [
        {
          "internalType": "string",
          "name": "",
          "type": "string"
        }
      ],
      "stateMutability": "nonpayable",
      "type": "function"
    },
    {
      "inputs": [
        {
          "internalType": "string",
          "name": "_id",
          "type": "string"
        }
      ],
      "name": "getDrum",
      "outputs": [
        {
          "components": [
            {
              "internalType": "string",
              "name": "id",
              "type": "string"
            },
            {
              "internalType": "string",
              "name": "batch",
              "type": "string"
            },
            {
              "internalType": "string",
              "name": "productorId",
              "type": "string"
            },
            {
              "internalType": "string",
              "name": "apiary",
              "type": "string"
            },
            {
              "internalType": "uint64",
              "name": "weight",
              "type": "uint64"
            },
            {
              "internalType": "string",
              "name": "packing",
              "type": "string"
            },
            {
              "internalType": "string",
              "name": "flowering",
              "type": "string"
            },
            {
              "internalType": "string",
              "name": "date",
              "type": "string"
            },
            {
              "internalType": "string[]",
              "name": "hivesId",
              "type": "string[]"
            }
          ],
          "internalType": "struct Drum",
          "name": "",
          "type": "tuple"
        }
      ],
      "stateMutability": "view",
      "type": "function",
      "constant": true
    },
    {
      "inputs": [
        {
          "internalType": "string",
          "name": "_userId",
          "type": "string"
        }
      ],
      "name": "getDrumId",
      "outputs": [
        {
          "internalType": "string[]",
          "name": "",
          "type": "string[]"
        }
      ],
      "stateMutability": "view",
      "type": "function",
      "constant": true
    },
    {
      "inputs": [
        {
          "internalType": "string",
          "name": "_userId",
          "type": "string"
        },
        {
          "internalType": "string",
          "name": "_batch",
          "type": "string"
        },
        {
          "internalType": "string[]",
          "name": "_drumId",
          "type": "string[]"
        }
      ],
      "name": "newPallet",
      "outputs": [
        {
          "internalType": "string",
          "name": "",
          "type": "string"
        }
      ],
      "stateMutability": "nonpayable",
      "type": "function"
    },
    {
      "inputs": [
        {
          "internalType": "string",
          "name": "_id",
          "type": "string"
        }
      ],
      "name": "getPallet",
      "outputs": [
        {
          "components": [
            {
              "internalType": "string",
              "name": "id",
              "type": "string"
            },
            {
              "internalType": "string",
              "name": "batch",
              "type": "string"
            },
            {
              "internalType": "string[]",
              "name": "tunId",
              "type": "string[]"
            }
          ],
          "internalType": "struct Pallet",
          "name": "",
          "type": "tuple"
        }
      ],
      "stateMutability": "view",
      "type": "function",
      "constant": true
    },
    {
      "inputs": [
        {
          "internalType": "string",
          "name": "_userId",
          "type": "string"
        }
      ],
      "name": "getPalletsId",
      "outputs": [
        {
          "internalType": "string[]",
          "name": "",
          "type": "string[]"
        }
      ],
      "stateMutability": "view",
      "type": "function",
      "constant": true
    },
    {
      "inputs": [
        {
          "internalType": "string",
          "name": "_sender",
          "type": "string"
        },
        {
          "internalType": "string",
          "name": "_receiver",
          "type": "string"
        },
        {
          "internalType": "string",
          "name": "_unitId",
          "type": "string"
        },
        {
          "internalType": "string",
          "name": "_date",
          "type": "string"
        },
        {
          "internalType": "string",
          "name": "_businessUnitType",
          "type": "string"
        },
        {
          "internalType": "bytes",
          "name": "_signature",
          "type": "bytes"
        }
      ],
      "name": "forwarding",
      "outputs": [],
      "stateMutability": "nonpayable",
      "type": "function"
    }
  ],
  "bytecode": "0x60806040523480156200001157600080fd5b50604051620020ed380380620020ed83398101604081905262000034916200009d565b600780546001600160a01b039384166001600160a01b0319918216811790925560088054821690921790915560098054929093169181168217909255600a8054909216179055620000d5565b80516001600160a01b03811681146200009857600080fd5b919050565b60008060408385031215620000b157600080fd5b620000bc8362000080565b9150620000cc6020840162000080565b90509250929050565b61200880620000e56000396000f3fe608060405234801561001057600080fd5b50600436106100925760003560e01c80635707ef3c116100665780635707ef3c14610113578063576852191461012657806384b9a34114610146578063f49d75c91461015b578063fb32df311461016e57600080fd5b8062b21db51461009757806304406f5e146100c0578063203ddfac146100e057806335ad7d1414610100575b600080fd5b6100aa6100a53660046114ed565b610181565b6040516100b791906115c4565b60405180910390f35b6100d36100ce3660046115de565b61032f565b6040516100b79190611672565b6100f36100ee3660046115de565b6108a5565b6040516100b79190611784565b6100aa61010e3660046117e5565b610ae7565b6100aa61012136600461187e565b610be3565b6101396101343660046115de565b610ed0565b6040516100b791906119a9565b610159610154366004611a0b565b610fc7565b005b6101396101693660046115de565b6110b2565b61015961017c366004611b55565b61119e565b60085460405163175757d560e01b815260609185916001600160a01b039091169063175757d5906101b69084906004016115c4565b602060405180830381865afa1580156101d3573d6000803e3d6000fd5b505050506040513d601f19601f820116820180604052508101906101f79190611c49565b15156001146102215760405162461bcd60e51b815260040161021890611c6b565b60405180910390fd5b60008360405160200161023491906119a9565b60405160208183030381529060405280519060200120905060008682604051602001610261929190611c96565b60408051601f19818403018152606083018252808352602083018990528282018890529051909250600590610297908490611cce565b908152604051908190036020019020815181906102b49082611d73565b50602082015160018201906102c99082611d73565b50604082015180516102e59160028401916020909101906112a4565b509050506006876040516102f99190611cce565b9081526040516020918190038201902080546001810182556000918252919020016103248282611d73565b509695505050505050565b6103876040518061012001604052806060815260200160608152602001606081526020016060815260200160006001600160401b03168152602001606081526020016060815260200160608152602001606081525090565b6002826040516103979190611cce565b9081526020016040518091039020604051806101200160405290816000820180546103c190611cea565b80601f01602080910402602001604051908101604052809291908181526020018280546103ed90611cea565b801561043a5780601f1061040f5761010080835404028352916020019161043a565b820191906000526020600020905b81548152906001019060200180831161041d57829003601f168201915b5050505050815260200160018201805461045390611cea565b80601f016020809104026020016040519081016040528092919081815260200182805461047f90611cea565b80156104cc5780601f106104a1576101008083540402835291602001916104cc565b820191906000526020600020905b8154815290600101906020018083116104af57829003601f168201915b505050505081526020016002820180546104e590611cea565b80601f016020809104026020016040519081016040528092919081815260200182805461051190611cea565b801561055e5780601f106105335761010080835404028352916020019161055e565b820191906000526020600020905b81548152906001019060200180831161054157829003601f168201915b5050505050815260200160038201805461057790611cea565b80601f01602080910402602001604051908101604052809291908181526020018280546105a390611cea565b80156105f05780601f106105c5576101008083540402835291602001916105f0565b820191906000526020600020905b8154815290600101906020018083116105d357829003601f168201915b505050918352505060048201546001600160401b0316602082015260058201805460409092019161062090611cea565b80601f016020809104026020016040519081016040528092919081815260200182805461064c90611cea565b80156106995780601f1061066e57610100808354040283529160200191610699565b820191906000526020600020905b81548152906001019060200180831161067c57829003601f168201915b505050505081526020016006820180546106b290611cea565b80601f01602080910402602001604051908101604052809291908181526020018280546106de90611cea565b801561072b5780601f106107005761010080835404028352916020019161072b565b820191906000526020600020905b81548152906001019060200180831161070e57829003601f168201915b5050505050815260200160078201805461074490611cea565b80601f016020809104026020016040519081016040528092919081815260200182805461077090611cea565b80156107bd5780601f10610792576101008083540402835291602001916107bd565b820191906000526020600020905b8154815290600101906020018083116107a057829003601f168201915b5050505050815260200160088201805480602002602001604051908101604052809291908181526020016000905b8282101561089757838290600052602060002001805461080a90611cea565b80601f016020809104026020016040519081016040528092919081815260200182805461083690611cea565b80156108835780601f1061085857610100808354040283529160200191610883565b820191906000526020600020905b81548152906001019060200180831161086657829003601f168201915b5050505050815260200190600101906107eb565b505050915250909392505050565b6108c960405180606001604052806060815260200160608152602001606081525090565b6005826040516108d99190611cce565b908152602001604051809103902060405180606001604052908160008201805461090290611cea565b80601f016020809104026020016040519081016040528092919081815260200182805461092e90611cea565b801561097b5780601f106109505761010080835404028352916020019161097b565b820191906000526020600020905b81548152906001019060200180831161095e57829003601f168201915b5050505050815260200160018201805461099490611cea565b80601f01602080910402602001604051908101604052809291908181526020018280546109c090611cea565b8015610a0d5780601f106109e257610100808354040283529160200191610a0d565b820191906000526020600020905b8154815290600101906020018083116109f057829003601f168201915b5050505050815260200160028201805480602002602001604051908101604052809291908181526020016000905b82821015610897578382906000526020600020018054610a5a90611cea565b80601f0160208091040260200160405190810160405280929190818152602001828054610a8690611cea565b8015610ad35780601f10610aa857610100808354040283529160200191610ad3565b820191906000526020600020905b815481529060010190602001808311610ab657829003601f168201915b505050505081526020019060010190610a3b565b60085460405163175757d560e01b815260609185916001600160a01b039091169063175757d590610b1c9084906004016115c4565b602060405180830381865afa158015610b39573d6000803e3d6000fd5b505050506040513d601f19601f82011682018060405250810190610b5d9190611c49565b1515600114610b7e5760405162461bcd60e51b815260040161021890611c6b565b6000858585604051602001610b9593929190611e32565b60405160208183030381529060405280519060200120905060008682604051602001610bc2929190611e75565b60405160208183030381529060405290506004876040516102f99190611cce565b60085460405163175757d560e01b81526060918a916001600160a01b039091169063175757d590610c189084906004016115c4565b602060405180830381865afa158015610c35573d6000803e3d6000fd5b505050506040513d601f19601f82011682018060405250810190610c599190611c49565b1515600114610c7a5760405162461bcd60e51b815260040161021890611c6b565b60008985604051602001610c8f929190611ea4565b60405160208183030381529060405290506040518061012001604052808281526020018b81526020018c81526020018a8152602001896001600160401b0316815260200188815260200187815260200186815260200185815250600282604051610cf99190611cce565b90815260405190819003602001902081518190610d169082611d73565b5060208201516001820190610d2b9082611d73565b5060408201516002820190610d409082611d73565b5060608201516003820190610d559082611d73565b50608082015160048201805467ffffffffffffffff19166001600160401b0390921691909117905560a08201516005820190610d919082611d73565b5060c08201516006820190610da69082611d73565b5060e08201516007820190610dbb9082611d73565b506101008201518051610dd89160088401916020909101906112a4565b5090505060038b604051610dec9190611cce565b908152604051602091819003820190208054600181018255600091825291902001610e178282611d73565b50600281604051610e289190611cce565b9081526040519081900360200190208054610e4290611cea565b80601f0160208091040260200160405190810160405280929190818152602001828054610e6e90611cea565b8015610ebb5780601f10610e9057610100808354040283529160200191610ebb565b820191906000526020600020905b815481529060010190602001808311610e9e57829003601f168201915b50505050509250505098975050505050505050565b6060600382604051610ee29190611cce565b9081526020016040518091039020805480602002602001604051908101604052809291908181526020016000905b82821015610fbc578382906000526020600020018054610f2f90611cea565b80601f0160208091040260200160405190810160405280929190818152602001828054610f5b90611cea565b8015610fa85780601f10610f7d57610100808354040283529160200191610fa8565b820191906000526020600020905b815481529060010190602001808311610f8b57829003601f168201915b505050505081526020019060010190610f10565b505050509050919050565b60085460405163175757d560e01b815283916001600160a01b03169063175757d590610ff79084906004016115c4565b602060405180830381865afa158015611014573d6000803e3d6000fd5b505050506040513d601f19601f820116820180604052508101906110389190611c49565b15156001146110595760405162461bcd60e51b815260040161021890611c6b565b816040516110679190611ed3565b60405180910390208360405161107d9190611cce565b604051908190038120907f483bc2788ddca653fb2130e11ad7f16852e932de79f04283248a8127d5b8061890600090a3505050565b60606006826040516110c49190611cce565b9081526020016040518091039020805480602002602001604051908101604052809291908181526020016000905b82821015610fbc57838290600052602060002001805461111190611cea565b80601f016020809104026020016040519081016040528092919081815260200182805461113d90611cea565b801561118a5780601f1061115f5761010080835404028352916020019161118a565b820191906000526020600020905b81548152906001019060200180831161116d57829003601f168201915b5050505050815260200190600101906110f2565b60085460405163175757d560e01b815286916001600160a01b03169063175757d5906111ce9084906004016115c4565b602060405180830381865afa1580156111eb573d6000803e3d6000fd5b505050506040513d601f19601f8201168201806040525081019061120f9190611c49565b15156001146112305760405162461bcd60e51b815260040161021890611c6b565b600a5460405162665dd960e61b81526001600160a01b0390911690631997764090611269908a908a908a908a908a908a90600401611f50565b600060405180830381600087803b15801561128357600080fd5b505af1158015611297573d6000803e3d6000fd5b5050505050505050505050565b8280548282559060005260206000209081019282156112ea579160200282015b828111156112ea57825182906112da9082611d73565b50916020019190600101906112c4565b506112f69291506112fa565b5090565b808211156112f657600061130e8282611317565b506001016112fa565b50805461132390611cea565b6000825580601f10611333575050565b601f0160209004906000526020600020908101906113519190611354565b50565b5b808211156112f65760008155600101611355565b634e487b7160e01b600052604160045260246000fd5b604051606081016001600160401b03811182821017156113a1576113a1611369565b60405290565b604051601f8201601f191681016001600160401b03811182821017156113cf576113cf611369565b604052919050565b600082601f8301126113e857600080fd5b81356001600160401b0381111561140157611401611369565b611414601f8201601f19166020016113a7565b81815284602083860101111561142957600080fd5b816020850160208301376000918101602001919091529392505050565b60006001600160401b0382111561145f5761145f611369565b5060051b60200190565b600082601f83011261147a57600080fd5b8135602061148f61148a83611446565b6113a7565b82815260059290921b840181019181810190868411156114ae57600080fd5b8286015b848110156103245780356001600160401b038111156114d15760008081fd5b6114df8986838b01016113d7565b8452509183019183016114b2565b60008060006060848603121561150257600080fd5b83356001600160401b038082111561151957600080fd5b611525878388016113d7565b9450602086013591508082111561153b57600080fd5b611547878388016113d7565b9350604086013591508082111561155d57600080fd5b5061156a86828701611469565b9150509250925092565b60005b8381101561158f578181015183820152602001611577565b50506000910152565b600081518084526115b0816020860160208601611574565b601f01601f19169290920160200192915050565b6020815260006115d76020830184611598565b9392505050565b6000602082840312156115f057600080fd5b81356001600160401b0381111561160657600080fd5b611612848285016113d7565b949350505050565b600082825180855260208086019550808260051b84010181860160005b8481101561166557601f19868403018952611653838351611598565b98840198925090830190600101611637565b5090979650505050505050565b6020815260008251610120806020850152611691610140850183611598565b91506020850151601f19808685030160408701526116af8483611598565b935060408701519150808685030160608701526116cc8483611598565b935060608701519150808685030160808701526116e98483611598565b93506080870151915061170760a08701836001600160401b03169052565b60a08701519150808685030160c08701526117228483611598565b935060c08701519150808685030160e087015261173f8483611598565b935060e0870151915061010081878603018188015261175e8584611598565b90880151878203909201848801529350905061177a838261161a565b9695505050505050565b6020815260008251606060208401526117a06080840182611598565b90506020840151601f19808584030160408601526117be8383611598565b92506040860151915080858403016060860152506117dc828261161a565b95945050505050565b6000806000606084860312156117fa57600080fd5b83356001600160401b038082111561181157600080fd5b61181d878388016113d7565b9450602086013591508082111561183357600080fd5b61183f878388016113d7565b9350604086013591508082111561185557600080fd5b5061156a868287016113d7565b80356001600160401b038116811461187957600080fd5b919050565b600080600080600080600080610100898b03121561189b57600080fd5b88356001600160401b03808211156118b257600080fd5b6118be8c838d016113d7565b995060208b01359150808211156118d457600080fd5b6118e08c838d016113d7565b985060408b01359150808211156118f657600080fd5b6119028c838d016113d7565b975061191060608c01611862565b965060808b013591508082111561192657600080fd5b6119328c838d016113d7565b955060a08b013591508082111561194857600080fd5b6119548c838d016113d7565b945060c08b013591508082111561196a57600080fd5b6119768c838d016113d7565b935060e08b013591508082111561198c57600080fd5b506119998b828c01611469565b9150509295985092959890939650565b6000602080830181845280855180835260408601915060408160051b870101925083870160005b828110156119fe57603f198886030184526119ec858351611598565b945092850192908501906001016119d0565b5092979650505050505050565b60008060408385031215611a1e57600080fd5b82356001600160401b0380821115611a3557600080fd5b611a41868387016113d7565b9350602091508185013581811115611a5857600080fd5b8501601f81018713611a6957600080fd5b8035611a7761148a82611446565b81815260059190911b82018401908481019089831115611a9657600080fd5b8584015b83811015611b4457803586811115611ab25760008081fd5b85016060818d03601f1901811315611aca5760008081fd5b611ad261137f565b8983013589811115611ae45760008081fd5b611af28f8c838701016113d7565b825250604083013561ffff81168114611b0b5760008081fd5b818b0152908201359088821115611b225760008081fd5b611b308e8b848601016113d7565b604082015285525050918601918601611a9a565b508096505050505050509250929050565b60008060008060008060c08789031215611b6e57600080fd5b86356001600160401b0380821115611b8557600080fd5b611b918a838b016113d7565b97506020890135915080821115611ba757600080fd5b611bb38a838b016113d7565b96506040890135915080821115611bc957600080fd5b611bd58a838b016113d7565b95506060890135915080821115611beb57600080fd5b611bf78a838b016113d7565b94506080890135915080821115611c0d57600080fd5b611c198a838b016113d7565b935060a0890135915080821115611c2f57600080fd5b50611c3c89828a016113d7565b9150509295509295509295565b600060208284031215611c5b57600080fd5b815180151581146115d757600080fd5b6020808252601190820152705065726d697373616f206e65676164612160781b604082015260600190565b60008351611ca8818460208801611574565b6fffffffffffffffffffffffffffffffff19939093169190920190815260100192915050565b60008251611ce0818460208701611574565b9190910192915050565b600181811c90821680611cfe57607f821691505b602082108103611d1e57634e487b7160e01b600052602260045260246000fd5b50919050565b601f821115611d6e57600081815260208120601f850160051c81016020861015611d4b5750805b601f850160051c820191505b81811015611d6a57828155600101611d57565b5050505b505050565b81516001600160401b03811115611d8c57611d8c611369565b611da081611d9a8454611cea565b84611d24565b602080601f831160018114611dd55760008415611dbd5750858301515b600019600386901b1c1916600185901b178555611d6a565b600085815260208120601f198616915b82811015611e0457888601518255948401946001909101908401611de5565b5085821015611e225787850151600019600388901b60f8161c191681555b5050505050600190811b01905550565b60008451611e44818460208901611574565b845190830190611e58818360208901611574565b8451910190611e6b818360208801611574565b0195945050505050565b60008351611e87818460208801611574565b6001600160e01b0319939093169190920190815260040192915050565b60008351611eb6818460208801611574565b835190830190611eca818360208801611574565b01949350505050565b815160009082906020808601845b83811015611f4457815180518051611efc8189888501611574565b601f199150601f82818301168901915061ffff87850151168252604084015193508351611f2e818985018a8801611574565b0190911601840195505090820190600101611ee1565b50929695505050505050565b60c081526000611f6360c0830189611598565b8281036020840152611f758189611598565b90508281036040840152611f898188611598565b90508281036060840152611f9d8187611598565b90508281036080840152611fb18186611598565b905082810360a0840152611fc58185611598565b999850505050505050505056fea264697066735822122002c178eb1ee14a1048ac44aee01ece78dc375921efbd3481b32b123a7f9c281364736f6c63430008110033",
  "immutableReferences": {},
  "source": "// SPDX-License-Identifier: MIT\r\npragma solidity ^0.8.17;\r\n\r\nimport \"./Authentication.sol\";\r\nimport \"./UpdateTr.sol\";\r\n\r\nstruct Hive {\r\n    string hiveId;\r\n    uint16 weightHoney;\r\n    string dateCollect;\r\n}\r\n\r\nstruct Drum {\r\n    string id;\r\n    string batch;\r\n    string productorId;\r\n    string apiary;\r\n    uint64 weight;\r\n    string packing;\r\n    string flowering;\r\n    string date;\r\n    string[] hivesId;\r\n}\r\n\r\nstruct Pallet {\r\n    string id;\r\n    string batch;\r\n    string[] tunId;\r\n}\r\n\r\n// struct Honey {\r\n//     uint256 codigo;\r\n//     uint256 lote;\r\n//     string especializacao;\r\n//     uint64 peso;\r\n//     uint256 date;\r\n//     string localizacao;\r\n//     uint256 producaoId;\r\n// }\r\n\r\ncontract Production {\r\n    mapping(string => Hive) hives;\r\n    mapping(string => string[]) hiveId;\r\n\r\n    mapping(string => Drum) drums;\r\n    mapping(string => string[]) drumsId;\r\n    mapping(string => string[]) drumsBatch;\r\n\r\n    mapping(string => Pallet) pallets;\r\n    mapping(string => string[]) palletsId;\r\n\r\n    // mapping(address => mapping(uint256 => Honey)) product;\r\n    // uint256[] productCode;\r\n\r\n    address contractAuthentication;\r\n    Authentication instanceAuthentication;\r\n    address contractUpdateTr;\r\n    UpdateTr instanceUpdateTr;\r\n\r\n    constructor(address _contractAuthentication, address _contractUpdateTr) {\r\n        contractAuthentication = _contractAuthentication;\r\n        instanceAuthentication = Authentication(contractAuthentication);\r\n        contractUpdateTr = _contractUpdateTr;\r\n        instanceUpdateTr = UpdateTr(contractUpdateTr);\r\n    }\r\n\r\n    //Verifica se o endereo que esta chamando o contrato possui permisao para modificar o estado da rede\r\n    modifier onlyOWNER(string memory _id) {\r\n        require(\r\n            instanceAuthentication.activeUser(_id) == true,\r\n            \"Permissao negada!\"\r\n        );\r\n        _;\r\n    }\r\n\r\n    event UpdateHive(string indexed _id, Hive[] indexed hives);\r\n    event Collect(\r\n        address indexed addr,\r\n        uint256 hiveId,\r\n        uint256 dateCollect,\r\n        int256 peso\r\n    );\r\n\r\n    function updateHive(\r\n        string memory _id,\r\n        Hive[] memory _hives\r\n    ) public onlyOWNER(_id) {\r\n        emit UpdateHive(_id, _hives);\r\n    }\r\n\r\n    function generateBatch(\r\n        string memory _userId,\r\n        string memory _flowering,\r\n        string memory _date\r\n    ) public onlyOWNER(_userId) returns (string memory) {\r\n        bytes4 _hash = bytes4(\r\n            keccak256(abi.encodePacked(_userId, _flowering, _date))\r\n        );\r\n        string memory _batch = string(abi.encodePacked(_userId, _hash));\r\n\r\n        drumsBatch[_userId].push(_batch);\r\n        return _batch;\r\n    }\r\n\r\n    function newTun(\r\n        string memory _userId,\r\n        string memory _batch,\r\n        string memory _apiary,\r\n        uint64 _weight,\r\n        string memory _packing,\r\n        string memory _flowering,\r\n        string memory _dateTime,\r\n        string[] memory _hivesId\r\n    ) public onlyOWNER(_userId) returns (string memory) {\r\n        string memory _id = string(abi.encodePacked(_batch, _dateTime));\r\n\r\n        drums[_id] = Drum(\r\n            _id,\r\n            _batch,\r\n            _userId,\r\n            _apiary,\r\n            _weight,\r\n            _packing,\r\n            _flowering,\r\n            _dateTime,\r\n            _hivesId\r\n        );\r\n        drumsId[_userId].push(_id);\r\n        return drums[_id].id;\r\n    }\r\n\r\n    function getDrum(string memory _id) public view returns (Drum memory) {\r\n        return drums[_id];\r\n    }\r\n\r\n    function getDrumId(\r\n        string memory _userId\r\n    ) public view returns (string[] memory) {\r\n        return drumsId[_userId];\r\n    }\r\n\r\n    function newPallet(\r\n        string memory _userId,\r\n        string memory _batch,\r\n        string[] memory _drumId\r\n    ) public onlyOWNER(_userId) returns (string memory) {\r\n        bytes16 _hash = bytes16(keccak256(abi.encode(_drumId)));\r\n        string memory _id = string(abi.encodePacked(_userId, _hash));\r\n        pallets[_id] = Pallet(_id, _batch, _drumId);\r\n        palletsId[_userId].push(_id);\r\n        return _id;\r\n    }\r\n\r\n    function getPallet(string memory _id) public view returns (Pallet memory) {\r\n        return pallets[_id];\r\n    }\r\n\r\n    function getPalletsId(\r\n        string memory _userId\r\n    ) public view returns (string[] memory) {\r\n        return palletsId[_userId];\r\n    }\r\n\r\n    //Funo para registrar a tranzao de um produto\r\n    function forwarding(\r\n        string memory _sender,\r\n        string memory _receiver,\r\n        string memory _unitId,\r\n        string memory _date,\r\n        string memory _businessUnitType,\r\n        bytes memory _signature\r\n    ) public onlyOWNER(_receiver) {\r\n        //chamar funcao updateTr no contrato UpdateTr\r\n        instanceUpdateTr.updateTr(\r\n            _sender,\r\n            _receiver,\r\n            _unitId,\r\n            _date,\r\n            _businessUnitType,\r\n            _signature\r\n        );\r\n    }\r\n}\r\n",
  "sourcePath": "C:\\Users\\samue\\Documents\\Workspace_react\\BlockForBees\\backend_blockcahin\\contracts\\Production.sol",
  "compiler": {
    "name": "solc",
    "version": "0.8.17+commit.8df45f5f.Emscripten.clang"
  },
  "schemaVersion": "3.4.11",
  "updatedAt": "2023-04-26T22:53:01.352Z",
  "networkType": "ethereum",
  "devdoc": {
    "kind": "dev",
    "methods": {},
    "version": 1
  },
  "userdoc": {
    "kind": "user",
    "methods": {},
    "version": 1
  }
}