{
  "contractName": "RegistrarProducao",
  "abi": [
    {
      "inputs": [
        {
          "internalType": "address",
          "name": "_contract",
          "type": "address"
        }
      ],
      "stateMutability": "nonpayable",
      "type": "constructor"
    },
    {
      "anonymous": false,
      "inputs": [
        {
          "indexed": true,
          "internalType": "address",
          "name": "OWNER",
          "type": "address"
        },
        {
          "components": [
            {
              "internalType": "uint256",
              "name": "colmeiaId",
              "type": "uint256"
            },
            {
              "internalType": "uint16",
              "name": "melProduzido",
              "type": "uint16"
            },
            {
              "internalType": "uint256",
              "name": "dateColeta",
              "type": "uint256"
            }
          ],
          "indexed": false,
          "internalType": "struct Colmeia[]",
          "name": "colmeias",
          "type": "tuple[]"
        },
        {
          "indexed": true,
          "internalType": "uint256",
          "name": "date",
          "type": "uint256"
        }
      ],
      "name": "Coleta",
      "type": "event"
    },
    {
      "anonymous": false,
      "inputs": [
        {
          "indexed": false,
          "internalType": "address",
          "name": "OWNER",
          "type": "address"
        },
        {
          "components": [
            {
              "internalType": "uint256",
              "name": "colmeiaId",
              "type": "uint256"
            },
            {
              "internalType": "uint16",
              "name": "melProduzido",
              "type": "uint16"
            },
            {
              "internalType": "uint256",
              "name": "dateColeta",
              "type": "uint256"
            }
          ],
          "indexed": false,
          "internalType": "struct Colmeia",
          "name": "colmeia",
          "type": "tuple"
        },
        {
          "indexed": false,
          "internalType": "uint256",
          "name": "date",
          "type": "uint256"
        }
      ],
      "name": "Enxame",
      "type": "event"
    },
    {
      "anonymous": false,
      "inputs": [
        {
          "indexed": true,
          "internalType": "address",
          "name": "_sender",
          "type": "address"
        },
        {
          "indexed": true,
          "internalType": "address",
          "name": "_recipient",
          "type": "address"
        },
        {
          "indexed": false,
          "internalType": "uint256",
          "name": "produtionId",
          "type": "uint256"
        },
        {
          "indexed": true,
          "internalType": "uint256",
          "name": "lote",
          "type": "uint256"
        },
        {
          "indexed": false,
          "internalType": "bytes",
          "name": "signature",
          "type": "bytes"
        }
      ],
      "name": "Transfer",
      "type": "event"
    },
    {
      "inputs": [
        {
          "internalType": "uint256",
          "name": "_colmeiaId",
          "type": "uint256"
        },
        {
          "internalType": "uint16",
          "name": "_melProduzido",
          "type": "uint16"
        },
        {
          "internalType": "string",
          "name": "_userId",
          "type": "string"
        }
      ],
      "name": "updateColmeia",
      "outputs": [],
      "stateMutability": "nonpayable",
      "type": "function"
    },
    {
      "inputs": [],
      "name": "listColmeias",
      "outputs": [
        {
          "components": [
            {
              "internalType": "uint256",
              "name": "colmeiaId",
              "type": "uint256"
            },
            {
              "internalType": "uint16",
              "name": "melProduzido",
              "type": "uint16"
            },
            {
              "internalType": "uint256",
              "name": "dateColeta",
              "type": "uint256"
            }
          ],
          "internalType": "struct Colmeia[]",
          "name": "",
          "type": "tuple[]"
        }
      ],
      "stateMutability": "view",
      "type": "function",
      "constant": true
    },
    {
      "inputs": [
        {
          "internalType": "uint256",
          "name": "_colmeiaId",
          "type": "uint256"
        }
      ],
      "name": "getColmeiaById",
      "outputs": [
        {
          "components": [
            {
              "internalType": "uint256",
              "name": "colmeiaId",
              "type": "uint256"
            },
            {
              "internalType": "uint16",
              "name": "melProduzido",
              "type": "uint16"
            },
            {
              "internalType": "uint256",
              "name": "dateColeta",
              "type": "uint256"
            }
          ],
          "internalType": "struct Colmeia",
          "name": "",
          "type": "tuple"
        }
      ],
      "stateMutability": "view",
      "type": "function",
      "constant": true
    },
    {
      "inputs": [
        {
          "internalType": "uint256",
          "name": "_id",
          "type": "uint256"
        },
        {
          "internalType": "uint64",
          "name": "_peso",
          "type": "uint64"
        },
        {
          "internalType": "string",
          "name": "_localizacao",
          "type": "string"
        },
        {
          "internalType": "string",
          "name": "_apicultorId",
          "type": "string"
        },
        {
          "internalType": "uint256[]",
          "name": "_colmeiasId",
          "type": "uint256[]"
        }
      ],
      "name": "registerProduction",
      "outputs": [],
      "stateMutability": "nonpayable",
      "type": "function"
    },
    {
      "inputs": [],
      "name": "listProduction",
      "outputs": [
        {
          "components": [
            {
              "internalType": "uint256",
              "name": "id",
              "type": "uint256"
            },
            {
              "internalType": "uint64",
              "name": "WeightTotal",
              "type": "uint64"
            },
            {
              "internalType": "uint256",
              "name": "date",
              "type": "uint256"
            },
            {
              "internalType": "string",
              "name": "localization",
              "type": "string"
            },
            {
              "internalType": "string",
              "name": "apicultorId",
              "type": "string"
            },
            {
              "internalType": "uint256[]",
              "name": "colmeiasId",
              "type": "uint256[]"
            }
          ],
          "internalType": "struct Production[]",
          "name": "",
          "type": "tuple[]"
        }
      ],
      "stateMutability": "view",
      "type": "function",
      "constant": true
    },
    {
      "inputs": [
        {
          "internalType": "uint256",
          "name": "_id",
          "type": "uint256"
        }
      ],
      "name": "getProductionById",
      "outputs": [
        {
          "components": [
            {
              "internalType": "uint256",
              "name": "id",
              "type": "uint256"
            },
            {
              "internalType": "uint64",
              "name": "WeightTotal",
              "type": "uint64"
            },
            {
              "internalType": "uint256",
              "name": "date",
              "type": "uint256"
            },
            {
              "internalType": "string",
              "name": "localization",
              "type": "string"
            },
            {
              "internalType": "string",
              "name": "apicultorId",
              "type": "string"
            },
            {
              "internalType": "uint256[]",
              "name": "colmeiasId",
              "type": "uint256[]"
            }
          ],
          "internalType": "struct Production",
          "name": "",
          "type": "tuple"
        }
      ],
      "stateMutability": "view",
      "type": "function",
      "constant": true
    },
    {
      "inputs": [
        {
          "internalType": "string",
          "name": "_user",
          "type": "string"
        },
        {
          "components": [
            {
              "internalType": "uint256",
              "name": "codigo",
              "type": "uint256"
            },
            {
              "internalType": "uint256",
              "name": "lote",
              "type": "uint256"
            },
            {
              "internalType": "string",
              "name": "especializacao",
              "type": "string"
            },
            {
              "internalType": "uint64",
              "name": "peso",
              "type": "uint64"
            },
            {
              "internalType": "uint256",
              "name": "data",
              "type": "uint256"
            },
            {
              "internalType": "string",
              "name": "localizacao",
              "type": "string"
            },
            {
              "internalType": "uint256",
              "name": "producaoId",
              "type": "uint256"
            }
          ],
          "internalType": "struct Honey",
          "name": "_honey",
          "type": "tuple"
        }
      ],
      "name": "registerProduct",
      "outputs": [
        {
          "internalType": "string",
          "name": "",
          "type": "string"
        }
      ],
      "stateMutability": "nonpayable",
      "type": "function"
    },
    {
      "inputs": [
        {
          "components": [
            {
              "internalType": "uint256",
              "name": "codigo",
              "type": "uint256"
            },
            {
              "internalType": "uint256",
              "name": "lote",
              "type": "uint256"
            },
            {
              "internalType": "string",
              "name": "especializacao",
              "type": "string"
            },
            {
              "internalType": "uint64",
              "name": "peso",
              "type": "uint64"
            },
            {
              "internalType": "uint256",
              "name": "data",
              "type": "uint256"
            },
            {
              "internalType": "string",
              "name": "localizacao",
              "type": "string"
            },
            {
              "internalType": "uint256",
              "name": "producaoId",
              "type": "uint256"
            }
          ],
          "internalType": "struct Honey",
          "name": "_honey",
          "type": "tuple"
        },
        {
          "internalType": "string",
          "name": "_user",
          "type": "string"
        }
      ],
      "name": "registerProduct2",
      "outputs": [],
      "stateMutability": "nonpayable",
      "type": "function"
    },
    {
      "inputs": [
        {
          "components": [
            {
              "internalType": "uint256",
              "name": "codigo",
              "type": "uint256"
            },
            {
              "internalType": "uint256",
              "name": "lote",
              "type": "uint256"
            },
            {
              "internalType": "string",
              "name": "especializacao",
              "type": "string"
            },
            {
              "internalType": "uint64",
              "name": "peso",
              "type": "uint64"
            },
            {
              "internalType": "uint256",
              "name": "data",
              "type": "uint256"
            },
            {
              "internalType": "string",
              "name": "localizacao",
              "type": "string"
            },
            {
              "internalType": "uint256",
              "name": "producaoId",
              "type": "uint256"
            }
          ],
          "internalType": "struct Honey[]",
          "name": "_honey",
          "type": "tuple[]"
        },
        {
          "internalType": "string",
          "name": "_user",
          "type": "string"
        }
      ],
      "name": "registerProductList",
      "outputs": [
        {
          "internalType": "string",
          "name": "",
          "type": "string"
        }
      ],
      "stateMutability": "nonpayable",
      "type": "function"
    },
    {
      "inputs": [],
      "name": "listProduct",
      "outputs": [
        {
          "components": [
            {
              "internalType": "uint256",
              "name": "codigo",
              "type": "uint256"
            },
            {
              "internalType": "uint256",
              "name": "lote",
              "type": "uint256"
            },
            {
              "internalType": "string",
              "name": "especializacao",
              "type": "string"
            },
            {
              "internalType": "uint64",
              "name": "peso",
              "type": "uint64"
            },
            {
              "internalType": "uint256",
              "name": "data",
              "type": "uint256"
            },
            {
              "internalType": "string",
              "name": "localizacao",
              "type": "string"
            },
            {
              "internalType": "uint256",
              "name": "producaoId",
              "type": "uint256"
            }
          ],
          "internalType": "struct Honey[]",
          "name": "",
          "type": "tuple[]"
        }
      ],
      "stateMutability": "view",
      "type": "function",
      "constant": true
    },
    {
      "inputs": [
        {
          "internalType": "uint256",
          "name": "_batch",
          "type": "uint256"
        }
      ],
      "name": "listProductBatch",
      "outputs": [
        {
          "components": [
            {
              "internalType": "uint256",
              "name": "codigo",
              "type": "uint256"
            },
            {
              "internalType": "uint256",
              "name": "lote",
              "type": "uint256"
            },
            {
              "internalType": "string",
              "name": "especializacao",
              "type": "string"
            },
            {
              "internalType": "uint64",
              "name": "peso",
              "type": "uint64"
            },
            {
              "internalType": "uint256",
              "name": "data",
              "type": "uint256"
            },
            {
              "internalType": "string",
              "name": "localizacao",
              "type": "string"
            },
            {
              "internalType": "uint256",
              "name": "producaoId",
              "type": "uint256"
            }
          ],
          "internalType": "struct Honey[]",
          "name": "",
          "type": "tuple[]"
        }
      ],
      "stateMutability": "view",
      "type": "function",
      "constant": true
    },
    {
      "inputs": [
        {
          "internalType": "uint256",
          "name": "_codigo",
          "type": "uint256"
        }
      ],
      "name": "getProductById",
      "outputs": [
        {
          "components": [
            {
              "internalType": "uint256",
              "name": "codigo",
              "type": "uint256"
            },
            {
              "internalType": "uint256",
              "name": "lote",
              "type": "uint256"
            },
            {
              "internalType": "string",
              "name": "especializacao",
              "type": "string"
            },
            {
              "internalType": "uint64",
              "name": "peso",
              "type": "uint64"
            },
            {
              "internalType": "uint256",
              "name": "data",
              "type": "uint256"
            },
            {
              "internalType": "string",
              "name": "localizacao",
              "type": "string"
            },
            {
              "internalType": "uint256",
              "name": "producaoId",
              "type": "uint256"
            }
          ],
          "internalType": "struct Honey",
          "name": "",
          "type": "tuple"
        }
      ],
      "stateMutability": "view",
      "type": "function",
      "constant": true
    },
    {
      "inputs": [],
      "name": "addLote",
      "outputs": [],
      "stateMutability": "nonpayable",
      "type": "function"
    },
    {
      "inputs": [
        {
          "internalType": "address",
          "name": "_recipient",
          "type": "address"
        },
        {
          "internalType": "uint256",
          "name": "_productionId",
          "type": "uint256"
        },
        {
          "internalType": "uint256",
          "name": "_lote",
          "type": "uint256"
        },
        {
          "internalType": "bytes",
          "name": "_signature",
          "type": "bytes"
        }
      ],
      "name": "transfer",
      "outputs": [],
      "stateMutability": "nonpayable",
      "type": "function"
    },
    {
      "inputs": [
        {
          "internalType": "address[]",
          "name": "_address",
          "type": "address[]"
        },
        {
          "internalType": "string",
          "name": "_user",
          "type": "string"
        }
      ],
      "name": "addOWNER",
      "outputs": [],
      "stateMutability": "nonpayable",
      "type": "function"
    },
    {
      "inputs": [
        {
          "internalType": "address[]",
          "name": "_address",
          "type": "address[]"
        },
        {
          "internalType": "string",
          "name": "_user",
          "type": "string"
        }
      ],
      "name": "remOWNER",
      "outputs": [],
      "stateMutability": "nonpayable",
      "type": "function"
    }
  ],
  "bytecode": "0x60806040523480156200001157600080fd5b506040516200297c3803806200297c833981016040819052620000349162000064565b600780546001600160a01b039092166001600160a01b031992831681179091556008805490921617905562000096565b6000602082840312156200007757600080fd5b81516001600160a01b03811681146200008f57600080fd5b9392505050565b6128d680620000a66000396000f3fe608060405234801561001057600080fd5b50600436106101005760003560e01c806360cb9ebd11610097578063c8cad87511610066578063c8cad87514610227578063dabd76e91461023c578063dd2a0db51461024f578063f68e30671461026257600080fd5b806360cb9ebd146101d757806369fdd625146101ea5780637153d3ca146101ff57806391e4eac81461021257600080fd5b80633f87fa74116100d35780633f87fa74146101635780635c5d05a7146101835780635f121cd3146101a35780635f998670146101b657600080fd5b8063039419ee146101055780630db28cd31461011857806325cdd6511461011a5780633f70c2b414610143575b600080fd5b610118610113366004611ebb565b610275565b005b61012d610128366004611f1e565b6104ac565b60405161013a9190611f37565b60405180910390f35b610156610151366004611f1e565b61051c565b60405161013a9190612022565b610176610171366004612058565b6106b4565b60405161013a9190612114565b610196610191366004611f1e565b61072c565b60405161013a91906121ca565b6101186101b13660046121f4565b610940565b6101c96101c436600461229c565b610a8a565b60405161013a9291906122f5565b6101186101e5366004612324565b610cb9565b6101f261101a565b60405161013a919061241c565b6101f261020d366004611f1e565b611266565b61021a6114fc565b60405161013a919061247e565b61022f61161f565b60405161013a91906124e4565b61011861024a366004612539565b6118fb565b61011861025d3660046121f4565b61194f565b6101186102703660046125ad565b611a93565b8080604051602001610287919061260c565b60408051808303601f190181529082905280516020909101206008546365f68c8960e01b835232600484015290916001600160a01b03909116906365f68c8990602401600060405180830381865afa1580156102e7573d6000803e3d6000fd5b505050506040513d6000823e601f3d908101601f1916820160405261030f9190810190612628565b60405160200161031f919061260c565b604051602081830303815290604052805190602001201461035b5760405162461bcd60e51b81526004016103529061269e565b60405180910390fd5b32600090815260056020908152604080832086518452909152902054156103945760405162461bcd60e51b8152600401610352906126c9565b6040805160e08101825284518152602080860151818301908152868401518385019081526060808901516001600160401b03169085015242608085015260a0808901519085015260c0808901519085015232600090815260058452858120895182529093529390912082518155905160018201559151909190600282019061041c9082612783565b50606082015160038201805467ffffffffffffffff19166001600160401b039092169190911790556080820151600482015560a082015160058201906104629082612783565b5060c09190910151600691820155925183546001810185556000949094527ff652222313e28459528d920b65115c16c04f3efc82aaedc97be59f3f377c0d3f909301929092555050565b6104d4604051806060016040528060008152602001600061ffff168152602001600081525090565b50326000908152600160208181526040808420948452938152918390208351606081018552815481529181015461ffff16928201929092526002909101549181019190915290565b610524611c58565b326000908152600560209081526040808320858452825291829020825160e08101845281548152600182015492810192909252600281018054929391929184019161056e90612700565b80601f016020809104026020016040519081016040528092919081815260200182805461059a90612700565b80156105e75780601f106105bc576101008083540402835291602001916105e7565b820191906000526020600020905b8154815290600101906020018083116105ca57829003601f168201915b505050918352505060038201546001600160401b031660208201526004820154604082015260058201805460609092019161062190612700565b80601f016020809104026020016040519081016040528092919081815260200182805461064d90612700565b801561069a5780601f1061066f5761010080835404028352916020019161069a565b820191906000526020600020905b81548152906001019060200180831161067d57829003601f168201915b505050505081526020016006820154815250509050919050565b606060005b83518110156106f7576106e58482815181106106d7576106d7612842565b602002602001015184610275565b806106ef81612858565b9150506106b9565b505060408051808201909152601581527450726f6475746f73207265676973747261646f732160581b60208201525b92915050565b61076e6040518060c001604052806000815260200160006001600160401b03168152602001600081526020016060815260200160608152602001606081525090565b326000908152600360208181526040808420868552825292839020835160c0810185528154815260018201546001600160401b03169281019290925260028101549382019390935290820180549192916060840191906107cd90612700565b80601f01602080910402602001604051908101604052809291908181526020018280546107f990612700565b80156108465780601f1061081b57610100808354040283529160200191610846565b820191906000526020600020905b81548152906001019060200180831161082957829003601f168201915b5050505050815260200160048201805461085f90612700565b80601f016020809104026020016040519081016040528092919081815260200182805461088b90612700565b80156108d85780601f106108ad576101008083540402835291602001916108d8565b820191906000526020600020905b8154815290600101906020018083116108bb57829003601f168201915b505050505081526020016005820180548060200260200160405190810160405280929190818152602001828054801561093057602002820191906000526020600020905b81548152602001906001019080831161091c575b5050505050815250509050919050565b8080604051602001610952919061260c565b60408051808303601f190181529082905280516020909101206008546365f68c8960e01b835232600484015290916001600160a01b03909116906365f68c8990602401600060405180830381865afa1580156109b2573d6000803e3d6000fd5b505050506040513d6000823e601f3d908101601f191682016040526109da9190810190612628565b6040516020016109ea919061260c565b6040516020818303038152906040528051906020012014610a1d5760405162461bcd60e51b81526004016103529061269e565b60005b8351811015610a84576000806000868481518110610a4057610a40612842565b6020908102919091018101516001600160a01b03168252810191909152604001600020805460ff191691151591909117905580610a7c81612858565b915050610a20565b50505050565b3660008380604051602001610a9f919061260c565b60408051808303601f190181529082905280516020909101206008546365f68c8960e01b835232600484015290916001600160a01b03909116906365f68c8990602401600060405180830381865afa158015610aff573d6000803e3d6000fd5b505050506040513d6000823e601f3d908101601f19168201604052610b279190810190612628565b604051602001610b37919061260c565b6040516020818303038152906040528051906020012014610b6a5760405162461bcd60e51b81526004016103529061269e565b3260009081526005602090815260408083208751845290915290205415610ba35760405162461bcd60e51b8152600401610352906126c9565b6040805160e0810182528551815285516020808301918252878401518385019081526060808a01516001600160401b03169085015242608085015260a0808a01519085015260c0808a015190850152326000908152600583528581208a518252909252939020825181559051600182015591519091906002820190610c289082612783565b50606082015160038201805467ffffffffffffffff19166001600160401b039092169190911790556080820151600482015560a08201516005820190610c6e9082612783565b5060c091909101516006918201559351845460018101865560009586527ff652222313e28459528d920b65115c16c04f3efc82aaedc97be59f3f377c0d3f0155509193369350915050565b8180604051602001610ccb919061260c565b60408051808303601f190181529082905280516020909101206008546365f68c8960e01b835232600484015290916001600160a01b03909116906365f68c8990602401600060405180830381865afa158015610d2b573d6000803e3d6000fd5b505050506040513d6000823e601f3d908101601f19168201604052610d539190810190612628565b604051602001610d63919061260c565b6040516020818303038152906040528051906020012014610d965760405162461bcd60e51b81526004016103529061269e565b32600090815260036020908152604080832089845290915290205415610dce5760405162461bcd60e51b8152600401610352906126c9565b600082516001600160401b03811115610de957610de9611cfe565b604051908082528060200260200182016040528015610e4257816020015b610e2f604051806060016040528060008152602001600061ffff168152602001600081525090565b815260200190600190039081610e075790505b50905060005b8351811015610ea357610e73848281518110610e6657610e66612842565b60200260200101516104ac565b828281518110610e8557610e85612842565b60200260200101819052508080610e9b90612858565b915050610e48565b5042326001600160a01b03167f13e7b1ce6401b1c66a682bf6fe4cb7778c3a20beed5ce4e21a78db374f16e5c283604051610ede919061247e565b60405180910390a36040518060c00160405280888152602001876001600160401b031681526020014281526020018681526020018581526020018481525060036000326001600160a01b03166001600160a01b0316815260200190815260200160002060008981526020019081526020016000206000820151816000015560208201518160010160006101000a8154816001600160401b0302191690836001600160401b03160217905550604082015181600201556060820151816003019081610fa89190612783565b5060808201516004820190610fbd9082612783565b5060a08201518051610fd9916005840191602090910190611c9e565b5050600480546001810182556000919091527f8a35acfbc15ff81a39ae7d344fd709f28e8600b4aa8c65c6b64bfe7fe36bd19b019790975550505050505050565b6006546060906000906001600160401b0381111561103a5761103a611cfe565b60405190808252806020026020018201604052801561107357816020015b611060611c58565b8152602001906001900390816110585790505b50905060005b6006548110156112605732600090815260056020526040812060068054919291849081106110a9576110a9612842565b906000526020600020015481526020019081526020016000206040518060e001604052908160008201548152602001600182015481526020016002820180546110f190612700565b80601f016020809104026020016040519081016040528092919081815260200182805461111d90612700565b801561116a5780601f1061113f5761010080835404028352916020019161116a565b820191906000526020600020905b81548152906001019060200180831161114d57829003601f168201915b505050918352505060038201546001600160401b03166020820152600482015460408201526005820180546060909201916111a490612700565b80601f01602080910402602001604051908101604052809291908181526020018280546111d090612700565b801561121d5780601f106111f25761010080835404028352916020019161121d565b820191906000526020600020905b81548152906001019060200180831161120057829003601f168201915b5050505050815260200160068201548152505082828151811061124257611242612842565b6020026020010181905250808061125890612858565b915050611079565b50919050565b6006546060906000906001600160401b0381111561128657611286611cfe565b6040519080825280602002602001820160405280156112bf57816020015b6112ac611c58565b8152602001906001900390816112a45790505b50905060005b6006548110156114f5573260009081526005602052604081206006805487939190859081106112f6576112f6612842565b9060005260206000200154815260200190815260200160002060010154036114e357326000908152600560205260408120600680549192918490811061133e5761133e612842565b906000526020600020015481526020019081526020016000206040518060e0016040529081600082015481526020016001820154815260200160028201805461138690612700565b80601f01602080910402602001604051908101604052809291908181526020018280546113b290612700565b80156113ff5780601f106113d4576101008083540402835291602001916113ff565b820191906000526020600020905b8154815290600101906020018083116113e257829003601f168201915b505050918352505060038201546001600160401b031660208201526004820154604082015260058201805460609092019161143990612700565b80601f016020809104026020016040519081016040528092919081815260200182805461146590612700565b80156114b25780601f10611487576101008083540402835291602001916114b2565b820191906000526020600020905b81548152906001019060200180831161149557829003601f168201915b505050505081526020016006820154815250508282815181106114d7576114d7612842565b60200260200101819052505b806114ed81612858565b9150506112c5565b5092915050565b6002546060906000906001600160401b0381111561151c5761151c611cfe565b60405190808252806020026020018201604052801561157557816020015b611562604051806060016040528060008152602001600061ffff168152602001600081525090565b81526020019060019003908161153a5790505b50905060005b6002548110156112605732600090815260016020526040812060028054919291849081106115ab576115ab612842565b600091825260208083209091015483528281019390935260409182019020815160608101835281548152600182015461ffff16938101939093526002015490820152825183908390811061160157611601612842565b6020026020010181905250808061161790612858565b91505061157b565b6004546060906000906001600160401b0381111561163f5761163f611cfe565b6040519080825280602002602001820160405280156116b257816020015b61169f6040518060c001604052806000815260200160006001600160401b03168152602001600081526020016060815260200160608152602001606081525090565b81526020019060019003908161165d5790505b50905060005b6004548110156112605732600090815260036020526040812060048054919291849081106116e8576116e8612842565b906000526020600020015481526020019081526020016000206040518060c0016040529081600082015481526020016001820160009054906101000a90046001600160401b03166001600160401b03166001600160401b031681526020016002820154815260200160038201805461175f90612700565b80601f016020809104026020016040519081016040528092919081815260200182805461178b90612700565b80156117d85780601f106117ad576101008083540402835291602001916117d8565b820191906000526020600020905b8154815290600101906020018083116117bb57829003601f168201915b505050505081526020016004820180546117f190612700565b80601f016020809104026020016040519081016040528092919081815260200182805461181d90612700565b801561186a5780601f1061183f5761010080835404028352916020019161186a565b820191906000526020600020905b81548152906001019060200180831161184d57829003601f168201915b50505050508152602001600582018054806020026020016040519081016040528092919081815260200182805480156118c257602002820191906000526020600020905b8154815260200190600101908083116118ae575b5050505050815250508282815181106118dd576118dd612842565b602002602001018190525080806118f390612858565b9150506116b8565b81846001600160a01b0316326001600160a01b03167f8935efbb64117f427c3b5bb8ba6478680d8c331971be8169548207e1854ae11d868560405161194192919061287f565b60405180910390a450505050565b8080604051602001611961919061260c565b60408051808303601f190181529082905280516020909101206008546365f68c8960e01b835232600484015290916001600160a01b03909116906365f68c8990602401600060405180830381865afa1580156119c1573d6000803e3d6000fd5b505050506040513d6000823e601f3d908101601f191682016040526119e99190810190612628565b6040516020016119f9919061260c565b6040516020818303038152906040528051906020012014611a2c5760405162461bcd60e51b81526004016103529061269e565b60005b8351811015610a84576001600080868481518110611a4f57611a4f612842565b6020908102919091018101516001600160a01b03168252810191909152604001600020805460ff191691151591909117905580611a8b81612858565b915050611a2f565b8080604051602001611aa5919061260c565b60408051808303601f190181529082905280516020909101206008546365f68c8960e01b835232600484015290916001600160a01b03909116906365f68c8990602401600060405180830381865afa158015611b05573d6000803e3d6000fd5b505050506040513d6000823e601f3d908101601f19168201604052611b2d9190810190612628565b604051602001611b3d919061260c565b6040516020818303038152906040528051906020012014611b705760405162461bcd60e51b81526004016103529061269e565b32600090815260016020908152604080832087845290915290205415611bd05760405162461bcd60e51b8152602060048201526015602482015274436f6c6d656961206a61206361646173747261646160581b6044820152606401610352565b50506040805160608101825283815261ffff9283166020808301918252428385019081523260009081526001808452868220898352909352948520935184559151838201805461ffff19169190961617909455516002918201558054928301815590527f405787fa12a823e0f2b7631cc41b3ba8828b3321ca811111fa75cd3aa3bb5ace0155565b6040518060e0016040528060008152602001600081526020016060815260200160006001600160401b031681526020016000815260200160608152602001600081525090565b828054828255906000526020600020908101928215611cd9579160200282015b82811115611cd9578251825591602001919060010190611cbe565b50611ce5929150611ce9565b5090565b5b80821115611ce55760008155600101611cea565b634e487b7160e01b600052604160045260246000fd5b60405160e081016001600160401b0381118282101715611d3657611d36611cfe565b60405290565b604051601f8201601f191681016001600160401b0381118282101715611d6457611d64611cfe565b604052919050565b60006001600160401b03821115611d8557611d85611cfe565b50601f01601f191660200190565b6000611da6611da184611d6c565b611d3c565b9050828152838383011115611dba57600080fd5b828260208301376000602084830101529392505050565b600082601f830112611de257600080fd5b611df183833560208501611d93565b9392505050565b80356001600160401b0381168114611e0f57600080fd5b919050565b600060e08284031215611e2657600080fd5b611e2e611d14565b9050813581526020820135602082015260408201356001600160401b0380821115611e5857600080fd5b611e6485838601611dd1565b6040840152611e7560608501611df8565b60608401526080840135608084015260a0840135915080821115611e9857600080fd5b50611ea584828501611dd1565b60a08301525060c082013560c082015292915050565b60008060408385031215611ece57600080fd5b82356001600160401b0380821115611ee557600080fd5b611ef186838701611e14565b93506020850135915080821115611f0757600080fd5b50611f1485828601611dd1565b9150509250929050565b600060208284031215611f3057600080fd5b5035919050565b8151815260208083015161ffff16908201526040808301519082015260608101610726565b60005b83811015611f77578181015183820152602001611f5f565b50506000910152565b60008151808452611f98816020860160208601611f5c565b601f01601f19169290920160200192915050565b80518252602081015160208301526000604082015160e06040850152611fd560e0850182611f80565b90506001600160401b0360608401511660608501526080830151608085015260a083015184820360a086015261200b8282611f80565b91505060c083015160c08501528091505092915050565b602081526000611df16020830184611fac565b60006001600160401b0382111561204e5761204e611cfe565b5060051b60200190565b6000806040838503121561206b57600080fd5b82356001600160401b038082111561208257600080fd5b818501915085601f83011261209657600080fd5b813560206120a6611da183612035565b82815260059290921b840181019181810190898411156120c557600080fd5b8286015b848110156120fd578035868111156120e15760008081fd5b6120ef8c86838b0101611e14565b8452509183019183016120c9565b5096505086013592505080821115611f0757600080fd5b602081526000611df16020830184611f80565b80518252600060206001600160401b0381840151168185015260408301516040850152606083015160c0606086015261216360c0860182611f80565b90506080840151858203608087015261217c8282611f80565b60a086810151888303918901919091528051808352908501935060009250908401905b808310156121bf578351825292840192600192909201919084019061219f565b509695505050505050565b602081526000611df16020830184612127565b80356001600160a01b0381168114611e0f57600080fd5b6000806040838503121561220757600080fd5b82356001600160401b038082111561221e57600080fd5b818501915085601f83011261223257600080fd5b81356020612242611da183612035565b82815260059290921b8401810191818101908984111561226157600080fd5b948201945b8386101561228657612277866121dd565b82529482019490820190612266565b96505086013592505080821115611f0757600080fd5b600080604083850312156122af57600080fd5b82356001600160401b03808211156122c657600080fd5b6122d286838701611dd1565b935060208501359150808211156122e857600080fd5b50611f1485828601611e14565b60208152816020820152818360408301376000818301604090810191909152601f909201601f19160101919050565b600080600080600060a0868803121561233c57600080fd5b85359450602061234d818801611df8565b945060408701356001600160401b038082111561236957600080fd5b6123758a838b01611dd1565b9550606089013591508082111561238b57600080fd5b6123978a838b01611dd1565b945060808901359150808211156123ad57600080fd5b508701601f810189136123bf57600080fd5b80356123cd611da182612035565b81815260059190911b8201830190838101908b8311156123ec57600080fd5b928401925b8284101561240a578335825292840192908401906123f1565b80955050505050509295509295909350565b6000602080830181845280855180835260408601915060408160051b870101925083870160005b8281101561247157603f1988860301845261245f858351611fac565b94509285019290850190600101612443565b5092979650505050505050565b6020808252825182820181905260009190848201906040850190845b818110156124d8576124c58385518051825260208082015161ffff1690830152604090810151910152565b928401926060929092019160010161249a565b50909695505050505050565b6000602080830181845280855180835260408601915060408160051b870101925083870160005b8281101561247157603f19888603018452612527858351612127565b9450928501929085019060010161250b565b6000806000806080858703121561254f57600080fd5b612558856121dd565b9350602085013592506040850135915060608501356001600160401b0381111561258157600080fd5b8501601f8101871361259257600080fd5b6125a187823560208401611d93565b91505092959194509250565b6000806000606084860312156125c257600080fd5b83359250602084013561ffff811681146125db57600080fd5b915060408401356001600160401b038111156125f657600080fd5b61260286828701611dd1565b9150509250925092565b6000825161261e818460208701611f5c565b9190910192915050565b60006020828403121561263a57600080fd5b81516001600160401b0381111561265057600080fd5b8201601f8101841361266157600080fd5b805161266f611da182611d6c565b81815285602083850101111561268457600080fd5b612695826020830160208601611f5c565b95945050505050565b6020808252601190820152705065726d697373616f206e65676164612160781b604082015260600190565b6020808252601f908201527f436f6469676f20646f2070726f6475746f206a61206361646173747261646f00604082015260600190565b600181811c9082168061271457607f821691505b60208210810361126057634e487b7160e01b600052602260045260246000fd5b601f82111561277e57600081815260208120601f850160051c8101602086101561275b5750805b601f850160051c820191505b8181101561277a57828155600101612767565b5050505b505050565b81516001600160401b0381111561279c5761279c611cfe565b6127b0816127aa8454612700565b84612734565b602080601f8311600181146127e557600084156127cd5750858301515b600019600386901b1c1916600185901b17855561277a565b600085815260208120601f198616915b82811015612814578886015182559484019460019091019084016127f5565b50858210156128325787850151600019600388901b60f8161c191681555b5050505050600190811b01905550565b634e487b7160e01b600052603260045260246000fd5b60006001820161287857634e487b7160e01b600052601160045260246000fd5b5060010190565b8281526040602082015260006128986040830184611f80565b94935050505056fea264697066735822122042979b88559c67eed936e8b069364b5891e19eebe648c54ffe658891f08d53af64736f6c63430008110033",
  "immutableReferences": {},
  "source": "// SPDX-License-Identifier: MIT\r\n\r\npragma solidity ^0.8.17;\r\n\r\nimport \"./Authentication.sol\";\r\n\r\nstruct Colmeia {\r\n    uint256 colmeiaId;\r\n    uint16 melProduzido;\r\n    uint256 dateColeta;\r\n}\r\nstruct Production {\r\n    uint256 id;\r\n    uint64 WeightTotal;\r\n    uint256 date;\r\n    string localization;\r\n    string apicultorId;\r\n    uint256[] colmeiasId;\r\n}\r\n\r\nstruct Honey {\r\n    uint256 codigo;\r\n    uint256 lote;\r\n    string especializacao;\r\n    uint64 peso;\r\n    uint256 data;\r\n    string localizacao;\r\n    uint256 producaoId;\r\n}\r\n\r\ncontract RegistrarProducao {\r\n    mapping(address => bool) OWNER;\r\n\r\n    mapping(address => mapping(uint256 => Colmeia)) colmeias;\r\n    uint256[] colmeiaId;\r\n\r\n    mapping(address => mapping(uint256 => Production)) productionList;\r\n    uint256[] productionListId;\r\n\r\n    //LoteProduction[] public productionList;\r\n    mapping(address => mapping(uint256 => Honey)) product;\r\n    uint256[] productCode;\r\n\r\n    // Eventos do contrato\r\n    event Coleta(\r\n        address indexed OWNER,\r\n        Colmeia[] colmeias,\r\n        uint256 indexed date\r\n    );\r\n    event Enxame(address OWNER, Colmeia colmeia, uint256 date);\r\n\r\n    event Transfer(\r\n        address indexed _sender,\r\n        address indexed _recipient,\r\n        uint256 produtionId,\r\n        uint256 indexed lote,\r\n        bytes signature\r\n    );\r\n\r\n    address contractAuthentication;\r\n    Authentication instance;\r\n\r\n    constructor(address _contract) {\r\n        contractAuthentication = _contract;\r\n        instance = Authentication(contractAuthentication);\r\n    }\r\n\r\n    // Verifica se o endereo que esta chamando o contrato possui permisao para modificar o estado da rede\r\n    modifier onlyOWNER(string memory _id) {\r\n        require(\r\n            keccak256(abi.encodePacked(instance.getId(tx.origin))) ==\r\n                keccak256(abi.encodePacked(_id)),\r\n            \"Permissao negada!\"\r\n        );\r\n        _;\r\n    }\r\n\r\n    function updateColmeia(\r\n        uint256 _colmeiaId,\r\n        uint16 _melProduzido,\r\n        string memory _userId\r\n    ) public onlyOWNER(_userId) {\r\n        require(\r\n            colmeias[tx.origin][_colmeiaId].colmeiaId == 0,\r\n            \"Colmeia ja cadastrada\"\r\n        );\r\n\r\n        colmeias[tx.origin][_colmeiaId] = Colmeia(\r\n            _colmeiaId,\r\n            _melProduzido,\r\n            block.timestamp\r\n        );\r\n\r\n        colmeiaId.push(_colmeiaId);\r\n    }\r\n\r\n    function listColmeias() public view returns (Colmeia[] memory) {\r\n        Colmeia[] memory colmeia = new Colmeia[](colmeiaId.length);\r\n        for (uint256 i = 0; i < colmeiaId.length; i++) {\r\n            colmeia[i] = colmeias[tx.origin][colmeiaId[i]];\r\n        }\r\n        return colmeia;\r\n    }\r\n\r\n    function getColmeiaById(uint256 _colmeiaId)\r\n        public\r\n        view\r\n        returns (Colmeia memory)\r\n    {\r\n        return colmeias[tx.origin][_colmeiaId];\r\n    }\r\n\r\n    function registerProduction(\r\n        uint256 _id,\r\n        uint64 _peso,\r\n        string memory _localizacao,\r\n        string memory _apicultorId,\r\n        uint256[] memory _colmeiasId\r\n    ) public onlyOWNER(_apicultorId) {\r\n        require(\r\n            productionList[tx.origin][_id].id == 0,\r\n            \"Codigo do produto ja cadastrado\"\r\n        );\r\n        Colmeia[] memory colmeia = new Colmeia[](_colmeiasId.length);\r\n        for (uint256 i = 0; i < _colmeiasId.length; i++) {\r\n            colmeia[i] = getColmeiaById(_colmeiasId[i]);\r\n        }\r\n\r\n        emit Coleta(tx.origin, colmeia, block.timestamp);\r\n\r\n        productionList[tx.origin][_id] = Production(\r\n            _id,\r\n            _peso,\r\n            block.timestamp,\r\n            _localizacao,\r\n            _apicultorId,\r\n            _colmeiasId\r\n        );\r\n        productionListId.push(_id);\r\n    }\r\n\r\n    function listProduction() public view returns (Production[] memory) {\r\n        Production[] memory production = new Production[](\r\n            productionListId.length\r\n        );\r\n        for (uint256 i = 0; i < productionListId.length; i++) {\r\n            production[i] = productionList[tx.origin][productionListId[i]];\r\n        }\r\n        return production;\r\n    }\r\n\r\n    // Retorna os dados de uma produo passando o ID.\r\n    function getProductionById(uint256 _id)\r\n        public\r\n        view\r\n        returns (Production memory)\r\n    {\r\n        return productionList[tx.origin][_id];\r\n    }\r\n\r\n    // Registrar uma unidade de prouto beneficiado\r\n    function registerProduct(string memory _user, Honey memory _honey)\r\n        public\r\n        onlyOWNER(_user)\r\n        returns (string calldata)\r\n    {\r\n        require(\r\n            product[tx.origin][_honey.codigo].codigo == 0,\r\n            \"Codigo do produto ja cadastrado\"\r\n        );\r\n\r\n        product[tx.origin][_honey.codigo] = Honey(\r\n            _honey.codigo,\r\n            _honey.codigo,\r\n            _honey.especializacao,\r\n            _honey.peso,\r\n            block.timestamp,\r\n            _honey.localizacao,\r\n            _honey.producaoId\r\n        );\r\n        productCode.push(_honey.codigo);\r\n        return string(msg.data);\r\n    }\r\n\r\n    function registerProduct2(Honey memory _honey, string memory _user)\r\n        public\r\n        onlyOWNER(_user)\r\n    {\r\n        require(\r\n            product[tx.origin][_honey.codigo].codigo == 0,\r\n            \"Codigo do produto ja cadastrado\"\r\n        );\r\n\r\n        product[tx.origin][_honey.codigo] = Honey(\r\n            _honey.codigo,\r\n            _honey.lote,\r\n            _honey.especializacao,\r\n            _honey.peso,\r\n            block.timestamp,\r\n            _honey.localizacao,\r\n            _honey.producaoId\r\n        );\r\n        productCode.push(_honey.codigo);\r\n    }\r\n\r\n    // Registrar uma lista de produtos beneficiados e adicionar o lote do produto\r\n    function registerProductList(Honey[] memory _honey, string memory _user)\r\n        public\r\n        returns (string memory)\r\n    {\r\n        for (uint256 i = 0; i < _honey.length; i++) {\r\n            registerProduct2(_honey[i], _user);\r\n        }\r\n\r\n        return \"Produtos registrados!\";\r\n    }\r\n\r\n    // Lista toda a produo do produtor\r\n    function listProduct() public view returns (Honey[] memory) {\r\n        Honey[] memory honey = new Honey[](productCode.length);\r\n        for (uint256 i = 0; i < productCode.length; i++) {\r\n            honey[i] = product[tx.origin][productCode[i]];\r\n        }\r\n        return honey;\r\n    }\r\n\r\n    function listProductBatch(uint256 _batch)\r\n        public\r\n        view\r\n        returns (Honey[] memory)\r\n    {\r\n        Honey[] memory honey = new Honey[](productCode.length);\r\n        for (uint256 i = 0; i < productCode.length; i++) {\r\n            if (product[tx.origin][productCode[i]].lote == _batch)\r\n                honey[i] = product[tx.origin][productCode[i]];\r\n        }\r\n        return honey;\r\n    }\r\n\r\n    // Retorna um produto da lista passando o codigo do produto\r\n    function getProductById(uint256 _codigo)\r\n        public\r\n        view\r\n        returns (Honey memory)\r\n    {\r\n        return product[tx.origin][_codigo];\r\n    }\r\n\r\n    function addLote() public {}\r\n\r\n    function transfer(\r\n        address _recipient,\r\n        uint256 _productionId,\r\n        uint256 _lote,\r\n        bytes memory _signature\r\n    ) public {\r\n        emit Transfer(tx.origin, _recipient, _productionId, _lote, _signature);\r\n    }\r\n\r\n    // Adiciona um address na lista de enderecos do produtor\r\n    function addOWNER(address[] memory _address, string memory _user)\r\n        public\r\n        onlyOWNER(_user)\r\n    {\r\n        for (uint256 i = 0; i < _address.length; i++) {\r\n            OWNER[_address[i]] = true;\r\n        }\r\n    }\r\n\r\n    // Remove um address da lista de enderecos do produtor\r\n    function remOWNER(address[] memory _address, string memory _user)\r\n        public\r\n        onlyOWNER(_user)\r\n    {\r\n        for (uint256 i = 0; i < _address.length; i++) {\r\n            OWNER[_address[i]] = false;\r\n        }\r\n    }\r\n}\r\n",
  "sourcePath": "C:\\Users\\Samuel Brando\\Documents\\Blockchain_App\\backend_blockcahin\\contracts\\RegistrarProducao.sol",
  "compiler": {
    "name": "solc",
    "version": "0.8.17+commit.8df45f5f.Emscripten.clang"
  },
  "schemaVersion": "3.4.10",
  "updatedAt": "2022-11-17T16:27:31.895Z",
  "networkType": "ethereum",
  "devdoc": {
    "kind": "dev",
    "methods": {},
    "version": 1
  },
  "userdoc": {
    "kind": "user",
    "methods": {},
    "version": 1
  }
}