{
  "contractName": "RegistrarProducao",
  "abi": [
    {
      "inputs": [
        {
          "internalType": "address",
          "name": "_contract",
          "type": "address"
        }
      ],
      "stateMutability": "nonpayable",
      "type": "constructor"
    },
    {
      "anonymous": false,
      "inputs": [
        {
          "indexed": true,
          "internalType": "address",
          "name": "OWNER",
          "type": "address"
        },
        {
          "components": [
            {
              "internalType": "uint256",
              "name": "colmeiaId",
              "type": "uint256"
            },
            {
              "internalType": "uint16",
              "name": "melProduzido",
              "type": "uint16"
            },
            {
              "internalType": "uint256",
              "name": "dateColeta",
              "type": "uint256"
            }
          ],
          "indexed": false,
          "internalType": "struct Colmeia[]",
          "name": "colmeias",
          "type": "tuple[]"
        },
        {
          "indexed": true,
          "internalType": "uint256",
          "name": "date",
          "type": "uint256"
        }
      ],
      "name": "Coleta",
      "type": "event"
    },
    {
      "anonymous": false,
      "inputs": [
        {
          "indexed": false,
          "internalType": "address",
          "name": "OWNER",
          "type": "address"
        },
        {
          "components": [
            {
              "internalType": "uint256",
              "name": "colmeiaId",
              "type": "uint256"
            },
            {
              "internalType": "uint16",
              "name": "melProduzido",
              "type": "uint16"
            },
            {
              "internalType": "uint256",
              "name": "dateColeta",
              "type": "uint256"
            }
          ],
          "indexed": false,
          "internalType": "struct Colmeia",
          "name": "colmeia",
          "type": "tuple"
        },
        {
          "indexed": false,
          "internalType": "uint256",
          "name": "date",
          "type": "uint256"
        }
      ],
      "name": "Enxame",
      "type": "event"
    },
    {
      "anonymous": false,
      "inputs": [
        {
          "indexed": true,
          "internalType": "address",
          "name": "_sender",
          "type": "address"
        },
        {
          "indexed": true,
          "internalType": "address",
          "name": "_recipient",
          "type": "address"
        },
        {
          "indexed": false,
          "internalType": "uint256",
          "name": "produtionId",
          "type": "uint256"
        },
        {
          "indexed": true,
          "internalType": "uint256",
          "name": "lote",
          "type": "uint256"
        },
        {
          "indexed": false,
          "internalType": "bytes",
          "name": "signature",
          "type": "bytes"
        }
      ],
      "name": "Transfer",
      "type": "event"
    },
    {
      "inputs": [
        {
          "internalType": "uint256",
          "name": "_colmeiaId",
          "type": "uint256"
        },
        {
          "internalType": "uint16",
          "name": "_melProduzido",
          "type": "uint16"
        },
        {
          "internalType": "address",
          "name": "_userId",
          "type": "address"
        }
      ],
      "name": "updateColmeia",
      "outputs": [],
      "stateMutability": "nonpayable",
      "type": "function"
    },
    {
      "inputs": [],
      "name": "listColmeias",
      "outputs": [
        {
          "components": [
            {
              "internalType": "uint256",
              "name": "colmeiaId",
              "type": "uint256"
            },
            {
              "internalType": "uint16",
              "name": "melProduzido",
              "type": "uint16"
            },
            {
              "internalType": "uint256",
              "name": "dateColeta",
              "type": "uint256"
            }
          ],
          "internalType": "struct Colmeia[]",
          "name": "",
          "type": "tuple[]"
        }
      ],
      "stateMutability": "view",
      "type": "function",
      "constant": true
    },
    {
      "inputs": [
        {
          "internalType": "uint256",
          "name": "_colmeiaId",
          "type": "uint256"
        }
      ],
      "name": "getColmeiaById",
      "outputs": [
        {
          "components": [
            {
              "internalType": "uint256",
              "name": "colmeiaId",
              "type": "uint256"
            },
            {
              "internalType": "uint16",
              "name": "melProduzido",
              "type": "uint16"
            },
            {
              "internalType": "uint256",
              "name": "dateColeta",
              "type": "uint256"
            }
          ],
          "internalType": "struct Colmeia",
          "name": "",
          "type": "tuple"
        }
      ],
      "stateMutability": "view",
      "type": "function",
      "constant": true
    },
    {
      "inputs": [
        {
          "internalType": "uint256",
          "name": "_id",
          "type": "uint256"
        },
        {
          "internalType": "uint64",
          "name": "_peso",
          "type": "uint64"
        },
        {
          "internalType": "string",
          "name": "_localizacao",
          "type": "string"
        },
        {
          "internalType": "address",
          "name": "_apicultorId",
          "type": "address"
        },
        {
          "internalType": "uint256[]",
          "name": "_colmeiasId",
          "type": "uint256[]"
        }
      ],
      "name": "registerProduction",
      "outputs": [],
      "stateMutability": "nonpayable",
      "type": "function"
    },
    {
      "inputs": [],
      "name": "listProduction",
      "outputs": [
        {
          "components": [
            {
              "internalType": "uint256",
              "name": "id",
              "type": "uint256"
            },
            {
              "internalType": "uint64",
              "name": "WeightTotal",
              "type": "uint64"
            },
            {
              "internalType": "uint256",
              "name": "date",
              "type": "uint256"
            },
            {
              "internalType": "string",
              "name": "localization",
              "type": "string"
            },
            {
              "internalType": "address",
              "name": "apicultorId",
              "type": "address"
            },
            {
              "internalType": "uint256[]",
              "name": "colmeiasId",
              "type": "uint256[]"
            }
          ],
          "internalType": "struct Production[]",
          "name": "",
          "type": "tuple[]"
        }
      ],
      "stateMutability": "view",
      "type": "function",
      "constant": true
    },
    {
      "inputs": [
        {
          "internalType": "uint256",
          "name": "_id",
          "type": "uint256"
        }
      ],
      "name": "getProductionById",
      "outputs": [
        {
          "components": [
            {
              "internalType": "uint256",
              "name": "id",
              "type": "uint256"
            },
            {
              "internalType": "uint64",
              "name": "WeightTotal",
              "type": "uint64"
            },
            {
              "internalType": "uint256",
              "name": "date",
              "type": "uint256"
            },
            {
              "internalType": "string",
              "name": "localization",
              "type": "string"
            },
            {
              "internalType": "address",
              "name": "apicultorId",
              "type": "address"
            },
            {
              "internalType": "uint256[]",
              "name": "colmeiasId",
              "type": "uint256[]"
            }
          ],
          "internalType": "struct Production",
          "name": "",
          "type": "tuple"
        }
      ],
      "stateMutability": "view",
      "type": "function",
      "constant": true
    },
    {
      "inputs": [
        {
          "internalType": "address",
          "name": "_user",
          "type": "address"
        },
        {
          "components": [
            {
              "internalType": "uint256",
              "name": "codigo",
              "type": "uint256"
            },
            {
              "internalType": "uint256",
              "name": "lote",
              "type": "uint256"
            },
            {
              "internalType": "string",
              "name": "especializacao",
              "type": "string"
            },
            {
              "internalType": "uint64",
              "name": "peso",
              "type": "uint64"
            },
            {
              "internalType": "uint256",
              "name": "data",
              "type": "uint256"
            },
            {
              "internalType": "string",
              "name": "localizacao",
              "type": "string"
            },
            {
              "internalType": "uint256",
              "name": "producaoId",
              "type": "uint256"
            }
          ],
          "internalType": "struct Honey",
          "name": "_honey",
          "type": "tuple"
        }
      ],
      "name": "registerProduct",
      "outputs": [],
      "stateMutability": "nonpayable",
      "type": "function"
    },
    {
      "inputs": [
        {
          "components": [
            {
              "internalType": "uint256",
              "name": "codigo",
              "type": "uint256"
            },
            {
              "internalType": "uint256",
              "name": "lote",
              "type": "uint256"
            },
            {
              "internalType": "string",
              "name": "especializacao",
              "type": "string"
            },
            {
              "internalType": "uint64",
              "name": "peso",
              "type": "uint64"
            },
            {
              "internalType": "uint256",
              "name": "data",
              "type": "uint256"
            },
            {
              "internalType": "string",
              "name": "localizacao",
              "type": "string"
            },
            {
              "internalType": "uint256",
              "name": "producaoId",
              "type": "uint256"
            }
          ],
          "internalType": "struct Honey",
          "name": "_honey",
          "type": "tuple"
        },
        {
          "internalType": "address",
          "name": "_user",
          "type": "address"
        }
      ],
      "name": "registerProduct2",
      "outputs": [],
      "stateMutability": "nonpayable",
      "type": "function"
    },
    {
      "inputs": [
        {
          "components": [
            {
              "internalType": "uint256",
              "name": "codigo",
              "type": "uint256"
            },
            {
              "internalType": "uint256",
              "name": "lote",
              "type": "uint256"
            },
            {
              "internalType": "string",
              "name": "especializacao",
              "type": "string"
            },
            {
              "internalType": "uint64",
              "name": "peso",
              "type": "uint64"
            },
            {
              "internalType": "uint256",
              "name": "data",
              "type": "uint256"
            },
            {
              "internalType": "string",
              "name": "localizacao",
              "type": "string"
            },
            {
              "internalType": "uint256",
              "name": "producaoId",
              "type": "uint256"
            }
          ],
          "internalType": "struct Honey[]",
          "name": "_honey",
          "type": "tuple[]"
        },
        {
          "internalType": "address",
          "name": "_user",
          "type": "address"
        }
      ],
      "name": "registerProductList",
      "outputs": [
        {
          "internalType": "string",
          "name": "",
          "type": "string"
        }
      ],
      "stateMutability": "nonpayable",
      "type": "function"
    },
    {
      "inputs": [],
      "name": "listProduct",
      "outputs": [
        {
          "components": [
            {
              "internalType": "uint256",
              "name": "codigo",
              "type": "uint256"
            },
            {
              "internalType": "uint256",
              "name": "lote",
              "type": "uint256"
            },
            {
              "internalType": "string",
              "name": "especializacao",
              "type": "string"
            },
            {
              "internalType": "uint64",
              "name": "peso",
              "type": "uint64"
            },
            {
              "internalType": "uint256",
              "name": "data",
              "type": "uint256"
            },
            {
              "internalType": "string",
              "name": "localizacao",
              "type": "string"
            },
            {
              "internalType": "uint256",
              "name": "producaoId",
              "type": "uint256"
            }
          ],
          "internalType": "struct Honey[]",
          "name": "",
          "type": "tuple[]"
        }
      ],
      "stateMutability": "view",
      "type": "function",
      "constant": true
    },
    {
      "inputs": [
        {
          "internalType": "uint256",
          "name": "_batch",
          "type": "uint256"
        }
      ],
      "name": "listProductBatch",
      "outputs": [
        {
          "components": [
            {
              "internalType": "uint256",
              "name": "codigo",
              "type": "uint256"
            },
            {
              "internalType": "uint256",
              "name": "lote",
              "type": "uint256"
            },
            {
              "internalType": "string",
              "name": "especializacao",
              "type": "string"
            },
            {
              "internalType": "uint64",
              "name": "peso",
              "type": "uint64"
            },
            {
              "internalType": "uint256",
              "name": "data",
              "type": "uint256"
            },
            {
              "internalType": "string",
              "name": "localizacao",
              "type": "string"
            },
            {
              "internalType": "uint256",
              "name": "producaoId",
              "type": "uint256"
            }
          ],
          "internalType": "struct Honey[]",
          "name": "",
          "type": "tuple[]"
        }
      ],
      "stateMutability": "view",
      "type": "function",
      "constant": true
    },
    {
      "inputs": [
        {
          "internalType": "uint256",
          "name": "_codigo",
          "type": "uint256"
        }
      ],
      "name": "getProductById",
      "outputs": [
        {
          "components": [
            {
              "internalType": "uint256",
              "name": "codigo",
              "type": "uint256"
            },
            {
              "internalType": "uint256",
              "name": "lote",
              "type": "uint256"
            },
            {
              "internalType": "string",
              "name": "especializacao",
              "type": "string"
            },
            {
              "internalType": "uint64",
              "name": "peso",
              "type": "uint64"
            },
            {
              "internalType": "uint256",
              "name": "data",
              "type": "uint256"
            },
            {
              "internalType": "string",
              "name": "localizacao",
              "type": "string"
            },
            {
              "internalType": "uint256",
              "name": "producaoId",
              "type": "uint256"
            }
          ],
          "internalType": "struct Honey",
          "name": "",
          "type": "tuple"
        }
      ],
      "stateMutability": "view",
      "type": "function",
      "constant": true
    },
    {
      "inputs": [],
      "name": "addLote",
      "outputs": [],
      "stateMutability": "nonpayable",
      "type": "function"
    },
    {
      "inputs": [
        {
          "internalType": "address",
          "name": "_recipient",
          "type": "address"
        },
        {
          "internalType": "uint256",
          "name": "_productionId",
          "type": "uint256"
        },
        {
          "internalType": "uint256",
          "name": "_lote",
          "type": "uint256"
        },
        {
          "internalType": "bytes",
          "name": "_signature",
          "type": "bytes"
        }
      ],
      "name": "transfer",
      "outputs": [],
      "stateMutability": "nonpayable",
      "type": "function"
    },
    {
      "inputs": [
        {
          "internalType": "address[]",
          "name": "_address",
          "type": "address[]"
        },
        {
          "internalType": "address",
          "name": "_user",
          "type": "address"
        }
      ],
      "name": "addOWNER",
      "outputs": [],
      "stateMutability": "nonpayable",
      "type": "function"
    },
    {
      "inputs": [
        {
          "internalType": "address[]",
          "name": "_address",
          "type": "address[]"
        },
        {
          "internalType": "address",
          "name": "_user",
          "type": "address"
        }
      ],
      "name": "remOWNER",
      "outputs": [],
      "stateMutability": "nonpayable",
      "type": "function"
    }
  ],
  "bytecode": "0x60806040523480156200001157600080fd5b506040516200278f3803806200278f833981016040819052620000349162000064565b600780546001600160a01b039092166001600160a01b031992831681179091556008805490921617905562000096565b6000602082840312156200007757600080fd5b81516001600160a01b03811681146200008f57600080fd5b9392505050565b6126e980620000a66000396000f3fe608060405234801561001057600080fd5b50600436106101005760003560e01c806391e4eac811610097578063c8282bbe11610066578063c8282bbe14610219578063c8cad8751461022c578063dabd76e914610241578063ef0d50f81461025457600080fd5b806391e4eac8146101cb57806397585989146101e0578063995c266b146101f3578063a31b7bbc1461020657600080fd5b80634ec9978f116100d35780634ec9978f146101705780635c5d05a71461018357806369fdd625146101a35780637153d3ca146101b857600080fd5b80630db28cd31461010557806325cdd651146101075780632f333732146101305780633f70c2b414610150575b600080fd5b005b61011a610115366004611bf7565b610267565b6040516101279190611c10565b60405180910390f35b61014361013e366004611e1e565b6102d7565b6040516101279190611f2b565b61016361015e366004611bf7565b61034f565b6040516101279190611fb4565b61010561017e366004611fc7565b6104e7565b610196610191366004611bf7565b610638565b604051610127919061210b565b6101ab610790565b604051610127919061211e565b6101ab6101c6366004611bf7565b6109dc565b6101d3610c72565b6040516101279190612180565b6101056101ee3660046121e6565b610d95565b610105610201366004612233565b610fd0565b610105610214366004612280565b61120e565b610105610227366004612364565b611590565b610234611753565b60405161012791906123a9565b61010561024f3660046123fe565b611973565b610105610262366004611fc7565b6119c7565b61028f604051806060016040528060008152602001600061ffff168152602001600081525090565b50326000908152600160208181526040808420948452938152918390208351606081018552815481529181015461ffff16928201929092526002909101549181019190915290565b606060005b835181101561031a576103088482815181106102fa576102fa612472565b602002602001015184610fd0565b8061031281612488565b9150506102dc565b505060408051808201909152601581527450726f6475746f73207265676973747261646f732160581b60208201525b92915050565b610357611b09565b336000908152600560209081526040808320858452825291829020825160e0810184528154815260018201549281019290925260028101805492939192918401916103a1906124af565b80601f01602080910402602001604051908101604052809291908181526020018280546103cd906124af565b801561041a5780601f106103ef5761010080835404028352916020019161041a565b820191906000526020600020905b8154815290600101906020018083116103fd57829003601f168201915b505050918352505060038201546001600160401b0316602082015260048201546040820152600582018054606090920191610454906124af565b80601f0160208091040260200160405190810160405280929190818152602001828054610480906124af565b80156104cd5780601f106104a2576101008083540402835291602001916104cd565b820191906000526020600020905b8154815290600101906020018083116104b057829003601f168201915b505050505081526020016006820154815250509050919050565b80806040516020016104f991906124e3565b60408051808303601f19018152908290528051602090910120600854630152113160e31b83526001600160a01b0384811660048501529192911690630a90898890602401602060405180830381865afa15801561055a573d6000803e3d6000fd5b505050506040513d601f19601f8201168201806040525081019061057e9190612500565b60405190151560f81b602082015260210160405160208183030381529060405280519060200120146105cb5760405162461bcd60e51b81526004016105c290612522565b60405180910390fd5b60005b83518110156106325760016000808684815181106105ee576105ee612472565b6020908102919091018101516001600160a01b03168252810191909152604001600020805460ff19169115159190911790558061062a81612488565b9150506105ce565b50505050565b610640611b4f565b326000908152600360208181526040808420868552825292839020835160c0810185528154815260018201546001600160401b031692810192909252600281015493820193909352908201805491929160608401919061069f906124af565b80601f01602080910402602001604051908101604052809291908181526020018280546106cb906124af565b80156107185780601f106106ed57610100808354040283529160200191610718565b820191906000526020600020905b8154815290600101906020018083116106fb57829003601f168201915b505050918352505060048201546001600160a01b0316602080830191909152600583018054604080518285028101850182528281529401939283018282801561078057602002820191906000526020600020905b81548152602001906001019080831161076c575b5050505050815250509050919050565b6006546060906000906001600160401b038111156107b0576107b0611c35565b6040519080825280602002602001820160405280156107e957816020015b6107d6611b09565b8152602001906001900390816107ce5790505b50905060005b6006548110156109d657336000908152600560205260408120600680549192918490811061081f5761081f612472565b906000526020600020015481526020019081526020016000206040518060e00160405290816000820154815260200160018201548152602001600282018054610867906124af565b80601f0160208091040260200160405190810160405280929190818152602001828054610893906124af565b80156108e05780601f106108b5576101008083540402835291602001916108e0565b820191906000526020600020905b8154815290600101906020018083116108c357829003601f168201915b505050918352505060038201546001600160401b031660208201526004820154604082015260058201805460609092019161091a906124af565b80601f0160208091040260200160405190810160405280929190818152602001828054610946906124af565b80156109935780601f1061096857610100808354040283529160200191610993565b820191906000526020600020905b81548152906001019060200180831161097657829003601f168201915b505050505081526020016006820154815250508282815181106109b8576109b8612472565b602002602001018190525080806109ce90612488565b9150506107ef565b50919050565b6006546060906000906001600160401b038111156109fc576109fc611c35565b604051908082528060200260200182016040528015610a3557816020015b610a22611b09565b815260200190600190039081610a1a5790505b50905060005b600654811015610c6b57336000908152600560205260408120600680548793919085908110610a6c57610a6c612472565b906000526020600020015481526020019081526020016000206001015403610c59573360009081526005602052604081206006805491929184908110610ab457610ab4612472565b906000526020600020015481526020019081526020016000206040518060e00160405290816000820154815260200160018201548152602001600282018054610afc906124af565b80601f0160208091040260200160405190810160405280929190818152602001828054610b28906124af565b8015610b755780601f10610b4a57610100808354040283529160200191610b75565b820191906000526020600020905b815481529060010190602001808311610b5857829003601f168201915b505050918352505060038201546001600160401b0316602082015260048201546040820152600582018054606090920191610baf906124af565b80601f0160208091040260200160405190810160405280929190818152602001828054610bdb906124af565b8015610c285780601f10610bfd57610100808354040283529160200191610c28565b820191906000526020600020905b815481529060010190602001808311610c0b57829003601f168201915b50505050508152602001600682015481525050828281518110610c4d57610c4d612472565b60200260200101819052505b80610c6381612488565b915050610a3b565b5092915050565b6002546060906000906001600160401b03811115610c9257610c92611c35565b604051908082528060200260200182016040528015610ceb57816020015b610cd8604051806060016040528060008152602001600061ffff168152602001600081525090565b815260200190600190039081610cb05790505b50905060005b6002548110156109d6573260009081526001602052604081206002805491929184908110610d2157610d21612472565b600091825260208083209091015483528281019390935260409182019020815160608101835281548152600182015461ffff169381019390935260020154908201528251839083908110610d7757610d77612472565b60200260200101819052508080610d8d90612488565b915050610cf1565b8180604051602001610da791906124e3565b60408051808303601f19018152908290528051602090910120600854630152113160e31b83526001600160a01b0384811660048501529192911690630a90898890602401602060405180830381865afa158015610e08573d6000803e3d6000fd5b505050506040513d601f19601f82011682018060405250810190610e2c9190612500565b60405190151560f81b60208201526021016040516020818303038152906040528051906020012014610e705760405162461bcd60e51b81526004016105c290612522565b6001600160a01b03831660009081526005602090815260408083208551845290915290205415610eb25760405162461bcd60e51b81526004016105c29061254d565b6040805160e0810182528351815283516020808301918252858401518385019081526060808801516001600160401b03169085015242608085015260a0808801519085015260c080880151908501526001600160a01b03881660009081526005835285812088518252909252939020825181559051600182015591519091906002820190610f4090826125d3565b50606082015160038201805467ffffffffffffffff19166001600160401b039092169190911790556080820151600482015560a08201516005820190610f8690826125d3565b5060c09190910151600691820155915182546001810184556000939093527ff652222313e28459528d920b65115c16c04f3efc82aaedc97be59f3f377c0d3f909201919091555050565b8080604051602001610fe291906124e3565b60408051808303601f19018152908290528051602090910120600854630152113160e31b83526001600160a01b0384811660048501529192911690630a90898890602401602060405180830381865afa158015611043573d6000803e3d6000fd5b505050506040513d601f19601f820116820180604052508101906110679190612500565b60405190151560f81b602082015260210160405160208183030381529060405280519060200120146110ab5760405162461bcd60e51b81526004016105c290612522565b6001600160a01b038216600090815260056020908152604080832086518452909152902054156110ed5760405162461bcd60e51b81526004016105c29061254d565b6040805160e08101825284518152602080860151818301908152868401518385019081526060808901516001600160401b03169085015242608085015260a0808901519085015260c080890151908501526001600160a01b038716600090815260058452858120895182529093529390912082518155905160018201559151909190600282019061117e90826125d3565b50606082015160038201805467ffffffffffffffff19166001600160401b039092169190911790556080820151600482015560a082015160058201906111c490826125d3565b5060c09190910151600691820155925183546001810185556000949094527ff652222313e28459528d920b65115c16c04f3efc82aaedc97be59f3f377c0d3f909301929092555050565b818060405160200161122091906124e3565b60408051808303601f19018152908290528051602090910120600854630152113160e31b83526001600160a01b0384811660048501529192911690630a90898890602401602060405180830381865afa158015611281573d6000803e3d6000fd5b505050506040513d601f19601f820116820180604052508101906112a59190612500565b60405190151560f81b602082015260210160405160208183030381529060405280519060200120146112e95760405162461bcd60e51b81526004016105c290612522565b6001600160a01b03831660009081526003602090815260408083208984529091529020541561132a5760405162461bcd60e51b81526004016105c29061254d565b600082516001600160401b0381111561134557611345611c35565b60405190808252806020026020018201604052801561139e57816020015b61138b604051806060016040528060008152602001600061ffff168152602001600081525090565b8152602001906001900390816113635790505b50905060005b83518110156113ff576113cf8482815181106113c2576113c2612472565b6020026020010151610267565b8282815181106113e1576113e1612472565b602002602001018190525080806113f790612488565b9150506113a4565b5042846001600160a01b03167f13e7b1ce6401b1c66a682bf6fe4cb7778c3a20beed5ce4e21a78db374f16e5c28360405161143a9190612180565b60405180910390a36040518060c00160405280888152602001876001600160401b03168152602001428152602001868152602001856001600160a01b031681526020018481525060036000866001600160a01b03166001600160a01b0316815260200190815260200160002060008981526020019081526020016000206000820151816000015560208201518160010160006101000a8154816001600160401b0302191690836001600160401b0316021790555060408201518160020155606082015181600301908161150d91906125d3565b5060808201516004820180546001600160a01b0319166001600160a01b0390921691909117905560a0820151805161154f916005840191602090910190611b97565b5050600480546001810182556000919091527f8a35acfbc15ff81a39ae7d344fd709f28e8600b4aa8c65c6b64bfe7fe36bd19b019790975550505050505050565b80806040516020016115a291906124e3565b60408051808303601f19018152908290528051602090910120600854630152113160e31b83526001600160a01b0384811660048501529192911690630a90898890602401602060405180830381865afa158015611603573d6000803e3d6000fd5b505050506040513d601f19601f820116820180604052508101906116279190612500565b60405190151560f81b6020820152602101604051602081830303815290604052805190602001201461166b5760405162461bcd60e51b81526004016105c290612522565b326000908152600160209081526040808320878452909152902054156116cb5760405162461bcd60e51b8152602060048201526015602482015274436f6c6d656961206a61206361646173747261646160581b60448201526064016105c2565b50506040805160608101825283815261ffff9283166020808301918252428385019081523260009081526001808452868220898352909352948520935184559151838201805461ffff19169190961617909455516002918201558054928301815590527f405787fa12a823e0f2b7631cc41b3ba8828b3321ca811111fa75cd3aa3bb5ace0155565b6004546060906000906001600160401b0381111561177357611773611c35565b6040519080825280602002602001820160405280156117ac57816020015b611799611b4f565b8152602001906001900390816117915790505b50905060005b6004548110156109d65733600090815260036020526040812060048054919291849081106117e2576117e2612472565b906000526020600020015481526020019081526020016000206040518060c0016040529081600082015481526020016001820160009054906101000a90046001600160401b03166001600160401b03166001600160401b0316815260200160028201548152602001600382018054611859906124af565b80601f0160208091040260200160405190810160405280929190818152602001828054611885906124af565b80156118d25780601f106118a7576101008083540402835291602001916118d2565b820191906000526020600020905b8154815290600101906020018083116118b557829003601f168201915b505050918352505060048201546001600160a01b0316602080830191909152600583018054604080518285028101850182528281529401939283018282801561193a57602002820191906000526020600020905b815481526020019060010190808311611926575b50505050508152505082828151811061195557611955612472565b6020026020010181905250808061196b90612488565b9150506117b2565b81846001600160a01b0316336001600160a01b03167f8935efbb64117f427c3b5bb8ba6478680d8c331971be8169548207e1854ae11d86856040516119b9929190612692565b60405180910390a450505050565b80806040516020016119d991906124e3565b60408051808303601f19018152908290528051602090910120600854630152113160e31b83526001600160a01b0384811660048501529192911690630a90898890602401602060405180830381865afa158015611a3a573d6000803e3d6000fd5b505050506040513d601f19601f82011682018060405250810190611a5e9190612500565b60405190151560f81b60208201526021016040516020818303038152906040528051906020012014611aa25760405162461bcd60e51b81526004016105c290612522565b60005b8351811015610632576000806000868481518110611ac557611ac5612472565b6020908102919091018101516001600160a01b03168252810191909152604001600020805460ff191691151591909117905580611b0181612488565b915050611aa5565b6040518060e0016040528060008152602001600081526020016060815260200160006001600160401b031681526020016000815260200160608152602001600081525090565b6040518060c001604052806000815260200160006001600160401b03168152602001600081526020016060815260200160006001600160a01b03168152602001606081525090565b828054828255906000526020600020908101928215611bd2579160200282015b82811115611bd2578251825591602001919060010190611bb7565b50611bde929150611be2565b5090565b5b80821115611bde5760008155600101611be3565b600060208284031215611c0957600080fd5b5035919050565b8151815260208083015161ffff16908201526040808301519082015260608101610349565b634e487b7160e01b600052604160045260246000fd5b60405160e081016001600160401b0381118282101715611c6d57611c6d611c35565b60405290565b604051601f8201601f191681016001600160401b0381118282101715611c9b57611c9b611c35565b604052919050565b60006001600160401b03821115611cbc57611cbc611c35565b5060051b60200190565b60006001600160401b03831115611cdf57611cdf611c35565b611cf2601f8401601f1916602001611c73565b9050828152838383011115611d0657600080fd5b828260208301376000602084830101529392505050565b600082601f830112611d2e57600080fd5b611d3d83833560208501611cc6565b9392505050565b80356001600160401b0381168114611d5b57600080fd5b919050565b600060e08284031215611d7257600080fd5b611d7a611c4b565b9050813581526020820135602082015260408201356001600160401b0380821115611da457600080fd5b611db085838601611d1d565b6040840152611dc160608501611d44565b60608401526080840135608084015260a0840135915080821115611de457600080fd5b50611df184828501611d1d565b60a08301525060c082013560c082015292915050565b80356001600160a01b0381168114611d5b57600080fd5b60008060408385031215611e3157600080fd5b82356001600160401b0380821115611e4857600080fd5b818501915085601f830112611e5c57600080fd5b81356020611e71611e6c83611ca3565b611c73565b82815260059290921b84018101918181019089841115611e9057600080fd5b8286015b84811015611ec857803586811115611eac5760008081fd5b611eba8c86838b0101611d60565b845250918301918301611e94565b509650611ed89050878201611e07565b9450505050509250929050565b6000815180845260005b81811015611f0b57602081850181015186830182015201611eef565b506000602082860101526020601f19601f83011685010191505092915050565b602081526000611d3d6020830184611ee5565b80518252602081015160208301526000604082015160e06040850152611f6760e0850182611ee5565b90506001600160401b0360608401511660608501526080830151608085015260a083015184820360a0860152611f9d8282611ee5565b91505060c083015160c08501528091505092915050565b602081526000611d3d6020830184611f3e565b60008060408385031215611fda57600080fd5b82356001600160401b03811115611ff057600080fd5b8301601f8101851361200157600080fd5b80356020612011611e6c83611ca3565b82815260059290921b8301810191818101908884111561203057600080fd5b938201935b838510156120555761204685611e07565b82529382019390820190612035565b95506120649050868201611e07565b93505050509250929050565b80518252600060206001600160401b0381840151168185015260408301516040850152606083015160c060608601526120ac60c0860182611ee5565b6080858101516001600160a01b03169087015260a08581015187830391880191909152805180835290840192506000918401905b8083101561210057835182529284019260019290920191908401906120e0565b509695505050505050565b602081526000611d3d6020830184612070565b6000602080830181845280855180835260408601915060408160051b870101925083870160005b8281101561217357603f19888603018452612161858351611f3e565b94509285019290850190600101612145565b5092979650505050505050565b6020808252825182820181905260009190848201906040850190845b818110156121da576121c78385518051825260208082015161ffff1690830152604090810151910152565b928401926060929092019160010161219c565b50909695505050505050565b600080604083850312156121f957600080fd5b61220283611e07565b915060208301356001600160401b0381111561221d57600080fd5b61222985828601611d60565b9150509250929050565b6000806040838503121561224657600080fd5b82356001600160401b0381111561225c57600080fd5b61226885828601611d60565b92505061227760208401611e07565b90509250929050565b600080600080600060a0868803121561229857600080fd5b8535945060206122a9818801611d44565b945060408701356001600160401b03808211156122c557600080fd5b6122d18a838b01611d1d565b95506122df60608a01611e07565b945060808901359150808211156122f557600080fd5b508701601f8101891361230757600080fd5b8035612315611e6c82611ca3565b81815260059190911b8201830190838101908b83111561233457600080fd5b928401925b8284101561235257833582529284019290840190612339565b80955050505050509295509295909350565b60008060006060848603121561237957600080fd5b83359250602084013561ffff8116811461239257600080fd5b91506123a060408501611e07565b90509250925092565b6000602080830181845280855180835260408601915060408160051b870101925083870160005b8281101561217357603f198886030184526123ec858351612070565b945092850192908501906001016123d0565b6000806000806080858703121561241457600080fd5b61241d85611e07565b9350602085013592506040850135915060608501356001600160401b0381111561244657600080fd5b8501601f8101871361245757600080fd5b61246687823560208401611cc6565b91505092959194509250565b634e487b7160e01b600052603260045260246000fd5b6000600182016124a857634e487b7160e01b600052601160045260246000fd5b5060010190565b600181811c908216806124c357607f821691505b6020821081036109d657634e487b7160e01b600052602260045260246000fd5b60609190911b6bffffffffffffffffffffffff1916815260140190565b60006020828403121561251257600080fd5b81518015158114611d3d57600080fd5b6020808252601190820152705065726d697373616f206e65676164612160781b604082015260600190565b6020808252601f908201527f436f6469676f20646f2070726f6475746f206a61206361646173747261646f00604082015260600190565b601f8211156125ce57600081815260208120601f850160051c810160208610156125ab5750805b601f850160051c820191505b818110156125ca578281556001016125b7565b5050505b505050565b81516001600160401b038111156125ec576125ec611c35565b612600816125fa84546124af565b84612584565b602080601f831160018114612635576000841561261d5750858301515b600019600386901b1c1916600185901b1785556125ca565b600085815260208120601f198616915b8281101561266457888601518255948401946001909101908401612645565b50858210156126825787850151600019600388901b60f8161c191681555b5050505050600190811b01905550565b8281526040602082015260006126ab6040830184611ee5565b94935050505056fea264697066735822122030c1515cb6e3ae6bf295dd970a5129f33ce45ca66e591970769e5b6b98f69cff64736f6c63430008110033",
  "immutableReferences": {},
  "source": "// SPDX-License-Identifier: MIT\r\n\r\npragma solidity ^0.8.17;\r\n\r\nimport \"./Authentication.sol\";\r\n\r\nstruct Colmeia {\r\n    uint256 colmeiaId;\r\n    uint16 melProduzido;\r\n    uint256 dateColeta;\r\n}\r\nstruct Production {\r\n    uint256 id;\r\n    uint64 WeightTotal;\r\n    uint256 date;\r\n    string localization;\r\n    address apicultorId;\r\n    uint256[] colmeiasId;\r\n}\r\n\r\nstruct Honey {\r\n    uint256 codigo;\r\n    uint256 lote;\r\n    string especializacao;\r\n    uint64 peso;\r\n    uint256 data;\r\n    string localizacao;\r\n    uint256 producaoId;\r\n}\r\n\r\ncontract RegistrarProducao {\r\n    mapping(address => bool) OWNER;\r\n\r\n    mapping(address => mapping(uint256 => Colmeia)) colmeias;\r\n    uint256[] colmeiaId;\r\n\r\n    mapping(address => mapping(uint256 => Production)) productionList;\r\n    uint256[] productionListId;\r\n\r\n    //LoteProduction[] public productionList;\r\n    mapping(address => mapping(uint256 => Honey)) product;\r\n    uint256[] productCode;\r\n\r\n    // Eventos do contrato\r\n    event Coleta(\r\n        address indexed OWNER,\r\n        Colmeia[] colmeias,\r\n        uint256 indexed date\r\n    );\r\n    event Enxame(address OWNER, Colmeia colmeia, uint256 date);\r\n\r\n    event Transfer(\r\n        address indexed _sender,\r\n        address indexed _recipient,\r\n        uint256 produtionId,\r\n        uint256 indexed lote,\r\n        bytes signature\r\n    );\r\n\r\n    address contractAuthentication;\r\n    Authentication instance;\r\n\r\n    constructor(address _contract) {\r\n        contractAuthentication = _contract;\r\n        instance = Authentication(contractAuthentication);\r\n    }\r\n\r\n    // Verifica se o endereo que esta chamando o contrato possui permisao para modificar o estado da rede\r\n    modifier onlyOWNER(address _addr) {\r\n        require(\r\n            keccak256(abi.encodePacked(instance.activeUser(_addr))) ==\r\n                keccak256(abi.encodePacked(_addr)),\r\n            \"Permissao negada!\"\r\n        );\r\n        _;\r\n    }\r\n\r\n    function updateColmeia(\r\n        uint256 _colmeiaId,\r\n        uint16 _melProduzido,\r\n        address _userId\r\n    ) public onlyOWNER(_userId) {\r\n        require(\r\n            colmeias[tx.origin][_colmeiaId].colmeiaId == 0,\r\n            \"Colmeia ja cadastrada\"\r\n        );\r\n\r\n        colmeias[tx.origin][_colmeiaId] = Colmeia(\r\n            _colmeiaId,\r\n            _melProduzido,\r\n            block.timestamp\r\n        );\r\n\r\n        colmeiaId.push(_colmeiaId);\r\n    }\r\n\r\n    function listColmeias() public view returns (Colmeia[] memory) {\r\n        Colmeia[] memory colmeia = new Colmeia[](colmeiaId.length);\r\n        for (uint256 i = 0; i < colmeiaId.length; i++) {\r\n            colmeia[i] = colmeias[tx.origin][colmeiaId[i]];\r\n        }\r\n        return colmeia;\r\n    }\r\n\r\n    function getColmeiaById(\r\n        uint256 _colmeiaId\r\n    ) public view returns (Colmeia memory) {\r\n        return colmeias[tx.origin][_colmeiaId];\r\n    }\r\n\r\n    function registerProduction(\r\n        uint256 _id,\r\n        uint64 _peso,\r\n        string memory _localizacao,\r\n        address _apicultorId,\r\n        uint256[] memory _colmeiasId\r\n    ) public onlyOWNER(_apicultorId) {\r\n        require(\r\n            productionList[_apicultorId][_id].id == 0,\r\n            \"Codigo do produto ja cadastrado\"\r\n        );\r\n        Colmeia[] memory colmeia = new Colmeia[](_colmeiasId.length);\r\n        for (uint256 i = 0; i < _colmeiasId.length; i++) {\r\n            colmeia[i] = getColmeiaById(_colmeiasId[i]);\r\n        }\r\n\r\n        emit Coleta(_apicultorId, colmeia, block.timestamp);\r\n\r\n        productionList[_apicultorId][_id] = Production(\r\n            _id,\r\n            _peso,\r\n            block.timestamp,\r\n            _localizacao,\r\n            _apicultorId,\r\n            _colmeiasId\r\n        );\r\n        productionListId.push(_id);\r\n    }\r\n\r\n    function listProduction() public view returns (Production[] memory) {\r\n        Production[] memory production = new Production[](\r\n            productionListId.length\r\n        );\r\n        for (uint256 i = 0; i < productionListId.length; i++) {\r\n            production[i] = productionList[msg.sender][productionListId[i]];\r\n        }\r\n        return production;\r\n    }\r\n\r\n    // Retorna os dados de uma produo passando o ID.\r\n    function getProductionById(\r\n        uint256 _id\r\n    ) public view returns (Production memory) {\r\n        return productionList[tx.origin][_id];\r\n    }\r\n\r\n    // Registrar uma unidade de prouto beneficiado\r\n    function registerProduct(\r\n        address _user,\r\n        Honey memory _honey\r\n    ) public onlyOWNER(_user) {\r\n        require(\r\n            product[_user][_honey.codigo].codigo == 0,\r\n            \"Codigo do produto ja cadastrado\"\r\n        );\r\n\r\n        product[_user][_honey.codigo] = Honey(\r\n            _honey.codigo,\r\n            _honey.codigo,\r\n            _honey.especializacao,\r\n            _honey.peso,\r\n            block.timestamp,\r\n            _honey.localizacao,\r\n            _honey.producaoId\r\n        );\r\n        productCode.push(_honey.codigo);\r\n    }\r\n\r\n    function registerProduct2(\r\n        Honey memory _honey,\r\n        address _user\r\n    ) public onlyOWNER(_user) {\r\n        require(\r\n            product[_user][_honey.codigo].codigo == 0,\r\n            \"Codigo do produto ja cadastrado\"\r\n        );\r\n\r\n        product[_user][_honey.codigo] = Honey(\r\n            _honey.codigo,\r\n            _honey.lote,\r\n            _honey.especializacao,\r\n            _honey.peso,\r\n            block.timestamp,\r\n            _honey.localizacao,\r\n            _honey.producaoId\r\n        );\r\n        productCode.push(_honey.codigo);\r\n    }\r\n\r\n    // Registrar uma lista de produtos beneficiados e adicionar o lote do produto\r\n    function registerProductList(\r\n        Honey[] memory _honey,\r\n        address _user\r\n    ) public returns (string memory) {\r\n        for (uint256 i = 0; i < _honey.length; i++) {\r\n            registerProduct2(_honey[i], _user);\r\n        }\r\n\r\n        return \"Produtos registrados!\";\r\n    }\r\n\r\n    // Lista toda a produo do produtor\r\n    function listProduct() public view returns (Honey[] memory) {\r\n        Honey[] memory honey = new Honey[](productCode.length);\r\n        for (uint256 i = 0; i < productCode.length; i++) {\r\n            honey[i] = product[msg.sender][productCode[i]];\r\n        }\r\n        return honey;\r\n    }\r\n\r\n    function listProductBatch(\r\n        uint256 _batch\r\n    ) public view returns (Honey[] memory) {\r\n        Honey[] memory honey = new Honey[](productCode.length);\r\n        for (uint256 i = 0; i < productCode.length; i++) {\r\n            if (product[msg.sender][productCode[i]].lote == _batch)\r\n                honey[i] = product[msg.sender][productCode[i]];\r\n        }\r\n        return honey;\r\n    }\r\n\r\n    // Retorna um produto da lista passando o codigo do produto\r\n    function getProductById(\r\n        uint256 _codigo\r\n    ) public view returns (Honey memory) {\r\n        return product[msg.sender][_codigo];\r\n    }\r\n\r\n    function addLote() public {}\r\n\r\n    function transfer(\r\n        address _recipient,\r\n        uint256 _productionId,\r\n        uint256 _lote,\r\n        bytes memory _signature\r\n    ) public {\r\n        emit Transfer(msg.sender, _recipient, _productionId, _lote, _signature);\r\n    }\r\n\r\n    // Adiciona um address na lista de enderecos do produtor\r\n    function addOWNER(\r\n        address[] memory _address,\r\n        address _user\r\n    ) public onlyOWNER(_user) {\r\n        for (uint256 i = 0; i < _address.length; i++) {\r\n            OWNER[_address[i]] = true;\r\n        }\r\n    }\r\n\r\n    // Remove um address da lista de enderecos do produtor\r\n    function remOWNER(\r\n        address[] memory _address,\r\n        address _user\r\n    ) public onlyOWNER(_user) {\r\n        for (uint256 i = 0; i < _address.length; i++) {\r\n            OWNER[_address[i]] = false;\r\n        }\r\n    }\r\n}\r\n",
  "sourcePath": "C:\\Users\\samue\\Documents\\Workspace_react\\BlockForBees\\backend_blockcahin\\contracts\\RegistrarProducao.sol",
  "compiler": {
    "name": "solc",
    "version": "0.8.17+commit.8df45f5f.Emscripten.clang"
  },
  "schemaVersion": "3.4.11",
  "updatedAt": "2023-03-31T23:09:33.964Z",
  "networkType": "ethereum",
  "devdoc": {
    "kind": "dev",
    "methods": {},
    "version": 1
  },
  "userdoc": {
    "kind": "user",
    "methods": {},
    "version": 1
  }
}