{
  "contractName": "RegisterProduction",
  "abi": [
    {
      "inputs": [
        {
          "internalType": "address",
          "name": "_contractAuthentication",
          "type": "address"
        },
        {
          "internalType": "address",
          "name": "_contractUpdateTr",
          "type": "address"
        }
      ],
      "stateMutability": "nonpayable",
      "type": "constructor"
    },
    {
      "anonymous": false,
      "inputs": [
        {
          "indexed": true,
          "internalType": "address",
          "name": "addr",
          "type": "address"
        },
        {
          "indexed": false,
          "internalType": "uint256",
          "name": "colmeiaId",
          "type": "uint256"
        },
        {
          "indexed": false,
          "internalType": "uint256",
          "name": "dateColeta",
          "type": "uint256"
        },
        {
          "indexed": false,
          "internalType": "int256",
          "name": "peso",
          "type": "int256"
        }
      ],
      "name": "Coleta",
      "type": "event"
    },
    {
      "anonymous": false,
      "inputs": [
        {
          "indexed": true,
          "internalType": "address",
          "name": "addr",
          "type": "address"
        },
        {
          "components": [
            {
              "internalType": "uint256",
              "name": "colmeiaId",
              "type": "uint256"
            },
            {
              "internalType": "uint16",
              "name": "melProduzido",
              "type": "uint16"
            },
            {
              "internalType": "uint256",
              "name": "dateColeta",
              "type": "uint256"
            },
            {
              "internalType": "uint256",
              "name": "dateEnxame",
              "type": "uint256"
            }
          ],
          "indexed": true,
          "internalType": "struct Colmeia[]",
          "name": "colmeias",
          "type": "tuple[]"
        }
      ],
      "name": "UpdateColmeia",
      "type": "event"
    },
    {
      "inputs": [
        {
          "internalType": "address",
          "name": "_addr",
          "type": "address"
        },
        {
          "components": [
            {
              "internalType": "uint256",
              "name": "colmeiaId",
              "type": "uint256"
            },
            {
              "internalType": "uint16",
              "name": "melProduzido",
              "type": "uint16"
            },
            {
              "internalType": "uint256",
              "name": "dateColeta",
              "type": "uint256"
            },
            {
              "internalType": "uint256",
              "name": "dateEnxame",
              "type": "uint256"
            }
          ],
          "internalType": "struct Colmeia[]",
          "name": "_colmeias",
          "type": "tuple[]"
        }
      ],
      "name": "updateColmeia",
      "outputs": [],
      "stateMutability": "nonpayable",
      "type": "function"
    },
    {
      "inputs": [
        {
          "internalType": "address",
          "name": "_addr",
          "type": "address"
        },
        {
          "internalType": "string",
          "name": "_apiary",
          "type": "string"
        },
        {
          "internalType": "uint64",
          "name": "_weight",
          "type": "uint64"
        },
        {
          "internalType": "string",
          "name": "_packing",
          "type": "string"
        },
        {
          "internalType": "string",
          "name": "_flowering",
          "type": "string"
        },
        {
          "internalType": "uint256",
          "name": "_date",
          "type": "uint256"
        },
        {
          "internalType": "uint256[]",
          "name": "_colmeiasId",
          "type": "uint256[]"
        }
      ],
      "name": "newTun",
      "outputs": [],
      "stateMutability": "nonpayable",
      "type": "function"
    },
    {
      "inputs": [
        {
          "internalType": "address",
          "name": "_addr",
          "type": "address"
        },
        {
          "internalType": "bytes32[]",
          "name": "_tunId",
          "type": "bytes32[]"
        }
      ],
      "name": "newContainer",
      "outputs": [],
      "stateMutability": "nonpayable",
      "type": "function"
    },
    {
      "inputs": [
        {
          "internalType": "address",
          "name": "_sender",
          "type": "address"
        },
        {
          "internalType": "address",
          "name": "_recipient",
          "type": "address"
        },
        {
          "internalType": "bytes32",
          "name": "_product",
          "type": "bytes32"
        },
        {
          "internalType": "bytes32",
          "name": "_lote",
          "type": "bytes32"
        },
        {
          "internalType": "string",
          "name": "_businessUnitType",
          "type": "string"
        },
        {
          "internalType": "bytes",
          "name": "_signature",
          "type": "bytes"
        }
      ],
      "name": "forwarding",
      "outputs": [],
      "stateMutability": "nonpayable",
      "type": "function"
    }
  ],
  "bytecode": "0x608060405234801561001057600080fd5b50604051610f59380380610f5983398101604081905261002f91610096565b600880546001600160a01b039384166001600160a01b03199182168117909255600980548216909217909155600a8054929093169181168217909255600b80549092161790556100c9565b80516001600160a01b038116811461009157600080fd5b919050565b600080604083850312156100a957600080fd5b6100b28361007a565b91506100c06020840161007a565b90509250929050565b610e81806100d86000396000f3fe608060405234801561001057600080fd5b506004361061004c5760003560e01c806328e5bff7146100515780638bee747e14610066578063e2e8a10614610079578063f51830761461008c575b600080fd5b61006461005f3660046106c1565b61009f565b005b6100646100743660046108b1565b610185565b610064610087366004610989565b610389565b61006461009a366004610a34565b61048c565b600954604051630152113160e31b81526001600160a01b03808516600483015284921690630a90898890602401602060405180830381865afa1580156100e9573d6000803e3d6000fd5b505050506040513d601f19601f8201168201806040525081019061010d9190610ad8565b15156001146101375760405162461bcd60e51b815260040161012e90610afa565b60405180910390fd5b816040516101459190610b25565b604051908190038120906001600160a01b038516907f01c0127e7b724197b227b14d3586b50ebcbf764a7ad3ec1001d58a93fa3dfa4d90600090a3505050565b600954604051630152113160e31b81526001600160a01b03808a16600483015289921690630a90898890602401602060405180830381865afa1580156101cf573d6000803e3d6000fd5b505050506040513d601f19601f820116820180604052508101906101f39190610ad8565b15156001146102145760405162461bcd60e51b815260040161012e90610afa565b6000888888888888886040516020016102339796959493929190610ba3565b60408051808303601f190181528282528051602091820120610100840183528084526001600160a01b038d81168386019081528585018e815267ffffffffffffffff8e166060880152608087018d905260a087018c905260c087018b905260e087018a90526000848152600295869052959095208651815590516001820180546001600160a01b03191691909316179091559251909450908201906102d89082610cdc565b50606082015160038201805467ffffffffffffffff191667ffffffffffffffff909216919091179055608082015160048201906103159082610cdc565b5060a0820151600582019061032a9082610cdc565b5060c0820151600682015560e082015180516103509160078401916020909101906105b1565b5050506001600160a01b039098166000908152600360209081526040822080546001810182559083529120019790975550505050505050565b600954604051630152113160e31b81523360048201819052916001600160a01b031690630a90898890602401602060405180830381865afa1580156103d2573d6000803e3d6000fd5b505050506040513d601f19601f820116820180604052508101906103f69190610ad8565b15156001146104175760405162461bcd60e51b815260040161012e90610afa565b600b5460405163d26b2c7b60e01b81526001600160a01b039091169063d26b2c7b90610451908a908a908a908a908a908a90600401610dc8565b600060405180830381600087803b15801561046b57600080fd5b505af115801561047f573d6000803e3d6000fd5b5050505050505050505050565b600954604051630152113160e31b81526001600160a01b03808516600483015284921690630a90898890602401602060405180830381865afa1580156104d6573d6000803e3d6000fd5b505050506040513d601f19601f820116820180604052508101906104fa9190610ad8565b151560011461051b5760405162461bcd60e51b815260040161012e90610afa565b60008260405160200161052e9190610e21565b60408051601f198184030181528282528051602091820120838301835280845283820187815260008281526004845293909320845181559251805191955061057d9260018501929101906105b1565b5050506001600160a01b03909316600090815260056020908152604082208054600181018255908352912001929092555050565b8280548282559060005260206000209081019282156105ec579160200282015b828111156105ec5782518255916020019190600101906105d1565b506105f89291506105fc565b5090565b5b808211156105f857600081556001016105fd565b80356001600160a01b038116811461062857600080fd5b919050565b634e487b7160e01b600052604160045260246000fd5b6040516080810167ffffffffffffffff811182821017156106665761066661062d565b60405290565b604051601f8201601f1916810167ffffffffffffffff811182821017156106955761069561062d565b604052919050565b600067ffffffffffffffff8211156106b7576106b761062d565b5060051b60200190565b60008060408084860312156106d557600080fd5b6106de84610611565b925060208085013567ffffffffffffffff8111156106fb57600080fd5b8501601f8101871361070c57600080fd5b803561071f61071a8261069d565b61066c565b81815260079190911b8201830190838101908983111561073e57600080fd5b928401925b828410156107a4576080848b03121561075c5760008081fd5b610764610643565b843581528585013561ffff8116811461077d5760008081fd5b81870152848701358782015260608086013590820152825260809093019290840190610743565b8096505050505050509250929050565b600067ffffffffffffffff8311156107ce576107ce61062d565b6107e1601f8401601f191660200161066c565b90508281528383830111156107f557600080fd5b828260208301376000602084830101529392505050565b600082601f83011261081d57600080fd5b61082c838335602085016107b4565b9392505050565b803567ffffffffffffffff8116811461062857600080fd5b600082601f83011261085c57600080fd5b8135602061086c61071a8361069d565b82815260059290921b8401810191818101908684111561088b57600080fd5b8286015b848110156108a6578035835291830191830161088f565b509695505050505050565b600080600080600080600060e0888a0312156108cc57600080fd5b6108d588610611565b9650602088013567ffffffffffffffff808211156108f257600080fd5b6108fe8b838c0161080c565b975061090c60408b01610833565b965060608a013591508082111561092257600080fd5b61092e8b838c0161080c565b955060808a013591508082111561094457600080fd5b6109508b838c0161080c565b945060a08a0135935060c08a013591508082111561096d57600080fd5b5061097a8a828b0161084b565b91505092959891949750929550565b60008060008060008060c087890312156109a257600080fd5b6109ab87610611565b95506109b960208801610611565b94506040870135935060608701359250608087013567ffffffffffffffff808211156109e457600080fd5b6109f08a838b0161080c565b935060a0890135915080821115610a0657600080fd5b508701601f81018913610a1857600080fd5b610a27898235602084016107b4565b9150509295509295509295565b60008060408385031215610a4757600080fd5b610a5083610611565b915060208084013567ffffffffffffffff811115610a6d57600080fd5b8401601f81018613610a7e57600080fd5b8035610a8c61071a8261069d565b81815260059190911b82018301908381019088831115610aab57600080fd5b928401925b82841015610ac957833582529284019290840190610ab0565b80955050505050509250929050565b600060208284031215610aea57600080fd5b8151801515811461082c57600080fd5b6020808252601190820152705065726d697373616f206e65676164612160781b604082015260600190565b815160009082906020808601845b83811015610b73578151805186528381015161ffff1684870152604080820151908701526060908101519086015260809094019390820190600101610b33565b50929695505050505050565b60005b83811015610b9a578181015183820152602001610b82565b50506000910152565b6bffffffffffffffffffffffff198860601b168152600087516020610bce8260148601838d01610b7f565b60c089901b6001600160c01b0319166014928501928301528751610bf881601c8501848c01610b7f565b8751920191610c0d81601c8501848b01610b7f565b601c92019182018690528451603c9092019181860160005b82811015610c4157815185529383019390830190600101610c25565b50929c9b505050505050505050505050565b600181811c90821680610c6757607f821691505b602082108103610c8757634e487b7160e01b600052602260045260246000fd5b50919050565b601f821115610cd757600081815260208120601f850160051c81016020861015610cb45750805b601f850160051c820191505b81811015610cd357828155600101610cc0565b5050505b505050565b815167ffffffffffffffff811115610cf657610cf661062d565b610d0a81610d048454610c53565b84610c8d565b602080601f831160018114610d3f5760008415610d275750858301515b600019600386901b1c1916600185901b178555610cd3565b600085815260208120601f198616915b82811015610d6e57888601518255948401946001909101908401610d4f565b5085821015610d8c5787850151600019600388901b60f8161c191681555b5050505050600190811b01905550565b60008151808452610db4816020860160208601610b7f565b601f01601f19169290920160200192915050565b6001600160a01b03878116825286166020820152604081018590526060810184905260c060808201819052600090610e0290830185610d9c565b82810360a0840152610e148185610d9c565b9998505050505050505050565b815160009082906020808601845b83811015610b7357815185529382019390820190600101610e2f56fea264697066735822122038f5990bffd1d7ab7b433b0e6c6e139a119942c2d5b0dd1ed5657cfb573ec39864736f6c63430008110033",
  "immutableReferences": {},
  "source": "// SPDX-License-Identifier: MIT\r\npragma solidity ^0.8.17;\r\n\r\nimport \"./Authentication.sol\";\r\nimport \"./UpdateTr.sol\";\r\n\r\nstruct Colmeia {\r\n    uint256 colmeiaId;\r\n    uint16 melProduzido;\r\n    uint256 dateColeta;\r\n    uint256 dateEnxame;\r\n}\r\nstruct Tun {\r\n    bytes32 id;\r\n    address apicultorId;\r\n    string apiary;\r\n    uint64 weight;\r\n    string packing;\r\n    string flowering;\r\n    uint256 date;\r\n    uint256[] colmeiasId;\r\n}\r\n\r\nstruct Container {\r\n    bytes32 id;\r\n    bytes32[] tunId;\r\n}\r\n\r\nstruct Honey {\r\n    uint256 codigo;\r\n    uint256 lote;\r\n    string especializacao;\r\n    uint64 peso;\r\n    uint256 date;\r\n    string localizacao;\r\n    uint256 producaoId;\r\n}\r\n\r\ncontract RegisterProduction {\r\n    mapping(uint256 => Colmeia) colmeias;\r\n    mapping(address => uint256[]) colmeiaId;\r\n\r\n    mapping(bytes32 => Tun) tunList;\r\n    mapping(address => bytes32[]) tunListId;\r\n\r\n    mapping(bytes32 => Container) containerList;\r\n    mapping(address => bytes32[]) containerListId;\r\n\r\n    mapping(address => mapping(uint256 => Honey)) product;\r\n    uint256[] productCode;\r\n\r\n    address contractAuthentication;\r\n    Authentication instanceAuthentication;\r\n    address contractUpdateTr;\r\n    UpdateTr instanceUpdateTr;\r\n\r\n    constructor(address _contractAuthentication, address _contractUpdateTr) {\r\n        contractAuthentication = _contractAuthentication;\r\n        instanceAuthentication = Authentication(contractAuthentication);\r\n        contractUpdateTr = _contractUpdateTr;\r\n        instanceUpdateTr = UpdateTr(contractUpdateTr);\r\n    }\r\n\r\n    //Verifica se o endereo que esta chamando o contrato possui permisao para modificar o estado da rede\r\n    modifier onlyOWNER(address _addr) {\r\n        require(\r\n            instanceAuthentication.activeUser(_addr) == true,\r\n            \"Permissao negada!\"\r\n        );\r\n        _;\r\n    }\r\n\r\n    event UpdateColmeia(address indexed addr, Colmeia[] indexed colmeias);\r\n    event Coleta(\r\n        address indexed addr,\r\n        uint256 colmeiaId,\r\n        uint256 dateColeta,\r\n        int256 peso\r\n    );\r\n\r\n    function updateColmeia(\r\n        address _addr,\r\n        Colmeia[] memory _colmeias\r\n    ) public onlyOWNER(_addr) {\r\n        emit UpdateColmeia(_addr, _colmeias);\r\n    }\r\n\r\n    function newTun(\r\n        address _addr,\r\n        string memory _apiary,\r\n        uint64 _weight,\r\n        string memory _packing,\r\n        string memory _flowering,\r\n        uint256 _date,\r\n        uint256[] memory _colmeiasId\r\n    ) public onlyOWNER(_addr) {\r\n        bytes32 _id = keccak256(\r\n            abi.encodePacked(\r\n                _addr,\r\n                _apiary,\r\n                _weight,\r\n                _packing,\r\n                _flowering,\r\n                _date,\r\n                _colmeiasId\r\n            )\r\n        );\r\n        tunList[_id] = Tun(\r\n            _id,\r\n            _addr,\r\n            _apiary,\r\n            _weight,\r\n            _packing,\r\n            _flowering,\r\n            _date,\r\n            _colmeiasId\r\n        );\r\n        tunListId[_addr].push(_id);\r\n    }\r\n\r\n    function newContainer(\r\n        address _addr,\r\n        bytes32[] memory _tunId\r\n    ) public onlyOWNER(_addr) {\r\n        bytes32 _id = keccak256(abi.encodePacked(_tunId));\r\n        containerList[_id] = Container(_id, _tunId);\r\n        containerListId[_addr].push(_id);\r\n    }\r\n\r\n    function forwarding(\r\n        address _sender,\r\n        address _recipient,\r\n        bytes32 _product,\r\n        bytes32 _lote,\r\n        string memory _businessUnitType,\r\n        bytes memory _signature\r\n    ) public onlyOWNER(msg.sender) {\r\n        //chamar funcao atualizarTr no contrato AtualizarTr\r\n        instanceUpdateTr.updateTr(\r\n            _sender,\r\n            _recipient,\r\n            _product,\r\n            _lote,\r\n            _businessUnitType,\r\n            _signature\r\n        );\r\n    }\r\n}\r\n",
  "sourcePath": "C:\\Users\\samue\\Documents\\Workspace_react\\BlockForBees\\backend_blockcahin\\contracts\\Production.sol",
  "compiler": {
    "name": "solc",
    "version": "0.8.17+commit.8df45f5f.Emscripten.clang"
  },
  "schemaVersion": "3.4.11",
  "updatedAt": "2023-04-13T07:46:04.974Z",
  "devdoc": {
    "kind": "dev",
    "methods": {},
    "version": 1
  },
  "userdoc": {
    "kind": "user",
    "methods": {},
    "version": 1
  }
}