{
  "contractName": "UpdateTr",
  "abi": [
    {
      "inputs": [
        {
          "internalType": "address",
          "name": "_contractAuthentication",
          "type": "address"
        }
      ],
      "stateMutability": "nonpayable",
      "type": "constructor"
    },
    {
      "inputs": [
        {
          "internalType": "string",
          "name": "_currentTx",
          "type": "string"
        },
        {
          "internalType": "string",
          "name": "_sender",
          "type": "string"
        },
        {
          "internalType": "string",
          "name": "_receiver",
          "type": "string"
        },
        {
          "internalType": "string",
          "name": "_unit",
          "type": "string"
        },
        {
          "internalType": "string",
          "name": "_date",
          "type": "string"
        }
      ],
      "name": "updateTr",
      "outputs": [],
      "stateMutability": "nonpayable",
      "type": "function"
    },
    {
      "inputs": [
        {
          "internalType": "string",
          "name": "_unit",
          "type": "string"
        }
      ],
      "name": "search",
      "outputs": [
        {
          "components": [
            {
              "internalType": "string",
              "name": "previousTx",
              "type": "string"
            },
            {
              "internalType": "string",
              "name": "currentTx",
              "type": "string"
            },
            {
              "internalType": "string",
              "name": "sender",
              "type": "string"
            },
            {
              "internalType": "string",
              "name": "receiver",
              "type": "string"
            },
            {
              "internalType": "string",
              "name": "unit",
              "type": "string"
            },
            {
              "internalType": "string",
              "name": "date",
              "type": "string"
            }
          ],
          "internalType": "struct Transaction[]",
          "name": "",
          "type": "tuple[]"
        }
      ],
      "stateMutability": "view",
      "type": "function",
      "constant": true
    },
    {
      "inputs": [
        {
          "internalType": "string",
          "name": "_user",
          "type": "string"
        }
      ],
      "name": "searchByUser",
      "outputs": [
        {
          "internalType": "string[]",
          "name": "",
          "type": "string[]"
        }
      ],
      "stateMutability": "view",
      "type": "function",
      "constant": true
    }
  ],
  "bytecode": "0x608060405234801561001057600080fd5b50604051610e82380380610e8283398101604081905261002f9161005e565b600280546001600160a01b039092166001600160a01b031992831681179091556003805490921617905561008e565b60006020828403121561007057600080fd5b81516001600160a01b038116811461008757600080fd5b9392505050565b610de58061009d6000396000f3fe608060405234801561001057600080fd5b50600436106100415760003560e01c8063820ed08614610046578063a50e65e41461006f578063d6c6c5ac14610084575b600080fd5b61005961005436600461091e565b6100a4565b60405161006691906109ab565b60405180910390f35b61008261007d366004610a9d565b61048d565b005b61009761009236600461091e565b61078f565b6040516100669190610b6f565b60606000826040516100b69190610bd1565b9081526020016040518091039020805480602002602001604051908101604052809291908181526020016000905b8282101561048257838290600052602060002090600602016040518060c001604052908160008201805461011790610bed565b80601f016020809104026020016040519081016040528092919081815260200182805461014390610bed565b80156101905780601f1061016557610100808354040283529160200191610190565b820191906000526020600020905b81548152906001019060200180831161017357829003601f168201915b505050505081526020016001820180546101a990610bed565b80601f01602080910402602001604051908101604052809291908181526020018280546101d590610bed565b80156102225780601f106101f757610100808354040283529160200191610222565b820191906000526020600020905b81548152906001019060200180831161020557829003601f168201915b5050505050815260200160028201805461023b90610bed565b80601f016020809104026020016040519081016040528092919081815260200182805461026790610bed565b80156102b45780601f10610289576101008083540402835291602001916102b4565b820191906000526020600020905b81548152906001019060200180831161029757829003601f168201915b505050505081526020016003820180546102cd90610bed565b80601f01602080910402602001604051908101604052809291908181526020018280546102f990610bed565b80156103465780601f1061031b57610100808354040283529160200191610346565b820191906000526020600020905b81548152906001019060200180831161032957829003601f168201915b5050505050815260200160048201805461035f90610bed565b80601f016020809104026020016040519081016040528092919081815260200182805461038b90610bed565b80156103d85780601f106103ad576101008083540402835291602001916103d8565b820191906000526020600020905b8154815290600101906020018083116103bb57829003601f168201915b505050505081526020016005820180546103f190610bed565b80601f016020809104026020016040519081016040528092919081815260200182805461041d90610bed565b801561046a5780601f1061043f5761010080835404028352916020019161046a565b820191906000526020600020905b81548152906001019060200180831161044d57829003601f168201915b505050505081525050815260200190600101906100e4565b505050509050919050565b60035460405163175757d560e01b815285916001600160a01b03169063175757d5906104bd908490600401610c27565b602060405180830381865afa1580156104da573d6000803e3d6000fd5b505050506040513d601f19601f820116820180604052508101906104fe9190610c41565b15156001146105475760405162461bcd60e51b81526020600482015260116024820152705065726d697373616f206e65676164612160781b604482015260640160405180910390fd5b60606000846040516105599190610bd1565b9081526040519081900360200190205460000361057757508261066e565b6000846040516105879190610bd1565b908152602001604051809103902060016000866040516105a79190610bd1565b908152604051908190036020019020546105c19190610c63565b815481106105d1576105d1610c8a565b906000526020600020906006020160010180546105ed90610bed565b80601f016020809104026020016040519081016040528092919081815260200182805461061990610bed565b80156106665780601f1061063b57610100808354040283529160200191610666565b820191906000526020600020905b81548152906001019060200180831161064957829003601f168201915b505050505090505b60008460405161067e9190610bd1565b90815260408051918290036020908101832060c0840183528484528382018b9052918301899052606083018890526080830187905260a0830186905281546001810183556000928352912082516006909202019081906106de9082610cef565b50602082015160018201906106f39082610cef565b50604082015160028201906107089082610cef565b506060820151600382019061071d9082610cef565b50608082015160048201906107329082610cef565b5060a082015160058201906107479082610cef565b50505060018660405161075a9190610bd1565b9081526040516020918190038201902080546001810182556000918252919020016107858582610cef565b5050505050505050565b60606001826040516107a19190610bd1565b9081526020016040518091039020805480602002602001604051908101604052809291908181526020016000905b828210156104825783829060005260206000200180546107ee90610bed565b80601f016020809104026020016040519081016040528092919081815260200182805461081a90610bed565b80156108675780601f1061083c57610100808354040283529160200191610867565b820191906000526020600020905b81548152906001019060200180831161084a57829003601f168201915b5050505050815260200190600101906107cf565b634e487b7160e01b600052604160045260246000fd5b600082601f8301126108a257600080fd5b813567ffffffffffffffff808211156108bd576108bd61087b565b604051601f8301601f19908116603f011681019082821181831017156108e5576108e561087b565b816040528381528660208588010111156108fe57600080fd5b836020870160208301376000602085830101528094505050505092915050565b60006020828403121561093057600080fd5b813567ffffffffffffffff81111561094757600080fd5b61095384828501610891565b949350505050565b60005b8381101561097657818101518382015260200161095e565b50506000910152565b6000815180845261099781602086016020860161095b565b601f01601f19169290920160200192915050565b60006020808301818452808551808352604092508286019150828160051b87010184880160005b83811015610a8f57603f19898403018552815160c081518186526109f88287018261097f565b915050888201518582038a870152610a10828261097f565b9150508782015185820389870152610a28828261097f565b91505060608083015186830382880152610a42838261097f565b9250505060808083015186830382880152610a5d838261097f565b9250505060a08083015192508582038187015250610a7b818361097f565b9689019694505050908601906001016109d2565b509098975050505050505050565b600080600080600060a08688031215610ab557600080fd5b853567ffffffffffffffff80821115610acd57600080fd5b610ad989838a01610891565b96506020880135915080821115610aef57600080fd5b610afb89838a01610891565b95506040880135915080821115610b1157600080fd5b610b1d89838a01610891565b94506060880135915080821115610b3357600080fd5b610b3f89838a01610891565b93506080880135915080821115610b5557600080fd5b50610b6288828901610891565b9150509295509295909350565b6000602080830181845280855180835260408601915060408160051b870101925083870160005b82811015610bc457603f19888603018452610bb285835161097f565b94509285019290850190600101610b96565b5092979650505050505050565b60008251610be381846020870161095b565b9190910192915050565b600181811c90821680610c0157607f821691505b602082108103610c2157634e487b7160e01b600052602260045260246000fd5b50919050565b602081526000610c3a602083018461097f565b9392505050565b600060208284031215610c5357600080fd5b81518015158114610c3a57600080fd5b81810381811115610c8457634e487b7160e01b600052601160045260246000fd5b92915050565b634e487b7160e01b600052603260045260246000fd5b601f821115610cea57600081815260208120601f850160051c81016020861015610cc75750805b601f850160051c820191505b81811015610ce657828155600101610cd3565b5050505b505050565b815167ffffffffffffffff811115610d0957610d0961087b565b610d1d81610d178454610bed565b84610ca0565b602080601f831160018114610d525760008415610d3a5750858301515b600019600386901b1c1916600185901b178555610ce6565b600085815260208120601f198616915b82811015610d8157888601518255948401946001909101908401610d62565b5085821015610d9f5787850151600019600388901b60f8161c191681555b5050505050600190811b0190555056fea26469706673582212205d91238b26c2b0f1708e00ec1fba8433d768c89d5b29ac717e08f1ac8541074164736f6c63430008110033",
  "immutableReferences": {},
  "source": "// SPDX-License-Identifier: MIT\r\n\r\npragma solidity ^0.8.17;\r\nimport \"./Authentication.sol\";\r\n\r\nstruct Transaction {\r\n    string previousTx;\r\n    string currentTx;\r\n    string sender;\r\n    string receiver;\r\n    string unit;\r\n    string date;\r\n}\r\n\r\nenum Status {\r\n    despachado,\r\n    transporte,\r\n    recebido\r\n}\r\n\r\ncontract UpdateTr {\r\n    mapping(string => Transaction[]) transactions; // item id => list transaction\r\n    mapping(string => string[]) userTransactions; // sender => item id []\r\n\r\n    address contractAuthentication;\r\n    Authentication instanceAuthentication;\r\n\r\n    constructor(address _contractAuthentication) {\r\n        contractAuthentication = _contractAuthentication;\r\n        instanceAuthentication = Authentication(contractAuthentication);\r\n    }\r\n\r\n    modifier onlyOWNER(string memory _id) {\r\n        require(\r\n            instanceAuthentication.activeUser(_id) == true,\r\n            \"Permissao negada!\"\r\n        );\r\n        _;\r\n    }\r\n\r\n    // event Transfer(\r\n    //     string previousTx,\r\n    //     string currentTx,\r\n    //     string sender,\r\n    //     string receiver,\r\n    //     string unit,\r\n    //     string date\r\n    // );\r\n\r\n    function updateTr(\r\n        string memory _currentTx,\r\n        string memory _sender,\r\n        string memory _receiver,\r\n        string memory _unit,\r\n        string memory _date\r\n    ) public onlyOWNER(_sender) {\r\n        string memory previousTx;\r\n        if (transactions[_unit].length == 0) {\r\n            previousTx = _unit;\r\n        } else {\r\n            previousTx = transactions[_unit][transactions[_unit].length - 1]\r\n                .currentTx;\r\n        }\r\n        transactions[_unit].push(\r\n            Transaction(\r\n                previousTx,\r\n                _currentTx,\r\n                _sender,\r\n                _receiver,\r\n                _unit,\r\n                _date\r\n            )\r\n        );\r\n        userTransactions[_sender].push(_unit);\r\n        //emit Transfer(previousTx, _currentTx, _sender, _receiver, _unit, _date);\r\n    }\r\n\r\n    function search(\r\n        string memory _unit\r\n    ) public view returns (Transaction[] memory) {\r\n        return transactions[_unit];\r\n    }\r\n\r\n    function searchByUser(\r\n        string memory _user\r\n    ) public view returns (string[] memory) {\r\n        return userTransactions[_user];\r\n    }\r\n}\r\n",
  "sourcePath": "C:\\Users\\samue\\Documents\\Workspace_react\\BlockForBees\\backend_blockcahin\\contracts\\UpdateTr.sol",
  "compiler": {
    "name": "solc",
    "version": "0.8.17+commit.8df45f5f.Emscripten.clang"
  },
  "schemaVersion": "3.4.11",
  "updatedAt": "2023-06-29T08:44:35.192Z",
  "networkType": "ethereum",
  "devdoc": {
    "kind": "dev",
    "methods": {},
    "version": 1
  },
  "userdoc": {
    "kind": "user",
    "methods": {},
    "version": 1
  }
}