{
  "contractName": "UpdateTr",
  "abi": [
    {
      "anonymous": false,
      "inputs": [
        {
          "indexed": true,
          "internalType": "string",
          "name": "sender",
          "type": "string"
        },
        {
          "indexed": true,
          "internalType": "string",
          "name": "receiver",
          "type": "string"
        },
        {
          "indexed": true,
          "internalType": "bytes32",
          "name": "unitId",
          "type": "bytes32"
        },
        {
          "indexed": false,
          "internalType": "string",
          "name": "date",
          "type": "string"
        },
        {
          "indexed": false,
          "internalType": "string",
          "name": "businessUnitType",
          "type": "string"
        },
        {
          "indexed": false,
          "internalType": "bytes",
          "name": "signature",
          "type": "bytes"
        }
      ],
      "name": "Transfer",
      "type": "event"
    },
    {
      "inputs": [
        {
          "internalType": "string",
          "name": "_sender",
          "type": "string"
        },
        {
          "internalType": "string",
          "name": "_receiver",
          "type": "string"
        },
        {
          "internalType": "bytes32",
          "name": "_unitId",
          "type": "bytes32"
        },
        {
          "internalType": "string",
          "name": "_date",
          "type": "string"
        },
        {
          "internalType": "string",
          "name": "_businessUnitType",
          "type": "string"
        },
        {
          "internalType": "bytes",
          "name": "_signature",
          "type": "bytes"
        }
      ],
      "name": "updateTr",
      "outputs": [],
      "stateMutability": "nonpayable",
      "type": "function"
    }
  ],
  "bytecode": "0x608060405234801561001057600080fd5b50610479806100206000396000f3fe608060405234801561001057600080fd5b506004361061002b5760003560e01c806349b3e34214610030575b600080fd5b61004361003e366004610171565b610045565b005b600084815260208190526040902061005d87826102d4565b50838560405161006d91906103b8565b60405180910390208760405161008391906103b8565b60405180910390207fdc4e0fec786bfe164a9eaec9e5b453b64341fb574efd08463b88475f162f14f68686866040516100be93929190610400565b60405180910390a4505050505050565b634e487b7160e01b600052604160045260246000fd5b600082601f8301126100f557600080fd5b813567ffffffffffffffff80821115610110576101106100ce565b604051601f8301601f19908116603f01168101908282118183101715610138576101386100ce565b8160405283815286602085880101111561015157600080fd5b836020870160208301376000602085830101528094505050505092915050565b60008060008060008060c0878903121561018a57600080fd5b863567ffffffffffffffff808211156101a257600080fd5b6101ae8a838b016100e4565b975060208901359150808211156101c457600080fd5b6101d08a838b016100e4565b96506040890135955060608901359150808211156101ed57600080fd5b6101f98a838b016100e4565b9450608089013591508082111561020f57600080fd5b61021b8a838b016100e4565b935060a089013591508082111561023157600080fd5b5061023e89828a016100e4565b9150509295509295509295565b600181811c9082168061025f57607f821691505b60208210810361027f57634e487b7160e01b600052602260045260246000fd5b50919050565b601f8211156102cf57600081815260208120601f850160051c810160208610156102ac5750805b601f850160051c820191505b818110156102cb578281556001016102b8565b5050505b505050565b815167ffffffffffffffff8111156102ee576102ee6100ce565b610302816102fc845461024b565b84610285565b602080601f831160018114610337576000841561031f5750858301515b600019600386901b1c1916600185901b1785556102cb565b600085815260208120601f198616915b8281101561036657888601518255948401946001909101908401610347565b50858210156103845787850151600019600388901b60f8161c191681555b5050505050600190811b01905550565b60005b838110156103af578181015183820152602001610397565b50506000910152565b600082516103ca818460208701610394565b9190910192915050565b600081518084526103ec816020860160208601610394565b601f01601f19169290920160200192915050565b60608152600061041360608301866103d4565b828103602084015261042581866103d4565b9050828103604084015261043981856103d4565b969550505050505056fea26469706673582212203d6916a192294acf3297b970622724d257b277d5ae55345807629e4297e3ac7e64736f6c63430008110033",
  "immutableReferences": {},
  "source": "// SPDX-License-Identifier: MIT\r\n\r\npragma solidity ^0.8.17;\r\n\r\ncontract UpdateTr {\r\n    mapping(bytes32 => string) transactions;\r\n\r\n    event Transfer(\r\n        string indexed sender,\r\n        string indexed receiver,\r\n        bytes32 indexed unitId,\r\n        string date,\r\n        string businessUnitType,\r\n        bytes signature\r\n    );\r\n\r\n    function updateTr(\r\n        string memory _sender,\r\n        string memory _receiver,\r\n        bytes32 _unitId,\r\n        string memory _date,\r\n        string memory _businessUnitType,\r\n        bytes memory _signature\r\n    ) public {\r\n        transactions[_unitId] = _sender;\r\n        emit Transfer(\r\n            _sender,\r\n            _receiver,\r\n            _unitId,\r\n            _date,\r\n            _businessUnitType,\r\n            _signature\r\n        );\r\n    }\r\n\r\n    // function rastrearTr(bytes32 _lote) public view returns (address) {\r\n    //     return transactions[_lote];\r\n    // }\r\n}\r\n",
  "sourcePath": "C:\\Users\\samue\\Documents\\Workspace_react\\BlockForBees\\backend_blockcahin\\contracts\\UpdateTr.sol",
  "compiler": {
    "name": "solc",
    "version": "0.8.17+commit.8df45f5f.Emscripten.clang"
  },
  "schemaVersion": "3.4.11",
  "updatedAt": "2023-04-25T01:20:22.068Z",
  "networkType": "ethereum",
  "devdoc": {
    "kind": "dev",
    "methods": {},
    "version": 1
  },
  "userdoc": {
    "kind": "user",
    "methods": {},
    "version": 1
  }
}