{
  "contractName": "Processing",
  "abi": [
    {
      "inputs": [
        {
          "internalType": "address",
          "name": "_contractAuthentication",
          "type": "address"
        },
        {
          "internalType": "address",
          "name": "_contractUpdateTr",
          "type": "address"
        }
      ],
      "stateMutability": "nonpayable",
      "type": "constructor"
    },
    {
      "anonymous": false,
      "inputs": [
        {
          "indexed": false,
          "internalType": "string",
          "name": "user",
          "type": "string"
        },
        {
          "indexed": false,
          "internalType": "string",
          "name": "unit",
          "type": "string"
        }
      ],
      "name": "NewUnit",
      "type": "event"
    },
    {
      "anonymous": false,
      "inputs": [
        {
          "indexed": false,
          "internalType": "string",
          "name": "user",
          "type": "string"
        },
        {
          "indexed": false,
          "internalType": "string[]",
          "name": "units",
          "type": "string[]"
        }
      ],
      "name": "NewUnits",
      "type": "event"
    },
    {
      "inputs": [
        {
          "internalType": "string",
          "name": "_id",
          "type": "string"
        },
        {
          "internalType": "string[]",
          "name": "_feedstockIds",
          "type": "string[]"
        },
        {
          "internalType": "string",
          "name": "_distributorId",
          "type": "string"
        },
        {
          "internalType": "string",
          "name": "_date",
          "type": "string"
        },
        {
          "internalType": "enum UnitType",
          "name": "_unitType",
          "type": "uint8"
        },
        {
          "internalType": "string",
          "name": "_userId",
          "type": "string"
        }
      ],
      "name": "receiver",
      "outputs": [],
      "stateMutability": "nonpayable",
      "type": "function"
    },
    {
      "inputs": [
        {
          "internalType": "string",
          "name": "_id",
          "type": "string"
        }
      ],
      "name": "getFeedstock",
      "outputs": [
        {
          "components": [
            {
              "internalType": "string",
              "name": "id",
              "type": "string"
            },
            {
              "internalType": "string[]",
              "name": "feedstockIds",
              "type": "string[]"
            },
            {
              "internalType": "string",
              "name": "distributorId",
              "type": "string"
            },
            {
              "internalType": "string",
              "name": "dateTime",
              "type": "string"
            },
            {
              "internalType": "enum UnitType",
              "name": "unitType",
              "type": "uint8"
            }
          ],
          "internalType": "struct Feedstock",
          "name": "",
          "type": "tuple"
        }
      ],
      "stateMutability": "view",
      "type": "function"
    },
    {
      "inputs": [
        {
          "internalType": "string",
          "name": "_userId",
          "type": "string"
        }
      ],
      "name": "getFeedstockId",
      "outputs": [
        {
          "internalType": "string[]",
          "name": "",
          "type": "string[]"
        }
      ],
      "stateMutability": "view",
      "type": "function"
    },
    {
      "inputs": [
        {
          "internalType": "string",
          "name": "_userId",
          "type": "string"
        }
      ],
      "name": "listFeedstock",
      "outputs": [
        {
          "components": [
            {
              "internalType": "string",
              "name": "id",
              "type": "string"
            },
            {
              "internalType": "string[]",
              "name": "feedstockIds",
              "type": "string[]"
            },
            {
              "internalType": "string",
              "name": "distributorId",
              "type": "string"
            },
            {
              "internalType": "string",
              "name": "dateTime",
              "type": "string"
            },
            {
              "internalType": "enum UnitType",
              "name": "unitType",
              "type": "uint8"
            }
          ],
          "internalType": "struct Feedstock[]",
          "name": "",
          "type": "tuple[]"
        }
      ],
      "stateMutability": "view",
      "type": "function"
    },
    {
      "inputs": [
        {
          "internalType": "string",
          "name": "_userId",
          "type": "string"
        },
        {
          "internalType": "string",
          "name": "_feedstockBatch",
          "type": "string"
        },
        {
          "internalType": "string",
          "name": "_variety",
          "type": "string"
        }
      ],
      "name": "generateBatch",
      "outputs": [
        {
          "internalType": "string",
          "name": "",
          "type": "string"
        }
      ],
      "stateMutability": "nonpayable",
      "type": "function"
    },
    {
      "inputs": [
        {
          "components": [
            {
              "internalType": "string",
              "name": "id",
              "type": "string"
            },
            {
              "internalType": "string",
              "name": "batch",
              "type": "string"
            },
            {
              "internalType": "string",
              "name": "code",
              "type": "string"
            },
            {
              "internalType": "string",
              "name": "feedstockBatch",
              "type": "string"
            },
            {
              "internalType": "string",
              "name": "honeyType",
              "type": "string"
            },
            {
              "internalType": "string",
              "name": "variety",
              "type": "string"
            },
            {
              "internalType": "uint64",
              "name": "weight",
              "type": "uint64"
            },
            {
              "internalType": "string",
              "name": "packaging",
              "type": "string"
            },
            {
              "internalType": "string",
              "name": "validity",
              "type": "string"
            },
            {
              "internalType": "string",
              "name": "composition",
              "type": "string"
            }
          ],
          "internalType": "struct Honey",
          "name": "_honey",
          "type": "tuple"
        },
        {
          "internalType": "string",
          "name": "_userId",
          "type": "string"
        }
      ],
      "name": "newHoney",
      "outputs": [],
      "stateMutability": "nonpayable",
      "type": "function"
    },
    {
      "inputs": [
        {
          "internalType": "string",
          "name": "_id",
          "type": "string"
        }
      ],
      "name": "getHoney",
      "outputs": [
        {
          "components": [
            {
              "internalType": "string",
              "name": "id",
              "type": "string"
            },
            {
              "internalType": "string",
              "name": "batch",
              "type": "string"
            },
            {
              "internalType": "string",
              "name": "code",
              "type": "string"
            },
            {
              "internalType": "string",
              "name": "feedstockBatch",
              "type": "string"
            },
            {
              "internalType": "string",
              "name": "honeyType",
              "type": "string"
            },
            {
              "internalType": "string",
              "name": "variety",
              "type": "string"
            },
            {
              "internalType": "uint64",
              "name": "weight",
              "type": "uint64"
            },
            {
              "internalType": "string",
              "name": "packaging",
              "type": "string"
            },
            {
              "internalType": "string",
              "name": "validity",
              "type": "string"
            },
            {
              "internalType": "string",
              "name": "composition",
              "type": "string"
            }
          ],
          "internalType": "struct Honey",
          "name": "",
          "type": "tuple"
        }
      ],
      "stateMutability": "view",
      "type": "function"
    },
    {
      "inputs": [
        {
          "internalType": "string",
          "name": "_userId",
          "type": "string"
        }
      ],
      "name": "getHoneyId",
      "outputs": [
        {
          "internalType": "string[]",
          "name": "",
          "type": "string[]"
        }
      ],
      "stateMutability": "view",
      "type": "function"
    },
    {
      "inputs": [
        {
          "internalType": "string",
          "name": "_userId",
          "type": "string"
        }
      ],
      "name": "getHoneyBatchs",
      "outputs": [
        {
          "internalType": "string[]",
          "name": "",
          "type": "string[]"
        }
      ],
      "stateMutability": "view",
      "type": "function"
    },
    {
      "inputs": [
        {
          "internalType": "string",
          "name": "_userId",
          "type": "string"
        }
      ],
      "name": "listHoneys",
      "outputs": [
        {
          "components": [
            {
              "internalType": "string",
              "name": "id",
              "type": "string"
            },
            {
              "internalType": "string",
              "name": "batch",
              "type": "string"
            },
            {
              "internalType": "string",
              "name": "code",
              "type": "string"
            },
            {
              "internalType": "string",
              "name": "feedstockBatch",
              "type": "string"
            },
            {
              "internalType": "string",
              "name": "honeyType",
              "type": "string"
            },
            {
              "internalType": "string",
              "name": "variety",
              "type": "string"
            },
            {
              "internalType": "uint64",
              "name": "weight",
              "type": "uint64"
            },
            {
              "internalType": "string",
              "name": "packaging",
              "type": "string"
            },
            {
              "internalType": "string",
              "name": "validity",
              "type": "string"
            },
            {
              "internalType": "string",
              "name": "composition",
              "type": "string"
            }
          ],
          "internalType": "struct Honey[]",
          "name": "",
          "type": "tuple[]"
        }
      ],
      "stateMutability": "view",
      "type": "function"
    },
    {
      "inputs": [
        {
          "internalType": "string[]",
          "name": "_honeyId",
          "type": "string[]"
        },
        {
          "internalType": "string",
          "name": "_userId",
          "type": "string"
        },
        {
          "internalType": "string",
          "name": "_code",
          "type": "string"
        }
      ],
      "name": "newBox",
      "outputs": [],
      "stateMutability": "nonpayable",
      "type": "function"
    },
    {
      "inputs": [
        {
          "internalType": "string",
          "name": "_id",
          "type": "string"
        }
      ],
      "name": "getBox",
      "outputs": [
        {
          "components": [
            {
              "internalType": "string",
              "name": "id",
              "type": "string"
            },
            {
              "internalType": "string",
              "name": "code",
              "type": "string"
            },
            {
              "internalType": "string[]",
              "name": "honeyId",
              "type": "string[]"
            }
          ],
          "internalType": "struct Box",
          "name": "",
          "type": "tuple"
        }
      ],
      "stateMutability": "view",
      "type": "function"
    },
    {
      "inputs": [
        {
          "internalType": "string",
          "name": "_userId",
          "type": "string"
        }
      ],
      "name": "getBoxId",
      "outputs": [
        {
          "internalType": "string[]",
          "name": "",
          "type": "string[]"
        }
      ],
      "stateMutability": "view",
      "type": "function"
    },
    {
      "inputs": [
        {
          "internalType": "string[]",
          "name": "_boxId",
          "type": "string[]"
        },
        {
          "internalType": "string",
          "name": "_code",
          "type": "string"
        },
        {
          "internalType": "string",
          "name": "_userId",
          "type": "string"
        }
      ],
      "name": "newPallet",
      "outputs": [],
      "stateMutability": "nonpayable",
      "type": "function"
    },
    {
      "inputs": [
        {
          "internalType": "string",
          "name": "_id",
          "type": "string"
        }
      ],
      "name": "getPallet",
      "outputs": [
        {
          "components": [
            {
              "internalType": "string",
              "name": "id",
              "type": "string"
            },
            {
              "internalType": "string",
              "name": "code",
              "type": "string"
            },
            {
              "internalType": "string[]",
              "name": "boxId",
              "type": "string[]"
            }
          ],
          "internalType": "struct Pallet",
          "name": "",
          "type": "tuple"
        }
      ],
      "stateMutability": "view",
      "type": "function"
    },
    {
      "inputs": [
        {
          "internalType": "string",
          "name": "_userId",
          "type": "string"
        }
      ],
      "name": "getPalletId",
      "outputs": [
        {
          "internalType": "string[]",
          "name": "",
          "type": "string[]"
        }
      ],
      "stateMutability": "view",
      "type": "function"
    },
    {
      "inputs": [
        {
          "internalType": "string",
          "name": "_id",
          "type": "string"
        }
      ],
      "name": "getDispatched",
      "outputs": [
        {
          "components": [
            {
              "internalType": "string",
              "name": "transporter",
              "type": "string"
            },
            {
              "internalType": "string",
              "name": "unit",
              "type": "string"
            },
            {
              "internalType": "string",
              "name": "date",
              "type": "string"
            }
          ],
          "internalType": "struct Dispatched",
          "name": "",
          "type": "tuple"
        }
      ],
      "stateMutability": "view",
      "type": "function"
    },
    {
      "inputs": [
        {
          "internalType": "string",
          "name": "_userId",
          "type": "string"
        }
      ],
      "name": "listDispatched",
      "outputs": [
        {
          "components": [
            {
              "internalType": "string",
              "name": "transporter",
              "type": "string"
            },
            {
              "internalType": "string",
              "name": "unit",
              "type": "string"
            },
            {
              "internalType": "string",
              "name": "date",
              "type": "string"
            }
          ],
          "internalType": "struct Dispatched[]",
          "name": "",
          "type": "tuple[]"
        }
      ],
      "stateMutability": "view",
      "type": "function"
    },
    {
      "inputs": [
        {
          "internalType": "string",
          "name": "_sender",
          "type": "string"
        },
        {
          "internalType": "string",
          "name": "_receiver",
          "type": "string"
        },
        {
          "internalType": "string",
          "name": "_unit",
          "type": "string"
        },
        {
          "internalType": "string",
          "name": "_date",
          "type": "string"
        }
      ],
      "name": "dispatcher",
      "outputs": [
        {
          "internalType": "bool",
          "name": "",
          "type": "bool"
        }
      ],
      "stateMutability": "nonpayable",
      "type": "function"
    }
  ],
  "bytecode": "0x60806040523480156200001157600080fd5b50604051620040cd380380620040cd8339810160408190526200003491620000a2565b600d80546001600160a01b039384166001600160a01b03199182168117909255600e80548216909217909155600f8054929093169181168217909255601080549092161790556001600055620000da565b80516001600160a01b03811681146200009d57600080fd5b919050565b60008060408385031215620000b657600080fd5b620000c18362000085565b9150620000d16020840162000085565b90509250929050565b613fe380620000ea6000396000f3fe608060405234801561001057600080fd5b50600436106101215760003560e01c806377e92acc116100ad5780639861f66b116100715780639861f66b14610296578063c744b30d146102b9578063c7611b0c146102cc578063cd843116146102df578063eab0f5ba146102ff57600080fd5b806377e92acc1461021d5780637bf835d8146102305780637c90039c1461025057806392c4b701146102705780639830c9611461028357600080fd5b80633e3375e1116100f45780633e3375e1146101af5780634ae1dd53146101c25780634dc34b65146101d757806370d1af1e146101ea57806370e71408146101fd57600080fd5b80630404b74514610126578063203ddfac1461014f57806335ad7d141461016f578063396ce4fa1461018f575b600080fd5b610139610134366004613170565b61031f565b6040516101469190613303565b60405180910390f35b61016261015d366004613170565b610617565b604051610146919061336e565b61018261017d366004613381565b610867565b6040516101469190613408565b6101a261019d366004613170565b61090a565b604051610146919061341b565b6101a26101bd366004613170565b610a01565b6101d56101d036600461351b565b610aed565b005b6101d56101e5366004613567565b610ce7565b6101626101f8366004613170565b610e92565b61021061020b366004613170565b6110d4565b604051610146919061368f565b6101d561022b3660046136b9565b6112de565b61024361023e366004613170565b6115e0565b6040516101469190613882565b61026361025e366004613170565b6118cd565b60405161014691906139e5565b6101a261027e366004613170565b611db6565b6101d561029136600461351b565b611ea2565b6102a96102a43660046139f8565b612084565b6040519015158152602001610146565b6101a26102c7366004613170565b6121d9565b6101a26102da366004613170565b6122c5565b6102f26102ed366004613170565b6123b1565b6040516101469190613aa4565b61031261030d366004613170565b6129ff565b6040516101469190613af9565b610327612f32565b6001826040516103379190613b4e565b90815260200160405180910390206040518060a001604052908160008201805461036090613b6a565b80601f016020809104026020016040519081016040528092919081815260200182805461038c90613b6a565b80156103d95780601f106103ae576101008083540402835291602001916103d9565b820191906000526020600020905b8154815290600101906020018083116103bc57829003601f168201915b5050505050815260200160018201805480602002602001604051908101604052809291908181526020016000905b828210156104b357838290600052602060002001805461042690613b6a565b80601f016020809104026020016040519081016040528092919081815260200182805461045290613b6a565b801561049f5780601f106104745761010080835404028352916020019161049f565b820191906000526020600020905b81548152906001019060200180831161048257829003601f168201915b505050505081526020019060010190610407565b5050505081526020016002820180546104cb90613b6a565b80601f01602080910402602001604051908101604052809291908181526020018280546104f790613b6a565b80156105445780601f1061051957610100808354040283529160200191610544565b820191906000526020600020905b81548152906001019060200180831161052757829003601f168201915b5050505050815260200160038201805461055d90613b6a565b80601f016020809104026020016040519081016040528092919081815260200182805461058990613b6a565b80156105d65780601f106105ab576101008083540402835291602001916105d6565b820191906000526020600020905b8154815290600101906020018083116105b957829003601f168201915b5050509183525050600482015460209091019060ff1660028111156105fd576105fd613254565b600281111561060e5761060e613254565b90525092915050565b61063b60405180606001604052806060815260200160608152602001606081525090565b60098260405161064b9190613b4e565b908152602001604051809103902060405180606001604052908160008201805461067490613b6a565b80601f01602080910402602001604051908101604052809291908181526020018280546106a090613b6a565b80156106ed5780601f106106c2576101008083540402835291602001916106ed565b820191906000526020600020905b8154815290600101906020018083116106d057829003601f168201915b5050505050815260200160018201805461070690613b6a565b80601f016020809104026020016040519081016040528092919081815260200182805461073290613b6a565b801561077f5780601f106107545761010080835404028352916020019161077f565b820191906000526020600020905b81548152906001019060200180831161076257829003601f168201915b5050505050815260200160028201805480602002602001604051908101604052809291908181526020016000905b828210156108595783829060005260206000200180546107cc90613b6a565b80601f01602080910402602001604051908101604052809291908181526020018280546107f890613b6a565b80156108455780601f1061081a57610100808354040283529160200191610845565b820191906000526020600020905b81548152906001019060200180831161082857829003601f168201915b5050505050815260200190600101906107ad565b505050915250909392505050565b60606008600061087882600a613ca0565b90506000868686426040516020016108939493929190613cac565b60408051601f198184030181529190528051602090910120905060006108c16108bc8484613d0b565b612dd5565b90506005886040516108d39190613b4e565b9081526040516020918190038201902080546001810182556000918252919020016108fe8282613d6e565b50979650505050505050565b606060088260405161091c9190613b4e565b9081526020016040518091039020805480602002602001604051908101604052809291908181526020016000905b828210156109f657838290600052602060002001805461096990613b6a565b80601f016020809104026020016040519081016040528092919081815260200182805461099590613b6a565b80156109e25780601f106109b7576101008083540402835291602001916109e2565b820191906000526020600020905b8154815290600101906020018083116109c557829003601f168201915b50505050508152602001906001019061094a565b505050509050919050565b6060600482604051610a139190613b4e565b9081526020016040518091039020805480602002602001604051908101604052809291908181526020016000905b828210156109f6578382906000526020600020018054610a6090613b6a565b80601f0160208091040260200160405190810160405280929190818152602001828054610a8c90613b6a565b8015610ad95780601f10610aae57610100808354040283529160200191610ad9565b820191906000526020600020905b815481529060010190602001808311610abc57829003601f168201915b505050505081526020019060010190610a41565b600e5460405163175757d560e01b815282916001600160a01b03169063175757d590610b1d908490600401613408565b602060405180830381865afa158015610b3a573d6000803e3d6000fd5b505050506040513d601f19601f82011682018060405250810190610b5e9190613e2d565b1515600114610b885760405162461bcd60e51b8152600401610b7f90613e4f565b60405180910390fd5b600083610b96600054612dd5565b604051602001610ba7929190613e7a565b6040516020818303038152906040529050600781604051610bc89190613b4e565b9081526040519081900360200190208054610be290613b6a565b159050610bee57600080fd5b604051806060016040528082815260200185815260200186815250600982604051610c199190613b4e565b90815260405190819003602001902081518190610c369082613d6e565b5060208201516001820190610c4b9082613d6e565b5060408201518051610c67916002840191602090910190612f71565b50905050600a83604051610c7b9190613b4e565b908152604051602091819003820190208054600181018255600091825291902001610ca68282613d6e565b507f778115835cf9e592620c318dc1a43c4553b3ffecf647e518e2b9adace51845408382604051610cd8929190613ea9565b60405180910390a15050505050565b600e5460405163175757d560e01b815282916001600160a01b03169063175757d590610d17908490600401613408565b602060405180830381865afa158015610d34573d6000803e3d6000fd5b505050506040513d601f19601f82011682018060405250810190610d589190613e2d565b1515600114610d795760405162461bcd60e51b8152600401610b7f90613e4f565b6040518060a00160405280888152602001878152602001868152602001858152602001846002811115610dae57610dae613254565b815250600188604051610dc19190613b4e565b90815260405190819003602001902081518190610dde9082613d6e565b506020828101518051610df79260018501920190612f71565b5060408201516002820190610e0c9082613d6e565b5060608201516003820190610e219082613d6e565b50608082015160048201805460ff19166001836002811115610e4557610e45613254565b0217905550905050600282604051610e5d9190613b4e565b908152604051602091819003820190208054600181018255600091825291902001610e888882613d6e565b5050505050505050565b610eb660405180606001604052806060815260200160608152602001606081525090565b600782604051610ec69190613b4e565b9081526020016040518091039020604051806060016040529081600082018054610eef90613b6a565b80601f0160208091040260200160405190810160405280929190818152602001828054610f1b90613b6a565b8015610f685780601f10610f3d57610100808354040283529160200191610f68565b820191906000526020600020905b815481529060010190602001808311610f4b57829003601f168201915b50505050508152602001600182018054610f8190613b6a565b80601f0160208091040260200160405190810160405280929190818152602001828054610fad90613b6a565b8015610ffa5780601f10610fcf57610100808354040283529160200191610ffa565b820191906000526020600020905b815481529060010190602001808311610fdd57829003601f168201915b5050505050815260200160028201805480602002602001604051908101604052809291908181526020016000905b8282101561085957838290600052602060002001805461104790613b6a565b80601f016020809104026020016040519081016040528092919081815260200182805461107390613b6a565b80156110c05780601f10611095576101008083540402835291602001916110c0565b820191906000526020600020905b8154815290600101906020018083116110a357829003601f168201915b505050505081526020019060010190611028565b6110f860405180606001604052806060815260200160608152602001606081525090565b600b826040516111089190613b4e565b908152602001604051809103902060405180606001604052908160008201805461113190613b6a565b80601f016020809104026020016040519081016040528092919081815260200182805461115d90613b6a565b80156111aa5780601f1061117f576101008083540402835291602001916111aa565b820191906000526020600020905b81548152906001019060200180831161118d57829003601f168201915b505050505081526020016001820180546111c390613b6a565b80601f01602080910402602001604051908101604052809291908181526020018280546111ef90613b6a565b801561123c5780601f106112115761010080835404028352916020019161123c565b820191906000526020600020905b81548152906001019060200180831161121f57829003601f168201915b5050505050815260200160028201805461125590613b6a565b80601f016020809104026020016040519081016040528092919081815260200182805461128190613b6a565b80156112ce5780601f106112a3576101008083540402835291602001916112ce565b820191906000526020600020905b8154815290600101906020018083116112b157829003601f168201915b5050505050815250509050919050565b600e5460405163175757d560e01b815282916001600160a01b03169063175757d59061130e908490600401613408565b602060405180830381865afa15801561132b573d6000803e3d6000fd5b505050506040513d601f19601f8201168201806040525081019061134f9190613e2d565b15156001146113705760405162461bcd60e51b8152600401610b7f90613e4f565b60008360200151611382600054612dd5565b604051602001611393929190613e7a565b60405160208183030381529060405290506003816040516113b49190613b4e565b90815260405190819003602001902080546113ce90613b6a565b1590506113da57600080fd5b604051806101400160405280828152602001856020015181526020018560400151815260200185606001518152602001856080015181526020018560a0015181526020018560c001516001600160401b031681526020018560e001518152602001856101000151815260200185610120015181525060038260405161145f9190613b4e565b9081526040519081900360200190208151819061147c9082613d6e565b50602082015160018201906114919082613d6e565b50604082015160028201906114a69082613d6e565b50606082015160038201906114bb9082613d6e565b50608082015160048201906114d09082613d6e565b5060a082015160058201906114e59082613d6e565b5060c082015160068201805467ffffffffffffffff19166001600160401b0390921691909117905560e082015160078201906115219082613d6e565b5061010082015160088201906115379082613d6e565b50610120820151600982019061154d9082613d6e565b509050506004836040516115619190613b4e565b90815260405160209181900382019020805460018101825560009182529190200161158c8282613d6e565b5060008054908061159c83613ece565b91905055507f778115835cf9e592620c318dc1a43c4553b3ffecf647e518e2b9adace518454083826040516115d2929190613ea9565b60405180910390a150505050565b60606000600c836040516115f49190613b4e565b908152604051908190036020019020546001600160401b0381111561161b5761161b613092565b60405190808252806020026020018201604052801561167057816020015b61165d60405180606001604052806060815260200160608152602001606081525090565b8152602001906001900390816116395790505b50905060005b81518110156118c657600b600c856040516116919190613b4e565b908152602001604051809103902082815481106116b0576116b0613ee7565b906000526020600020016040516116c79190613efd565b90815260200160405180910390206040518060600160405290816000820180546116f090613b6a565b80601f016020809104026020016040519081016040528092919081815260200182805461171c90613b6a565b80156117695780601f1061173e57610100808354040283529160200191611769565b820191906000526020600020905b81548152906001019060200180831161174c57829003601f168201915b5050505050815260200160018201805461178290613b6a565b80601f01602080910402602001604051908101604052809291908181526020018280546117ae90613b6a565b80156117fb5780601f106117d0576101008083540402835291602001916117fb565b820191906000526020600020905b8154815290600101906020018083116117de57829003601f168201915b5050505050815260200160028201805461181490613b6a565b80601f016020809104026020016040519081016040528092919081815260200182805461184090613b6a565b801561188d5780601f106118625761010080835404028352916020019161188d565b820191906000526020600020905b81548152906001019060200180831161187057829003601f168201915b5050505050815250508282815181106118a8576118a8613ee7565b602002602001018190525080806118be90613ece565b915050611676565b5092915050565b6118d5612fc7565b6003826040516118e59190613b4e565b90815260200160405180910390206040518061014001604052908160008201805461190f90613b6a565b80601f016020809104026020016040519081016040528092919081815260200182805461193b90613b6a565b80156119885780601f1061195d57610100808354040283529160200191611988565b820191906000526020600020905b81548152906001019060200180831161196b57829003601f168201915b505050505081526020016001820180546119a190613b6a565b80601f01602080910402602001604051908101604052809291908181526020018280546119cd90613b6a565b8015611a1a5780601f106119ef57610100808354040283529160200191611a1a565b820191906000526020600020905b8154815290600101906020018083116119fd57829003601f168201915b50505050508152602001600282018054611a3390613b6a565b80601f0160208091040260200160405190810160405280929190818152602001828054611a5f90613b6a565b8015611aac5780601f10611a8157610100808354040283529160200191611aac565b820191906000526020600020905b815481529060010190602001808311611a8f57829003601f168201915b50505050508152602001600382018054611ac590613b6a565b80601f0160208091040260200160405190810160405280929190818152602001828054611af190613b6a565b8015611b3e5780601f10611b1357610100808354040283529160200191611b3e565b820191906000526020600020905b815481529060010190602001808311611b2157829003601f168201915b50505050508152602001600482018054611b5790613b6a565b80601f0160208091040260200160405190810160405280929190818152602001828054611b8390613b6a565b8015611bd05780601f10611ba557610100808354040283529160200191611bd0565b820191906000526020600020905b815481529060010190602001808311611bb357829003601f168201915b50505050508152602001600582018054611be990613b6a565b80601f0160208091040260200160405190810160405280929190818152602001828054611c1590613b6a565b8015611c625780601f10611c3757610100808354040283529160200191611c62565b820191906000526020600020905b815481529060010190602001808311611c4557829003601f168201915b505050918352505060068201546001600160401b03166020820152600782018054604090920191611c9290613b6a565b80601f0160208091040260200160405190810160405280929190818152602001828054611cbe90613b6a565b8015611d0b5780601f10611ce057610100808354040283529160200191611d0b565b820191906000526020600020905b815481529060010190602001808311611cee57829003601f168201915b50505050508152602001600882018054611d2490613b6a565b80601f0160208091040260200160405190810160405280929190818152602001828054611d5090613b6a565b8015611d9d5780601f10611d7257610100808354040283529160200191611d9d565b820191906000526020600020905b815481529060010190602001808311611d8057829003601f168201915b5050505050815260200160098201805461125590613b6a565b6060600582604051611dc89190613b4e565b9081526020016040518091039020805480602002602001604051908101604052809291908181526020016000905b828210156109f6578382906000526020600020018054611e1590613b6a565b80601f0160208091040260200160405190810160405280929190818152602001828054611e4190613b6a565b8015611e8e5780601f10611e6357610100808354040283529160200191611e8e565b820191906000526020600020905b815481529060010190602001808311611e7157829003601f168201915b505050505081526020019060010190611df6565b600e5460405163175757d560e01b815283916001600160a01b03169063175757d590611ed2908490600401613408565b602060405180830381865afa158015611eef573d6000803e3d6000fd5b505050506040513d601f19601f82011682018060405250810190611f139190613e2d565b1515600114611f345760405162461bcd60e51b8152600401610b7f90613e4f565b600082611f42600054612dd5565b604051602001611f53929190613e7a565b6040516020818303038152906040529050600781604051611f749190613b4e565b9081526040519081900360200190208054611f8e90613b6a565b159050611f9a57600080fd5b604051806060016040528082815260200184815260200186815250600782604051611fc59190613b4e565b90815260405190819003602001902081518190611fe29082613d6e565b5060208201516001820190611ff79082613d6e565b5060408201518051612013916002840191602090910190612f71565b509050506008846040516120279190613b4e565b9081526040516020918190038201902080546001810182556000918252919020016120528282613d6e565b507f778115835cf9e592620c318dc1a43c4553b3ffecf647e518e2b9adace51845408482604051610cd8929190613ea9565b600e5460405163175757d560e01b815260009186916001600160a01b039091169063175757d5906120b9908490600401613408565b602060405180830381865afa1580156120d6573d6000803e3d6000fd5b505050506040513d601f19601f820116820180604052508101906120fa9190613e2d565b151560011461211b5760405162461bcd60e51b8152600401610b7f90613e4f565b604051806060016040528086815260200185815260200184815250600b856040516121469190613b4e565b908152604051908190036020019020815181906121639082613d6e565b50602082015160018201906121789082613d6e565b506040820151600282019061218d9082613d6e565b50905050600c866040516121a19190613b4e565b9081526040516020918190038201902080546001810182556000918252919020016121cc8582613d6e565b5060019695505050505050565b60606002826040516121eb9190613b4e565b9081526020016040518091039020805480602002602001604051908101604052809291908181526020016000905b828210156109f657838290600052602060002001805461223890613b6a565b80601f016020809104026020016040519081016040528092919081815260200182805461226490613b6a565b80156122b15780601f10612286576101008083540402835291602001916122b1565b820191906000526020600020905b81548152906001019060200180831161229457829003601f168201915b505050505081526020019060010190612219565b6060600a826040516122d79190613b4e565b9081526020016040518091039020805480602002602001604051908101604052809291908181526020016000905b828210156109f657838290600052602060002001805461232490613b6a565b80601f016020809104026020016040519081016040528092919081815260200182805461235090613b6a565b801561239d5780601f106123725761010080835404028352916020019161239d565b820191906000526020600020905b81548152906001019060200180831161238057829003601f168201915b505050505081526020019060010190612305565b606060006004836040516123c59190613b4e565b908152604051908190036020019020546001600160401b038111156123ec576123ec613092565b60405190808252806020026020018201604052801561242557816020015b612412612fc7565b81526020019060019003908161240a5790505b50905060005b81518110156118c65760036004856040516124469190613b4e565b9081526020016040518091039020828154811061246557612465613ee7565b9060005260206000200160405161247c9190613efd565b9081526020016040518091039020604051806101400160405290816000820180546124a690613b6a565b80601f01602080910402602001604051908101604052809291908181526020018280546124d290613b6a565b801561251f5780601f106124f45761010080835404028352916020019161251f565b820191906000526020600020905b81548152906001019060200180831161250257829003601f168201915b5050505050815260200160018201805461253890613b6a565b80601f016020809104026020016040519081016040528092919081815260200182805461256490613b6a565b80156125b15780601f10612586576101008083540402835291602001916125b1565b820191906000526020600020905b81548152906001019060200180831161259457829003601f168201915b505050505081526020016002820180546125ca90613b6a565b80601f01602080910402602001604051908101604052809291908181526020018280546125f690613b6a565b80156126435780601f1061261857610100808354040283529160200191612643565b820191906000526020600020905b81548152906001019060200180831161262657829003601f168201915b5050505050815260200160038201805461265c90613b6a565b80601f016020809104026020016040519081016040528092919081815260200182805461268890613b6a565b80156126d55780601f106126aa576101008083540402835291602001916126d5565b820191906000526020600020905b8154815290600101906020018083116126b857829003601f168201915b505050505081526020016004820180546126ee90613b6a565b80601f016020809104026020016040519081016040528092919081815260200182805461271a90613b6a565b80156127675780601f1061273c57610100808354040283529160200191612767565b820191906000526020600020905b81548152906001019060200180831161274a57829003601f168201915b5050505050815260200160058201805461278090613b6a565b80601f01602080910402602001604051908101604052809291908181526020018280546127ac90613b6a565b80156127f95780601f106127ce576101008083540402835291602001916127f9565b820191906000526020600020905b8154815290600101906020018083116127dc57829003601f168201915b505050918352505060068201546001600160401b0316602082015260078201805460409092019161282990613b6a565b80601f016020809104026020016040519081016040528092919081815260200182805461285590613b6a565b80156128a25780601f10612877576101008083540402835291602001916128a2565b820191906000526020600020905b81548152906001019060200180831161288557829003601f168201915b505050505081526020016008820180546128bb90613b6a565b80601f01602080910402602001604051908101604052809291908181526020018280546128e790613b6a565b80156129345780601f1061290957610100808354040283529160200191612934565b820191906000526020600020905b81548152906001019060200180831161291757829003601f168201915b5050505050815260200160098201805461294d90613b6a565b80601f016020809104026020016040519081016040528092919081815260200182805461297990613b6a565b80156129c65780601f1061299b576101008083540402835291602001916129c6565b820191906000526020600020905b8154815290600101906020018083116129a957829003601f168201915b5050505050815250508282815181106129e1576129e1613ee7565b602002602001018190525080806129f790613ece565b91505061242b565b60606000600283604051612a139190613b4e565b908152604051908190036020019020546001600160401b03811115612a3a57612a3a613092565b604051908082528060200260200182016040528015612a7357816020015b612a60612f32565b815260200190600190039081612a585790505b50905060005b81518110156118c6576001600285604051612a949190613b4e565b90815260200160405180910390208281548110612ab357612ab3613ee7565b90600052602060002001604051612aca9190613efd565b90815260200160405180910390206040518060a0016040529081600082018054612af390613b6a565b80601f0160208091040260200160405190810160405280929190818152602001828054612b1f90613b6a565b8015612b6c5780601f10612b4157610100808354040283529160200191612b6c565b820191906000526020600020905b815481529060010190602001808311612b4f57829003601f168201915b5050505050815260200160018201805480602002602001604051908101604052809291908181526020016000905b82821015612c46578382906000526020600020018054612bb990613b6a565b80601f0160208091040260200160405190810160405280929190818152602001828054612be590613b6a565b8015612c325780601f10612c0757610100808354040283529160200191612c32565b820191906000526020600020905b815481529060010190602001808311612c1557829003601f168201915b505050505081526020019060010190612b9a565b505050508152602001600282018054612c5e90613b6a565b80601f0160208091040260200160405190810160405280929190818152602001828054612c8a90613b6a565b8015612cd75780601f10612cac57610100808354040283529160200191612cd7565b820191906000526020600020905b815481529060010190602001808311612cba57829003601f168201915b50505050508152602001600382018054612cf090613b6a565b80601f0160208091040260200160405190810160405280929190818152602001828054612d1c90613b6a565b8015612d695780601f10612d3e57610100808354040283529160200191612d69565b820191906000526020600020905b815481529060010190602001808311612d4c57829003601f168201915b5050509183525050600482015460209091019060ff166002811115612d9057612d90613254565b6002811115612da157612da1613254565b81525050828281518110612db757612db7613ee7565b60200260200101819052508080612dcd90613ece565b915050612a79565b60408051606480825260a08201909252606091906000908260208201818036833701905050905060005b8415612e69576000612e12600a87613d0b565b9050612e1f600a87613f73565b9550612e2c816030613f87565b60f81b8383612e3a81613ece565b945081518110612e4c57612e4c613ee7565b60200101906001600160f81b031916908160001a90535050612dff565b6000816001600160401b03811115612e8357612e83613092565b6040519080825280601f01601f191660200182016040528015612ead576020820181803683370190505b50905060005b82811015612f28578381612ec8600186613f9a565b612ed29190613f9a565b81518110612ee257612ee2613ee7565b602001015160f81c60f81b828281518110612eff57612eff613ee7565b60200101906001600160f81b031916908160001a90535080612f2081613ece565b915050612eb3565b5095945050505050565b6040518060a001604052806060815260200160608152602001606081526020016060815260200160006002811115612f6c57612f6c613254565b905290565b828054828255906000526020600020908101928215612fb7579160200282015b82811115612fb75782518290612fa79082613d6e565b5091602001919060010190612f91565b50612fc3929150613023565b5090565b60405180610140016040528060608152602001606081526020016060815260200160608152602001606081526020016060815260200160006001600160401b031681526020016060815260200160608152602001606081525090565b80821115612fc35760006130378282613040565b50600101613023565b50805461304c90613b6a565b6000825580601f1061305c575050565b601f01602090049060005260206000209081019061307a919061307d565b50565b5b80821115612fc3576000815560010161307e565b634e487b7160e01b600052604160045260246000fd5b60405161014081016001600160401b03811182821017156130cb576130cb613092565b60405290565b604051601f8201601f191681016001600160401b03811182821017156130f9576130f9613092565b604052919050565b600082601f83011261311257600080fd5b81356001600160401b0381111561312b5761312b613092565b61313e601f8201601f19166020016130d1565b81815284602083860101111561315357600080fd5b816020850160208301376000918101602001919091529392505050565b60006020828403121561318257600080fd5b81356001600160401b0381111561319857600080fd5b6131a484828501613101565b949350505050565b60005b838110156131c75781810151838201526020016131af565b50506000910152565b600081518084526131e88160208601602086016131ac565b601f01601f19169290920160200192915050565b600082825180855260208086019550808260051b84010181860160005b8481101561324757601f198684030189526132358383516131d0565b98840198925090830190600101613219565b5090979650505050505050565b634e487b7160e01b600052602160045260246000fd5b6000815160a0845261327f60a08501826131d0565b90506020830151848203602086015261329882826131fc565b915050604083015184820360408601526132b282826131d0565b915050606083015184820360608601526132cc82826131d0565b9150506080830151600381106132f257634e487b7160e01b600052602160045260246000fd5b806080860152508091505092915050565b602081526000613316602083018461326a565b9392505050565b600081516060845261333260608501826131d0565b90506020830151848203602086015261334b82826131d0565b9150506040830151848203604086015261336582826131fc565b95945050505050565b602081526000613316602083018461331d565b60008060006060848603121561339657600080fd5b83356001600160401b03808211156133ad57600080fd5b6133b987838801613101565b945060208601359150808211156133cf57600080fd5b6133db87838801613101565b935060408601359150808211156133f157600080fd5b506133fe86828701613101565b9150509250925092565b60208152600061331660208301846131d0565b6000602080830181845280855180835260408601915060408160051b870101925083870160005b8281101561347057603f1988860301845261345e8583516131d0565b94509285019290850190600101613442565b5092979650505050505050565b600082601f83011261348e57600080fd5b813560206001600160401b03808311156134aa576134aa613092565b8260051b6134b98382016130d1565b93845285810183019383810190888611156134d357600080fd5b84880192505b8583101561350f578235848111156134f15760008081fd5b6134ff8a87838c0101613101565b83525091840191908401906134d9565b98975050505050505050565b60008060006060848603121561353057600080fd5b83356001600160401b038082111561354757600080fd5b6133b98783880161347d565b80356003811061356257600080fd5b919050565b60008060008060008060c0878903121561358057600080fd5b86356001600160401b038082111561359757600080fd5b6135a38a838b01613101565b975060208901359150808211156135b957600080fd5b6135c58a838b0161347d565b965060408901359150808211156135db57600080fd5b6135e78a838b01613101565b955060608901359150808211156135fd57600080fd5b6136098a838b01613101565b945061361760808a01613553565b935060a089013591508082111561362d57600080fd5b5061363a89828a01613101565b9150509295509295509295565b600081516060845261365c60608501826131d0565b90506020830151848203602086015261367582826131d0565b9150506040830151848203604086015261336582826131d0565b6020815260006133166020830184613647565b80356001600160401b038116811461356257600080fd5b600080604083850312156136cc57600080fd5b82356001600160401b03808211156136e357600080fd5b9084019061014082870312156136f857600080fd5b6137006130a8565b82358281111561370f57600080fd5b61371b88828601613101565b82525060208301358281111561373057600080fd5b61373c88828601613101565b60208301525060408301358281111561375457600080fd5b61376088828601613101565b60408301525060608301358281111561377857600080fd5b61378488828601613101565b60608301525060808301358281111561379c57600080fd5b6137a888828601613101565b60808301525060a0830135828111156137c057600080fd5b6137cc88828601613101565b60a0830152506137de60c084016136a2565b60c082015260e0830135828111156137f557600080fd5b61380188828601613101565b60e083015250610100808401358381111561381b57600080fd5b61382789828701613101565b828401525050610120808401358381111561384157600080fd5b61384d89828701613101565b82840152505080945050602085013591508082111561386b57600080fd5b5061387885828601613101565b9150509250929050565b6000602080830181845280855180835260408601915060408160051b870101925083870160005b8281101561347057603f198886030184526138c5858351613647565b945092850192908501906001016138a9565b600061014082518185526138ed828601826131d0565b9150506020830151848203602086015261390782826131d0565b9150506040830151848203604086015261392182826131d0565b9150506060830151848203606086015261393b82826131d0565b9150506080830151848203608086015261395582826131d0565b91505060a083015184820360a086015261396f82826131d0565b91505060c083015161398c60c08601826001600160401b03169052565b5060e083015184820360e08601526139a482826131d0565b91505061010080840151858303828701526139bf83826131d0565b9250505061012080840151858303828701526139db83826131d0565b9695505050505050565b60208152600061331660208301846138d7565b60008060008060808587031215613a0e57600080fd5b84356001600160401b0380821115613a2557600080fd5b613a3188838901613101565b95506020870135915080821115613a4757600080fd5b613a5388838901613101565b94506040870135915080821115613a6957600080fd5b613a7588838901613101565b93506060870135915080821115613a8b57600080fd5b50613a9887828801613101565b91505092959194509250565b6000602080830181845280855180835260408601915060408160051b870101925083870160005b8281101561347057603f19888603018452613ae78583516138d7565b94509285019290850190600101613acb565b6000602080830181845280855180835260408601915060408160051b870101925083870160005b8281101561347057603f19888603018452613b3c85835161326a565b94509285019290850190600101613b20565b60008251613b608184602087016131ac565b9190910192915050565b600181811c90821680613b7e57607f821691505b602082108103613b9e57634e487b7160e01b600052602260045260246000fd5b50919050565b634e487b7160e01b600052601160045260246000fd5b600181815b80851115613bf5578160001904821115613bdb57613bdb613ba4565b80851615613be857918102915b93841c9390800290613bbf565b509250929050565b600082613c0c57506001613c9a565b81613c1957506000613c9a565b8160018114613c2f5760028114613c3957613c55565b6001915050613c9a565b60ff841115613c4a57613c4a613ba4565b50506001821b613c9a565b5060208310610133831016604e8410600b8410161715613c78575081810a613c9a565b613c828383613bba565b8060001904821115613c9657613c96613ba4565b0290505b92915050565b60006133168383613bfd565b60008551613cbe818460208a016131ac565b855190830190613cd2818360208a016131ac565b8551910190613ce58183602089016131ac565b0192835250506020019392505050565b634e487b7160e01b600052601260045260246000fd5b600082613d1a57613d1a613cf5565b500690565b601f821115613d6957600081815260208120601f850160051c81016020861015613d465750805b601f850160051c820191505b81811015613d6557828155600101613d52565b5050505b505050565b81516001600160401b03811115613d8757613d87613092565b613d9b81613d958454613b6a565b84613d1f565b602080601f831160018114613dd05760008415613db85750858301515b600019600386901b1c1916600185901b178555613d65565b600085815260208120601f198616915b82811015613dff57888601518255948401946001909101908401613de0565b5085821015613e1d5787850151600019600388901b60f8161c191681555b5050505050600190811b01905550565b600060208284031215613e3f57600080fd5b8151801515811461331657600080fd5b6020808252601190820152705065726d697373616f206e65676164612160781b604082015260600190565b60008351613e8c8184602088016131ac565b835190830190613ea08183602088016131ac565b01949350505050565b604081526000613ebc60408301856131d0565b828103602084015261336581856131d0565b600060018201613ee057613ee0613ba4565b5060010190565b634e487b7160e01b600052603260045260246000fd5b6000808354613f0b81613b6a565b60018281168015613f235760018114613f3857613f67565b60ff1984168752821515830287019450613f67565b8760005260208060002060005b85811015613f5e5781548a820152908401908201613f45565b50505082870194505b50929695505050505050565b600082613f8257613f82613cf5565b500490565b80820180821115613c9a57613c9a613ba4565b81810381811115613c9a57613c9a613ba456fea2646970667358221220a838881de974befb8478b2ac9252ccebdd8a098fea714d50056e1ad94a46fb7c64736f6c63430008110033",
  "immutableReferences": {},
  "source": "// SPDX-License-Identifier: MIT\r\npragma solidity ^0.8.17;\r\nimport \"./Authentication.sol\";\r\nimport \"./UpdateTr.sol\";\r\n\r\nstruct Feedstock {\r\n    string id;\r\n    string[] feedstockIds;\r\n    string distributorId;\r\n    string dateTime;\r\n    UnitType unitType;\r\n}\r\n\r\n// struct FeedstockContainer {\r\n//     string id;\r\n//     string[] feedstockIds;\r\n//     string distributorId;\r\n//     string dateTime;\r\n// }\r\n\r\nstruct Honey {\r\n    string id;\r\n    string batch;\r\n    string code;\r\n    string feedstockBatch;\r\n    string honeyType;\r\n    string variety;\r\n    uint64 weight;\r\n    string packaging;\r\n    string validity;\r\n    string composition;\r\n}\r\n\r\nstruct Box {\r\n    string id;\r\n    string code;\r\n    string[] honeyId;\r\n}\r\n\r\nstruct Pallet {\r\n    string id;\r\n    string code;\r\n    string[] boxId;\r\n}\r\n\r\nstruct Dispatched {\r\n    string transporter;\r\n    string unit;\r\n    string date;\r\n}\r\n\r\ncontract Processing {\r\n    // Variaveis de estado\r\n    uint serialNumber;\r\n    mapping(string => Feedstock) feedstocks; // endereco => (codigo => carregamento). lista de materia prima recebida por cada processador de mel.\r\n    mapping(string => string[]) feedstocksId;\r\n\r\n    mapping(string => Honey) honeys; // honey id => Honey. Lista de produtos fabricados por cada processador de mel.\r\n    mapping(string => string[]) honeysId; // user id => honey id []\r\n    mapping(string => string[]) honeyBatchs; // user id => batch[]\r\n    mapping(string => uint32) count; // batch => counter\r\n\r\n    mapping(string => Box) boxes; // endereco => (codigo => Container). Lista de conteiners(caixa ou palete) montados por cada processador de mel.\r\n    mapping(string => string[]) boxesId;\r\n\r\n    mapping(string => Pallet) pallets; // id pallet => pallet. Lista de conteiners(caixa ou palete) montados por cada processador de mel.\r\n    mapping(string => string[]) palletsId;\r\n    //mapping(string => string[]) palletsBatch;\r\n\r\n    mapping(string => Dispatched) dispatcheds; // item id => Dispatche\r\n    mapping(string => string[]) dispatchedsId; // user id => item id\r\n\r\n    event NewUnit(string user, string unit);\r\n    event NewUnits(string user, string[] units);\r\n\r\n    address contractAuthentication;\r\n    Authentication instanceAuthentication;\r\n    address contractUpdateTr;\r\n    UpdateTr instanceUpdateTr;\r\n\r\n    constructor(address _contractAuthentication, address _contractUpdateTr) {\r\n        contractAuthentication = _contractAuthentication;\r\n        instanceAuthentication = Authentication(contractAuthentication);\r\n        contractUpdateTr = _contractUpdateTr;\r\n        instanceUpdateTr = UpdateTr(contractUpdateTr);\r\n        serialNumber = 1;\r\n    }\r\n\r\n    //Verifica se o endereo que esta chamando o contrato possui permisao para modificar o estado da rede\r\n    modifier onlyOWNER(string memory _userId) {\r\n        require(\r\n            instanceAuthentication.activeUser(_userId) == true,\r\n            \"Permissao negada!\"\r\n        );\r\n        _;\r\n    }\r\n\r\n    // Funes relacionadas ao mel recebido pelos processadores\r\n    function receiver(\r\n        string memory _id,\r\n        string[] memory _feedstockIds,\r\n        string memory _distributorId,\r\n        string memory _date,\r\n        UnitType _unitType,\r\n        string memory _userId\r\n    ) public onlyOWNER(_userId) {\r\n        feedstocks[_id] = Feedstock(\r\n            _id,\r\n            _feedstockIds,\r\n            _distributorId,\r\n            _date,\r\n            _unitType\r\n        );\r\n        feedstocksId[_userId].push(_id);\r\n    }\r\n\r\n    // Funcoes GET\r\n    function getFeedstock(\r\n        string memory _id\r\n    ) public view returns (Feedstock memory) {\r\n        return feedstocks[_id];\r\n    }\r\n\r\n    function getFeedstockId(\r\n        string memory _userId\r\n    ) public view returns (string[] memory) {\r\n        return feedstocksId[_userId];\r\n    }\r\n\r\n    function listFeedstock(\r\n        string memory _userId\r\n    ) public view returns (Feedstock[] memory) {\r\n        Feedstock[] memory feedstock = new Feedstock[](\r\n            feedstocksId[_userId].length\r\n        );\r\n        for (uint256 i = 0; i < feedstock.length; i++) {\r\n            feedstock[i] = feedstocks[feedstocksId[_userId][i]];\r\n        }\r\n        return feedstock;\r\n    }\r\n\r\n    // Funes relacionadas ao mel beneficiado produzido pelos processadores\r\n\r\n    function generateBatch(\r\n        string memory _userId,\r\n        string memory _feedstockBatch,\r\n        string memory _variety\r\n    ) public returns (string memory) {\r\n        uint hashDigits = 8;\r\n        uint hashModulus = 10 ** hashDigits;\r\n        uint _hash = uint(\r\n            keccak256(\r\n                abi.encodePacked(\r\n                    _userId,\r\n                    _feedstockBatch,\r\n                    _variety,\r\n                    block.timestamp\r\n                )\r\n            )\r\n        );\r\n        string memory _batch = uintToString(_hash % hashModulus);\r\n        honeyBatchs[_userId].push(_batch);\r\n        return _batch;\r\n    }\r\n\r\n    function newHoney(\r\n        Honey memory _honey,\r\n        string memory _userId\r\n    ) public onlyOWNER(_userId) {\r\n        string memory _id = string(\r\n            abi.encodePacked(_honey.batch, uintToString(serialNumber))\r\n        );\r\n        require(bytes(honeys[_id].id).length == 0);\r\n        honeys[_id] = Honey(\r\n            _id,\r\n            _honey.batch,\r\n            _honey.code,\r\n            _honey.feedstockBatch,\r\n            _honey.honeyType,\r\n            _honey.variety,\r\n            _honey.weight,\r\n            _honey.packaging,\r\n            _honey.validity,\r\n            _honey.composition\r\n        );\r\n        honeysId[_userId].push(_id);\r\n        serialNumber++;\r\n        emit NewUnit(_userId, _id);\r\n    }\r\n\r\n    function getHoney(string memory _id) public view returns (Honey memory) {\r\n        return honeys[_id];\r\n    }\r\n\r\n    function getHoneyId(\r\n        string memory _userId\r\n    ) public view returns (string[] memory) {\r\n        return honeysId[_userId];\r\n    }\r\n\r\n    function getHoneyBatchs(\r\n        string memory _userId\r\n    ) public view returns (string[] memory) {\r\n        return honeyBatchs[_userId];\r\n    }\r\n\r\n    function listHoneys(\r\n        string memory _userId\r\n    ) public view returns (Honey[] memory) {\r\n        Honey[] memory honey = new Honey[](honeysId[_userId].length);\r\n        for (uint256 i = 0; i < honey.length; i++) {\r\n            honey[i] = honeys[honeysId[_userId][i]];\r\n        }\r\n        return honey;\r\n    }\r\n\r\n    // Funes relacionadas aos containeres de mel produzidos pelos processadores\r\n    function newBox(\r\n        string[] memory _honeyId,\r\n        string memory _userId,\r\n        string memory _code\r\n    ) public onlyOWNER(_userId) {\r\n        string memory _id = string(\r\n            abi.encodePacked(_code, uintToString(serialNumber))\r\n        );\r\n        require(bytes(boxes[_id].id).length == 0);\r\n        boxes[_id] = Box(_id, _code, _honeyId);\r\n        boxesId[_userId].push(_id);\r\n        emit NewUnit(_userId, _id);\r\n    }\r\n\r\n    function getBox(string memory _id) public view returns (Box memory) {\r\n        return boxes[_id];\r\n    }\r\n\r\n    function getBoxId(\r\n        string memory _userId\r\n    ) public view returns (string[] memory) {\r\n        return boxesId[_userId];\r\n    }\r\n\r\n    function newPallet(\r\n        string[] memory _boxId,\r\n        string memory _code,\r\n        string memory _userId\r\n    ) public onlyOWNER(_userId) {\r\n        string memory _id = string(\r\n            abi.encodePacked(_code, uintToString(serialNumber))\r\n        );\r\n        require(bytes(boxes[_id].id).length == 0);\r\n        pallets[_id] = Pallet(_id, _code, _boxId);\r\n        palletsId[_userId].push(_id);\r\n        emit NewUnit(_userId, _id);\r\n    }\r\n\r\n    // Fones GET\r\n    function getPallet(string memory _id) public view returns (Pallet memory) {\r\n        return pallets[_id];\r\n    }\r\n\r\n    function getPalletId(\r\n        string memory _userId\r\n    ) public view returns (string[] memory) {\r\n        return palletsId[_userId];\r\n    }\r\n\r\n    function getDispatched(\r\n        string memory _id\r\n    ) public view returns (Dispatched memory) {\r\n        return dispatcheds[_id];\r\n    }\r\n\r\n    function listDispatched(\r\n        string memory _userId\r\n    ) public view returns (Dispatched[] memory) {\r\n        Dispatched[] memory dispatched = new Dispatched[](\r\n            dispatchedsId[_userId].length\r\n        );\r\n        for (uint256 i = 0; i < dispatched.length; i++) {\r\n            dispatched[i] = dispatcheds[dispatchedsId[_userId][i]];\r\n        }\r\n        return dispatched;\r\n    }\r\n\r\n    function dispatcher(\r\n        string memory _sender,\r\n        string memory _receiver,\r\n        string memory _unit,\r\n        string memory _date\r\n    ) public onlyOWNER(_sender) returns (bool) {\r\n        dispatcheds[_unit] = Dispatched(_receiver, _unit, _date);\r\n        dispatchedsId[_sender].push(_unit);\r\n\r\n        return true;\r\n    }\r\n\r\n    function uintToString(uint v) internal pure returns (string memory str) {\r\n        uint maxlength = 100;\r\n        bytes memory reversed = new bytes(maxlength);\r\n        uint i = 0;\r\n        while (v != 0) {\r\n            uint remainder = v % 10;\r\n            v = v / 10;\r\n            reversed[i++] = bytes1(uint8(48 + remainder));\r\n        }\r\n        bytes memory s = new bytes(i);\r\n        for (uint j = 0; j < i; j++) {\r\n            s[j] = reversed[i - 1 - j];\r\n        }\r\n        return str = string(s);\r\n    }\r\n}\r\n",
  "sourcePath": "C:\\Users\\samue\\Documents\\Workspace_react\\BlockForBees\\backend_blockcahin\\contracts\\Processing.sol",
  "compiler": {
    "name": "solc",
    "version": "0.8.17+commit.8df45f5f.Emscripten.clang"
  },
  "schemaVersion": "3.4.11",
  "updatedAt": "2023-06-29T08:44:31.593Z",
  "devdoc": {
    "kind": "dev",
    "methods": {},
    "version": 1
  },
  "userdoc": {
    "kind": "user",
    "methods": {},
    "version": 1
  }
}