{
  "contractName": "RegistrarProducao",
  "abi": [
    {
      "inputs": [
        {
          "internalType": "address",
          "name": "_contract",
          "type": "address"
        }
      ],
      "stateMutability": "nonpayable",
      "type": "constructor"
    },
    {
      "anonymous": false,
      "inputs": [
        {
          "indexed": true,
          "internalType": "address",
          "name": "OWNER",
          "type": "address"
        },
        {
          "components": [
            {
              "internalType": "uint256",
              "name": "colmeiaId",
              "type": "uint256"
            },
            {
              "internalType": "uint16",
              "name": "melProduzido",
              "type": "uint16"
            },
            {
              "internalType": "uint256",
              "name": "dateColeta",
              "type": "uint256"
            }
          ],
          "indexed": false,
          "internalType": "struct Colmeia[]",
          "name": "colmeias",
          "type": "tuple[]"
        },
        {
          "indexed": true,
          "internalType": "uint256",
          "name": "date",
          "type": "uint256"
        }
      ],
      "name": "Coleta",
      "type": "event"
    },
    {
      "anonymous": false,
      "inputs": [
        {
          "indexed": false,
          "internalType": "address",
          "name": "OWNER",
          "type": "address"
        },
        {
          "components": [
            {
              "internalType": "uint256",
              "name": "colmeiaId",
              "type": "uint256"
            },
            {
              "internalType": "uint16",
              "name": "melProduzido",
              "type": "uint16"
            },
            {
              "internalType": "uint256",
              "name": "dateColeta",
              "type": "uint256"
            }
          ],
          "indexed": false,
          "internalType": "struct Colmeia",
          "name": "colmeia",
          "type": "tuple"
        },
        {
          "indexed": false,
          "internalType": "uint256",
          "name": "date",
          "type": "uint256"
        }
      ],
      "name": "Enxame",
      "type": "event"
    },
    {
      "anonymous": false,
      "inputs": [
        {
          "indexed": true,
          "internalType": "address",
          "name": "_sender",
          "type": "address"
        },
        {
          "indexed": true,
          "internalType": "address",
          "name": "_recipient",
          "type": "address"
        },
        {
          "indexed": false,
          "internalType": "uint256",
          "name": "produtionId",
          "type": "uint256"
        },
        {
          "indexed": true,
          "internalType": "uint256",
          "name": "lote",
          "type": "uint256"
        },
        {
          "indexed": false,
          "internalType": "bytes",
          "name": "signature",
          "type": "bytes"
        }
      ],
      "name": "Transfer",
      "type": "event"
    },
    {
      "inputs": [
        {
          "internalType": "uint256",
          "name": "_colmeiaId",
          "type": "uint256"
        },
        {
          "internalType": "uint16",
          "name": "_melProduzido",
          "type": "uint16"
        },
        {
          "internalType": "string",
          "name": "_userId",
          "type": "string"
        }
      ],
      "name": "updateColmeia",
      "outputs": [],
      "stateMutability": "nonpayable",
      "type": "function"
    },
    {
      "inputs": [],
      "name": "listColmeias",
      "outputs": [
        {
          "components": [
            {
              "internalType": "uint256",
              "name": "colmeiaId",
              "type": "uint256"
            },
            {
              "internalType": "uint16",
              "name": "melProduzido",
              "type": "uint16"
            },
            {
              "internalType": "uint256",
              "name": "dateColeta",
              "type": "uint256"
            }
          ],
          "internalType": "struct Colmeia[]",
          "name": "",
          "type": "tuple[]"
        }
      ],
      "stateMutability": "view",
      "type": "function"
    },
    {
      "inputs": [
        {
          "internalType": "uint256",
          "name": "_colmeiaId",
          "type": "uint256"
        }
      ],
      "name": "getColmeiaById",
      "outputs": [
        {
          "components": [
            {
              "internalType": "uint256",
              "name": "colmeiaId",
              "type": "uint256"
            },
            {
              "internalType": "uint16",
              "name": "melProduzido",
              "type": "uint16"
            },
            {
              "internalType": "uint256",
              "name": "dateColeta",
              "type": "uint256"
            }
          ],
          "internalType": "struct Colmeia",
          "name": "",
          "type": "tuple"
        }
      ],
      "stateMutability": "view",
      "type": "function"
    },
    {
      "inputs": [
        {
          "internalType": "uint256",
          "name": "_id",
          "type": "uint256"
        },
        {
          "internalType": "uint64",
          "name": "_peso",
          "type": "uint64"
        },
        {
          "internalType": "string",
          "name": "_localizacao",
          "type": "string"
        },
        {
          "internalType": "string",
          "name": "_apicultorId",
          "type": "string"
        },
        {
          "internalType": "uint256[]",
          "name": "_colmeiasId",
          "type": "uint256[]"
        }
      ],
      "name": "registerProduction",
      "outputs": [],
      "stateMutability": "nonpayable",
      "type": "function"
    },
    {
      "inputs": [],
      "name": "listProduction",
      "outputs": [
        {
          "components": [
            {
              "internalType": "uint256",
              "name": "id",
              "type": "uint256"
            },
            {
              "internalType": "uint64",
              "name": "WeightTotal",
              "type": "uint64"
            },
            {
              "internalType": "uint256",
              "name": "date",
              "type": "uint256"
            },
            {
              "internalType": "string",
              "name": "localization",
              "type": "string"
            },
            {
              "internalType": "string",
              "name": "apicultorId",
              "type": "string"
            },
            {
              "internalType": "uint256[]",
              "name": "colmeiasId",
              "type": "uint256[]"
            }
          ],
          "internalType": "struct Production[]",
          "name": "",
          "type": "tuple[]"
        }
      ],
      "stateMutability": "view",
      "type": "function"
    },
    {
      "inputs": [
        {
          "internalType": "uint256",
          "name": "_id",
          "type": "uint256"
        }
      ],
      "name": "getProductionById",
      "outputs": [
        {
          "components": [
            {
              "internalType": "uint256",
              "name": "id",
              "type": "uint256"
            },
            {
              "internalType": "uint64",
              "name": "WeightTotal",
              "type": "uint64"
            },
            {
              "internalType": "uint256",
              "name": "date",
              "type": "uint256"
            },
            {
              "internalType": "string",
              "name": "localization",
              "type": "string"
            },
            {
              "internalType": "string",
              "name": "apicultorId",
              "type": "string"
            },
            {
              "internalType": "uint256[]",
              "name": "colmeiasId",
              "type": "uint256[]"
            }
          ],
          "internalType": "struct Production",
          "name": "",
          "type": "tuple"
        }
      ],
      "stateMutability": "view",
      "type": "function"
    },
    {
      "inputs": [
        {
          "internalType": "string",
          "name": "_user",
          "type": "string"
        },
        {
          "components": [
            {
              "internalType": "uint256",
              "name": "codigo",
              "type": "uint256"
            },
            {
              "internalType": "uint256",
              "name": "lote",
              "type": "uint256"
            },
            {
              "internalType": "string",
              "name": "especializacao",
              "type": "string"
            },
            {
              "internalType": "uint64",
              "name": "peso",
              "type": "uint64"
            },
            {
              "internalType": "uint256",
              "name": "data",
              "type": "uint256"
            },
            {
              "internalType": "string",
              "name": "localizacao",
              "type": "string"
            },
            {
              "internalType": "uint256",
              "name": "producaoId",
              "type": "uint256"
            }
          ],
          "internalType": "struct Honey",
          "name": "_honey",
          "type": "tuple"
        }
      ],
      "name": "registerProduct",
      "outputs": [],
      "stateMutability": "nonpayable",
      "type": "function"
    },
    {
      "inputs": [
        {
          "components": [
            {
              "internalType": "uint256",
              "name": "codigo",
              "type": "uint256"
            },
            {
              "internalType": "uint256",
              "name": "lote",
              "type": "uint256"
            },
            {
              "internalType": "string",
              "name": "especializacao",
              "type": "string"
            },
            {
              "internalType": "uint64",
              "name": "peso",
              "type": "uint64"
            },
            {
              "internalType": "uint256",
              "name": "data",
              "type": "uint256"
            },
            {
              "internalType": "string",
              "name": "localizacao",
              "type": "string"
            },
            {
              "internalType": "uint256",
              "name": "producaoId",
              "type": "uint256"
            }
          ],
          "internalType": "struct Honey",
          "name": "_honey",
          "type": "tuple"
        },
        {
          "internalType": "string",
          "name": "_user",
          "type": "string"
        }
      ],
      "name": "registerProduct2",
      "outputs": [],
      "stateMutability": "nonpayable",
      "type": "function"
    },
    {
      "inputs": [
        {
          "components": [
            {
              "internalType": "uint256",
              "name": "codigo",
              "type": "uint256"
            },
            {
              "internalType": "uint256",
              "name": "lote",
              "type": "uint256"
            },
            {
              "internalType": "string",
              "name": "especializacao",
              "type": "string"
            },
            {
              "internalType": "uint64",
              "name": "peso",
              "type": "uint64"
            },
            {
              "internalType": "uint256",
              "name": "data",
              "type": "uint256"
            },
            {
              "internalType": "string",
              "name": "localizacao",
              "type": "string"
            },
            {
              "internalType": "uint256",
              "name": "producaoId",
              "type": "uint256"
            }
          ],
          "internalType": "struct Honey[]",
          "name": "_honey",
          "type": "tuple[]"
        },
        {
          "internalType": "string",
          "name": "_user",
          "type": "string"
        }
      ],
      "name": "registerProductList",
      "outputs": [
        {
          "internalType": "string",
          "name": "",
          "type": "string"
        }
      ],
      "stateMutability": "nonpayable",
      "type": "function"
    },
    {
      "inputs": [],
      "name": "listProduct",
      "outputs": [
        {
          "components": [
            {
              "internalType": "uint256",
              "name": "codigo",
              "type": "uint256"
            },
            {
              "internalType": "uint256",
              "name": "lote",
              "type": "uint256"
            },
            {
              "internalType": "string",
              "name": "especializacao",
              "type": "string"
            },
            {
              "internalType": "uint64",
              "name": "peso",
              "type": "uint64"
            },
            {
              "internalType": "uint256",
              "name": "data",
              "type": "uint256"
            },
            {
              "internalType": "string",
              "name": "localizacao",
              "type": "string"
            },
            {
              "internalType": "uint256",
              "name": "producaoId",
              "type": "uint256"
            }
          ],
          "internalType": "struct Honey[]",
          "name": "",
          "type": "tuple[]"
        }
      ],
      "stateMutability": "view",
      "type": "function"
    },
    {
      "inputs": [
        {
          "internalType": "uint256",
          "name": "_batch",
          "type": "uint256"
        }
      ],
      "name": "listProductBatch",
      "outputs": [
        {
          "components": [
            {
              "internalType": "uint256",
              "name": "codigo",
              "type": "uint256"
            },
            {
              "internalType": "uint256",
              "name": "lote",
              "type": "uint256"
            },
            {
              "internalType": "string",
              "name": "especializacao",
              "type": "string"
            },
            {
              "internalType": "uint64",
              "name": "peso",
              "type": "uint64"
            },
            {
              "internalType": "uint256",
              "name": "data",
              "type": "uint256"
            },
            {
              "internalType": "string",
              "name": "localizacao",
              "type": "string"
            },
            {
              "internalType": "uint256",
              "name": "producaoId",
              "type": "uint256"
            }
          ],
          "internalType": "struct Honey[]",
          "name": "",
          "type": "tuple[]"
        }
      ],
      "stateMutability": "view",
      "type": "function"
    },
    {
      "inputs": [
        {
          "internalType": "uint256",
          "name": "_codigo",
          "type": "uint256"
        }
      ],
      "name": "getProductById",
      "outputs": [
        {
          "components": [
            {
              "internalType": "uint256",
              "name": "codigo",
              "type": "uint256"
            },
            {
              "internalType": "uint256",
              "name": "lote",
              "type": "uint256"
            },
            {
              "internalType": "string",
              "name": "especializacao",
              "type": "string"
            },
            {
              "internalType": "uint64",
              "name": "peso",
              "type": "uint64"
            },
            {
              "internalType": "uint256",
              "name": "data",
              "type": "uint256"
            },
            {
              "internalType": "string",
              "name": "localizacao",
              "type": "string"
            },
            {
              "internalType": "uint256",
              "name": "producaoId",
              "type": "uint256"
            }
          ],
          "internalType": "struct Honey",
          "name": "",
          "type": "tuple"
        }
      ],
      "stateMutability": "view",
      "type": "function"
    },
    {
      "inputs": [],
      "name": "addLote",
      "outputs": [],
      "stateMutability": "nonpayable",
      "type": "function"
    },
    {
      "inputs": [
        {
          "internalType": "address",
          "name": "_recipient",
          "type": "address"
        },
        {
          "internalType": "uint256",
          "name": "_productionId",
          "type": "uint256"
        },
        {
          "internalType": "uint256",
          "name": "_lote",
          "type": "uint256"
        },
        {
          "internalType": "bytes",
          "name": "_signature",
          "type": "bytes"
        }
      ],
      "name": "transfer",
      "outputs": [],
      "stateMutability": "nonpayable",
      "type": "function"
    },
    {
      "inputs": [
        {
          "internalType": "address[]",
          "name": "_address",
          "type": "address[]"
        },
        {
          "internalType": "string",
          "name": "_user",
          "type": "string"
        }
      ],
      "name": "addOWNER",
      "outputs": [],
      "stateMutability": "nonpayable",
      "type": "function"
    },
    {
      "inputs": [
        {
          "internalType": "address[]",
          "name": "_address",
          "type": "address[]"
        },
        {
          "internalType": "string",
          "name": "_user",
          "type": "string"
        }
      ],
      "name": "remOWNER",
      "outputs": [],
      "stateMutability": "nonpayable",
      "type": "function"
    }
  ],
  "bytecode": "0x60806040523480156200001157600080fd5b506040516200293b3803806200293b833981016040819052620000349162000064565b600780546001600160a01b039092166001600160a01b031992831681179091556008805490921617905562000096565b6000602082840312156200007757600080fd5b81516001600160a01b03811681146200008f57600080fd5b9392505050565b61289580620000a66000396000f3fe608060405234801561001057600080fd5b50600436106101005760003560e01c806360cb9ebd11610097578063c8cad87511610066578063c8cad87514610219578063dabd76e91461022e578063dd2a0db514610241578063f68e30671461025457600080fd5b806360cb9ebd146101c957806369fdd625146101dc5780637153d3ca146101f157806391e4eac81461020457600080fd5b80633f87fa74116100d35780633f87fa74146101635780635c5d05a7146101835780635f121cd3146101a35780635f998670146101b657600080fd5b8063039419ee146101055780630db28cd31461011857806325cdd6511461011a5780633f70c2b414610143575b600080fd5b610118610113366004611ea9565b610267565b005b61012d610128366004611f0c565b61049e565b60405161013a9190611f25565b60405180910390f35b610156610151366004611f0c565b61050e565b60405161013a9190612010565b610176610171366004612046565b6106a6565b60405161013a9190612102565b610196610191366004611f0c565b61071e565b60405161013a91906121b8565b6101186101b13660046121e2565b610932565b6101186101c436600461228a565b610a7c565b6101186101d73660046122e3565b610ca7565b6101e4611008565b60405161013a91906123db565b6101e46101ff366004611f0c565b611254565b61020c6114ea565b60405161013a919061243d565b61022161160d565b60405161013a91906124a3565b61011861023c3660046124f8565b6118e9565b61011861024f3660046121e2565b61193d565b61011861026236600461256c565b611a81565b808060405160200161027991906125cb565b60408051808303601f190181529082905280516020909101206008546365f68c8960e01b835232600484015290916001600160a01b03909116906365f68c8990602401600060405180830381865afa1580156102d9573d6000803e3d6000fd5b505050506040513d6000823e601f3d908101601f1916820160405261030191908101906125e7565b60405160200161031191906125cb565b604051602081830303815290604052805190602001201461034d5760405162461bcd60e51b81526004016103449061265d565b60405180910390fd5b32600090815260056020908152604080832086518452909152902054156103865760405162461bcd60e51b815260040161034490612688565b6040805160e08101825284518152602080860151818301908152868401518385019081526060808901516001600160401b03169085015242608085015260a0808901519085015260c0808901519085015232600090815260058452858120895182529093529390912082518155905160018201559151909190600282019061040e9082612742565b50606082015160038201805467ffffffffffffffff19166001600160401b039092169190911790556080820151600482015560a082015160058201906104549082612742565b5060c09190910151600691820155925183546001810185556000949094527ff652222313e28459528d920b65115c16c04f3efc82aaedc97be59f3f377c0d3f909301929092555050565b6104c6604051806060016040528060008152602001600061ffff168152602001600081525090565b50326000908152600160208181526040808420948452938152918390208351606081018552815481529181015461ffff16928201929092526002909101549181019190915290565b610516611c46565b326000908152600560209081526040808320858452825291829020825160e081018452815481526001820154928101929092526002810180549293919291840191610560906126bf565b80601f016020809104026020016040519081016040528092919081815260200182805461058c906126bf565b80156105d95780601f106105ae576101008083540402835291602001916105d9565b820191906000526020600020905b8154815290600101906020018083116105bc57829003601f168201915b505050918352505060038201546001600160401b0316602082015260048201546040820152600582018054606090920191610613906126bf565b80601f016020809104026020016040519081016040528092919081815260200182805461063f906126bf565b801561068c5780601f106106615761010080835404028352916020019161068c565b820191906000526020600020905b81548152906001019060200180831161066f57829003601f168201915b505050505081526020016006820154815250509050919050565b606060005b83518110156106e9576106d78482815181106106c9576106c9612801565b602002602001015184610267565b806106e181612817565b9150506106ab565b505060408051808201909152601581527450726f6475746f73207265676973747261646f732160581b60208201525b92915050565b6107606040518060c001604052806000815260200160006001600160401b03168152602001600081526020016060815260200160608152602001606081525090565b326000908152600360208181526040808420868552825292839020835160c0810185528154815260018201546001600160401b03169281019290925260028101549382019390935290820180549192916060840191906107bf906126bf565b80601f01602080910402602001604051908101604052809291908181526020018280546107eb906126bf565b80156108385780601f1061080d57610100808354040283529160200191610838565b820191906000526020600020905b81548152906001019060200180831161081b57829003601f168201915b50505050508152602001600482018054610851906126bf565b80601f016020809104026020016040519081016040528092919081815260200182805461087d906126bf565b80156108ca5780601f1061089f576101008083540402835291602001916108ca565b820191906000526020600020905b8154815290600101906020018083116108ad57829003601f168201915b505050505081526020016005820180548060200260200160405190810160405280929190818152602001828054801561092257602002820191906000526020600020905b81548152602001906001019080831161090e575b5050505050815250509050919050565b808060405160200161094491906125cb565b60408051808303601f190181529082905280516020909101206008546365f68c8960e01b835232600484015290916001600160a01b03909116906365f68c8990602401600060405180830381865afa1580156109a4573d6000803e3d6000fd5b505050506040513d6000823e601f3d908101601f191682016040526109cc91908101906125e7565b6040516020016109dc91906125cb565b6040516020818303038152906040528051906020012014610a0f5760405162461bcd60e51b81526004016103449061265d565b60005b8351811015610a76576000806000868481518110610a3257610a32612801565b6020908102919091018101516001600160a01b03168252810191909152604001600020805460ff191691151591909117905580610a6e81612817565b915050610a12565b50505050565b8180604051602001610a8e91906125cb565b60408051808303601f190181529082905280516020909101206008546365f68c8960e01b835232600484015290916001600160a01b03909116906365f68c8990602401600060405180830381865afa158015610aee573d6000803e3d6000fd5b505050506040513d6000823e601f3d908101601f19168201604052610b1691908101906125e7565b604051602001610b2691906125cb565b6040516020818303038152906040528051906020012014610b595760405162461bcd60e51b81526004016103449061265d565b3260009081526005602090815260408083208551845290915290205415610b925760405162461bcd60e51b815260040161034490612688565b6040805160e0810182528351815283516020808301918252858401518385019081526060808801516001600160401b03169085015242608085015260a0808801519085015260c080880151908501523260009081526005835285812088518252909252939020825181559051600182015591519091906002820190610c179082612742565b50606082015160038201805467ffffffffffffffff19166001600160401b039092169190911790556080820151600482015560a08201516005820190610c5d9082612742565b5060c09190910151600691820155915182546001810184556000939093527ff652222313e28459528d920b65115c16c04f3efc82aaedc97be59f3f377c0d3f909201919091555050565b8180604051602001610cb991906125cb565b60408051808303601f190181529082905280516020909101206008546365f68c8960e01b835232600484015290916001600160a01b03909116906365f68c8990602401600060405180830381865afa158015610d19573d6000803e3d6000fd5b505050506040513d6000823e601f3d908101601f19168201604052610d4191908101906125e7565b604051602001610d5191906125cb565b6040516020818303038152906040528051906020012014610d845760405162461bcd60e51b81526004016103449061265d565b32600090815260036020908152604080832089845290915290205415610dbc5760405162461bcd60e51b815260040161034490612688565b600082516001600160401b03811115610dd757610dd7611cec565b604051908082528060200260200182016040528015610e3057816020015b610e1d604051806060016040528060008152602001600061ffff168152602001600081525090565b815260200190600190039081610df55790505b50905060005b8351811015610e9157610e61848281518110610e5457610e54612801565b602002602001015161049e565b828281518110610e7357610e73612801565b60200260200101819052508080610e8990612817565b915050610e36565b5042326001600160a01b03167f13e7b1ce6401b1c66a682bf6fe4cb7778c3a20beed5ce4e21a78db374f16e5c283604051610ecc919061243d565b60405180910390a36040518060c00160405280888152602001876001600160401b031681526020014281526020018681526020018581526020018481525060036000326001600160a01b03166001600160a01b0316815260200190815260200160002060008981526020019081526020016000206000820151816000015560208201518160010160006101000a8154816001600160401b0302191690836001600160401b03160217905550604082015181600201556060820151816003019081610f969190612742565b5060808201516004820190610fab9082612742565b5060a08201518051610fc7916005840191602090910190611c8c565b5050600480546001810182556000919091527f8a35acfbc15ff81a39ae7d344fd709f28e8600b4aa8c65c6b64bfe7fe36bd19b019790975550505050505050565b6006546060906000906001600160401b0381111561102857611028611cec565b60405190808252806020026020018201604052801561106157816020015b61104e611c46565b8152602001906001900390816110465790505b50905060005b60065481101561124e57326000908152600560205260408120600680549192918490811061109757611097612801565b906000526020600020015481526020019081526020016000206040518060e001604052908160008201548152602001600182015481526020016002820180546110df906126bf565b80601f016020809104026020016040519081016040528092919081815260200182805461110b906126bf565b80156111585780601f1061112d57610100808354040283529160200191611158565b820191906000526020600020905b81548152906001019060200180831161113b57829003601f168201915b505050918352505060038201546001600160401b0316602082015260048201546040820152600582018054606090920191611192906126bf565b80601f01602080910402602001604051908101604052809291908181526020018280546111be906126bf565b801561120b5780601f106111e05761010080835404028352916020019161120b565b820191906000526020600020905b8154815290600101906020018083116111ee57829003601f168201915b5050505050815260200160068201548152505082828151811061123057611230612801565b6020026020010181905250808061124690612817565b915050611067565b50919050565b6006546060906000906001600160401b0381111561127457611274611cec565b6040519080825280602002602001820160405280156112ad57816020015b61129a611c46565b8152602001906001900390816112925790505b50905060005b6006548110156114e3573260009081526005602052604081206006805487939190859081106112e4576112e4612801565b9060005260206000200154815260200190815260200160002060010154036114d157326000908152600560205260408120600680549192918490811061132c5761132c612801565b906000526020600020015481526020019081526020016000206040518060e00160405290816000820154815260200160018201548152602001600282018054611374906126bf565b80601f01602080910402602001604051908101604052809291908181526020018280546113a0906126bf565b80156113ed5780601f106113c2576101008083540402835291602001916113ed565b820191906000526020600020905b8154815290600101906020018083116113d057829003601f168201915b505050918352505060038201546001600160401b0316602082015260048201546040820152600582018054606090920191611427906126bf565b80601f0160208091040260200160405190810160405280929190818152602001828054611453906126bf565b80156114a05780601f10611475576101008083540402835291602001916114a0565b820191906000526020600020905b81548152906001019060200180831161148357829003601f168201915b505050505081526020016006820154815250508282815181106114c5576114c5612801565b60200260200101819052505b806114db81612817565b9150506112b3565b5092915050565b6002546060906000906001600160401b0381111561150a5761150a611cec565b60405190808252806020026020018201604052801561156357816020015b611550604051806060016040528060008152602001600061ffff168152602001600081525090565b8152602001906001900390816115285790505b50905060005b60025481101561124e57326000908152600160205260408120600280549192918490811061159957611599612801565b600091825260208083209091015483528281019390935260409182019020815160608101835281548152600182015461ffff1693810193909352600201549082015282518390839081106115ef576115ef612801565b6020026020010181905250808061160590612817565b915050611569565b6004546060906000906001600160401b0381111561162d5761162d611cec565b6040519080825280602002602001820160405280156116a057816020015b61168d6040518060c001604052806000815260200160006001600160401b03168152602001600081526020016060815260200160608152602001606081525090565b81526020019060019003908161164b5790505b50905060005b60045481101561124e5732600090815260036020526040812060048054919291849081106116d6576116d6612801565b906000526020600020015481526020019081526020016000206040518060c0016040529081600082015481526020016001820160009054906101000a90046001600160401b03166001600160401b03166001600160401b031681526020016002820154815260200160038201805461174d906126bf565b80601f0160208091040260200160405190810160405280929190818152602001828054611779906126bf565b80156117c65780601f1061179b576101008083540402835291602001916117c6565b820191906000526020600020905b8154815290600101906020018083116117a957829003601f168201915b505050505081526020016004820180546117df906126bf565b80601f016020809104026020016040519081016040528092919081815260200182805461180b906126bf565b80156118585780601f1061182d57610100808354040283529160200191611858565b820191906000526020600020905b81548152906001019060200180831161183b57829003601f168201915b50505050508152602001600582018054806020026020016040519081016040528092919081815260200182805480156118b057602002820191906000526020600020905b81548152602001906001019080831161189c575b5050505050815250508282815181106118cb576118cb612801565b602002602001018190525080806118e190612817565b9150506116a6565b81846001600160a01b0316326001600160a01b03167f8935efbb64117f427c3b5bb8ba6478680d8c331971be8169548207e1854ae11d868560405161192f92919061283e565b60405180910390a450505050565b808060405160200161194f91906125cb565b60408051808303601f190181529082905280516020909101206008546365f68c8960e01b835232600484015290916001600160a01b03909116906365f68c8990602401600060405180830381865afa1580156119af573d6000803e3d6000fd5b505050506040513d6000823e601f3d908101601f191682016040526119d791908101906125e7565b6040516020016119e791906125cb565b6040516020818303038152906040528051906020012014611a1a5760405162461bcd60e51b81526004016103449061265d565b60005b8351811015610a76576001600080868481518110611a3d57611a3d612801565b6020908102919091018101516001600160a01b03168252810191909152604001600020805460ff191691151591909117905580611a7981612817565b915050611a1d565b8080604051602001611a9391906125cb565b60408051808303601f190181529082905280516020909101206008546365f68c8960e01b835232600484015290916001600160a01b03909116906365f68c8990602401600060405180830381865afa158015611af3573d6000803e3d6000fd5b505050506040513d6000823e601f3d908101601f19168201604052611b1b91908101906125e7565b604051602001611b2b91906125cb565b6040516020818303038152906040528051906020012014611b5e5760405162461bcd60e51b81526004016103449061265d565b32600090815260016020908152604080832087845290915290205415611bbe5760405162461bcd60e51b8152602060048201526015602482015274436f6c6d656961206a61206361646173747261646160581b6044820152606401610344565b50506040805160608101825283815261ffff9283166020808301918252428385019081523260009081526001808452868220898352909352948520935184559151838201805461ffff19169190961617909455516002918201558054928301815590527f405787fa12a823e0f2b7631cc41b3ba8828b3321ca811111fa75cd3aa3bb5ace0155565b6040518060e0016040528060008152602001600081526020016060815260200160006001600160401b031681526020016000815260200160608152602001600081525090565b828054828255906000526020600020908101928215611cc7579160200282015b82811115611cc7578251825591602001919060010190611cac565b50611cd3929150611cd7565b5090565b5b80821115611cd35760008155600101611cd8565b634e487b7160e01b600052604160045260246000fd5b60405160e081016001600160401b0381118282101715611d2457611d24611cec565b60405290565b604051601f8201601f191681016001600160401b0381118282101715611d5257611d52611cec565b604052919050565b60006001600160401b03821115611d7357611d73611cec565b50601f01601f191660200190565b6000611d94611d8f84611d5a565b611d2a565b9050828152838383011115611da857600080fd5b828260208301376000602084830101529392505050565b600082601f830112611dd057600080fd5b611ddf83833560208501611d81565b9392505050565b80356001600160401b0381168114611dfd57600080fd5b919050565b600060e08284031215611e1457600080fd5b611e1c611d02565b9050813581526020820135602082015260408201356001600160401b0380821115611e4657600080fd5b611e5285838601611dbf565b6040840152611e6360608501611de6565b60608401526080840135608084015260a0840135915080821115611e8657600080fd5b50611e9384828501611dbf565b60a08301525060c082013560c082015292915050565b60008060408385031215611ebc57600080fd5b82356001600160401b0380821115611ed357600080fd5b611edf86838701611e02565b93506020850135915080821115611ef557600080fd5b50611f0285828601611dbf565b9150509250929050565b600060208284031215611f1e57600080fd5b5035919050565b8151815260208083015161ffff16908201526040808301519082015260608101610718565b60005b83811015611f65578181015183820152602001611f4d565b50506000910152565b60008151808452611f86816020860160208601611f4a565b601f01601f19169290920160200192915050565b80518252602081015160208301526000604082015160e06040850152611fc360e0850182611f6e565b90506001600160401b0360608401511660608501526080830151608085015260a083015184820360a0860152611ff98282611f6e565b91505060c083015160c08501528091505092915050565b602081526000611ddf6020830184611f9a565b60006001600160401b0382111561203c5761203c611cec565b5060051b60200190565b6000806040838503121561205957600080fd5b82356001600160401b038082111561207057600080fd5b818501915085601f83011261208457600080fd5b81356020612094611d8f83612023565b82815260059290921b840181019181810190898411156120b357600080fd5b8286015b848110156120eb578035868111156120cf5760008081fd5b6120dd8c86838b0101611e02565b8452509183019183016120b7565b5096505086013592505080821115611ef557600080fd5b602081526000611ddf6020830184611f6e565b80518252600060206001600160401b0381840151168185015260408301516040850152606083015160c0606086015261215160c0860182611f6e565b90506080840151858203608087015261216a8282611f6e565b60a086810151888303918901919091528051808352908501935060009250908401905b808310156121ad578351825292840192600192909201919084019061218d565b509695505050505050565b602081526000611ddf6020830184612115565b80356001600160a01b0381168114611dfd57600080fd5b600080604083850312156121f557600080fd5b82356001600160401b038082111561220c57600080fd5b818501915085601f83011261222057600080fd5b81356020612230611d8f83612023565b82815260059290921b8401810191818101908984111561224f57600080fd5b948201945b8386101561227457612265866121cb565b82529482019490820190612254565b96505086013592505080821115611ef557600080fd5b6000806040838503121561229d57600080fd5b82356001600160401b03808211156122b457600080fd5b6122c086838701611dbf565b935060208501359150808211156122d657600080fd5b50611f0285828601611e02565b600080600080600060a086880312156122fb57600080fd5b85359450602061230c818801611de6565b945060408701356001600160401b038082111561232857600080fd5b6123348a838b01611dbf565b9550606089013591508082111561234a57600080fd5b6123568a838b01611dbf565b9450608089013591508082111561236c57600080fd5b508701601f8101891361237e57600080fd5b803561238c611d8f82612023565b81815260059190911b8201830190838101908b8311156123ab57600080fd5b928401925b828410156123c9578335825292840192908401906123b0565b80955050505050509295509295909350565b6000602080830181845280855180835260408601915060408160051b870101925083870160005b8281101561243057603f1988860301845261241e858351611f9a565b94509285019290850190600101612402565b5092979650505050505050565b6020808252825182820181905260009190848201906040850190845b81811015612497576124848385518051825260208082015161ffff1690830152604090810151910152565b9284019260609290920191600101612459565b50909695505050505050565b6000602080830181845280855180835260408601915060408160051b870101925083870160005b8281101561243057603f198886030184526124e6858351612115565b945092850192908501906001016124ca565b6000806000806080858703121561250e57600080fd5b612517856121cb565b9350602085013592506040850135915060608501356001600160401b0381111561254057600080fd5b8501601f8101871361255157600080fd5b61256087823560208401611d81565b91505092959194509250565b60008060006060848603121561258157600080fd5b83359250602084013561ffff8116811461259a57600080fd5b915060408401356001600160401b038111156125b557600080fd5b6125c186828701611dbf565b9150509250925092565b600082516125dd818460208701611f4a565b9190910192915050565b6000602082840312156125f957600080fd5b81516001600160401b0381111561260f57600080fd5b8201601f8101841361262057600080fd5b805161262e611d8f82611d5a565b81815285602083850101111561264357600080fd5b612654826020830160208601611f4a565b95945050505050565b6020808252601190820152705065726d697373616f206e65676164612160781b604082015260600190565b6020808252601f908201527f436f6469676f20646f2070726f6475746f206a61206361646173747261646f00604082015260600190565b600181811c908216806126d357607f821691505b60208210810361124e57634e487b7160e01b600052602260045260246000fd5b601f82111561273d57600081815260208120601f850160051c8101602086101561271a5750805b601f850160051c820191505b8181101561273957828155600101612726565b5050505b505050565b81516001600160401b0381111561275b5761275b611cec565b61276f8161276984546126bf565b846126f3565b602080601f8311600181146127a4576000841561278c5750858301515b600019600386901b1c1916600185901b178555612739565b600085815260208120601f198616915b828110156127d3578886015182559484019460019091019084016127b4565b50858210156127f15787850151600019600388901b60f8161c191681555b5050505050600190811b01905550565b634e487b7160e01b600052603260045260246000fd5b60006001820161283757634e487b7160e01b600052601160045260246000fd5b5060010190565b8281526040602082015260006128576040830184611f6e565b94935050505056fea26469706673582212207570fb5ad8bbc75c5156c5771a4162c6e51bcc9cac0a8149c20f5b8c516f619864736f6c63430008110033",
  "immutableReferences": {},
  "source": "// SPDX-License-Identifier: MIT\r\n\r\npragma solidity ^0.8.17;\r\n\r\nimport \"./Authentication.sol\";\r\n\r\nstruct Colmeia {\r\n    uint256 colmeiaId;\r\n    uint16 melProduzido;\r\n    uint256 dateColeta;\r\n}\r\nstruct Production {\r\n    uint256 id;\r\n    uint64 WeightTotal;\r\n    uint256 date;\r\n    string localization;\r\n    string apicultorId;\r\n    uint256[] colmeiasId;\r\n}\r\n\r\nstruct Honey {\r\n    uint256 codigo;\r\n    uint256 lote;\r\n    string especializacao;\r\n    uint64 peso;\r\n    uint256 data;\r\n    string localizacao;\r\n    uint256 producaoId;\r\n}\r\n\r\ncontract RegistrarProducao {\r\n    mapping(address => bool) OWNER;\r\n\r\n    mapping(address => mapping(uint256 => Colmeia)) colmeias;\r\n    uint256[] colmeiaId;\r\n\r\n    mapping(address => mapping(uint256 => Production)) productionList;\r\n    uint256[] productionListId;\r\n\r\n    //LoteProduction[] public productionList;\r\n    mapping(address => mapping(uint256 => Honey)) product;\r\n    uint256[] productCode;\r\n\r\n    // Eventos do contrato\r\n    event Coleta(\r\n        address indexed OWNER,\r\n        Colmeia[] colmeias,\r\n        uint256 indexed date\r\n    );\r\n    event Enxame(address OWNER, Colmeia colmeia, uint256 date);\r\n\r\n    event Transfer(\r\n        address indexed _sender,\r\n        address indexed _recipient,\r\n        uint256 produtionId,\r\n        uint256 indexed lote,\r\n        bytes signature\r\n    );\r\n\r\n    address contractAuthentication;\r\n    Authentication instance;\r\n\r\n    constructor(address _contract) {\r\n        contractAuthentication = _contract;\r\n        instance = Authentication(contractAuthentication);\r\n    }\r\n\r\n    // Verifica se o endereo que esta chamando o contrato possui permisao para modificar o estado da rede\r\n    modifier onlyOWNER(string memory _id) {\r\n        require(\r\n            keccak256(abi.encodePacked(instance.getId(tx.origin))) ==\r\n                keccak256(abi.encodePacked(_id)),\r\n            \"Permissao negada!\"\r\n        );\r\n        _;\r\n    }\r\n\r\n    function updateColmeia(\r\n        uint256 _colmeiaId,\r\n        uint16 _melProduzido,\r\n        string memory _userId\r\n    ) public onlyOWNER(_userId) {\r\n        require(\r\n            colmeias[tx.origin][_colmeiaId].colmeiaId == 0,\r\n            \"Colmeia ja cadastrada\"\r\n        );\r\n\r\n        colmeias[tx.origin][_colmeiaId] = Colmeia(\r\n            _colmeiaId,\r\n            _melProduzido,\r\n            block.timestamp\r\n        );\r\n\r\n        colmeiaId.push(_colmeiaId);\r\n    }\r\n\r\n    function listColmeias() public view returns (Colmeia[] memory) {\r\n        Colmeia[] memory colmeia = new Colmeia[](colmeiaId.length);\r\n        for (uint256 i = 0; i < colmeiaId.length; i++) {\r\n            colmeia[i] = colmeias[tx.origin][colmeiaId[i]];\r\n        }\r\n        return colmeia;\r\n    }\r\n\r\n    function getColmeiaById(uint256 _colmeiaId)\r\n        public\r\n        view\r\n        returns (Colmeia memory)\r\n    {\r\n        return colmeias[tx.origin][_colmeiaId];\r\n    }\r\n\r\n    function registerProduction(\r\n        uint256 _id,\r\n        uint64 _peso,\r\n        string memory _localizacao,\r\n        string memory _apicultorId,\r\n        uint256[] memory _colmeiasId\r\n    ) public onlyOWNER(_apicultorId) {\r\n        require(\r\n            productionList[tx.origin][_id].id == 0,\r\n            \"Codigo do produto ja cadastrado\"\r\n        );\r\n        Colmeia[] memory colmeia = new Colmeia[](_colmeiasId.length);\r\n        for (uint256 i = 0; i < _colmeiasId.length; i++) {\r\n            colmeia[i] = getColmeiaById(_colmeiasId[i]);\r\n        }\r\n\r\n        emit Coleta(tx.origin, colmeia, block.timestamp);\r\n\r\n        productionList[tx.origin][_id] = Production(\r\n            _id,\r\n            _peso,\r\n            block.timestamp,\r\n            _localizacao,\r\n            _apicultorId,\r\n            _colmeiasId\r\n        );\r\n        productionListId.push(_id);\r\n    }\r\n\r\n    function listProduction() public view returns (Production[] memory) {\r\n        Production[] memory production = new Production[](\r\n            productionListId.length\r\n        );\r\n        for (uint256 i = 0; i < productionListId.length; i++) {\r\n            production[i] = productionList[tx.origin][productionListId[i]];\r\n        }\r\n        return production;\r\n    }\r\n\r\n    // Retorna os dados de uma produo passando o ID.\r\n    function getProductionById(uint256 _id)\r\n        public\r\n        view\r\n        returns (Production memory)\r\n    {\r\n        return productionList[tx.origin][_id];\r\n    }\r\n\r\n    // Registrar uma unidade de prouto beneficiado\r\n    function registerProduct(string memory _user, Honey memory _honey)\r\n        public\r\n        onlyOWNER(_user)\r\n    {\r\n        require(\r\n            product[tx.origin][_honey.codigo].codigo == 0,\r\n            \"Codigo do produto ja cadastrado\"\r\n        );\r\n\r\n        product[tx.origin][_honey.codigo] = Honey(\r\n            _honey.codigo,\r\n            _honey.codigo,\r\n            _honey.especializacao,\r\n            _honey.peso,\r\n            block.timestamp,\r\n            _honey.localizacao,\r\n            _honey.producaoId\r\n        );\r\n        productCode.push(_honey.codigo);\r\n    }\r\n\r\n    function registerProduct2(Honey memory _honey, string memory _user)\r\n        public\r\n        onlyOWNER(_user)\r\n    {\r\n        require(\r\n            product[tx.origin][_honey.codigo].codigo == 0,\r\n            \"Codigo do produto ja cadastrado\"\r\n        );\r\n\r\n        product[tx.origin][_honey.codigo] = Honey(\r\n            _honey.codigo,\r\n            _honey.lote,\r\n            _honey.especializacao,\r\n            _honey.peso,\r\n            block.timestamp,\r\n            _honey.localizacao,\r\n            _honey.producaoId\r\n        );\r\n        productCode.push(_honey.codigo);\r\n    }\r\n\r\n    // Registrar uma lista de produtos beneficiados e adicionar o lote do produto\r\n    function registerProductList(Honey[] memory _honey, string memory _user)\r\n        public\r\n        returns (string memory)\r\n    {\r\n        for (uint256 i = 0; i < _honey.length; i++) {\r\n            registerProduct2(_honey[i], _user);\r\n        }\r\n\r\n        return \"Produtos registrados!\";\r\n    }\r\n\r\n    // Lista toda a produo do produtor\r\n    function listProduct() public view returns (Honey[] memory) {\r\n        Honey[] memory honey = new Honey[](productCode.length);\r\n        for (uint256 i = 0; i < productCode.length; i++) {\r\n            honey[i] = product[tx.origin][productCode[i]];\r\n        }\r\n        return honey;\r\n    }\r\n\r\n    function listProductBatch(uint256 _batch)\r\n        public\r\n        view\r\n        returns (Honey[] memory)\r\n    {\r\n        Honey[] memory honey = new Honey[](productCode.length);\r\n        for (uint256 i = 0; i < productCode.length; i++) {\r\n            if (product[tx.origin][productCode[i]].lote == _batch)\r\n                honey[i] = product[tx.origin][productCode[i]];\r\n        }\r\n        return honey;\r\n    }\r\n\r\n    // Retorna um produto da lista passando o codigo do produto\r\n    function getProductById(uint256 _codigo)\r\n        public\r\n        view\r\n        returns (Honey memory)\r\n    {\r\n        return product[tx.origin][_codigo];\r\n    }\r\n\r\n    function addLote() public {}\r\n\r\n    function transfer(\r\n        address _recipient,\r\n        uint256 _productionId,\r\n        uint256 _lote,\r\n        bytes memory _signature\r\n    ) public {\r\n        emit Transfer(tx.origin, _recipient, _productionId, _lote, _signature);\r\n    }\r\n\r\n    // Adiciona um address na lista de enderecos do produtor\r\n    function addOWNER(address[] memory _address, string memory _user)\r\n        public\r\n        onlyOWNER(_user)\r\n    {\r\n        for (uint256 i = 0; i < _address.length; i++) {\r\n            OWNER[_address[i]] = true;\r\n        }\r\n    }\r\n\r\n    // Remove um address da lista de enderecos do produtor\r\n    function remOWNER(address[] memory _address, string memory _user)\r\n        public\r\n        onlyOWNER(_user)\r\n    {\r\n        for (uint256 i = 0; i < _address.length; i++) {\r\n            OWNER[_address[i]] = false;\r\n        }\r\n    }\r\n}\r\n",
  "sourcePath": "C:\\Users\\samue\\Documents\\Workspace_react\\BlockForBees\\backend_blockcahin\\contracts\\RegistrarProducao.sol",
  "compiler": {
    "name": "solc",
    "version": "0.8.17+commit.8df45f5f.Emscripten.clang"
  },
  "schemaVersion": "3.4.11",
  "updatedAt": "2023-01-26T14:57:48.209Z",
  "devdoc": {
    "kind": "dev",
    "methods": {},
    "version": 1
  },
  "userdoc": {
    "kind": "user",
    "methods": {},
    "version": 1
  }
}