{
  "contractName": "AtualizarTr",
  "abi": [
    {
      "anonymous": false,
      "inputs": [
        {
          "indexed": true,
          "internalType": "address",
          "name": "_sender",
          "type": "address"
        },
        {
          "indexed": true,
          "internalType": "address",
          "name": "_recipient",
          "type": "address"
        },
        {
          "indexed": false,
          "internalType": "uint256",
          "name": "produtionId",
          "type": "uint256"
        },
        {
          "indexed": true,
          "internalType": "uint256",
          "name": "lote",
          "type": "uint256"
        },
        {
          "indexed": false,
          "internalType": "bytes",
          "name": "signature",
          "type": "bytes"
        }
      ],
      "name": "Transfer",
      "type": "event"
    },
    {
      "inputs": [
        {
          "internalType": "address",
          "name": "_recipient",
          "type": "address"
        },
        {
          "internalType": "uint256",
          "name": "_produtionId",
          "type": "uint256"
        },
        {
          "internalType": "uint256",
          "name": "_lote",
          "type": "uint256"
        },
        {
          "internalType": "bytes",
          "name": "_signature",
          "type": "bytes"
        }
      ],
      "name": "atualizarTr",
      "outputs": [],
      "stateMutability": "nonpayable",
      "type": "function"
    },
    {
      "inputs": [
        {
          "internalType": "uint256",
          "name": "_lote",
          "type": "uint256"
        }
      ],
      "name": "rastrearTr",
      "outputs": [
        {
          "internalType": "address",
          "name": "",
          "type": "address"
        }
      ],
      "stateMutability": "view",
      "type": "function"
    }
  ],
  "bytecode": "0x608060405234801561001057600080fd5b506102a2806100206000396000f3fe608060405234801561001057600080fd5b50600436106100365760003560e01c80634a87887b1461003b578063d0dfc81614610080575b600080fd5b610064610049366004610104565b6000908152602081905260409020546001600160a01b031690565b6040516001600160a01b03909116815260200160405180910390f35b61009361008e366004610133565b610095565b005b6000828152602081905260409081902080546001600160a01b03191632908117909155905183916001600160a01b038716917f8935efbb64117f427c3b5bb8ba6478680d8c331971be8169548207e1854ae11d906100f69088908790610216565b60405180910390a450505050565b60006020828403121561011657600080fd5b5035919050565b634e487b7160e01b600052604160045260246000fd5b6000806000806080858703121561014957600080fd5b84356001600160a01b038116811461016057600080fd5b93506020850135925060408501359150606085013567ffffffffffffffff8082111561018b57600080fd5b818701915087601f83011261019f57600080fd5b8135818111156101b1576101b161011d565b604051601f8201601f19908116603f011681019083821181831017156101d9576101d961011d565b816040528281528a60208487010111156101f257600080fd5b82602086016020830137600060208483010152809550505050505092959194509250565b82815260006020604081840152835180604085015260005b8181101561024a5785810183015185820160600152820161022e565b506000606082860101526060601f19601f83011685010192505050939250505056fea26469706673582212203e64c7f8dae4b15d7e966978f09bc81decc288b512444fb16a7c649ec7a64a5b64736f6c63430008110033",
  "immutableReferences": {},
  "source": "// SPDX-License-Identifier: MIT\r\n\r\npragma solidity ^0.8.17;\r\n\r\ncontract AtualizarTr {\r\n    mapping(uint256 => address) transactions;\r\n    uint256 countTr;\r\n\r\n    event Transfer(\r\n        address indexed _sender,\r\n        address indexed _recipient,\r\n        uint256 produtionId,\r\n        uint256 indexed lote,\r\n        bytes signature\r\n    );\r\n\r\n    function atualizarTr(\r\n        address _recipient,\r\n        uint256 _produtionId,\r\n        uint256 _lote,\r\n        bytes memory _signature\r\n    ) public {\r\n        transactions[_lote] = tx.origin;\r\n        emit Transfer(tx.origin, _recipient, _produtionId, _lote, _signature);\r\n    }\r\n\r\n    function rastrearTr(uint256 _lote) public view returns (address) {\r\n        return transactions[_lote];\r\n    }\r\n}\r\n",
  "sourcePath": "C:\\Users\\samue\\Documents\\Workspace_react\\BlockForBees\\backend_blockcahin\\contracts\\AtualizarTr.sol",
  "compiler": {
    "name": "solc",
    "version": "0.8.17+commit.8df45f5f.Emscripten.clang"
  },
  "schemaVersion": "3.4.11",
  "updatedAt": "2023-02-28T02:38:33.698Z",
  "devdoc": {
    "kind": "dev",
    "methods": {},
    "version": 1
  },
  "userdoc": {
    "kind": "user",
    "methods": {},
    "version": 1
  }
}