{
  "contractName": "Authentication",
  "abi": [
    {
      "inputs": [
        {
          "internalType": "address",
          "name": "_account",
          "type": "address"
        },
        {
          "internalType": "string",
          "name": "_name",
          "type": "string"
        },
        {
          "internalType": "string",
          "name": "_password",
          "type": "string"
        },
        {
          "internalType": "string",
          "name": "_cpf",
          "type": "string"
        },
        {
          "internalType": "string",
          "name": "_user",
          "type": "string"
        },
        {
          "internalType": "string",
          "name": "_town",
          "type": "string"
        },
        {
          "internalType": "string",
          "name": "_email",
          "type": "string"
        }
      ],
      "name": "registerUser",
      "outputs": [
        {
          "internalType": "string",
          "name": "",
          "type": "string"
        }
      ],
      "stateMutability": "nonpayable",
      "type": "function"
    },
    {
      "inputs": [
        {
          "internalType": "address",
          "name": "_account",
          "type": "address"
        }
      ],
      "name": "getId",
      "outputs": [
        {
          "internalType": "address",
          "name": "",
          "type": "address"
        }
      ],
      "stateMutability": "view",
      "type": "function"
    },
    {
      "inputs": [
        {
          "internalType": "address",
          "name": "_account",
          "type": "address"
        }
      ],
      "name": "getUser",
      "outputs": [
        {
          "components": [
            {
              "internalType": "address",
              "name": "account",
              "type": "address"
            },
            {
              "internalType": "string",
              "name": "name",
              "type": "string"
            },
            {
              "internalType": "bytes32",
              "name": "password",
              "type": "bytes32"
            },
            {
              "internalType": "string",
              "name": "cpf",
              "type": "string"
            },
            {
              "internalType": "string",
              "name": "user",
              "type": "string"
            },
            {
              "internalType": "string",
              "name": "town",
              "type": "string"
            },
            {
              "internalType": "string",
              "name": "email",
              "type": "string"
            }
          ],
          "internalType": "struct Authentication.User",
          "name": "",
          "type": "tuple"
        }
      ],
      "stateMutability": "view",
      "type": "function"
    },
    {
      "inputs": [
        {
          "internalType": "string",
          "name": "_name",
          "type": "string"
        },
        {
          "internalType": "string",
          "name": "_password",
          "type": "string"
        },
        {
          "internalType": "address",
          "name": "_account",
          "type": "address"
        }
      ],
      "name": "login",
      "outputs": [
        {
          "components": [
            {
              "internalType": "address",
              "name": "account",
              "type": "address"
            },
            {
              "internalType": "string",
              "name": "name",
              "type": "string"
            },
            {
              "internalType": "bytes32",
              "name": "password",
              "type": "bytes32"
            },
            {
              "internalType": "string",
              "name": "cpf",
              "type": "string"
            },
            {
              "internalType": "string",
              "name": "user",
              "type": "string"
            },
            {
              "internalType": "string",
              "name": "town",
              "type": "string"
            },
            {
              "internalType": "string",
              "name": "email",
              "type": "string"
            }
          ],
          "internalType": "struct Authentication.User",
          "name": "_user",
          "type": "tuple"
        }
      ],
      "stateMutability": "view",
      "type": "function"
    }
  ],
  "bytecode": "0x608060405234801561001057600080fd5b50610fc6806100206000396000f3fe608060405234801561001057600080fd5b506004361061004c5760003560e01c806365f68c89146100515780636f77926b1461009a5780639e515fb5146100ba578063d0e93812146100da575b600080fd5b61007d61005f366004610aa0565b6001600160a01b039081166000908152602081905260409020541690565b6040516001600160a01b0390911681526020015b60405180910390f35b6100ad6100a8366004610aa0565b6100ed565b6040516100919190610b12565b6100cd6100c8366004610c6d565b610483565b6040516100919190610d74565b6100ad6100e8366004610d87565b610684565b6100f5610a3b565b816040516020016101069190610dfb565b60408051601f1981840301815282825280516020918201206001600160a01b0380871660009081528084529390932054909361014793919091169101610dfb565b604051602081830303815290604052805190602001201461016757600080fd5b6001600160a01b0380831660009081526020818152604091829020825160e0810190935280549093168252600183018054929392918401916101a890610e18565b80601f01602080910402602001604051908101604052809291908181526020018280546101d490610e18565b80156102215780601f106101f657610100808354040283529160200191610221565b820191906000526020600020905b81548152906001019060200180831161020457829003601f168201915b505050505081526020016002820154815260200160038201805461024490610e18565b80601f016020809104026020016040519081016040528092919081815260200182805461027090610e18565b80156102bd5780601f10610292576101008083540402835291602001916102bd565b820191906000526020600020905b8154815290600101906020018083116102a057829003601f168201915b505050505081526020016004820180546102d690610e18565b80601f016020809104026020016040519081016040528092919081815260200182805461030290610e18565b801561034f5780601f106103245761010080835404028352916020019161034f565b820191906000526020600020905b81548152906001019060200180831161033257829003601f168201915b5050505050815260200160058201805461036890610e18565b80601f016020809104026020016040519081016040528092919081815260200182805461039490610e18565b80156103e15780601f106103b6576101008083540402835291602001916103e1565b820191906000526020600020905b8154815290600101906020018083116103c457829003601f168201915b505050505081526020016006820180546103fa90610e18565b80601f016020809104026020016040519081016040528092919081815260200182805461042690610e18565b80156104735780601f1061044857610100808354040283529160200191610473565b820191906000526020600020905b81548152906001019060200180831161045657829003601f168201915b5050505050815250509050919050565b606060006040516020016104979190610dfb565b60408051601f1981840301815282825280516020918201206001600160a01b03808d166000908152808452939093205490936104d893919091169101610dfb565b60405160208183030381529060405280519060200120146105395760405162461bcd60e51b815260206004820152601660248201527550726f6475746f72206a61206361646173747261646f60501b60448201526064015b60405180910390fd5b6000878760405160200161054e929190610e52565b60408051808303601f19018152828252805160209182012060e0840183526001600160a01b038d81168086528386018e8152868601849052606087018d9052608087018c905260a087018b905260c087018a905260009182529381905293909320845181546001600160a01b0319169416939093178355905190935060018201906105d99082610ed0565b5060408201516002820155606082015160038201906105f89082610ed0565b506080820151600482019061060d9082610ed0565b5060a082015160058201906106229082610ed0565b5060c082015160068201906106379082610ed0565b5050506001600160a01b03808a166000908152602081815260409182902054915161066793929092169101610dfb565b604051602081830303815290604052915050979650505050505050565b61068c610a3b565b6001600160a01b038216600090815260208181526040918290206002015491516106ba918791879101610e52565b604051602081830303815290604052805190602001201461071d5760405162461bcd60e51b815260206004820152601b60248201527f5573756172696f206f752073656e686120696e636f727265746f7300000000006044820152606401610530565b6001600160a01b0380831660009081526020818152604091829020825160e08101909352805490931682526001830180549293929184019161075e90610e18565b80601f016020809104026020016040519081016040528092919081815260200182805461078a90610e18565b80156107d75780601f106107ac576101008083540402835291602001916107d7565b820191906000526020600020905b8154815290600101906020018083116107ba57829003601f168201915b50505050508152602001600282015481526020016003820180546107fa90610e18565b80601f016020809104026020016040519081016040528092919081815260200182805461082690610e18565b80156108735780601f1061084857610100808354040283529160200191610873565b820191906000526020600020905b81548152906001019060200180831161085657829003601f168201915b5050505050815260200160048201805461088c90610e18565b80601f01602080910402602001604051908101604052809291908181526020018280546108b890610e18565b80156109055780601f106108da57610100808354040283529160200191610905565b820191906000526020600020905b8154815290600101906020018083116108e857829003601f168201915b5050505050815260200160058201805461091e90610e18565b80601f016020809104026020016040519081016040528092919081815260200182805461094a90610e18565b80156109975780601f1061096c57610100808354040283529160200191610997565b820191906000526020600020905b81548152906001019060200180831161097a57829003601f168201915b505050505081526020016006820180546109b090610e18565b80601f01602080910402602001604051908101604052809291908181526020018280546109dc90610e18565b8015610a295780601f106109fe57610100808354040283529160200191610a29565b820191906000526020600020905b815481529060010190602001808311610a0c57829003601f168201915b50505050508152505090509392505050565b6040518060e0016040528060006001600160a01b031681526020016060815260200160008019168152602001606081526020016060815260200160608152602001606081525090565b80356001600160a01b0381168114610a9b57600080fd5b919050565b600060208284031215610ab257600080fd5b610abb82610a84565b9392505050565b60005b83811015610add578181015183820152602001610ac5565b50506000910152565b60008151808452610afe816020860160208601610ac2565b601f01601f19169290920160200192915050565b602080825282516001600160a01b03168282015282015160e06040830152600090610b41610100840182610ae6565b9050604084015160608401526060840151601f1980858403016080860152610b698383610ae6565b925060808601519150808584030160a0860152610b868383610ae6565b925060a08601519150808584030160c0860152610ba38383610ae6565b925060c08601519150808584030160e086015250610bc18282610ae6565b95945050505050565b634e487b7160e01b600052604160045260246000fd5b600082601f830112610bf157600080fd5b813567ffffffffffffffff80821115610c0c57610c0c610bca565b604051601f8301601f19908116603f01168101908282118183101715610c3457610c34610bca565b81604052838152866020858801011115610c4d57600080fd5b836020870160208301376000602085830101528094505050505092915050565b600080600080600080600060e0888a031215610c8857600080fd5b610c9188610a84565b9650602088013567ffffffffffffffff80821115610cae57600080fd5b610cba8b838c01610be0565b975060408a0135915080821115610cd057600080fd5b610cdc8b838c01610be0565b965060608a0135915080821115610cf257600080fd5b610cfe8b838c01610be0565b955060808a0135915080821115610d1457600080fd5b610d208b838c01610be0565b945060a08a0135915080821115610d3657600080fd5b610d428b838c01610be0565b935060c08a0135915080821115610d5857600080fd5b50610d658a828b01610be0565b91505092959891949750929550565b602081526000610abb6020830184610ae6565b600080600060608486031215610d9c57600080fd5b833567ffffffffffffffff80821115610db457600080fd5b610dc087838801610be0565b94506020860135915080821115610dd657600080fd5b50610de386828701610be0565b925050610df260408501610a84565b90509250925092565b60609190911b6bffffffffffffffffffffffff1916815260140190565b600181811c90821680610e2c57607f821691505b602082108103610e4c57634e487b7160e01b600052602260045260246000fd5b50919050565b60008351610e64818460208801610ac2565b835190830190610e78818360208801610ac2565b01949350505050565b601f821115610ecb57600081815260208120601f850160051c81016020861015610ea85750805b601f850160051c820191505b81811015610ec757828155600101610eb4565b5050505b505050565b815167ffffffffffffffff811115610eea57610eea610bca565b610efe81610ef88454610e18565b84610e81565b602080601f831160018114610f335760008415610f1b5750858301515b600019600386901b1c1916600185901b178555610ec7565b600085815260208120601f198616915b82811015610f6257888601518255948401946001909101908401610f43565b5085821015610f805787850151600019600388901b60f8161c191681555b5050505050600190811b0190555056fea26469706673582212208a823c0889209d597a8e7c9ee5929e590e5cf9f69250ba08d8c85cd8228340aa64736f6c63430008110033",
  "immutableReferences": {},
  "source": "// SPDX-License-Identifier: MIT\r\npragma solidity ^0.8.17;\r\n\r\ncontract Authentication {\r\n    struct User {\r\n        address account;\r\n        string name;\r\n        bytes32 password;\r\n        string cpf;\r\n        string user;\r\n        string town;\r\n        string email;\r\n    }\r\n\r\n    mapping(address => User) users; // id => User\r\n\r\n    //mapping(address => string) accounts; // account => id User\r\n    //mapping(address => string) usersType; // account => tipo de usuario\r\n\r\n    modifier onlyOWNER(address _account) {\r\n        require(\r\n            keccak256(abi.encodePacked(users[_account].account)) ==\r\n                keccak256(abi.encodePacked(_account)),\r\n            \"Permissao negada! Verifique o seu endereco Ethereum\"\r\n        );\r\n        _;\r\n    }\r\n\r\n    function registerUser(\r\n        address _account,\r\n        string memory _name,\r\n        string memory _password,\r\n        string memory _cpf,\r\n        string memory _user,\r\n        string memory _town,\r\n        string memory _email\r\n    ) public returns (string memory) {\r\n        require(\r\n            keccak256(abi.encodePacked(users[_account].account)) ==\r\n                keccak256(\r\n                    abi.encodePacked(0x0000000000000000000000000000000000000000)\r\n                ),\r\n            \"Produtor ja cadastrado\"\r\n        );\r\n\r\n        bytes32 passwd = keccak256(abi.encodePacked(_name, _password));\r\n\r\n        users[_account] = User(\r\n            _account,\r\n            _name,\r\n            passwd,\r\n            _cpf,\r\n            _user,\r\n            _town,\r\n            _email\r\n        );\r\n        //accounts[tx.origin] = _id;\r\n        return string(abi.encodePacked(users[_account].account));\r\n    }\r\n\r\n    function getId(address _account) public view returns (address) {\r\n        return users[_account].account;\r\n    }\r\n\r\n    function getUser(address _account) public view returns (User memory) {\r\n        require(\r\n            keccak256(abi.encodePacked(users[_account].account)) ==\r\n                keccak256(abi.encodePacked(_account))\r\n        );\r\n        return users[_account];\r\n    }\r\n\r\n    function login(\r\n        string memory _name,\r\n        string memory _password,\r\n        address _account\r\n    ) public view returns (User memory _user) {\r\n        require(\r\n            keccak256(abi.encodePacked(_name, _password)) ==\r\n                users[_account].password,\r\n            \"Usuario ou senha incorretos\"\r\n        );\r\n        return _user = users[_account];\r\n    }\r\n}\r\n",
  "sourcePath": "C:\\Users\\samue\\Documents\\Workspace_react\\BlockForBees\\backend_blockcahin\\contracts\\Authentication.sol",
  "compiler": {
    "name": "solc",
    "version": "0.8.17+commit.8df45f5f.Emscripten.clang"
  },
  "schemaVersion": "3.4.11",
  "updatedAt": "2023-02-28T02:38:33.708Z",
  "devdoc": {
    "kind": "dev",
    "methods": {},
    "version": 1
  },
  "userdoc": {
    "kind": "user",
    "methods": {},
    "version": 1
  }
}