{
  "contractName": "Authentication",
  "abi": [
    {
      "inputs": [
        {
          "internalType": "address",
          "name": "",
          "type": "address"
        }
      ],
      "name": "users",
      "outputs": [
        {
          "internalType": "bool",
          "name": "",
          "type": "bool"
        }
      ],
      "stateMutability": "view",
      "type": "function"
    },
    {
      "inputs": [
        {
          "internalType": "string",
          "name": "_type",
          "type": "string"
        },
        {
          "internalType": "address",
          "name": "_addr",
          "type": "address"
        },
        {
          "internalType": "string",
          "name": "_name",
          "type": "string"
        },
        {
          "internalType": "string",
          "name": "_password",
          "type": "string"
        },
        {
          "internalType": "string",
          "name": "_town",
          "type": "string"
        },
        {
          "internalType": "string",
          "name": "_apiary",
          "type": "string"
        },
        {
          "internalType": "string",
          "name": "_email",
          "type": "string"
        },
        {
          "internalType": "string",
          "name": "_stablishment",
          "type": "string"
        },
        {
          "internalType": "string",
          "name": "_certification",
          "type": "string"
        }
      ],
      "name": "register",
      "outputs": [
        {
          "internalType": "string",
          "name": "",
          "type": "string"
        }
      ],
      "stateMutability": "nonpayable",
      "type": "function"
    },
    {
      "inputs": [],
      "name": "listProductor",
      "outputs": [
        {
          "components": [
            {
              "internalType": "address",
              "name": "addr",
              "type": "address"
            },
            {
              "internalType": "string",
              "name": "name",
              "type": "string"
            },
            {
              "internalType": "bytes32",
              "name": "password",
              "type": "bytes32"
            },
            {
              "internalType": "string",
              "name": "town",
              "type": "string"
            },
            {
              "internalType": "string",
              "name": "apiary",
              "type": "string"
            },
            {
              "internalType": "string",
              "name": "email",
              "type": "string"
            }
          ],
          "internalType": "struct Authentication.Productor",
          "name": "",
          "type": "tuple"
        }
      ],
      "stateMutability": "view",
      "type": "function"
    },
    {
      "inputs": [],
      "name": "listTypeUsers",
      "outputs": [
        {
          "internalType": "string",
          "name": "",
          "type": "string"
        }
      ],
      "stateMutability": "view",
      "type": "function"
    },
    {
      "inputs": [
        {
          "internalType": "address",
          "name": "_addr",
          "type": "address"
        }
      ],
      "name": "activeUser",
      "outputs": [
        {
          "internalType": "bool",
          "name": "",
          "type": "bool"
        }
      ],
      "stateMutability": "view",
      "type": "function"
    },
    {
      "inputs": [
        {
          "internalType": "address",
          "name": "_addr",
          "type": "address"
        }
      ],
      "name": "getTypeUser",
      "outputs": [
        {
          "internalType": "string",
          "name": "",
          "type": "string"
        }
      ],
      "stateMutability": "view",
      "type": "function"
    },
    {
      "inputs": [
        {
          "internalType": "address",
          "name": "_addr",
          "type": "address"
        },
        {
          "internalType": "string",
          "name": "_password",
          "type": "string"
        }
      ],
      "name": "loginProductor",
      "outputs": [
        {
          "components": [
            {
              "internalType": "address",
              "name": "addr",
              "type": "address"
            },
            {
              "internalType": "string",
              "name": "name",
              "type": "string"
            },
            {
              "internalType": "bytes32",
              "name": "password",
              "type": "bytes32"
            },
            {
              "internalType": "string",
              "name": "town",
              "type": "string"
            },
            {
              "internalType": "string",
              "name": "apiary",
              "type": "string"
            },
            {
              "internalType": "string",
              "name": "email",
              "type": "string"
            }
          ],
          "internalType": "struct Authentication.Productor",
          "name": "",
          "type": "tuple"
        }
      ],
      "stateMutability": "view",
      "type": "function"
    },
    {
      "inputs": [
        {
          "internalType": "address",
          "name": "_account",
          "type": "address"
        },
        {
          "internalType": "string",
          "name": "_password",
          "type": "string"
        }
      ],
      "name": "loginProcessor",
      "outputs": [
        {
          "components": [
            {
              "internalType": "address",
              "name": "addr",
              "type": "address"
            },
            {
              "internalType": "string",
              "name": "name",
              "type": "string"
            },
            {
              "internalType": "bytes32",
              "name": "password",
              "type": "bytes32"
            },
            {
              "internalType": "string",
              "name": "establishment",
              "type": "string"
            },
            {
              "internalType": "string",
              "name": "certification",
              "type": "string"
            }
          ],
          "internalType": "struct Authentication.Processor",
          "name": "",
          "type": "tuple"
        }
      ],
      "stateMutability": "view",
      "type": "function"
    },
    {
      "inputs": [
        {
          "internalType": "address",
          "name": "_account",
          "type": "address"
        },
        {
          "internalType": "string",
          "name": "_password",
          "type": "string"
        }
      ],
      "name": "loginDistributor",
      "outputs": [
        {
          "components": [
            {
              "internalType": "address",
              "name": "addr",
              "type": "address"
            },
            {
              "internalType": "string",
              "name": "name",
              "type": "string"
            },
            {
              "internalType": "bytes32",
              "name": "password",
              "type": "bytes32"
            }
          ],
          "internalType": "struct Authentication.Distributor",
          "name": "",
          "type": "tuple"
        }
      ],
      "stateMutability": "view",
      "type": "function"
    },
    {
      "inputs": [
        {
          "internalType": "address",
          "name": "_account",
          "type": "address"
        },
        {
          "internalType": "string",
          "name": "_password",
          "type": "string"
        }
      ],
      "name": "loginMerchant",
      "outputs": [
        {
          "components": [
            {
              "internalType": "address",
              "name": "addr",
              "type": "address"
            },
            {
              "internalType": "string",
              "name": "name",
              "type": "string"
            },
            {
              "internalType": "bytes32",
              "name": "password",
              "type": "bytes32"
            },
            {
              "internalType": "string",
              "name": "stablishment",
              "type": "string"
            }
          ],
          "internalType": "struct Authentication.Merchant",
          "name": "",
          "type": "tuple"
        }
      ],
      "stateMutability": "view",
      "type": "function"
    }
  ],
  "bytecode": "0x608060405234801561001057600080fd5b50611bf0806100206000396000f3fe608060405234801561001057600080fd5b506004361061009e5760003560e01c80639f5f95c8116100665780639f5f95c81461014c578063a87430ba14610154578063aa0cfa4c14610177578063af6e21fe14610197578063be0ee5e8146101aa57600080fd5b80630a908988146100a3578063130ccd5b146100e4578063195dba8b14610104578063234485d6146101245780632fef9f1b14610137575b600080fd5b6100cf6100b1366004611578565b6001600160a01b031660009081526004602052604090205460ff1690565b60405190151581526020015b60405180910390f35b6100f76100f2366004611578565b6101ca565b6040516100db91906115ea565b6101176101123660046116a0565b610276565b6040516100db91906116ee565b6100f7610132366004611732565b6103d2565b61013f610b99565b6040516100db9190611883565b6100f7610e23565b6100cf610162366004611578565b60046020526000908152604090205460ff1681565b61018a6101853660046116a0565b610ec4565b6040516100db919061191d565b61013f6101a53660046116a0565b6110b3565b6101bd6101b83660046116a0565b61131d565b6040516100db9190611972565b6001600160a01b03811660009081526005602052604090208054606091906101f1906119e6565b80601f016020809104026020016040519081016040528092919081815260200182805461021d906119e6565b801561026a5780601f1061023f5761010080835404028352916020019161026a565b820191906000526020600020905b81548152906001019060200180831161024d57829003601f168201915b50505050509050919050565b604080516060808201835260008083526020808401929092528284018190526001600160a01b0386168152600280835290849020015492519192916102bf918691869101611a20565b60405160208183030381529060405280519060200120146102fb5760405162461bcd60e51b81526004016102f290611a58565b60405180910390fd5b6001600160a01b03808416600090815260026020908152604091829020825160608101909352805490931682526001830180549293929184019161033e906119e6565b80601f016020809104026020016040519081016040528092919081815260200182805461036a906119e6565b80156103b75780601f1061038c576101008083540402835291602001916103b7565b820191906000526020600020905b81548152906001019060200180831161039a57829003601f168201915b50505050508152602001600282015481525050905092915050565b60405168383937b23ab1ba37b960b91b6020820152606090602901604051602081830303815290604052805190602001208a6040516020016104149190611a8f565b60405160208183030381529060405280519060200120036105f9576001600160a01b03808a1660009081526020819052604090205416156104905760405162461bcd60e51b815260206004820152601660248201527550726f6475746f72206a61206361646173747261646f60501b60448201526064016102f2565b600089886040516020016104a5929190611a20565b60408051808303601f19018152828252805160209182012060c0840183526001600160a01b038e81168086528386018f8152868601849052606087018e9052608087018d905260a087018c905260009182529381905293909320845181546001600160a01b0319169416939093178355905190935060018201906105299082611afa565b5060408201516002820155606082015160038201906105489082611afa565b506080820151600482019061055d9082611afa565b5060a082015160058201906105729082611afa565b5050506001600160a01b038a166000908152600460209081526040808320805460ff19166001179055600590915290206105ac8c82611afa565b506001600160a01b038a166000908152602081815260409182902054915160609290921b6001600160601b031916908201526034015b604051602081830303815290604052915050610b8c565b60405168383937b1b2b9b9b7b960b91b6020820152602901604051602081830303815290604052805190602001208a6040516020016106389190611a8f565b60405160208183030381529060405280519060200120036107f7576001600160a01b03808a1660009081526001602052604090205416156106bb5760405162461bcd60e51b815260206004820152601960248201527f50726f6365737361646f72206a61206361646173747261646f0000000000000060448201526064016102f2565b600089886040516020016106d0929190611a20565b60408051808303601f19018152828252805160209182012060a0840183526001600160a01b038e81168086528386018f8152868601849052606087018b9052608087018a90526000918252600194859052949020855181546001600160a01b031916921691909117815592519094509082019061074d9082611afa565b50604082015160028201556060820151600382019061076c9082611afa565b50608082015160048201906107819082611afa565b5050506001600160a01b038a166000908152600460209081526040808320805460ff19166001179055600590915290206107bb8c82611afa565b506001600160a01b038a1660009081526001602090815260409182902054915160609290921b6001600160601b031916908201526034016105e2565b6040516a3234b9ba3934b13aba37b960a91b6020820152602b01604051602081830303815290604052805190602001208a6040516020016108389190611a8f565b6040516020818303038152906040528051906020012003610980576001600160a01b03808a1660009081526002602052604090205416156108bb5760405162461bcd60e51b815260206004820152601a60248201527f446973747269627569646f72206a61206361646173747261646f00000000000060448201526064016102f2565b600089886040516020016108d0929190611a20565b60408051808303601f1901815282825280516020918201206060840183526001600160a01b038e81168086528386018f81528686018490526000918252600290945293909320845181546001600160a01b0319169416939093178355905190935060018201906109409082611afa565b506040918201516002909101556001600160a01b038b16600090815260046020908152828220805460ff1916600117905560059052206107bb8c82611afa565b604051671b595c98da185b9d60c21b6020820152602801604051602081830303815290604052805190602001208a6040516020016109be9190611a8f565b6040516020818303038152906040528051906020012003610b62576001600160a01b03808a166000908152600360205260409020541615610a415760405162461bcd60e51b815260206004820152601960248201527f436f6d65726369616e7465206a61206361646173747261646f0000000000000060448201526064016102f2565b60008988604051602001610a56929190611a20565b60408051808303601f1901815282825280516020918201206080840183526001600160a01b038e81168086528386018f8152868601849052606087018b90526000918252600390945293909320845181546001600160a01b031916941693909317835590519093506001820190610acd9082611afa565b506040820151600282015560608201516003820190610aec9082611afa565b5050506001600160a01b038a166000908152600460209081526040808320805460ff1916600117905560059091529020610b268c82611afa565b506001600160a01b038a1660009081526003602090815260409182902054915160609290921b6001600160601b031916908201526034016105e2565b506040805180820190915260118152704572726f206e6f20636164617374726f2160781b60208201525b9998505050505050505050565b610ba161151a565b3360009081526020818152604091829020825160c0810190935280546001600160a01b031683526001810180549192840191610bdc906119e6565b80601f0160208091040260200160405190810160405280929190818152602001828054610c08906119e6565b8015610c555780601f10610c2a57610100808354040283529160200191610c55565b820191906000526020600020905b815481529060010190602001808311610c3857829003601f168201915b5050505050815260200160028201548152602001600382018054610c78906119e6565b80601f0160208091040260200160405190810160405280929190818152602001828054610ca4906119e6565b8015610cf15780601f10610cc657610100808354040283529160200191610cf1565b820191906000526020600020905b815481529060010190602001808311610cd457829003601f168201915b50505050508152602001600482018054610d0a906119e6565b80601f0160208091040260200160405190810160405280929190818152602001828054610d36906119e6565b8015610d835780601f10610d5857610100808354040283529160200191610d83565b820191906000526020600020905b815481529060010190602001808311610d6657829003601f168201915b50505050508152602001600582018054610d9c906119e6565b80601f0160208091040260200160405190810160405280929190818152602001828054610dc8906119e6565b8015610e155780601f10610dea57610100808354040283529160200191610e15565b820191906000526020600020905b815481529060010190602001808311610df857829003601f168201915b505050505081525050905090565b336000908152600560205260409020805460609190610e41906119e6565b80601f0160208091040260200160405190810160405280929190818152602001828054610e6d906119e6565b8015610eba5780601f10610e8f57610100808354040283529160200191610eba565b820191906000526020600020905b815481529060010190602001808311610e9d57829003601f168201915b5050505050905090565b60408051608081018252600080825260606020830181905292820152818101919091526001600160a01b038316600090815260036020908152604091829020600201549151610f17918691869101611a20565b6040516020818303038152906040528051906020012014610f4a5760405162461bcd60e51b81526004016102f290611a58565b6001600160a01b038084166000908152600360209081526040918290208251608081019093528054909316825260018301805492939291840191610f8d906119e6565b80601f0160208091040260200160405190810160405280929190818152602001828054610fb9906119e6565b80156110065780601f10610fdb57610100808354040283529160200191611006565b820191906000526020600020905b815481529060010190602001808311610fe957829003601f168201915b5050505050815260200160028201548152602001600382018054611029906119e6565b80601f0160208091040260200160405190810160405280929190818152602001828054611055906119e6565b80156110a25780601f10611077576101008083540402835291602001916110a2565b820191906000526020600020905b81548152906001019060200180831161108557829003601f168201915b505050505081525050905092915050565b6110bb61151a565b6001600160a01b038316600090815260208181526040918290206002015491516110e9918691869101611a20565b604051602081830303815290604052805190602001201461111c5760405162461bcd60e51b81526004016102f290611a58565b6001600160a01b0380841660009081526020818152604091829020825160c08101909352805490931682526001830180549293929184019161115d906119e6565b80601f0160208091040260200160405190810160405280929190818152602001828054611189906119e6565b80156111d65780601f106111ab576101008083540402835291602001916111d6565b820191906000526020600020905b8154815290600101906020018083116111b957829003601f168201915b50505050508152602001600282015481526020016003820180546111f9906119e6565b80601f0160208091040260200160405190810160405280929190818152602001828054611225906119e6565b80156112725780601f1061124757610100808354040283529160200191611272565b820191906000526020600020905b81548152906001019060200180831161125557829003601f168201915b5050505050815260200160048201805461128b906119e6565b80601f01602080910402602001604051908101604052809291908181526020018280546112b7906119e6565b80156113045780601f106112d957610100808354040283529160200191611304565b820191906000526020600020905b8154815290600101906020018083116112e757829003601f168201915b50505050508152602001600582018054611029906119e6565b6040805160a08101825260008082526060602083018190529282015281810182905260808101919091526001600160a01b038316600090815260016020908152604091829020600201549151611377918691869101611a20565b60405160208183030381529060405280519060200120146113aa5760405162461bcd60e51b81526004016102f290611a58565b6001600160a01b03808416600090815260016020818152604092839020835160a08101909452805490941683529083018054929392918401916113ec906119e6565b80601f0160208091040260200160405190810160405280929190818152602001828054611418906119e6565b80156114655780601f1061143a57610100808354040283529160200191611465565b820191906000526020600020905b81548152906001019060200180831161144857829003601f168201915b5050505050815260200160028201548152602001600382018054611488906119e6565b80601f01602080910402602001604051908101604052809291908181526020018280546114b4906119e6565b80156115015780601f106114d657610100808354040283529160200191611501565b820191906000526020600020905b8154815290600101906020018083116114e457829003601f168201915b50505050508152602001600482018054611029906119e6565b6040518060c0016040528060006001600160a01b0316815260200160608152602001600080191681526020016060815260200160608152602001606081525090565b80356001600160a01b038116811461157357600080fd5b919050565b60006020828403121561158a57600080fd5b6115938261155c565b9392505050565b60005b838110156115b557818101518382015260200161159d565b50506000910152565b600081518084526115d681602086016020860161159a565b601f01601f19169290920160200192915050565b60208152600061159360208301846115be565b634e487b7160e01b600052604160045260246000fd5b600082601f83011261162457600080fd5b813567ffffffffffffffff8082111561163f5761163f6115fd565b604051601f8301601f19908116603f01168101908282118183101715611667576116676115fd565b8160405283815286602085880101111561168057600080fd5b836020870160208301376000602085830101528094505050505092915050565b600080604083850312156116b357600080fd5b6116bc8361155c565b9150602083013567ffffffffffffffff8111156116d857600080fd5b6116e485828601611613565b9150509250929050565b602080825282516001600160a01b0316828201528201516060604083015260009061171c60808401826115be565b9050604084015160608401528091505092915050565b60008060008060008060008060006101208a8c03121561175157600080fd5b893567ffffffffffffffff8082111561176957600080fd5b6117758d838e01611613565b9a5061178360208d0161155c565b995060408c013591508082111561179957600080fd5b6117a58d838e01611613565b985060608c01359150808211156117bb57600080fd5b6117c78d838e01611613565b975060808c01359150808211156117dd57600080fd5b6117e98d838e01611613565b965060a08c01359150808211156117ff57600080fd5b61180b8d838e01611613565b955060c08c013591508082111561182157600080fd5b61182d8d838e01611613565b945060e08c013591508082111561184357600080fd5b61184f8d838e01611613565b93506101008c013591508082111561186657600080fd5b506118738c828d01611613565b9150509295985092959850929598565b602080825282516001600160a01b03168282015282015160c060408301526000906118b160e08401826115be565b9050604084015160608401526060840151601f19808584030160808601526118d983836115be565b925060808601519150808584030160a08601526118f683836115be565b925060a08601519150808584030160c08601525061191482826115be565b95945050505050565b602080825282516001600160a01b0316828201528201516080604083015260009061194b60a08401826115be565b9050604084015160608401526060840151601f1984830301608085015261191482826115be565b602080825282516001600160a01b03168282015282015160a060408301526000906119a060c08401826115be565b9050604084015160608401526060840151601f19808584030160808601526119c883836115be565b925060808601519150808584030160a08601525061191482826115be565b600181811c908216806119fa57607f821691505b602082108103611a1a57634e487b7160e01b600052602260045260246000fd5b50919050565b6bffffffffffffffffffffffff198360601b16815260008251611a4a81601485016020870161159a565b919091016014019392505050565b6020808252601b908201527f5573756172696f206f752073656e686120696e636f727265746f2e0000000000604082015260600190565b60008251611aa181846020870161159a565b9190910192915050565b601f821115611af557600081815260208120601f850160051c81016020861015611ad25750805b601f850160051c820191505b81811015611af157828155600101611ade565b5050505b505050565b815167ffffffffffffffff811115611b1457611b146115fd565b611b2881611b2284546119e6565b84611aab565b602080601f831160018114611b5d5760008415611b455750858301515b600019600386901b1c1916600185901b178555611af1565b600085815260208120601f198616915b82811015611b8c57888601518255948401946001909101908401611b6d565b5085821015611baa5787850151600019600388901b60f8161c191681555b5050505050600190811b0190555056fea26469706673582212204dd7c3e43150d3e91d7c9e191e20b514014b432fbfa488557fdd0ea5bc4063cf64736f6c63430008110033",
  "immutableReferences": {},
  "source": "// SPDX-License-Identifier: MIT\r\npragma solidity ^0.8.17;\r\n\r\ncontract Authentication {\r\n    struct Productor {\r\n        address addr;\r\n        string name;\r\n        bytes32 password;\r\n        string town;\r\n        string apiary;\r\n        string email;\r\n    }\r\n\r\n    struct Processor {\r\n        address addr;\r\n        string name;\r\n        bytes32 password;\r\n        string establishment;\r\n        string certification;\r\n    }\r\n\r\n    struct Distributor {\r\n        address addr;\r\n        string name;\r\n        bytes32 password;\r\n    }\r\n\r\n    struct Merchant {\r\n        address addr;\r\n        string name;\r\n        bytes32 password;\r\n        string stablishment;\r\n    }\r\n\r\n    mapping(address => Productor) productors; // id => User\r\n    mapping(address => Processor) processors; // id => User\r\n    mapping(address => Distributor) distributors; // id => User\r\n    mapping(address => Merchant) merchants; // id => User\r\n\r\n    mapping(address => bool) public users; // usuarios ativos com permissao de modificaao\r\n    mapping(address => string) typeUsers; // id => tipo de usuario\r\n\r\n    //mapping(address => string) accounts; // account => id User\r\n    //mapping(address => string) usersType; // account => tipo de usuario\r\n\r\n    modifier onlyOWNER(address _addr) {\r\n        require(users[_addr] == true, \"Permissao negada!\");\r\n        _;\r\n    }\r\n\r\n    function register(\r\n        string memory _type,\r\n        address _addr,\r\n        string memory _name,\r\n        string memory _password,\r\n        string memory _town,\r\n        string memory _apiary,\r\n        string memory _email,\r\n        string memory _stablishment,\r\n        string memory _certification\r\n    ) public returns (string memory) {\r\n        // Registrar o produtor\r\n        if (\r\n            keccak256(abi.encodePacked(_type)) ==\r\n            keccak256(abi.encodePacked(\"productor\"))\r\n        ) {\r\n            require(\r\n                productors[_addr].addr ==\r\n                    0x0000000000000000000000000000000000000000,\r\n                \"Produtor ja cadastrado\"\r\n            );\r\n            bytes32 passwd = keccak256(abi.encodePacked(_addr, _password));\r\n            productors[_addr] = Productor(\r\n                _addr,\r\n                _name,\r\n                passwd,\r\n                _town,\r\n                _apiary,\r\n                _email\r\n            );\r\n            users[_addr] = true;\r\n            typeUsers[_addr] = _type;\r\n            return string(abi.encodePacked(productors[_addr].addr));\r\n\r\n            // Registrar o processador\r\n        } else if (\r\n            keccak256(abi.encodePacked(_type)) ==\r\n            keccak256(abi.encodePacked(\"processor\"))\r\n        ) {\r\n            require(\r\n                processors[_addr].addr ==\r\n                    0x0000000000000000000000000000000000000000,\r\n                \"Processador ja cadastrado\"\r\n            );\r\n            bytes32 passwd = keccak256(abi.encodePacked(_addr, _password));\r\n            processors[_addr] = Processor(\r\n                _addr,\r\n                _name,\r\n                passwd,\r\n                _stablishment,\r\n                _certification\r\n            );\r\n            users[_addr] = true;\r\n            typeUsers[_addr] = _type;\r\n            return string(abi.encodePacked(processors[_addr].addr));\r\n\r\n            // Registrar o distribuidor\r\n        } else if (\r\n            keccak256(abi.encodePacked(_type)) ==\r\n            keccak256(abi.encodePacked(\"distributor\"))\r\n        ) {\r\n            require(\r\n                distributors[_addr].addr ==\r\n                    0x0000000000000000000000000000000000000000,\r\n                \"Distribuidor ja cadastrado\"\r\n            );\r\n            bytes32 passwd = keccak256(abi.encodePacked(_addr, _password));\r\n            distributors[_addr] = Distributor(_addr, _name, passwd);\r\n            users[_addr] = true;\r\n            typeUsers[_addr] = _type;\r\n            return string(abi.encodePacked(processors[_addr].addr));\r\n        } else if (\r\n            keccak256(abi.encodePacked(_type)) ==\r\n            keccak256(abi.encodePacked(\"merchant\"))\r\n        ) {\r\n            require(\r\n                merchants[_addr].addr ==\r\n                    0x0000000000000000000000000000000000000000,\r\n                \"Comerciante ja cadastrado\"\r\n            );\r\n            bytes32 passwd = keccak256(abi.encodePacked(_addr, _password));\r\n            merchants[_addr] = Merchant(_addr, _name, passwd, _stablishment);\r\n            users[_addr] = true;\r\n            typeUsers[_addr] = _type;\r\n            return string(abi.encodePacked(merchants[_addr].addr));\r\n        } else {\r\n            return \"Erro no cadastro!\";\r\n        }\r\n    }\r\n\r\n    function listProductor() public view returns (Productor memory) {\r\n        return productors[msg.sender];\r\n    }\r\n\r\n    function listTypeUsers() public view returns (string memory) {\r\n        return typeUsers[msg.sender];\r\n    }\r\n\r\n    function activeUser(address _addr) public view returns (bool) {\r\n        return users[_addr];\r\n    }\r\n\r\n    // function getUser(\r\n    //     string memory _id,\r\n    //     string memory _type\r\n    // ) public view returns (Productor memory, Processor memory) {\r\n    //     require(\r\n    //         keccak256(abi.encodePacked(users[_account].account)) ==\r\n    //             keccak256(abi.encodePacked(_account))\r\n    //     );\r\n    //     return users[_account];\r\n    // }\r\n\r\n    // function login(\r\n    //     string memory _name,\r\n    //     string memory _password\r\n    // ) public view returns () {\r\n    //     require(\r\n    //         keccak256(abi.encodePacked(_name, _password)) ==\r\n    //             productors[_name].password,\r\n    //         \"Usuario ou senha incorretos\"\r\n    //     );\r\n    //     return productors[_name];\r\n    // }\r\n\r\n    function getTypeUser(address _addr) public view returns (string memory) {\r\n        return typeUsers[_addr];\r\n    }\r\n\r\n    function loginProductor(\r\n        address _addr,\r\n        string memory _password\r\n    ) public view returns (Productor memory) {\r\n        require(\r\n            keccak256(abi.encodePacked(_addr, _password)) ==\r\n                productors[_addr].password,\r\n            \"Usuario ou senha incorreto.\"\r\n        );\r\n\r\n        return productors[_addr];\r\n    }\r\n\r\n    function loginProcessor(\r\n        address _account,\r\n        string memory _password\r\n    ) public view returns (Processor memory) {\r\n        require(\r\n            keccak256(abi.encodePacked(_account, _password)) ==\r\n                processors[_account].password,\r\n            \"Usuario ou senha incorreto.\"\r\n        );\r\n\r\n        return processors[_account];\r\n    }\r\n\r\n    function loginDistributor(\r\n        address _account,\r\n        string memory _password\r\n    ) public view returns (Distributor memory) {\r\n        require(\r\n            keccak256(abi.encodePacked(_account, _password)) ==\r\n                distributors[_account].password,\r\n            \"Usuario ou senha incorreto.\"\r\n        );\r\n\r\n        return distributors[_account];\r\n    }\r\n\r\n    function loginMerchant(\r\n        address _account,\r\n        string memory _password\r\n    ) public view returns (Merchant memory) {\r\n        require(\r\n            keccak256(abi.encodePacked(_account, _password)) ==\r\n                merchants[_account].password,\r\n            \"Usuario ou senha incorreto.\"\r\n        );\r\n\r\n        return merchants[_account];\r\n    }\r\n}\r\n",
  "sourcePath": "C:\\Users\\samue\\Documents\\Workspace_react\\BlockForBees\\backend_blockcahin\\contracts\\Authentication.sol",
  "compiler": {
    "name": "solc",
    "version": "0.8.17+commit.8df45f5f.Emscripten.clang"
  },
  "schemaVersion": "3.4.11",
  "updatedAt": "2023-03-31T23:09:30.941Z",
  "devdoc": {
    "kind": "dev",
    "methods": {},
    "version": 1
  },
  "userdoc": {
    "kind": "user",
    "methods": {},
    "version": 1
  }
}