{
  "contractName": "Processing",
  "abi": [
    {
      "inputs": [
        {
          "internalType": "address",
          "name": "_contractAuthentication",
          "type": "address"
        },
        {
          "internalType": "address",
          "name": "_contractUpdateTr",
          "type": "address"
        }
      ],
      "stateMutability": "nonpayable",
      "type": "constructor"
    },
    {
      "inputs": [
        {
          "internalType": "address",
          "name": "",
          "type": "address"
        },
        {
          "internalType": "bytes32",
          "name": "",
          "type": "bytes32"
        }
      ],
      "name": "container",
      "outputs": [
        {
          "internalType": "bytes32",
          "name": "codigo",
          "type": "bytes32"
        }
      ],
      "stateMutability": "view",
      "type": "function"
    },
    {
      "inputs": [
        {
          "internalType": "address",
          "name": "",
          "type": "address"
        },
        {
          "internalType": "bytes32",
          "name": "",
          "type": "bytes32"
        }
      ],
      "name": "feedstocks",
      "outputs": [
        {
          "internalType": "bytes32",
          "name": "id",
          "type": "bytes32"
        },
        {
          "internalType": "string",
          "name": "idFeedstock",
          "type": "string"
        },
        {
          "internalType": "string",
          "name": "fornecedor",
          "type": "string"
        },
        {
          "internalType": "string",
          "name": "data",
          "type": "string"
        }
      ],
      "stateMutability": "view",
      "type": "function"
    },
    {
      "inputs": [
        {
          "internalType": "address",
          "name": "",
          "type": "address"
        },
        {
          "internalType": "bytes32",
          "name": "",
          "type": "bytes32"
        }
      ],
      "name": "honeys",
      "outputs": [
        {
          "internalType": "bytes32",
          "name": "codigo",
          "type": "bytes32"
        },
        {
          "internalType": "string",
          "name": "lote",
          "type": "string"
        },
        {
          "internalType": "string",
          "name": "especializacao",
          "type": "string"
        },
        {
          "internalType": "uint64",
          "name": "peso",
          "type": "uint64"
        },
        {
          "internalType": "string",
          "name": "data",
          "type": "string"
        }
      ],
      "stateMutability": "view",
      "type": "function"
    },
    {
      "inputs": [
        {
          "internalType": "string",
          "name": "_idFeedstock",
          "type": "string"
        },
        {
          "internalType": "string",
          "name": "_fornecedor",
          "type": "string"
        },
        {
          "internalType": "string",
          "name": "_data",
          "type": "string"
        },
        {
          "internalType": "address",
          "name": "_addr",
          "type": "address"
        }
      ],
      "name": "regiterFeedstock",
      "outputs": [],
      "stateMutability": "nonpayable",
      "type": "function"
    },
    {
      "inputs": [
        {
          "internalType": "string",
          "name": "_lote",
          "type": "string"
        },
        {
          "internalType": "string",
          "name": "_especializacao",
          "type": "string"
        },
        {
          "internalType": "uint64",
          "name": "_peso",
          "type": "uint64"
        },
        {
          "internalType": "string",
          "name": "_data",
          "type": "string"
        },
        {
          "internalType": "address",
          "name": "_addr",
          "type": "address"
        }
      ],
      "name": "newHoney",
      "outputs": [],
      "stateMutability": "nonpayable",
      "type": "function"
    },
    {
      "inputs": [
        {
          "internalType": "bytes32[]",
          "name": "_codigoHoney",
          "type": "bytes32[]"
        },
        {
          "internalType": "address",
          "name": "_addr",
          "type": "address"
        }
      ],
      "name": "newContainer",
      "outputs": [],
      "stateMutability": "nonpayable",
      "type": "function"
    },
    {
      "inputs": [
        {
          "internalType": "address",
          "name": "_sender",
          "type": "address"
        },
        {
          "internalType": "address",
          "name": "_recipient",
          "type": "address"
        },
        {
          "internalType": "bytes32",
          "name": "_product",
          "type": "bytes32"
        },
        {
          "internalType": "bytes32",
          "name": "_lote",
          "type": "bytes32"
        },
        {
          "internalType": "bytes",
          "name": "_signature",
          "type": "bytes"
        }
      ],
      "name": "forwarding",
      "outputs": [],
      "stateMutability": "nonpayable",
      "type": "function"
    }
  ],
  "bytecode": "0x608060405234801561001057600080fd5b5060405161127e38038061127e83398101604081905261002f91610096565b600380546001600160a01b039384166001600160a01b0319918216811790925560048054821690921790915560058054929093169181168217909255600680549092161790556100c9565b80516001600160a01b038116811461009157600080fd5b919050565b600080604083850312156100a957600080fd5b6100b28361007a565b91506100c06020840161007a565b90509250929050565b6111a6806100d86000396000f3fe608060405234801561001057600080fd5b506004361061007d5760003560e01c80633e1c1edf1161005b5780633e1c1edf146100bd5780635d9da867146100e957806363cb69ac1461010d578063ea9d1b8e1461014657600080fd5b80632182501b1461008257806322262fbe146100975780632dc23ef9146100aa575b600080fd5b610095610090366004610b23565b610159565b005b6100956100a5366004610bbc565b6102ad565b6100956100b8366004610c6f565b610434565b6100d06100cb366004610d27565b610545565b6040516100e09493929190610da1565b60405180910390f35b6100fc6100f7366004610d27565b61070e565b6040516100e0959493929190610deb565b61013861011b366004610d27565b600260209081526000928352604080842090915290825290205481565b6040519081526020016100e0565b610095610154366004610e46565b6108ec565b60048054604051630152113160e31b81526001600160a01b0380851693820193909352839290911690630a90898890602401602060405180830381865afa1580156101a8573d6000803e3d6000fd5b505050506040513d601f19601f820116820180604052508101906101cc9190610ecc565b15156001146101f65760405162461bcd60e51b81526004016101ed90610eee565b60405180910390fd5b600085858560405160200161020d93929190610f19565b60408051601f1981840301815282825280516020918201206080840183528084528382018a81528484018a9052606085018990526001600160a01b03881660009081528084528481208382529093529290912083518155915190935060018201906102789082610fe5565b506040820151600282019061028d9082610fe5565b50606082015160038201906102a29082610fe5565b505050505050505050565b60048054604051630152113160e31b81526001600160a01b0380851693820193909352839290911690630a90898890602401602060405180830381865afa1580156102fc573d6000803e3d6000fd5b505050506040513d601f19601f820116820180604052508101906103209190610ecc565b15156001146103415760405162461bcd60e51b81526004016101ed90610eee565b60008686868660405160200161035a94939291906110a5565b60408051601f19818403018152828252805160209182012060a0840183528084528382018b81528484018b905267ffffffffffffffff8a166060860152608085018990526001600160a01b0388166000908152600180855285822084835290945293909320845181559251909450908201906103d69082610fe5565b50604082015160028201906103eb9082610fe5565b50606082015160038201805467ffffffffffffffff191667ffffffffffffffff909216919091179055608082015160048201906104289082610fe5565b50505050505050505050565b60048054604051630152113160e31b81526001600160a01b0380851693820193909352839290911690630a90898890602401602060405180830381865afa158015610483573d6000803e3d6000fd5b505050506040513d601f19601f820116820180604052508101906104a79190610ecc565b15156001146104c85760405162461bcd60e51b81526004016101ed90610eee565b6000836040516020016104db9190611100565b60408051601f19818403018152828252805160209182012083830183528084528382018881526001600160a01b038816600090815260028452848120838252845293909320845181559251805191955061053c9260018501929101906109e1565b50505050505050565b60006020818152928152604080822090935290815220805460018201805491929161056f90610f5c565b80601f016020809104026020016040519081016040528092919081815260200182805461059b90610f5c565b80156105e85780601f106105bd576101008083540402835291602001916105e8565b820191906000526020600020905b8154815290600101906020018083116105cb57829003601f168201915b5050505050908060020180546105fd90610f5c565b80601f016020809104026020016040519081016040528092919081815260200182805461062990610f5c565b80156106765780601f1061064b57610100808354040283529160200191610676565b820191906000526020600020905b81548152906001019060200180831161065957829003601f168201915b50505050509080600301805461068b90610f5c565b80601f01602080910402602001604051908101604052809291908181526020018280546106b790610f5c565b80156107045780601f106106d957610100808354040283529160200191610704565b820191906000526020600020905b8154815290600101906020018083116106e757829003601f168201915b5050505050905084565b600160208181526000938452604080852090915291835291208054918101805461073790610f5c565b80601f016020809104026020016040519081016040528092919081815260200182805461076390610f5c565b80156107b05780601f10610785576101008083540402835291602001916107b0565b820191906000526020600020905b81548152906001019060200180831161079357829003601f168201915b5050505050908060020180546107c590610f5c565b80601f01602080910402602001604051908101604052809291908181526020018280546107f190610f5c565b801561083e5780601f106108135761010080835404028352916020019161083e565b820191906000526020600020905b81548152906001019060200180831161082157829003601f168201915b5050506003840154600485018054949567ffffffffffffffff90921694919350915061086990610f5c565b80601f016020809104026020016040519081016040528092919081815260200182805461089590610f5c565b80156108e25780601f106108b7576101008083540402835291602001916108e2565b820191906000526020600020905b8154815290600101906020018083116108c557829003601f168201915b5050505050905085565b60048054604051630152113160e31b8152339281018390526001600160a01b0390911690630a90898890602401602060405180830381865afa158015610936573d6000803e3d6000fd5b505050506040513d601f19601f8201168201806040525081019061095a9190610ecc565b151560011461097b5760405162461bcd60e51b81526004016101ed90610eee565b6006546040516304d3134960e11b81526001600160a01b03909116906309a62692906109b39089908990899089908990600401611136565b600060405180830381600087803b1580156109cd57600080fd5b505af1158015610428573d6000803e3d6000fd5b828054828255906000526020600020908101928215610a1c579160200282015b82811115610a1c578251825591602001919060010190610a01565b50610a28929150610a2c565b5090565b5b80821115610a285760008155600101610a2d565b634e487b7160e01b600052604160045260246000fd5b604051601f8201601f1916810167ffffffffffffffff81118282101715610a8057610a80610a41565b604052919050565b600067ffffffffffffffff831115610aa257610aa2610a41565b610ab5601f8401601f1916602001610a57565b9050828152838383011115610ac957600080fd5b828260208301376000602084830101529392505050565b600082601f830112610af157600080fd5b610b0083833560208501610a88565b9392505050565b80356001600160a01b0381168114610b1e57600080fd5b919050565b60008060008060808587031215610b3957600080fd5b843567ffffffffffffffff80821115610b5157600080fd5b610b5d88838901610ae0565b95506020870135915080821115610b7357600080fd5b610b7f88838901610ae0565b94506040870135915080821115610b9557600080fd5b50610ba287828801610ae0565b925050610bb160608601610b07565b905092959194509250565b600080600080600060a08688031215610bd457600080fd5b853567ffffffffffffffff80821115610bec57600080fd5b610bf889838a01610ae0565b96506020880135915080821115610c0e57600080fd5b610c1a89838a01610ae0565b9550604088013591508082168214610c3157600080fd5b90935060608701359080821115610c4757600080fd5b50610c5488828901610ae0565b925050610c6360808701610b07565b90509295509295909350565b60008060408385031215610c8257600080fd5b823567ffffffffffffffff80821115610c9a57600080fd5b818501915085601f830112610cae57600080fd5b8135602082821115610cc257610cc2610a41565b8160051b9250610cd3818401610a57565b8281529284018101928181019089851115610ced57600080fd5b948201945b84861015610d0b57853582529482019490820190610cf2565b9650610d1a9050878201610b07565b9450505050509250929050565b60008060408385031215610d3a57600080fd5b610d4383610b07565b946020939093013593505050565b60005b83811015610d6c578181015183820152602001610d54565b50506000910152565b60008151808452610d8d816020860160208601610d51565b601f01601f19169290920160200192915050565b848152608060208201526000610dba6080830186610d75565b8281036040840152610dcc8186610d75565b90508281036060840152610de08185610d75565b979650505050505050565b85815260a060208201526000610e0460a0830187610d75565b8281036040840152610e168187610d75565b905067ffffffffffffffff851660608401528281036080840152610e3a8185610d75565b98975050505050505050565b600080600080600060a08688031215610e5e57600080fd5b610e6786610b07565b9450610e7560208701610b07565b93506040860135925060608601359150608086013567ffffffffffffffff811115610e9f57600080fd5b8601601f81018813610eb057600080fd5b610ebf88823560208401610a88565b9150509295509295909350565b600060208284031215610ede57600080fd5b81518015158114610b0057600080fd5b6020808252601190820152705065726d697373616f206e65676164612160781b604082015260600190565b60008451610f2b818460208901610d51565b845190830190610f3f818360208901610d51565b8451910190610f52818360208801610d51565b0195945050505050565b600181811c90821680610f7057607f821691505b602082108103610f9057634e487b7160e01b600052602260045260246000fd5b50919050565b601f821115610fe057600081815260208120601f850160051c81016020861015610fbd5750805b601f850160051c820191505b81811015610fdc57828155600101610fc9565b5050505b505050565b815167ffffffffffffffff811115610fff57610fff610a41565b6110138161100d8454610f5c565b84610f96565b602080601f83116001811461104857600084156110305750858301515b600019600386901b1c1916600185901b178555610fdc565b600085815260208120601f198616915b8281101561107757888601518255948401946001909101908401611058565b50858210156110955787850151600019600388901b60f8161c191681555b5050505050600190811b01905550565b600085516110b7818460208a01610d51565b8551908301906110cb818360208a01610d51565b60c086901b6001600160c01b031916910190815283516110f2816008840160208801610d51565b016008019695505050505050565b815160009082906020808601845b8381101561112a5781518552938201939082019060010161110e565b50929695505050505050565b6001600160a01b03868116825285166020820152604081018490526060810183905260a060808201819052600090610de090830184610d7556fea2646970667358221220534bc60a99405c9e91e39f0e7ac026557b86c414e750cd608b6f98496e02838e64736f6c63430008110033",
  "immutableReferences": {},
  "source": "// SPDX-License-Identifier: MIT\r\npragma solidity ^0.8.17;\r\nimport \"./Authentication.sol\";\r\nimport \"./UpdateTr.sol\";\r\n\r\nstruct Feedstock {\r\n    bytes32 id;\r\n    string idFeedstock;\r\n    string fornecedor;\r\n    string data;\r\n}\r\n\r\nstruct Honey {\r\n    bytes32 codigo;\r\n    string lote;\r\n    string especializacao;\r\n    uint64 peso;\r\n    string data;\r\n    //uint256 producaoId;\r\n}\r\n\r\nstruct Container {\r\n    bytes32 codigo;\r\n    bytes32[] codigoHoney;\r\n}\r\n\r\ncontract Processing {\r\n    // Variaveis de estado\r\n    mapping(address => mapping(bytes32 => Feedstock)) public feedstocks; // codigo => carregamento. lista de materia prima recebida.\r\n    mapping(address => mapping(bytes32 => Honey)) public honeys; // codigo => Honey. Lista de produtos fabricados.\r\n    mapping(address => mapping(bytes32 => Container)) public container;\r\n\r\n    address contractAuthentication;\r\n    Authentication instanceAuthentication;\r\n    address contractUpdateTr;\r\n    UpdateTr instanceUpdateTr;\r\n\r\n    constructor(address _contractAuthentication, address _contractUpdateTr) {\r\n        contractAuthentication = _contractAuthentication;\r\n        instanceAuthentication = Authentication(contractAuthentication);\r\n        contractUpdateTr = _contractUpdateTr;\r\n        instanceUpdateTr = UpdateTr(contractUpdateTr);\r\n    }\r\n\r\n    //Verifica se o endereo que esta chamando o contrato possui permisao para modificar o estado da rede\r\n    modifier onlyOWNER(address _addr) {\r\n        require(\r\n            instanceAuthentication.activeUser(_addr) == true,\r\n            \"Permissao negada!\"\r\n        );\r\n        _;\r\n    }\r\n\r\n    function regiterFeedstock(\r\n        string memory _idFeedstock,\r\n        string memory _fornecedor,\r\n        string memory _data,\r\n        address _addr\r\n    ) public onlyOWNER(_addr) {\r\n        bytes32 _id = keccak256(\r\n            abi.encodePacked(_idFeedstock, _fornecedor, _data)\r\n        );\r\n        feedstocks[_addr][_id] = Feedstock(\r\n            _id,\r\n            _idFeedstock,\r\n            _fornecedor,\r\n            _data\r\n        );\r\n    }\r\n\r\n    function newHoney(\r\n        string memory _lote,\r\n        string memory _especializacao,\r\n        uint64 _peso,\r\n        string memory _data,\r\n        address _addr\r\n    ) public onlyOWNER(_addr) {\r\n        bytes32 _codigo = keccak256(\r\n            abi.encodePacked(_lote, _especializacao, _peso, _data)\r\n        );\r\n        honeys[_addr][_codigo] = Honey(\r\n            _codigo,\r\n            _lote,\r\n            _especializacao,\r\n            _peso,\r\n            _data\r\n        );\r\n    }\r\n\r\n    function newContainer(\r\n        bytes32[] memory _codigoHoney,\r\n        address _addr\r\n    ) public onlyOWNER(_addr) {\r\n        bytes32 _codigo = keccak256(abi.encodePacked(_codigoHoney));\r\n        container[_addr][_codigo] = Container(_codigo, _codigoHoney);\r\n    }\r\n\r\n    function forwarding(\r\n        address _sender,\r\n        address _recipient,\r\n        bytes32 _product,\r\n        bytes32 _lote,\r\n        bytes memory _signature\r\n    ) public onlyOWNER(msg.sender) {\r\n        //chamar funcao atualizarTr no contrato AtualizarTr\r\n        instanceUpdateTr.atualizarTr(\r\n            _sender,\r\n            _recipient,\r\n            _product,\r\n            _lote,\r\n            _signature\r\n        );\r\n    }\r\n}\r\n",
  "sourcePath": "C:\\Users\\samue\\Documents\\Workspace_react\\BlockForBees\\backend_blockcahin\\contracts\\Processing.sol",
  "compiler": {
    "name": "solc",
    "version": "0.8.17+commit.8df45f5f.Emscripten.clang"
  },
  "schemaVersion": "3.4.11",
  "updatedAt": "2023-03-31T23:09:30.961Z",
  "devdoc": {
    "kind": "dev",
    "methods": {},
    "version": 1
  },
  "userdoc": {
    "kind": "user",
    "methods": {},
    "version": 1
  }
}