{
  "contractName": "RegistrarProducao",
  "abi": [
    {
      "inputs": [
        {
          "internalType": "address",
          "name": "_contract",
          "type": "address"
        }
      ],
      "stateMutability": "nonpayable",
      "type": "constructor"
    },
    {
      "anonymous": false,
      "inputs": [
        {
          "indexed": true,
          "internalType": "address",
          "name": "OWNER",
          "type": "address"
        },
        {
          "components": [
            {
              "internalType": "uint256",
              "name": "colmeiaId",
              "type": "uint256"
            },
            {
              "internalType": "uint16",
              "name": "melProduzido",
              "type": "uint16"
            },
            {
              "internalType": "uint256",
              "name": "dateColeta",
              "type": "uint256"
            }
          ],
          "indexed": false,
          "internalType": "struct Colmeia[]",
          "name": "colmeias",
          "type": "tuple[]"
        },
        {
          "indexed": true,
          "internalType": "uint256",
          "name": "date",
          "type": "uint256"
        }
      ],
      "name": "Coleta",
      "type": "event"
    },
    {
      "anonymous": false,
      "inputs": [
        {
          "indexed": false,
          "internalType": "address",
          "name": "OWNER",
          "type": "address"
        },
        {
          "components": [
            {
              "internalType": "uint256",
              "name": "colmeiaId",
              "type": "uint256"
            },
            {
              "internalType": "uint16",
              "name": "melProduzido",
              "type": "uint16"
            },
            {
              "internalType": "uint256",
              "name": "dateColeta",
              "type": "uint256"
            }
          ],
          "indexed": false,
          "internalType": "struct Colmeia",
          "name": "colmeia",
          "type": "tuple"
        },
        {
          "indexed": false,
          "internalType": "uint256",
          "name": "date",
          "type": "uint256"
        }
      ],
      "name": "Enxame",
      "type": "event"
    },
    {
      "anonymous": false,
      "inputs": [
        {
          "indexed": true,
          "internalType": "address",
          "name": "_sender",
          "type": "address"
        },
        {
          "indexed": true,
          "internalType": "address",
          "name": "_recipient",
          "type": "address"
        },
        {
          "indexed": false,
          "internalType": "uint256",
          "name": "produtionId",
          "type": "uint256"
        },
        {
          "indexed": true,
          "internalType": "uint256",
          "name": "lote",
          "type": "uint256"
        },
        {
          "indexed": false,
          "internalType": "bytes",
          "name": "signature",
          "type": "bytes"
        }
      ],
      "name": "Transfer",
      "type": "event"
    },
    {
      "inputs": [
        {
          "internalType": "uint256",
          "name": "_colmeiaId",
          "type": "uint256"
        },
        {
          "internalType": "uint16",
          "name": "_melProduzido",
          "type": "uint16"
        },
        {
          "internalType": "address",
          "name": "_userId",
          "type": "address"
        }
      ],
      "name": "updateColmeia",
      "outputs": [],
      "stateMutability": "nonpayable",
      "type": "function"
    },
    {
      "inputs": [],
      "name": "listColmeias",
      "outputs": [
        {
          "components": [
            {
              "internalType": "uint256",
              "name": "colmeiaId",
              "type": "uint256"
            },
            {
              "internalType": "uint16",
              "name": "melProduzido",
              "type": "uint16"
            },
            {
              "internalType": "uint256",
              "name": "dateColeta",
              "type": "uint256"
            }
          ],
          "internalType": "struct Colmeia[]",
          "name": "",
          "type": "tuple[]"
        }
      ],
      "stateMutability": "view",
      "type": "function"
    },
    {
      "inputs": [
        {
          "internalType": "uint256",
          "name": "_colmeiaId",
          "type": "uint256"
        }
      ],
      "name": "getColmeiaById",
      "outputs": [
        {
          "components": [
            {
              "internalType": "uint256",
              "name": "colmeiaId",
              "type": "uint256"
            },
            {
              "internalType": "uint16",
              "name": "melProduzido",
              "type": "uint16"
            },
            {
              "internalType": "uint256",
              "name": "dateColeta",
              "type": "uint256"
            }
          ],
          "internalType": "struct Colmeia",
          "name": "",
          "type": "tuple"
        }
      ],
      "stateMutability": "view",
      "type": "function"
    },
    {
      "inputs": [
        {
          "internalType": "uint256",
          "name": "_id",
          "type": "uint256"
        },
        {
          "internalType": "uint64",
          "name": "_peso",
          "type": "uint64"
        },
        {
          "internalType": "string",
          "name": "_localizacao",
          "type": "string"
        },
        {
          "internalType": "address",
          "name": "_apicultorId",
          "type": "address"
        },
        {
          "internalType": "uint256[]",
          "name": "_colmeiasId",
          "type": "uint256[]"
        }
      ],
      "name": "registerProduction",
      "outputs": [],
      "stateMutability": "nonpayable",
      "type": "function"
    },
    {
      "inputs": [],
      "name": "listProduction",
      "outputs": [
        {
          "components": [
            {
              "internalType": "uint256",
              "name": "id",
              "type": "uint256"
            },
            {
              "internalType": "uint64",
              "name": "WeightTotal",
              "type": "uint64"
            },
            {
              "internalType": "uint256",
              "name": "date",
              "type": "uint256"
            },
            {
              "internalType": "string",
              "name": "localization",
              "type": "string"
            },
            {
              "internalType": "address",
              "name": "apicultorId",
              "type": "address"
            },
            {
              "internalType": "uint256[]",
              "name": "colmeiasId",
              "type": "uint256[]"
            }
          ],
          "internalType": "struct Production[]",
          "name": "",
          "type": "tuple[]"
        }
      ],
      "stateMutability": "view",
      "type": "function"
    },
    {
      "inputs": [
        {
          "internalType": "uint256",
          "name": "_id",
          "type": "uint256"
        }
      ],
      "name": "getProductionById",
      "outputs": [
        {
          "components": [
            {
              "internalType": "uint256",
              "name": "id",
              "type": "uint256"
            },
            {
              "internalType": "uint64",
              "name": "WeightTotal",
              "type": "uint64"
            },
            {
              "internalType": "uint256",
              "name": "date",
              "type": "uint256"
            },
            {
              "internalType": "string",
              "name": "localization",
              "type": "string"
            },
            {
              "internalType": "address",
              "name": "apicultorId",
              "type": "address"
            },
            {
              "internalType": "uint256[]",
              "name": "colmeiasId",
              "type": "uint256[]"
            }
          ],
          "internalType": "struct Production",
          "name": "",
          "type": "tuple"
        }
      ],
      "stateMutability": "view",
      "type": "function"
    },
    {
      "inputs": [
        {
          "internalType": "address",
          "name": "_user",
          "type": "address"
        },
        {
          "components": [
            {
              "internalType": "uint256",
              "name": "codigo",
              "type": "uint256"
            },
            {
              "internalType": "uint256",
              "name": "lote",
              "type": "uint256"
            },
            {
              "internalType": "string",
              "name": "especializacao",
              "type": "string"
            },
            {
              "internalType": "uint64",
              "name": "peso",
              "type": "uint64"
            },
            {
              "internalType": "uint256",
              "name": "data",
              "type": "uint256"
            },
            {
              "internalType": "string",
              "name": "localizacao",
              "type": "string"
            },
            {
              "internalType": "uint256",
              "name": "producaoId",
              "type": "uint256"
            }
          ],
          "internalType": "struct Honey",
          "name": "_honey",
          "type": "tuple"
        }
      ],
      "name": "registerProduct",
      "outputs": [],
      "stateMutability": "nonpayable",
      "type": "function"
    },
    {
      "inputs": [
        {
          "components": [
            {
              "internalType": "uint256",
              "name": "codigo",
              "type": "uint256"
            },
            {
              "internalType": "uint256",
              "name": "lote",
              "type": "uint256"
            },
            {
              "internalType": "string",
              "name": "especializacao",
              "type": "string"
            },
            {
              "internalType": "uint64",
              "name": "peso",
              "type": "uint64"
            },
            {
              "internalType": "uint256",
              "name": "data",
              "type": "uint256"
            },
            {
              "internalType": "string",
              "name": "localizacao",
              "type": "string"
            },
            {
              "internalType": "uint256",
              "name": "producaoId",
              "type": "uint256"
            }
          ],
          "internalType": "struct Honey",
          "name": "_honey",
          "type": "tuple"
        },
        {
          "internalType": "address",
          "name": "_user",
          "type": "address"
        }
      ],
      "name": "registerProduct2",
      "outputs": [],
      "stateMutability": "nonpayable",
      "type": "function"
    },
    {
      "inputs": [
        {
          "components": [
            {
              "internalType": "uint256",
              "name": "codigo",
              "type": "uint256"
            },
            {
              "internalType": "uint256",
              "name": "lote",
              "type": "uint256"
            },
            {
              "internalType": "string",
              "name": "especializacao",
              "type": "string"
            },
            {
              "internalType": "uint64",
              "name": "peso",
              "type": "uint64"
            },
            {
              "internalType": "uint256",
              "name": "data",
              "type": "uint256"
            },
            {
              "internalType": "string",
              "name": "localizacao",
              "type": "string"
            },
            {
              "internalType": "uint256",
              "name": "producaoId",
              "type": "uint256"
            }
          ],
          "internalType": "struct Honey[]",
          "name": "_honey",
          "type": "tuple[]"
        },
        {
          "internalType": "address",
          "name": "_user",
          "type": "address"
        }
      ],
      "name": "registerProductList",
      "outputs": [
        {
          "internalType": "string",
          "name": "",
          "type": "string"
        }
      ],
      "stateMutability": "nonpayable",
      "type": "function"
    },
    {
      "inputs": [],
      "name": "listProduct",
      "outputs": [
        {
          "components": [
            {
              "internalType": "uint256",
              "name": "codigo",
              "type": "uint256"
            },
            {
              "internalType": "uint256",
              "name": "lote",
              "type": "uint256"
            },
            {
              "internalType": "string",
              "name": "especializacao",
              "type": "string"
            },
            {
              "internalType": "uint64",
              "name": "peso",
              "type": "uint64"
            },
            {
              "internalType": "uint256",
              "name": "data",
              "type": "uint256"
            },
            {
              "internalType": "string",
              "name": "localizacao",
              "type": "string"
            },
            {
              "internalType": "uint256",
              "name": "producaoId",
              "type": "uint256"
            }
          ],
          "internalType": "struct Honey[]",
          "name": "",
          "type": "tuple[]"
        }
      ],
      "stateMutability": "view",
      "type": "function"
    },
    {
      "inputs": [
        {
          "internalType": "uint256",
          "name": "_batch",
          "type": "uint256"
        }
      ],
      "name": "listProductBatch",
      "outputs": [
        {
          "components": [
            {
              "internalType": "uint256",
              "name": "codigo",
              "type": "uint256"
            },
            {
              "internalType": "uint256",
              "name": "lote",
              "type": "uint256"
            },
            {
              "internalType": "string",
              "name": "especializacao",
              "type": "string"
            },
            {
              "internalType": "uint64",
              "name": "peso",
              "type": "uint64"
            },
            {
              "internalType": "uint256",
              "name": "data",
              "type": "uint256"
            },
            {
              "internalType": "string",
              "name": "localizacao",
              "type": "string"
            },
            {
              "internalType": "uint256",
              "name": "producaoId",
              "type": "uint256"
            }
          ],
          "internalType": "struct Honey[]",
          "name": "",
          "type": "tuple[]"
        }
      ],
      "stateMutability": "view",
      "type": "function"
    },
    {
      "inputs": [
        {
          "internalType": "uint256",
          "name": "_codigo",
          "type": "uint256"
        }
      ],
      "name": "getProductById",
      "outputs": [
        {
          "components": [
            {
              "internalType": "uint256",
              "name": "codigo",
              "type": "uint256"
            },
            {
              "internalType": "uint256",
              "name": "lote",
              "type": "uint256"
            },
            {
              "internalType": "string",
              "name": "especializacao",
              "type": "string"
            },
            {
              "internalType": "uint64",
              "name": "peso",
              "type": "uint64"
            },
            {
              "internalType": "uint256",
              "name": "data",
              "type": "uint256"
            },
            {
              "internalType": "string",
              "name": "localizacao",
              "type": "string"
            },
            {
              "internalType": "uint256",
              "name": "producaoId",
              "type": "uint256"
            }
          ],
          "internalType": "struct Honey",
          "name": "",
          "type": "tuple"
        }
      ],
      "stateMutability": "view",
      "type": "function"
    },
    {
      "inputs": [],
      "name": "addLote",
      "outputs": [],
      "stateMutability": "nonpayable",
      "type": "function"
    },
    {
      "inputs": [
        {
          "internalType": "address",
          "name": "_recipient",
          "type": "address"
        },
        {
          "internalType": "uint256",
          "name": "_productionId",
          "type": "uint256"
        },
        {
          "internalType": "uint256",
          "name": "_lote",
          "type": "uint256"
        },
        {
          "internalType": "bytes",
          "name": "_signature",
          "type": "bytes"
        }
      ],
      "name": "transfer",
      "outputs": [],
      "stateMutability": "nonpayable",
      "type": "function"
    },
    {
      "inputs": [
        {
          "internalType": "address[]",
          "name": "_address",
          "type": "address[]"
        },
        {
          "internalType": "address",
          "name": "_user",
          "type": "address"
        }
      ],
      "name": "addOWNER",
      "outputs": [],
      "stateMutability": "nonpayable",
      "type": "function"
    },
    {
      "inputs": [
        {
          "internalType": "address[]",
          "name": "_address",
          "type": "address[]"
        },
        {
          "internalType": "address",
          "name": "_user",
          "type": "address"
        }
      ],
      "name": "remOWNER",
      "outputs": [],
      "stateMutability": "nonpayable",
      "type": "function"
    }
  ],
  "bytecode": "0x60806040523480156200001157600080fd5b50604051620027a2380380620027a2833981016040819052620000349162000064565b600780546001600160a01b039092166001600160a01b031992831681179091556008805490921617905562000096565b6000602082840312156200007757600080fd5b81516001600160a01b03811681146200008f57600080fd5b9392505050565b6126fc80620000a66000396000f3fe608060405234801561001057600080fd5b50600436106101005760003560e01c806391e4eac811610097578063c8282bbe11610066578063c8282bbe14610219578063c8cad8751461022c578063dabd76e914610241578063ef0d50f81461025457600080fd5b806391e4eac8146101cb57806397585989146101e0578063995c266b146101f3578063a31b7bbc1461020657600080fd5b80634ec9978f116100d35780634ec9978f146101705780635c5d05a71461018357806369fdd625146101a35780637153d3ca146101b857600080fd5b80630db28cd31461010557806325cdd651146101075780632f333732146101305780633f70c2b414610150575b600080fd5b005b61011a610115366004611bf1565b610267565b6040516101279190611c0a565b60405180910390f35b61014361013e366004611e24565b6102d7565b6040516101279190611f31565b61016361015e366004611bf1565b61034f565b6040516101279190611fba565b61010561017e366004611fcd565b6104e7565b610196610191366004611bf1565b610637565b6040516101279190612113565b6101ab61078f565b6040516101279190612126565b6101ab6101c6366004611bf1565b6109db565b6101d3610c71565b6040516101279190612188565b6101056101ee3660046121ee565b610d94565b61010561020136600461223d565b610fce565b61010561021436600461228e565b61120b565b610105610227366004612376565b61158c565b61023461174e565b60405161012791906123bf565b61010561024f366004612414565b61196e565b610105610262366004611fcd565b6119c2565b61028f604051806060016040528060008152602001600061ffff168152602001600081525090565b50326000908152600160208181526040808420948452938152918390208351606081018552815481529181015461ffff16928201929092526002909101549181019190915290565b606060005b835181101561031a576103088482815181106102fa576102fa61248a565b602002602001015184610fce565b80610312816124a0565b9150506102dc565b505060408051808201909152601581527450726f6475746f73207265676973747261646f732160581b60208201525b92915050565b610357611b03565b336000908152600560209081526040808320858452825291829020825160e0810184528154815260018201549281019290925260028101805492939192918401916103a1906124c7565b80601f01602080910402602001604051908101604052809291908181526020018280546103cd906124c7565b801561041a5780601f106103ef5761010080835404028352916020019161041a565b820191906000526020600020905b8154815290600101906020018083116103fd57829003601f168201915b505050918352505060038201546001600160401b0316602082015260048201546040820152600582018054606090920191610454906124c7565b80601f0160208091040260200160405190810160405280929190818152602001828054610480906124c7565b80156104cd5780601f106104a2576101008083540402835291602001916104cd565b820191906000526020600020905b8154815290600101906020018083116104b057829003601f168201915b505050505081526020016006820154815250509050919050565b80806040516020016104f991906124fb565b60408051808303601f190181529082905280516020909101206008546365f68c8960e01b83526001600160a01b03848116600485015291929116906365f68c8990602401602060405180830381865afa15801561055a573d6000803e3d6000fd5b505050506040513d601f19601f8201168201806040525081019061057e9190612518565b60405160200161058e91906124fb565b60405160208183030381529060405280519060200120146105ca5760405162461bcd60e51b81526004016105c190612535565b60405180910390fd5b60005b83518110156106315760016000808684815181106105ed576105ed61248a565b6020908102919091018101516001600160a01b03168252810191909152604001600020805460ff191691151591909117905580610629816124a0565b9150506105cd565b50505050565b61063f611b49565b326000908152600360208181526040808420868552825292839020835160c0810185528154815260018201546001600160401b031692810192909252600281015493820193909352908201805491929160608401919061069e906124c7565b80601f01602080910402602001604051908101604052809291908181526020018280546106ca906124c7565b80156107175780601f106106ec57610100808354040283529160200191610717565b820191906000526020600020905b8154815290600101906020018083116106fa57829003601f168201915b505050918352505060048201546001600160a01b0316602080830191909152600583018054604080518285028101850182528281529401939283018282801561077f57602002820191906000526020600020905b81548152602001906001019080831161076b575b5050505050815250509050919050565b6006546060906000906001600160401b038111156107af576107af611c2f565b6040519080825280602002602001820160405280156107e857816020015b6107d5611b03565b8152602001906001900390816107cd5790505b50905060005b6006548110156109d557336000908152600560205260408120600680549192918490811061081e5761081e61248a565b906000526020600020015481526020019081526020016000206040518060e00160405290816000820154815260200160018201548152602001600282018054610866906124c7565b80601f0160208091040260200160405190810160405280929190818152602001828054610892906124c7565b80156108df5780601f106108b4576101008083540402835291602001916108df565b820191906000526020600020905b8154815290600101906020018083116108c257829003601f168201915b505050918352505060038201546001600160401b0316602082015260048201546040820152600582018054606090920191610919906124c7565b80601f0160208091040260200160405190810160405280929190818152602001828054610945906124c7565b80156109925780601f1061096757610100808354040283529160200191610992565b820191906000526020600020905b81548152906001019060200180831161097557829003601f168201915b505050505081526020016006820154815250508282815181106109b7576109b761248a565b602002602001018190525080806109cd906124a0565b9150506107ee565b50919050565b6006546060906000906001600160401b038111156109fb576109fb611c2f565b604051908082528060200260200182016040528015610a3457816020015b610a21611b03565b815260200190600190039081610a195790505b50905060005b600654811015610c6a57336000908152600560205260408120600680548793919085908110610a6b57610a6b61248a565b906000526020600020015481526020019081526020016000206001015403610c58573360009081526005602052604081206006805491929184908110610ab357610ab361248a565b906000526020600020015481526020019081526020016000206040518060e00160405290816000820154815260200160018201548152602001600282018054610afb906124c7565b80601f0160208091040260200160405190810160405280929190818152602001828054610b27906124c7565b8015610b745780601f10610b4957610100808354040283529160200191610b74565b820191906000526020600020905b815481529060010190602001808311610b5757829003601f168201915b505050918352505060038201546001600160401b0316602082015260048201546040820152600582018054606090920191610bae906124c7565b80601f0160208091040260200160405190810160405280929190818152602001828054610bda906124c7565b8015610c275780601f10610bfc57610100808354040283529160200191610c27565b820191906000526020600020905b815481529060010190602001808311610c0a57829003601f168201915b50505050508152602001600682015481525050828281518110610c4c57610c4c61248a565b60200260200101819052505b80610c62816124a0565b915050610a3a565b5092915050565b6002546060906000906001600160401b03811115610c9157610c91611c2f565b604051908082528060200260200182016040528015610cea57816020015b610cd7604051806060016040528060008152602001600061ffff168152602001600081525090565b815260200190600190039081610caf5790505b50905060005b6002548110156109d5573260009081526001602052604081206002805491929184908110610d2057610d2061248a565b600091825260208083209091015483528281019390935260409182019020815160608101835281548152600182015461ffff169381019390935260020154908201528251839083908110610d7657610d7661248a565b60200260200101819052508080610d8c906124a0565b915050610cf0565b8180604051602001610da691906124fb565b60408051808303601f190181529082905280516020909101206008546365f68c8960e01b83526001600160a01b03848116600485015291929116906365f68c8990602401602060405180830381865afa158015610e07573d6000803e3d6000fd5b505050506040513d601f19601f82011682018060405250810190610e2b9190612518565b604051602001610e3b91906124fb565b6040516020818303038152906040528051906020012014610e6e5760405162461bcd60e51b81526004016105c190612535565b6001600160a01b03831660009081526005602090815260408083208551845290915290205415610eb05760405162461bcd60e51b81526004016105c190612560565b6040805160e0810182528351815283516020808301918252858401518385019081526060808801516001600160401b03169085015242608085015260a0808801519085015260c080880151908501526001600160a01b03881660009081526005835285812088518252909252939020825181559051600182015591519091906002820190610f3e90826125e6565b50606082015160038201805467ffffffffffffffff19166001600160401b039092169190911790556080820151600482015560a08201516005820190610f8490826125e6565b5060c09190910151600691820155915182546001810184556000939093527ff652222313e28459528d920b65115c16c04f3efc82aaedc97be59f3f377c0d3f909201919091555050565b8080604051602001610fe091906124fb565b60408051808303601f190181529082905280516020909101206008546365f68c8960e01b83526001600160a01b03848116600485015291929116906365f68c8990602401602060405180830381865afa158015611041573d6000803e3d6000fd5b505050506040513d601f19601f820116820180604052508101906110659190612518565b60405160200161107591906124fb565b60405160208183030381529060405280519060200120146110a85760405162461bcd60e51b81526004016105c190612535565b6001600160a01b038216600090815260056020908152604080832086518452909152902054156110ea5760405162461bcd60e51b81526004016105c190612560565b6040805160e08101825284518152602080860151818301908152868401518385019081526060808901516001600160401b03169085015242608085015260a0808901519085015260c080890151908501526001600160a01b038716600090815260058452858120895182529093529390912082518155905160018201559151909190600282019061117b90826125e6565b50606082015160038201805467ffffffffffffffff19166001600160401b039092169190911790556080820151600482015560a082015160058201906111c190826125e6565b5060c09190910151600691820155925183546001810185556000949094527ff652222313e28459528d920b65115c16c04f3efc82aaedc97be59f3f377c0d3f909301929092555050565b818060405160200161121d91906124fb565b60408051808303601f190181529082905280516020909101206008546365f68c8960e01b83526001600160a01b03848116600485015291929116906365f68c8990602401602060405180830381865afa15801561127e573d6000803e3d6000fd5b505050506040513d601f19601f820116820180604052508101906112a29190612518565b6040516020016112b291906124fb565b60405160208183030381529060405280519060200120146112e55760405162461bcd60e51b81526004016105c190612535565b6001600160a01b0383166000908152600360209081526040808320898452909152902054156113265760405162461bcd60e51b81526004016105c190612560565b600082516001600160401b0381111561134157611341611c2f565b60405190808252806020026020018201604052801561139a57816020015b611387604051806060016040528060008152602001600061ffff168152602001600081525090565b81526020019060019003908161135f5790505b50905060005b83518110156113fb576113cb8482815181106113be576113be61248a565b6020026020010151610267565b8282815181106113dd576113dd61248a565b602002602001018190525080806113f3906124a0565b9150506113a0565b5042846001600160a01b03167f13e7b1ce6401b1c66a682bf6fe4cb7778c3a20beed5ce4e21a78db374f16e5c2836040516114369190612188565b60405180910390a36040518060c00160405280888152602001876001600160401b03168152602001428152602001868152602001856001600160a01b031681526020018481525060036000866001600160a01b03166001600160a01b0316815260200190815260200160002060008981526020019081526020016000206000820151816000015560208201518160010160006101000a8154816001600160401b0302191690836001600160401b0316021790555060408201518160020155606082015181600301908161150991906125e6565b5060808201516004820180546001600160a01b0319166001600160a01b0390921691909117905560a0820151805161154b916005840191602090910190611b91565b5050600480546001810182556000919091527f8a35acfbc15ff81a39ae7d344fd709f28e8600b4aa8c65c6b64bfe7fe36bd19b019790975550505050505050565b808060405160200161159e91906124fb565b60408051808303601f190181529082905280516020909101206008546365f68c8960e01b83526001600160a01b03848116600485015291929116906365f68c8990602401602060405180830381865afa1580156115ff573d6000803e3d6000fd5b505050506040513d601f19601f820116820180604052508101906116239190612518565b60405160200161163391906124fb565b60405160208183030381529060405280519060200120146116665760405162461bcd60e51b81526004016105c190612535565b326000908152600160209081526040808320878452909152902054156116c65760405162461bcd60e51b8152602060048201526015602482015274436f6c6d656961206a61206361646173747261646160581b60448201526064016105c1565b50506040805160608101825283815261ffff9283166020808301918252428385019081523260009081526001808452868220898352909352948520935184559151838201805461ffff19169190961617909455516002918201558054928301815590527f405787fa12a823e0f2b7631cc41b3ba8828b3321ca811111fa75cd3aa3bb5ace0155565b6004546060906000906001600160401b0381111561176e5761176e611c2f565b6040519080825280602002602001820160405280156117a757816020015b611794611b49565b81526020019060019003908161178c5790505b50905060005b6004548110156109d55733600090815260036020526040812060048054919291849081106117dd576117dd61248a565b906000526020600020015481526020019081526020016000206040518060c0016040529081600082015481526020016001820160009054906101000a90046001600160401b03166001600160401b03166001600160401b0316815260200160028201548152602001600382018054611854906124c7565b80601f0160208091040260200160405190810160405280929190818152602001828054611880906124c7565b80156118cd5780601f106118a2576101008083540402835291602001916118cd565b820191906000526020600020905b8154815290600101906020018083116118b057829003601f168201915b505050918352505060048201546001600160a01b0316602080830191909152600583018054604080518285028101850182528281529401939283018282801561193557602002820191906000526020600020905b815481526020019060010190808311611921575b5050505050815250508282815181106119505761195061248a565b60200260200101819052508080611966906124a0565b9150506117ad565b81846001600160a01b0316336001600160a01b03167f8935efbb64117f427c3b5bb8ba6478680d8c331971be8169548207e1854ae11d86856040516119b49291906126a5565b60405180910390a450505050565b80806040516020016119d491906124fb565b60408051808303601f190181529082905280516020909101206008546365f68c8960e01b83526001600160a01b03848116600485015291929116906365f68c8990602401602060405180830381865afa158015611a35573d6000803e3d6000fd5b505050506040513d601f19601f82011682018060405250810190611a599190612518565b604051602001611a6991906124fb565b6040516020818303038152906040528051906020012014611a9c5760405162461bcd60e51b81526004016105c190612535565b60005b8351811015610631576000806000868481518110611abf57611abf61248a565b6020908102919091018101516001600160a01b03168252810191909152604001600020805460ff191691151591909117905580611afb816124a0565b915050611a9f565b6040518060e0016040528060008152602001600081526020016060815260200160006001600160401b031681526020016000815260200160608152602001600081525090565b6040518060c001604052806000815260200160006001600160401b03168152602001600081526020016060815260200160006001600160a01b03168152602001606081525090565b828054828255906000526020600020908101928215611bcc579160200282015b82811115611bcc578251825591602001919060010190611bb1565b50611bd8929150611bdc565b5090565b5b80821115611bd85760008155600101611bdd565b600060208284031215611c0357600080fd5b5035919050565b8151815260208083015161ffff16908201526040808301519082015260608101610349565b634e487b7160e01b600052604160045260246000fd5b60405160e081016001600160401b0381118282101715611c6757611c67611c2f565b60405290565b604051601f8201601f191681016001600160401b0381118282101715611c9557611c95611c2f565b604052919050565b60006001600160401b03821115611cb657611cb6611c2f565b5060051b60200190565b60006001600160401b03831115611cd957611cd9611c2f565b611cec601f8401601f1916602001611c6d565b9050828152838383011115611d0057600080fd5b828260208301376000602084830101529392505050565b600082601f830112611d2857600080fd5b611d3783833560208501611cc0565b9392505050565b80356001600160401b0381168114611d5557600080fd5b919050565b600060e08284031215611d6c57600080fd5b611d74611c45565b9050813581526020820135602082015260408201356001600160401b0380821115611d9e57600080fd5b611daa85838601611d17565b6040840152611dbb60608501611d3e565b60608401526080840135608084015260a0840135915080821115611dde57600080fd5b50611deb84828501611d17565b60a08301525060c082013560c082015292915050565b6001600160a01b0381168114611e1657600080fd5b50565b8035611d5581611e01565b60008060408385031215611e3757600080fd5b82356001600160401b0380821115611e4e57600080fd5b818501915085601f830112611e6257600080fd5b81356020611e77611e7283611c9d565b611c6d565b82815260059290921b84018101918181019089841115611e9657600080fd5b8286015b84811015611ece57803586811115611eb25760008081fd5b611ec08c86838b0101611d5a565b845250918301918301611e9a565b509650611ede9050878201611e19565b9450505050509250929050565b6000815180845260005b81811015611f1157602081850181015186830182015201611ef5565b506000602082860101526020601f19601f83011685010191505092915050565b602081526000611d376020830184611eeb565b80518252602081015160208301526000604082015160e06040850152611f6d60e0850182611eeb565b90506001600160401b0360608401511660608501526080830151608085015260a083015184820360a0860152611fa38282611eeb565b91505060c083015160c08501528091505092915050565b602081526000611d376020830184611f44565b60008060408385031215611fe057600080fd5b82356001600160401b03811115611ff657600080fd5b8301601f8101851361200757600080fd5b80356020612017611e7283611c9d565b82815260059290921b8301810191818101908884111561203657600080fd5b938201935b8385101561205d57843561204e81611e01565b8252938201939082019061203b565b955061206c9050868201611e19565b93505050509250929050565b80518252600060206001600160401b0381840151168185015260408301516040850152606083015160c060608601526120b460c0860182611eeb565b6080858101516001600160a01b03169087015260a08581015187830391880191909152805180835290840192506000918401905b8083101561210857835182529284019260019290920191908401906120e8565b509695505050505050565b602081526000611d376020830184612078565b6000602080830181845280855180835260408601915060408160051b870101925083870160005b8281101561217b57603f19888603018452612169858351611f44565b9450928501929085019060010161214d565b5092979650505050505050565b6020808252825182820181905260009190848201906040850190845b818110156121e2576121cf8385518051825260208082015161ffff1690830152604090810151910152565b92840192606092909201916001016121a4565b50909695505050505050565b6000806040838503121561220157600080fd5b823561220c81611e01565b915060208301356001600160401b0381111561222757600080fd5b61223385828601611d5a565b9150509250929050565b6000806040838503121561225057600080fd5b82356001600160401b0381111561226657600080fd5b61227285828601611d5a565b925050602083013561228381611e01565b809150509250929050565b600080600080600060a086880312156122a657600080fd5b8535945060206122b7818801611d3e565b945060408701356001600160401b03808211156122d357600080fd5b6122df8a838b01611d17565b9550606089013591506122f182611e01565b9093506080880135908082111561230757600080fd5b508701601f8101891361231957600080fd5b8035612327611e7282611c9d565b81815260059190911b8201830190838101908b83111561234657600080fd5b928401925b828410156123645783358252928401929084019061234b565b80955050505050509295509295909350565b60008060006060848603121561238b57600080fd5b83359250602084013561ffff811681146123a457600080fd5b915060408401356123b481611e01565b809150509250925092565b6000602080830181845280855180835260408601915060408160051b870101925083870160005b8281101561217b57603f19888603018452612402858351612078565b945092850192908501906001016123e6565b6000806000806080858703121561242a57600080fd5b843561243581611e01565b9350602085013592506040850135915060608501356001600160401b0381111561245e57600080fd5b8501601f8101871361246f57600080fd5b61247e87823560208401611cc0565b91505092959194509250565b634e487b7160e01b600052603260045260246000fd5b6000600182016124c057634e487b7160e01b600052601160045260246000fd5b5060010190565b600181811c908216806124db57607f821691505b6020821081036109d557634e487b7160e01b600052602260045260246000fd5b60609190911b6bffffffffffffffffffffffff1916815260140190565b60006020828403121561252a57600080fd5b8151611d3781611e01565b6020808252601190820152705065726d697373616f206e65676164612160781b604082015260600190565b6020808252601f908201527f436f6469676f20646f2070726f6475746f206a61206361646173747261646f00604082015260600190565b601f8211156125e157600081815260208120601f850160051c810160208610156125be5750805b601f850160051c820191505b818110156125dd578281556001016125ca565b5050505b505050565b81516001600160401b038111156125ff576125ff611c2f565b6126138161260d84546124c7565b84612597565b602080601f83116001811461264857600084156126305750858301515b600019600386901b1c1916600185901b1785556125dd565b600085815260208120601f198616915b8281101561267757888601518255948401946001909101908401612658565b50858210156126955787850151600019600388901b60f8161c191681555b5050505050600190811b01905550565b8281526040602082015260006126be6040830184611eeb565b94935050505056fea26469706673582212200327a40ce6ee79d720777a9cb4ad985ff02ba1b9a072d395c4cd495cbfb0cd9864736f6c63430008110033",
  "immutableReferences": {},
  "source": "// SPDX-License-Identifier: MIT\r\n\r\npragma solidity ^0.8.17;\r\n\r\nimport \"./Authentication.sol\";\r\n\r\nstruct Colmeia {\r\n    uint256 colmeiaId;\r\n    uint16 melProduzido;\r\n    uint256 dateColeta;\r\n}\r\nstruct Production {\r\n    uint256 id;\r\n    uint64 WeightTotal;\r\n    uint256 date;\r\n    string localization;\r\n    address apicultorId;\r\n    uint256[] colmeiasId;\r\n}\r\n\r\nstruct Honey {\r\n    uint256 codigo;\r\n    uint256 lote;\r\n    string especializacao;\r\n    uint64 peso;\r\n    uint256 data;\r\n    string localizacao;\r\n    uint256 producaoId;\r\n}\r\n\r\ncontract RegistrarProducao {\r\n    mapping(address => bool) OWNER;\r\n\r\n    mapping(address => mapping(uint256 => Colmeia)) colmeias;\r\n    uint256[] colmeiaId;\r\n\r\n    mapping(address => mapping(uint256 => Production)) productionList;\r\n    uint256[] productionListId;\r\n\r\n    //LoteProduction[] public productionList;\r\n    mapping(address => mapping(uint256 => Honey)) product;\r\n    uint256[] productCode;\r\n\r\n    // Eventos do contrato\r\n    event Coleta(\r\n        address indexed OWNER,\r\n        Colmeia[] colmeias,\r\n        uint256 indexed date\r\n    );\r\n    event Enxame(address OWNER, Colmeia colmeia, uint256 date);\r\n\r\n    event Transfer(\r\n        address indexed _sender,\r\n        address indexed _recipient,\r\n        uint256 produtionId,\r\n        uint256 indexed lote,\r\n        bytes signature\r\n    );\r\n\r\n    address contractAuthentication;\r\n    Authentication instance;\r\n\r\n    constructor(address _contract) {\r\n        contractAuthentication = _contract;\r\n        instance = Authentication(contractAuthentication);\r\n    }\r\n\r\n    // Verifica se o endereo que esta chamando o contrato possui permisao para modificar o estado da rede\r\n    modifier onlyOWNER(address _id) {\r\n        require(\r\n            keccak256(abi.encodePacked(instance.getId(_id))) ==\r\n                keccak256(abi.encodePacked(_id)),\r\n            \"Permissao negada!\"\r\n        );\r\n        _;\r\n    }\r\n\r\n    function updateColmeia(\r\n        uint256 _colmeiaId,\r\n        uint16 _melProduzido,\r\n        address _userId\r\n    ) public onlyOWNER(_userId) {\r\n        require(\r\n            colmeias[tx.origin][_colmeiaId].colmeiaId == 0,\r\n            \"Colmeia ja cadastrada\"\r\n        );\r\n\r\n        colmeias[tx.origin][_colmeiaId] = Colmeia(\r\n            _colmeiaId,\r\n            _melProduzido,\r\n            block.timestamp\r\n        );\r\n\r\n        colmeiaId.push(_colmeiaId);\r\n    }\r\n\r\n    function listColmeias() public view returns (Colmeia[] memory) {\r\n        Colmeia[] memory colmeia = new Colmeia[](colmeiaId.length);\r\n        for (uint256 i = 0; i < colmeiaId.length; i++) {\r\n            colmeia[i] = colmeias[tx.origin][colmeiaId[i]];\r\n        }\r\n        return colmeia;\r\n    }\r\n\r\n    function getColmeiaById(uint256 _colmeiaId)\r\n        public\r\n        view\r\n        returns (Colmeia memory)\r\n    {\r\n        return colmeias[tx.origin][_colmeiaId];\r\n    }\r\n\r\n    function registerProduction(\r\n        uint256 _id,\r\n        uint64 _peso,\r\n        string memory _localizacao,\r\n        address _apicultorId,\r\n        uint256[] memory _colmeiasId\r\n    ) public onlyOWNER(_apicultorId) {\r\n        require(\r\n            productionList[_apicultorId][_id].id == 0,\r\n            \"Codigo do produto ja cadastrado\"\r\n        );\r\n        Colmeia[] memory colmeia = new Colmeia[](_colmeiasId.length);\r\n        for (uint256 i = 0; i < _colmeiasId.length; i++) {\r\n            colmeia[i] = getColmeiaById(_colmeiasId[i]);\r\n        }\r\n\r\n        emit Coleta(_apicultorId, colmeia, block.timestamp);\r\n\r\n        productionList[_apicultorId][_id] = Production(\r\n            _id,\r\n            _peso,\r\n            block.timestamp,\r\n            _localizacao,\r\n            _apicultorId,\r\n            _colmeiasId\r\n        );\r\n        productionListId.push(_id);\r\n    }\r\n\r\n    function listProduction() public view returns (Production[] memory) {\r\n        Production[] memory production = new Production[](\r\n            productionListId.length\r\n        );\r\n        for (uint256 i = 0; i < productionListId.length; i++) {\r\n            production[i] = productionList[msg.sender][productionListId[i]];\r\n        }\r\n        return production;\r\n    }\r\n\r\n    // Retorna os dados de uma produo passando o ID.\r\n    function getProductionById(uint256 _id)\r\n        public\r\n        view\r\n        returns (Production memory)\r\n    {\r\n        return productionList[tx.origin][_id];\r\n    }\r\n\r\n    // Registrar uma unidade de prouto beneficiado\r\n    function registerProduct(address _user, Honey memory _honey)\r\n        public\r\n        onlyOWNER(_user)\r\n    {\r\n        require(\r\n            product[_user][_honey.codigo].codigo == 0,\r\n            \"Codigo do produto ja cadastrado\"\r\n        );\r\n\r\n        product[_user][_honey.codigo] = Honey(\r\n            _honey.codigo,\r\n            _honey.codigo,\r\n            _honey.especializacao,\r\n            _honey.peso,\r\n            block.timestamp,\r\n            _honey.localizacao,\r\n            _honey.producaoId\r\n        );\r\n        productCode.push(_honey.codigo);\r\n    }\r\n\r\n    function registerProduct2(Honey memory _honey, address _user)\r\n        public\r\n        onlyOWNER(_user)\r\n    {\r\n        require(\r\n            product[_user][_honey.codigo].codigo == 0,\r\n            \"Codigo do produto ja cadastrado\"\r\n        );\r\n\r\n        product[_user][_honey.codigo] = Honey(\r\n            _honey.codigo,\r\n            _honey.lote,\r\n            _honey.especializacao,\r\n            _honey.peso,\r\n            block.timestamp,\r\n            _honey.localizacao,\r\n            _honey.producaoId\r\n        );\r\n        productCode.push(_honey.codigo);\r\n    }\r\n\r\n    // Registrar uma lista de produtos beneficiados e adicionar o lote do produto\r\n    function registerProductList(Honey[] memory _honey, address _user)\r\n        public\r\n        returns (string memory)\r\n    {\r\n        for (uint256 i = 0; i < _honey.length; i++) {\r\n            registerProduct2(_honey[i], _user);\r\n        }\r\n\r\n        return \"Produtos registrados!\";\r\n    }\r\n\r\n    // Lista toda a produo do produtor\r\n    function listProduct() public view returns (Honey[] memory) {\r\n        Honey[] memory honey = new Honey[](productCode.length);\r\n        for (uint256 i = 0; i < productCode.length; i++) {\r\n            honey[i] = product[msg.sender][productCode[i]];\r\n        }\r\n        return honey;\r\n    }\r\n\r\n    function listProductBatch(uint256 _batch)\r\n        public\r\n        view\r\n        returns (Honey[] memory)\r\n    {\r\n        Honey[] memory honey = new Honey[](productCode.length);\r\n        for (uint256 i = 0; i < productCode.length; i++) {\r\n            if (product[msg.sender][productCode[i]].lote == _batch)\r\n                honey[i] = product[msg.sender][productCode[i]];\r\n        }\r\n        return honey;\r\n    }\r\n\r\n    // Retorna um produto da lista passando o codigo do produto\r\n    function getProductById(uint256 _codigo)\r\n        public\r\n        view\r\n        returns (Honey memory)\r\n    {\r\n        return product[msg.sender][_codigo];\r\n    }\r\n\r\n    function addLote() public {}\r\n\r\n    function transfer(\r\n        address _recipient,\r\n        uint256 _productionId,\r\n        uint256 _lote,\r\n        bytes memory _signature\r\n    ) public {\r\n        emit Transfer(msg.sender, _recipient, _productionId, _lote, _signature);\r\n    }\r\n\r\n    // Adiciona um address na lista de enderecos do produtor\r\n    function addOWNER(address[] memory _address, address _user)\r\n        public\r\n        onlyOWNER(_user)\r\n    {\r\n        for (uint256 i = 0; i < _address.length; i++) {\r\n            OWNER[_address[i]] = true;\r\n        }\r\n    }\r\n\r\n    // Remove um address da lista de enderecos do produtor\r\n    function remOWNER(address[] memory _address, address _user)\r\n        public\r\n        onlyOWNER(_user)\r\n    {\r\n        for (uint256 i = 0; i < _address.length; i++) {\r\n            OWNER[_address[i]] = false;\r\n        }\r\n    }\r\n}\r\n",
  "sourcePath": "C:\\Users\\samue\\Documents\\Workspace_react\\BlockForBees\\backend_blockcahin\\contracts\\RegistrarProducao.sol",
  "compiler": {
    "name": "solc",
    "version": "0.8.17+commit.8df45f5f.Emscripten.clang"
  },
  "schemaVersion": "3.4.11",
  "updatedAt": "2023-02-28T02:38:33.713Z",
  "devdoc": {
    "kind": "dev",
    "methods": {},
    "version": 1
  },
  "userdoc": {
    "kind": "user",
    "methods": {},
    "version": 1
  }
}