{
  "contractName": "UpdateTr",
  "abi": [
    {
      "anonymous": false,
      "inputs": [
        {
          "indexed": true,
          "internalType": "address",
          "name": "_sender",
          "type": "address"
        },
        {
          "indexed": true,
          "internalType": "address",
          "name": "_recipient",
          "type": "address"
        },
        {
          "indexed": false,
          "internalType": "bytes32",
          "name": "produtionId",
          "type": "bytes32"
        },
        {
          "indexed": true,
          "internalType": "bytes32",
          "name": "lote",
          "type": "bytes32"
        },
        {
          "indexed": false,
          "internalType": "bytes",
          "name": "signature",
          "type": "bytes"
        }
      ],
      "name": "Transfer",
      "type": "event"
    },
    {
      "inputs": [
        {
          "internalType": "address",
          "name": "_sender",
          "type": "address"
        },
        {
          "internalType": "address",
          "name": "_recipient",
          "type": "address"
        },
        {
          "internalType": "bytes32",
          "name": "_produtionId",
          "type": "bytes32"
        },
        {
          "internalType": "bytes32",
          "name": "_lote",
          "type": "bytes32"
        },
        {
          "internalType": "bytes",
          "name": "_signature",
          "type": "bytes"
        }
      ],
      "name": "atualizarTr",
      "outputs": [],
      "stateMutability": "nonpayable",
      "type": "function"
    },
    {
      "inputs": [
        {
          "internalType": "bytes32",
          "name": "_lote",
          "type": "bytes32"
        }
      ],
      "name": "rastrearTr",
      "outputs": [
        {
          "internalType": "address",
          "name": "",
          "type": "address"
        }
      ],
      "stateMutability": "view",
      "type": "function",
      "constant": true
    }
  ],
  "bytecode": "0x608060405234801561001057600080fd5b506102c3806100206000396000f3fe608060405234801561001057600080fd5b50600436106100365760003560e01c806309a626921461003b57806396df990c14610050575b600080fd5b61004e610049366004610138565b610095565b005b61007961005e36600461021e565b6000908152602081905260409020546001600160a01b031690565b6040516001600160a01b03909116815260200160405180910390f35b6000828152602081905260409081902080546001600160a01b031916321790555182906001600160a01b0386811691908816907f5f5ee6e8eb26c19b55599813ab882fd73fbd0ec346f33804ad36bb29020f15a7906100f79088908790610237565b60405180910390a45050505050565b80356001600160a01b038116811461011d57600080fd5b919050565b634e487b7160e01b600052604160045260246000fd5b600080600080600060a0868803121561015057600080fd5b61015986610106565b945061016760208701610106565b93506040860135925060608601359150608086013567ffffffffffffffff8082111561019257600080fd5b818801915088601f8301126101a657600080fd5b8135818111156101b8576101b8610122565b604051601f8201601f19908116603f011681019083821181831017156101e0576101e0610122565b816040528281528b60208487010111156101f957600080fd5b8260208601602083013760006020848301015280955050505050509295509295909350565b60006020828403121561023057600080fd5b5035919050565b82815260006020604081840152835180604085015260005b8181101561026b5785810183015185820160600152820161024f565b506000606082860101526060601f19601f83011685010192505050939250505056fea2646970667358221220d1e6072122e0124644c8cb4d27d12bc405851da5c4de964159572ba8c085251364736f6c63430008110033",
  "immutableReferences": {},
  "source": "// SPDX-License-Identifier: MIT\r\n\r\npragma solidity ^0.8.17;\r\n\r\ncontract UpdateTr {\r\n    mapping(bytes32 => address) transactions;\r\n    uint256 countTr;\r\n\r\n    event Transfer(\r\n        address indexed _sender,\r\n        address indexed _recipient,\r\n        bytes32 produtionId,\r\n        bytes32 indexed lote,\r\n        bytes signature\r\n    );\r\n\r\n    function atualizarTr(\r\n        address _sender,\r\n        address _recipient,\r\n        bytes32 _produtionId,\r\n        bytes32 _lote,\r\n        bytes memory _signature\r\n    ) public {\r\n        transactions[_lote] = tx.origin;\r\n        emit Transfer(_sender, _recipient, _produtionId, _lote, _signature);\r\n    }\r\n\r\n    function rastrearTr(bytes32 _lote) public view returns (address) {\r\n        return transactions[_lote];\r\n    }\r\n}\r\n",
  "sourcePath": "C:\\Users\\samue\\Documents\\Workspace_react\\BlockForBees\\backend_blockcahin\\contracts\\UpdateTr.sol",
  "compiler": {
    "name": "solc",
    "version": "0.8.17+commit.8df45f5f.Emscripten.clang"
  },
  "schemaVersion": "3.4.11",
  "updatedAt": "2023-03-31T23:09:33.942Z",
  "networkType": "ethereum",
  "devdoc": {
    "kind": "dev",
    "methods": {},
    "version": 1
  },
  "userdoc": {
    "kind": "user",
    "methods": {},
    "version": 1
  }
}